{
  "contractName": "BasicERC20",
  "abi": [
    {
      "inputs": [
        {
          "internalType": "uint256",
          "name": "_initialAmount",
          "type": "uint256"
        }
      ],
      "stateMutability": "nonpayable",
      "type": "constructor"
    },
    {
      "anonymous": false,
      "inputs": [
        {
          "indexed": true,
          "internalType": "address",
          "name": "owner",
          "type": "address"
        },
        {
          "indexed": true,
          "internalType": "address",
          "name": "spender",
          "type": "address"
        },
        {
          "indexed": false,
          "internalType": "uint256",
          "name": "value",
          "type": "uint256"
        }
      ],
      "name": "Approval",
      "type": "event"
    },
    {
      "anonymous": false,
      "inputs": [
        {
          "indexed": true,
          "internalType": "address",
          "name": "from",
          "type": "address"
        },
        {
          "indexed": true,
          "internalType": "address",
          "name": "to",
          "type": "address"
        },
        {
          "indexed": false,
          "internalType": "uint256",
          "name": "value",
          "type": "uint256"
        }
      ],
      "name": "Transfer",
      "type": "event"
    },
    {
      "inputs": [
        {
          "internalType": "address",
          "name": "",
          "type": "address"
        },
        {
          "internalType": "address",
          "name": "",
          "type": "address"
        }
      ],
      "name": "allowed",
      "outputs": [
        {
          "internalType": "uint256",
          "name": "",
          "type": "uint256"
        }
      ],
      "stateMutability": "view",
      "type": "function"
    },
    {
      "inputs": [
        {
          "internalType": "address",
          "name": "",
          "type": "address"
        }
      ],
      "name": "balances",
      "outputs": [
        {
          "internalType": "uint256",
          "name": "",
          "type": "uint256"
        }
      ],
      "stateMutability": "view",
      "type": "function"
    },
    {
      "inputs": [],
      "name": "totalSupply",
      "outputs": [
        {
          "internalType": "uint256",
          "name": "",
          "type": "uint256"
        }
      ],
      "stateMutability": "view",
      "type": "function"
    },
    {
      "inputs": [
        {
          "internalType": "address",
          "name": "_to",
          "type": "address"
        },
        {
          "internalType": "uint256",
          "name": "_value",
          "type": "uint256"
        }
      ],
      "name": "transfer",
      "outputs": [
        {
          "internalType": "bool",
          "name": "success",
          "type": "bool"
        }
      ],
      "stateMutability": "nonpayable",
      "type": "function"
    },
    {
      "inputs": [
        {
          "internalType": "address",
          "name": "_from",
          "type": "address"
        },
        {
          "internalType": "address",
          "name": "_to",
          "type": "address"
        },
        {
          "internalType": "uint256",
          "name": "_value",
          "type": "uint256"
        }
      ],
      "name": "transferFrom",
      "outputs": [
        {
          "internalType": "bool",
          "name": "success",
          "type": "bool"
        }
      ],
      "stateMutability": "nonpayable",
      "type": "function"
    },
    {
      "inputs": [
        {
          "internalType": "address",
          "name": "_owner",
          "type": "address"
        }
      ],
      "name": "balanceOf",
      "outputs": [
        {
          "internalType": "uint256",
          "name": "balance",
          "type": "uint256"
        }
      ],
      "stateMutability": "view",
      "type": "function"
    },
    {
      "inputs": [
        {
          "internalType": "address",
          "name": "_spender",
          "type": "address"
        },
        {
          "internalType": "uint256",
          "name": "_value",
          "type": "uint256"
        }
      ],
      "name": "approve",
      "outputs": [
        {
          "internalType": "bool",
          "name": "success",
          "type": "bool"
        }
      ],
      "stateMutability": "nonpayable",
      "type": "function"
    },
    {
      "inputs": [
        {
          "internalType": "address",
          "name": "_owner",
          "type": "address"
        },
        {
          "internalType": "address",
          "name": "_spender",
          "type": "address"
        }
      ],
      "name": "allowance",
      "outputs": [
        {
          "internalType": "uint256",
          "name": "remaining",
          "type": "uint256"
        }
      ],
      "stateMutability": "view",
      "type": "function"
    }
  ],
  "bytecode": "0x608060405234801561001057600080fd5b506040516104ea3803806104ea8339818101604052602081101561003357600080fd5b5051336000908152602081905260409020819055600255610491806100596000396000f3fe608060405234801561001057600080fd5b50600436106100885760003560e01c80635c6581651161005b5780635c6581651461014357806370a0823114610171578063a9059cbb14610197578063dd62ed3e146101c357610088565b8063095ea7b31461008d57806318160ddd146100cd57806323b872dd146100e757806327e235e31461011d575b600080fd5b6100b9600480360360408110156100a357600080fd5b506001600160a01b0381351690602001356101f1565b604080519115158252519081900360200190f35b6100d5610257565b60408051918252519081900360200190f35b6100b9600480360360608110156100fd57600080fd5b506001600160a01b0381358116916020810135909116906040013561025d565b6100d56004803603602081101561013357600080fd5b50356001600160a01b031661035e565b6100d56004803603604081101561015957600080fd5b506001600160a01b0381358116916020013516610370565b6100d56004803603602081101561018757600080fd5b50356001600160a01b031661038d565b6100b9600480360360408110156101ad57600080fd5b506001600160a01b0381351690602001356103a8565b6100d5600480360360408110156101d957600080fd5b506001600160a01b0381358116916020013516610430565b3360008181526001602090815260408083206001600160a01b038716808552908352818420869055815186815291519394909390927f8c5be1e5ebec7d5bd14f71427d1e84f3dd0314c0f7b2291e5b200ac8c7c3b925928290030190a350600192915050565b60025490565b6001600160a01b038316600081815260016020908152604080832033845282528083205493835290829052812054909190831180159061029d5750828110155b6102a657600080fd5b6001600160a01b0380851660009081526020819052604080822080548701905591871681522080548490039055600019811015610308576001600160a01b03851660009081526001602090815260408083203384529091529020805484900390555b836001600160a01b0316856001600160a01b03167fddf252ad1be2c89b69c2b068fc378daa952ba7f163c4a11628f55a4df523b3ef856040518082815260200191505060405180910390a3506001949350505050565b60006020819052908152604090205481565b600160209081526000928352604080842090915290825290205481565b6001600160a01b031660009081526020819052604090205490565b336000908152602081905260408120548211156103c457600080fd5b33600081815260208181526040808320805487900390556001600160a01b03871680845292819020805487019055805186815290519293927fddf252ad1be2c89b69c2b068fc378daa952ba7f163c4a11628f55a4df523b3ef929181900390910190a350600192915050565b6001600160a01b0391821660009081526001602090815260408083209390941682529190915220549056fea2646970667358221220b805402ff052c5a0ce27aa89093303b67c29024e0cf02367ebc82a10fb99181e64736f6c634300060c0033",
  "immutableReferences": {},
  "source": "// SPDX-License-Identifier: AGPL-3.0-only\npragma solidity ^0.6.0;\n\nimport \"@openzeppelin/contracts/token/ERC20/IERC20.sol\";\n\n/**\n * @title Implements only the required ERC20 methods. This contract is used\n * test how contracts handle ERC20 contracts that have not implemented `decimals()`\n * @dev Mostly copied from Consensys EIP-20 implementation:\n * https://github.com/ConsenSys/Tokens/blob/fdf687c69d998266a95f15216b1955a4965a0a6d/contracts/eip20/EIP20.sol\n */\ncontract BasicERC20 is IERC20 {\n    uint256 private constant MAX_UINT256 = 2**256 - 1;\n    mapping(address => uint256) public balances;\n    mapping(address => mapping(address => uint256)) public allowed;\n\n    uint256 private _totalSupply;\n\n    constructor(uint256 _initialAmount) public {\n        balances[msg.sender] = _initialAmount;\n        _totalSupply = _initialAmount;\n    }\n\n    function totalSupply() public view override returns (uint256) {\n        return _totalSupply;\n    }\n\n    function transfer(address _to, uint256 _value) public override returns (bool success) {\n        require(balances[msg.sender] >= _value);\n        balances[msg.sender] -= _value;\n        balances[_to] += _value;\n        emit Transfer(msg.sender, _to, _value);\n        return true;\n    }\n\n    function transferFrom(\n        address _from,\n        address _to,\n        uint256 _value\n    ) public override returns (bool success) {\n        uint256 allowance = allowed[_from][msg.sender];\n        require(balances[_from] >= _value && allowance >= _value);\n        balances[_to] += _value;\n        balances[_from] -= _value;\n        if (allowance < MAX_UINT256) {\n            allowed[_from][msg.sender] -= _value;\n        }\n        emit Transfer(_from, _to, _value); //solhint-disable-line indent, no-unused-vars\n        return true;\n    }\n\n    function balanceOf(address _owner) public view override returns (uint256 balance) {\n        return balances[_owner];\n    }\n\n    function approve(address _spender, uint256 _value) public override returns (bool success) {\n        allowed[msg.sender][_spender] = _value;\n        emit Approval(msg.sender, _spender, _value); //solhint-disable-line indent, no-unused-vars\n        return true;\n    }\n\n    function allowance(address _owner, address _spender) public view override returns (uint256 remaining) {\n        return allowed[_owner][_spender];\n    }\n}\n",
  "sourcePath": "/home/circleci/protocol/packages/core/contracts/common/test/BasicERC20.sol",
  "compiler": {
    "name": "solc",
    "version": "0.6.12+commit.27d51765.Emscripten.clang"
  },
  "schemaVersion": "3.2.3",
  "updatedAt": "2021-02-26T22:07:27.603Z",
  "devdoc": {
    "details": "Mostly copied from Consensys EIP-20 implementation: https://github.com/ConsenSys/Tokens/blob/fdf687c69d998266a95f15216b1955a4965a0a6d/contracts/eip20/EIP20.sol",
    "kind": "dev",
    "methods": {
      "totalSupply()": {
        "details": "Returns the amount of tokens in existence."
      }
    },
    "title": "Implements only the required ERC20 methods. This contract is used test how contracts handle ERC20 contracts that have not implemented `decimals()`",
    "version": 1
  },
  "userdoc": {
    "kind": "user",
    "methods": {},
    "version": 1
  }
}