{
  "contractName": "ConfigStore",
  "abi": [
    {
      "inputs": [
        {
          "components": [
            {
              "internalType": "uint256",
              "name": "timelockLiveness",
              "type": "uint256"
            },
            {
              "components": [
                {
                  "internalType": "uint256",
                  "name": "rawValue",
                  "type": "uint256"
                }
              ],
              "internalType": "struct FixedPoint.Unsigned",
              "name": "rewardRatePerSecond",
              "type": "tuple"
            },
            {
              "components": [
                {
                  "internalType": "uint256",
                  "name": "rawValue",
                  "type": "uint256"
                }
              ],
              "internalType": "struct FixedPoint.Unsigned",
              "name": "proposerBondPercentage",
              "type": "tuple"
            },
            {
              "components": [
                {
                  "internalType": "int256",
                  "name": "rawValue",
                  "type": "int256"
                }
              ],
              "internalType": "struct FixedPoint.Signed",
              "name": "maxFundingRate",
              "type": "tuple"
            },
            {
              "components": [
                {
                  "internalType": "int256",
                  "name": "rawValue",
                  "type": "int256"
                }
              ],
              "internalType": "struct FixedPoint.Signed",
              "name": "minFundingRate",
              "type": "tuple"
            },
            {
              "internalType": "uint256",
              "name": "proposalTimePastLimit",
              "type": "uint256"
            }
          ],
          "internalType": "struct ConfigStoreInterface.ConfigSettings",
          "name": "_initialConfig",
          "type": "tuple"
        },
        {
          "internalType": "address",
          "name": "_timerAddress",
          "type": "address"
        }
      ],
      "stateMutability": "nonpayable",
      "type": "constructor"
    },
    {
      "anonymous": false,
      "inputs": [
        {
          "indexed": false,
          "internalType": "uint256",
          "name": "rewardRatePerSecond",
          "type": "uint256"
        },
        {
          "indexed": false,
          "internalType": "uint256",
          "name": "proposerBondPercentage",
          "type": "uint256"
        },
        {
          "indexed": false,
          "internalType": "uint256",
          "name": "timelockLiveness",
          "type": "uint256"
        },
        {
          "indexed": false,
          "internalType": "int256",
          "name": "maxFundingRate",
          "type": "int256"
        },
        {
          "indexed": false,
          "internalType": "int256",
          "name": "minFundingRate",
          "type": "int256"
        },
        {
          "indexed": false,
          "internalType": "uint256",
          "name": "proposalTimePastLimit",
          "type": "uint256"
        }
      ],
      "name": "ChangedConfigSettings",
      "type": "event"
    },
    {
      "anonymous": false,
      "inputs": [
        {
          "indexed": true,
          "internalType": "address",
          "name": "previousOwner",
          "type": "address"
        },
        {
          "indexed": true,
          "internalType": "address",
          "name": "newOwner",
          "type": "address"
        }
      ],
      "name": "OwnershipTransferred",
      "type": "event"
    },
    {
      "anonymous": false,
      "inputs": [
        {
          "indexed": true,
          "internalType": "address",
          "name": "proposer",
          "type": "address"
        },
        {
          "indexed": false,
          "internalType": "uint256",
          "name": "rewardRatePerSecond",
          "type": "uint256"
        },
        {
          "indexed": false,
          "internalType": "uint256",
          "name": "proposerBondPercentage",
          "type": "uint256"
        },
        {
          "indexed": false,
          "internalType": "uint256",
          "name": "timelockLiveness",
          "type": "uint256"
        },
        {
          "indexed": false,
          "internalType": "int256",
          "name": "maxFundingRate",
          "type": "int256"
        },
        {
          "indexed": false,
          "internalType": "int256",
          "name": "minFundingRate",
          "type": "int256"
        },
        {
          "indexed": false,
          "internalType": "uint256",
          "name": "proposalTimePastLimit",
          "type": "uint256"
        },
        {
          "indexed": false,
          "internalType": "uint256",
          "name": "proposalPassedTimestamp",
          "type": "uint256"
        }
      ],
      "name": "ProposedNewConfigSettings",
      "type": "event"
    },
    {
      "inputs": [],
      "name": "getCurrentTime",
      "outputs": [
        {
          "internalType": "uint256",
          "name": "",
          "type": "uint256"
        }
      ],
      "stateMutability": "view",
      "type": "function"
    },
    {
      "inputs": [],
      "name": "owner",
      "outputs": [
        {
          "internalType": "address",
          "name": "",
          "type": "address"
        }
      ],
      "stateMutability": "view",
      "type": "function"
    },
    {
      "inputs": [],
      "name": "pendingConfig",
      "outputs": [
        {
          "internalType": "uint256",
          "name": "timelockLiveness",
          "type": "uint256"
        },
        {
          "components": [
            {
              "internalType": "uint256",
              "name": "rawValue",
              "type": "uint256"
            }
          ],
          "internalType": "struct FixedPoint.Unsigned",
          "name": "rewardRatePerSecond",
          "type": "tuple"
        },
        {
          "components": [
            {
              "internalType": "uint256",
              "name": "rawValue",
              "type": "uint256"
            }
          ],
          "internalType": "struct FixedPoint.Unsigned",
          "name": "proposerBondPercentage",
          "type": "tuple"
        },
        {
          "components": [
            {
              "internalType": "int256",
              "name": "rawValue",
              "type": "int256"
            }
          ],
          "internalType": "struct FixedPoint.Signed",
          "name": "maxFundingRate",
          "type": "tuple"
        },
        {
          "components": [
            {
              "internalType": "int256",
              "name": "rawValue",
              "type": "int256"
            }
          ],
          "internalType": "struct FixedPoint.Signed",
          "name": "minFundingRate",
          "type": "tuple"
        },
        {
          "internalType": "uint256",
          "name": "proposalTimePastLimit",
          "type": "uint256"
        }
      ],
      "stateMutability": "view",
      "type": "function"
    },
    {
      "inputs": [],
      "name": "pendingPassedTimestamp",
      "outputs": [
        {
          "internalType": "uint256",
          "name": "",
          "type": "uint256"
        }
      ],
      "stateMutability": "view",
      "type": "function"
    },
    {
      "inputs": [],
      "name": "renounceOwnership",
      "outputs": [],
      "stateMutability": "nonpayable",
      "type": "function"
    },
    {
      "inputs": [
        {
          "internalType": "uint256",
          "name": "time",
          "type": "uint256"
        }
      ],
      "name": "setCurrentTime",
      "outputs": [],
      "stateMutability": "nonpayable",
      "type": "function"
    },
    {
      "inputs": [],
      "name": "timerAddress",
      "outputs": [
        {
          "internalType": "address",
          "name": "",
          "type": "address"
        }
      ],
      "stateMutability": "view",
      "type": "function"
    },
    {
      "inputs": [
        {
          "internalType": "address",
          "name": "newOwner",
          "type": "address"
        }
      ],
      "name": "transferOwnership",
      "outputs": [],
      "stateMutability": "nonpayable",
      "type": "function"
    },
    {
      "inputs": [],
      "name": "updateAndGetCurrentConfig",
      "outputs": [
        {
          "components": [
            {
              "internalType": "uint256",
              "name": "timelockLiveness",
              "type": "uint256"
            },
            {
              "components": [
                {
                  "internalType": "uint256",
                  "name": "rawValue",
                  "type": "uint256"
                }
              ],
              "internalType": "struct FixedPoint.Unsigned",
              "name": "rewardRatePerSecond",
              "type": "tuple"
            },
            {
              "components": [
                {
                  "internalType": "uint256",
                  "name": "rawValue",
                  "type": "uint256"
                }
              ],
              "internalType": "struct FixedPoint.Unsigned",
              "name": "proposerBondPercentage",
              "type": "tuple"
            },
            {
              "components": [
                {
                  "internalType": "int256",
                  "name": "rawValue",
                  "type": "int256"
                }
              ],
              "internalType": "struct FixedPoint.Signed",
              "name": "maxFundingRate",
              "type": "tuple"
            },
            {
              "components": [
                {
                  "internalType": "int256",
                  "name": "rawValue",
                  "type": "int256"
                }
              ],
              "internalType": "struct FixedPoint.Signed",
              "name": "minFundingRate",
              "type": "tuple"
            },
            {
              "internalType": "uint256",
              "name": "proposalTimePastLimit",
              "type": "uint256"
            }
          ],
          "internalType": "struct ConfigStoreInterface.ConfigSettings",
          "name": "",
          "type": "tuple"
        }
      ],
      "stateMutability": "nonpayable",
      "type": "function"
    },
    {
      "inputs": [
        {
          "components": [
            {
              "internalType": "uint256",
              "name": "timelockLiveness",
              "type": "uint256"
            },
            {
              "components": [
                {
                  "internalType": "uint256",
                  "name": "rawValue",
                  "type": "uint256"
                }
              ],
              "internalType": "struct FixedPoint.Unsigned",
              "name": "rewardRatePerSecond",
              "type": "tuple"
            },
            {
              "components": [
                {
                  "internalType": "uint256",
                  "name": "rawValue",
                  "type": "uint256"
                }
              ],
              "internalType": "struct FixedPoint.Unsigned",
              "name": "proposerBondPercentage",
              "type": "tuple"
            },
            {
              "components": [
                {
                  "internalType": "int256",
                  "name": "rawValue",
                  "type": "int256"
                }
              ],
              "internalType": "struct FixedPoint.Signed",
              "name": "maxFundingRate",
              "type": "tuple"
            },
            {
              "components": [
                {
                  "internalType": "int256",
                  "name": "rawValue",
                  "type": "int256"
                }
              ],
              "internalType": "struct FixedPoint.Signed",
              "name": "minFundingRate",
              "type": "tuple"
            },
            {
              "internalType": "uint256",
              "name": "proposalTimePastLimit",
              "type": "uint256"
            }
          ],
          "internalType": "struct ConfigStoreInterface.ConfigSettings",
          "name": "newConfig",
          "type": "tuple"
        }
      ],
      "name": "proposeNewConfig",
      "outputs": [],
      "stateMutability": "nonpayable",
      "type": "function"
    },
    {
      "inputs": [],
      "name": "publishPendingConfig",
      "outputs": [],
      "stateMutability": "nonpayable",
      "type": "function"
    }
  ],
  "bytecode": "0x60806040523480156200001157600080fd5b506040516200129638038062001296833981016040819052620000349162000348565b60008054600160a01b6001600160a01b03199091166001600160a01b0384161760ff60a01b191617815562000068620000f8565b600180546001600160a01b0319166001600160a01b038316908117909155604051919250906000907f8be0079c531659141344cd1fd0a4f28419497f9722a3daafe3b4186f6b6457e0908290a350620000c182620000fc565b50805160025560208101515160035560408101515160045560608101515160055560808101515160065560a0015160075562000529565b3390565b805162093a801080159062000115575080516201518011155b6200013d5760405162461bcd60e51b8152600401620001349062000453565b60405180910390fd5b620001476200030d565b6200017a62989680620001666021620001bd60201b620005ed1760201c565b620001fc60201b6200061b1790919060201c565b90506200019a8183602001516200023a60201b620006471790919060201c565b620001b95760405162461bcd60e51b81526004016200013490620004cb565b5050565b620001c76200030d565b6040518060200160405280620001f4670de0b6b3a7640000856200024160201b6200064e1790919060201c565b905292915050565b620002066200030d565b60405180602001604052806200022f8486600001516200028860201b6200068f1790919060201c565b905290505b92915050565b5190511090565b600082620002525750600062000234565b828202828482816200026057fe5b0414620002815760405162461bcd60e51b815260040162000134906200048a565b9392505050565b60006200028183836040518060400160405280601a81526020017f536166654d6174683a206469766973696f6e206279207a65726f000000000000815250620002d260201b60201c565b60008183620002f65760405162461bcd60e51b8152600401620001349190620003fd565b5060008385816200030357fe5b0495945050505050565b6040518060200160405280600081525090565b60006020828403121562000332578081fd5b6200033e602062000502565b9151825250919050565b60008082840360e08112156200035c578283fd5b60c08112156200036a578283fd5b506200037760c062000502565b835181526200038a856020860162000320565b60208201526200039e856040860162000320565b6040820152620003b2856060860162000320565b6060820152620003c6856080860162000320565b608082015260a0848101519082015260c08401519092506001600160a01b0381168114620003f2578182fd5b809150509250929050565b6000602080835283518082850152825b818110156200042b578581018301518582016040015282016200040d565b818111156200043d5783604083870101525b50601f01601f1916929092016040019392505050565b60208082526018908201527f496e76616c69642074696d656c6f636b4c6976656e6573730000000000000000604082015260600190565b60208082526021908201527f536166654d6174683a206d756c7469706c69636174696f6e206f766572666c6f6040820152607760f81b606082015260800190565b6020808252601b908201527f496e76616c696420726577617264526174655065725365636f6e640000000000604082015260600190565b6040518181016001600160401b03811182821017156200052157600080fd5b604052919050565b610d5d80620005396000396000f3fe608060405234801561001057600080fd5b50600436106100a95760003560e01c8063633b291b11610071578063633b291b14610113578063715018a61461012657806373c6a2881461012e5780638da5cb5b14610148578063e6bde91314610150578063f2fde38b14610158576100a9565b8063145701f8146100ae5780631c39c38d146100cc57806322f8e566146100e157806329cb924d146100f65780633950917f1461010b575b600080fd5b6100b661016b565b6040516100c39190610c2f565b60405180910390f35b6100d46101f9565b6040516100c39190610a30565b6100f46100ef366004610a00565b610208565b005b6100fe610282565b6040516100c39190610c77565b6100fe610326565b6100f4610121366004610985565b61032c565b6100f4610441565b6101366104c0565b6040516100c396959493929190610c80565b6100d4610505565b6100f4610514565b6100f461016636600461095e565b610536565b6101736108d8565b61017b6106d1565b61018361075e565b61018b610787565b506040805160c081018252600254815281516020818101845260035482528083019190915282518082018452600454815282840152825180820184526005548152606083015282519081019092526006548252608081019190915260075460a08201526101f6610796565b90565b6000546001600160a01b031681565b6000546001600160a01b031661021d57600080fd5b60005460405163117c72b360e11b81526001600160a01b03909116906322f8e5669061024d908490600401610c77565b600060405180830381600087803b15801561026757600080fd5b505af115801561027b573d6000803e3d6000fd5b5050505050565b600080546001600160a01b03161561031f5760008054906101000a90046001600160a01b03166001600160a01b03166329cb924d6040518163ffffffff1660e01b815260040160206040518083038186803b1580156102e057600080fd5b505afa1580156102f4573d6000803e3d6000fd5b505050506040513d601f19601f820116820180604052508101906103189190610a18565b90506101f6565b50426101f6565b600e5481565b6103346107ab565b6001546001600160a01b0390811691161461036a5760405162461bcd60e51b815260040161036190610b8c565b60405180910390fd5b61037261075e565b61037a610787565b6103826106d1565b61038b816107af565b8051600855602081015151600955604081015151600a55606081015151600b55608081015151600c5560a0810151600d556002546103d1906103cb610282565b90610834565b600e81905560208201515160408084015151845160608601515160808701515160a0880151945133977fbd8bc3d3f0d8c0858d97147138d622cb8f4442c8219dc1b792f69ec651a337089761042e97909695949392909190610cd0565b60405180910390a261043e610796565b50565b6104496107ab565b6001546001600160a01b039081169116146104765760405162461bcd60e51b815260040161036190610b8c565b6001546040516000916001600160a01b0316907f8be0079c531659141344cd1fd0a4f28419497f9722a3daafe3b4186f6b6457e0908390a3600180546001600160a01b0319169055565b6008546040805160208082018352600954825282518082018452600a54815283518083018552600b5481528451928301909452600c548252600d549293909290919086565b6001546001600160a01b031690565b61051c61075e565b610524610787565b61052c6106d1565b610534610796565b565b61053e6107ab565b6001546001600160a01b0390811691161461056b5760405162461bcd60e51b815260040161036190610b8c565b6001600160a01b0381166105915760405162461bcd60e51b815260040161036190610a97565b6001546040516001600160a01b038084169216907f8be0079c531659141344cd1fd0a4f28419497f9722a3daafe3b4186f6b6457e090600090a3600180546001600160a01b0319166001600160a01b0392909216919091179055565b6105f5610926565b60408051602081019091528061061384670de0b6b3a764000061064e565b905292915050565b610623610926565b60408051602081019091528351819061063c908561068f565b905290505b92915050565b5190511090565b60008261065d57506000610641565b8282028284828161066a57fe5b04146106885760405162461bcd60e51b815260040161036190610b4b565b9392505050565b600061068883836040518060400160405280601a81526020017f536166654d6174683a206469766973696f6e206279207a65726f000000000000815250610859565b6106d9610890565b1561053457600854600255600954600355600a54600455600b54600555600c54600655600d5460075561070a6108b3565b6003546004546002546005546006546007546040517f8722f0f2d3017a4a2c429a68c4b2a28bcc86c7c79200913fc6db14237364eed7966107549690959094909390929091610ca8565b60405180910390a1565b600054600160a01b900460ff166105345760405162461bcd60e51b815260040161036190610bf8565b6000805460ff60a01b19169055565b6000805460ff60a01b1916600160a01b179055565b3390565b805162093a80108015906107c7575080516201518011155b6107e35760405162461bcd60e51b815260040161036190610b14565b6107eb610926565b610802629896806107fc60216105ed565b9061061b565b60208301519091506108149082610647565b6108305760405162461bcd60e51b815260040161036190610bc1565b5050565b6000828201838110156106885760405162461bcd60e51b815260040161036190610add565b6000818361087a5760405162461bcd60e51b81526004016103619190610a44565b50600083858161088657fe5b0495945050505050565b6000600e546000141580156108ae57506108a8610282565b600e5411155b905090565b600060088190556009819055600a819055600b819055600c819055600d819055600e55565b6040518060c00160405280600081526020016108f2610926565b81526020016108ff610926565b815260200161090c610926565b8152602001610919610926565b8152602001600081525090565b6040518060200160405280600081525090565b60006020828403121561094a578081fd5b6109546020610d00565b9135825250919050565b60006020828403121561096f578081fd5b81356001600160a01b0381168114610688578182fd5b600060c08284031215610996578081fd5b6109a060c0610d00565b823581526109b18460208501610939565b60208201526109c38460408501610939565b60408201526109d58460608501610939565b60608201526109e78460808501610939565b608082015260a083013560a08201528091505092915050565b600060208284031215610a11578081fd5b5035919050565b600060208284031215610a29578081fd5b5051919050565b6001600160a01b0391909116815260200190565b6000602080835283518082850152825b81811015610a7057858101830151858201604001528201610a54565b81811115610a815783604083870101525b50601f01601f1916929092016040019392505050565b60208082526026908201527f4f776e61626c653a206e6577206f776e657220697320746865207a65726f206160408201526564647265737360d01b606082015260800190565b6020808252601b908201527f536166654d6174683a206164646974696f6e206f766572666c6f770000000000604082015260600190565b60208082526018908201527f496e76616c69642074696d656c6f636b4c6976656e6573730000000000000000604082015260600190565b60208082526021908201527f536166654d6174683a206d756c7469706c69636174696f6e206f766572666c6f6040820152607760f81b606082015260800190565b6020808252818101527f4f776e61626c653a2063616c6c6572206973206e6f7420746865206f776e6572604082015260600190565b6020808252601b908201527f496e76616c696420726577617264526174655065725365636f6e640000000000604082015260600190565b6020808252601f908201527f5265656e7472616e637947756172643a207265656e7472616e742063616c6c00604082015260600190565b600060c08201905082518252602083015151602083015260408301515160408301526060830151516060830152608083015151608083015260a083015160a083015292915050565b90815260200190565b958652935160208601529151604085015251606084015251608083015260a082015260c00190565b958652602086019490945260408501929092526060840152608083015260a082015260c00190565b968752602087019590955260408601939093526060850191909152608084015260a083015260c082015260e00190565b60405181810167ffffffffffffffff81118282101715610d1f57600080fd5b60405291905056fea264697066735822122006fbae9a27eab6441d65152a5bc33431917ae5d025e579e619333c4c5ffbdf3d64736f6c634300060c0033",
  "immutableReferences": {},
  "source": "// SPDX-License-Identifier: AGPL-3.0-only\npragma solidity ^0.6.0;\npragma experimental ABIEncoderV2;\n\nimport \"@openzeppelin/contracts/math/SafeMath.sol\";\nimport \"@openzeppelin/contracts/access/Ownable.sol\";\n\nimport \"./ConfigStoreInterface.sol\";\nimport \"../../common/implementation/Testable.sol\";\nimport \"../../common/implementation/Lockable.sol\";\nimport \"../../common/implementation/FixedPoint.sol\";\n\n/**\n * @notice ConfigStore stores configuration settings for a perpetual contract and provides an interface for it\n * to query settings such as reward rates, proposal bond sizes, etc. The configuration settings can be upgraded\n * by a privileged account and the upgraded changes are timelocked.\n */\ncontract ConfigStore is ConfigStoreInterface, Testable, Lockable, Ownable {\n    using SafeMath for uint256;\n    using FixedPoint for FixedPoint.Unsigned;\n\n    /****************************************\n     *        STORE DATA STRUCTURES         *\n     ****************************************/\n\n    // Make currentConfig private to force user to call getCurrentConfig, which returns the pendingConfig\n    // if its liveness has expired.\n    ConfigStoreInterface.ConfigSettings private currentConfig;\n\n    // Beginning on `pendingPassedTimestamp`, the `pendingConfig` can be published as the current config.\n    ConfigStoreInterface.ConfigSettings public pendingConfig;\n    uint256 public pendingPassedTimestamp;\n\n    /****************************************\n     *                EVENTS                *\n     ****************************************/\n\n    event ProposedNewConfigSettings(\n        address indexed proposer,\n        uint256 rewardRatePerSecond,\n        uint256 proposerBondPercentage,\n        uint256 timelockLiveness,\n        int256 maxFundingRate,\n        int256 minFundingRate,\n        uint256 proposalTimePastLimit,\n        uint256 proposalPassedTimestamp\n    );\n    event ChangedConfigSettings(\n        uint256 rewardRatePerSecond,\n        uint256 proposerBondPercentage,\n        uint256 timelockLiveness,\n        int256 maxFundingRate,\n        int256 minFundingRate,\n        uint256 proposalTimePastLimit\n    );\n\n    /****************************************\n     *                MODIFIERS             *\n     ****************************************/\n\n    // Update config settings if possible.\n    modifier updateConfig() {\n        _updateConfig();\n        _;\n    }\n\n    /**\n     * @notice Construct the Config Store. An initial configuration is provided and set on construction.\n     * @param _initialConfig Configuration settings to initialize `currentConfig` with.\n     * @param _timerAddress Address of testable Timer contract.\n     */\n    constructor(ConfigSettings memory _initialConfig, address _timerAddress) public Testable(_timerAddress) {\n        _validateConfig(_initialConfig);\n        currentConfig = _initialConfig;\n    }\n\n    /**\n     * @notice Returns current config or pending config if pending liveness has expired.\n     * @return ConfigSettings config settings that calling financial contract should view as \"live\".\n     */\n    function updateAndGetCurrentConfig()\n        external\n        override\n        updateConfig()\n        nonReentrant()\n        returns (ConfigStoreInterface.ConfigSettings memory)\n    {\n        return currentConfig;\n    }\n\n    /**\n     * @notice Propose new configuration settings. New settings go into effect after a liveness period passes.\n     * @param newConfig Configuration settings to publish after `currentConfig.timelockLiveness` passes from now.\n     * @dev Callable only by owner. Calling this while there is already a pending proposal will overwrite the pending proposal.\n     */\n    function proposeNewConfig(ConfigSettings memory newConfig) external onlyOwner() nonReentrant() updateConfig() {\n        _validateConfig(newConfig);\n\n        // Warning: This overwrites a pending proposal!\n        pendingConfig = newConfig;\n\n        // Use current config's liveness period to timelock this proposal.\n        pendingPassedTimestamp = getCurrentTime().add(currentConfig.timelockLiveness);\n\n        emit ProposedNewConfigSettings(\n            msg.sender,\n            newConfig.rewardRatePerSecond.rawValue,\n            newConfig.proposerBondPercentage.rawValue,\n            newConfig.timelockLiveness,\n            newConfig.maxFundingRate.rawValue,\n            newConfig.minFundingRate.rawValue,\n            newConfig.proposalTimePastLimit,\n            pendingPassedTimestamp\n        );\n    }\n\n    /**\n     * @notice Publish any pending configuration settings if there is a pending proposal that has passed liveness.\n     */\n    function publishPendingConfig() external nonReentrant() updateConfig() {}\n\n    /****************************************\n     *         INTERNAL FUNCTIONS           *\n     ****************************************/\n\n    // Check if pending proposal can overwrite the current config.\n    function _updateConfig() internal {\n        // If liveness has passed, publish proposed configuration settings.\n        if (_pendingProposalPassed()) {\n            currentConfig = pendingConfig;\n\n            _deletePendingConfig();\n\n            emit ChangedConfigSettings(\n                currentConfig.rewardRatePerSecond.rawValue,\n                currentConfig.proposerBondPercentage.rawValue,\n                currentConfig.timelockLiveness,\n                currentConfig.maxFundingRate.rawValue,\n                currentConfig.minFundingRate.rawValue,\n                currentConfig.proposalTimePastLimit\n            );\n        }\n    }\n\n    function _deletePendingConfig() internal {\n        delete pendingConfig;\n        pendingPassedTimestamp = 0;\n    }\n\n    function _pendingProposalPassed() internal view returns (bool) {\n        return (pendingPassedTimestamp != 0 && pendingPassedTimestamp <= getCurrentTime());\n    }\n\n    // Use this method to constrain values with which you can set ConfigSettings.\n    function _validateConfig(ConfigStoreInterface.ConfigSettings memory config) internal pure {\n        // We don't set limits on proposal timestamps because there are already natural limits:\n        // - Future: price requests to the OptimisticOracle must be in the past---we can't add further constraints.\n        // - Past: proposal times must always be after the last update time, and  a reasonable past limit would be 30\n        //   mins, meaning that no proposal timestamp can be more than 30 minutes behind the current time.\n\n        // Make sure timelockLiveness is not too long, otherwise contract might not be able to fix itself\n        // before a vulnerability drains its collateral.\n        require(config.timelockLiveness <= 7 days && config.timelockLiveness >= 1 days, \"Invalid timelockLiveness\");\n\n        // The reward rate should be modified as needed to incentivize honest proposers appropriately.\n        // Additionally, the rate should be less than 100% a year => 100% / 360 days / 24 hours / 60 mins / 60 secs\n        // = 0.0000033\n        FixedPoint.Unsigned memory maxRewardRatePerSecond = FixedPoint.fromUnscaledUint(33).div(1e7);\n        require(config.rewardRatePerSecond.isLessThan(maxRewardRatePerSecond), \"Invalid rewardRatePerSecond\");\n\n        // We don't set a limit on the proposer bond because it is a defense against dishonest proposers. If a proposer\n        // were to successfully propose a very high or low funding rate, then their PfC would be very high. The proposer\n        // could theoretically keep their \"evil\" funding rate alive indefinitely by continuously disputing honest\n        // proposers, so we would want to be able to set the proposal bond (equal to the dispute bond) higher than their\n        // PfC for each proposal liveness window. The downside of not limiting this is that the config store owner\n        // can set it arbitrarily high and preclude a new funding rate from ever coming in. We suggest setting the\n        // proposal bond based on the configuration's funding rate range like in this discussion:\n        // https://github.com/UMAprotocol/protocol/issues/2039#issuecomment-719734383\n\n        // We also don't set a limit on the funding rate max/min because we might need to allow very high magnitude\n        // funding rates in extraordinarily volatile market situations. Note, that even though we do not bound\n        // the max/min, we still recommend that the deployer of this contract set the funding rate max/min values\n        // to bound the PfC of a dishonest proposer. A reasonable range might be the equivalent of [+200%/year, -200%/year].\n    }\n}\n",
  "sourcePath": "/home/circleci/protocol/packages/core/contracts/financial-templates/perpetual-multiparty/ConfigStore.sol",
  "compiler": {
    "name": "solc",
    "version": "0.6.12+commit.27d51765.Emscripten.clang"
  },
  "schemaVersion": "3.2.3",
  "updatedAt": "2021-02-26T22:07:27.713Z",
  "devdoc": {
    "kind": "dev",
    "methods": {
      "constructor": {
        "params": {
          "_initialConfig": "Configuration settings to initialize `currentConfig` with.",
          "_timerAddress": "Address of testable Timer contract."
        }
      },
      "getCurrentTime()": {
        "returns": {
          "_0": "uint for the current Testable timestamp."
        }
      },
      "owner()": {
        "details": "Returns the address of the current owner."
      },
      "proposeNewConfig((uint256,(uint256),(uint256),(int256),(int256),uint256))": {
        "details": "Callable only by owner. Calling this while there is already a pending proposal will overwrite the pending proposal.",
        "params": {
          "newConfig": "Configuration settings to publish after `currentConfig.timelockLiveness` passes from now."
        }
      },
      "renounceOwnership()": {
        "details": "Leaves the contract without owner. It will not be possible to call `onlyOwner` functions anymore. Can only be called by the current owner. NOTE: Renouncing ownership will leave the contract without an owner, thereby removing any functionality that is only available to the owner."
      },
      "setCurrentTime(uint256)": {
        "details": "Will revert if not running in test mode.",
        "params": {
          "time": "timestamp to set current Testable time to."
        }
      },
      "transferOwnership(address)": {
        "details": "Transfers ownership of the contract to a new account (`newOwner`). Can only be called by the current owner."
      },
      "updateAndGetCurrentConfig()": {
        "returns": {
          "_0": "ConfigSettings config settings that calling financial contract should view as \"live\"."
        }
      }
    },
    "version": 1
  },
  "userdoc": {
    "kind": "user",
    "methods": {
      "constructor": "Construct the Config Store. An initial configuration is provided and set on construction.",
      "getCurrentTime()": {
        "notice": "Gets the current time. Will return the last time set in `setCurrentTime` if running in test mode. Otherwise, it will return the block timestamp."
      },
      "proposeNewConfig((uint256,(uint256),(uint256),(int256),(int256),uint256))": {
        "notice": "Propose new configuration settings. New settings go into effect after a liveness period passes."
      },
      "publishPendingConfig()": {
        "notice": "Publish any pending configuration settings if there is a pending proposal that has passed liveness."
      },
      "setCurrentTime(uint256)": {
        "notice": "Sets the current time."
      },
      "updateAndGetCurrentConfig()": {
        "notice": "Returns current config or pending config if pending liveness has expired."
      }
    },
    "notice": "ConfigStore stores configuration settings for a perpetual contract and provides an interface for it to query settings such as reward rates, proposal bond sizes, etc. The configuration settings can be upgraded by a privileged account and the upgraded changes are timelocked.",
    "version": 1
  }
}