{
  "contractName": "MultiRoleTest",
  "abi": [
    {
      "anonymous": false,
      "inputs": [
        {
          "indexed": true,
          "internalType": "uint256",
          "name": "roleId",
          "type": "uint256"
        },
        {
          "indexed": true,
          "internalType": "address",
          "name": "newMember",
          "type": "address"
        },
        {
          "indexed": true,
          "internalType": "address",
          "name": "manager",
          "type": "address"
        }
      ],
      "name": "AddedSharedMember",
      "type": "event"
    },
    {
      "anonymous": false,
      "inputs": [
        {
          "indexed": true,
          "internalType": "uint256",
          "name": "roleId",
          "type": "uint256"
        },
        {
          "indexed": true,
          "internalType": "address",
          "name": "oldMember",
          "type": "address"
        },
        {
          "indexed": true,
          "internalType": "address",
          "name": "manager",
          "type": "address"
        }
      ],
      "name": "RemovedSharedMember",
      "type": "event"
    },
    {
      "anonymous": false,
      "inputs": [
        {
          "indexed": true,
          "internalType": "uint256",
          "name": "roleId",
          "type": "uint256"
        },
        {
          "indexed": true,
          "internalType": "address",
          "name": "newMember",
          "type": "address"
        },
        {
          "indexed": true,
          "internalType": "address",
          "name": "manager",
          "type": "address"
        }
      ],
      "name": "ResetExclusiveMember",
      "type": "event"
    },
    {
      "inputs": [
        {
          "internalType": "uint256",
          "name": "roleId",
          "type": "uint256"
        },
        {
          "internalType": "address",
          "name": "newMember",
          "type": "address"
        }
      ],
      "name": "addMember",
      "outputs": [],
      "stateMutability": "nonpayable",
      "type": "function"
    },
    {
      "inputs": [
        {
          "internalType": "uint256",
          "name": "roleId",
          "type": "uint256"
        }
      ],
      "name": "getMember",
      "outputs": [
        {
          "internalType": "address",
          "name": "",
          "type": "address"
        }
      ],
      "stateMutability": "view",
      "type": "function"
    },
    {
      "inputs": [
        {
          "internalType": "uint256",
          "name": "roleId",
          "type": "uint256"
        },
        {
          "internalType": "address",
          "name": "memberToCheck",
          "type": "address"
        }
      ],
      "name": "holdsRole",
      "outputs": [
        {
          "internalType": "bool",
          "name": "",
          "type": "bool"
        }
      ],
      "stateMutability": "view",
      "type": "function"
    },
    {
      "inputs": [
        {
          "internalType": "uint256",
          "name": "roleId",
          "type": "uint256"
        },
        {
          "internalType": "address",
          "name": "memberToRemove",
          "type": "address"
        }
      ],
      "name": "removeMember",
      "outputs": [],
      "stateMutability": "nonpayable",
      "type": "function"
    },
    {
      "inputs": [
        {
          "internalType": "uint256",
          "name": "roleId",
          "type": "uint256"
        }
      ],
      "name": "renounceMembership",
      "outputs": [],
      "stateMutability": "nonpayable",
      "type": "function"
    },
    {
      "inputs": [
        {
          "internalType": "uint256",
          "name": "roleId",
          "type": "uint256"
        },
        {
          "internalType": "address",
          "name": "newMember",
          "type": "address"
        }
      ],
      "name": "resetMember",
      "outputs": [],
      "stateMutability": "nonpayable",
      "type": "function"
    },
    {
      "inputs": [
        {
          "internalType": "uint256",
          "name": "roleId",
          "type": "uint256"
        },
        {
          "internalType": "uint256",
          "name": "managingRoleId",
          "type": "uint256"
        },
        {
          "internalType": "address[]",
          "name": "initialMembers",
          "type": "address[]"
        }
      ],
      "name": "createSharedRole",
      "outputs": [],
      "stateMutability": "nonpayable",
      "type": "function"
    },
    {
      "inputs": [
        {
          "internalType": "uint256",
          "name": "roleId",
          "type": "uint256"
        },
        {
          "internalType": "uint256",
          "name": "managingRoleId",
          "type": "uint256"
        },
        {
          "internalType": "address",
          "name": "initialMember",
          "type": "address"
        }
      ],
      "name": "createExclusiveRole",
      "outputs": [],
      "stateMutability": "nonpayable",
      "type": "function"
    },
    {
      "inputs": [
        {
          "internalType": "uint256",
          "name": "roleId",
          "type": "uint256"
        }
      ],
      "name": "revertIfNotHoldingRole",
      "outputs": [],
      "stateMutability": "view",
      "type": "function"
    }
  ],
  "bytecode": "0x608060405234801561001057600080fd5b50610d56806100206000396000f3fe608060405234801561001057600080fd5b50600436106100935760003560e01c80637cdc1cb9116100665780637cdc1cb91461018b578063aaa14ca3146101cb578063ab3545e5146101e8578063d97c05be14610221578063e2ad8db91461024d57610093565b806319fefdf01461009857806352b34d49146101165780636be7658b1461013357806374d0a6761461015f575b600080fd5b610114600480360360608110156100ae57600080fd5b8135916020810135918101906060810160408201356401000000008111156100d557600080fd5b8201836020820111156100e757600080fd5b8035906020019184602083028401116401000000008311171561010957600080fd5b50909250905061027f565b005b6101146004803603602081101561012c57600080fd5b50356102c3565b6101146004803603604081101561014957600080fd5b50803590602001356001600160a01b031661030d565b6101146004803603604081101561017557600080fd5b50803590602001356001600160a01b031661041b565b6101b7600480360360408110156101a157600080fd5b50803590602001356001600160a01b0316610529565b604080519115158252519081900360200190f35b610114600480360360208110156101e157600080fd5b50356105d2565b610205600480360360208110156101fe57600080fd5b50356106c6565b604080516001600160a01b039092168252519081900360200190f35b6101146004803603604081101561023757600080fd5b50803590602001356001600160a01b0316610748565b6101146004803603606081101561026357600080fd5b50803590602081013590604001356001600160a01b0316610856565b6102bd848484848080602002602001604051908101604052809392919081815260200183836020028082843760009201919091525061086692505050565b50505050565b806102ce8133610529565b6103095760405162461bcd60e51b8152600401808060200182810382526022815260200180610c446022913960400191505060405180910390fd5b5050565b81600260008281526020819052604090206001015460ff16600281111561033057fe5b1461036c5760405162461bcd60e51b815260040180806020018281038252602c815260200180610c18602c913960400191505060405180910390fd5b60008381526020819052604090205483906103879033610529565b6103c25760405162461bcd60e51b8152600401808060200182810382526024815260200180610cc56024913960400191505060405180910390fd5b60008481526020819052604090206103dd906003018461096b565b60405133906001600160a01b0385169086907feb3e33034c392e69263b04ec0fa376dc12784a41b6676c7f31b936cbc0fbb5af90600090a450505050565b81600260008281526020819052604090206001015460ff16600281111561043e57fe5b1461047a5760405162461bcd60e51b815260040180806020018281038252602c815260200180610c18602c913960400191505060405180910390fd5b60008381526020819052604090205483906104959033610529565b6104d05760405162461bcd60e51b8152600401808060200182810382526024815260200180610cc56024913960400191505060405180910390fd5b60008481526020819052604090206104eb906003018461098d565b60405133906001600160a01b0385169086907f63502af7324ff6db91ab38f8236a648727d9385ea6c782073dd4882d8a61a48f90600090a450505050565b600082815260208190526040812060018082015460ff16600281111561054b57fe5b14156105665761055e6002820184610a0d565b9150506105cc565b6002600182015460ff16600281111561057b57fe5b141561058e5761055e6003820184610a20565b6040805162461bcd60e51b815260206004820152600e60248201526d125b9d985b1a59081c9bdb19525960921b604482015290519081900360640190fd5b92915050565b80600260008281526020819052604090206001015460ff1660028111156105f557fe5b146106315760405162461bcd60e51b815260040180806020018281038252602c815260200180610c18602c913960400191505060405180910390fd5b8161063c8133610529565b6106775760405162461bcd60e51b8152600401808060200182810382526022815260200180610c446022913960400191505060405180910390fd5b6000838152602081905260409020610692906003013361096b565b6040513390819085907feb3e33034c392e69263b04ec0fa376dc12784a41b6676c7f31b936cbc0fbb5af90600090a4505050565b600081600160008281526020819052604090206001015460ff1660028111156106eb57fe5b146107275760405162461bcd60e51b815260040180806020018281038252602f815260200180610be9602f913960400191505060405180910390fd5b600083815260208190526040902061074190600201610a3f565b9392505050565b81600160008281526020819052604090206001015460ff16600281111561076b57fe5b146107a75760405162461bcd60e51b815260040180806020018281038252602f815260200180610be9602f913960400191505060405180910390fd5b60008381526020819052604090205483906107c29033610529565b6107fd5760405162461bcd60e51b8152600401808060200182810382526024815260200180610cc56024913960400191505060405180910390fd5b60008481526020819052604090206108189060020184610a4c565b60405133906001600160a01b0385169086907f3b855c56b409b671c7112789d022675eb639d0bcb8896f1b6197c132f799e74690600090a450505050565b610861838383610aae565b505050565b826000808281526020819052604090206001015460ff16600281111561088857fe5b146108da576040805162461bcd60e51b815260206004820152601e60248201527f43616e6e6f74207573652061207072652d6578697374696e6720726f6c650000604482015290519081900360640190fd5b600084815260208190526040902060018101805460ff191660021790558381556109076003820184610bad565b60008481526020819052604081206001015460ff16600281111561092757fe5b14156109645760405162461bcd60e51b8152600401808060200182810382526038815260200180610ce96038913960400191505060405180910390fd5b5050505050565b6001600160a01b0316600090815260209190915260409020805460ff19169055565b6001600160a01b0381166109e8576040805162461bcd60e51b815260206004820152601f60248201527f43616e6e6f74206164642030783020746f20612073686172656420726f6c6500604482015290519081900360640190fd5b6001600160a01b0316600090815260209190915260409020805460ff19166001179055565b90546001600160a01b0391821691161490565b6001600160a01b03166000908152602091909152604090205460ff1690565b546001600160a01b031690565b6001600160a01b038116610a915760405162461bcd60e51b8152600401808060200182810382526023815260200180610ca26023913960400191505060405180910390fd5b81546001600160a01b0319166001600160a01b0391909116179055565b826000808281526020819052604090206001015460ff166002811115610ad057fe5b14610b22576040805162461bcd60e51b815260206004820152601e60248201527f43616e6e6f74207573652061207072652d6578697374696e6720726f6c650000604482015290519081900360640190fd5b60008481526020819052604090206001808201805460ff19169091179055838155610b506002820184610bde565b60008481526020819052604081206001015460ff166002811115610b7057fe5b14156109645760405162461bcd60e51b815260040180806020018281038252603c815260200180610c66603c913960400191505060405180910390fd5b60005b815181101561086157610bd683838381518110610bc957fe5b602002602001015161098d565b600101610bb0565b6103098282610a4c56fe4d7573742062652063616c6c6564206f6e20616e20696e697469616c697a6564204578636c757369766520726f6c654d7573742062652063616c6c6564206f6e20616e20696e697469616c697a65642053686172656420726f6c6553656e64657220646f6573206e6f7420686f6c6420726571756972656420726f6c65417474656d7074656420746f2075736520616e20696e76616c696420726f6c6520746f206d616e61676520616e206578636c757369766520726f6c6543616e6e6f742073657420616e206578636c757369766520726f6c6520746f2030783043616e206f6e6c792062652063616c6c6564206279206120726f6c65206d616e61676572417474656d7074656420746f2075736520616e20696e76616c696420726f6c6520746f206d616e61676520612073686172656420726f6c65a2646970667358221220db83866351dec0d5b5f2fe0ede9e94ca1ba5a0c9be6ca3f821c33d57e351eafe64736f6c634300060c0033",
  "immutableReferences": {},
  "source": "/*\n  MultiRoleTest contract.\n*/\n\n// SPDX-License-Identifier: AGPL-3.0-only\npragma solidity ^0.6.0;\n\nimport \"../implementation/MultiRole.sol\";\n\n// The purpose of this contract is to make the MultiRole creation methods externally callable for testing purposes.\ncontract MultiRoleTest is MultiRole {\n    function createSharedRole(\n        uint256 roleId,\n        uint256 managingRoleId,\n        address[] calldata initialMembers\n    ) external {\n        _createSharedRole(roleId, managingRoleId, initialMembers);\n    }\n\n    function createExclusiveRole(\n        uint256 roleId,\n        uint256 managingRoleId,\n        address initialMember\n    ) external {\n        _createExclusiveRole(roleId, managingRoleId, initialMember);\n    }\n\n    // solhint-disable-next-line no-empty-blocks\n    function revertIfNotHoldingRole(uint256 roleId) external view onlyRoleHolder(roleId) {}\n}\n",
  "sourcePath": "/home/circleci/protocol/packages/core/contracts/common/test/MultiRoleTest.sol",
  "compiler": {
    "name": "solc",
    "version": "0.6.12+commit.27d51765.Emscripten.clang"
  },
  "schemaVersion": "3.2.3",
  "updatedAt": "2021-02-26T22:07:27.605Z",
  "devdoc": {
    "kind": "dev",
    "methods": {
      "addMember(uint256,address)": {
        "details": "Reverts if `roleId` does not represent an initialized, SharedRole or if the caller is not a member of the managing role for `roleId`.",
        "params": {
          "newMember": "the new SharedRole member.",
          "roleId": "the SharedRole membership to modify."
        }
      },
      "getMember(uint256)": {
        "details": "Reverts if `roleId` does not represent an initialized, exclusive role.",
        "params": {
          "roleId": "the ExclusiveRole membership to check."
        },
        "returns": {
          "_0": "the address of the current ExclusiveRole member."
        }
      },
      "holdsRole(uint256,address)": {
        "details": "Reverts if roleId does not correspond to an initialized role.",
        "params": {
          "memberToCheck": "the address to check.",
          "roleId": "the Role to check."
        },
        "returns": {
          "_0": "True if `memberToCheck` is a member of `roleId`."
        }
      },
      "removeMember(uint256,address)": {
        "details": "Reverts if `roleId` does not represent an initialized, SharedRole or if the caller is not a member of the managing role for `roleId`.",
        "params": {
          "memberToRemove": "the current SharedRole member to remove.",
          "roleId": "the SharedRole membership to modify."
        }
      },
      "renounceMembership(uint256)": {
        "details": "Reverts if the caller is not a member of the role for `roleId` or if `roleId` is not an initialized, SharedRole.",
        "params": {
          "roleId": "the SharedRole membership to modify."
        }
      },
      "resetMember(uint256,address)": {
        "details": "Reverts if the caller is not a member of the managing role for `roleId` or if `roleId` is not an initialized, ExclusiveRole.",
        "params": {
          "newMember": "the new ExclusiveRole member.",
          "roleId": "the ExclusiveRole membership to modify."
        }
      }
    },
    "version": 1
  },
  "userdoc": {
    "kind": "user",
    "methods": {
      "addMember(uint256,address)": {
        "notice": "Adds `newMember` to the shared role, `roleId`."
      },
      "getMember(uint256)": {
        "notice": "Gets the current holder of the exclusive role, `roleId`."
      },
      "holdsRole(uint256,address)": {
        "notice": "Whether `memberToCheck` is a member of roleId."
      },
      "removeMember(uint256,address)": {
        "notice": "Removes `memberToRemove` from the shared role, `roleId`."
      },
      "renounceMembership(uint256)": {
        "notice": "Removes caller from the role, `roleId`."
      },
      "resetMember(uint256,address)": {
        "notice": "Changes the exclusive role holder of `roleId` to `newMember`."
      }
    },
    "version": 1
  }
}