{
  "contractName": "TestnetERC20",
  "abi": [
    {
      "inputs": [
        {
          "internalType": "string",
          "name": "_name",
          "type": "string"
        },
        {
          "internalType": "string",
          "name": "_symbol",
          "type": "string"
        },
        {
          "internalType": "uint8",
          "name": "_decimals",
          "type": "uint8"
        }
      ],
      "stateMutability": "nonpayable",
      "type": "constructor"
    },
    {
      "anonymous": false,
      "inputs": [
        {
          "indexed": true,
          "internalType": "address",
          "name": "owner",
          "type": "address"
        },
        {
          "indexed": true,
          "internalType": "address",
          "name": "spender",
          "type": "address"
        },
        {
          "indexed": false,
          "internalType": "uint256",
          "name": "value",
          "type": "uint256"
        }
      ],
      "name": "Approval",
      "type": "event"
    },
    {
      "anonymous": false,
      "inputs": [
        {
          "indexed": true,
          "internalType": "address",
          "name": "from",
          "type": "address"
        },
        {
          "indexed": true,
          "internalType": "address",
          "name": "to",
          "type": "address"
        },
        {
          "indexed": false,
          "internalType": "uint256",
          "name": "value",
          "type": "uint256"
        }
      ],
      "name": "Transfer",
      "type": "event"
    },
    {
      "inputs": [
        {
          "internalType": "address",
          "name": "owner",
          "type": "address"
        },
        {
          "internalType": "address",
          "name": "spender",
          "type": "address"
        }
      ],
      "name": "allowance",
      "outputs": [
        {
          "internalType": "uint256",
          "name": "",
          "type": "uint256"
        }
      ],
      "stateMutability": "view",
      "type": "function"
    },
    {
      "inputs": [
        {
          "internalType": "address",
          "name": "spender",
          "type": "address"
        },
        {
          "internalType": "uint256",
          "name": "amount",
          "type": "uint256"
        }
      ],
      "name": "approve",
      "outputs": [
        {
          "internalType": "bool",
          "name": "",
          "type": "bool"
        }
      ],
      "stateMutability": "nonpayable",
      "type": "function"
    },
    {
      "inputs": [
        {
          "internalType": "address",
          "name": "account",
          "type": "address"
        }
      ],
      "name": "balanceOf",
      "outputs": [
        {
          "internalType": "uint256",
          "name": "",
          "type": "uint256"
        }
      ],
      "stateMutability": "view",
      "type": "function"
    },
    {
      "inputs": [],
      "name": "decimals",
      "outputs": [
        {
          "internalType": "uint8",
          "name": "",
          "type": "uint8"
        }
      ],
      "stateMutability": "view",
      "type": "function"
    },
    {
      "inputs": [
        {
          "internalType": "address",
          "name": "spender",
          "type": "address"
        },
        {
          "internalType": "uint256",
          "name": "subtractedValue",
          "type": "uint256"
        }
      ],
      "name": "decreaseAllowance",
      "outputs": [
        {
          "internalType": "bool",
          "name": "",
          "type": "bool"
        }
      ],
      "stateMutability": "nonpayable",
      "type": "function"
    },
    {
      "inputs": [
        {
          "internalType": "address",
          "name": "spender",
          "type": "address"
        },
        {
          "internalType": "uint256",
          "name": "addedValue",
          "type": "uint256"
        }
      ],
      "name": "increaseAllowance",
      "outputs": [
        {
          "internalType": "bool",
          "name": "",
          "type": "bool"
        }
      ],
      "stateMutability": "nonpayable",
      "type": "function"
    },
    {
      "inputs": [],
      "name": "name",
      "outputs": [
        {
          "internalType": "string",
          "name": "",
          "type": "string"
        }
      ],
      "stateMutability": "view",
      "type": "function"
    },
    {
      "inputs": [],
      "name": "symbol",
      "outputs": [
        {
          "internalType": "string",
          "name": "",
          "type": "string"
        }
      ],
      "stateMutability": "view",
      "type": "function"
    },
    {
      "inputs": [],
      "name": "totalSupply",
      "outputs": [
        {
          "internalType": "uint256",
          "name": "",
          "type": "uint256"
        }
      ],
      "stateMutability": "view",
      "type": "function"
    },
    {
      "inputs": [
        {
          "internalType": "address",
          "name": "recipient",
          "type": "address"
        },
        {
          "internalType": "uint256",
          "name": "amount",
          "type": "uint256"
        }
      ],
      "name": "transfer",
      "outputs": [
        {
          "internalType": "bool",
          "name": "",
          "type": "bool"
        }
      ],
      "stateMutability": "nonpayable",
      "type": "function"
    },
    {
      "inputs": [
        {
          "internalType": "address",
          "name": "sender",
          "type": "address"
        },
        {
          "internalType": "address",
          "name": "recipient",
          "type": "address"
        },
        {
          "internalType": "uint256",
          "name": "amount",
          "type": "uint256"
        }
      ],
      "name": "transferFrom",
      "outputs": [
        {
          "internalType": "bool",
          "name": "",
          "type": "bool"
        }
      ],
      "stateMutability": "nonpayable",
      "type": "function"
    },
    {
      "inputs": [
        {
          "internalType": "address",
          "name": "ownerAddress",
          "type": "address"
        },
        {
          "internalType": "uint256",
          "name": "value",
          "type": "uint256"
        }
      ],
      "name": "allocateTo",
      "outputs": [],
      "stateMutability": "nonpayable",
      "type": "function"
    }
  ],
  "bytecode": "0x60806040523480156200001157600080fd5b5060405162000de238038062000de2833981810160405260608110156200003757600080fd5b81019080805160405193929190846401000000008211156200005857600080fd5b9083019060208201858111156200006e57600080fd5b82516401000000008111828201881017156200008957600080fd5b82525081516020918201929091019080838360005b83811015620000b85781810151838201526020016200009e565b50505050905090810190601f168015620000e65780820380516001836020036101000a031916815260200191505b50604052602001805160405193929190846401000000008211156200010a57600080fd5b9083019060208201858111156200012057600080fd5b82516401000000008111828201881017156200013b57600080fd5b82525081516020918201929091019080838360005b838110156200016a57818101518382015260200162000150565b50505050905090810190601f168015620001985780820380516001836020036101000a031916815260200191505b5060405260209081015185519093508592508491620001bd916003918501906200020d565b508051620001d39060049060208401906200020d565b50506005805460ff1916601217905550620001ee81620001f7565b505050620002a9565b6005805460ff191660ff92909216919091179055565b828054600181600116156101000203166002900490600052602060002090601f016020900481019282601f106200025057805160ff191683800117855562000280565b8280016001018555821562000280579182015b828111156200028057825182559160200191906001019062000263565b506200028e92915062000292565b5090565b5b808211156200028e576000815560010162000293565b610b2980620002b96000396000f3fe608060405234801561001057600080fd5b50600436106100b45760003560e01c80633950935111610071578063395093511461021257806370a082311461023e57806395d89b4114610264578063a457c2d71461026c578063a9059cbb14610298578063dd62ed3e146102c4576100b4565b806306fdde03146100b957806308bca56614610136578063095ea7b31461016457806318160ddd146101a457806323b872dd146101be578063313ce567146101f4575b600080fd5b6100c16102f2565b6040805160208082528351818301528351919283929083019185019080838360005b838110156100fb5781810151838201526020016100e3565b50505050905090810190601f1680156101285780820380516001836020036101000a031916815260200191505b509250505060405180910390f35b6101626004803603604081101561014c57600080fd5b506001600160a01b038135169060200135610388565b005b6101906004803603604081101561017a57600080fd5b506001600160a01b038135169060200135610396565b604080519115158252519081900360200190f35b6101ac6103b3565b60408051918252519081900360200190f35b610190600480360360608110156101d457600080fd5b506001600160a01b038135811691602081013590911690604001356103b9565b6101fc610440565b6040805160ff9092168252519081900360200190f35b6101906004803603604081101561022857600080fd5b506001600160a01b038135169060200135610449565b6101ac6004803603602081101561025457600080fd5b50356001600160a01b0316610497565b6100c16104b2565b6101906004803603604081101561028257600080fd5b506001600160a01b038135169060200135610513565b610190600480360360408110156102ae57600080fd5b506001600160a01b03813516906020013561057b565b6101ac600480360360408110156102da57600080fd5b506001600160a01b038135811691602001351661058f565b60038054604080516020601f600260001961010060018816150201909516949094049384018190048102820181019092528281526060939092909183018282801561037e5780601f106103535761010080835404028352916020019161037e565b820191906000526020600020905b81548152906001019060200180831161036157829003601f168201915b5050505050905090565b61039282826105ba565b5050565b60006103aa6103a36106aa565b84846106ae565b50600192915050565b60025490565b60006103c684848461079a565b610436846103d26106aa565b61043185604051806060016040528060288152602001610a5e602891396001600160a01b038a166000908152600160205260408120906104106106aa565b6001600160a01b0316815260208101919091526040016000205491906108f5565b6106ae565b5060019392505050565b60055460ff1690565b60006103aa6104566106aa565b8461043185600160006104676106aa565b6001600160a01b03908116825260208083019390935260409182016000908120918c16815292529020549061098c565b6001600160a01b031660009081526020819052604090205490565b60048054604080516020601f600260001961010060018816150201909516949094049384018190048102820181019092528281526060939092909183018282801561037e5780601f106103535761010080835404028352916020019161037e565b60006103aa6105206106aa565b8461043185604051806060016040528060258152602001610acf602591396001600061054a6106aa565b6001600160a01b03908116825260208083019390935260409182016000908120918d168152925290205491906108f5565b60006103aa6105886106aa565b848461079a565b6001600160a01b03918216600090815260016020908152604080832093909416825291909152205490565b6001600160a01b038216610615576040805162461bcd60e51b815260206004820152601f60248201527f45524332303a206d696e7420746f20746865207a65726f206164647265737300604482015290519081900360640190fd5b610621600083836109ed565b60025461062e908261098c565b6002556001600160a01b038216600090815260208190526040902054610654908261098c565b6001600160a01b0383166000818152602081815260408083209490945583518581529351929391927fddf252ad1be2c89b69c2b068fc378daa952ba7f163c4a11628f55a4df523b3ef9281900390910190a35050565b3390565b6001600160a01b0383166106f35760405162461bcd60e51b8152600401808060200182810382526024815260200180610aab6024913960400191505060405180910390fd5b6001600160a01b0382166107385760405162461bcd60e51b8152600401808060200182810382526022815260200180610a166022913960400191505060405180910390fd5b6001600160a01b03808416600081815260016020908152604080832094871680845294825291829020859055815185815291517f8c5be1e5ebec7d5bd14f71427d1e84f3dd0314c0f7b2291e5b200ac8c7c3b9259281900390910190a3505050565b6001600160a01b0383166107df5760405162461bcd60e51b8152600401808060200182810382526025815260200180610a866025913960400191505060405180910390fd5b6001600160a01b0382166108245760405162461bcd60e51b81526004018080602001828103825260238152602001806109f36023913960400191505060405180910390fd5b61082f8383836109ed565b61086c81604051806060016040528060268152602001610a38602691396001600160a01b03861660009081526020819052604090205491906108f5565b6001600160a01b03808516600090815260208190526040808220939093559084168152205461089b908261098c565b6001600160a01b038084166000818152602081815260409182902094909455805185815290519193928716927fddf252ad1be2c89b69c2b068fc378daa952ba7f163c4a11628f55a4df523b3ef92918290030190a3505050565b600081848411156109845760405162461bcd60e51b81526004018080602001828103825283818151815260200191508051906020019080838360005b83811015610949578181015183820152602001610931565b50505050905090810190601f1680156109765780820380516001836020036101000a031916815260200191505b509250505060405180910390fd5b505050900390565b6000828201838110156109e6576040805162461bcd60e51b815260206004820152601b60248201527f536166654d6174683a206164646974696f6e206f766572666c6f770000000000604482015290519081900360640190fd5b9392505050565b50505056fe45524332303a207472616e7366657220746f20746865207a65726f206164647265737345524332303a20617070726f766520746f20746865207a65726f206164647265737345524332303a207472616e7366657220616d6f756e7420657863656564732062616c616e636545524332303a207472616e7366657220616d6f756e74206578636565647320616c6c6f77616e636545524332303a207472616e736665722066726f6d20746865207a65726f206164647265737345524332303a20617070726f76652066726f6d20746865207a65726f206164647265737345524332303a2064656372656173656420616c6c6f77616e63652062656c6f77207a65726fa26469706673582212200cdf49602a36250c251bf63e09554bfb4248763550f6000684296b44a91c1f0364736f6c634300060c0033",
  "immutableReferences": {},
  "source": "// SPDX-License-Identifier: AGPL-3.0-only\npragma solidity ^0.6.0;\n\nimport \"@openzeppelin/contracts/token/ERC20/ERC20.sol\";\n\n/**\n * @title An implementation of ERC20 with the same interface as the Compound project's testnet tokens (mainly DAI)\n * @dev This contract can be deployed or the interface can be used to communicate with Compound's ERC20 tokens.  Note:\n * this token should never be used to store real value since it allows permissionless minting.\n */\ncontract TestnetERC20 is ERC20 {\n    /**\n     * @notice Constructs the TestnetERC20.\n     * @param _name The name which describes the new token.\n     * @param _symbol The ticker abbreviation of the name. Ideally < 5 chars.\n     * @param _decimals The number of decimals to define token precision.\n     */\n    constructor(\n        string memory _name,\n        string memory _symbol,\n        uint8 _decimals\n    ) public ERC20(_name, _symbol) {\n        _setupDecimals(_decimals);\n    }\n\n    // Sample token information.\n\n    /**\n     * @notice Mints value tokens to the owner address.\n     * @param ownerAddress the address to mint to.\n     * @param value the amount of tokens to mint.\n     */\n    function allocateTo(address ownerAddress, uint256 value) external {\n        _mint(ownerAddress, value);\n    }\n}\n",
  "sourcePath": "/home/circleci/protocol/packages/core/contracts/common/implementation/TestnetERC20.sol",
  "compiler": {
    "name": "solc",
    "version": "0.6.12+commit.27d51765.Emscripten.clang"
  },
  "schemaVersion": "3.2.3",
  "updatedAt": "2021-02-26T22:07:27.597Z",
  "devdoc": {
    "details": "This contract can be deployed or the interface can be used to communicate with Compound's ERC20 tokens.  Note: this token should never be used to store real value since it allows permissionless minting.",
    "kind": "dev",
    "methods": {
      "allocateTo(address,uint256)": {
        "params": {
          "ownerAddress": "the address to mint to.",
          "value": "the amount of tokens to mint."
        }
      },
      "allowance(address,address)": {
        "details": "See {IERC20-allowance}."
      },
      "approve(address,uint256)": {
        "details": "See {IERC20-approve}. Requirements: - `spender` cannot be the zero address."
      },
      "balanceOf(address)": {
        "details": "See {IERC20-balanceOf}."
      },
      "constructor": {
        "params": {
          "_decimals": "The number of decimals to define token precision.",
          "_name": "The name which describes the new token.",
          "_symbol": "The ticker abbreviation of the name. Ideally < 5 chars."
        }
      },
      "decimals()": {
        "details": "Returns the number of decimals used to get its user representation. For example, if `decimals` equals `2`, a balance of `505` tokens should be displayed to a user as `5,05` (`505 / 10 ** 2`). Tokens usually opt for a value of 18, imitating the relationship between Ether and Wei. This is the value {ERC20} uses, unless {_setupDecimals} is called. NOTE: This information is only used for _display_ purposes: it in no way affects any of the arithmetic of the contract, including {IERC20-balanceOf} and {IERC20-transfer}."
      },
      "decreaseAllowance(address,uint256)": {
        "details": "Atomically decreases the allowance granted to `spender` by the caller. This is an alternative to {approve} that can be used as a mitigation for problems described in {IERC20-approve}. Emits an {Approval} event indicating the updated allowance. Requirements: - `spender` cannot be the zero address. - `spender` must have allowance for the caller of at least `subtractedValue`."
      },
      "increaseAllowance(address,uint256)": {
        "details": "Atomically increases the allowance granted to `spender` by the caller. This is an alternative to {approve} that can be used as a mitigation for problems described in {IERC20-approve}. Emits an {Approval} event indicating the updated allowance. Requirements: - `spender` cannot be the zero address."
      },
      "name()": {
        "details": "Returns the name of the token."
      },
      "symbol()": {
        "details": "Returns the symbol of the token, usually a shorter version of the name."
      },
      "totalSupply()": {
        "details": "See {IERC20-totalSupply}."
      },
      "transfer(address,uint256)": {
        "details": "See {IERC20-transfer}. Requirements: - `recipient` cannot be the zero address. - the caller must have a balance of at least `amount`."
      },
      "transferFrom(address,address,uint256)": {
        "details": "See {IERC20-transferFrom}. Emits an {Approval} event indicating the updated allowance. This is not required by the EIP. See the note at the beginning of {ERC20}; Requirements: - `sender` and `recipient` cannot be the zero address. - `sender` must have a balance of at least `amount`. - the caller must have allowance for ``sender``'s tokens of at least `amount`."
      }
    },
    "title": "An implementation of ERC20 with the same interface as the Compound project's testnet tokens (mainly DAI)",
    "version": 1
  },
  "userdoc": {
    "kind": "user",
    "methods": {
      "allocateTo(address,uint256)": {
        "notice": "Mints value tokens to the owner address."
      },
      "constructor": "Constructs the TestnetERC20."
    },
    "version": 1
  }
}