{
  "contractName": "UniswapMock",
  "abi": [
    {
      "anonymous": false,
      "inputs": [
        {
          "indexed": false,
          "internalType": "uint112",
          "name": "reserve0",
          "type": "uint112"
        },
        {
          "indexed": false,
          "internalType": "uint112",
          "name": "reserve1",
          "type": "uint112"
        }
      ],
      "name": "Sync",
      "type": "event"
    },
    {
      "inputs": [],
      "name": "token0",
      "outputs": [
        {
          "internalType": "address",
          "name": "",
          "type": "address"
        }
      ],
      "stateMutability": "view",
      "type": "function"
    },
    {
      "inputs": [],
      "name": "token1",
      "outputs": [
        {
          "internalType": "address",
          "name": "",
          "type": "address"
        }
      ],
      "stateMutability": "view",
      "type": "function"
    },
    {
      "inputs": [
        {
          "internalType": "address",
          "name": "_token0",
          "type": "address"
        },
        {
          "internalType": "address",
          "name": "_token1",
          "type": "address"
        }
      ],
      "name": "setTokens",
      "outputs": [],
      "stateMutability": "nonpayable",
      "type": "function"
    },
    {
      "inputs": [
        {
          "internalType": "uint112",
          "name": "reserve0",
          "type": "uint112"
        },
        {
          "internalType": "uint112",
          "name": "reserve1",
          "type": "uint112"
        }
      ],
      "name": "setPrice",
      "outputs": [],
      "stateMutability": "nonpayable",
      "type": "function"
    }
  ],
  "bytecode": "0x608060405234801561001057600080fd5b506101a6806100206000396000f3fe608060405234801561001057600080fd5b506004361061004c5760003560e01c80630dfe1681146100515780638fa07a1114610075578063cbc7854e146100a5578063d21220a7146100d3575b600080fd5b6100596100db565b604080516001600160a01b039092168252519081900360200190f35b6100a36004803603604081101561008b57600080fd5b506001600160701b03813581169160200135166100ea565b005b6100a3600480360360408110156100bb57600080fd5b506001600160a01b0381358116916020013516610133565b610059610161565b6000546001600160a01b031681565b604080516001600160701b0380851682528316602082015281517f1c411e9a96e071241c2f21f7726b17ae89e3cab4c78be50e062b03a9fffbbad1929181900390910190a15050565b600080546001600160a01b039384166001600160a01b03199182161790915560018054929093169116179055565b6001546001600160a01b03168156fea2646970667358221220e24e393733f5d12eab62c86c181a22857e67d96b23a2967547d28187570857ab64736f6c634300060c0033",
  "immutableReferences": {},
  "source": "// SPDX-License-Identifier: AGPL-3.0-only\npragma solidity ^0.6.0;\n\nimport \"../interfaces/Uniswap.sol\";\n\n/**\n * @title Uniswap v2 Mock that allows manual price injection.\n */\ncontract UniswapMock is Uniswap {\n    function setTokens(address _token0, address _token1) external {\n        token0 = _token0;\n        token1 = _token1;\n    }\n\n    function setPrice(uint112 reserve0, uint112 reserve1) external {\n        emit Sync(reserve0, reserve1);\n    }\n}\n",
  "sourcePath": "/home/circleci/protocol/packages/core/contracts/common/test/UniswapMock.sol",
  "compiler": {
    "name": "solc",
    "version": "0.6.12+commit.27d51765.Emscripten.clang"
  },
  "schemaVersion": "3.2.3",
  "updatedAt": "2021-02-26T22:07:27.619Z",
  "devdoc": {
    "kind": "dev",
    "methods": {},
    "title": "Uniswap v2 Mock that allows manual price injection.",
    "version": 1
  },
  "userdoc": {
    "kind": "user",
    "methods": {},
    "version": 1
  }
}