{
  "contractName": "VotingToken",
  "abi": [
    {
      "inputs": [],
      "stateMutability": "nonpayable",
      "type": "constructor"
    },
    {
      "anonymous": false,
      "inputs": [
        {
          "indexed": true,
          "internalType": "uint256",
          "name": "roleId",
          "type": "uint256"
        },
        {
          "indexed": true,
          "internalType": "address",
          "name": "newMember",
          "type": "address"
        },
        {
          "indexed": true,
          "internalType": "address",
          "name": "manager",
          "type": "address"
        }
      ],
      "name": "AddedSharedMember",
      "type": "event"
    },
    {
      "anonymous": false,
      "inputs": [
        {
          "indexed": true,
          "internalType": "address",
          "name": "owner",
          "type": "address"
        },
        {
          "indexed": true,
          "internalType": "address",
          "name": "spender",
          "type": "address"
        },
        {
          "indexed": false,
          "internalType": "uint256",
          "name": "value",
          "type": "uint256"
        }
      ],
      "name": "Approval",
      "type": "event"
    },
    {
      "anonymous": false,
      "inputs": [
        {
          "indexed": true,
          "internalType": "uint256",
          "name": "roleId",
          "type": "uint256"
        },
        {
          "indexed": true,
          "internalType": "address",
          "name": "oldMember",
          "type": "address"
        },
        {
          "indexed": true,
          "internalType": "address",
          "name": "manager",
          "type": "address"
        }
      ],
      "name": "RemovedSharedMember",
      "type": "event"
    },
    {
      "anonymous": false,
      "inputs": [
        {
          "indexed": true,
          "internalType": "uint256",
          "name": "roleId",
          "type": "uint256"
        },
        {
          "indexed": true,
          "internalType": "address",
          "name": "newMember",
          "type": "address"
        },
        {
          "indexed": true,
          "internalType": "address",
          "name": "manager",
          "type": "address"
        }
      ],
      "name": "ResetExclusiveMember",
      "type": "event"
    },
    {
      "anonymous": false,
      "inputs": [
        {
          "indexed": false,
          "internalType": "uint256",
          "name": "id",
          "type": "uint256"
        }
      ],
      "name": "Snapshot",
      "type": "event"
    },
    {
      "anonymous": false,
      "inputs": [
        {
          "indexed": true,
          "internalType": "address",
          "name": "from",
          "type": "address"
        },
        {
          "indexed": true,
          "internalType": "address",
          "name": "to",
          "type": "address"
        },
        {
          "indexed": false,
          "internalType": "uint256",
          "name": "value",
          "type": "uint256"
        }
      ],
      "name": "Transfer",
      "type": "event"
    },
    {
      "inputs": [
        {
          "internalType": "address",
          "name": "account",
          "type": "address"
        }
      ],
      "name": "addBurner",
      "outputs": [],
      "stateMutability": "nonpayable",
      "type": "function"
    },
    {
      "inputs": [
        {
          "internalType": "uint256",
          "name": "roleId",
          "type": "uint256"
        },
        {
          "internalType": "address",
          "name": "newMember",
          "type": "address"
        }
      ],
      "name": "addMember",
      "outputs": [],
      "stateMutability": "nonpayable",
      "type": "function"
    },
    {
      "inputs": [
        {
          "internalType": "address",
          "name": "account",
          "type": "address"
        }
      ],
      "name": "addMinter",
      "outputs": [],
      "stateMutability": "nonpayable",
      "type": "function"
    },
    {
      "inputs": [
        {
          "internalType": "address",
          "name": "owner",
          "type": "address"
        },
        {
          "internalType": "address",
          "name": "spender",
          "type": "address"
        }
      ],
      "name": "allowance",
      "outputs": [
        {
          "internalType": "uint256",
          "name": "",
          "type": "uint256"
        }
      ],
      "stateMutability": "view",
      "type": "function"
    },
    {
      "inputs": [
        {
          "internalType": "address",
          "name": "spender",
          "type": "address"
        },
        {
          "internalType": "uint256",
          "name": "amount",
          "type": "uint256"
        }
      ],
      "name": "approve",
      "outputs": [
        {
          "internalType": "bool",
          "name": "",
          "type": "bool"
        }
      ],
      "stateMutability": "nonpayable",
      "type": "function"
    },
    {
      "inputs": [
        {
          "internalType": "address",
          "name": "account",
          "type": "address"
        }
      ],
      "name": "balanceOf",
      "outputs": [
        {
          "internalType": "uint256",
          "name": "",
          "type": "uint256"
        }
      ],
      "stateMutability": "view",
      "type": "function"
    },
    {
      "inputs": [
        {
          "internalType": "address",
          "name": "account",
          "type": "address"
        },
        {
          "internalType": "uint256",
          "name": "snapshotId",
          "type": "uint256"
        }
      ],
      "name": "balanceOfAt",
      "outputs": [
        {
          "internalType": "uint256",
          "name": "",
          "type": "uint256"
        }
      ],
      "stateMutability": "view",
      "type": "function"
    },
    {
      "inputs": [
        {
          "internalType": "uint256",
          "name": "value",
          "type": "uint256"
        }
      ],
      "name": "burn",
      "outputs": [],
      "stateMutability": "nonpayable",
      "type": "function"
    },
    {
      "inputs": [],
      "name": "decimals",
      "outputs": [
        {
          "internalType": "uint8",
          "name": "",
          "type": "uint8"
        }
      ],
      "stateMutability": "view",
      "type": "function"
    },
    {
      "inputs": [
        {
          "internalType": "address",
          "name": "spender",
          "type": "address"
        },
        {
          "internalType": "uint256",
          "name": "subtractedValue",
          "type": "uint256"
        }
      ],
      "name": "decreaseAllowance",
      "outputs": [
        {
          "internalType": "bool",
          "name": "",
          "type": "bool"
        }
      ],
      "stateMutability": "nonpayable",
      "type": "function"
    },
    {
      "inputs": [
        {
          "internalType": "uint256",
          "name": "roleId",
          "type": "uint256"
        }
      ],
      "name": "getMember",
      "outputs": [
        {
          "internalType": "address",
          "name": "",
          "type": "address"
        }
      ],
      "stateMutability": "view",
      "type": "function"
    },
    {
      "inputs": [
        {
          "internalType": "uint256",
          "name": "roleId",
          "type": "uint256"
        },
        {
          "internalType": "address",
          "name": "memberToCheck",
          "type": "address"
        }
      ],
      "name": "holdsRole",
      "outputs": [
        {
          "internalType": "bool",
          "name": "",
          "type": "bool"
        }
      ],
      "stateMutability": "view",
      "type": "function"
    },
    {
      "inputs": [
        {
          "internalType": "address",
          "name": "spender",
          "type": "address"
        },
        {
          "internalType": "uint256",
          "name": "addedValue",
          "type": "uint256"
        }
      ],
      "name": "increaseAllowance",
      "outputs": [
        {
          "internalType": "bool",
          "name": "",
          "type": "bool"
        }
      ],
      "stateMutability": "nonpayable",
      "type": "function"
    },
    {
      "inputs": [
        {
          "internalType": "address",
          "name": "recipient",
          "type": "address"
        },
        {
          "internalType": "uint256",
          "name": "value",
          "type": "uint256"
        }
      ],
      "name": "mint",
      "outputs": [
        {
          "internalType": "bool",
          "name": "",
          "type": "bool"
        }
      ],
      "stateMutability": "nonpayable",
      "type": "function"
    },
    {
      "inputs": [],
      "name": "name",
      "outputs": [
        {
          "internalType": "string",
          "name": "",
          "type": "string"
        }
      ],
      "stateMutability": "view",
      "type": "function"
    },
    {
      "inputs": [
        {
          "internalType": "uint256",
          "name": "roleId",
          "type": "uint256"
        },
        {
          "internalType": "address",
          "name": "memberToRemove",
          "type": "address"
        }
      ],
      "name": "removeMember",
      "outputs": [],
      "stateMutability": "nonpayable",
      "type": "function"
    },
    {
      "inputs": [
        {
          "internalType": "uint256",
          "name": "roleId",
          "type": "uint256"
        }
      ],
      "name": "renounceMembership",
      "outputs": [],
      "stateMutability": "nonpayable",
      "type": "function"
    },
    {
      "inputs": [
        {
          "internalType": "uint256",
          "name": "roleId",
          "type": "uint256"
        },
        {
          "internalType": "address",
          "name": "newMember",
          "type": "address"
        }
      ],
      "name": "resetMember",
      "outputs": [],
      "stateMutability": "nonpayable",
      "type": "function"
    },
    {
      "inputs": [
        {
          "internalType": "address",
          "name": "account",
          "type": "address"
        }
      ],
      "name": "resetOwner",
      "outputs": [],
      "stateMutability": "nonpayable",
      "type": "function"
    },
    {
      "inputs": [],
      "name": "symbol",
      "outputs": [
        {
          "internalType": "string",
          "name": "",
          "type": "string"
        }
      ],
      "stateMutability": "view",
      "type": "function"
    },
    {
      "inputs": [],
      "name": "totalSupply",
      "outputs": [
        {
          "internalType": "uint256",
          "name": "",
          "type": "uint256"
        }
      ],
      "stateMutability": "view",
      "type": "function"
    },
    {
      "inputs": [
        {
          "internalType": "uint256",
          "name": "snapshotId",
          "type": "uint256"
        }
      ],
      "name": "totalSupplyAt",
      "outputs": [
        {
          "internalType": "uint256",
          "name": "",
          "type": "uint256"
        }
      ],
      "stateMutability": "view",
      "type": "function"
    },
    {
      "inputs": [
        {
          "internalType": "address",
          "name": "recipient",
          "type": "address"
        },
        {
          "internalType": "uint256",
          "name": "amount",
          "type": "uint256"
        }
      ],
      "name": "transfer",
      "outputs": [
        {
          "internalType": "bool",
          "name": "",
          "type": "bool"
        }
      ],
      "stateMutability": "nonpayable",
      "type": "function"
    },
    {
      "inputs": [
        {
          "internalType": "address",
          "name": "sender",
          "type": "address"
        },
        {
          "internalType": "address",
          "name": "recipient",
          "type": "address"
        },
        {
          "internalType": "uint256",
          "name": "amount",
          "type": "uint256"
        }
      ],
      "name": "transferFrom",
      "outputs": [
        {
          "internalType": "bool",
          "name": "",
          "type": "bool"
        }
      ],
      "stateMutability": "nonpayable",
      "type": "function"
    },
    {
      "inputs": [],
      "name": "snapshot",
      "outputs": [
        {
          "internalType": "uint256",
          "name": "",
          "type": "uint256"
        }
      ],
      "stateMutability": "nonpayable",
      "type": "function"
    }
  ],
  "bytecode": "0x60806040523480156200001157600080fd5b506040518060400160405280601381526020017f554d4120566f74696e6720546f6b656e2076310000000000000000000000000081525060405180604001604052806003815260200162554d4160e81b815250601282828160039080519060200190620000809291906200046d565b508051620000969060049060208401906200046d565b50506005805460ff1916601217905550620000b181620000f1565b620000bf6000803362000107565b620000dc60015b6040805160008082526020820190925262000222565b620000e86002620000c6565b50505062000509565b6005805460ff191660ff92909216919091179055565b826000808281526006602052604090206001015460ff1660028111156200012a57fe5b146200017d576040805162461bcd60e51b815260206004820152601e60248201527f43616e6e6f74207573652061207072652d6578697374696e6720726f6c650000604482015290519081900360640190fd5b60008481526006602052604090206001808201805460ff191682800217905550838155620001bb600282018462000337602090811b62000eed17901c565b60008481526006602052604081206001015460ff166002811115620001dc57fe5b14156200021b5760405162461bcd60e51b815260040180806020018281038252603c81526020018062002081603c913960400191505060405180910390fd5b5050505050565b826000808281526006602052604090206001015460ff1660028111156200024557fe5b1462000298576040805162461bcd60e51b815260206004820152601e60248201527f43616e6e6f74207573652061207072652d6578697374696e6720726f6c650000604482015290519081900360640190fd5b600084815260066020908152604090912060018101805460ff1916600217905584815590620002d7906003830190859062000ef762000347821b17901c565b60008481526006602052604081206001015460ff166002811115620002f857fe5b14156200021b5760405162461bcd60e51b8152600401808060200182810382526038815260200180620020e06038913960400191505060405180910390fd5b62000343828262000388565b5050565b60005b815181101562000383576200037a838383815181106200036657fe5b6020026020010151620003ec60201b60201c565b6001016200034a565b505050565b6001600160a01b038116620003cf5760405162461bcd60e51b8152600401808060200182810382526023815260200180620020bd6023913960400191505060405180910390fd5b81546001600160a01b0319166001600160a01b0391909116179055565b6001600160a01b03811662000448576040805162461bcd60e51b815260206004820152601f60248201527f43616e6e6f74206164642030783020746f20612073686172656420726f6c6500604482015290519081900360640190fd5b6001600160a01b0316600090815260209190915260409020805460ff19166001179055565b828054600181600116156101000203166002900490600052602060002090601f016020900481019282601f10620004b057805160ff1916838001178555620004e0565b82800160010185558215620004e0579182015b82811115620004e0578251825591602001919060010190620004c3565b50620004ee929150620004f2565b5090565b5b80821115620004ee5760008155600101620004f3565b611b6880620005196000396000f3fe608060405234801561001057600080fd5b50600436106101735760003560e01c806374d0a676116100de578063a457c2d711610097578063ab3545e511610071578063ab3545e5146104de578063d97c05be14610517578063dd62ed3e14610543578063f44637ba1461057157610173565b8063a457c2d714610469578063a9059cbb14610495578063aaa14ca3146104c157610173565b806374d0a676146103be5780637cdc1cb9146103ea57806395d89b41146104165780639711715a1461041e578063981b24d014610426578063983b2d561461044357610173565b806340c10f191161013057806340c10f19146102cf57806342966c68146102fb5780634ee2cd7e1461031a5780636be7658b1461034657806370a082311461037257806373cc802a1461039857610173565b806306fdde0314610178578063095ea7b3146101f557806318160ddd1461023557806323b872dd1461024f578063313ce5671461028557806339509351146102a3575b600080fd5b610180610597565b6040805160208082528351818301528351919283929083019185019080838360005b838110156101ba5781810151838201526020016101a2565b50505050905090810190601f1680156101e75780820380516001836020036101000a031916815260200191505b509250505060405180910390f35b6102216004803603604081101561020b57600080fd5b506001600160a01b03813516906020013561062d565b604080519115158252519081900360200190f35b61023d61064b565b60408051918252519081900360200190f35b6102216004803603606081101561026557600080fd5b506001600160a01b03813581169160208101359091169060400135610651565b61028d6106d8565b6040805160ff9092168252519081900360200190f35b610221600480360360408110156102b957600080fd5b506001600160a01b0381351690602001356106e1565b610221600480360360408110156102e557600080fd5b506001600160a01b03813516906020013561072f565b6103186004803603602081101561031157600080fd5b5035610782565b005b61023d6004803603604081101561033057600080fd5b506001600160a01b0381351690602001356107d7565b6103186004803603604081101561035c57600080fd5b50803590602001356001600160a01b0316610820565b61023d6004803603602081101561038857600080fd5b50356001600160a01b031661092e565b610318600480360360208110156103ae57600080fd5b50356001600160a01b031661094d565b610318600480360360408110156103d457600080fd5b50803590602001356001600160a01b031661095b565b6102216004803603604081101561040057600080fd5b50803590602001356001600160a01b0316610a69565b610180610b0c565b61023d610b6d565b61023d6004803603602081101561043c57600080fd5b5035610b7c565b6103186004803603602081101561045957600080fd5b50356001600160a01b0316610bac565b6102216004803603604081101561047f57600080fd5b506001600160a01b038135169060200135610bb8565b610221600480360360408110156104ab57600080fd5b506001600160a01b038135169060200135610c20565b610318600480360360208110156104d757600080fd5b5035610c34565b6104fb600480360360208110156104f457600080fd5b5035610d28565b604080516001600160a01b039092168252519081900360200190f35b6103186004803603604081101561052d57600080fd5b50803590602001356001600160a01b0316610daa565b61023d6004803603604081101561055957600080fd5b506001600160a01b0381358116916020013516610eb8565b6103186004803603602081101561058757600080fd5b50356001600160a01b0316610ee3565b60038054604080516020601f60026000196101006001881615020190951694909404938401819004810282018101909252828152606093909290918301828280156106235780601f106105f857610100808354040283529160200191610623565b820191906000526020600020905b81548152906001019060200180831161060657829003601f168201915b5050505050905090565b600061064161063a610f2d565b8484610f31565b5060015b92915050565b60025490565b600061065e84848461101d565b6106ce8461066a610f2d565b6106c985604051806060016040528060288152602001611a35602891396001600160a01b038a166000908152600160205260408120906106a8610f2d565b6001600160a01b031681526020810191909152604001600020549190611028565b610f31565b5060019392505050565b60055460ff1690565b60006106416106ee610f2d565b846106c985600160006106ff610f2d565b6001600160a01b03908116825260208083019390935260409182016000908120918c1681529252902054906110bf565b6000600161073d8133610a69565b6107785760405162461bcd60e51b8152600401808060200182810382526022815260200180611a136022913960400191505060405180910390fd5b6106ce8484611119565b600261078e8133610a69565b6107c95760405162461bcd60e51b8152600401808060200182810382526022815260200180611a136022913960400191505060405180910390fd5b6107d33383611123565b5050565b6001600160a01b0382166000908152600760205260408120819081906107fe90859061112d565b9150915081610815576108108561092e565b610817565b805b95945050505050565b81600260008281526006602052604090206001015460ff16600281111561084357fe5b1461087f5760405162461bcd60e51b815260040180806020018281038252602c8152602001806119e7602c913960400191505060405180910390fd5b600083815260066020526040902054839061089a9033610a69565b6108d55760405162461bcd60e51b8152600401808060200182810382526024815260200180611aea6024913960400191505060405180910390fd5b60008481526006602052604090206108f0906003018461122a565b60405133906001600160a01b0385169086907feb3e33034c392e69263b04ec0fa376dc12784a41b6676c7f31b936cbc0fbb5af90600090a450505050565b6001600160a01b0381166000908152602081905260409020545b919050565b610958600082610daa565b50565b81600260008281526006602052604090206001015460ff16600281111561097e57fe5b146109ba5760405162461bcd60e51b815260040180806020018281038252602c8152602001806119e7602c913960400191505060405180910390fd5b60008381526006602052604090205483906109d59033610a69565b610a105760405162461bcd60e51b8152600401808060200182810382526024815260200180611aea6024913960400191505060405180910390fd5b6000848152600660205260409020610a2b906003018461124c565b60405133906001600160a01b0385169086907f63502af7324ff6db91ab38f8236a648727d9385ea6c782073dd4882d8a61a48f90600090a450505050565b600082815260066020526040812060018082015460ff166002811115610a8b57fe5b1415610aa657610a9e60028201846112cc565b915050610645565b6002600182015460ff166002811115610abb57fe5b1415610ace57610a9e60038201846112df565b6040805162461bcd60e51b815260206004820152600e60248201526d125b9d985b1a59081c9bdb19525960921b604482015290519081900360640190fd5b60048054604080516020601f60026000196101006001881615020190951694909404938401819004810282018101909252828152606093909290918301828280156106235780601f106105f857610100808354040283529160200191610623565b6000610b776112fe565b905090565b6000806000610b8c84600861112d565b9150915081610ba257610b9d61064b565b610ba4565b805b949350505050565b61095860015b8261095b565b6000610641610bc5610f2d565b846106c985604051806060016040528060258152602001611b0e6025913960016000610bef610f2d565b6001600160a01b03908116825260208083019390935260409182016000908120918d16815292529020549190611028565b6000610641610c2d610f2d565b848461101d565b80600260008281526006602052604090206001015460ff166002811115610c5757fe5b14610c935760405162461bcd60e51b815260040180806020018281038252602c8152602001806119e7602c913960400191505060405180910390fd5b81610c9e8133610a69565b610cd95760405162461bcd60e51b8152600401808060200182810382526022815260200180611a136022913960400191505060405180910390fd5b6000838152600660205260409020610cf4906003013361122a565b6040513390819085907feb3e33034c392e69263b04ec0fa376dc12784a41b6676c7f31b936cbc0fbb5af90600090a4505050565b600081600160008281526006602052604090206001015460ff166002811115610d4d57fe5b14610d895760405162461bcd60e51b815260040180806020018281038252602f8152602001806119b8602f913960400191505060405180910390fd5b6000838152600660205260409020610da390600201611352565b9392505050565b81600160008281526006602052604090206001015460ff166002811115610dcd57fe5b14610e095760405162461bcd60e51b815260040180806020018281038252602f8152602001806119b8602f913960400191505060405180910390fd5b6000838152600660205260409020548390610e249033610a69565b610e5f5760405162461bcd60e51b8152600401808060200182810382526024815260200180611aea6024913960400191505060405180910390fd5b6000848152600660205260409020610e7a906002018461135f565b60405133906001600160a01b0385169086907f3b855c56b409b671c7112789d022675eb639d0bcb8896f1b6197c132f799e74690600090a450505050565b6001600160a01b03918216600090815260016020908152604080832093909416825291909152205490565b6109586002610bb2565b6107d3828261135f565b60005b8151811015610f2857610f2083838381518110610f1357fe5b602002602001015161124c565b600101610efa565b505050565b3390565b6001600160a01b038316610f765760405162461bcd60e51b8152600401808060200182810382526024815260200180611ac66024913960400191505060405180910390fd5b6001600160a01b038216610fbb5760405162461bcd60e51b81526004018080602001828103825260228152602001806119706022913960400191505060405180910390fd5b6001600160a01b03808416600081815260016020908152604080832094871680845294825291829020859055815185815291517f8c5be1e5ebec7d5bd14f71427d1e84f3dd0314c0f7b2291e5b200ac8c7c3b9259281900390910190a3505050565b610f288383836113c1565b600081848411156110b75760405162461bcd60e51b81526004018080602001828103825283818151815260200191508051906020019080838360005b8381101561107c578181015183820152602001611064565b50505050905090810190601f1680156110a95780820380516001836020036101000a031916815260200191505b509250505060405180910390fd5b505050900390565b600082820183811015610da3576040805162461bcd60e51b815260206004820152601b60248201527f536166654d6174683a206164646974696f6e206f766572666c6f770000000000604482015290519081900360640190fd5b6107d382826113de565b6107d382826113f9565b6000806000841161117e576040805162461bcd60e51b815260206004820152601660248201527504552433230536e617073686f743a20696420697320360541b604482015290519081900360640190fd5b611188600a611414565b8411156111dc576040805162461bcd60e51b815260206004820152601d60248201527f4552433230536e617073686f743a206e6f6e6578697374656e74206964000000604482015290519081900360640190fd5b60006111e88486611418565b8454909150811415611201576000809250925050611223565b600184600101828154811061121257fe5b906000526020600020015492509250505b9250929050565b6001600160a01b0316600090815260209190915260409020805460ff19169055565b6001600160a01b0381166112a7576040805162461bcd60e51b815260206004820152601f60248201527f43616e6e6f74206164642030783020746f20612073686172656420726f6c6500604482015290519081900360640190fd5b6001600160a01b0316600090815260209190915260409020805460ff19166001179055565b90546001600160a01b0391821691161490565b6001600160a01b03166000908152602091909152604090205460ff1690565b600061130a600a6114b9565b6000611316600a611414565b6040805182815290519192507f8030e83b04d87bef53480e26263266d6ca66863aa8506aca6f2559d18aa1cb67919081900360200190a1905090565b546001600160a01b031690565b6001600160a01b0381166113a45760405162461bcd60e51b8152600401808060200182810382526023815260200180611a7e6023913960400191505060405180910390fd5b81546001600160a01b0319166001600160a01b0391909116179055565b6113ca836114c2565b6113d3826114c2565b610f288383836114ec565b6113e7826114c2565b6113ef611647565b6107d38282611656565b611402826114c2565b61140a611647565b6107d38282611746565b5490565b815460009061142957506000610645565b82546000905b808210156114785760006114438383611842565b90508486828154811061145257fe5b9060005260206000200154111561146b57809150611472565b8060010192505b5061142f565b6000821180156114a057508385600184038154811061149357fe5b9060005260206000200154145b156114b15750600019019050610645565b509050610645565b80546001019055565b6001600160a01b0381166000908152600760205260409020610958906114e78361092e565b611867565b6001600160a01b0383166115315760405162461bcd60e51b8152600401808060200182810382526025815260200180611aa16025913960400191505060405180910390fd5b6001600160a01b0382166115765760405162461bcd60e51b815260040180806020018281038252602381526020018061192b6023913960400191505060405180910390fd5b611581838383610f28565b6115be81604051806060016040528060268152602001611992602691396001600160a01b0386166000908152602081905260409020549190611028565b6001600160a01b0380851660009081526020819052604080822093909355908416815220546115ed90826110bf565b6001600160a01b038084166000818152602081815260409182902094909455805185815290519193928716927fddf252ad1be2c89b69c2b068fc378daa952ba7f163c4a11628f55a4df523b3ef92918290030190a3505050565b61165460086114e761064b565b565b6001600160a01b0382166116b1576040805162461bcd60e51b815260206004820152601f60248201527f45524332303a206d696e7420746f20746865207a65726f206164647265737300604482015290519081900360640190fd5b6116bd60008383610f28565b6002546116ca90826110bf565b6002556001600160a01b0382166000908152602081905260409020546116f090826110bf565b6001600160a01b0383166000818152602081815260408083209490945583518581529351929391927fddf252ad1be2c89b69c2b068fc378daa952ba7f163c4a11628f55a4df523b3ef9281900390910190a35050565b6001600160a01b03821661178b5760405162461bcd60e51b8152600401808060200182810382526021815260200180611a5d6021913960400191505060405180910390fd5b61179782600083610f28565b6117d48160405180606001604052806022815260200161194e602291396001600160a01b0385166000908152602081905260409020549190611028565b6001600160a01b0383166000908152602081905260409020556002546117fa90826118b3565b6002556040805182815290516000916001600160a01b038516917fddf252ad1be2c89b69c2b068fc378daa952ba7f163c4a11628f55a4df523b3ef9181900360200190a35050565b6000600280830660028506018161185557fe5b04600283046002850401019392505050565b6000611873600a611414565b90508061187f846118f5565b1015610f28578254600180820185556000858152602080822090930193909355938401805494850181558252902090910155565b6000610da383836040518060400160405280601e81526020017f536166654d6174683a207375627472616374696f6e206f766572666c6f770000815250611028565b805460009061190657506000610948565b81548290600019810190811061191857fe5b9060005260206000200154905061094856fe45524332303a207472616e7366657220746f20746865207a65726f206164647265737345524332303a206275726e20616d6f756e7420657863656564732062616c616e636545524332303a20617070726f766520746f20746865207a65726f206164647265737345524332303a207472616e7366657220616d6f756e7420657863656564732062616c616e63654d7573742062652063616c6c6564206f6e20616e20696e697469616c697a6564204578636c757369766520726f6c654d7573742062652063616c6c6564206f6e20616e20696e697469616c697a65642053686172656420726f6c6553656e64657220646f6573206e6f7420686f6c6420726571756972656420726f6c6545524332303a207472616e7366657220616d6f756e74206578636565647320616c6c6f77616e636545524332303a206275726e2066726f6d20746865207a65726f206164647265737343616e6e6f742073657420616e206578636c757369766520726f6c6520746f2030783045524332303a207472616e736665722066726f6d20746865207a65726f206164647265737345524332303a20617070726f76652066726f6d20746865207a65726f206164647265737343616e206f6e6c792062652063616c6c6564206279206120726f6c65206d616e6167657245524332303a2064656372656173656420616c6c6f77616e63652062656c6f77207a65726fa264697066735822122068c073d6d76ee70c36ae2fbb2f059a1589743b7153395f34197dc995c7615e2c64736f6c634300060c0033417474656d7074656420746f2075736520616e20696e76616c696420726f6c6520746f206d616e61676520616e206578636c757369766520726f6c6543616e6e6f742073657420616e206578636c757369766520726f6c6520746f20307830417474656d7074656420746f2075736520616e20696e76616c696420726f6c6520746f206d616e61676520612073686172656420726f6c65",
  "immutableReferences": {},
  "source": "// SPDX-License-Identifier: AGPL-3.0-only\npragma solidity ^0.6.0;\n\nimport \"../../common/implementation/ExpandedERC20.sol\";\nimport \"@openzeppelin/contracts/token/ERC20/ERC20Snapshot.sol\";\n\n/**\n * @title Ownership of this token allows a voter to respond to price requests.\n * @dev Supports snapshotting and allows the Oracle to mint new tokens as rewards.\n */\ncontract VotingToken is ExpandedERC20, ERC20Snapshot {\n    /**\n     * @notice Constructs the VotingToken.\n     */\n    constructor() public ExpandedERC20(\"UMA Voting Token v1\", \"UMA\", 18) {}\n\n    /**\n     * @notice Creates a new snapshot ID.\n     * @return uint256 Thew new snapshot ID.\n     */\n    function snapshot() external returns (uint256) {\n        return _snapshot();\n    }\n\n    // _transfer, _mint and _burn are ERC20 internal methods that are overridden by ERC20Snapshot,\n    // therefore the compiler will complain that VotingToken must override these methods\n    // because the two base classes (ERC20 and ERC20Snapshot) both define the same functions\n\n    function _transfer(\n        address from,\n        address to,\n        uint256 value\n    ) internal override(ERC20, ERC20Snapshot) {\n        super._transfer(from, to, value);\n    }\n\n    function _mint(address account, uint256 value) internal override(ERC20, ERC20Snapshot) {\n        super._mint(account, value);\n    }\n\n    function _burn(address account, uint256 value) internal override(ERC20, ERC20Snapshot) {\n        super._burn(account, value);\n    }\n}\n",
  "sourcePath": "/home/circleci/protocol/packages/core/contracts/oracle/implementation/VotingToken.sol",
  "compiler": {
    "name": "solc",
    "version": "0.6.12+commit.27d51765.Emscripten.clang"
  },
  "schemaVersion": "3.2.3",
  "updatedAt": "2021-02-26T22:07:27.843Z",
  "devdoc": {
    "details": "Supports snapshotting and allows the Oracle to mint new tokens as rewards.",
    "kind": "dev",
    "methods": {
      "addBurner(address)": {
        "details": "The caller must have the Owner role.",
        "params": {
          "account": "The address to which the Burner role is added."
        }
      },
      "addMember(uint256,address)": {
        "details": "Reverts if `roleId` does not represent an initialized, SharedRole or if the caller is not a member of the managing role for `roleId`.",
        "params": {
          "newMember": "the new SharedRole member.",
          "roleId": "the SharedRole membership to modify."
        }
      },
      "addMinter(address)": {
        "details": "The caller must have the Owner role.",
        "params": {
          "account": "The address to which the Minter role is added."
        }
      },
      "allowance(address,address)": {
        "details": "See {IERC20-allowance}."
      },
      "approve(address,uint256)": {
        "details": "See {IERC20-approve}. Requirements: - `spender` cannot be the zero address."
      },
      "balanceOf(address)": {
        "details": "See {IERC20-balanceOf}."
      },
      "balanceOfAt(address,uint256)": {
        "details": "Retrieves the balance of `account` at the time `snapshotId` was created."
      },
      "burn(uint256)": {
        "details": "Burns `value` tokens owned by `msg.sender`.",
        "params": {
          "value": "amount of tokens to burn."
        }
      },
      "decimals()": {
        "details": "Returns the number of decimals used to get its user representation. For example, if `decimals` equals `2`, a balance of `505` tokens should be displayed to a user as `5,05` (`505 / 10 ** 2`). Tokens usually opt for a value of 18, imitating the relationship between Ether and Wei. This is the value {ERC20} uses, unless {_setupDecimals} is called. NOTE: This information is only used for _display_ purposes: it in no way affects any of the arithmetic of the contract, including {IERC20-balanceOf} and {IERC20-transfer}."
      },
      "decreaseAllowance(address,uint256)": {
        "details": "Atomically decreases the allowance granted to `spender` by the caller. This is an alternative to {approve} that can be used as a mitigation for problems described in {IERC20-approve}. Emits an {Approval} event indicating the updated allowance. Requirements: - `spender` cannot be the zero address. - `spender` must have allowance for the caller of at least `subtractedValue`."
      },
      "getMember(uint256)": {
        "details": "Reverts if `roleId` does not represent an initialized, exclusive role.",
        "params": {
          "roleId": "the ExclusiveRole membership to check."
        },
        "returns": {
          "_0": "the address of the current ExclusiveRole member."
        }
      },
      "holdsRole(uint256,address)": {
        "details": "Reverts if roleId does not correspond to an initialized role.",
        "params": {
          "memberToCheck": "the address to check.",
          "roleId": "the Role to check."
        },
        "returns": {
          "_0": "True if `memberToCheck` is a member of `roleId`."
        }
      },
      "increaseAllowance(address,uint256)": {
        "details": "Atomically increases the allowance granted to `spender` by the caller. This is an alternative to {approve} that can be used as a mitigation for problems described in {IERC20-approve}. Emits an {Approval} event indicating the updated allowance. Requirements: - `spender` cannot be the zero address."
      },
      "mint(address,uint256)": {
        "details": "Mints `value` tokens to `recipient`, returning true on success.",
        "params": {
          "recipient": "address to mint to.",
          "value": "amount of tokens to mint."
        },
        "returns": {
          "_0": "True if the mint succeeded, or False."
        }
      },
      "name()": {
        "details": "Returns the name of the token."
      },
      "removeMember(uint256,address)": {
        "details": "Reverts if `roleId` does not represent an initialized, SharedRole or if the caller is not a member of the managing role for `roleId`.",
        "params": {
          "memberToRemove": "the current SharedRole member to remove.",
          "roleId": "the SharedRole membership to modify."
        }
      },
      "renounceMembership(uint256)": {
        "details": "Reverts if the caller is not a member of the role for `roleId` or if `roleId` is not an initialized, SharedRole.",
        "params": {
          "roleId": "the SharedRole membership to modify."
        }
      },
      "resetMember(uint256,address)": {
        "details": "Reverts if the caller is not a member of the managing role for `roleId` or if `roleId` is not an initialized, ExclusiveRole.",
        "params": {
          "newMember": "the new ExclusiveRole member.",
          "roleId": "the ExclusiveRole membership to modify."
        }
      },
      "resetOwner(address)": {
        "details": "The caller must have the Owner role.",
        "params": {
          "account": "The new holder of the Owner role."
        }
      },
      "snapshot()": {
        "returns": {
          "_0": "uint256 Thew new snapshot ID."
        }
      },
      "symbol()": {
        "details": "Returns the symbol of the token, usually a shorter version of the name."
      },
      "totalSupply()": {
        "details": "See {IERC20-totalSupply}."
      },
      "totalSupplyAt(uint256)": {
        "details": "Retrieves the total supply at the time `snapshotId` was created."
      },
      "transfer(address,uint256)": {
        "details": "See {IERC20-transfer}. Requirements: - `recipient` cannot be the zero address. - the caller must have a balance of at least `amount`."
      },
      "transferFrom(address,address,uint256)": {
        "details": "See {IERC20-transferFrom}. Emits an {Approval} event indicating the updated allowance. This is not required by the EIP. See the note at the beginning of {ERC20}; Requirements: - `sender` and `recipient` cannot be the zero address. - `sender` must have a balance of at least `amount`. - the caller must have allowance for ``sender``'s tokens of at least `amount`."
      }
    },
    "title": "Ownership of this token allows a voter to respond to price requests.",
    "version": 1
  },
  "userdoc": {
    "kind": "user",
    "methods": {
      "addBurner(address)": {
        "notice": "Add Burner role to account."
      },
      "addMember(uint256,address)": {
        "notice": "Adds `newMember` to the shared role, `roleId`."
      },
      "addMinter(address)": {
        "notice": "Add Minter role to account."
      },
      "constructor": "Constructs the VotingToken.",
      "getMember(uint256)": {
        "notice": "Gets the current holder of the exclusive role, `roleId`."
      },
      "holdsRole(uint256,address)": {
        "notice": "Whether `memberToCheck` is a member of roleId."
      },
      "removeMember(uint256,address)": {
        "notice": "Removes `memberToRemove` from the shared role, `roleId`."
      },
      "renounceMembership(uint256)": {
        "notice": "Removes caller from the role, `roleId`."
      },
      "resetMember(uint256,address)": {
        "notice": "Changes the exclusive role holder of `roleId` to `newMember`."
      },
      "resetOwner(address)": {
        "notice": "Reset Owner role to account."
      },
      "snapshot()": {
        "notice": "Creates a new snapshot ID."
      }
    },
    "version": 1
  }
}