{
  "contractName": "WithdrawableTest",
  "abi": [
    {
      "inputs": [],
      "stateMutability": "nonpayable",
      "type": "constructor"
    },
    {
      "anonymous": false,
      "inputs": [
        {
          "indexed": true,
          "internalType": "uint256",
          "name": "roleId",
          "type": "uint256"
        },
        {
          "indexed": true,
          "internalType": "address",
          "name": "newMember",
          "type": "address"
        },
        {
          "indexed": true,
          "internalType": "address",
          "name": "manager",
          "type": "address"
        }
      ],
      "name": "AddedSharedMember",
      "type": "event"
    },
    {
      "anonymous": false,
      "inputs": [
        {
          "indexed": true,
          "internalType": "uint256",
          "name": "roleId",
          "type": "uint256"
        },
        {
          "indexed": true,
          "internalType": "address",
          "name": "oldMember",
          "type": "address"
        },
        {
          "indexed": true,
          "internalType": "address",
          "name": "manager",
          "type": "address"
        }
      ],
      "name": "RemovedSharedMember",
      "type": "event"
    },
    {
      "anonymous": false,
      "inputs": [
        {
          "indexed": true,
          "internalType": "uint256",
          "name": "roleId",
          "type": "uint256"
        },
        {
          "indexed": true,
          "internalType": "address",
          "name": "newMember",
          "type": "address"
        },
        {
          "indexed": true,
          "internalType": "address",
          "name": "manager",
          "type": "address"
        }
      ],
      "name": "ResetExclusiveMember",
      "type": "event"
    },
    {
      "inputs": [
        {
          "internalType": "uint256",
          "name": "roleId",
          "type": "uint256"
        },
        {
          "internalType": "address",
          "name": "newMember",
          "type": "address"
        }
      ],
      "name": "addMember",
      "outputs": [],
      "stateMutability": "nonpayable",
      "type": "function"
    },
    {
      "inputs": [
        {
          "internalType": "uint256",
          "name": "roleId",
          "type": "uint256"
        }
      ],
      "name": "getMember",
      "outputs": [
        {
          "internalType": "address",
          "name": "",
          "type": "address"
        }
      ],
      "stateMutability": "view",
      "type": "function"
    },
    {
      "inputs": [
        {
          "internalType": "uint256",
          "name": "roleId",
          "type": "uint256"
        },
        {
          "internalType": "address",
          "name": "memberToCheck",
          "type": "address"
        }
      ],
      "name": "holdsRole",
      "outputs": [
        {
          "internalType": "bool",
          "name": "",
          "type": "bool"
        }
      ],
      "stateMutability": "view",
      "type": "function"
    },
    {
      "inputs": [
        {
          "internalType": "uint256",
          "name": "roleId",
          "type": "uint256"
        },
        {
          "internalType": "address",
          "name": "memberToRemove",
          "type": "address"
        }
      ],
      "name": "removeMember",
      "outputs": [],
      "stateMutability": "nonpayable",
      "type": "function"
    },
    {
      "inputs": [
        {
          "internalType": "uint256",
          "name": "roleId",
          "type": "uint256"
        }
      ],
      "name": "renounceMembership",
      "outputs": [],
      "stateMutability": "nonpayable",
      "type": "function"
    },
    {
      "inputs": [
        {
          "internalType": "uint256",
          "name": "roleId",
          "type": "uint256"
        },
        {
          "internalType": "address",
          "name": "newMember",
          "type": "address"
        }
      ],
      "name": "resetMember",
      "outputs": [],
      "stateMutability": "nonpayable",
      "type": "function"
    },
    {
      "inputs": [
        {
          "internalType": "uint256",
          "name": "amount",
          "type": "uint256"
        }
      ],
      "name": "withdraw",
      "outputs": [],
      "stateMutability": "nonpayable",
      "type": "function"
    },
    {
      "inputs": [
        {
          "internalType": "address",
          "name": "erc20Address",
          "type": "address"
        },
        {
          "internalType": "uint256",
          "name": "amount",
          "type": "uint256"
        }
      ],
      "name": "withdrawErc20",
      "outputs": [],
      "stateMutability": "nonpayable",
      "type": "function"
    },
    {
      "inputs": [],
      "name": "pay",
      "outputs": [],
      "stateMutability": "payable",
      "type": "function"
    },
    {
      "inputs": [
        {
          "internalType": "uint256",
          "name": "setRoleId",
          "type": "uint256"
        }
      ],
      "name": "setInternalWithdrawRole",
      "outputs": [],
      "stateMutability": "nonpayable",
      "type": "function"
    }
  ],
  "bytecode": "0x60806040523480156200001157600080fd5b50620000206000803362000035565b6200002f600160003362000150565b620001db565b826000808281526020819052604090206001015460ff1660028111156200005857fe5b14620000ab576040805162461bcd60e51b815260206004820152601e60248201527f43616e6e6f74207573652061207072652d6578697374696e6720726f6c650000604482015290519081900360640190fd5b60008481526020819052604090206001808201805460ff191682800217905550838155620000e9600282018462000167602090811b620008b217901c565b60008481526020819052604081206001015460ff1660028111156200010a57fe5b1415620001495760405162461bcd60e51b815260040180806020018281038252603c815260200180620010ff603c913960400191505060405180910390fd5b5050505050565b60018390556200016283838362000035565b505050565b62000173828262000177565b5050565b6001600160a01b038116620001be5760405162461bcd60e51b81526004018080602001828103825260238152602001806200113b6023913960400191505060405180910390fd5b81546001600160a01b0319166001600160a01b0391909116179055565b610f1480620001eb6000396000f3fe6080604052600436106100915760003560e01c80637cdc1cb9116100595780637cdc1cb914610166578063aaa14ca3146101b3578063ab3545e5146101dd578063bd1f4b5214610223578063d97c05be1461025c57610091565b80631b9265b8146100965780632e1a7d4d146100a05780636b85f1b0146100ca5780636be7658b146100f457806374d0a6761461012d575b600080fd5b61009e610295565b005b3480156100ac57600080fd5b5061009e600480360360208110156100c357600080fd5b50356102a4565b3480156100d657600080fd5b5061009e600480360360208110156100ed57600080fd5b50356102fa565b34801561010057600080fd5b5061009e6004803603604081101561011757600080fd5b50803590602001356001600160a01b0316610306565b34801561013957600080fd5b5061009e6004803603604081101561015057600080fd5b50803590602001356001600160a01b0316610414565b34801561017257600080fd5b5061019f6004803603604081101561018957600080fd5b50803590602001356001600160a01b0316610522565b604080519115158252519081900360200190f35b3480156101bf57600080fd5b5061009e600480360360208110156101d657600080fd5b50356105cb565b3480156101e957600080fd5b506102076004803603602081101561020057600080fd5b50356106bf565b604080516001600160a01b039092168252519081900360200190f35b34801561022f57600080fd5b5061009e6004803603604081101561024657600080fd5b506001600160a01b038135169060200135610741565b34801561026857600080fd5b5061009e6004803603604081101561027f57600080fd5b50803590602001356001600160a01b03166107a4565b600034116102a257600080fd5b565b6001546102b18133610522565b6102ec5760405162461bcd60e51b8152600401808060200182810382526022815260200180610e4c6022913960400191505060405180910390fd5b6102f633836108bc565b5050565b610303816109a6565b50565b81600260008281526020819052604090206001015460ff16600281111561032957fe5b146103655760405162461bcd60e51b815260040180806020018281038252602c815260200180610e20602c913960400191505060405180910390fd5b60008381526020819052604090205483906103809033610522565b6103bb5760405162461bcd60e51b8152600401808060200182810382526024815260200180610e916024913960400191505060405180910390fd5b60008481526020819052604090206103d69060030184610a0b565b60405133906001600160a01b0385169086907feb3e33034c392e69263b04ec0fa376dc12784a41b6676c7f31b936cbc0fbb5af90600090a450505050565b81600260008281526020819052604090206001015460ff16600281111561043757fe5b146104735760405162461bcd60e51b815260040180806020018281038252602c815260200180610e20602c913960400191505060405180910390fd5b600083815260208190526040902054839061048e9033610522565b6104c95760405162461bcd60e51b8152600401808060200182810382526024815260200180610e916024913960400191505060405180910390fd5b60008481526020819052604090206104e49060030184610a2d565b60405133906001600160a01b0385169086907f63502af7324ff6db91ab38f8236a648727d9385ea6c782073dd4882d8a61a48f90600090a450505050565b600082815260208190526040812060018082015460ff16600281111561054457fe5b141561055f576105576002820184610aad565b9150506105c5565b6002600182015460ff16600281111561057457fe5b1415610587576105576003820184610ac0565b6040805162461bcd60e51b815260206004820152600e60248201526d125b9d985b1a59081c9bdb19525960921b604482015290519081900360640190fd5b92915050565b80600260008281526020819052604090206001015460ff1660028111156105ee57fe5b1461062a5760405162461bcd60e51b815260040180806020018281038252602c815260200180610e20602c913960400191505060405180910390fd5b816106358133610522565b6106705760405162461bcd60e51b8152600401808060200182810382526022815260200180610e4c6022913960400191505060405180910390fd5b600083815260208190526040902061068b9060030133610a0b565b6040513390819085907feb3e33034c392e69263b04ec0fa376dc12784a41b6676c7f31b936cbc0fbb5af90600090a4505050565b600081600160008281526020819052604090206001015460ff1660028111156106e457fe5b146107205760405162461bcd60e51b815260040180806020018281038252602f815260200180610db7602f913960400191505060405180910390fd5b600083815260208190526040902061073a90600201610adf565b9392505050565b60015461074e8133610522565b6107895760405162461bcd60e51b8152600401808060200182810382526022815260200180610e4c6022913960400191505060405180910390fd5b8261079e6001600160a01b0382163385610aec565b50505050565b81600160008281526020819052604090206001015460ff1660028111156107c757fe5b146108035760405162461bcd60e51b815260040180806020018281038252602f815260200180610db7602f913960400191505060405180910390fd5b600083815260208190526040902054839061081e9033610522565b6108595760405162461bcd60e51b8152600401808060200182810382526024815260200180610e916024913960400191505060405180910390fd5b60008481526020819052604090206108749060020184610b3e565b60405133906001600160a01b0385169086907f3b855c56b409b671c7112789d022675eb639d0bcb8896f1b6197c132f799e74690600090a450505050565b6102f68282610b3e565b80471015610911576040805162461bcd60e51b815260206004820152601d60248201527f416464726573733a20696e73756666696369656e742062616c616e6365000000604482015290519081900360640190fd5b6040516000906001600160a01b0384169083908381818185875af1925050503d806000811461095c576040519150601f19603f3d011682016040523d82523d6000602084013e610961565b606091505b50509050806109a15760405162461bcd60e51b815260040180806020018281038252603a815260200180610de6603a913960400191505060405180910390fd5b505050565b806000808281526020819052604090206001015460ff1660028111156109c857fe5b1415610a055760405162461bcd60e51b8152600401808060200182810382526022815260200180610d956022913960400191505060405180910390fd5b50600155565b6001600160a01b0316600090815260209190915260409020805460ff19169055565b6001600160a01b038116610a88576040805162461bcd60e51b815260206004820152601f60248201527f43616e6e6f74206164642030783020746f20612073686172656420726f6c6500604482015290519081900360640190fd5b6001600160a01b0316600090815260209190915260409020805460ff19166001179055565b90546001600160a01b0391821691161490565b6001600160a01b03166000908152602091909152604090205460ff1690565b546001600160a01b031690565b604080516001600160a01b038416602482015260448082018490528251808303909101815260649091019091526020810180516001600160e01b031663a9059cbb60e01b1790526109a1908490610ba0565b6001600160a01b038116610b835760405162461bcd60e51b8152600401808060200182810382526023815260200180610e6e6023913960400191505060405180910390fd5b81546001600160a01b0319166001600160a01b0391909116179055565b610bb2826001600160a01b0316610d58565b610c03576040805162461bcd60e51b815260206004820152601f60248201527f5361666545524332303a2063616c6c20746f206e6f6e2d636f6e747261637400604482015290519081900360640190fd5b60006060836001600160a01b0316836040518082805190602001908083835b60208310610c415780518252601f199092019160209182019101610c22565b6001836020036101000a0380198251168184511680821785525050505050509050019150506000604051808303816000865af19150503d8060008114610ca3576040519150601f19603f3d011682016040523d82523d6000602084013e610ca8565b606091505b509150915081610cff576040805162461bcd60e51b815260206004820181905260248201527f5361666545524332303a206c6f772d6c6576656c2063616c6c206661696c6564604482015290519081900360640190fd5b80511561079e57808060200190516020811015610d1b57600080fd5b505161079e5760405162461bcd60e51b815260040180806020018281038252602a815260200180610eb5602a913960400191505060405180910390fd5b6000813f7fc5d2460186f7233c927e7db2dcc703c0e500b653ca82273b7bfad8045d85a470818114801590610d8c57508115155b94935050505056fe417474656d7074656420746f2075736520616e20696e76616c696420726f6c6549644d7573742062652063616c6c6564206f6e20616e20696e697469616c697a6564204578636c757369766520726f6c65416464726573733a20756e61626c6520746f2073656e642076616c75652c20726563697069656e74206d617920686176652072657665727465644d7573742062652063616c6c6564206f6e20616e20696e697469616c697a65642053686172656420726f6c6553656e64657220646f6573206e6f7420686f6c6420726571756972656420726f6c6543616e6e6f742073657420616e206578636c757369766520726f6c6520746f2030783043616e206f6e6c792062652063616c6c6564206279206120726f6c65206d616e616765725361666545524332303a204552433230206f7065726174696f6e20646964206e6f742073756363656564a26469706673582212208f73d2fa58a0a1027122f735098306f60a4689be1452173e8ed229ffc24f653964736f6c634300060c0033417474656d7074656420746f2075736520616e20696e76616c696420726f6c6520746f206d616e61676520616e206578636c757369766520726f6c6543616e6e6f742073657420616e206578636c757369766520726f6c6520746f20307830",
  "immutableReferences": {},
  "source": "// SPDX-License-Identifier: AGPL-3.0-only\npragma solidity ^0.6.0;\n\nimport \"../implementation/Withdrawable.sol\";\n\n// WithdrawableTest is derived from the abstract contract Withdrawable for testing purposes.\ncontract WithdrawableTest is Withdrawable {\n    enum Roles { Governance, Withdraw }\n\n    // solhint-disable-next-line no-empty-blocks\n    constructor() public {\n        _createExclusiveRole(uint256(Roles.Governance), uint256(Roles.Governance), msg.sender);\n        _createWithdrawRole(uint256(Roles.Withdraw), uint256(Roles.Governance), msg.sender);\n    }\n\n    function pay() external payable {\n        require(msg.value > 0);\n    }\n\n    function setInternalWithdrawRole(uint256 setRoleId) public {\n        _setWithdrawRole(setRoleId);\n    }\n}\n",
  "sourcePath": "/home/circleci/protocol/packages/core/contracts/common/test/WithdrawableTest.sol",
  "compiler": {
    "name": "solc",
    "version": "0.6.12+commit.27d51765.Emscripten.clang"
  },
  "schemaVersion": "3.2.3",
  "updatedAt": "2021-02-26T22:07:27.627Z",
  "devdoc": {
    "kind": "dev",
    "methods": {
      "addMember(uint256,address)": {
        "details": "Reverts if `roleId` does not represent an initialized, SharedRole or if the caller is not a member of the managing role for `roleId`.",
        "params": {
          "newMember": "the new SharedRole member.",
          "roleId": "the SharedRole membership to modify."
        }
      },
      "getMember(uint256)": {
        "details": "Reverts if `roleId` does not represent an initialized, exclusive role.",
        "params": {
          "roleId": "the ExclusiveRole membership to check."
        },
        "returns": {
          "_0": "the address of the current ExclusiveRole member."
        }
      },
      "holdsRole(uint256,address)": {
        "details": "Reverts if roleId does not correspond to an initialized role.",
        "params": {
          "memberToCheck": "the address to check.",
          "roleId": "the Role to check."
        },
        "returns": {
          "_0": "True if `memberToCheck` is a member of `roleId`."
        }
      },
      "removeMember(uint256,address)": {
        "details": "Reverts if `roleId` does not represent an initialized, SharedRole or if the caller is not a member of the managing role for `roleId`.",
        "params": {
          "memberToRemove": "the current SharedRole member to remove.",
          "roleId": "the SharedRole membership to modify."
        }
      },
      "renounceMembership(uint256)": {
        "details": "Reverts if the caller is not a member of the role for `roleId` or if `roleId` is not an initialized, SharedRole.",
        "params": {
          "roleId": "the SharedRole membership to modify."
        }
      },
      "resetMember(uint256,address)": {
        "details": "Reverts if the caller is not a member of the managing role for `roleId` or if `roleId` is not an initialized, ExclusiveRole.",
        "params": {
          "newMember": "the new ExclusiveRole member.",
          "roleId": "the ExclusiveRole membership to modify."
        }
      },
      "withdrawErc20(address,uint256)": {
        "params": {
          "amount": "amount of tokens to withdraw.",
          "erc20Address": "ERC20 token to withdraw."
        }
      }
    },
    "version": 1
  },
  "userdoc": {
    "kind": "user",
    "methods": {
      "addMember(uint256,address)": {
        "notice": "Adds `newMember` to the shared role, `roleId`."
      },
      "getMember(uint256)": {
        "notice": "Gets the current holder of the exclusive role, `roleId`."
      },
      "holdsRole(uint256,address)": {
        "notice": "Whether `memberToCheck` is a member of roleId."
      },
      "removeMember(uint256,address)": {
        "notice": "Removes `memberToRemove` from the shared role, `roleId`."
      },
      "renounceMembership(uint256)": {
        "notice": "Removes caller from the role, `roleId`."
      },
      "resetMember(uint256,address)": {
        "notice": "Changes the exclusive role holder of `roleId` to `newMember`."
      },
      "withdraw(uint256)": {
        "notice": "Withdraws ETH from the contract."
      },
      "withdrawErc20(address,uint256)": {
        "notice": "Withdraws ERC20 tokens from the contract."
      }
    },
    "version": 1
  }
}