{
  "contractName": "CoveredCallFinancialProductLibrary",
  "abi": [
    {
      "inputs": [
        {
          "internalType": "bytes32",
          "name": "priceIdentifier",
          "type": "bytes32"
        },
        {
          "internalType": "uint256",
          "name": "requestTime",
          "type": "uint256"
        }
      ],
      "name": "transformPriceIdentifier",
      "outputs": [
        {
          "internalType": "bytes32",
          "name": "",
          "type": "bytes32"
        }
      ],
      "stateMutability": "view",
      "type": "function"
    },
    {
      "inputs": [
        {
          "internalType": "address",
          "name": "financialProduct",
          "type": "address"
        },
        {
          "components": [
            {
              "internalType": "uint256",
              "name": "rawValue",
              "type": "uint256"
            }
          ],
          "internalType": "struct FixedPoint.Unsigned",
          "name": "strikePrice",
          "type": "tuple"
        }
      ],
      "name": "setFinancialProductStrike",
      "outputs": [],
      "stateMutability": "nonpayable",
      "type": "function"
    },
    {
      "inputs": [
        {
          "internalType": "address",
          "name": "financialProduct",
          "type": "address"
        }
      ],
      "name": "getStrikeForFinancialProduct",
      "outputs": [
        {
          "components": [
            {
              "internalType": "uint256",
              "name": "rawValue",
              "type": "uint256"
            }
          ],
          "internalType": "struct FixedPoint.Unsigned",
          "name": "",
          "type": "tuple"
        }
      ],
      "stateMutability": "view",
      "type": "function"
    },
    {
      "inputs": [
        {
          "components": [
            {
              "internalType": "uint256",
              "name": "rawValue",
              "type": "uint256"
            }
          ],
          "internalType": "struct FixedPoint.Unsigned",
          "name": "oraclePrice",
          "type": "tuple"
        },
        {
          "internalType": "uint256",
          "name": "requestTime",
          "type": "uint256"
        }
      ],
      "name": "transformPrice",
      "outputs": [
        {
          "components": [
            {
              "internalType": "uint256",
              "name": "rawValue",
              "type": "uint256"
            }
          ],
          "internalType": "struct FixedPoint.Unsigned",
          "name": "",
          "type": "tuple"
        }
      ],
      "stateMutability": "view",
      "type": "function"
    },
    {
      "inputs": [
        {
          "components": [
            {
              "internalType": "uint256",
              "name": "rawValue",
              "type": "uint256"
            }
          ],
          "internalType": "struct FixedPoint.Unsigned",
          "name": "oraclePrice",
          "type": "tuple"
        },
        {
          "components": [
            {
              "internalType": "uint256",
              "name": "rawValue",
              "type": "uint256"
            }
          ],
          "internalType": "struct FixedPoint.Unsigned",
          "name": "collateralRequirement",
          "type": "tuple"
        }
      ],
      "name": "transformCollateralRequirement",
      "outputs": [
        {
          "components": [
            {
              "internalType": "uint256",
              "name": "rawValue",
              "type": "uint256"
            }
          ],
          "internalType": "struct FixedPoint.Unsigned",
          "name": "",
          "type": "tuple"
        }
      ],
      "stateMutability": "view",
      "type": "function"
    }
  ],
  "bytecode": "0x608060405234801561001057600080fd5b506000805460ff191660011790556107d38061002d6000396000f3fe608060405234801561001057600080fd5b50600436106100575760003560e01c80630ff49b901461005c5780632a312637146100835780633a0acab514610096578063a94ec3b0146100a9578063f19371b7146100be575b600080fd5b61006f61006a3660046106ef565b6100de565b604051905181526020015b60405180910390f35b61006f6100913660046106d3565b61021d565b61006f6100a4366004610665565b6102b2565b6100bc6100b736600461067f565b6102f8565b005b6100d06100cc3660046106b2565b5090565b60405190815260200161007a565b6040805160208101909152600081526100f56104b0565b33600090815260016020908152604080832081519283019091525481529061011e908290610504565b6101665760405162461bcd60e51b815260206004820152601460248201527343616c6c657220686173206e6f20737472696b6560601b60448201526064015b60405180910390fd5b336001600160a01b0316639f43ddd26040518163ffffffff1660e01b815260040160206040518083038186803b15801561019f57600080fd5b505afa1580156101b3573d6000803e3d6000fd5b505050506040513d601f19601f820116820180604052508101906101d79190610719565b8310156101f0576101e8600161051b565b915050610217565b8051845111610203576101e8600061051b565b6101e8846102118184610550565b90610583565b92915050565b6040805160208101909152600081526102346104b0565b33600090815260016020908152604080832081519283019091525481529061025d908290610504565b6102a05760405162461bcd60e51b815260206004820152601460248201527343616c6c657220686173206e6f20737472696b6560601b604482015260640161015d565b6102aa600161051b565b949350505050565b6040805160208101909152600081526102c96104b0565b506001600160a01b0381166000908152600160209081526040918290208251918201909252905481525b919050565b6103006104b0565b61030f6000805460ff19169055565b61031a816000610504565b61035a5760405162461bcd60e51b815260206004820152601160248201527043616e7420736574203020737472696b6560781b604482015260640161015d565b6001600160a01b03821660009081526001602090815260408083208151928301909152548152610389916105bf565b6103ca5760405162461bcd60e51b815260206004820152601260248201527114dd1c9a5ad948185b1c9958591e481cd95d60721b604482015260640161015d565b816001600160a01b0316639f43ddd26040518163ffffffff1660e01b815260040160206040518083038186803b15801561040357600080fd5b505afa158015610417573d6000803e3d6000fd5b505050506040513d601f19601f8201168201806040525081019061043b9190610719565b61047e5760405162461bcd60e51b8152602060048201526014602482015273125b9d985b1a59081153540818dbdb9d1c9858dd60621b604482015260640161015d565b6001600160a01b0382166000908152600160205260409020815190556104ac6000805460ff19166001179055565b5050565b60005460ff166105025760405162461bcd60e51b815260206004820152601f60248201527f5265656e7472616e637947756172643a207265656e7472616e742063616c6c00604482015260640161015d565b565b600061050f8261051b565b51835111905092915050565b60408051602081019091526000815260408051602081019091528061054884670de0b6b3a76400006105d6565b905292915050565b604080516020810190915260008152604080516020810190915282518451829161057a91906105e9565b90529392505050565b604080516020810190915260008152604080516020810190915282518451829161057a916105b990670de0b6b3a76400006105d6565b906105f5565b60006105ca8261051b565b51835114905092915050565b60006105e28284610751565b9392505050565b60006105e28284610770565b60006105e28284610731565b80356001600160a01b03811681146102f357600080fd5b600060208284031215610629578081fd5b6040516020810181811067ffffffffffffffff8211171561065857634e487b7160e01b83526041600452602483fd5b6040529135825250919050565b600060208284031215610676578081fd5b6105e282610601565b60008060408385031215610691578081fd5b61069a83610601565b91506106a98460208501610618565b90509250929050565b600080604083850312156106c4578182fd5b50508035926020909101359150565b600080604083850312156106e5578182fd5b61069a8484610618565b60008060408385031215610701578182fd5b61070b8484610618565b946020939093013593505050565b60006020828403121561072a578081fd5b5051919050565b60008261074c57634e487b7160e01b81526012600452602481fd5b500490565b600081600019048311821515161561076b5761076b610787565b500290565b60008282101561078257610782610787565b500390565b634e487b7160e01b600052601160045260246000fdfea264697066735822122032c5e7ca664acb52afaa691217ac9d4c2bbca27e2547065081f4cbbf4e36489264736f6c63430008040033",
  "immutableReferences": {},
  "source": "// SPDX-License-Identifier: AGPL-3.0-only\npragma solidity ^0.8.0;\nimport \"./FinancialProductLibrary.sol\";\nimport \"../../../../common/implementation/Lockable.sol\";\n\n/**\n * @title Covered Call Financial Product Library.\n * @notice Adds custom price transformation logic to modify the behavior of the expiring multi party contract. The\n * contract holds say 1 WETH in collateral and pays out a portion of that, at expiry, if ETHUSD is above a set strike. If\n * ETHUSD is below that strike, the contract pays out 0. The fraction paid out if above the strike is defined by\n * (oraclePrice - strikePrice) / oraclePrice;\n * Example: expiry is DEC 31. Strike is $400. Each token is backed by 1 WETH.\n * If ETHUSD = $600 at expiry, the call is $200 in the money, and the contract pays out 0.333 WETH (worth $200).\n * If ETHUSD = $800 at expiry, the call is $400 in the money, and the contract pays out 0.5 WETH (worth $400).\n * If ETHUSD =< $400 at expiry, the call is out of the money, and the contract pays out 0 WETH.\n */\ncontract CoveredCallFinancialProductLibrary is FinancialProductLibrary, Lockable {\n    using FixedPoint for FixedPoint.Unsigned;\n\n    mapping(address => FixedPoint.Unsigned) private financialProductStrikes;\n\n    /**\n     * @notice Enables any address to set the strike price for an associated financial product.\n     * @param financialProduct address of the financial product.\n     * @param strikePrice the strike price for the covered call to be applied to the financial product.\n     * @dev Note: a) Any address can set the initial strike price b) A strike price cannot be 0.\n     * c) A strike price can only be set once to prevent the deployer from changing the strike after the fact.\n     * d) For safety, a strike price should be set before depositing any synthetic tokens in a liquidity pool.\n     * e) financialProduct must expose an expirationTimestamp method.\n     */\n    function setFinancialProductStrike(address financialProduct, FixedPoint.Unsigned memory strikePrice)\n        public\n        nonReentrant()\n    {\n        require(strikePrice.isGreaterThan(0), \"Cant set 0 strike\");\n        require(financialProductStrikes[financialProduct].isEqual(0), \"Strike already set\");\n        require(ExpiringContractInterface(financialProduct).expirationTimestamp() != 0, \"Invalid EMP contract\");\n        financialProductStrikes[financialProduct] = strikePrice;\n    }\n\n    /**\n     * @notice Returns the strike price associated with a given financial product address.\n     * @param financialProduct address of the financial product.\n     * @return strikePrice for the associated financial product.\n     */\n    function getStrikeForFinancialProduct(address financialProduct)\n        public\n        view\n        nonReentrantView()\n        returns (FixedPoint.Unsigned memory)\n    {\n        return financialProductStrikes[financialProduct];\n    }\n\n    /**\n     * @notice Returns a transformed price by applying the call option payout structure.\n     * @param oraclePrice price from the oracle to be transformed.\n     * @param requestTime timestamp the oraclePrice was requested at.\n     * @return transformedPrice the input oracle price with the price transformation logic applied to it.\n     */\n    function transformPrice(FixedPoint.Unsigned memory oraclePrice, uint256 requestTime)\n        public\n        view\n        override\n        nonReentrantView()\n        returns (FixedPoint.Unsigned memory)\n    {\n        FixedPoint.Unsigned memory strike = financialProductStrikes[msg.sender];\n        require(strike.isGreaterThan(0), \"Caller has no strike\");\n        // If price request is made before expiry, return 1. Thus we can keep the contract 100% collateralized with\n        // each token backed 1:1 by collateral currency.\n        if (requestTime < ExpiringContractInterface(msg.sender).expirationTimestamp()) {\n            return FixedPoint.fromUnscaledUint(1);\n        }\n        if (oraclePrice.isLessThanOrEqual(strike)) {\n            return FixedPoint.fromUnscaledUint(0);\n        } else {\n            // Token expires to be worth the fraction of a collateral token that's in the money.\n            // eg if ETHUSD is $500 and strike is $400, token is redeemable for 100/500 = 0.2 WETH (worth $100).\n            // Note: oraclePrice cannot be 0 here because it would always satisfy the if above because 0 <= x is always\n            // true.\n            return (oraclePrice.sub(strike)).div(oraclePrice);\n        }\n    }\n\n    /**\n     * @notice Returns a transformed collateral requirement by applying the covered call payout structure.\n     * @param oraclePrice price from the oracle to transform the collateral requirement.\n     * @param collateralRequirement financial products collateral requirement to be scaled according to price and strike.\n     * @return transformedCollateralRequirement the input collateral requirement with the transformation logic applied to it.\n     */\n    function transformCollateralRequirement(\n        FixedPoint.Unsigned memory oraclePrice,\n        FixedPoint.Unsigned memory collateralRequirement\n    ) public view override nonReentrantView() returns (FixedPoint.Unsigned memory) {\n        FixedPoint.Unsigned memory strike = financialProductStrikes[msg.sender];\n        require(strike.isGreaterThan(0), \"Caller has no strike\");\n\n        // Always return 1 because option must be collateralized by 1 token.\n        return FixedPoint.fromUnscaledUint(1);\n    }\n}\n",
  "sourcePath": "/home/circleci/protocol/packages/core/contracts/financial-templates/common/financial-product-libraries/expiring-multiparty-libraries/CoveredCallFinancialProductLibrary.sol",
  "compiler": {
    "name": "solc",
    "version": "0.8.4+commit.c7e474f2.Emscripten.clang"
  },
  "schemaVersion": "3.3.4",
  "updatedAt": "2021-07-16T20:27:09.739Z",
  "devdoc": {
    "kind": "dev",
    "methods": {
      "getStrikeForFinancialProduct(address)": {
        "params": {
          "financialProduct": "address of the financial product."
        },
        "returns": {
          "_0": "strikePrice for the associated financial product."
        }
      },
      "setFinancialProductStrike(address,(uint256))": {
        "details": "Note: a) Any address can set the initial strike price b) A strike price cannot be 0. c) A strike price can only be set once to prevent the deployer from changing the strike after the fact. d) For safety, a strike price should be set before depositing any synthetic tokens in a liquidity pool. e) financialProduct must expose an expirationTimestamp method.",
        "params": {
          "financialProduct": "address of the financial product.",
          "strikePrice": "the strike price for the covered call to be applied to the financial product."
        }
      },
      "transformCollateralRequirement((uint256),(uint256))": {
        "params": {
          "collateralRequirement": "financial products collateral requirement to be scaled according to price and strike.",
          "oraclePrice": "price from the oracle to transform the collateral requirement."
        },
        "returns": {
          "_0": "transformedCollateralRequirement the input collateral requirement with the transformation logic applied to it."
        }
      },
      "transformPrice((uint256),uint256)": {
        "params": {
          "oraclePrice": "price from the oracle to be transformed.",
          "requestTime": "timestamp the oraclePrice was requested at."
        },
        "returns": {
          "_0": "transformedPrice the input oracle price with the price transformation logic applied to it."
        }
      },
      "transformPriceIdentifier(bytes32,uint256)": {
        "params": {
          "priceIdentifier": "input price identifier defined for the financial contract.",
          "requestTime": "timestamp the identifier is to be used at. EG the time that a price request would be sent using this identifier."
        },
        "returns": {
          "_0": "transformedPriceIdentifier input price identifier with the transformation function applied."
        }
      }
    },
    "title": "Covered Call Financial Product Library.",
    "version": 1
  },
  "userdoc": {
    "kind": "user",
    "methods": {
      "getStrikeForFinancialProduct(address)": {
        "notice": "Returns the strike price associated with a given financial product address."
      },
      "setFinancialProductStrike(address,(uint256))": {
        "notice": "Enables any address to set the strike price for an associated financial product."
      },
      "transformCollateralRequirement((uint256),(uint256))": {
        "notice": "Returns a transformed collateral requirement by applying the covered call payout structure."
      },
      "transformPrice((uint256),uint256)": {
        "notice": "Returns a transformed price by applying the call option payout structure."
      },
      "transformPriceIdentifier(bytes32,uint256)": {
        "notice": "Transforms a given price identifier using the financial product libraries transformation logic."
      }
    },
    "notice": "Adds custom price transformation logic to modify the behavior of the expiring multi party contract. The contract holds say 1 WETH in collateral and pays out a portion of that, at expiry, if ETHUSD is above a set strike. If ETHUSD is below that strike, the contract pays out 0. The fraction paid out if above the strike is defined by (oraclePrice - strikePrice) / oraclePrice; Example: expiry is DEC 31. Strike is $400. Each token is backed by 1 WETH. If ETHUSD = $600 at expiry, the call is $200 in the money, and the contract pays out 0.333 WETH (worth $200). If ETHUSD = $800 at expiry, the call is $400 in the money, and the contract pays out 0.5 WETH (worth $400). If ETHUSD =< $400 at expiry, the call is out of the money, and the contract pays out 0 WETH.",
    "version": 1
  }
}