{
  "contractName": "LongShortPairFinancialProjectLibraryTest",
  "abi": [
    {
      "inputs": [],
      "name": "valueToReturn",
      "outputs": [
        {
          "internalType": "uint256",
          "name": "",
          "type": "uint256"
        }
      ],
      "stateMutability": "view",
      "type": "function"
    },
    {
      "inputs": [
        {
          "internalType": "uint256",
          "name": "value",
          "type": "uint256"
        }
      ],
      "name": "setValueToReturn",
      "outputs": [],
      "stateMutability": "nonpayable",
      "type": "function"
    },
    {
      "inputs": [
        {
          "internalType": "int256",
          "name": "",
          "type": "int256"
        }
      ],
      "name": "percentageLongCollateralAtExpiry",
      "outputs": [
        {
          "internalType": "uint256",
          "name": "",
          "type": "uint256"
        }
      ],
      "stateMutability": "view",
      "type": "function"
    }
  ],
  "bytecode": "0x608060405234801561001057600080fd5b5060cc8061001f6000396000f3fe6080604052348015600f57600080fd5b5060043610603c5760003560e01c80632da52361146041578063a88ae677146065578063b4252014146077575b600080fd5b6053604c366004607f565b5060005490565b60405190815260200160405180910390f35b60756070366004607f565b600055565b005b605360005481565b600060208284031215608f578081fd5b503591905056fea26469706673582212205c036b8df7a8835d55a4eedc1ee82177b21b64d09e0fed7c3427806b910e423064736f6c63430008040033",
  "immutableReferences": {},
  "source": "// SPDX-License-Identifier: AGPL-3.0-only\npragma solidity ^0.8.0;\nimport \"../common/financial-product-libraries/long-short-pair-libraries/LongShortPairFinancialProductLibrary.sol\";\n\n// Implements a simple FinancialProductLibrary to test price and collateral requirement transoformations.\ncontract LongShortPairFinancialProjectLibraryTest is LongShortPairFinancialProductLibrary {\n    using FixedPoint for FixedPoint.Unsigned;\n\n    uint256 public valueToReturn;\n\n    function setValueToReturn(uint256 value) public {\n        valueToReturn = value;\n    }\n\n    function percentageLongCollateralAtExpiry(\n        int256 /*expiryPrice*/\n    ) public view override returns (uint256) {\n        return valueToReturn;\n    }\n}\n",
  "sourcePath": "/home/circleci/protocol/packages/core/contracts/financial-templates/test/LongShortPairFinancialProjectLibraryTest.sol",
  "compiler": {
    "name": "solc",
    "version": "0.8.4+commit.c7e474f2.Emscripten.clang"
  },
  "schemaVersion": "3.3.4",
  "updatedAt": "2021-07-16T20:27:09.952Z",
  "devdoc": {
    "kind": "dev",
    "methods": {},
    "version": 1
  },
  "userdoc": {
    "kind": "user",
    "methods": {},
    "version": 1
  }
}