{
  "contractName": "LongShortPairMock",
  "abi": [
    {
      "inputs": [
        {
          "internalType": "uint256",
          "name": "_expirationTimestamp",
          "type": "uint256"
        },
        {
          "internalType": "uint256",
          "name": "_collateralPerPair",
          "type": "uint256"
        }
      ],
      "stateMutability": "nonpayable",
      "type": "constructor"
    },
    {
      "inputs": [],
      "name": "collateralPerPair",
      "outputs": [
        {
          "internalType": "uint256",
          "name": "",
          "type": "uint256"
        }
      ],
      "stateMutability": "view",
      "type": "function"
    },
    {
      "inputs": [],
      "name": "expirationTimestamp",
      "outputs": [
        {
          "internalType": "uint256",
          "name": "",
          "type": "uint256"
        }
      ],
      "stateMutability": "view",
      "type": "function"
    }
  ],
  "bytecode": "0x608060405234801561001057600080fd5b506040516100fd3803806100fd83398101604081905261002f9161003d565b600091909155600155610060565b6000806040838503121561004f578182fd5b505080516020909101519092909150565b608f8061006e6000396000f3fe6080604052348015600f57600080fd5b506004361060325760003560e01c80639f43ddd2146037578063e964ae02146051575b600080fd5b603f60005481565b60405190815260200160405180910390f35b603f6001548156fea26469706673582212201f5530ded51b22fa9cb81f54e425777fc7a40d38fcf842e4576d694daad9f86d64736f6c63430008040033",
  "immutableReferences": {},
  "source": "// SPDX-License-Identifier: AGPL-3.0-only\npragma solidity ^0.8.0;\n\ncontract LongShortPairMock {\n    uint256 public expirationTimestamp;\n    uint256 public collateralPerPair;\n\n    constructor(uint256 _expirationTimestamp, uint256 _collateralPerPair) {\n        expirationTimestamp = _expirationTimestamp;\n        collateralPerPair = _collateralPerPair;\n    }\n}\n",
  "sourcePath": "/home/circleci/protocol/packages/core/contracts/financial-templates/test/LongShortPairMock.sol",
  "compiler": {
    "name": "solc",
    "version": "0.8.4+commit.c7e474f2.Emscripten.clang"
  },
  "schemaVersion": "3.3.4",
  "updatedAt": "2021-07-16T20:27:09.953Z",
  "devdoc": {
    "kind": "dev",
    "methods": {},
    "version": 1
  },
  "userdoc": {
    "kind": "user",
    "methods": {},
    "version": 1
  }
}