{
  "contractName": "LspUniswapV2Broker",
  "abi": [
    {
      "inputs": [
        {
          "internalType": "bool",
          "name": "callingAsEOA",
          "type": "bool"
        },
        {
          "internalType": "contract LongShortPair",
          "name": "longShortPair",
          "type": "address"
        },
        {
          "internalType": "contract IUniswapV2Router01",
          "name": "router",
          "type": "address"
        },
        {
          "internalType": "uint256",
          "name": "amountCollateral",
          "type": "uint256"
        },
        {
          "internalType": "uint256",
          "name": "minLpTokens",
          "type": "uint256"
        },
        {
          "internalType": "uint256",
          "name": "deadline",
          "type": "uint256"
        }
      ],
      "name": "atomicMintAddLiquidity",
      "outputs": [],
      "stateMutability": "nonpayable",
      "type": "function"
    },
    {
      "inputs": [
        {
          "internalType": "bool",
          "name": "callingAsEOA",
          "type": "bool"
        },
        {
          "internalType": "bool",
          "name": "sellLong",
          "type": "bool"
        },
        {
          "internalType": "contract LongShortPair",
          "name": "longShortPair",
          "type": "address"
        },
        {
          "internalType": "contract IUniswapV2Router01",
          "name": "router",
          "type": "address"
        },
        {
          "internalType": "uint256",
          "name": "amountCollateral",
          "type": "uint256"
        },
        {
          "internalType": "address[]",
          "name": "swapPath",
          "type": "address[]"
        },
        {
          "internalType": "uint256",
          "name": "deadline",
          "type": "uint256"
        }
      ],
      "name": "atomicMintSellOneSide",
      "outputs": [],
      "stateMutability": "nonpayable",
      "type": "function"
    },
    {
      "inputs": [
        {
          "internalType": "address",
          "name": "factory",
          "type": "address"
        },
        {
          "internalType": "address",
          "name": "tokenA",
          "type": "address"
        },
        {
          "internalType": "address",
          "name": "tokenB",
          "type": "address"
        }
      ],
      "name": "getReserves",
      "outputs": [
        {
          "internalType": "uint256",
          "name": "reserveA",
          "type": "uint256"
        },
        {
          "internalType": "uint256",
          "name": "reserveB",
          "type": "uint256"
        }
      ],
      "stateMutability": "view",
      "type": "function"
    }
  ],
  "bytecode": "0x608060405234801561001057600080fd5b5061260f806100206000396000f3fe608060405234801561001057600080fd5b50600436106100415760003560e01c80633274946114610046578063919e49a514610072578063faa5f8f814610087575b600080fd5b610059610054366004612002565b61009a565b6040805192835260208301919091520160405180910390f35b6100856100803660046121fc565b610173565b005b610085610095366004612100565b610e78565b60008060006100a985856114c9565b5090506000806100ba8888886115c1565b6001600160a01b0316630902f1ac6040518163ffffffff1660e01b815260040160606040518083038186803b1580156100f257600080fd5b505afa158015610106573d6000803e3d6000fd5b505050506040513d601f19601f8201168201806040525081019061012a9190612260565b506001600160701b031691506001600160701b03169150826001600160a01b0316876001600160a01b031614610161578082610164565b81815b90999098509650505050505050565b6001600160a01b0385166101c85760405162461bcd60e51b815260206004820152601760248201527624b73b30b634b2103637b7339039b437b93a103830b4b960491b60448201526064015b60405180910390fd5b6001600160a01b03841661020f5760405162461bcd60e51b815260206004820152600e60248201526d24b73b30b634b2103937baba32b960911b60448201526064016101bf565b826102565760405162461bcd60e51b8152602060048201526017602482015276086ded8d8c2e8cae4c2d840e8de40dad2dce840eed2e8d604b1b60448201526064016101bf565b6000856001600160a01b031663b2016bd46040518163ffffffff1660e01b815260040160206040518083038186803b15801561029157600080fd5b505afa1580156102a5573d6000803e3d6000fd5b505050506040513d601f19601f820116820180604052508101906102c99190611fe6565b90506000866001600160a01b031663b66333cd6040518163ffffffff1660e01b815260040160206040518083038186803b15801561030657600080fd5b505afa15801561031a573d6000803e3d6000fd5b505050506040513d601f19601f8201168201806040525081019061033e9190611fe6565b90506000876001600160a01b031663e3065da76040518163ffffffff1660e01b815260040160206040518083038186803b15801561037b57600080fd5b505afa15801561038f573d6000803e3d6000fd5b505050506040513d601f19601f820116820180604052508101906103b39190611fe6565b905088156103c7576103c78333308961169a565b6103d28389886117d8565b6000610457896001600160a01b031663e964ae026040518163ffffffff1660e01b815260040160206040518083038186803b15801561041057600080fd5b505afa158015610424573d6000803e3d6000fd5b505050506040513d601f19601f8201168201806040525081019061044891906122a3565b61045189611907565b9061193c565b51604051631e02403760e21b8152600481018290529091506001600160a01b038a169063780900dc90602401602060405180830381600087803b15801561049d57600080fd5b505af11580156104b1573d6000803e3d6000fd5b505050506040513d601f19601f820116820180604052508101906104d591906122a3565b506040516370a0823160e01b81523060048201526001600160a01b038316906370a082319060240160206040518083038186803b15801561051557600080fd5b505afa158015610529573d6000803e3d6000fd5b505050506040513d601f19601f8201168201806040525081019061054d91906122a3565b6040516370a0823160e01b81523060048201526001600160a01b038516906370a082319060240160206040518083038186803b15801561058c57600080fd5b505afa1580156105a0573d6000803e3d6000fd5b505050506040513d601f19601f820116820180604052508101906105c491906122a3565b14801561064757506040516370a0823160e01b815230600482015281906001600160a01b038516906370a082319060240160206040518083038186803b15801561060d57600080fd5b505afa158015610621573d6000803e3d6000fd5b505050506040513d601f19601f8201168201806040525081019061064591906122a3565b145b61068d5760405162461bcd60e51b815260206004820152601760248201527610dc99585d19481a5b9d985c9a585b9d0819985a5b1959604a1b60448201526064016101bf565b60008060008061070e8c6001600160a01b031663c45a01556040518163ffffffff1660e01b815260040160206040518083038186803b1580156106cf57600080fd5b505afa1580156106e3573d6000803e3d6000fd5b505050506040513d601f19601f820116820180604052508101906107079190611fe6565b888861009a565b9150915061074760405180602001604052808781525060405180602001604052808581525060405180602001604052808581525061196d565b6040805160028082526060820183529397509195506000929060208301908036833701905050905084801561077c5750600084115b1561089e5787816000815181106107a357634e487b7160e01b600052603260045260246000fd5b60200260200101906001600160a01b031690816001600160a01b03168152505086816001815181106107e557634e487b7160e01b600052603260045260246000fd5b60200260200101906001600160a01b031690816001600160a01b031681525050610810888e866117d8565b8c6001600160a01b0316638803dbee8560001984308f6040518663ffffffff1660e01b8152600401610846959493929190612364565b600060405180830381600087803b15801561086057600080fd5b505af1158015610874573d6000803e3d6000fd5b505050506040513d6000823e601f3d908101601f1916820160405261089c919081019061204c565b505b841580156108ac5750600084115b156109cd5786816000815181106108d357634e487b7160e01b600052603260045260246000fd5b60200260200101906001600160a01b031690816001600160a01b031681525050878160018151811061091557634e487b7160e01b600052603260045260246000fd5b60200260200101906001600160a01b031690816001600160a01b031681525050610940878e866117d8565b8c6001600160a01b03166338ed173985600084308f6040518663ffffffff1660e01b8152600401610975959493929190612364565b600060405180830381600087803b15801561098f57600080fd5b505af11580156109a3573d6000803e3d6000fd5b505050506040513d6000823e601f3d908101601f191682016040526109cb919081019061204c565b505b50506040516370a0823160e01b8152306004820152610a5793508692508b91506001600160a01b038316906370a08231906024015b60206040518083038186803b158015610a1a57600080fd5b505afa158015610a2e573d6000803e3d6000fd5b505050506040513d601f19601f82011682018060405250810190610a5291906122a3565b6117d8565b6040516370a0823160e01b8152306004820152610a8b9083908a906001600160a01b038316906370a0823190602401610a02565b6040516370a0823160e01b81523060048201526001600160a01b03808a169163e8e3370091869186918316906370a082319060240160206040518083038186803b158015610ad857600080fd5b505afa158015610aec573d6000803e3d6000fd5b505050506040513d601f19601f82011682018060405250810190610b1091906122a3565b6040516370a0823160e01b81523060048201526001600160a01b038816906370a082319060240160206040518083038186803b158015610b4f57600080fd5b505afa158015610b63573d6000803e3d6000fd5b505050506040513d601f19601f82011682018060405250810190610b8791906122a3565b6040516001600160e01b031960e087901b1681526001600160a01b0394851660048201529390921660248401526044830152606482015260006084820181905260a48201523060c482015260e4810188905261010401606060405180830381600087803b158015610bf757600080fd5b505af1158015610c0b573d6000803e3d6000fd5b505050506040513d601f19601f82011682018060405250810190610c2f91906122bb565b5050506000610caf896001600160a01b031663c45a01556040518163ffffffff1660e01b815260040160206040518083038186803b158015610c7057600080fd5b505afa158015610c84573d6000803e3d6000fd5b505050506040513d601f19601f82011682018060405250810190610ca89190611fe6565b85856115c1565b6040516370a0823160e01b815230600482015290915087906001600160a01b038316906370a082319060240160206040518083038186803b158015610cf357600080fd5b505afa158015610d07573d6000803e3d6000fd5b505050506040513d601f19601f82011682018060405250810190610d2b91906122a3565b11610d785760405162461bcd60e51b815260206004820152601c60248201527f4661696c656420746f206d696e74206d696e204c5020746f6b656e730000000060448201526064016101bf565b8a15610e6b576040516370a0823160e01b8152306004820152610e0390829033906001600160a01b038316906370a08231906024015b60206040518083038186803b158015610dc657600080fd5b505afa158015610dda573d6000803e3d6000fd5b505050506040513d601f19601f82011682018060405250810190610dfe91906122a3565b611acf565b6040516370a0823160e01b8152306004820152610e3790859033906001600160a01b038316906370a0823190602401610dae565b6040516370a0823160e01b8152306004820152610e6b90849033906001600160a01b038316906370a0823190602401610dae565b5050505050505050505050565b6001600160a01b038516610ec85760405162461bcd60e51b815260206004820152601760248201527624b73b30b634b2103637b7339039b437b93a103830b4b960491b60448201526064016101bf565b6001600160a01b038416610f0f5760405162461bcd60e51b815260206004820152600e60248201526d24b73b30b634b2103937baba32b960911b60448201526064016101bf565b82610f565760405162461bcd60e51b8152602060048201526017602482015276086ded8d8c2e8cae4c2d840e8de40dad2dce840eed2e8d604b1b60448201526064016101bf565b6000856001600160a01b031663b2016bd46040518163ffffffff1660e01b815260040160206040518083038186803b158015610f9157600080fd5b505afa158015610fa5573d6000803e3d6000fd5b505050506040513d601f19601f82011682018060405250810190610fc99190611fe6565b90508715610fdd57610fdd8133308761169a565b610fe88187866117d8565b6000611067876001600160a01b031663e964ae026040518163ffffffff1660e01b815260040160206040518083038186803b15801561102657600080fd5b505afa15801561103a573d6000803e3d6000fd5b505050506040513d601f19601f8201168201806040525081019061105e91906122a3565b61045187611907565b51604051631e02403760e21b8152600481018290529091506001600160a01b0388169063780900dc90602401602060405180830381600087803b1580156110ad57600080fd5b505af11580156110c1573d6000803e3d6000fd5b505050506040513d601f19601f820116820180604052508101906110e591906122a3565b5060008861116357876001600160a01b031663b66333cd6040518163ffffffff1660e01b815260040160206040518083038186803b15801561112657600080fd5b505afa15801561113a573d6000803e3d6000fd5b505050506040513d601f19601f8201168201806040525081019061115e9190611fe6565b6111d4565b876001600160a01b031663e3065da76040518163ffffffff1660e01b815260040160206040518083038186803b15801561119c57600080fd5b505afa1580156111b0573d6000803e3d6000fd5b505050506040513d601f19601f820116820180604052508101906111d49190611fe6565b6040516370a0823160e01b815230600482015290915061120b90829089906001600160a01b038316906370a0823190602401610a02565b806001600160a01b03168560008151811061123657634e487b7160e01b600052603260045260246000fd5b60200260200101516001600160a01b0316146112945760405162461bcd60e51b815260206004820152601a60248201527f536f6c6420746f6b656e20213d2030746820737761705061746800000000000060448201526064016101bf565b6040516370a0823160e01b81523060048201526001600160a01b03808916916338ed1739918416906370a082319060240160206040518083038186803b1580156112dd57600080fd5b505afa1580156112f1573d6000803e3d6000fd5b505050506040513d601f19601f8201168201806040525081019061131591906122a3565b60008830896040518663ffffffff1660e01b815260040161133a959493929190612364565b600060405180830381600087803b15801561135457600080fd5b505af1158015611368573d6000803e3d6000fd5b505050506040513d6000823e601f3d908101601f19168201604052611390919081019061204c565b5089156114bd576000891561141557886001600160a01b031663b66333cd6040518163ffffffff1660e01b815260040160206040518083038186803b1580156113d857600080fd5b505afa1580156113ec573d6000803e3d6000fd5b505050506040513d601f19601f820116820180604052508101906114109190611fe6565b611486565b886001600160a01b031663e3065da76040518163ffffffff1660e01b815260040160206040518083038186803b15801561144e57600080fd5b505afa158015611462573d6000803e3d6000fd5b505050506040513d601f19601f820116820180604052508101906114869190611fe6565b6040516370a0823160e01b8152306004820152909150610e6b90829033906001600160a01b038316906370a0823190602401610dae565b50505050505050505050565b600080826001600160a01b0316846001600160a01b0316141561153c5760405162461bcd60e51b815260206004820152602560248201527f556e697377617056324c6962726172793a204944454e544943414c5f41444452604482015264455353455360d81b60648201526084016101bf565b826001600160a01b0316846001600160a01b03161061155c57828461155f565b83835b90925090506001600160a01b0382166115ba5760405162461bcd60e51b815260206004820152601e60248201527f556e697377617056324c6962726172793a205a45524f5f41444452455353000060448201526064016101bf565b9250929050565b60008060006115d085856114c9565b6040516bffffffffffffffffffffffff19606084811b8216602084015283901b16603482015291935091508690604801604051602081830303815290604052805190602001206040516020016116789291906001600160f81b0319815260609290921b6bffffffffffffffffffffffff1916600183015260158201527f96e8ac4277198ff8b6f785478aa9a39f403cb768dd02cbee326c3e7da348845f603582015260550190565b60408051601f1981840301815291905280516020909101209695505050505050565b604080516001600160a01b0385811660248301528481166044830152606480830185905283518084039091018152608490920183526020820180516001600160e01b03166323b872dd60e01b17905291516000928392908816916116fe919061232b565b6000604051808303816000865af19150503d806000811461173b576040519150601f19603f3d011682016040523d82523d6000602084013e611740565b606091505b509150915081801561176a57508051158061176a57508080602001905181019061176a91906120e4565b6117d05760405162461bcd60e51b815260206004820152603160248201527f5472616e7366657248656c7065723a3a7472616e7366657246726f6d3a207472604482015270185b9cd9995c919c9bdb4819985a5b1959607a1b60648201526084016101bf565b505050505050565b604080516001600160a01b038481166024830152604480830185905283518084039091018152606490920183526020820180516001600160e01b031663095ea7b360e01b1790529151600092839290871691611834919061232b565b6000604051808303816000865af19150503d8060008114611871576040519150601f19603f3d011682016040523d82523d6000602084013e611876565b606091505b50915091508180156118a05750805115806118a05750808060200190518101906118a091906120e4565b6119005760405162461bcd60e51b815260206004820152602b60248201527f5472616e7366657248656c7065723a3a73616665417070726f76653a2061707060448201526a1c9bdd994819985a5b195960aa1b60648201526084016101bf565b5050505050565b60408051602081019091526000815260408051602081019091528061193484670de0b6b3a7640000611bf9565b905292915050565b6040805160208101909152600081526040805160208101909152835181906119649085611c0c565b90529392505050565b6000806000611a2d611a28611a146119c8896119a76119c161198f6001611c18565b6119bb6119ad61199d611c36565b6119a76002611c18565b90611c57565b6119b5611c94565b90611cae565b90611cd8565b8a90611c57565b6119bb6119c16119e76119dd8d6119a7611c36565b6119a76004611c18565b6119bb611a0d6119f76001611c18565b6119bb611a0561199d611c36565b6119bb611c94565b8c90611c57565b6119a7611a21898b611cd8565b8890611c57565b611d02565b90506000611a4a611a14611a3f611c36565b6119b5600019611c18565b90506000611a60826119bb85633b9aca00611d29565b90506000611a7c611a71898b611cd8565b6119a761199d611c36565b90506000611a8a8383611d51565b90506000611a988282611d8d565b90508081611aa7578251611abd565b611abb611ab684600019611d29565b611da4565b515b97509750505050505050935093915050565b604080516001600160a01b038481166024830152604480830185905283518084039091018152606490920183526020820180516001600160e01b031663a9059cbb60e01b1790529151600092839290871691611b2b919061232b565b6000604051808303816000865af19150503d8060008114611b68576040519150601f19603f3d011682016040523d82523d6000602084013e611b6d565b606091505b5091509150818015611b97575080511580611b97575080806020019051810190611b9791906120e4565b6119005760405162461bcd60e51b815260206004820152602d60248201527f5472616e7366657248656c7065723a3a736166655472616e736665723a20747260448201526c185b9cd9995c8819985a5b1959609a1b60648201526084016101bf565b6000611c058284612513565b9392505050565b6000611c05828461247c565b604080516020810190915260008152611c3082611dcb565b92915050565b604080516020810190915260008152611c52611ab66001611dcb565b905090565b6040805160208101909152600081526040805160208101909152825184518291670de0b6b3a764000091611c8a91611df4565b611964919061244e565b604080516020810190915260008152611c52611ab6611c36565b60408051602081019091526000815260408051602081019091528251845182916119649190611e00565b60408051602081019091526000815260408051602081019091528251845182916119649190611e0c565b60408051602081019091526000815260405180602001604052806119348460000151611e18565b6040805160208101909152600081526040805160208101909152835181906119649085611df4565b604080516020810190915260008152604080516020810190915282518451829161196491611d8790670de0b6b3a7640000611df4565b90611f96565b6000611d9882611dcb565b51835112905092915050565b604080516020810190915260008152611c306103e8611dc5846103e5611d29565b90611fa2565b60408051602081019091526000815260408051602081019091528061193484670de0b6b3a76400005b6000611c058284612490565b6000611c058284612532565b6000611c0582846123f5565b600081611e2757506000919050565b816001600160801b8210611e405760809190911c9060401b5b680100000000000000008210611e5b5760409190911c9060201b5b6401000000008210611e725760209190911c9060101b5b620100008210611e875760109190911c9060081b5b6101008210611e9b5760089190911c9060041b5b60108210611eae5760049190911c9060021b5b60088210611eba5760011b5b6001611ec6828661247c565b611ed09083612436565b901c90506001611ee0828661247c565b611eea9083612436565b901c90506001611efa828661247c565b611f049083612436565b901c90506001611f14828661247c565b611f1e9083612436565b901c90506001611f2e828661247c565b611f389083612436565b901c90506001611f48828661247c565b611f529083612436565b901c90506001611f62828661247c565b611f6c9083612436565b901c90506000611f7c828661247c565b9050808210611f8b5780611f8d565b815b95945050505050565b6000611c05828461244e565b6040805160208101909152600081526040805160208101909152835181906119649085611f96565b80516001600160701b0381168114611fe157600080fd5b919050565b600060208284031215611ff7578081fd5b8151611c05816125b3565b600080600060608486031215612016578182fd5b8335612021816125b3565b92506020840135612031816125b3565b91506040840135612041816125b3565b809150509250925092565b6000602080838503121561205e578182fd5b825167ffffffffffffffff811115612074578283fd5b8301601f81018513612084578283fd5b8051612097612092826123d1565b6123a0565b80828252848201915084840188868560051b87010111156120b6578687fd5b8694505b838510156120d85780518352600194909401939185019185016120ba565b50979650505050505050565b6000602082840312156120f5578081fd5b8151611c05816125cb565b600080600080600080600060e0888a03121561211a578283fd5b8735612125816125cb565b9650602088810135612136816125cb565b96506040890135612146816125b3565b95506060890135612156816125b3565b94506080890135935060a089013567ffffffffffffffff811115612178578384fd5b8901601f81018b13612188578384fd5b8035612196612092826123d1565b8082825284820191508484018e868560051b87010111156121b5578788fd5b8794505b838510156121e05780356121cc816125b3565b8352600194909401939185019185016121b9565b50809650505050505060c0880135905092959891949750929550565b60008060008060008060c08789031215612214578182fd5b863561221f816125cb565b9550602087013561222f816125b3565b9450604087013561223f816125b3565b959894975094956060810135955060808101359460a0909101359350915050565b600080600060608486031215612274578081fd5b61227d84611fca565b925061228b60208501611fca565b9150604084015163ffffffff81168114612041578182fd5b6000602082840312156122b4578081fd5b5051919050565b6000806000606084860312156122cf578081fd5b8351925060208401519150604084015190509250925092565b6000815180845260208085019450808401835b838110156123205781516001600160a01b0316875295820195908201906001016122fb565b509495945050505050565b60008251815b8181101561234b5760208186018101518583015201612331565b818111156123595782828501525b509190910192915050565b85815284602082015260a06040820152600061238360a08301866122e8565b6001600160a01b0394909416606083015250608001529392505050565b604051601f8201601f1916810167ffffffffffffffff811182821017156123c9576123c961259d565b604052919050565b600067ffffffffffffffff8211156123eb576123eb61259d565b5060051b60200190565b600080821280156001600160ff1b038490038513161561241757612417612571565b600160ff1b839003841281161561243057612430612571565b50500190565b6000821982111561244957612449612571565b500190565b60008261245d5761245d612587565b600160ff1b82146000198414161561247757612477612571565b500590565b60008261248b5761248b612587565b500490565b60006001600160ff1b03818413828413808216868404861116156124b6576124b6612571565b600160ff1b848712828116878305891216156124d4576124d4612571565b8587129250878205871284841616156124ef576124ef612571565b8785058712818416161561250557612505612571565b505050929093029392505050565b600081600019048311821515161561252d5761252d612571565b500290565b60008083128015600160ff1b85018412161561255057612550612571565b6001600160ff1b038401831381161561256b5761256b612571565b50500390565b634e487b7160e01b600052601160045260246000fd5b634e487b7160e01b600052601260045260246000fd5b634e487b7160e01b600052604160045260246000fd5b6001600160a01b03811681146125c857600080fd5b50565b80151581146125c857600080fdfea264697066735822122094ebc72c283b667e7fee65683ea8f2969c8876309725be55cb780300251efd3a64736f6c63430008040033",
  "immutableReferences": {},
  "source": "// SPDX-License-Identifier: AGPL-3.0-only\npragma solidity ^0.8.0;\n\nimport \"@openzeppelin/contracts/token/ERC20/IERC20.sol\";\n\nimport \"@uniswap/lib/contracts/libraries/Babylonian.sol\";\nimport \"@uniswap/v2-core/contracts/interfaces/IUniswapV2Pair.sol\";\n\nimport \"@uniswap/lib/contracts/libraries/TransferHelper.sol\";\nimport \"@uniswap/v2-periphery/contracts/interfaces/IUniswapV2Router01.sol\";\n\nimport \"../../common/implementation/FixedPoint.sol\";\n\nimport \"../../financial-templates/long-short-pair/LongShortPair.sol\";\n\n/**\n * @title LspUniswapV2Broker\n * @notice Helper contract to facilitate batched LSP and UniswapV2 transactions, including Mint+Sell and Mint+LP.\n */\ncontract LspUniswapV2Broker {\n    using FixedPoint for FixedPoint.Signed;\n    using FixedPoint for FixedPoint.Unsigned;\n\n    /**\n     * @notice Mint long and short tokens and deposit them all into a UniV2 Pool.\n     * @dev The caller of this method needs to approve `amountCollateral` collateral to be spent by this contract.\n     * @param callingAsEOA If True, caller has balance of collateral and expects to receive back all LP  tokens + dust.\n     * @param longShortPair LSP contract address to mint position on.\n     * @param router Contract to call to exchange long and short tokens.\n     * @param amountCollateral Amount of collateral to deposit and mint long and short tokens against.\n     * @param minLpTokens Minimum number of LP tokens to mint\n     * @param deadline Unix timestamp that will force the transaction to revert if minded after this time.\n     */\n    function atomicMintAddLiquidity(\n        bool callingAsEOA,\n        LongShortPair longShortPair,\n        IUniswapV2Router01 router,\n        uint256 amountCollateral,\n        uint256 minLpTokens,\n        uint256 deadline\n    ) public {\n        require(address(longShortPair) != address(0), \"Invalid long short pair\");\n        require(address(router) != address(0), \"Invalid router\");\n        require(amountCollateral != 0, \"Collateral to mint with\");\n\n        IERC20 collateralToken = IERC20(longShortPair.collateralToken());\n        IERC20 longToken = IERC20(longShortPair.longToken());\n        IERC20 shortToken = IERC20(longShortPair.shortToken());\n\n        // 0) Pull collateral from caller if necessary and approve LSP to spend it.\n        if (callingAsEOA)\n            TransferHelper.safeTransferFrom(address(collateralToken), msg.sender, address(this), amountCollateral);\n\n        // 1) Approve collateral to be spent by the LSP from this contract at size of amountCollateral.\n        TransferHelper.safeApprove(address(collateralToken), address(longShortPair), amountCollateral);\n\n        // 2) Deposit collateral into LSP and mint long and short tokens.\n        uint256 tokensToCreate =\n            FixedPoint.fromUnscaledUint(amountCollateral).div(longShortPair.collateralPerPair()).rawValue;\n        longShortPair.create(tokensToCreate);\n\n        require(\n            longToken.balanceOf(address(this)) == shortToken.balanceOf(address(this)) &&\n                longToken.balanceOf(address(this)) == tokensToCreate,\n            \"Create invariant failed\"\n        );\n\n        {\n            // 3) Calculate if we need to sell the long token for the short or the short token for the long. Calculate\n            // the total trade size to bring the balance of long/short in this contract to equal the pool ratio after\n            // the trade. Note this computation must consider how the resultant pool ratios is impacted by the trade.\n            bool aToB;\n            uint256 tradeSize;\n            (uint256 reserveA, uint256 reserveB) =\n                getReserves(router.factory(), address(longToken), address(shortToken));\n            (aToB, tradeSize) = computeSwapToMintAtPoolRatio(\n                FixedPoint.Signed(int256(tokensToCreate)),\n                FixedPoint.Signed(int256(reserveA)),\n                FixedPoint.Signed(int256(reserveB))\n            );\n            address[] memory path = new address[](2);\n\n            // 3.a) If the trade is token a to b then we are selling long tokens for short tokens. In this case, we\n            // know the exact output number of tokens we want (short tokens) and use the router's\n            // swapTokensForExactTokens with the exact output number of tokens specified.\n            if (aToB && tradeSize > 0) {\n                path[0] = address(longToken);\n                path[1] = address(shortToken);\n                TransferHelper.safeApprove(address(longToken), address(router), tradeSize);\n                router.swapTokensForExactTokens(tradeSize, type(uint256).max, path, address(this), deadline);\n            }\n            if (!aToB && tradeSize > 0) {\n                // Else, if the trade is b to a then we are selling short tokens for long tokens. In this case, we\n                // know the exact input number of tokens that we need to sell (short tokens) and can use the router's\n                // swapExactTokensForTokens with the exact input specified.\n                path[0] = address(shortToken);\n                path[1] = address(longToken);\n                TransferHelper.safeApprove(address(shortToken), address(router), tradeSize);\n                router.swapExactTokensForTokens(tradeSize, 0, path, address(this), deadline);\n            }\n        }\n\n        // 4) Add liquidity to the pool via the router. Approve both long and short tokens with the full account balance\n        // in this contract (i.e the amount of tokens minted +- that traded in step 2.).\n        TransferHelper.safeApprove(address(longToken), address(router), longToken.balanceOf(address(this)));\n        TransferHelper.safeApprove(address(shortToken), address(router), shortToken.balanceOf(address(this)));\n        router.addLiquidity(\n            address(longToken),\n            address(shortToken),\n            longToken.balanceOf(address(this)),\n            shortToken.balanceOf(address(this)),\n            0,\n            0,\n            address(this),\n            deadline\n        );\n\n        // 5) Validate that at least the minimum number of tokens have been minted. If not, revert.\n        {\n            IERC20 lPToken = IERC20(address(pairFor(router.factory(), address(longToken), address(shortToken))));\n            require(lPToken.balanceOf(address(this)) > minLpTokens, \"Failed to mint min LP tokens\");\n\n            // 5) Finally, if the caller is an EOA, send back the LP tokens from minting + any dust that was left over.\n            // The dust is in the long and short tokens and will be left over as a result of small rounding errors in\n            // the calculation on how many long/short should be bought/sold to meet the pool ratio before minting.\n            if (callingAsEOA) {\n                // Send the LP tokens back to the minter.\n                TransferHelper.safeTransfer(address(lPToken), msg.sender, lPToken.balanceOf(address(this)));\n\n                // Send any dust left over back to the minter that may have happened due to small rounding errors in\n                // the computation methods within computeSwapToMintAtPoolRatio.\n                TransferHelper.safeTransfer(address(longToken), msg.sender, longToken.balanceOf(address(this)));\n                TransferHelper.safeTransfer(address(shortToken), msg.sender, shortToken.balanceOf(address(this)));\n            }\n        }\n    }\n\n    // For a given mint size (m) and pool balances (ra & rb), compute the trade size such that the resulting ratio\n    // of tokens, considering the mint and trade,is equal to the pool ratio after the trade. This is computed using the\n    // following logic: Assume m tokens are minted in equal proportion of long and short. This contract will therefore\n    // hold t_l=m+l long tokens and t_s=m-s after a trade of s for l tokens. The ratio t_l/t_s must equal the pool\n    // ratio after the trade. The pool ratio, considering the trade can be expressed as (R_a-a)(R_b+b)=k for a\n    // trade of a for b and a swap fee of =(1-swapFee). Using this, with a bit of algebra and simplification, we can\n    // solve for the resultant ratio to be (m+a)/(m-b)=(R_a-a)/(R_b+b). i.e the ratio of mint+trade must equal the\n    // ratio of token A and B in the pool after the trade has concluded. We also know that a can be solved for as\n    // a=(bR_a)/(R_b+b) by manipulating a known uniswap equation. Using this equation and the expression of ratios\n    // we can solve simultaneously for b. I.e how many short tokens do we need to sell such that the ratio of long and\n    // short after the trade equal the pool ratios. Numerically, this works out to this form:\n    // b=(sqrt(R_b(R_a+m)(R_a(R_b(^2+2+1)+4m)+R_b(^2-2+1)m))+R_b(--1)(R_a+m))/(2(R_a+m)). For how this was solved\n    // from the algebraic solution above see https://bit.ly/3jn7AF6 on wolfram alpha showing the derivation.\n    function computeSwapToMintAtPoolRatio(\n        FixedPoint.Signed memory m,\n        FixedPoint.Signed memory ra,\n        FixedPoint.Signed memory rb\n    ) private pure returns (bool, uint256) {\n        FixedPoint.Signed memory numerator1 =\n            sqrt(\n                rb.mul(ra.add(m)).mul(\n                    ra\n                        .mul(rb.mul(lambda2().add(num(2).mul(lambda())).add(num(1))).add(num(4).mul(lambda().mul(m))))\n                        .add(rb.mul(lambda2().sub(num(2).mul(lambda())).add(num(1))).mul(m))\n                )\n            );\n\n        FixedPoint.Signed memory numerator2 = rb.mul(ra.add(m)).mul(num(-1).sub(lambda()));\n\n        FixedPoint.Signed memory numerator = numerator1.mul(1e9).add(numerator2);\n\n        FixedPoint.Signed memory denominator = num(2).mul(lambda()).mul(ra.add(m));\n\n        FixedPoint.Signed memory tradeSize = numerator.div(denominator);\n\n        // If the trade size is negative then we are traversing the equation backwards. In this case the contract must\n        // swap between swapTokensForExactTokens and swapExactTokensForTokens methods as we are always solving for b.\n        // In other words, we are always solving for how many short tokens are needed to be bought/sold. If the number\n        // is positive then we are buying them. if it is negative then we are selling them. In the case we are selling\n        // them (negative) then we swap the polarity and apply the swap fee to the trade.\n        bool aToB = tradeSize.isLessThan(0);\n        return (aToB, uint256(aToB ? applySwapFee(tradeSize.mul(-1)).rawValue : tradeSize.rawValue));\n    }\n\n    // Syntactical sugar to calculate square root of a number.\n    function sqrt(FixedPoint.Signed memory num) private pure returns (FixedPoint.Signed memory) {\n        return FixedPoint.Signed(int256(Babylonian.sqrt(uint256(num.rawValue))));\n    }\n\n    // Syntactical sugar to convert a int256 to a Fixedpoint.Signed.\n    function num(int256 num) private pure returns (FixedPoint.Signed memory) {\n        return FixedPoint.fromUnscaledInt(num);\n    }\n\n    // Takes an input fixedPoint.Signed num and returns the num scaled by 0.997. 0.3% swap fee as in uniswap.\n    function applySwapFee(FixedPoint.Signed memory num) private pure returns (FixedPoint.Signed memory) {\n        return num.mul(997).div(1000);\n    }\n\n    // 1 with 0.3% fees applied.\n    function lambda() private pure returns (FixedPoint.Signed memory) {\n        return applySwapFee(FixedPoint.fromUnscaledInt(1));\n    }\n\n    // 1 with 0.3% fees applied twice.\n    function lambda2() private pure returns (FixedPoint.Signed memory) {\n        return applySwapFee(lambda());\n    }\n\n    /**\n     * @notice Mint long and short tokens and convert all of one side into the other.\n     * @dev The caller of this method needs to approve `amountCollateral` collateral to be spent by this contract.\n     * @param callingAsEOA If True, caller has balance of collateral and expects to receive back all long/short tokens.\n     * @param sellLong If True, converts all long tokens into short, else the opposite.\n     * @param longShortPair LSP contract address to mint position on.\n     * @param router Contract to call to exchange long and short tokens.\n     * @param amountCollateral Amount of collateral to deposit and mint long and short tokens against.\n     * @param swapPath `Router.swapExactTokensForTokens` param: path with which to swap token to sell for the other.\n     * @param deadline `Router.swapExactTokensForTokens` param: time before transaction must be mined.\n     */\n    function atomicMintSellOneSide(\n        bool callingAsEOA,\n        bool sellLong,\n        LongShortPair longShortPair,\n        IUniswapV2Router01 router, /* TODO: Should we allow `router` to be any exchange, such as a Matcha multihop? */\n        uint256 amountCollateral,\n        address[] memory swapPath,\n        uint256 deadline\n    ) public {\n        require(address(longShortPair) != address(0), \"Invalid long short pair\");\n        require(address(router) != address(0), \"Invalid router\");\n        require(amountCollateral != 0, \"Collateral to mint with\");\n\n        IERC20 collateralToken = IERC20(longShortPair.collateralToken());\n\n        // 0) Pull collateral from caller if necessary and approve LSP to spend it.\n        if (callingAsEOA)\n            TransferHelper.safeTransferFrom(address(collateralToken), msg.sender, address(this), amountCollateral);\n\n        TransferHelper.safeApprove(address(collateralToken), address(longShortPair), amountCollateral);\n\n        // 1) Deposit collateral into LSP and mint long and short tokens.\n        uint256 tokensToCreate =\n            FixedPoint.fromUnscaledUint(amountCollateral).div(longShortPair.collateralPerPair()).rawValue;\n        longShortPair.create(tokensToCreate);\n\n        // 2) Determine which token we are selling and convert it all into the other.\n        IERC20 soldToken = IERC20(sellLong ? longShortPair.shortToken() : longShortPair.longToken());\n        TransferHelper.safeApprove(address(soldToken), address(router), soldToken.balanceOf(address(this)));\n        require(swapPath[0] == address(soldToken), \"Sold token != 0th swapPath\");\n        router.swapExactTokensForTokens(\n            soldToken.balanceOf(address(this)), // sell all of the sold tokens held by the contract.\n            0,\n            swapPath,\n            address(this),\n            deadline\n        );\n\n        // 3) Send tokens back to caller if necessary.\n        if (callingAsEOA) {\n            IERC20 purchasedToken = IERC20(!sellLong ? longShortPair.shortToken() : longShortPair.longToken());\n            TransferHelper.safeTransfer(address(purchasedToken), msg.sender, purchasedToken.balanceOf(address(this)));\n        }\n    }\n\n    function getReserves(\n        address factory,\n        address tokenA,\n        address tokenB\n    ) public view returns (uint256 reserveA, uint256 reserveB) {\n        (address token0, ) = sortTokens(tokenA, tokenB);\n        (uint256 reserve0, uint256 reserve1, ) = IUniswapV2Pair(pairFor(factory, tokenA, tokenB)).getReserves();\n        (reserveA, reserveB) = tokenA == token0 ? (reserve0, reserve1) : (reserve1, reserve0);\n    }\n\n    function sortTokens(address tokenA, address tokenB) internal pure returns (address token0, address token1) {\n        require(tokenA != tokenB, \"UniswapV2Library: IDENTICAL_ADDRESSES\");\n        (token0, token1) = tokenA < tokenB ? (tokenA, tokenB) : (tokenB, tokenA);\n        require(token0 != address(0), \"UniswapV2Library: ZERO_ADDRESS\");\n    }\n\n    // calculates the CREATE2 address for a pair without making any external calls\n    function pairFor(\n        address factory,\n        address tokenA,\n        address tokenB\n    ) internal pure returns (IUniswapV2Pair pair) {\n        (address token0, address token1) = sortTokens(tokenA, tokenB);\n        pair = IUniswapV2Pair(\n            address(\n                uint160(\n                    uint256(\n                        keccak256(\n                            abi.encodePacked(\n                                hex\"ff\",\n                                factory,\n                                keccak256(abi.encodePacked(token0, token1)),\n                                hex\"96e8ac4277198ff8b6f785478aa9a39f403cb768dd02cbee326c3e7da348845f\" // init code hash\n                            )\n                        )\n                    )\n                )\n            )\n        );\n    }\n}\n",
  "sourcePath": "/home/circleci/protocol/packages/core/contracts/proxy-scripts/lsp-broker/LspUniswapV2Broker.sol",
  "compiler": {
    "name": "solc",
    "version": "0.8.4+commit.c7e474f2.Emscripten.clang"
  },
  "schemaVersion": "3.3.4",
  "updatedAt": "2021-07-16T20:27:10.185Z",
  "devdoc": {
    "kind": "dev",
    "methods": {
      "atomicMintAddLiquidity(bool,address,address,uint256,uint256,uint256)": {
        "details": "The caller of this method needs to approve `amountCollateral` collateral to be spent by this contract.",
        "params": {
          "amountCollateral": "Amount of collateral to deposit and mint long and short tokens against.",
          "callingAsEOA": "If True, caller has balance of collateral and expects to receive back all LP  tokens + dust.",
          "deadline": "Unix timestamp that will force the transaction to revert if minded after this time.",
          "longShortPair": "LSP contract address to mint position on.",
          "minLpTokens": "Minimum number of LP tokens to mint",
          "router": "Contract to call to exchange long and short tokens."
        }
      },
      "atomicMintSellOneSide(bool,bool,address,address,uint256,address[],uint256)": {
        "details": "The caller of this method needs to approve `amountCollateral` collateral to be spent by this contract.",
        "params": {
          "amountCollateral": "Amount of collateral to deposit and mint long and short tokens against.",
          "callingAsEOA": "If True, caller has balance of collateral and expects to receive back all long/short tokens.",
          "deadline": "`Router.swapExactTokensForTokens` param: time before transaction must be mined.",
          "longShortPair": "LSP contract address to mint position on.",
          "router": "Contract to call to exchange long and short tokens.",
          "sellLong": "If True, converts all long tokens into short, else the opposite.",
          "swapPath": "`Router.swapExactTokensForTokens` param: path with which to swap token to sell for the other."
        }
      }
    },
    "title": "LspUniswapV2Broker",
    "version": 1
  },
  "userdoc": {
    "kind": "user",
    "methods": {
      "atomicMintAddLiquidity(bool,address,address,uint256,uint256,uint256)": {
        "notice": "Mint long and short tokens and deposit them all into a UniV2 Pool."
      },
      "atomicMintSellOneSide(bool,bool,address,address,uint256,address[],uint256)": {
        "notice": "Mint long and short tokens and convert all of one side into the other."
      }
    },
    "notice": "Helper contract to facilitate batched LSP and UniswapV2 transactions, including Mint+Sell and Mint+LP.",
    "version": 1
  }
}