{
  "contractName": "OracleChildTunnel",
  "abi": [
    {
      "inputs": [
        {
          "internalType": "address",
          "name": "_fxChild",
          "type": "address"
        },
        {
          "internalType": "address",
          "name": "_finderAddress",
          "type": "address"
        }
      ],
      "stateMutability": "nonpayable",
      "type": "constructor"
    },
    {
      "anonymous": false,
      "inputs": [
        {
          "indexed": false,
          "internalType": "bytes",
          "name": "message",
          "type": "bytes"
        }
      ],
      "name": "MessageSent",
      "type": "event"
    },
    {
      "anonymous": false,
      "inputs": [
        {
          "indexed": true,
          "internalType": "bytes32",
          "name": "identifier",
          "type": "bytes32"
        },
        {
          "indexed": false,
          "internalType": "uint256",
          "name": "time",
          "type": "uint256"
        },
        {
          "indexed": false,
          "internalType": "bytes",
          "name": "ancillaryData",
          "type": "bytes"
        },
        {
          "indexed": true,
          "internalType": "bytes32",
          "name": "requestHash",
          "type": "bytes32"
        }
      ],
      "name": "PriceRequestAdded",
      "type": "event"
    },
    {
      "anonymous": false,
      "inputs": [
        {
          "indexed": true,
          "internalType": "bytes32",
          "name": "identifier",
          "type": "bytes32"
        },
        {
          "indexed": false,
          "internalType": "uint256",
          "name": "time",
          "type": "uint256"
        },
        {
          "indexed": false,
          "internalType": "bytes",
          "name": "ancillaryData",
          "type": "bytes"
        },
        {
          "indexed": false,
          "internalType": "int256",
          "name": "price",
          "type": "int256"
        },
        {
          "indexed": true,
          "internalType": "bytes32",
          "name": "requestHash",
          "type": "bytes32"
        }
      ],
      "name": "PushedPrice",
      "type": "event"
    },
    {
      "inputs": [],
      "name": "ancillaryBytesLimit",
      "outputs": [
        {
          "internalType": "uint256",
          "name": "",
          "type": "uint256"
        }
      ],
      "stateMutability": "view",
      "type": "function"
    },
    {
      "inputs": [],
      "name": "finder",
      "outputs": [
        {
          "internalType": "contract FinderInterface",
          "name": "",
          "type": "address"
        }
      ],
      "stateMutability": "view",
      "type": "function"
    },
    {
      "inputs": [],
      "name": "fxChild",
      "outputs": [
        {
          "internalType": "address",
          "name": "",
          "type": "address"
        }
      ],
      "stateMutability": "view",
      "type": "function"
    },
    {
      "inputs": [],
      "name": "fxRootTunnel",
      "outputs": [
        {
          "internalType": "address",
          "name": "",
          "type": "address"
        }
      ],
      "stateMutability": "view",
      "type": "function"
    },
    {
      "inputs": [
        {
          "internalType": "uint256",
          "name": "stateId",
          "type": "uint256"
        },
        {
          "internalType": "address",
          "name": "rootMessageSender",
          "type": "address"
        },
        {
          "internalType": "bytes",
          "name": "data",
          "type": "bytes"
        }
      ],
      "name": "processMessageFromRoot",
      "outputs": [],
      "stateMutability": "nonpayable",
      "type": "function"
    },
    {
      "inputs": [
        {
          "internalType": "address",
          "name": "_fxRootTunnel",
          "type": "address"
        }
      ],
      "name": "setFxRootTunnel",
      "outputs": [],
      "stateMutability": "nonpayable",
      "type": "function"
    },
    {
      "inputs": [
        {
          "internalType": "bytes32",
          "name": "identifier",
          "type": "bytes32"
        },
        {
          "internalType": "uint256",
          "name": "time",
          "type": "uint256"
        },
        {
          "internalType": "bytes",
          "name": "ancillaryData",
          "type": "bytes"
        }
      ],
      "name": "requestPrice",
      "outputs": [],
      "stateMutability": "nonpayable",
      "type": "function"
    },
    {
      "inputs": [
        {
          "internalType": "bytes32",
          "name": "identifier",
          "type": "bytes32"
        },
        {
          "internalType": "uint256",
          "name": "time",
          "type": "uint256"
        },
        {
          "internalType": "bytes",
          "name": "ancillaryData",
          "type": "bytes"
        }
      ],
      "name": "hasPrice",
      "outputs": [
        {
          "internalType": "bool",
          "name": "",
          "type": "bool"
        }
      ],
      "stateMutability": "view",
      "type": "function"
    },
    {
      "inputs": [
        {
          "internalType": "bytes32",
          "name": "identifier",
          "type": "bytes32"
        },
        {
          "internalType": "uint256",
          "name": "time",
          "type": "uint256"
        },
        {
          "internalType": "bytes",
          "name": "ancillaryData",
          "type": "bytes"
        }
      ],
      "name": "getPrice",
      "outputs": [
        {
          "internalType": "int256",
          "name": "",
          "type": "int256"
        }
      ],
      "stateMutability": "view",
      "type": "function"
    },
    {
      "inputs": [
        {
          "internalType": "bytes",
          "name": "ancillaryData",
          "type": "bytes"
        },
        {
          "internalType": "address",
          "name": "requester",
          "type": "address"
        }
      ],
      "name": "stampAncillaryData",
      "outputs": [
        {
          "internalType": "bytes",
          "name": "",
          "type": "bytes"
        }
      ],
      "stateMutability": "view",
      "type": "function"
    }
  ],
  "bytecode": "0x608060405234801561001057600080fd5b50604051620016863803806200168683398101604081905261003191610091565b600180546001600160a01b039283166001600160a01b031991821617909155600280549290931691161790556003805460ff60a01b1916600160a01b1790556100c3565b80516001600160a01b038116811461008c57600080fd5b919050565b600080604083850312156100a3578182fd5b6100ac83610075565b91506100ba60208401610075565b90509250929050565b6115b380620000d36000396000f3fe608060405234801561001057600080fd5b506004361061009e5760003560e01c80639a7c4b71116100665780639a7c4b711461012f578063af5d2f3914610142578063b551cd5014610162578063b9a3c84c14610185578063c371dda71461019857600080fd5b8063216666a4146100a3578063450d11f0146100b8578063719c6d56146100e85780637f1e9cb014610109578063888370941461011c575b600080fd5b6100b66100b1366004610f77565b6101a1565b005b6002546100cb906001600160a01b031681565b6040516001600160a01b0390911681526020015b60405180910390f35b6100fb6100f6366004610f77565b610348565b6040519081526020016100df565b6003546100cb906001600160a01b031681565b6100b661012a366004610f18565b610517565b6100b661013d3660046110a3565b6105a5565b610155610150366004611053565b610650565b6040516100df9190611217565b610175610170366004610f77565b61066d565b60405190151581526020016100df565b6001546100cb906001600160a01b031681565b6100fb61200081565b6101a96107e5565b6101bb6003805460ff60a01b19169055565b6001546040516302abf57960e61b815267526567697374727960c01b60048201526000916001600160a01b03169063aafd5e409060240160206040518083038186803b15801561020a57600080fd5b505afa15801561021e573d6000803e3d6000fd5b505050506040513d601f19601f820116820180604052508101906102429190610f3b565b60405163f9f6b49b60e01b81523360048201529091506001600160a01b0382169063f9f6b49b9060240160206040518083038186803b15801561028457600080fd5b505afa158015610298573d6000803e3d6000fd5b505050506040513d601f19601f820116820180604052508101906102bc9190610f57565b6102e15760405162461bcd60e51b81526004016102d89061122a565b60405180910390fd5b6102f584846102f08533610840565b6108a1565b61032a84846103048533610840565b604051602001610316939291906111ef565b604051602081830303815290604052610986565b506103436003805460ff60a01b1916600160a01b179055565b505050565b60006103526107e5565b6001546040516302abf57960e61b815267526567697374727960c01b60048201526000916001600160a01b03169063aafd5e409060240160206040518083038186803b1580156103a157600080fd5b505afa1580156103b5573d6000803e3d6000fd5b505050506040513d601f19601f820116820180604052508101906103d99190610f3b565b60405163f9f6b49b60e01b81523360048201529091506001600160a01b0382169063f9f6b49b9060240160206040518083038186803b15801561041b57600080fd5b505afa15801561042f573d6000803e3d6000fd5b505050506040513d601f19601f820116820180604052508101906104539190610f57565b61046f5760405162461bcd60e51b81526004016102d89061122a565b600061048586866104808733610840565b6109c0565b60008181526020819052604090209091506002815460ff1660028111156104bc57634e487b7160e01b600052602160045260246000fd5b146105095760405162461bcd60e51b815260206004820152601b60248201527f507269636520686173206e6f74206265656e207265736f6c766564000000000060448201526064016102d8565b600101549695505050505050565b6003546001600160a01b0316156105835760405162461bcd60e51b815260206004820152602a60248201527f4678426173654368696c6454756e6e656c3a20524f4f545f54554e4e454c5f4160448201526913149150511657d4d15560b21b60648201526084016102d8565b600380546001600160a01b0319166001600160a01b0392909216919091179055565b6002546001600160a01b031633146106095760405162461bcd60e51b815260206004820152602160248201527f4678426173654368696c6454756e6e656c3a20494e56414c49445f53454e44456044820152602960f91b60648201526084016102d8565b61064a848484848080601f0160208091040260200160405190810160405280939291908181526020018383808284376000920191909152506109f692505050565b50505050565b606061065a6107e5565b6106648383610840565b90505b92915050565b60006106776107e5565b6001546040516302abf57960e61b815267526567697374727960c01b60048201526000916001600160a01b03169063aafd5e409060240160206040518083038186803b1580156106c657600080fd5b505afa1580156106da573d6000803e3d6000fd5b505050506040513d601f19601f820116820180604052508101906106fe9190610f3b565b60405163f9f6b49b60e01b81523360048201529091506001600160a01b0382169063f9f6b49b9060240160206040518083038186803b15801561074057600080fd5b505afa158015610754573d6000803e3d6000fd5b505050506040513d601f19601f820116820180604052508101906107789190610f57565b6107945760405162461bcd60e51b81526004016102d89061122a565b60006107a586866104808733610840565b9050600260008281526020819052604090205460ff1660028111156107da57634e487b7160e01b600052602160045260246000fd5b149695505050505050565b600354600160a01b900460ff1661083e5760405162461bcd60e51b815260206004820152601f60248201527f5265656e7472616e637947756172643a207265656e7472616e742063616c6c0060448201526064016102d8565b565b6060610664610876846040518060400160405280600e81526020016d31b434b6322932b8bab2b9ba32b960911b81525085610aa1565b6040518060400160405280600c81526020016b18da1a5b1910da185a5b925960a21b81525046610ae7565b612000815111156108ed5760405162461bcd60e51b8152602060048201526016602482015275496e76616c696420616e63696c6c617279206461746160501b60448201526064016102d8565b60006108fa8484846109c0565b6000818152602081905260408120919250815460ff16600281111561092f57634e487b7160e01b600052602160045260246000fd5b141561097f57805460ff19166001178155604051829086907f55ad1db144341b8105784dba37a7cb1c3088262f75ea638cfb7c8ecfb73751c6906109769088908890611261565b60405180910390a35b5050505050565b7f8c5261668696ce22758910d05bab8f186d6eb247ceac2af2e82c7dc17669b036816040516109b59190611217565b60405180910390a150565b60008383836040516020016109d7939291906111ef565b6040516020818303038152906040528051906020012090509392505050565b60035482906001600160a01b03808316911614610a695760405162461bcd60e51b815260206004820152602b60248201527f4678426173654368696c6454756e6e656c3a20494e56414c49445f53454e444560448201526a1497d19493d357d493d3d560aa1b60648201526084016102d8565b60008060008085806020019051810190610a839190610fc5565b9350935093509350610a9784848484610b02565b5050505050505050565b60606000610aaf8585610ba7565b90508481610abc85610be9565b604051602001610ace93929190611153565b6040516020818303038152906040529150509392505050565b60606000610af58585610ba7565b90508481610abc85610d4c565b6000610b0f8585856109c0565b60008181526020819052604090209091506001815460ff166002811115610b4657634e487b7160e01b600052602160045260246000fd5b1415610b9f5760018101839055805460ff19166002178155604051829087907ffd38de8c79c8c3c553ecd154c6b11b67511ec8dee573c8a488a056d7335b34e890610b9690899089908990611282565b60405180910390a35b505050505050565b815160609015610bd85781604051602001610bc291906111bb565b6040516020818303038152906040529050610667565b81604051602001610bc29190611196565b60408051602880825260608281019093526000919060208201818036833701905050905060005b6014811015610d45576000610c268260136114a2565b610c31906008611462565b610c3c9060026113ba565b610c4f906001600160a01b038716611341565b60f81b9050600060108260f81c610c669190611355565b60f81b905060008160f81c6010610c7d9190611481565b8360f81c610c8b91906114b9565b60f81b9050610c9982610e91565b85610ca5866002611462565b81518110610cc357634e487b7160e01b600052603260045260246000fd5b60200101906001600160f81b031916908160001a905350610ce381610e91565b85610cef866002611462565b610cfa906001611304565b81518110610d1857634e487b7160e01b600052603260045260246000fd5b60200101906001600160f81b031916908160001a9053505050508080610d3d90611508565b915050610c10565b5092915050565b606081610d705750506040805180820190915260018152600360fc1b602082015290565b8160005b8115610d9a5780610d8481611508565b9150610d939050600a83611341565b9150610d74565b60008167ffffffffffffffff811115610dc357634e487b7160e01b600052604160045260246000fd5b6040519080825280601f01601f191660200182016040528015610ded576020820181803683370190505b509050815b8515610e8857610e036001826114a2565b90506000610e12600a88611341565b610e1d90600a611462565b610e2790886114a2565b610e3290603061131c565b905060008160f81b905080848481518110610e5d57634e487b7160e01b600052603260045260246000fd5b60200101906001600160f81b031916908160001a905350610e7f600a89611341565b97505050610df2565b50949350505050565b6000600a60f883901c1015610eb857610eaf60f883901c603061131c565b60f81b92915050565b610eaf60f883901c605761131c565b600082601f830112610ed7578081fd5b8135610eea610ee5826112dc565b6112ab565b818152846020838601011115610efe578283fd5b816020850160208301379081016020019190915292915050565b600060208284031215610f29578081fd5b8135610f3481611565565b9392505050565b600060208284031215610f4c578081fd5b8151610f3481611565565b600060208284031215610f68578081fd5b81518015158114610f34578182fd5b600080600060608486031215610f8b578182fd5b8335925060208401359150604084013567ffffffffffffffff811115610faf578182fd5b610fbb86828701610ec7565b9150509250925092565b60008060008060808587031215610fda578081fd5b8451935060208501519250604085015167ffffffffffffffff811115610ffe578182fd5b8501601f8101871361100e578182fd5b805161101c610ee5826112dc565b818152886020838501011115611030578384fd5b6110418260208301602086016114dc565b60609790970151959894975050505050565b60008060408385031215611065578182fd5b823567ffffffffffffffff81111561107b578283fd5b61108785828601610ec7565b925050602083013561109881611565565b809150509250929050565b600080600080606085870312156110b8578384fd5b8435935060208501356110ca81611565565b9250604085013567ffffffffffffffff808211156110e6578384fd5b818701915087601f8301126110f9578384fd5b813581811115611107578485fd5b886020828501011115611118578485fd5b95989497505060200194505050565b6000815180845261113f8160208601602086016114dc565b601f01601f19169290920160200192915050565b600084516111658184602089016114dc565b8451908301906111798183602089016114dc565b845191019061118c8183602088016114dc565b0195945050505050565b600082516111a88184602087016114dc565b601d60f91b920191825250600101919050565b600b60fa1b8152600082516111d78160018501602087016114dc565b601d60f91b6001939091019283015250600201919050565b83815282602082015260606040820152600061120e6060830184611127565b95945050505050565b6020815260006106646020830184611127565b60208082526019908201527f43616c6c6572206d757374206265207265676973746572656400000000000000604082015260600190565b82815260406020820152600061127a6040830184611127565b949350505050565b83815260606020820152600061129b6060830185611127565b9050826040830152949350505050565b604051601f8201601f1916810167ffffffffffffffff811182821017156112d4576112d461154f565b604052919050565b600067ffffffffffffffff8211156112f6576112f661154f565b50601f01601f191660200190565b6000821982111561131757611317611523565b500190565b600060ff821660ff84168060ff0382111561133957611339611523565b019392505050565b60008261135057611350611539565b500490565b600060ff83168061136857611368611539565b8060ff84160491505092915050565b600181815b808511156113b257816000190482111561139857611398611523565b808516156113a557918102915b93841c939080029061137c565b509250929050565b600061066483836000826113d057506001610667565b816113dd57506000610667565b81600181146113f357600281146113fd57611419565b6001915050610667565b60ff84111561140e5761140e611523565b50506001821b610667565b5060208310610133831016604e8410600b841016171561143c575081810a610667565b6114468383611377565b806000190482111561145a5761145a611523565b029392505050565b600081600019048311821515161561147c5761147c611523565b500290565b600060ff821660ff84168160ff048111821515161561145a5761145a611523565b6000828210156114b4576114b4611523565b500390565b600060ff821660ff8416808210156114d3576114d3611523565b90039392505050565b60005b838110156114f75781810151838201526020016114df565b8381111561064a5750506000910152565b600060001982141561151c5761151c611523565b5060010190565b634e487b7160e01b600052601160045260246000fd5b634e487b7160e01b600052601260045260246000fd5b634e487b7160e01b600052604160045260246000fd5b6001600160a01b038116811461157a57600080fd5b5056fea2646970667358221220995c134926e22400bf713a8356665d4fdd6d20cbbde7d0e25fb5cb38a6c74d8364736f6c63430008040033",
  "immutableReferences": {},
  "source": "// SPDX-License-Identifier: MIT\npragma solidity ^0.8.0;\n\nimport \"../external/polygon/tunnel/FxBaseChildTunnel.sol\";\nimport \"../oracle/interfaces/OracleAncillaryInterface.sol\";\nimport \"../oracle/interfaces/RegistryInterface.sol\";\nimport \"./OracleBaseTunnel.sol\";\nimport \"../common/implementation/AncillaryData.sol\";\nimport \"../common/implementation/Lockable.sol\";\n\n/**\n * @title Adapter deployed on sidechain to give financial contracts the ability to trigger cross-chain price requests to\n * the mainnet DVM. Also has the ability to receive published prices from mainnet. This contract can be treated as the\n * \"DVM\" for this network, because a calling contract can request and access a resolved price request from this\n * contract.\n * @dev The intended client of this contract is an OptimisticOracle on sidechain that needs price\n * resolution secured by the DVM on mainnet.\n */\ncontract OracleChildTunnel is OracleBaseTunnel, OracleAncillaryInterface, FxBaseChildTunnel, Lockable {\n    constructor(address _fxChild, address _finderAddress)\n        OracleBaseTunnel(_finderAddress)\n        FxBaseChildTunnel(_fxChild)\n    {}\n\n    // This assumes that the local network has a Registry that resembles the mainnet registry.\n    modifier onlyRegisteredContract() {\n        RegistryInterface registry = RegistryInterface(finder.getImplementationAddress(OracleInterfaces.Registry));\n        require(registry.isContractRegistered(msg.sender), \"Caller must be registered\");\n        _;\n    }\n\n    /**\n     * @notice This should be called to bridge a price request to mainnet.\n     * @dev Can be called only by a registered contract that is allowed to make DVM price requests. Will mark this\n     * price request as Requested, and therefore able to receive the price resolution data from mainnet. Emits a message\n     * that will be included in regular checkpoint of all sidechain transactions to mainnet.\n     * @param identifier Identifier of price request.\n     * @param time Timestamp of price request.\n     * @param ancillaryData extra data of price request.\n     */\n    function requestPrice(\n        bytes32 identifier,\n        uint256 time,\n        bytes memory ancillaryData\n    ) public override nonReentrant() onlyRegisteredContract() {\n        // This implementation allows duplicate price requests to emit duplicate MessageSent events via\n        // _sendMessageToRoot. The DVM will not have a problem handling duplicate requests (it will just ignore them).\n        // This is potentially a fallback in case the checkpointing to mainnet is missing the `requestPrice` transaction\n        // for some reason. There is little risk in duplicating MessageSent emissions because the sidechain bridge\n        // does not impose any rate-limiting and this method is only callable by registered callers.\n        _requestPrice(identifier, time, _stampAncillaryData(ancillaryData, msg.sender));\n        _sendMessageToRoot(abi.encode(identifier, time, _stampAncillaryData(ancillaryData, msg.sender)));\n    }\n\n    /**\n     * @notice Resolves a price request.\n     * @dev The data will be received automatically from the state receiver when the state is synced between Ethereum\n     * and Polygon. This will revert if the Root chain sender is not the `fxRootTunnel` contract.\n     * @param sender The sender of `data` from the Root chain.\n     * @param data ABI encoded params with which to call `_publishPrice`.\n     */\n    function _processMessageFromRoot(\n        uint256, /* stateId */\n        address sender,\n        bytes memory data\n    ) internal override validateSender(sender) {\n        (bytes32 identifier, uint256 time, bytes memory ancillaryData, int256 price) =\n            abi.decode(data, (bytes32, uint256, bytes, int256));\n        _publishPrice(identifier, time, ancillaryData, price);\n    }\n\n    /**\n     * @notice Returns whether a price has resolved for the request.\n     * @param identifier Identifier of price request.\n     * @param time Timestamp of price request\n     * @param ancillaryData extra data of price request.\n     * @return True if a price is available, False otherwise. If true, then getPrice will succeed for the request.\n     */\n    function hasPrice(\n        bytes32 identifier,\n        uint256 time,\n        bytes memory ancillaryData\n    ) public view override nonReentrantView() onlyRegisteredContract() returns (bool) {\n        bytes32 priceRequestId = _encodePriceRequest(identifier, time, _stampAncillaryData(ancillaryData, msg.sender));\n        return prices[priceRequestId].state == RequestState.Resolved;\n    }\n\n    /**\n     * @notice Returns resolved price for the request.\n     * @dev Reverts if price is not available.\n     * @param identifier Identifier of price request.\n     * @param time Timestamp of price request\n     * @param ancillaryData extra data of price request.\n     * @return int256 Price, or reverts if no resolved price for any reason.\n     */\n    function getPrice(\n        bytes32 identifier,\n        uint256 time,\n        bytes memory ancillaryData\n    ) public view override nonReentrantView() onlyRegisteredContract() returns (int256) {\n        bytes32 priceRequestId = _encodePriceRequest(identifier, time, _stampAncillaryData(ancillaryData, msg.sender));\n        Price storage lookup = prices[priceRequestId];\n        require(lookup.state == RequestState.Resolved, \"Price has not been resolved\");\n        return lookup.price;\n    }\n\n    /**\n     * @notice Generates stamped ancillary data in the format that it would be used in the case of a price request.\n     * @param ancillaryData ancillary data of the price being requested.\n     * @param requester sender of the initial price request.\n     * @return the stamped ancillary bytes.\n     */\n    function stampAncillaryData(bytes memory ancillaryData, address requester)\n        public\n        view\n        nonReentrantView()\n        returns (bytes memory)\n    {\n        return _stampAncillaryData(ancillaryData, requester);\n    }\n\n    /**\n     * @dev We don't handle specifically the case where `ancillaryData` is not already readily translatable in utf8.\n     * For those cases, we assume that the client will be able to strip out the utf8-translatable part of the\n     * ancillary data that this contract stamps.\n     */\n    function _stampAncillaryData(bytes memory ancillaryData, address requester) internal view returns (bytes memory) {\n        // Price requests that originate from this method, on Polygon, will ultimately be submitted to the DVM on\n        // Ethereum via the OracleRootTunnel. Therefore this contract should stamp its requester's address in the\n        // ancillary data so voters can conveniently track the requests path to the DVM.\n        return\n            AncillaryData.appendKeyValueUint(\n                AncillaryData.appendKeyValueAddress(ancillaryData, \"childRequester\", requester),\n                \"childChainId\",\n                block.chainid\n            );\n    }\n}\n",
  "sourcePath": "/home/circleci/protocol/packages/core/contracts/polygon/OracleChildTunnel.sol",
  "compiler": {
    "name": "solc",
    "version": "0.8.4+commit.c7e474f2.Emscripten.clang"
  },
  "schemaVersion": "3.3.4",
  "updatedAt": "2021-07-16T20:27:10.139Z",
  "devdoc": {
    "details": "The intended client of this contract is an OptimisticOracle on sidechain that needs price resolution secured by the DVM on mainnet.",
    "kind": "dev",
    "methods": {
      "getPrice(bytes32,uint256,bytes)": {
        "details": "Reverts if price is not available.",
        "params": {
          "ancillaryData": "extra data of price request.",
          "identifier": "Identifier of price request.",
          "time": "Timestamp of price request"
        },
        "returns": {
          "_0": "int256 Price, or reverts if no resolved price for any reason."
        }
      },
      "hasPrice(bytes32,uint256,bytes)": {
        "params": {
          "ancillaryData": "extra data of price request.",
          "identifier": "Identifier of price request.",
          "time": "Timestamp of price request"
        },
        "returns": {
          "_0": "True if a price is available, False otherwise. If true, then getPrice will succeed for the request."
        }
      },
      "requestPrice(bytes32,uint256,bytes)": {
        "details": "Can be called only by a registered contract that is allowed to make DVM price requests. Will mark this price request as Requested, and therefore able to receive the price resolution data from mainnet. Emits a message that will be included in regular checkpoint of all sidechain transactions to mainnet.",
        "params": {
          "ancillaryData": "extra data of price request.",
          "identifier": "Identifier of price request.",
          "time": "Timestamp of price request."
        }
      },
      "stampAncillaryData(bytes,address)": {
        "params": {
          "ancillaryData": "ancillary data of the price being requested.",
          "requester": "sender of the initial price request."
        },
        "returns": {
          "_0": "the stamped ancillary bytes."
        }
      }
    },
    "title": "Adapter deployed on sidechain to give financial contracts the ability to trigger cross-chain price requests to the mainnet DVM. Also has the ability to receive published prices from mainnet. This contract can be treated as the \"DVM\" for this network, because a calling contract can request and access a resolved price request from this contract.",
    "version": 1
  },
  "userdoc": {
    "kind": "user",
    "methods": {
      "getPrice(bytes32,uint256,bytes)": {
        "notice": "Returns resolved price for the request."
      },
      "hasPrice(bytes32,uint256,bytes)": {
        "notice": "Returns whether a price has resolved for the request."
      },
      "requestPrice(bytes32,uint256,bytes)": {
        "notice": "This should be called to bridge a price request to mainnet."
      },
      "stampAncillaryData(bytes,address)": {
        "notice": "Generates stamped ancillary data in the format that it would be used in the case of a price request."
      }
    },
    "version": 1
  }
}