{
  "contractName": "BalancerMock",
  "abi": [
    {
      "inputs": [
        {
          "internalType": "address",
          "name": "tokenIn",
          "type": "address"
        },
        {
          "internalType": "address",
          "name": "tokenOut",
          "type": "address"
        }
      ],
      "name": "getSpotPriceSansFee",
      "outputs": [
        {
          "internalType": "uint256",
          "name": "spotPrice",
          "type": "uint256"
        }
      ],
      "stateMutability": "view",
      "type": "function"
    },
    {
      "inputs": [
        {
          "internalType": "uint256",
          "name": "newPrice",
          "type": "uint256"
        }
      ],
      "name": "setPrice",
      "outputs": [],
      "stateMutability": "nonpayable",
      "type": "function"
    }
  ],
  "bytecode": "0x60806040526000805534801561001457600080fd5b50610103806100246000396000f3fe6080604052348015600f57600080fd5b506004361060325760003560e01c80631446a7ff14603757806391b7f5ed14605c575b600080fd5b604a60423660046089565b505060005490565b60405190815260200160405180910390f35b606c606736600460b6565b600055565b005b80356001600160a01b0381168114608457600080fd5b919050565b60008060408385031215609a578182fd5b60a183606e565b915060ad60208401606e565b90509250929050565b60006020828403121560c6578081fd5b503591905056fea264697066735822122057140edef79f1ae8576f43df4169a8b049e77801ec81f747901f1513d28adfd564736f6c63430008040033",
  "immutableReferences": {},
  "source": "// SPDX-License-Identifier: AGPL-3.0-only\npragma solidity ^0.8.0;\n\nimport \"../interfaces/Balancer.sol\";\n\n/**\n * @title Balancer Mock\n */\ncontract BalancerMock is Balancer {\n    uint256 price = 0;\n\n    // these params arent used in the mock, but this is to maintain compatibility with balancer API\n    function getSpotPriceSansFee(address tokenIn, address tokenOut)\n        external\n        view\n        virtual\n        override\n        returns (uint256 spotPrice)\n    {\n        return price;\n    }\n\n    // this is not a balancer call, but for testing for changing price.\n    function setPrice(uint256 newPrice) external {\n        price = newPrice;\n    }\n}\n",
  "sourcePath": "/home/circleci/protocol/packages/core/contracts/common/test/BalancerMock.sol",
  "compiler": {
    "name": "solc",
    "version": "0.8.4+commit.c7e474f2.Emscripten.clang"
  },
  "schemaVersion": "3.3.4",
  "updatedAt": "2021-07-16T20:27:09.610Z",
  "devdoc": {
    "kind": "dev",
    "methods": {},
    "title": "Balancer Mock",
    "version": 1
  },
  "userdoc": {
    "kind": "user",
    "methods": {},
    "version": 1
  }
}