{
  "contractName": "BinaryOptionLongShortPairFinancialProductLibrary",
  "abi": [
    {
      "inputs": [
        {
          "internalType": "address",
          "name": "",
          "type": "address"
        }
      ],
      "name": "longShortPairParameters",
      "outputs": [
        {
          "internalType": "bool",
          "name": "isSet",
          "type": "bool"
        },
        {
          "internalType": "int256",
          "name": "strikePrice",
          "type": "int256"
        }
      ],
      "stateMutability": "view",
      "type": "function"
    },
    {
      "inputs": [
        {
          "internalType": "address",
          "name": "longShortPair",
          "type": "address"
        },
        {
          "internalType": "int256",
          "name": "strikePrice",
          "type": "int256"
        }
      ],
      "name": "setLongShortPairParameters",
      "outputs": [],
      "stateMutability": "nonpayable",
      "type": "function"
    },
    {
      "inputs": [
        {
          "internalType": "int256",
          "name": "expiryPrice",
          "type": "int256"
        }
      ],
      "name": "percentageLongCollateralAtExpiry",
      "outputs": [
        {
          "internalType": "uint256",
          "name": "",
          "type": "uint256"
        }
      ],
      "stateMutability": "view",
      "type": "function"
    }
  ],
  "bytecode": "0x608060405234801561001057600080fd5b506000805460ff191660011790556104848061002d6000396000f3fe608060405234801561001057600080fd5b50600436106100415760003560e01c80632da52361146100465780639299cbed1461006c5780639e33e2df146100b0575b600080fd5b6100596100543660046103f3565b6100c5565b6040519081526020015b60405180910390f35b61009961007a3660046103b0565b6001602081905260009182526040909120805491015460ff9091169082565b604080519215158352602083019190915201610063565b6100c36100be3660046103ca565b61017a565b005b60006100cf6102fd565b336000908152600160208181526040928390208351808501909452805460ff1615158085529201549083015261014c5760405162461bcd60e51b815260206004820152601e60248201527f506172616d73206e6f742073657420666f722063616c6c696e67204c5350000060448201526064015b60405180910390fd5b8060200151831261016b576101616001610351565b5191506101759050565b6101616000610351565b919050565b6101826102fd565b6101916000805460ff19169055565b816001600160a01b0316639f43ddd26040518163ffffffff1660e01b815260040160206040518083038186803b1580156101ca57600080fd5b505afa1580156101de573d6000803e3d6000fd5b505050506040513d601f19601f82011682018060405250810190610202919061040b565b6102445760405162461bcd60e51b8152602060048201526013602482015272496e76616c6964204c5350206164647265737360681b6044820152606401610143565b6001600160a01b03821660009081526001602052604090205460ff16156102a65760405162461bcd60e51b815260206004820152601660248201527514185c985b595d195c9cc8185b1c9958591e481cd95d60521b6044820152606401610143565b604080518082018252600180825260208083018581526001600160a01b0387166000908152918390529390209151825490151560ff1990911617825591519101556102f96000805460ff19166001179055565b5050565b60005460ff1661034f5760405162461bcd60e51b815260206004820152601f60248201527f5265656e7472616e637947756172643a207265656e7472616e742063616c6c006044820152606401610143565b565b60408051602081019091526000815260408051602081019091528061037e84670de0b6b3a7640000610386565b905292915050565b60006103928284610423565b9392505050565b80356001600160a01b038116811461017557600080fd5b6000602082840312156103c1578081fd5b61039282610399565b600080604083850312156103dc578081fd5b6103e583610399565b946020939093013593505050565b600060208284031215610404578081fd5b5035919050565b60006020828403121561041c578081fd5b5051919050565b600081600019048311821515161561044957634e487b7160e01b81526011600452602481fd5b50029056fea26469706673582212204cb500da4ea1f13fc6ad83ccb1e2e3d6d1ddcaf942b4c508f2cb2b9ebfc4bcec64736f6c63430008040033",
  "immutableReferences": {},
  "source": "// SPDX-License-Identifier: AGPL-3.0-only\npragma solidity ^0.8.0;\n\nimport \"@openzeppelin/contracts/utils/math/SafeMath.sol\";\n\nimport \"./LongShortPairFinancialProductLibrary.sol\";\nimport \"../../../../common/implementation/Lockable.sol\";\n\n/**\n * @title Binary Option Long Short Pair Financial Product Library.\n * @notice Adds settlement logic to binary option LSPs. Binary options settle with all collateral allocated to\n * either the long or short side, depending on the settlement price. They can be used to make prediction markets or any\n * kind of binary bet. Settlement is defined using a strike price which informs which side of the bet was correct. If\n * settlement price is greater or equal to the strike then all value is sent to the long side. Otherwise, all value\n * is sent to the short side. The settlement price could be a scalar (like the price of ETH) or a binary bet with\n * settlement being 0 or 1 depending on the outcome.\n */\ncontract BinaryOptionLongShortPairFinancialProductLibrary is LongShortPairFinancialProductLibrary, Lockable {\n    using FixedPoint for FixedPoint.Unsigned;\n    using SafeMath for uint256;\n\n    struct BinaryLongShortPairParameters {\n        bool isSet;\n        int256 strikePrice;\n    }\n\n    mapping(address => BinaryLongShortPairParameters) public longShortPairParameters;\n\n    /**\n     * @notice Enables any address to set the strike price for an associated binary option.\n     * @param longShortPair address of the LSP.\n     * @param strikePrice the strike price for the binary option.\n     * @dev Note: a) Any address can set the initial strike price b) A strike can be 0.\n     * c) A strike price can only be set once to prevent the deployer from changing the strike after the fact.\n     * d) For safety, a strike price should be set before depositing any synthetic tokens in a liquidity pool.\n     * e) longShortPair must expose an expirationTimestamp method to validate it is correctly deployed.\n     */\n    function setLongShortPairParameters(address longShortPair, int256 strikePrice) public nonReentrant() {\n        require(ExpiringContractInterface(longShortPair).expirationTimestamp() != 0, \"Invalid LSP address\");\n        require(!longShortPairParameters[longShortPair].isSet, \"Parameters already set\");\n\n        longShortPairParameters[longShortPair] = BinaryLongShortPairParameters({\n            isSet: true,\n            strikePrice: strikePrice\n        });\n    }\n\n    /**\n     * @notice Returns a number between 0 and 1e18 to indicate how much collateral each long and short token are entitled\n     * to per collateralPerPair.\n     * @param expiryPrice price from the optimistic oracle for the LSP price identifier.\n     * @return expiryPercentLong to indicate how much collateral should be sent between long and short tokens.\n     */\n    function percentageLongCollateralAtExpiry(int256 expiryPrice)\n        public\n        view\n        override\n        nonReentrantView()\n        returns (uint256)\n    {\n        BinaryLongShortPairParameters memory params = longShortPairParameters[msg.sender];\n        require(params.isSet, \"Params not set for calling LSP\");\n\n        if (expiryPrice >= params.strikePrice) return FixedPoint.fromUnscaledUint(1).rawValue;\n        else return FixedPoint.fromUnscaledUint(0).rawValue;\n    }\n}\n",
  "sourcePath": "/home/circleci/protocol/packages/core/contracts/financial-templates/common/financial-product-libraries/long-short-pair-libraries/BinaryOptionLongShortPairFinancialProductLibrary.sol",
  "compiler": {
    "name": "solc",
    "version": "0.8.4+commit.c7e474f2.Emscripten.clang"
  },
  "schemaVersion": "3.3.4",
  "updatedAt": "2021-07-16T20:27:09.752Z",
  "devdoc": {
    "kind": "dev",
    "methods": {
      "percentageLongCollateralAtExpiry(int256)": {
        "params": {
          "expiryPrice": "price from the optimistic oracle for the LSP price identifier."
        },
        "returns": {
          "_0": "expiryPercentLong to indicate how much collateral should be sent between long and short tokens."
        }
      },
      "setLongShortPairParameters(address,int256)": {
        "details": "Note: a) Any address can set the initial strike price b) A strike can be 0. c) A strike price can only be set once to prevent the deployer from changing the strike after the fact. d) For safety, a strike price should be set before depositing any synthetic tokens in a liquidity pool. e) longShortPair must expose an expirationTimestamp method to validate it is correctly deployed.",
        "params": {
          "longShortPair": "address of the LSP.",
          "strikePrice": "the strike price for the binary option."
        }
      }
    },
    "title": "Binary Option Long Short Pair Financial Product Library.",
    "version": 1
  },
  "userdoc": {
    "kind": "user",
    "methods": {
      "percentageLongCollateralAtExpiry(int256)": {
        "notice": "Returns a number between 0 and 1e18 to indicate how much collateral each long and short token are entitled to per collateralPerPair."
      },
      "setLongShortPairParameters(address,int256)": {
        "notice": "Enables any address to set the strike price for an associated binary option."
      }
    },
    "notice": "Adds settlement logic to binary option LSPs. Binary options settle with all collateral allocated to either the long or short side, depending on the settlement price. They can be used to make prediction markets or any kind of binary bet. Settlement is defined using a strike price which informs which side of the bet was correct. If settlement price is greater or equal to the strike then all value is sent to the long side. Otherwise, all value is sent to the short side. The settlement price could be a scalar (like the price of ETH) or a binary bet with settlement being 0 or 1 depending on the outcome.",
    "version": 1
  }
}