{
  "contractName": "FundingRateApplierTest",
  "abi": [
    {
      "inputs": [
        {
          "internalType": "bytes32",
          "name": "_fundingRateIdentifier",
          "type": "bytes32"
        },
        {
          "internalType": "address",
          "name": "_collateralAddress",
          "type": "address"
        },
        {
          "internalType": "address",
          "name": "_finderAddress",
          "type": "address"
        },
        {
          "internalType": "address",
          "name": "_configStoreAddress",
          "type": "address"
        },
        {
          "components": [
            {
              "internalType": "uint256",
              "name": "rawValue",
              "type": "uint256"
            }
          ],
          "internalType": "struct FixedPoint.Unsigned",
          "name": "_tokenScaling",
          "type": "tuple"
        },
        {
          "internalType": "address",
          "name": "_timerAddress",
          "type": "address"
        }
      ],
      "stateMutability": "nonpayable",
      "type": "constructor"
    },
    {
      "anonymous": false,
      "inputs": [
        {
          "indexed": true,
          "internalType": "uint256",
          "name": "amount",
          "type": "uint256"
        }
      ],
      "name": "FinalFeesPaid",
      "type": "event"
    },
    {
      "anonymous": false,
      "inputs": [
        {
          "indexed": false,
          "internalType": "int256",
          "name": "newFundingRate",
          "type": "int256"
        },
        {
          "indexed": true,
          "internalType": "uint256",
          "name": "updateTime",
          "type": "uint256"
        },
        {
          "indexed": false,
          "internalType": "uint256",
          "name": "reward",
          "type": "uint256"
        }
      ],
      "name": "FundingRateUpdated",
      "type": "event"
    },
    {
      "anonymous": false,
      "inputs": [
        {
          "indexed": true,
          "internalType": "uint256",
          "name": "regularFee",
          "type": "uint256"
        },
        {
          "indexed": true,
          "internalType": "uint256",
          "name": "lateFee",
          "type": "uint256"
        }
      ],
      "name": "RegularFeesPaid",
      "type": "event"
    },
    {
      "inputs": [],
      "name": "applyFundingRate",
      "outputs": [],
      "stateMutability": "nonpayable",
      "type": "function"
    },
    {
      "inputs": [],
      "name": "collateralCurrency",
      "outputs": [
        {
          "internalType": "contract IERC20",
          "name": "",
          "type": "address"
        }
      ],
      "stateMutability": "view",
      "type": "function"
    },
    {
      "inputs": [],
      "name": "configStore",
      "outputs": [
        {
          "internalType": "contract ConfigStoreInterface",
          "name": "",
          "type": "address"
        }
      ],
      "stateMutability": "view",
      "type": "function"
    },
    {
      "inputs": [],
      "name": "cumulativeFeeMultiplier",
      "outputs": [
        {
          "internalType": "uint256",
          "name": "rawValue",
          "type": "uint256"
        }
      ],
      "stateMutability": "view",
      "type": "function"
    },
    {
      "inputs": [],
      "name": "emergencyShutdownTimestamp",
      "outputs": [
        {
          "internalType": "uint256",
          "name": "",
          "type": "uint256"
        }
      ],
      "stateMutability": "view",
      "type": "function"
    },
    {
      "inputs": [],
      "name": "finder",
      "outputs": [
        {
          "internalType": "contract FinderInterface",
          "name": "",
          "type": "address"
        }
      ],
      "stateMutability": "view",
      "type": "function"
    },
    {
      "inputs": [],
      "name": "fundingRate",
      "outputs": [
        {
          "components": [
            {
              "internalType": "int256",
              "name": "rawValue",
              "type": "int256"
            }
          ],
          "internalType": "struct FixedPoint.Signed",
          "name": "rate",
          "type": "tuple"
        },
        {
          "internalType": "bytes32",
          "name": "identifier",
          "type": "bytes32"
        },
        {
          "components": [
            {
              "internalType": "uint256",
              "name": "rawValue",
              "type": "uint256"
            }
          ],
          "internalType": "struct FixedPoint.Unsigned",
          "name": "cumulativeMultiplier",
          "type": "tuple"
        },
        {
          "internalType": "uint256",
          "name": "updateTime",
          "type": "uint256"
        },
        {
          "internalType": "uint256",
          "name": "applicationTime",
          "type": "uint256"
        },
        {
          "internalType": "uint256",
          "name": "proposalTime",
          "type": "uint256"
        }
      ],
      "stateMutability": "view",
      "type": "function"
    },
    {
      "inputs": [],
      "name": "getCurrentTime",
      "outputs": [
        {
          "internalType": "uint256",
          "name": "",
          "type": "uint256"
        }
      ],
      "stateMutability": "view",
      "type": "function"
    },
    {
      "inputs": [
        {
          "internalType": "uint256",
          "name": "time",
          "type": "uint256"
        }
      ],
      "name": "getOutstandingRegularFees",
      "outputs": [
        {
          "components": [
            {
              "internalType": "uint256",
              "name": "rawValue",
              "type": "uint256"
            }
          ],
          "internalType": "struct FixedPoint.Unsigned",
          "name": "regularFee",
          "type": "tuple"
        },
        {
          "components": [
            {
              "internalType": "uint256",
              "name": "rawValue",
              "type": "uint256"
            }
          ],
          "internalType": "struct FixedPoint.Unsigned",
          "name": "latePenalty",
          "type": "tuple"
        },
        {
          "components": [
            {
              "internalType": "uint256",
              "name": "rawValue",
              "type": "uint256"
            }
          ],
          "internalType": "struct FixedPoint.Unsigned",
          "name": "totalPaid",
          "type": "tuple"
        }
      ],
      "stateMutability": "view",
      "type": "function"
    },
    {
      "inputs": [],
      "name": "gulp",
      "outputs": [],
      "stateMutability": "nonpayable",
      "type": "function"
    },
    {
      "inputs": [],
      "name": "payRegularFees",
      "outputs": [
        {
          "components": [
            {
              "internalType": "uint256",
              "name": "rawValue",
              "type": "uint256"
            }
          ],
          "internalType": "struct FixedPoint.Unsigned",
          "name": "",
          "type": "tuple"
        }
      ],
      "stateMutability": "nonpayable",
      "type": "function"
    },
    {
      "inputs": [],
      "name": "pfc",
      "outputs": [
        {
          "components": [
            {
              "internalType": "uint256",
              "name": "rawValue",
              "type": "uint256"
            }
          ],
          "internalType": "struct FixedPoint.Unsigned",
          "name": "",
          "type": "tuple"
        }
      ],
      "stateMutability": "view",
      "type": "function"
    },
    {
      "inputs": [
        {
          "components": [
            {
              "internalType": "int256",
              "name": "rawValue",
              "type": "int256"
            }
          ],
          "internalType": "struct FixedPoint.Signed",
          "name": "rate",
          "type": "tuple"
        },
        {
          "internalType": "uint256",
          "name": "timestamp",
          "type": "uint256"
        }
      ],
      "name": "proposeFundingRate",
      "outputs": [
        {
          "components": [
            {
              "internalType": "uint256",
              "name": "rawValue",
              "type": "uint256"
            }
          ],
          "internalType": "struct FixedPoint.Unsigned",
          "name": "totalBond",
          "type": "tuple"
        }
      ],
      "stateMutability": "nonpayable",
      "type": "function"
    },
    {
      "inputs": [
        {
          "internalType": "uint256",
          "name": "time",
          "type": "uint256"
        }
      ],
      "name": "setCurrentTime",
      "outputs": [],
      "stateMutability": "nonpayable",
      "type": "function"
    },
    {
      "inputs": [],
      "name": "timerAddress",
      "outputs": [
        {
          "internalType": "address",
          "name": "",
          "type": "address"
        }
      ],
      "stateMutability": "view",
      "type": "function"
    },
    {
      "inputs": [
        {
          "internalType": "uint256",
          "name": "paymentPeriodSeconds",
          "type": "uint256"
        },
        {
          "components": [
            {
              "internalType": "int256",
              "name": "rawValue",
              "type": "int256"
            }
          ],
          "internalType": "struct FixedPoint.Signed",
          "name": "fundingRatePerSecond",
          "type": "tuple"
        },
        {
          "components": [
            {
              "internalType": "uint256",
              "name": "rawValue",
              "type": "uint256"
            }
          ],
          "internalType": "struct FixedPoint.Unsigned",
          "name": "currentCumulativeFundingRateMultiplier",
          "type": "tuple"
        }
      ],
      "name": "calculateEffectiveFundingRate",
      "outputs": [
        {
          "components": [
            {
              "internalType": "uint256",
              "name": "rawValue",
              "type": "uint256"
            }
          ],
          "internalType": "struct FixedPoint.Unsigned",
          "name": "",
          "type": "tuple"
        }
      ],
      "stateMutability": "pure",
      "type": "function"
    },
    {
      "inputs": [],
      "name": "emergencyShutdown",
      "outputs": [],
      "stateMutability": "nonpayable",
      "type": "function"
    },
    {
      "inputs": [],
      "name": "remargin",
      "outputs": [],
      "stateMutability": "nonpayable",
      "type": "function"
    }
  ],
  "bytecode": "0x60806040523480156200001157600080fd5b50604051620028473803806200284783398101604081905262000034916200022c565b60008055600180546001600160a81b0319166001600160a01b0380841691909117600160a01b17909155600280548288166001600160a01b0319918216179091556003805492871692909116919091179055858585858585848482620000996200010d565b600481905550620000b66001620001b660201b62000a331760201c565b516005555060009150620000cb90506200010d565b6009819055600a555050516008556007939093555050600c80546001600160a01b0319166001600160a01b039092169190911790555062000327945050505050565b6001546000906001600160a01b031615620001b157600160009054906101000a90046001600160a01b03166001600160a01b03166329cb924d6040518163ffffffff1660e01b815260040160206040518083038186803b1580156200017157600080fd5b505afa15801562000186573d6000803e3d6000fd5b505050506040513d601f19601f82011682018060405250810190620001ac9190620002e2565b905090565b504290565b6040805160208101909152600081526040518060200160405280620001f2670de0b6b3a764000085620001fa60201b62000a681790919060201c565b905292915050565b6000620002088284620002fb565b9392505050565b80516001600160a01b03811681146200022757600080fd5b919050565b60008060008060008086880360c081121562000246578283fd5b8751965062000258602089016200020f565b955062000268604089016200020f565b945062000278606089016200020f565b93506020607f19820112156200028c578283fd5b50604051602081016001600160401b0381118282101715620002bc57634e487b7160e01b84526041600452602484fd5b604052608088015181529150620002d660a088016200020f565b90509295509295509295565b600060208284031215620002f4578081fd5b5051919050565b60008160001904831182151516156200032257634e487b7160e01b81526011600452602481fd5b500290565b61251080620003376000396000f3fe608060405234801561001057600080fd5b50600436106101165760003560e01c806371f3c1b7116100a25780639e4efaa0116100715780639e4efaa01461024e578063b9a3c84c1461027d578063bda02e7714610171578063c8aa07bd14610290578063dd0eef3d146102a357600080fd5b806371f3c1b71461022357806381a10ae11461022b57806394909e62146102335780639d69dc4e1461023b57600080fd5b80633403c2fc116100e95780633403c2fc1461017157806334c49556146101895780633cb6ce83146101ab57806341d3c84c146101b35780636cf1be291461021a57600080fd5b80630de15fd91461011b5780631c39c38d1461014b57806322f8e5661461015e57806329cb924d14610173575b600080fd5b60025461012e906001600160a01b031681565b6040516001600160a01b0390911681526020015b60405180910390f35b60015461012e906001600160a01b031681565b61017161016c366004611e95565b6102ad565b005b61017b610323565b604051908152602001610142565b61019c610197366004611e37565b6103cc565b60405190518152602001610142565b61019c610699565b6040805160208082018352600654825260075483519182019093526008548152600954600a54600b546101e7959392919086565b604080519651875260208701959095529251938501939093526060840152608083019190915260a082015260c001610142565b61017b60005481565b610171610821565b61019c610854565b610171610873565b600c5461012e906001600160a01b031681565b61026161025c366004611e95565b610895565b6040805193518452915160208401525190820152606001610142565b60035461012e906001600160a01b031681565b61019c61029e366004611ead565b610a0f565b60055461017b9081565b6001546001600160a01b03166102c257600080fd5b60015460405163117c72b360e11b8152600481018390526001600160a01b03909116906322f8e56690602401600060405180830381600087803b15801561030857600080fd5b505af115801561031c573d6000803e3d6000fd5b5050505050565b6001546000906001600160a01b0316156103c257600160009054906101000a90046001600160a01b03166001600160a01b03166329cb924d6040518163ffffffff1660e01b815260040160206040518083038186803b15801561038557600080fd5b505afa158015610399573d6000803e3d6000fd5b505050506040513d601f19601f820116820180604052508101906103bd9190611cc0565b905090565b504290565b90565b565b6040805160208101909152600081526103e3610821565b6103eb610a74565b6103fd6001805460ff60a01b19169055565b600b541561040a57600080fd5b61041383610ad2565b600061041d610323565b60095490915080841180156104475750610443610438610b13565b60a001518390610ba3565b8410155b61045057600080fd5b600b849055600061045f610baf565b600754909150600061046f610c3f565b6002546040516311df92f160e01b81529192506001600160a01b03808616926311df92f1926104ab9287928d92889216906000906004016120ba565b602060405180830381600087803b1580156104c557600080fd5b505af11580156104d9573d6000803e3d6000fd5b505050506040513d601f19601f820116820180604052508101906104fd9190611cc0565b506040518060200160405280846001600160a01b031663ad5a755a858b86610538610526610b13565b60400151610532610c90565b90610d2b565b516040516001600160e01b031960e087901b16815261055d94939291906004016120f6565b602060405180830381600087803b15801561057757600080fd5b505af115801561058b573d6000803e3d6000fd5b505050506040513d601f19601f820116820180604052508101906105af9190611cc0565b905295506105be866000610d71565b156105fd5785516002546105e1916001600160a01b039091169033903090610d88565b85516002546105fd916001600160a01b03909116908590610df9565b8751604051637c82288f60e01b81526001600160a01b03851691637c82288f91610633913391309188918e91899160040161200e565b602060405180830381600087803b15801561064d57600080fd5b505af1158015610661573d6000803e3d6000fd5b505050506040513d601f19601f820116820180604052508101906106859190611cc0565b505050505050610693610eba565b92915050565b6040805160208101909152600081526106b0610a74565b6106c26001805460ff60a01b19169055565b60006106cc610323565b905060006106d8610c90565b905060008060006106e885610895565b6004889055919450925090506106ff816000610ecf565b156107105794506108199350505050565b815183516040517f19b92e73d08d517d71ec46136266e4f5d526a8cd4f8501d73713cebfe4f335ef90600090a36107478185610ee6565b610752836000610d71565b156107e6576000610761610f2a565b845160025491925061077e916001600160a01b0316908390610df9565b60025460405163432ce91960e11b81526001600160a01b0391821660048201528551602482015290821690638659d23290604401600060405180830381600087803b1580156107cc57600080fd5b505af11580156107e0573d6000803e3d6000fd5b50505050505b6107f1826000610d71565b15610812578151600254610812916001600160a01b03909116903390610f63565b9450505050505b6103c7610eba565b610829610699565b50610832610a74565b6108446001805460ff60a01b19169055565b61084c610f98565b6103ca610eba565b60408051602081019091526000815261086b610a74565b6103bd610c90565b61087b610a74565b61088d6001805460ff60a01b19169055565b61084c610ffd565b60408051602081019091526000815260408051602081019091526000815260408051602081019091526000815260006108cc610f2a565b905060006108d8610c90565b90506108e5816000610ecf565b806108f1575085600454145b156108fd575050610a08565b600480546040516374201feb60e01b81529182015260248101879052815160448201526001600160a01b038316906374201feb90606401604080518083038186803b15801561094b57600080fd5b505afa15801561095f573d6000803e3d6000fd5b505050506040513d601f19601f820116820180604052508101906109839190611e61565b909550935061099285856110bd565b925061099f836000610ecf565b156109ab575050610a08565b805183511115610a055760006109c184836110e7565b905060006109cf8683611111565b90506109db86826110e7565b95506109e782826110e7565b91506109fd6109f68884611111565b88906110e7565b965082945050505b50505b9193909250565b604080516020810190915260008152610a29848484611136565b90505b9392505050565b604080516020810190915260008152604080516020810190915280610a6084670de0b6b3a7640000610a68565b905292915050565b6000610a2c82846123c4565b600154600160a01b900460ff166103ca5760405162461bcd60e51b815260206004820152601f60248201527f5265656e7472616e637947756172643a207265656e7472616e742063616c6c0060448201526064015b60405180910390fd5b610ae9610add610b13565b60600151518251131590565b8015610b075750610b07610afb610b13565b60800151518251121590565b610b1057600080fd5b50565b610b1b611ba3565b600c60009054906101000a90046001600160a01b03166001600160a01b031663145701f86040518163ffffffff1660e01b815260040160c060405180830381600087803b158015610b6b57600080fd5b505af1158015610b7f573d6000803e3d6000fd5b505050506040513d601f19601f820116820180604052508101906103bd9190611cd8565b6000610a2c8284612404565b6003546040516302abf57960e61b81526f4f7074696d69737469634f7261636c6560801b60048201526000916001600160a01b03169063aafd5e40906024015b60206040518083038186803b158015610c0757600080fd5b505afa158015610c1b573d6000803e3d6000fd5b505050506040513d601f19601f820116820180604052508101906103bd9190611c8a565b60606103bd604051806020016040528060008152506040518060400160405280600c81526020016b746f6b656e4164647265737360a01b815250610c8b6002546001600160a01b031690565b6111ad565b6040805160208101909152600081526040805160208101918290526002546370a0823160e01b9092523060248201529081906001600160a01b03166370a082316044830160206040518083038186803b158015610cec57600080fd5b505afa158015610d00573d6000803e3d6000fd5b505050506040513d601f19601f82011682018060405250810190610d249190611cc0565b9052919050565b6040805160208101909152600081526040805160208101909152825184518291670de0b6b3a764000091610d5e91610a68565b610d689190612220565b90529392505050565b6000610d7c82610a33565b51835111905092915050565b6040516001600160a01b0380851660248301528316604482015260648101829052610df39085906323b872dd60e01b906084015b60408051601f198184030181529190526020810180516001600160e01b03166001600160e01b0319909316929092179091526111f3565b50505050565b604051636eb1769f60e11b81523060048201526001600160a01b038381166024830152600091839186169063dd62ed3e9060440160206040518083038186803b158015610e4557600080fd5b505afa158015610e59573d6000803e3d6000fd5b505050506040513d601f19601f82011682018060405250810190610e7d9190611cc0565b610e8791906121e3565b6040516001600160a01b038516602482015260448101829052909150610df390859063095ea7b360e01b90606401610dbc565b6001805460ff60a01b1916600160a01b179055565b6000610eda82610a33565b51835114905092915050565b6000610ef283836112c5565b9050610f21610f0b82610f056001610a33565b906110e7565b6040805160208101909152600554815290610d2b565b51600555505050565b6003546040516302abf57960e61b81526453746f726560d81b60048201526000916001600160a01b03169063aafd5e4090602401610bef565b6040516001600160a01b038316602482015260448101829052610f9390849063a9059cbb60e01b90606401610dbc565b505050565b60005415610fa257565b6000610fac610323565b600a54909150600090610fc0908390610ba3565b9050610fca611354565b6040805160208082018352600654825282519081019092526008548252610ff391839190611136565b5160085550600a55565b6000611007610c90565b6040805160208101918290526002546370a0823160e01b9092523060248201529192506000919081906001600160a01b03166370a082316044830160206040518083038186803b15801561105a57600080fd5b505afa15801561106e573d6000803e3d6000fd5b505050506040513d601f19601f820116820180604052508101906110929190611cc0565b905290506110a282825190511090565b156110b9576110b4610f0b828461163e565b516005555b5050565b6040805160208101909152600081526040805160208101909152825184518291610d68919061167a565b6040805160208101909152600081526040805160208101909152825184518291610d689190610ba3565b604080516020810190915260008152815183511061112f5781610a2c565b5090919050565b60408051602081019091526000815260006111516001611686565b90506000611168611161876116b3565b869061171d565b905060006111768383611745565b905060006111956111908361118b6000611686565b61176f565b61178d565b90506111a18682610d2b565b98975050505050505050565b606060006111bb85856117fb565b905084816111c88561183d565b6040516020016111da93929190611f72565b6040516020818303038152906040529150509392505050565b6000611248826040518060400160405280602081526020017f5361666545524332303a206c6f772d6c6576656c2063616c6c206661696c6564815250856001600160a01b03166119a09092919063ffffffff16565b805190915015610f9357808060200190518101906112669190611ca6565b610f935760405162461bcd60e51b815260206004820152602a60248201527f5361666545524332303a204552433230206f7065726174696f6e20646964206e6044820152691bdd081cdd58d8d9595960b21b6064820152608401610ac9565b6040805160208101909152600080825283516112e990670de0b6b3a7640000610a68565b83519091506000906112fc9083906119af565b845190915060009061130f9084906119bb565b9050801561133b5760408051602081019091528061132e84600161167a565b8152509350505050610693565b6040518060200160405280838152509350505050610693565b600b548015610b10576000611367610baf565b6007549091506000611377610c3f565b6040516353b5923960e01b81529091506001600160a01b038416906353b59239906113aa90859088908690600401612092565b602060405180830381600087803b1580156113c457600080fd5b505af19250505080156113f4575060408051601f3d908101601f191682019092526113f191810190611cc0565b60015b6114b55760405163a9904f9b60e01b81526000906001600160a01b0385169063a9904f9b9061142d90309087908a90889060040161205b565b6101806040518083038186803b15801561144657600080fd5b505afa15801561145a573d6000803e3d6000fd5b505050506040513d601f19601f8201168201806040525081019061147e9190611d7b565b60208101519091506001600160a01b03161515806114a4575080516001600160a01b0316155b156114af576000600b555b50610df3565b6009548086106116315760408051602081019091528290526006829055600986905560006114e281610a33565b90506000866001600160a01b031663a9904f9b30888b896040518563ffffffff1660e01b8152600401611518949392919061205b565b6101806040518083038186803b15801561153157600080fd5b505afa158015611545573d6000803e3d6000fd5b505050506040513d601f19601f820116820180604052508101906115699190611d7b565b60208101519091506001600160a01b03166115e7576115a861158b8985610ba3565b6115a2611596610b13565b60200151610532610c90565b906119c7565b91506115b5826000610d71565b156115e7576115cb826115c6610c90565b610ee6565b805182516002546115e7926001600160a01b0390911691610f63565b60095460065483516040517fee568d08fdf25d8d2f01948f7ba3dc157176924ef7312d148584409333f0d8cd9261162692908252602082015260400190565b60405180910390a250505b50506000600b5550505050565b6040805160208101909152600081526040805160208101909152825184518291610d689161167490670de0b6b3a7640000610a68565b906119af565b6000610a2c82846121e3565b604080516020810190915260008152604080516020810190915280610a6084670de0b6b3a76400006119ef565b6000600160ff1b82106117195760405162461bcd60e51b815260206004820152602860248201527f53616665436173743a2076616c756520646f65736e27742066697420696e2061604482015267371034b73a191a9b60c11b6064820152608401610ac9565b5090565b604080516020810190915260008152604080516020810190915283518190610d6890856119ef565b6040805160208101909152600081526040805160208101909152825184518291610d6891906119fb565b604080516020810190915260008152815183511361112f5781610a2c565b6040805160208101909152600081528151600013156117e85760405162461bcd60e51b8152602060048201526017602482015276139959d85d1a5d99481d985b1d59481c1c9bdd9a591959604a1b6044820152606401610ac9565b5060408051602081019091529051815290565b81516060901561182c57816040516020016118169190611fda565b6040516020818303038152906040529050610693565b816040516020016118169190611fb5565b60408051602880825260608281019093526000919060208201818036833701905050905060005b601481101561199957600061187a826013612404565b6118859060086123c4565b611890906002612299565b6118a3906001600160a01b038716612220565b60f81b9050600060108260f81c6118ba9190612234565b60f81b905060008160f81c60106118d191906123e3565b8360f81c6118df919061241b565b60f81b90506118ed82611a07565b856118f98660026123c4565b8151811061191757634e487b7160e01b600052603260045260246000fd5b60200101906001600160f81b031916908160001a90535061193781611a07565b856119438660026123c4565b61194e9060016121e3565b8151811061196c57634e487b7160e01b600052603260045260246000fd5b60200101906001600160f81b031916908160001a90535050505080806119919061246a565b915050611864565b5092915050565b6060610a298484600085611a42565b6000610a2c8284612220565b6000610a2c8284612485565b604080516020810190915260008152604080516020810190915283518190610d689085610a68565b6000610a2c8284612341565b6000610a2c82846121a2565b6000600a60f883901c1015611a2e57611a2560f883901c60306121fb565b60f81b92915050565b611a2560f883901c60576121fb565b919050565b606082471015611aa35760405162461bcd60e51b815260206004820152602660248201527f416464726573733a20696e73756666696369656e742062616c616e636520666f6044820152651c8818d85b1b60d21b6064820152608401610ac9565b843b611af15760405162461bcd60e51b815260206004820152601d60248201527f416464726573733a2063616c6c20746f206e6f6e2d636f6e74726163740000006044820152606401610ac9565b600080866001600160a01b03168587604051611b0d9190611f56565b60006040518083038185875af1925050503d8060008114611b4a576040519150601f19603f3d011682016040523d82523d6000602084013e611b4f565b606091505b5091509150611b5f828286611b6a565b979650505050505050565b60608315611b79575081610a2c565b825115611b895782518084602001fd5b8160405162461bcd60e51b8152600401610ac99190612126565b6040518060c0016040528060008152602001611bcb6040518060200160405280600081525090565b8152602001611be66040518060200160405280600081525090565b8152602001611c016040518060200160405280600081525090565b8152602001611c1c6040518060200160405280600081525090565b8152602001600081525090565b8051611a3d816124c5565b80518015158114611a3d57600080fd5b600060208284031215611c55578081fd5b611c5d612139565b9135825250919050565b600060208284031215611c78578081fd5b611c80612139565b9151825250919050565b600060208284031215611c9b578081fd5b8151610a2c816124c5565b600060208284031215611cb7578081fd5b610a2c82611c34565b600060208284031215611cd1578081fd5b5051919050565b600060c08284031215611ce9578081fd5b60405160c0810181811067ffffffffffffffff82111715611d1857634e487b7160e01b83526041600452602483fd5b60405282518152611d2c8460208501611c67565b6020820152611d3e8460408501611c67565b6040820152611d508460608501611c67565b6060820152611d628460808501611c67565b608082015260a083015160a08201528091505092915050565b60006101808284031215611d8d578081fd5b611d95612170565b611d9e83611c29565b8152611dac60208401611c29565b6020820152611dbd60408401611c29565b6040820152611dce60608401611c34565b6060820152611ddf60808401611c34565b608082015260a0838101519082015260c0808401519082015260e08084015190820152610100808401519082015261012080840151908201526101408084015190820152610160928301519281019290925250919050565b60008060408385031215611e49578081fd5b611e538484611c44565b946020939093013593505050565b60008060408385031215611e73578182fd5b611e7d8484611c67565b9150611e8c8460208501611c67565b90509250929050565b600060208284031215611ea6578081fd5b5035919050565b60008060008385036060811215611ec2578182fd5b84359350611ed38660208701611c44565b92506020603f1982011215611ee6578182fd5b506040516020810181811067ffffffffffffffff82111715611f1657634e487b7160e01b83526041600452602483fd5b604090815294909401358452509093909250565b60008151808452611f4281602086016020860161243e565b601f01601f19169290920160200192915050565b60008251611f6881846020870161243e565b9190910192915050565b60008451611f8481846020890161243e565b845190830190611f9881836020890161243e565b8451910190611fab81836020880161243e565b0195945050505050565b60008251611fc781846020870161243e565b601d60f91b920191825250600101919050565b600b60fa1b815260008251611ff681600185016020870161243e565b601d60f91b6001939091019283015250600201919050565b6001600160a01b03878116825286166020820152604081018590526060810184905260c06080820181905260009061204890830185611f2a565b90508260a0830152979650505050505050565b60018060a01b03851681528360208201528260408201526080606082015260006120886080830184611f2a565b9695505050505050565b8381528260208201526060604082015260006120b16060830184611f2a565b95945050505050565b85815284602082015260a0604082015260006120d960a0830186611f2a565b6001600160a01b0394909416606083015250608001529392505050565b8481528360208201526080604082015260006121156080830185611f2a565b905082606083015295945050505050565b602081526000610a2c6020830184611f2a565b6040516020810167ffffffffffffffff8111828210171561216a57634e487b7160e01b600052604160045260246000fd5b60405290565b604051610180810167ffffffffffffffff8111828210171561216a57634e487b7160e01b600052604160045260246000fd5b600080821280156001600160ff1b03849003851316156121c4576121c4612499565b600160ff1b83900384128116156121dd576121dd612499565b50500190565b600082198211156121f6576121f6612499565b500190565b600060ff821660ff84168060ff0382111561221857612218612499565b019392505050565b60008261222f5761222f6124af565b500490565b600060ff831680612247576122476124af565b8060ff84160491505092915050565b600181815b8085111561229157816000190482111561227757612277612499565b8085161561228457918102915b93841c939080029061225b565b509250929050565b6000610a2c83836000826122af57506001610693565b816122bc57506000610693565b81600181146122d257600281146122dc576122f8565b6001915050610693565b60ff8411156122ed576122ed612499565b50506001821b610693565b5060208310610133831016604e8410600b841016171561231b575081810a610693565b6123258383612256565b806000190482111561233957612339612499565b029392505050565b60006001600160ff1b038184138284138082168684048611161561236757612367612499565b600160ff1b8487128281168783058912161561238557612385612499565b8587129250878205871284841616156123a0576123a0612499565b878505871281841616156123b6576123b6612499565b505050929093029392505050565b60008160001904831182151516156123de576123de612499565b500290565b600060ff821660ff84168160ff048111821515161561233957612339612499565b60008282101561241657612416612499565b500390565b600060ff821660ff84168082101561243557612435612499565b90039392505050565b60005b83811015612459578181015183820152602001612441565b83811115610df35750506000910152565b600060001982141561247e5761247e612499565b5060010190565b600082612494576124946124af565b500690565b634e487b7160e01b600052601160045260246000fd5b634e487b7160e01b600052601260045260246000fd5b6001600160a01b0381168114610b1057600080fdfea2646970667358221220eddca6e41bd0c77ec363295b60bb0b87f899e14722f1ac0223042ea16065410064736f6c63430008040033",
  "immutableReferences": {},
  "source": "// SPDX-License-Identifier: AGPL-3.0-only\npragma solidity ^0.8.0;\n\nimport \"../common/FundingRateApplier.sol\";\nimport \"../../common/implementation/FixedPoint.sol\";\n\n// Implements FundingRateApplier internal methods to enable unit testing.\ncontract FundingRateApplierTest is FundingRateApplier {\n    constructor(\n        bytes32 _fundingRateIdentifier,\n        address _collateralAddress,\n        address _finderAddress,\n        address _configStoreAddress,\n        FixedPoint.Unsigned memory _tokenScaling,\n        address _timerAddress\n    )\n        FundingRateApplier(\n            _fundingRateIdentifier,\n            _collateralAddress,\n            _finderAddress,\n            _configStoreAddress,\n            _tokenScaling,\n            _timerAddress\n        )\n    {}\n\n    function calculateEffectiveFundingRate(\n        uint256 paymentPeriodSeconds,\n        FixedPoint.Signed memory fundingRatePerSecond,\n        FixedPoint.Unsigned memory currentCumulativeFundingRateMultiplier\n    ) public pure returns (FixedPoint.Unsigned memory) {\n        return\n            _calculateEffectiveFundingRate(\n                paymentPeriodSeconds,\n                fundingRatePerSecond,\n                currentCumulativeFundingRateMultiplier\n            );\n    }\n\n    // Required overrides.\n    function _pfc() internal view virtual override returns (FixedPoint.Unsigned memory currentPfc) {\n        return FixedPoint.Unsigned(collateralCurrency.balanceOf(address(this)));\n    }\n\n    function emergencyShutdown() external override {}\n\n    function remargin() external override {}\n\n    function _getTokenAddress() internal view override returns (address) {\n        return address(collateralCurrency);\n    }\n}\n",
  "sourcePath": "/home/circleci/protocol/packages/core/contracts/financial-templates/test/FundingRateApplierTest.sol",
  "compiler": {
    "name": "solc",
    "version": "0.8.4+commit.c7e474f2.Emscripten.clang"
  },
  "schemaVersion": "3.3.4",
  "updatedAt": "2021-07-16T20:27:09.945Z",
  "devdoc": {
    "kind": "dev",
    "methods": {
      "getCurrentTime()": {
        "returns": {
          "_0": "uint for the current Testable timestamp."
        }
      },
      "getOutstandingRegularFees(uint256)": {
        "details": "This returns 0 and exit early if there is no pfc, fees were already paid during the current block, or the fee rate is 0.",
        "returns": {
          "latePenalty": "outstanding unpaid late fee for being late in previous fee payments.",
          "regularFee": "outstanding unpaid regular fee.",
          "totalPaid": "Amount of collateral that the contract paid (sum of the amount paid to the Store and caller)."
        }
      },
      "gulp()": {
        "details": "Multiplying the `cumulativeFeeMultiplier` by the ratio of non-PfC-collateral :: PfC-collateral effectively pays all sponsors a pro-rata portion of the excess collateral.This will revert if PfC is 0 and this contract's collateral balance > 0."
      },
      "payRegularFees()": {
        "details": "These must be paid periodically for the life of the contract. If the contract has not paid its regular fee in a week or more then a late penalty is applied which is sent to the caller. If the amount of fees owed are greater than the pfc, then this will pay as much as possible from the available collateral. An event is only fired if the fees charged are greater than 0.",
        "returns": {
          "_0": "totalPaid Amount of collateral that the contract paid (sum of the amount paid to the Store and caller). This returns 0 and exit early if there is no pfc, fees were already paid during the current block, or the fee rate is 0."
        }
      },
      "pfc()": {
        "details": "This is equivalent to the collateral pool available from which to pay fees. Therefore, derived contracts are expected to implement this so that pay-fee methods can correctly compute the owed fees as a % of PfC.",
        "returns": {
          "_0": "pfc value for equal to the current profit from corruption denominated in collateral currency."
        }
      },
      "proposeFundingRate((int256),uint256)": {
        "params": {
          "rate": "funding rate being proposed.",
          "timestamp": "time at which the funding rate was computed."
        }
      },
      "remargin()": {
        "details": "It pays fees and moves money between margin accounts to make sure they reflect the NAV of the contract."
      },
      "setCurrentTime(uint256)": {
        "details": "Will revert if not running in test mode.",
        "params": {
          "time": "timestamp to set current Testable time to."
        }
      }
    },
    "version": 1
  },
  "userdoc": {
    "kind": "user",
    "methods": {
      "applyFundingRate()": {
        "notice": "This method takes 3 distinct actions: 1. Pays out regular fees. 2. If possible, resolves the outstanding funding rate proposal, pulling the result in and paying out the rewards. 3. Applies the prevailing funding rate over the most recent period."
      },
      "emergencyShutdown()": {
        "notice": "Initiates the shutdown process, in case of an emergency."
      },
      "getCurrentTime()": {
        "notice": "Gets the current time. Will return the last time set in `setCurrentTime` if running in test mode. Otherwise, it will return the block timestamp."
      },
      "getOutstandingRegularFees(uint256)": {
        "notice": "Fetch any regular fees that the contract has pending but has not yet paid. If the fees to be paid are more than the total collateral within the contract then the totalPaid returned is full contract collateral amount."
      },
      "gulp()": {
        "notice": "Removes excess collateral balance not counted in the PfC by distributing it out pro-rata to all sponsors."
      },
      "payRegularFees()": {
        "notice": "Pays UMA DVM regular fees (as a % of the collateral pool) to the Store contract."
      },
      "pfc()": {
        "notice": "Gets the current profit from corruption for this contract in terms of the collateral currency."
      },
      "proposeFundingRate((int256),uint256)": {
        "notice": "Proposes a new funding rate. Proposer receives a reward if correct."
      },
      "remargin()": {
        "notice": "A core contract method called independently or as a part of other financial contract transactions."
      },
      "setCurrentTime(uint256)": {
        "notice": "Sets the current time."
      }
    },
    "version": 1
  }
}