{
  "contractName": "FxRootMock",
  "abi": [
    {
      "inputs": [
        {
          "internalType": "address",
          "name": "_stateSender",
          "type": "address"
        }
      ],
      "stateMutability": "nonpayable",
      "type": "constructor"
    },
    {
      "inputs": [],
      "name": "fxChild",
      "outputs": [
        {
          "internalType": "address",
          "name": "",
          "type": "address"
        }
      ],
      "stateMutability": "view",
      "type": "function"
    },
    {
      "inputs": [],
      "name": "stateSender",
      "outputs": [
        {
          "internalType": "contract IStateSender",
          "name": "",
          "type": "address"
        }
      ],
      "stateMutability": "view",
      "type": "function"
    },
    {
      "inputs": [
        {
          "internalType": "address",
          "name": "_fxChild",
          "type": "address"
        }
      ],
      "name": "setFxChild",
      "outputs": [],
      "stateMutability": "nonpayable",
      "type": "function"
    },
    {
      "inputs": [
        {
          "internalType": "address",
          "name": "_receiver",
          "type": "address"
        },
        {
          "internalType": "bytes",
          "name": "_data",
          "type": "bytes"
        }
      ],
      "name": "sendMessageToChild",
      "outputs": [],
      "stateMutability": "nonpayable",
      "type": "function"
    }
  ],
  "bytecode": "0x608060405234801561001057600080fd5b506040516103b83803806103b883398101604081905261002f91610054565b600080546001600160a01b0319166001600160a01b0392909216919091179055610082565b600060208284031215610065578081fd5b81516001600160a01b038116811461007b578182fd5b9392505050565b610327806100916000396000f3fe608060405234801561001057600080fd5b506004361061004c5760003560e01c8063450d11f014610051578063b472047714610080578063b86cfdcf14610095578063cb10f94c146100a8575b600080fd5b600154610064906001600160a01b031681565b6040516001600160a01b03909116815260200160405180910390f35b61009361008e3660046101c7565b6100bb565b005b6100936100a33660046101a6565b610152565b600054610064906001600160a01b031681565b6000338484846040516020016100d49493929190610245565b60408051601f19818403018152908290526000546001546316f1983160e01b84529193506001600160a01b03908116926316f198319261011a921690859060040161028e565b600060405180830381600087803b15801561013457600080fd5b505af1158015610148573d6000803e3d6000fd5b5050505050505050565b6001546001600160a01b03161561016857600080fd5b600180546001600160a01b0319166001600160a01b0392909216919091179055565b80356001600160a01b03811681146101a157600080fd5b919050565b6000602082840312156101b7578081fd5b6101c08261018a565b9392505050565b6000806000604084860312156101db578182fd5b6101e48461018a565b9250602084013567ffffffffffffffff80821115610200578384fd5b818601915086601f830112610213578384fd5b813581811115610221578485fd5b876020828501011115610232578485fd5b6020830194508093505050509250925092565b6001600160a01b038581168252841660208201526060604082018190528101829052600082846080840137818301608090810191909152601f909201601f191601019392505050565b60018060a01b0383168152600060206040818401528351806040850152825b818110156102c9578581018301518582016060015282016102ad565b818111156102da5783606083870101525b50601f01601f19169290920160600194935050505056fea2646970667358221220f84753264163657fe2cfcf546509da50fdd48d4873fa79c5abe49f86b8697a5c64736f6c63430008040033",
  "immutableReferences": {},
  "source": "// SPDX-License-Identifier: MIT\npragma solidity ^0.8.0;\n\ninterface IStateSender {\n    function syncState(address receiver, bytes calldata data) external;\n}\n\ninterface IFxStateSender {\n    function sendMessageToChild(address _receiver, bytes calldata _data) external;\n}\n\n/**\n * @title FxRoot root contract for fx-portal\n */\ncontract FxRootMock is IFxStateSender {\n    IStateSender public stateSender;\n    address public fxChild;\n\n    constructor(address _stateSender) {\n        stateSender = IStateSender(_stateSender);\n    }\n\n    function setFxChild(address _fxChild) public {\n        require(fxChild == address(0x0));\n        fxChild = _fxChild;\n    }\n\n    function sendMessageToChild(address _receiver, bytes calldata _data) public override {\n        bytes memory data = abi.encode(msg.sender, _receiver, _data);\n        stateSender.syncState(fxChild, data);\n    }\n}\n",
  "sourcePath": "/home/circleci/protocol/packages/core/contracts/external/polygon/test/FxRootMock.sol",
  "compiler": {
    "name": "solc",
    "version": "0.8.4+commit.c7e474f2.Emscripten.clang"
  },
  "schemaVersion": "3.3.4",
  "updatedAt": "2021-07-16T20:27:09.697Z",
  "devdoc": {
    "kind": "dev",
    "methods": {},
    "title": "FxRoot root contract for fx-portal",
    "version": 1
  },
  "userdoc": {
    "kind": "user",
    "methods": {},
    "version": 1
  }
}