{
  "contractName": "Governor",
  "abi": [
    {
      "inputs": [
        {
          "internalType": "address",
          "name": "_finderAddress",
          "type": "address"
        },
        {
          "internalType": "uint256",
          "name": "_startingId",
          "type": "uint256"
        },
        {
          "internalType": "address",
          "name": "_timerAddress",
          "type": "address"
        }
      ],
      "stateMutability": "nonpayable",
      "type": "constructor"
    },
    {
      "anonymous": false,
      "inputs": [
        {
          "indexed": true,
          "internalType": "uint256",
          "name": "roleId",
          "type": "uint256"
        },
        {
          "indexed": true,
          "internalType": "address",
          "name": "newMember",
          "type": "address"
        },
        {
          "indexed": true,
          "internalType": "address",
          "name": "manager",
          "type": "address"
        }
      ],
      "name": "AddedSharedMember",
      "type": "event"
    },
    {
      "anonymous": false,
      "inputs": [
        {
          "indexed": true,
          "internalType": "uint256",
          "name": "id",
          "type": "uint256"
        },
        {
          "components": [
            {
              "internalType": "address",
              "name": "to",
              "type": "address"
            },
            {
              "internalType": "uint256",
              "name": "value",
              "type": "uint256"
            },
            {
              "internalType": "bytes",
              "name": "data",
              "type": "bytes"
            }
          ],
          "indexed": false,
          "internalType": "struct Governor.Transaction[]",
          "name": "transactions",
          "type": "tuple[]"
        }
      ],
      "name": "NewProposal",
      "type": "event"
    },
    {
      "anonymous": false,
      "inputs": [
        {
          "indexed": true,
          "internalType": "uint256",
          "name": "id",
          "type": "uint256"
        },
        {
          "indexed": false,
          "internalType": "uint256",
          "name": "transactionIndex",
          "type": "uint256"
        }
      ],
      "name": "ProposalExecuted",
      "type": "event"
    },
    {
      "anonymous": false,
      "inputs": [
        {
          "indexed": true,
          "internalType": "uint256",
          "name": "roleId",
          "type": "uint256"
        },
        {
          "indexed": true,
          "internalType": "address",
          "name": "oldMember",
          "type": "address"
        },
        {
          "indexed": true,
          "internalType": "address",
          "name": "manager",
          "type": "address"
        }
      ],
      "name": "RemovedSharedMember",
      "type": "event"
    },
    {
      "anonymous": false,
      "inputs": [
        {
          "indexed": true,
          "internalType": "uint256",
          "name": "roleId",
          "type": "uint256"
        },
        {
          "indexed": true,
          "internalType": "address",
          "name": "newMember",
          "type": "address"
        },
        {
          "indexed": true,
          "internalType": "address",
          "name": "manager",
          "type": "address"
        }
      ],
      "name": "ResetExclusiveMember",
      "type": "event"
    },
    {
      "inputs": [
        {
          "internalType": "uint256",
          "name": "roleId",
          "type": "uint256"
        },
        {
          "internalType": "address",
          "name": "newMember",
          "type": "address"
        }
      ],
      "name": "addMember",
      "outputs": [],
      "stateMutability": "nonpayable",
      "type": "function"
    },
    {
      "inputs": [],
      "name": "getCurrentTime",
      "outputs": [
        {
          "internalType": "uint256",
          "name": "",
          "type": "uint256"
        }
      ],
      "stateMutability": "view",
      "type": "function"
    },
    {
      "inputs": [
        {
          "internalType": "uint256",
          "name": "roleId",
          "type": "uint256"
        }
      ],
      "name": "getMember",
      "outputs": [
        {
          "internalType": "address",
          "name": "",
          "type": "address"
        }
      ],
      "stateMutability": "view",
      "type": "function"
    },
    {
      "inputs": [
        {
          "internalType": "uint256",
          "name": "roleId",
          "type": "uint256"
        },
        {
          "internalType": "address",
          "name": "memberToCheck",
          "type": "address"
        }
      ],
      "name": "holdsRole",
      "outputs": [
        {
          "internalType": "bool",
          "name": "",
          "type": "bool"
        }
      ],
      "stateMutability": "view",
      "type": "function"
    },
    {
      "inputs": [
        {
          "internalType": "uint256",
          "name": "",
          "type": "uint256"
        }
      ],
      "name": "proposals",
      "outputs": [
        {
          "internalType": "uint256",
          "name": "requestTime",
          "type": "uint256"
        }
      ],
      "stateMutability": "view",
      "type": "function"
    },
    {
      "inputs": [
        {
          "internalType": "uint256",
          "name": "roleId",
          "type": "uint256"
        },
        {
          "internalType": "address",
          "name": "memberToRemove",
          "type": "address"
        }
      ],
      "name": "removeMember",
      "outputs": [],
      "stateMutability": "nonpayable",
      "type": "function"
    },
    {
      "inputs": [
        {
          "internalType": "uint256",
          "name": "roleId",
          "type": "uint256"
        }
      ],
      "name": "renounceMembership",
      "outputs": [],
      "stateMutability": "nonpayable",
      "type": "function"
    },
    {
      "inputs": [
        {
          "internalType": "uint256",
          "name": "roleId",
          "type": "uint256"
        },
        {
          "internalType": "address",
          "name": "newMember",
          "type": "address"
        }
      ],
      "name": "resetMember",
      "outputs": [],
      "stateMutability": "nonpayable",
      "type": "function"
    },
    {
      "inputs": [
        {
          "internalType": "uint256",
          "name": "time",
          "type": "uint256"
        }
      ],
      "name": "setCurrentTime",
      "outputs": [],
      "stateMutability": "nonpayable",
      "type": "function"
    },
    {
      "inputs": [],
      "name": "timerAddress",
      "outputs": [
        {
          "internalType": "address",
          "name": "",
          "type": "address"
        }
      ],
      "stateMutability": "view",
      "type": "function"
    },
    {
      "inputs": [
        {
          "components": [
            {
              "internalType": "address",
              "name": "to",
              "type": "address"
            },
            {
              "internalType": "uint256",
              "name": "value",
              "type": "uint256"
            },
            {
              "internalType": "bytes",
              "name": "data",
              "type": "bytes"
            }
          ],
          "internalType": "struct Governor.Transaction[]",
          "name": "transactions",
          "type": "tuple[]"
        }
      ],
      "name": "propose",
      "outputs": [],
      "stateMutability": "nonpayable",
      "type": "function"
    },
    {
      "inputs": [
        {
          "internalType": "uint256",
          "name": "id",
          "type": "uint256"
        },
        {
          "internalType": "uint256",
          "name": "transactionIndex",
          "type": "uint256"
        }
      ],
      "name": "executeProposal",
      "outputs": [],
      "stateMutability": "payable",
      "type": "function"
    },
    {
      "inputs": [],
      "name": "numProposals",
      "outputs": [
        {
          "internalType": "uint256",
          "name": "",
          "type": "uint256"
        }
      ],
      "stateMutability": "view",
      "type": "function"
    },
    {
      "inputs": [
        {
          "internalType": "uint256",
          "name": "id",
          "type": "uint256"
        }
      ],
      "name": "getProposal",
      "outputs": [
        {
          "components": [
            {
              "components": [
                {
                  "internalType": "address",
                  "name": "to",
                  "type": "address"
                },
                {
                  "internalType": "uint256",
                  "name": "value",
                  "type": "uint256"
                },
                {
                  "internalType": "bytes",
                  "name": "data",
                  "type": "bytes"
                }
              ],
              "internalType": "struct Governor.Transaction[]",
              "name": "transactions",
              "type": "tuple[]"
            },
            {
              "internalType": "uint256",
              "name": "requestTime",
              "type": "uint256"
            }
          ],
          "internalType": "struct Governor.Proposal",
          "name": "",
          "type": "tuple"
        }
      ],
      "stateMutability": "view",
      "type": "function"
    }
  ],
  "bytecode": "0x60806040523480156200001157600080fd5b50604051620020363803806200203683398101604081905262000034916200031f565b600180546001600160a01b038084166001600160a01b03199283161790925560028054928616929091169190911790556200007460005b600033620000fb565b6200008060016200006b565b670de0b6b3a764000080831115620000ef5760405162461bcd60e51b815260206004820152602760248201527f43616e6e6f7420736574207374617274696e674964206c6172676572207468616044820152660dc406260bc62760cb1b60648201526084015b60405180910390fd5b5050600355506200035f565b826000808281526020819052604090206001015460ff1660028111156200013257634e487b7160e01b600052602160045260246000fd5b14620001815760405162461bcd60e51b815260206004820152601e60248201527f43616e6e6f74207573652061207072652d6578697374696e6720726f6c6500006044820152606401620000e6565b60008481526020819052604090206001808201805460ff191682800217905550838155620001bf600282018462000271602090811b620012a317901c565b60008481526020819052604081206001015460ff166002811115620001f457634e487b7160e01b600052602160045260246000fd5b14156200026a5760405162461bcd60e51b815260206004820152603c60248201527f417474656d7074656420746f2075736520616e20696e76616c696420726f6c6560448201527f20746f206d616e61676520616e206578636c757369766520726f6c65000000006064820152608401620000e6565b5050505050565b6200027d828262000281565b5050565b6001600160a01b038116620002e55760405162461bcd60e51b815260206004820152602360248201527f43616e6e6f742073657420616e206578636c757369766520726f6c6520746f2060448201526203078360ec1b6064820152608401620000e6565b81546001600160a01b0319166001600160a01b0391909116179055565b80516001600160a01b03811681146200031a57600080fd5b919050565b60008060006060848603121562000334578283fd5b6200033f8462000302565b925060208401519150620003566040850162000302565b90509250925092565b611cc7806200036f6000396000f3fe6080604052600436106100dd5760003560e01c806374d0a6761161007f578063ab3545e511610059578063ab3545e51461023c578063c62fdef71461025c578063c7f758a81461027c578063d97c05be146102a957600080fd5b806374d0a676146101cc5780637cdc1cb9146101ec578063aaa14ca31461021c57600080fd5b806322f8e566116100bb57806322f8e5661461016257806329cb924d14610182578063400e3949146101975780636be7658b146101ac57600080fd5b8063013cf08b146100e25780631ab76712146101155780631c39c38d1461012a575b600080fd5b3480156100ee57600080fd5b506101026100fd366004611800565b6102c9565b6040519081526020015b60405180910390f35b610128610123366004611847565b6102f2565b005b34801561013657600080fd5b5060015461014a906001600160a01b031681565b6040516001600160a01b03909116815260200161010c565b34801561016e57600080fd5b5061012861017d366004611800565b610745565b34801561018e57600080fd5b506101026107bb565b3480156101a357600080fd5b50600354610102565b3480156101b857600080fd5b506101286101c7366004611818565b61085f565b3480156101d857600080fd5b506101286101e7366004611818565b610943565b3480156101f857600080fd5b5061020c610207366004611818565b610a27565b604051901515815260200161010c565b34801561022857600080fd5b50610128610237366004611800565b610b10565b34801561024857600080fd5b5061014a610257366004611800565b610bda565b34801561026857600080fd5b50610128610277366004611726565b610c55565b34801561028857600080fd5b5061029c610297366004611800565b61104e565b60405161010c9190611a4b565b3480156102b557600080fd5b506101286102c4366004611818565b6111bf565b600381815481106102d957600080fd5b6000918252602090912060016002909202010154905081565b60006003838154811061031557634e487b7160e01b600052603260045260246000fd5b90600052602060002090600202019050600061032f6112b1565b6001600160a01b031663c9280f0661034686611337565b60018501546040516001600160e01b031960e085901b1681526004810192909252602482015260440160206040518083038186803b15801561038757600080fd5b505afa15801561039b573d6000803e3d6000fd5b505050506040513d601f19601f820116820180604052508101906103bf91906117e8565b905060008260000184815481106103e657634e487b7160e01b600052603260045260246000fd5b90600052602060002090600302016040518060600160405290816000820160009054906101000a90046001600160a01b03166001600160a01b03166001600160a01b031681526020016001820154815260200160028201805461044890611bd6565b80601f016020809104026020016040519081016040528092919081815260200182805461047490611bd6565b80156104c15780601f10610496576101008083540402835291602001916104c1565b820191906000526020600020905b8154815290600101906020018083116104a457829003601f168201915b5050505050815250509050836000148061051e57506000836104e486600161135a565b8154811061050257634e487b7160e01b600052603260045260246000fd5b60009182526020909120600390910201546001600160a01b0316145b61056f5760405162461bcd60e51b815260206004820152601c60248201527f50726576696f7573207478206e6f74207965742065786563757465640000000060448201526064015b60405180910390fd5b80516001600160a01b03166105bc5760405162461bcd60e51b8152602060048201526013602482015272151e08185b1c9958591e48195e1958dd5d1959606a1b6044820152606401610566565b816106015760405162461bcd60e51b8152602060048201526015602482015274141c9bdc1bdcd85b081dd85cc81c995a9958dd1959605a1b6044820152606401610566565b806020015134146106545760405162461bcd60e51b815260206004820152601d60248201527f4d7573742073656e6420657861637420616d6f756e74206f66204554480000006044820152606401610566565b82600001848154811061067757634e487b7160e01b600052603260045260246000fd5b60009182526020822060039091020180546001600160a01b031916815560018101829055906106a96002830182611579565b50506106c281600001518260200151836040015161136d565b6107045760405162461bcd60e51b8152602060048201526013602482015272151e08195e1958dd5d1a5bdb8819985a5b1959606a1b6044820152606401610566565b847ff758fc91e01b00ea6b4a6138756f7f28e021f9bf21db6dbf8c36c88eb737257a8560405161073691815260200190565b60405180910390a25050505050565b6001546001600160a01b031661075a57600080fd5b60015460405163117c72b360e11b8152600481018390526001600160a01b03909116906322f8e56690602401600060405180830381600087803b1580156107a057600080fd5b505af11580156107b4573d6000803e3d6000fd5b5050505050565b6001546000906001600160a01b03161561085a57600160009054906101000a90046001600160a01b03166001600160a01b03166329cb924d6040518163ffffffff1660e01b815260040160206040518083038186803b15801561081d57600080fd5b505afa158015610831573d6000803e3d6000fd5b505050506040513d601f19601f8201168201806040525081019061085591906117e8565b905090565b504290565b81600260008281526020819052604090206001015460ff16600281111561089657634e487b7160e01b600052602160045260246000fd5b146108b35760405162461bcd60e51b815260040161056690611979565b60008381526020819052604090205483906108ce9033610a27565b6108ea5760405162461bcd60e51b815260040161056690611a07565b6000848152602081905260409020610905906003018461138a565b60405133906001600160a01b0385169086907feb3e33034c392e69263b04ec0fa376dc12784a41b6676c7f31b936cbc0fbb5af90600090a450505050565b81600260008281526020819052604090206001015460ff16600281111561097a57634e487b7160e01b600052602160045260246000fd5b146109975760405162461bcd60e51b815260040161056690611979565b60008381526020819052604090205483906109b29033610a27565b6109ce5760405162461bcd60e51b815260040161056690611a07565b60008481526020819052604090206109e990600301846113ac565b60405133906001600160a01b0385169086907f63502af7324ff6db91ab38f8236a648727d9385ea6c782073dd4882d8a61a48f90600090a450505050565b600082815260208190526040812060018082015460ff166002811115610a5d57634e487b7160e01b600052602160045260246000fd5b1415610a7f5760028101546001600160a01b038481169116145b915050610b0a565b6002600182015460ff166002811115610aa857634e487b7160e01b600052602160045260246000fd5b1415610ad1576001600160a01b038316600090815260038201602052604090205460ff16610a77565b60405162461bcd60e51b815260206004820152600e60248201526d125b9d985b1a59081c9bdb19525960921b6044820152606401610566565b92915050565b80600260008281526020819052604090206001015460ff166002811115610b4757634e487b7160e01b600052602160045260246000fd5b14610b645760405162461bcd60e51b815260040161056690611979565b81610b6f8133610a27565b610b8b5760405162461bcd60e51b8152600401610566906119c5565b6000838152602081905260409020610ba6906003013361138a565b6040513390819085907feb3e33034c392e69263b04ec0fa376dc12784a41b6676c7f31b936cbc0fbb5af90600090a4505050565b600081600160008281526020819052604090206001015460ff166002811115610c1357634e487b7160e01b600052602160045260246000fd5b14610c305760405162461bcd60e51b81526004016105669061192a565b6000838152602081905260409020600201546001600160a01b03165b91505b50919050565b6001610c618133610a27565b610c7d5760405162461bcd60e51b8152600401610566906119c5565b6003546000610c8a6107bb565b60038054600101808255600082815292935084908110610cba57634e487b7160e01b600052603260045260246000fd5b9060005260206000209060020201905081816001018190555060005b8551811015610ed05760006001600160a01b0316868281518110610d0a57634e487b7160e01b600052603260045260246000fd5b6020026020010151600001516001600160a01b03161415610d6d5760405162461bcd60e51b815260206004820152601e60248201527f5468652060746f6020616464726573732063616e6e6f742062652030783000006044820152606401610566565b6000868281518110610d8f57634e487b7160e01b600052603260045260246000fd5b602002602001015160400151511115610e2c57610de0868281518110610dc557634e487b7160e01b600052603260045260246000fd5b6020026020010151600001516001600160a01b03163b151590565b610e2c5760405162461bcd60e51b815260206004820152601d60248201527f454f412063616e277420616363657074207478207769746820646174610000006044820152606401610566565b81600001868281518110610e5057634e487b7160e01b600052603260045260246000fd5b602090810291909101810151825460018082018555600094855293839020825160039092020180546001600160a01b0319166001600160a01b03909216919091178155818301519381019390935560408101518051919392610eba926002850192909101906115b6565b5050508080610ec890611c0b565b915050610cd6565b506000610edc84611337565b90506000610ee86112b1565b90506000610ef4611427565b6040516310a7e20160e01b8152600481018590529091506001600160a01b038216906310a7e20190602401600060405180830381600087803b158015610f3957600080fd5b505af1158015610f4d573d6000803e3d6000fd5b50506040516368ad8ae360e01b815260048101869052602481018890526001600160a01b03851692506368ad8ae39150604401600060405180830381600087803b158015610f9a57600080fd5b505af1158015610fae573d6000803e3d6000fd5b5050604051638e0d3ca760e01b8152600481018690526001600160a01b0384169250638e0d3ca79150602401600060405180830381600087803b158015610ff457600080fd5b505af1158015611008573d6000803e3d6000fd5b50505050857f082d2a29e61e3d0508e5617570bed4c7c58ae73d4719b31052d8638812bc4c0c8960405161103c9190611868565b60405180910390a25050505050505050565b6040805180820190915260608152600060208201526003828154811061108457634e487b7160e01b600052603260045260246000fd5b906000526020600020906002020160405180604001604052908160008201805480602002602001604051908101604052809291908181526020016000905b828210156111a6576000848152602090819020604080516060810182526003860290920180546001600160a01b031683526001810154938301939093526002830180549293929184019161111590611bd6565b80601f016020809104026020016040519081016040528092919081815260200182805461114190611bd6565b801561118e5780601f106111635761010080835404028352916020019161118e565b820191906000526020600020905b81548152906001019060200180831161117157829003601f168201915b505050505081525050815260200190600101906110c2565b5050505081526020016001820154815250509050919050565b81600160008281526020819052604090206001015460ff1660028111156111f657634e487b7160e01b600052602160045260246000fd5b146112135760405162461bcd60e51b81526004016105669061192a565b600083815260208190526040902054839061122e9033610a27565b61124a5760405162461bcd60e51b815260040161056690611a07565b6000848152602081905260409020611265906002018461146e565b60405133906001600160a01b0385169086907f3b855c56b409b671c7112789d022675eb639d0bcb8896f1b6197c132f799e74690600090a450505050565b6112ad828261146e565b5050565b6002546040516302abf57960e61b8152654f7261636c6560d01b60048201526000916001600160a01b03169063aafd5e40906024015b60206040518083038186803b1580156112ff57600080fd5b505afa158015611313573d6000803e3d6000fd5b505050506040513d601f19601f82011682018060405250810190610855919061170a565b600080611343836114ed565b9050610c4c8165020b236b4b7160d51b600661155c565b60006113668284611bbf565b9392505050565b6000806020830183516000808284898b5af1979650505050505050565b6001600160a01b0316600090815260209190915260409020805460ff19169055565b6001600160a01b0381166114025760405162461bcd60e51b815260206004820152601f60248201527f43616e6e6f74206164642030783020746f20612073686172656420726f6c65006044820152606401610566565b6001600160a01b0316600090815260209190915260409020805460ff19166001179055565b6002546040516302abf57960e61b8152721259195b9d1a599a595c95da1a5d195b1a5cdd606a1b60048201526000916001600160a01b03169063aafd5e40906024016112e7565b6001600160a01b0381166114d05760405162461bcd60e51b815260206004820152602360248201527f43616e6e6f742073657420616e206578636c757369766520726f6c6520746f2060448201526203078360ec1b6064820152608401610566565b81546001600160a01b0319166001600160a01b0391909116179055565b600080826115005750600360fc1b610b0a565b6008600a60305b85156115535792821c92600061151d8388611c26565b9050600061152b8383611b74565b905061153885601f611ba0565b81901b959095179461154a8489611b8c565b97505050611507565b50505092915050565b60008061156a836008611ba0565b85901c84179150509392505050565b50805461158590611bd6565b6000825580601f10611595575050565b601f0160209004906000526020600020908101906115b3919061163a565b50565b8280546115c290611bd6565b90600052602060002090601f0160209004810192826115e4576000855561162a565b82601f106115fd57805160ff191683800117855561162a565b8280016001018555821561162a579182015b8281111561162a57825182559160200191906001019061160f565b5061163692915061163a565b5090565b5b80821115611636576000815560010161163b565b600060608284031215611660578081fd5b611668611b1a565b9050813561167581611c7c565b815260208281013581830152604083013567ffffffffffffffff8082111561169c57600080fd5b818501915085601f8301126116b057600080fd5b8135818111156116c2576116c2611c66565b6116d4601f8201601f19168501611b43565b915080825286848285010111156116ea57600080fd5b808484018584013760008482840101525080604085015250505092915050565b60006020828403121561171b578081fd5b815161136681611c7c565b60006020808385031215611738578182fd5b823567ffffffffffffffff8082111561174f578384fd5b818501915085601f830112611762578384fd5b81358181111561177457611774611c66565b8060051b611783858201611b43565b8281528581019085870183870188018b101561179d578889fd5b8893505b848410156117da578035868111156117b757898afd5b6117c58c8a838b010161164f565b845250600193909301929187019187016117a1565b509998505050505050505050565b6000602082840312156117f9578081fd5b5051919050565b600060208284031215611811578081fd5b5035919050565b6000806040838503121561182a578081fd5b82359150602083013561183c81611c7c565b809150509250929050565b60008060408385031215611859578182fd5b50508035926020909101359150565b60006020808301818452808551808352604092508286019150828160051b870101848801865b8381101561191c57888303603f19018552815180516001600160a01b0316845287810151888501528601516060878501819052815190850181905289905b808210156118ea578282018a015186830160800152908901906118cc565b808211156118fb578a608082880101525b96890196601f01601f1916949094016080019350509086019060010161188e565b509098975050505050505050565b6020808252602f908201527f4d7573742062652063616c6c6564206f6e20616e20696e697469616c697a656460408201526e204578636c757369766520726f6c6560881b606082015260800190565b6020808252602c908201527f4d7573742062652063616c6c6564206f6e20616e20696e697469616c697a656460408201526b2053686172656420726f6c6560a01b606082015260800190565b60208082526022908201527f53656e64657220646f6573206e6f7420686f6c6420726571756972656420726f6040820152616c6560f01b606082015260800190565b60208082526024908201527f43616e206f6e6c792062652063616c6c6564206279206120726f6c65206d616e60408201526330b3b2b960e11b606082015260800190565b600060208083526060808401855160408085880152828251808552608094508489019150848160051b8a01018785019450885b82811015611b04578a8203607f19018452855180516001600160a01b03168352898101518a84015285015185830189905280518984018190528b5b81811015611ad4578281018c01518582018b01528b01611ab9565b81811115611ae4578c8a83870101525b50968a0196948a0194601f01601f19169290920187019150600101611a7e565b5096909901519190970152509195945050505050565b6040516060810167ffffffffffffffff81118282101715611b3d57611b3d611c66565b60405290565b604051601f8201601f1916810167ffffffffffffffff81118282101715611b6c57611b6c611c66565b604052919050565b60008219821115611b8757611b87611c3a565b500190565b600082611b9b57611b9b611c50565b500490565b6000816000190483118215151615611bba57611bba611c3a565b500290565b600082821015611bd157611bd1611c3a565b500390565b600181811c90821680611bea57607f821691505b60208210811415610c4f57634e487b7160e01b600052602260045260246000fd5b6000600019821415611c1f57611c1f611c3a565b5060010190565b600082611c3557611c35611c50565b500690565b634e487b7160e01b600052601160045260246000fd5b634e487b7160e01b600052601260045260246000fd5b634e487b7160e01b600052604160045260246000fd5b6001600160a01b03811681146115b357600080fdfea26469706673582212209d18b22348831f2d5238d45eb3a5860127806461f10f8729d34637f7346cc64e64736f6c63430008040033",
  "immutableReferences": {},
  "source": "// SPDX-License-Identifier: AGPL-3.0-only\npragma solidity ^0.8.0;\n\nimport \"../../common/implementation/MultiRole.sol\";\nimport \"../../common/implementation/FixedPoint.sol\";\nimport \"../../common/implementation/Testable.sol\";\nimport \"../interfaces/FinderInterface.sol\";\nimport \"../interfaces/IdentifierWhitelistInterface.sol\";\nimport \"../interfaces/OracleInterface.sol\";\nimport \"./Constants.sol\";\n\nimport \"@openzeppelin/contracts/utils/math/SafeMath.sol\";\nimport \"@openzeppelin/contracts/utils/Address.sol\";\n\n/**\n * @title Takes proposals for certain governance actions and allows UMA token holders to vote on them.\n */\ncontract Governor is MultiRole, Testable {\n    using SafeMath for uint256;\n    using Address for address;\n\n    /****************************************\n     *     INTERNAL VARIABLES AND STORAGE   *\n     ****************************************/\n\n    enum Roles {\n        Owner, // Can set the proposer.\n        Proposer // Address that can make proposals.\n    }\n\n    struct Transaction {\n        address to;\n        uint256 value;\n        bytes data;\n    }\n\n    struct Proposal {\n        Transaction[] transactions;\n        uint256 requestTime;\n    }\n\n    FinderInterface private finder;\n    Proposal[] public proposals;\n\n    /****************************************\n     *                EVENTS                *\n     ****************************************/\n\n    // Emitted when a new proposal is created.\n    event NewProposal(uint256 indexed id, Transaction[] transactions);\n\n    // Emitted when an existing proposal is executed.\n    event ProposalExecuted(uint256 indexed id, uint256 transactionIndex);\n\n    /**\n     * @notice Construct the Governor contract.\n     * @param _finderAddress keeps track of all contracts within the system based on their interfaceName.\n     * @param _startingId the initial proposal id that the contract will begin incrementing from.\n     * @param _timerAddress Contract that stores the current time in a testing environment.\n     * Must be set to 0x0 for production environments that use live time.\n     */\n    constructor(\n        address _finderAddress,\n        uint256 _startingId,\n        address _timerAddress\n    ) Testable(_timerAddress) {\n        finder = FinderInterface(_finderAddress);\n        _createExclusiveRole(uint256(Roles.Owner), uint256(Roles.Owner), msg.sender);\n        _createExclusiveRole(uint256(Roles.Proposer), uint256(Roles.Owner), msg.sender);\n\n        // Ensure the startingId is not set unreasonably high to avoid it being set such that new proposals overwrite\n        // other storage slots in the contract.\n        uint256 maxStartingId = 10**18;\n        require(_startingId <= maxStartingId, \"Cannot set startingId larger than 10^18\");\n\n        // This just sets the initial length of the array to the startingId since modifying length directly has been\n        // disallowed in solidity 0.6.\n        assembly {\n            sstore(proposals.slot, _startingId)\n        }\n    }\n\n    /****************************************\n     *          PROPOSAL ACTIONS            *\n     ****************************************/\n\n    /**\n     * @notice Proposes a new governance action. Can only be called by the holder of the Proposer role.\n     * @param transactions list of transactions that are being proposed.\n     * @dev You can create the data portion of each transaction by doing the following:\n     * ```\n     * const truffleContractInstance = await TruffleContract.deployed()\n     * const data = truffleContractInstance.methods.methodToCall(arg1, arg2).encodeABI()\n     * ```\n     * Note: this method must be public because of a solidity limitation that\n     * disallows structs arrays to be passed to external functions.\n     */\n    function propose(Transaction[] memory transactions) public onlyRoleHolder(uint256(Roles.Proposer)) {\n        uint256 id = proposals.length;\n        uint256 time = getCurrentTime();\n\n        // Note: doing all of this array manipulation manually is necessary because directly setting an array of\n        // structs in storage to an an array of structs in memory is currently not implemented in solidity :/.\n\n        // Add a zero-initialized element to the proposals array.\n        proposals.push();\n\n        // Initialize the new proposal.\n        Proposal storage proposal = proposals[id];\n        proposal.requestTime = time;\n\n        // Initialize the transaction array.\n        for (uint256 i = 0; i < transactions.length; i++) {\n            require(transactions[i].to != address(0), \"The `to` address cannot be 0x0\");\n            // If the transaction has any data with it the recipient must be a contract, not an EOA.\n            if (transactions[i].data.length > 0) {\n                require(transactions[i].to.isContract(), \"EOA can't accept tx with data\");\n            }\n            proposal.transactions.push(transactions[i]);\n        }\n\n        bytes32 identifier = _constructIdentifier(id);\n\n        // Request a vote on this proposal in the DVM.\n        OracleInterface oracle = _getOracle();\n        IdentifierWhitelistInterface supportedIdentifiers = _getIdentifierWhitelist();\n        supportedIdentifiers.addSupportedIdentifier(identifier);\n\n        oracle.requestPrice(identifier, time);\n        supportedIdentifiers.removeSupportedIdentifier(identifier);\n\n        emit NewProposal(id, transactions);\n    }\n\n    /**\n     * @notice Executes a proposed governance action that has been approved by voters.\n     * @dev This can be called by any address. Caller is expected to send enough ETH to execute payable transactions.\n     * @param id unique id for the executed proposal.\n     * @param transactionIndex unique transaction index for the executed proposal.\n     */\n    function executeProposal(uint256 id, uint256 transactionIndex) external payable {\n        Proposal storage proposal = proposals[id];\n        int256 price = _getOracle().getPrice(_constructIdentifier(id), proposal.requestTime);\n\n        Transaction memory transaction = proposal.transactions[transactionIndex];\n\n        require(\n            transactionIndex == 0 || proposal.transactions[transactionIndex.sub(1)].to == address(0),\n            \"Previous tx not yet executed\"\n        );\n        require(transaction.to != address(0), \"Tx already executed\");\n        require(price != 0, \"Proposal was rejected\");\n        require(msg.value == transaction.value, \"Must send exact amount of ETH\");\n\n        // Delete the transaction before execution to avoid any potential re-entrancy issues.\n        delete proposal.transactions[transactionIndex];\n\n        require(_executeCall(transaction.to, transaction.value, transaction.data), \"Tx execution failed\");\n\n        emit ProposalExecuted(id, transactionIndex);\n    }\n\n    /****************************************\n     *       GOVERNOR STATE GETTERS         *\n     ****************************************/\n\n    /**\n     * @notice Gets the total number of proposals (includes executed and non-executed).\n     * @return uint256 representing the current number of proposals.\n     */\n    function numProposals() external view returns (uint256) {\n        return proposals.length;\n    }\n\n    /**\n     * @notice Gets the proposal data for a particular id.\n     * @dev after a proposal is executed, its data will be zeroed out, except for the request time.\n     * @param id uniquely identify the identity of the proposal.\n     * @return proposal struct containing transactions[] and requestTime.\n     */\n    function getProposal(uint256 id) external view returns (Proposal memory) {\n        return proposals[id];\n    }\n\n    /****************************************\n     *      PRIVATE GETTERS AND FUNCTIONS   *\n     ****************************************/\n\n    function _executeCall(\n        address to,\n        uint256 value,\n        bytes memory data\n    ) private returns (bool) {\n        // Mostly copied from:\n        // solhint-disable-next-line max-line-length\n        // https://github.com/gnosis/safe-contracts/blob/59cfdaebcd8b87a0a32f87b50fead092c10d3a05/contracts/base/Executor.sol#L23-L31\n        // solhint-disable-next-line no-inline-assembly\n\n        bool success;\n        assembly {\n            let inputData := add(data, 0x20)\n            let inputDataSize := mload(data)\n            success := call(gas(), to, value, inputData, inputDataSize, 0, 0)\n        }\n        return success;\n    }\n\n    function _getOracle() private view returns (OracleInterface) {\n        return OracleInterface(finder.getImplementationAddress(OracleInterfaces.Oracle));\n    }\n\n    function _getIdentifierWhitelist() private view returns (IdentifierWhitelistInterface supportedIdentifiers) {\n        return IdentifierWhitelistInterface(finder.getImplementationAddress(OracleInterfaces.IdentifierWhitelist));\n    }\n\n    // Returns a UTF-8 identifier representing a particular admin proposal.\n    // The identifier is of the form \"Admin n\", where n is the proposal id provided.\n    function _constructIdentifier(uint256 id) internal pure returns (bytes32) {\n        bytes32 bytesId = _uintToUtf8(id);\n        return _addPrefix(bytesId, \"Admin \", 6);\n    }\n\n    // This method converts the integer `v` into a base-10, UTF-8 representation stored in a `bytes32` type.\n    // If the input cannot be represented by 32 base-10 digits, it returns only the highest 32 digits.\n    // This method is based off of this code: https://ethereum.stackexchange.com/a/6613/47801.\n    function _uintToUtf8(uint256 v) internal pure returns (bytes32) {\n        bytes32 ret;\n        if (v == 0) {\n            // Handle 0 case explicitly.\n            ret = \"0\";\n        } else {\n            // Constants.\n            uint256 bitsPerByte = 8;\n            uint256 base = 10; // Note: the output should be base-10. The below implementation will not work for bases > 10.\n            uint256 utf8NumberOffset = 48;\n            while (v > 0) {\n                // Downshift the entire bytes32 to allow the new digit to be added at the \"front\" of the bytes32, which\n                // translates to the beginning of the UTF-8 representation.\n                ret = ret >> bitsPerByte;\n\n                // Separate the last digit that remains in v by modding by the base of desired output representation.\n                uint256 leastSignificantDigit = v % base;\n\n                // Digits 0-9 are represented by 48-57 in UTF-8, so an offset must be added to create the character.\n                bytes32 utf8Digit = bytes32(leastSignificantDigit + utf8NumberOffset);\n\n                // The top byte of ret has already been cleared to make room for the new digit.\n                // Upshift by 31 bytes to put it in position, and OR it with ret to leave the other characters untouched.\n                ret |= utf8Digit << (31 * bitsPerByte);\n\n                // Divide v by the base to remove the digit that was just added.\n                v /= base;\n            }\n        }\n        return ret;\n    }\n\n    // This method takes two UTF-8 strings represented as bytes32 and outputs one as a prefixed by the other.\n    // `input` is the UTF-8 that should have the prefix prepended.\n    // `prefix` is the UTF-8 that should be prepended onto input.\n    // `prefixLength` is number of UTF-8 characters represented by `prefix`.\n    // Notes:\n    // 1. If the resulting UTF-8 is larger than 32 characters, then only the first 32 characters will be represented\n    //    by the bytes32 output.\n    // 2. If `prefix` has more characters than `prefixLength`, the function will produce an invalid result.\n    function _addPrefix(\n        bytes32 input,\n        bytes32 prefix,\n        uint256 prefixLength\n    ) internal pure returns (bytes32) {\n        // Downshift `input` to open space at the \"front\" of the bytes32\n        bytes32 shiftedInput = input >> (prefixLength * 8);\n        return shiftedInput | prefix;\n    }\n}\n",
  "sourcePath": "/home/circleci/protocol/packages/core/contracts/oracle/implementation/Governor.sol",
  "compiler": {
    "name": "solc",
    "version": "0.8.4+commit.c7e474f2.Emscripten.clang"
  },
  "schemaVersion": "3.3.4",
  "updatedAt": "2021-07-16T20:27:09.977Z",
  "devdoc": {
    "kind": "dev",
    "methods": {
      "addMember(uint256,address)": {
        "details": "Reverts if `roleId` does not represent an initialized, SharedRole or if the caller is not a member of the managing role for `roleId`.",
        "params": {
          "newMember": "the new SharedRole member.",
          "roleId": "the SharedRole membership to modify."
        }
      },
      "constructor": {
        "params": {
          "_finderAddress": "keeps track of all contracts within the system based on their interfaceName.",
          "_startingId": "the initial proposal id that the contract will begin incrementing from.",
          "_timerAddress": "Contract that stores the current time in a testing environment. Must be set to 0x0 for production environments that use live time."
        }
      },
      "executeProposal(uint256,uint256)": {
        "details": "This can be called by any address. Caller is expected to send enough ETH to execute payable transactions.",
        "params": {
          "id": "unique id for the executed proposal.",
          "transactionIndex": "unique transaction index for the executed proposal."
        }
      },
      "getCurrentTime()": {
        "returns": {
          "_0": "uint for the current Testable timestamp."
        }
      },
      "getMember(uint256)": {
        "details": "Reverts if `roleId` does not represent an initialized, exclusive role.",
        "params": {
          "roleId": "the ExclusiveRole membership to check."
        },
        "returns": {
          "_0": "the address of the current ExclusiveRole member."
        }
      },
      "getProposal(uint256)": {
        "details": "after a proposal is executed, its data will be zeroed out, except for the request time.",
        "params": {
          "id": "uniquely identify the identity of the proposal."
        },
        "returns": {
          "_0": "proposal struct containing transactions[] and requestTime."
        }
      },
      "holdsRole(uint256,address)": {
        "details": "Reverts if roleId does not correspond to an initialized role.",
        "params": {
          "memberToCheck": "the address to check.",
          "roleId": "the Role to check."
        },
        "returns": {
          "_0": "True if `memberToCheck` is a member of `roleId`."
        }
      },
      "numProposals()": {
        "returns": {
          "_0": "uint256 representing the current number of proposals."
        }
      },
      "propose((address,uint256,bytes)[])": {
        "details": "You can create the data portion of each transaction by doing the following: ``` const truffleContractInstance = await TruffleContract.deployed() const data = truffleContractInstance.methods.methodToCall(arg1, arg2).encodeABI() ``` Note: this method must be public because of a solidity limitation that disallows structs arrays to be passed to external functions.",
        "params": {
          "transactions": "list of transactions that are being proposed."
        }
      },
      "removeMember(uint256,address)": {
        "details": "Reverts if `roleId` does not represent an initialized, SharedRole or if the caller is not a member of the managing role for `roleId`.",
        "params": {
          "memberToRemove": "the current SharedRole member to remove.",
          "roleId": "the SharedRole membership to modify."
        }
      },
      "renounceMembership(uint256)": {
        "details": "Reverts if the caller is not a member of the role for `roleId` or if `roleId` is not an initialized, SharedRole.",
        "params": {
          "roleId": "the SharedRole membership to modify."
        }
      },
      "resetMember(uint256,address)": {
        "details": "Reverts if the caller is not a member of the managing role for `roleId` or if `roleId` is not an initialized, ExclusiveRole.",
        "params": {
          "newMember": "the new ExclusiveRole member.",
          "roleId": "the ExclusiveRole membership to modify."
        }
      },
      "setCurrentTime(uint256)": {
        "details": "Will revert if not running in test mode.",
        "params": {
          "time": "timestamp to set current Testable time to."
        }
      }
    },
    "title": "Takes proposals for certain governance actions and allows UMA token holders to vote on them.",
    "version": 1
  },
  "userdoc": {
    "kind": "user",
    "methods": {
      "addMember(uint256,address)": {
        "notice": "Adds `newMember` to the shared role, `roleId`."
      },
      "constructor": {
        "notice": "Construct the Governor contract."
      },
      "executeProposal(uint256,uint256)": {
        "notice": "Executes a proposed governance action that has been approved by voters."
      },
      "getCurrentTime()": {
        "notice": "Gets the current time. Will return the last time set in `setCurrentTime` if running in test mode. Otherwise, it will return the block timestamp."
      },
      "getMember(uint256)": {
        "notice": "Gets the current holder of the exclusive role, `roleId`."
      },
      "getProposal(uint256)": {
        "notice": "Gets the proposal data for a particular id."
      },
      "holdsRole(uint256,address)": {
        "notice": "Whether `memberToCheck` is a member of roleId."
      },
      "numProposals()": {
        "notice": "Gets the total number of proposals (includes executed and non-executed)."
      },
      "propose((address,uint256,bytes)[])": {
        "notice": "Proposes a new governance action. Can only be called by the holder of the Proposer role."
      },
      "removeMember(uint256,address)": {
        "notice": "Removes `memberToRemove` from the shared role, `roleId`."
      },
      "renounceMembership(uint256)": {
        "notice": "Removes caller from the role, `roleId`."
      },
      "resetMember(uint256,address)": {
        "notice": "Changes the exclusive role holder of `roleId` to `newMember`."
      },
      "setCurrentTime(uint256)": {
        "notice": "Sets the current time."
      }
    },
    "version": 1
  }
}