{
  "contractName": "GovernorRootTunnel",
  "abi": [
    {
      "inputs": [
        {
          "internalType": "address",
          "name": "_checkpointManager",
          "type": "address"
        },
        {
          "internalType": "address",
          "name": "_fxRoot",
          "type": "address"
        }
      ],
      "stateMutability": "nonpayable",
      "type": "constructor"
    },
    {
      "anonymous": false,
      "inputs": [
        {
          "indexed": true,
          "internalType": "address",
          "name": "previousOwner",
          "type": "address"
        },
        {
          "indexed": true,
          "internalType": "address",
          "name": "newOwner",
          "type": "address"
        }
      ],
      "name": "OwnershipTransferred",
      "type": "event"
    },
    {
      "anonymous": false,
      "inputs": [
        {
          "indexed": true,
          "internalType": "address",
          "name": "to",
          "type": "address"
        },
        {
          "indexed": false,
          "internalType": "bytes",
          "name": "data",
          "type": "bytes"
        }
      ],
      "name": "RelayedGovernanceRequest",
      "type": "event"
    },
    {
      "inputs": [],
      "name": "SEND_MESSAGE_EVENT_SIG",
      "outputs": [
        {
          "internalType": "bytes32",
          "name": "",
          "type": "bytes32"
        }
      ],
      "stateMutability": "view",
      "type": "function"
    },
    {
      "inputs": [],
      "name": "checkpointManager",
      "outputs": [
        {
          "internalType": "contract ICheckpointManager",
          "name": "",
          "type": "address"
        }
      ],
      "stateMutability": "view",
      "type": "function"
    },
    {
      "inputs": [],
      "name": "fxChildTunnel",
      "outputs": [
        {
          "internalType": "address",
          "name": "",
          "type": "address"
        }
      ],
      "stateMutability": "view",
      "type": "function"
    },
    {
      "inputs": [],
      "name": "fxRoot",
      "outputs": [
        {
          "internalType": "contract IFxStateSender",
          "name": "",
          "type": "address"
        }
      ],
      "stateMutability": "view",
      "type": "function"
    },
    {
      "inputs": [],
      "name": "owner",
      "outputs": [
        {
          "internalType": "address",
          "name": "",
          "type": "address"
        }
      ],
      "stateMutability": "view",
      "type": "function"
    },
    {
      "inputs": [
        {
          "internalType": "bytes32",
          "name": "",
          "type": "bytes32"
        }
      ],
      "name": "processedExits",
      "outputs": [
        {
          "internalType": "bool",
          "name": "",
          "type": "bool"
        }
      ],
      "stateMutability": "view",
      "type": "function"
    },
    {
      "inputs": [
        {
          "internalType": "bytes",
          "name": "inputData",
          "type": "bytes"
        }
      ],
      "name": "receiveMessage",
      "outputs": [],
      "stateMutability": "nonpayable",
      "type": "function"
    },
    {
      "inputs": [],
      "name": "renounceOwnership",
      "outputs": [],
      "stateMutability": "nonpayable",
      "type": "function"
    },
    {
      "inputs": [
        {
          "internalType": "address",
          "name": "_fxChildTunnel",
          "type": "address"
        }
      ],
      "name": "setFxChildTunnel",
      "outputs": [],
      "stateMutability": "nonpayable",
      "type": "function"
    },
    {
      "inputs": [
        {
          "internalType": "address",
          "name": "newOwner",
          "type": "address"
        }
      ],
      "name": "transferOwnership",
      "outputs": [],
      "stateMutability": "nonpayable",
      "type": "function"
    },
    {
      "inputs": [
        {
          "internalType": "address",
          "name": "to",
          "type": "address"
        },
        {
          "internalType": "bytes",
          "name": "data",
          "type": "bytes"
        }
      ],
      "name": "relayGovernance",
      "outputs": [],
      "stateMutability": "nonpayable",
      "type": "function"
    }
  ],
  "bytecode": "0x60806040523480156200001157600080fd5b50604051620024b1380380620024b18339810160408190526200003491620000d8565b600080546001600160a01b03191633908117825560405184928492918291907f8be0079c531659141344cd1fd0a4f28419497f9722a3daafe3b4186f6b6457e0908290a350600280546001600160a01b039384166001600160a01b031991821617909155600180549290931691161781556005805460ff19169091179055506200010f9050565b80516001600160a01b0381168114620000d357600080fd5b919050565b60008060408385031215620000eb578182fd5b620000f683620000bb565b91506200010660208401620000bb565b90509250929050565b612392806200011f6000396000f3fe608060405234801561001057600080fd5b50600436106100a95760003560e01c8063972c492811610071578063972c49281461015d578063aea4e49e14610170578063c0857ba014610183578063de9b771f14610196578063f2fde38b146101a9578063f953cec7146101bc57600080fd5b80630e387de6146100ae578063607f2d42146100e85780636296932d1461011b578063715018a6146101305780638da5cb5b14610138575b600080fd5b6100d57f8c5261668696ce22758910d05bab8f186d6eb247ceac2af2e82c7dc17669b03681565b6040519081526020015b60405180910390f35b61010b6100f6366004611eca565b60046020526000908152604090205460ff1681565b60405190151581526020016100df565b61012e610129366004611e7c565b6101cf565b005b61012e61029a565b6000546001600160a01b03165b6040516001600160a01b0390911681526020016100df565b600354610145906001600160a01b031681565b61012e61017e366004611e60565b61030e565b600254610145906001600160a01b031681565b600154610145906001600160a01b031681565b61012e6101b7366004611e60565b61039c565b61012e6101ca366004611f2e565b610486565b6101d7610496565b6101e66005805460ff19169055565b6000546001600160a01b031633146102195760405162461bcd60e51b815260040161021090612064565b60405180910390fd5b610243828260405160200161022f92919061202d565b6040516020818303038152906040526104ea565b816001600160a01b03167f887046c90d01e9c349ea73c35975920fcbb44c3c400f49e5c7c4b230a72526838260405161027c9190612051565b60405180910390a26102966005805460ff19166001179055565b5050565b6000546001600160a01b031633146102c45760405162461bcd60e51b815260040161021090612064565b600080546040516001600160a01b03909116907f8be0079c531659141344cd1fd0a4f28419497f9722a3daafe3b4186f6b6457e0908390a3600080546001600160a01b0319169055565b6003546001600160a01b03161561037a5760405162461bcd60e51b815260206004820152602a60248201527f467842617365526f6f7454756e6e656c3a204348494c445f54554e4e454c5f4160448201526913149150511657d4d15560b21b6064820152608401610210565b600380546001600160a01b0319166001600160a01b0392909216919091179055565b6000546001600160a01b031633146103c65760405162461bcd60e51b815260040161021090612064565b6001600160a01b03811661042b5760405162461bcd60e51b815260206004820152602660248201527f4f776e61626c653a206e6577206f776e657220697320746865207a65726f206160448201526564647265737360d01b6064820152608401610210565b600080546040516001600160a01b03808516939216917f8be0079c531659141344cd1fd0a4f28419497f9722a3daafe3b4186f6b6457e091a3600080546001600160a01b0319166001600160a01b0392909216919091179055565b600061049182610555565b505050565b60055460ff166104e85760405162461bcd60e51b815260206004820152601f60248201527f5265656e7472616e637947756172643a207265656e7472616e742063616c6c006044820152606401610210565b565b60015460035460405163b472047760e01b81526001600160a01b039283169263b47204779261052092911690859060040161202d565b600060405180830381600087803b15801561053a57600080fd5b505af115801561054e573d6000803e3d6000fd5b5050505050565b6060600061056a61056584610aec565b610b6f565b9050600061059f8260028151811061059257634e487b7160e01b600052603260045260246000fd5b6020026020010151610d57565b6105d86105d3846008815181106105c657634e487b7160e01b600052603260045260246000fd5b6020026020010151610ed1565b610fe3565b6105fc8460098151811061059257634e487b7160e01b600052603260045260246000fd5b60405160200161060e93929190612000565b60408051601f1981840301815291815281516020928301206000818152600490935291205490915060ff16156106925760405162461bcd60e51b8152602060048201526024808201527f4678526f6f7454756e6e656c3a20455849545f414c52454144595f50524f434560448201526314d4d15160e21b6064820152608401610210565b6000818152600460205260408120805460ff1916600117905582516106df90610565906106da90869060069081106105c657634e487b7160e01b600052603260045260246000fd5b610aec565b905060006107148260038151811061070757634e487b7160e01b600052603260045260246000fd5b6020026020010151610b6f565b6107388560098151811061059257634e487b7160e01b600052603260045260246000fd5b8151811061075657634e487b7160e01b600052603260045260246000fd5b60200260200101519050600061076b82610b6f565b905061079e8160008151811061079157634e487b7160e01b600052603260045260246000fd5b60200260200101516111da565b6003546001600160a01b039081169116146108095760405162461bcd60e51b815260206004820152602560248201527f4678526f6f7454756e6e656c3a20494e56414c49445f46585f4348494c445f54604482015264155393915360da1b6064820152608401610210565b6108a1610830866006815181106105c657634e487b7160e01b600052603260045260246000fd5b610854876008815181106105c657634e487b7160e01b600052603260045260246000fd5b610878886007815181106105c657634e487b7160e01b600052603260045260246000fd5b61089c8960058151811061059257634e487b7160e01b600052603260045260246000fd5b6112a2565b6108f95760405162461bcd60e51b815260206004820152602360248201527f4678526f6f7454756e6e656c3a20494e56414c49445f524543454950545f505260448201526227a7a360e91b6064820152608401610210565b6109df6109208660028151811061059257634e487b7160e01b600052603260045260246000fd5b6109448760038151811061059257634e487b7160e01b600052603260045260246000fd5b6109688860048151811061059257634e487b7160e01b600052603260045260246000fd5b60001b61098f8960058151811061059257634e487b7160e01b600052603260045260246000fd5b60001b6109b68a60008151811061059257634e487b7160e01b600052603260045260246000fd5b6109da8b6001815181106105c657634e487b7160e01b600052603260045260246000fd5b6115a1565b506000610a068260018151811061070757634e487b7160e01b600052603260045260246000fd5b90507f8c5261668696ce22758910d05bab8f186d6eb247ceac2af2e82c7dc17669b03660001b610a508260008151811061059257634e487b7160e01b600052603260045260246000fd5b14610a9d5760405162461bcd60e51b815260206004820152601f60248201527f4678526f6f7454756e6e656c3a20494e56414c49445f5349474e4154555245006044820152606401610210565b6000610ac3836002815181106105c657634e487b7160e01b600052603260045260246000fd5b9050600081806020019051810190610adb9190611f61565b9a9950505050505050505050565b50565b60408051808201909152600080825260208201526000825111610b515760405162461bcd60e51b815260206004820152601f60248201527f524c505265616465723a20494e56414c49445f42595445535f4c454e475448006044820152606401610210565b50604080518082019091528151815260209182019181019190915290565b6060610b7a826116d6565b610bc65760405162461bcd60e51b815260206004820152601860248201527f524c505265616465723a204954454d5f4e4f545f4c49535400000000000000006044820152606401610210565b6000610bd183611701565b905060008167ffffffffffffffff811115610bfc57634e487b7160e01b600052604160045260246000fd5b604051908082528060200260200182016040528015610c4157816020015b6040805180820190915260008082526020820152815260200190600190039081610c1a5790505b5090506000610c5385602001516117de565b85519091508114610cb65760405162461bcd60e51b815260206004820152602760248201527f524c505265616465723a204c4953545f4445434f4445445f4c454e4754485f4d604482015266092a69a82a886960cb1b6064820152608401610210565b6000610cc58660200151611887565b8660200151610cd491906120f2565b90506000805b85811015610d4b57610ceb836117de565b9150604051806040016040528083815260200184815250858281518110610d2257634e487b7160e01b600052603260045260246000fd5b6020908102919091010152610d3782846120f2565b925080610d43816122b4565b915050610cda565b50929695505050505050565b6000610d62826116d6565b15610daf5760405162461bcd60e51b815260206004820181905260248201527f524c505265616465723a204445434f44494e475f4c4953545f41535f55494e546044820152606401610210565b815160211015610e015760405162461bcd60e51b815260206004820152601e60248201527f524c505265616465723a20494e56414c49445f55494e545f4c454e47544800006044820152606401610210565b6000610e1083602001516117de565b83519091508114610e735760405162461bcd60e51b815260206004820152602760248201527f524c505265616465723a2055494e545f4445434f4445445f4c454e4754485f4d604482015266092a69a82a886960cb1b6064820152608401610210565b6000610e828460200151611887565b90506000818560000151610e96919061224a565b9050600080838760200151610eab91906120f2565b9050805191506020831015610ec757826020036101000a820491505b5095945050505050565b60606000610ee283602001516117de565b83519091508114610f465760405162461bcd60e51b815260206004820152602860248201527f524c505265616465723a2042595445535f4445434f4445445f4c454e4754485f60448201526709a92a69a82a886960c31b6064820152608401610210565b6000610f558460200151611887565b90506000818560000151610f69919061224a565b905060008167ffffffffffffffff811115610f9457634e487b7160e01b600052604160045260246000fd5b6040519080825280601f01601f191660200182016040528015610fbe576020820181803683370190505b5090506000816020019050610ec7848860200151610fdc91906120f2565b8285611909565b604080516020810190915260008152815160609190156111d45760008061100b60008661196c565b60f81c9050600181148061102257508060ff166003145b156110e657600185516002611037919061222b565b611041919061224a565b67ffffffffffffffff81111561106757634e487b7160e01b600052604160045260246000fd5b6040519080825280601f01601f191660200182016040528015611091576020820181803683370190505b50925060006110a160018761196c565b905080846000815181106110c557634e487b7160e01b600052603260045260246000fd5b60200101906001600160f81b031916908160001a9053506001925050611158565b6002855160026110f6919061222b565b611100919061224a565b67ffffffffffffffff81111561112657634e487b7160e01b600052604160045260246000fd5b6040519080825280601f01601f191660200182016040528015611150576020820181803683370190505b509250600091505b60ff82165b83518110156111d05761118761117660ff85168361224a565b6111819060026120f2565b8761196c565b8482815181106111a757634e487b7160e01b600052603260045260246000fd5b60200101906001600160f81b031916908160001a905350806111c8816122b4565b91505061115d565b5050505b92915050565b60006111e5826116d6565b1561123e5760405162461bcd60e51b815260206004820152602360248201527f524c505265616465723a204445434f44494e475f4c4953545f41535f4144445260448201526245535360e81b6064820152608401610210565b81516015146112995760405162461bcd60e51b815260206004820152602160248201527f524c505265616465723a20494e56414c49445f414444524553535f4c454e47546044820152600960fb1b6064820152608401610210565b6111d482610d57565b6000806112ae84610aec565b905060006112bb82610b6f565b9050606080856000806112cd8b610fe3565b90508051600014156112e9576000975050505050505050611599565b60005b865181101561159057815183111561130f57600098505050505050505050611599565b61133f87828151811061133257634e487b7160e01b600052603260045260246000fd5b6020026020010151611a09565b95508580519060200120841461136057600098505050505050505050611599565b61138387828151811061070757634e487b7160e01b600052603260045260246000fd5b94508451601114156114825781518314156113f3578c805190602001206113c4866010815181106105c657634e487b7160e01b600052603260045260246000fd5b8051906020012014156113e257600198505050505050505050611599565b600098505050505050505050611599565b600082848151811061141557634e487b7160e01b600052603260045260246000fd5b016020015160f81c9050601081111561143a5760009950505050505050505050611599565b61146d868260ff168151811061146057634e487b7160e01b600052603260045260246000fd5b6020026020010151611a80565b945061147a6001856120f2565b93505061157e565b8451600214156113e25760006114bc6114b5876000815181106105c657634e487b7160e01b600052603260045260246000fd5b8486611b77565b83519091506114cb82866120f2565b141561152e578d805190602001206114fd876001815181106105c657634e487b7160e01b600052603260045260246000fd5b80519060200120141561151c5760019950505050505050505050611599565b60009950505050505050505050611599565b806115455760009950505050505050505050611599565b61154f81856120f2565b93506115758660018151811061146057634e487b7160e01b600052603260045260246000fd5b945061157e9050565b80611588816122b4565b9150506112ec565b50505050505050505b949350505050565b6002546040516320a9cea560e11b8152600481018490526000918291829182916001600160a01b03909116906341539d4a9060240160a06040518083038186803b1580156115ee57600080fd5b505afa158015611602573d6000803e3d6000fd5b505050506040513d601f19601f820116820180604052508101906116269190611ee2565b509350509250925061167d828b61163d919061224a565b6040805160208082018f90528183018e9052606082018d905260808083018d90528351808403909101815260a09092019092528051910120908588611caa565b6116c95760405162461bcd60e51b815260206004820152601c60248201527f4678526f6f7454756e6e656c3a20494e56414c49445f484541444552000000006044820152606401610210565b9998505050505050505050565b6020810151805160009190821a9060c08210156116f7575060009392505050565b5060019392505050565b6000806000905060006117178460200151611887565b846020015161172691906120f2565b905060008460000151856020015161173e91906120f2565b90505b808210156117d557611752826117de565b61175c90836120f2565b9150808211156117c35760405162461bcd60e51b815260206004820152602c60248201527f524c505265616465723a204e554d5f4954454d535f4445434f4445445f4c454e60448201526b08ea890be9a92a69a82a886960a31b6064820152608401610210565b826117cd816122b4565b935050611741565b50909392505050565b80516000908190811a60808110156117f95760019150611880565b60b881101561181f5761180d60808261224a565b6118189060016120f2565b9150611880565b60c081101561184c5760b78103600185019450806020036101000a85510460018201810193505050611880565b60f88110156118605761180d60c08261224a565b60f78103600185019450806020036101000a855104600182018101935050505b5092915050565b8051600090811a60808110156118a05750600092915050565b60b88110806118bb575060c081108015906118bb575060f881105b156118c95750600192915050565b60c08110156118fd576118de600160b8612261565b6118eb9060ff168261224a565b6118f69060016120f2565b9392505050565b6118de600160f8612261565b8061191357505050565b6020811061194b578251825261192a6020846120f2565b92506119376020836120f2565b915061194460208261224a565b9050611913565b915181516020939093036101000a6000190180199091169216919091179052565b60006119796002846122cf565b156119c15760108261198c60028661210a565b815181106119aa57634e487b7160e01b600052603260045260246000fd5b01602001516119bc919060f81c6122e3565b6119ff565b6010826119cf60028661210a565b815181106119ed57634e487b7160e01b600052603260045260246000fd5b01602001516119ff919060f81c61211e565b60f81b9392505050565b60606000826000015167ffffffffffffffff811115611a3857634e487b7160e01b600052604160045260246000fd5b6040519080825280601f01601f191660200182016040528015611a62576020820181803683370190505b50905060008160200190506118808460200151828660000151611909565b600080611a9083602001516117de565b83519091508114611afa5760405162461bcd60e51b815260206004820152602e60248201527f524c505265616465723a2055494e545f5354524943545f4445434f4445445f4c60448201526d08a9c8ea890be9a92a69a82a886960931b6064820152608401610210565b8251602114611b595760405162461bcd60e51b815260206004820152602560248201527f524c505265616465723a20494e56414c49445f55494e545f5354524943545f4c60448201526408a9c8ea8960db1b6064820152608401610210565b60008084602001516001611b6d91906120f2565b5195945050505050565b60008080611b8486610fe3565b90506000815167ffffffffffffffff811115611bb057634e487b7160e01b600052604160045260246000fd5b6040519080825280601f01601f191660200182016040528015611bda576020820181803683370190505b509050845b8251611beb90876120f2565b811015611c7a576000878281518110611c1457634e487b7160e01b600052603260045260246000fd5b01602001516001600160f81b03191690508083611c31898561224a565b81518110611c4f57634e487b7160e01b600052603260045260246000fd5b60200101906001600160f81b031916908160001a905350508080611c72906122b4565b915050611bdf565b50808051906020012082805190602001201415611c9a5781519250611c9f565b600092505b509095945050505050565b600060208251611cba91906122cf565b15611cfe5760405162461bcd60e51b8152602060048201526014602482015273092dcecc2d8d2c840e0e4dedecc40d8cadccee8d60631b6044820152606401610210565b600060208351611d0e919061210a565b9050611d1b816002612183565b8510611d615760405162461bcd60e51b81526020600482015260156024820152744c65616620696e64657820697320746f6f2062696760581b6044820152606401610210565b60008660205b85518111611e0157858101519250611d806002896122cf565b611db5576040805160208101849052908101849052606001604051602081830303815290604052805190602001209150611de2565b60408051602081018590529081018390526060016040516020818303038152906040528051906020012091505b611ded60028961210a565b9750611dfa6020826120f2565b9050611d67565b509094149695505050505050565b600082601f830112611e1f578081fd5b8135611e32611e2d826120ca565b612099565b818152846020838601011115611e46578283fd5b816020850160208301379081016020019190915292915050565b600060208284031215611e71578081fd5b81356118f681612347565b60008060408385031215611e8e578081fd5b8235611e9981612347565b9150602083013567ffffffffffffffff811115611eb4578182fd5b611ec085828601611e0f565b9150509250929050565b600060208284031215611edb578081fd5b5035919050565b600080600080600060a08688031215611ef9578081fd5b855194506020860151935060408601519250606086015191506080860151611f2081612347565b809150509295509295909350565b600060208284031215611f3f578081fd5b813567ffffffffffffffff811115611f55578182fd5b61159984828501611e0f565b600060208284031215611f72578081fd5b815167ffffffffffffffff811115611f88578182fd5b8201601f81018413611f98578182fd5b8051611fa6611e2d826120ca565b818152856020838501011115611fba578384fd5b611fcb826020830160208601612284565b95945050505050565b60008151808452611fec816020860160208601612284565b601f01601f19169290920160200192915050565b83815260008351612018816020850160208801612284565b60209201918201929092526040019392505050565b6001600160a01b038316815260406020820181905260009061159990830184611fd4565b6020815260006118f66020830184611fd4565b6020808252818101527f4f776e61626c653a2063616c6c6572206973206e6f7420746865206f776e6572604082015260600190565b604051601f8201601f1916810167ffffffffffffffff811182821017156120c2576120c2612331565b604052919050565b600067ffffffffffffffff8211156120e4576120e4612331565b50601f01601f191660200190565b6000821982111561210557612105612305565b500190565b6000826121195761211961231b565b500490565b600060ff8316806121315761213161231b565b8060ff84160491505092915050565b600181815b8085111561217b57816000190482111561216157612161612305565b8085161561216e57918102915b93841c9390800290612145565b509250929050565b60006118f68383600082612199575060016111d4565b816121a6575060006111d4565b81600181146121bc57600281146121c6576121e2565b60019150506111d4565b60ff8411156121d7576121d7612305565b50506001821b6111d4565b5060208310610133831016604e8410600b8410161715612205575081810a6111d4565b61220f8383612140565b806000190482111561222357612223612305565b029392505050565b600081600019048311821515161561224557612245612305565b500290565b60008282101561225c5761225c612305565b500390565b600060ff821660ff84168082101561227b5761227b612305565b90039392505050565b60005b8381101561229f578181015183820152602001612287565b838111156122ae576000848401525b50505050565b60006000198214156122c8576122c8612305565b5060010190565b6000826122de576122de61231b565b500690565b600060ff8316806122f6576122f661231b565b8060ff84160691505092915050565b634e487b7160e01b600052601160045260246000fd5b634e487b7160e01b600052601260045260246000fd5b634e487b7160e01b600052604160045260246000fd5b6001600160a01b0381168114610ae957600080fdfea264697066735822122026149ae9ec7c8c84d18eabcf58a7467c3c9b4756d7472e44cf6054ab9bff1b8564736f6c63430008040033",
  "immutableReferences": {},
  "source": "// SPDX-License-Identifier: AGPL-3.0-only\npragma solidity ^0.8.0;\n\nimport \"@openzeppelin/contracts/access/Ownable.sol\";\nimport \"../external/polygon/tunnel/FxBaseRootTunnel.sol\";\nimport \"../common/implementation/Lockable.sol\";\n\n/**\n * @title Governance relayer contract to be deployed on Ethereum that receives messages from the owner (Governor) and\n * sends them to sidechain.\n */\ncontract GovernorRootTunnel is Ownable, FxBaseRootTunnel, Lockable {\n    event RelayedGovernanceRequest(address indexed to, bytes data);\n\n    constructor(address _checkpointManager, address _fxRoot) FxBaseRootTunnel(_checkpointManager, _fxRoot) {}\n\n    /**\n     * @notice This should be called in order to relay a governance request to the `GovernorChildTunnel` contract\n     * deployed to the sidechain. Note: this can only be called by the owner (presumably the Ethereum Governor\n     * contract).\n     * @dev The transaction submitted to `to` on the sidechain with the calldata `data` is assumed to have 0 `value`\n     * in order to avoid the added complexity of sending cross-chain transactions with positive value.\n     */\n    function relayGovernance(address to, bytes memory data) external nonReentrant() onlyOwner {\n        _sendMessageToChild(abi.encode(to, data));\n        emit RelayedGovernanceRequest(to, data);\n    }\n\n    /**\n     * @notice Function called as callback from child tunnel. Should not do anything as governance actions should only\n     * be sent from root to child.\n     */\n    function _processMessageFromChild(bytes memory data) internal override {\n        // no-op\n    }\n}\n",
  "sourcePath": "/home/circleci/protocol/packages/core/contracts/polygon/GovernorRootTunnel.sol",
  "compiler": {
    "name": "solc",
    "version": "0.8.4+commit.c7e474f2.Emscripten.clang"
  },
  "schemaVersion": "3.3.4",
  "updatedAt": "2021-07-16T20:27:10.132Z",
  "devdoc": {
    "kind": "dev",
    "methods": {
      "owner()": {
        "details": "Returns the address of the current owner."
      },
      "receiveMessage(bytes)": {
        "details": "This function verifies if the transaction actually happened on child chain",
        "params": {
          "inputData": "RLP encoded data of the reference tx containing following list of fields  0 - headerNumber - Checkpoint header block number containing the reference tx  1 - blockProof - Proof that the block header (in the child chain) is a leaf in the submitted merkle root  2 - blockNumber - Block number containing the reference tx on child chain  3 - blockTime - Reference tx block time  4 - txRoot - Transactions root of block  5 - receiptRoot - Receipts root of block  6 - receipt - Receipt of the reference transaction  7 - receiptProof - Merkle proof of the reference receipt  8 - branchMask - 32 bits denoting the path of receipt in merkle tree  9 - receiptLogIndex - Log Index to read from the receipt"
        }
      },
      "relayGovernance(address,bytes)": {
        "details": "The transaction submitted to `to` on the sidechain with the calldata `data` is assumed to have 0 `value` in order to avoid the added complexity of sending cross-chain transactions with positive value."
      },
      "renounceOwnership()": {
        "details": "Leaves the contract without owner. It will not be possible to call `onlyOwner` functions anymore. Can only be called by the current owner. NOTE: Renouncing ownership will leave the contract without an owner, thereby removing any functionality that is only available to the owner."
      },
      "transferOwnership(address)": {
        "details": "Transfers ownership of the contract to a new account (`newOwner`). Can only be called by the current owner."
      }
    },
    "title": "Governance relayer contract to be deployed on Ethereum that receives messages from the owner (Governor) and sends them to sidechain.",
    "version": 1
  },
  "userdoc": {
    "kind": "user",
    "methods": {
      "receiveMessage(bytes)": {
        "notice": "receive message from  L2 to L1, validated by proof"
      },
      "relayGovernance(address,bytes)": {
        "notice": "This should be called in order to relay a governance request to the `GovernorChildTunnel` contract deployed to the sidechain. Note: this can only be called by the owner (presumably the Ethereum Governor contract)."
      }
    },
    "version": 1
  }
}