{
  "contractName": "IdentifierWhitelist",
  "abi": [
    {
      "anonymous": false,
      "inputs": [
        {
          "indexed": true,
          "internalType": "address",
          "name": "previousOwner",
          "type": "address"
        },
        {
          "indexed": true,
          "internalType": "address",
          "name": "newOwner",
          "type": "address"
        }
      ],
      "name": "OwnershipTransferred",
      "type": "event"
    },
    {
      "anonymous": false,
      "inputs": [
        {
          "indexed": true,
          "internalType": "bytes32",
          "name": "identifier",
          "type": "bytes32"
        }
      ],
      "name": "SupportedIdentifierAdded",
      "type": "event"
    },
    {
      "anonymous": false,
      "inputs": [
        {
          "indexed": true,
          "internalType": "bytes32",
          "name": "identifier",
          "type": "bytes32"
        }
      ],
      "name": "SupportedIdentifierRemoved",
      "type": "event"
    },
    {
      "inputs": [],
      "name": "owner",
      "outputs": [
        {
          "internalType": "address",
          "name": "",
          "type": "address"
        }
      ],
      "stateMutability": "view",
      "type": "function"
    },
    {
      "inputs": [],
      "name": "renounceOwnership",
      "outputs": [],
      "stateMutability": "nonpayable",
      "type": "function"
    },
    {
      "inputs": [
        {
          "internalType": "address",
          "name": "newOwner",
          "type": "address"
        }
      ],
      "name": "transferOwnership",
      "outputs": [],
      "stateMutability": "nonpayable",
      "type": "function"
    },
    {
      "inputs": [
        {
          "internalType": "bytes32",
          "name": "identifier",
          "type": "bytes32"
        }
      ],
      "name": "addSupportedIdentifier",
      "outputs": [],
      "stateMutability": "nonpayable",
      "type": "function"
    },
    {
      "inputs": [
        {
          "internalType": "bytes32",
          "name": "identifier",
          "type": "bytes32"
        }
      ],
      "name": "removeSupportedIdentifier",
      "outputs": [],
      "stateMutability": "nonpayable",
      "type": "function"
    },
    {
      "inputs": [
        {
          "internalType": "bytes32",
          "name": "identifier",
          "type": "bytes32"
        }
      ],
      "name": "isIdentifierSupported",
      "outputs": [
        {
          "internalType": "bool",
          "name": "",
          "type": "bool"
        }
      ],
      "stateMutability": "view",
      "type": "function"
    }
  ],
  "bytecode": "0x608060405234801561001057600080fd5b50600080546001600160a01b031916339081178255604051909182917f8be0079c531659141344cd1fd0a4f28419497f9722a3daafe3b4186f6b6457e0908290a35061041d806100616000396000f3fe608060405234801561001057600080fd5b50600436106100625760003560e01c806310a7e20114610067578063715018a61461007c5780638da5cb5b146100845780638e0d3ca7146100a457806390978d1b146100b7578063f2fde38b146100ea575b600080fd5b61007a61007536600461039a565b6100fd565b005b61007a61018d565b6000546040516001600160a01b0390911681526020015b60405180910390f35b61007a6100b236600461039a565b610201565b6100da6100c536600461039a565b60009081526001602052604090205460ff1690565b604051901515815260200161009b565b61007a6100f836600461036c565b610282565b6000546001600160a01b031633146101305760405162461bcd60e51b8152600401610127906103b2565b60405180910390fd5b60008181526001602052604090205460ff1661018a576000818152600160208190526040808320805460ff19169092179091555182917fa0ca1076d765c13772089a90b5121cf6ddf63c9f7891c4e5031adbc85936b27691a25b50565b6000546001600160a01b031633146101b75760405162461bcd60e51b8152600401610127906103b2565b600080546040516001600160a01b03909116907f8be0079c531659141344cd1fd0a4f28419497f9722a3daafe3b4186f6b6457e0908390a3600080546001600160a01b0319169055565b6000546001600160a01b0316331461022b5760405162461bcd60e51b8152600401610127906103b2565b60008181526001602052604090205460ff161561018a57600081815260016020526040808220805460ff191690555182917fefdf15ca0f9402bd4e933b0edb0db65b23cc50d27cb010d8abcadaae4fa944e591a250565b6000546001600160a01b031633146102ac5760405162461bcd60e51b8152600401610127906103b2565b6001600160a01b0381166103115760405162461bcd60e51b815260206004820152602660248201527f4f776e61626c653a206e6577206f776e657220697320746865207a65726f206160448201526564647265737360d01b6064820152608401610127565b600080546040516001600160a01b03808516939216917f8be0079c531659141344cd1fd0a4f28419497f9722a3daafe3b4186f6b6457e091a3600080546001600160a01b0319166001600160a01b0392909216919091179055565b60006020828403121561037d578081fd5b81356001600160a01b0381168114610393578182fd5b9392505050565b6000602082840312156103ab578081fd5b5035919050565b6020808252818101527f4f776e61626c653a2063616c6c6572206973206e6f7420746865206f776e657260408201526060019056fea2646970667358221220b758eb36440825733d3658042a2c3fc57d57813c4788e4604a1e35a9d34b709364736f6c63430008040033",
  "immutableReferences": {},
  "source": "// SPDX-License-Identifier: AGPL-3.0-only\npragma solidity ^0.8.0;\n\nimport \"../interfaces/IdentifierWhitelistInterface.sol\";\nimport \"@openzeppelin/contracts/access/Ownable.sol\";\n\n/**\n * @title Stores a whitelist of supported identifiers that the oracle can provide prices for.\n */\ncontract IdentifierWhitelist is IdentifierWhitelistInterface, Ownable {\n    /****************************************\n     *     INTERNAL VARIABLES AND STORAGE   *\n     ****************************************/\n\n    mapping(bytes32 => bool) private supportedIdentifiers;\n\n    /****************************************\n     *                EVENTS                *\n     ****************************************/\n\n    event SupportedIdentifierAdded(bytes32 indexed identifier);\n    event SupportedIdentifierRemoved(bytes32 indexed identifier);\n\n    /****************************************\n     *    ADMIN STATE MODIFYING FUNCTIONS   *\n     ****************************************/\n\n    /**\n     * @notice Adds the provided identifier as a supported identifier.\n     * @dev Price requests using this identifier will succeed after this call.\n     * @param identifier unique UTF-8 representation for the feed being added. Eg: BTC/USD.\n     */\n    function addSupportedIdentifier(bytes32 identifier) external override onlyOwner {\n        if (!supportedIdentifiers[identifier]) {\n            supportedIdentifiers[identifier] = true;\n            emit SupportedIdentifierAdded(identifier);\n        }\n    }\n\n    /**\n     * @notice Removes the identifier from the whitelist.\n     * @dev Price requests using this identifier will no longer succeed after this call.\n     * @param identifier unique UTF-8 representation for the feed being removed. Eg: BTC/USD.\n     */\n    function removeSupportedIdentifier(bytes32 identifier) external override onlyOwner {\n        if (supportedIdentifiers[identifier]) {\n            supportedIdentifiers[identifier] = false;\n            emit SupportedIdentifierRemoved(identifier);\n        }\n    }\n\n    /****************************************\n     *     WHITELIST GETTERS FUNCTIONS      *\n     ****************************************/\n\n    /**\n     * @notice Checks whether an identifier is on the whitelist.\n     * @param identifier unique UTF-8 representation for the feed being queried. Eg: BTC/USD.\n     * @return bool if the identifier is supported (or not).\n     */\n    function isIdentifierSupported(bytes32 identifier) external view override returns (bool) {\n        return supportedIdentifiers[identifier];\n    }\n}\n",
  "sourcePath": "/home/circleci/protocol/packages/core/contracts/oracle/implementation/IdentifierWhitelist.sol",
  "compiler": {
    "name": "solc",
    "version": "0.8.4+commit.c7e474f2.Emscripten.clang"
  },
  "schemaVersion": "3.3.4",
  "updatedAt": "2021-07-16T20:27:09.987Z",
  "devdoc": {
    "kind": "dev",
    "methods": {
      "addSupportedIdentifier(bytes32)": {
        "details": "Price requests using this identifier will succeed after this call.",
        "params": {
          "identifier": "unique UTF-8 representation for the feed being added. Eg: BTC/USD."
        }
      },
      "isIdentifierSupported(bytes32)": {
        "params": {
          "identifier": "unique UTF-8 representation for the feed being queried. Eg: BTC/USD."
        },
        "returns": {
          "_0": "bool if the identifier is supported (or not)."
        }
      },
      "owner()": {
        "details": "Returns the address of the current owner."
      },
      "removeSupportedIdentifier(bytes32)": {
        "details": "Price requests using this identifier will no longer succeed after this call.",
        "params": {
          "identifier": "unique UTF-8 representation for the feed being removed. Eg: BTC/USD."
        }
      },
      "renounceOwnership()": {
        "details": "Leaves the contract without owner. It will not be possible to call `onlyOwner` functions anymore. Can only be called by the current owner. NOTE: Renouncing ownership will leave the contract without an owner, thereby removing any functionality that is only available to the owner."
      },
      "transferOwnership(address)": {
        "details": "Transfers ownership of the contract to a new account (`newOwner`). Can only be called by the current owner."
      }
    },
    "title": "Stores a whitelist of supported identifiers that the oracle can provide prices for.",
    "version": 1
  },
  "userdoc": {
    "kind": "user",
    "methods": {
      "addSupportedIdentifier(bytes32)": {
        "notice": "Adds the provided identifier as a supported identifier."
      },
      "isIdentifierSupported(bytes32)": {
        "notice": "Checks whether an identifier is on the whitelist."
      },
      "removeSupportedIdentifier(bytes32)": {
        "notice": "Removes the identifier from the whitelist."
      }
    },
    "version": 1
  }
}