{
  "contractName": "LinearLongShortPairFinancialProductLibrary",
  "abi": [
    {
      "inputs": [
        {
          "internalType": "address",
          "name": "",
          "type": "address"
        }
      ],
      "name": "longShortPairParameters",
      "outputs": [
        {
          "internalType": "int256",
          "name": "upperBound",
          "type": "int256"
        },
        {
          "internalType": "int256",
          "name": "lowerBound",
          "type": "int256"
        }
      ],
      "stateMutability": "view",
      "type": "function"
    },
    {
      "inputs": [
        {
          "internalType": "address",
          "name": "longShortPair",
          "type": "address"
        },
        {
          "internalType": "int256",
          "name": "upperBound",
          "type": "int256"
        },
        {
          "internalType": "int256",
          "name": "lowerBound",
          "type": "int256"
        }
      ],
      "name": "setLongShortPairParameters",
      "outputs": [],
      "stateMutability": "nonpayable",
      "type": "function"
    },
    {
      "inputs": [
        {
          "internalType": "int256",
          "name": "expiryPrice",
          "type": "int256"
        }
      ],
      "name": "percentageLongCollateralAtExpiry",
      "outputs": [
        {
          "internalType": "uint256",
          "name": "",
          "type": "uint256"
        }
      ],
      "stateMutability": "view",
      "type": "function"
    }
  ],
  "bytecode": "0x608060405234801561001057600080fd5b506000805460ff191660011790556105f88061002d6000396000f3fe608060405234801561001057600080fd5b50600436106100415760003560e01c806325110946146100465780632da523611461005b5780639299cbed14610081575b600080fd5b6100596100543660046104cc565b6100bd565b005b61006e6100693660046104fe565b61029e565b6040519081526020015b60405180910390f35b6100a861008f3660046104b2565b6001602081905260009182526040909120805491015482565b60408051928352602083019190915201610078565b6100c56103ae565b6100d46000805460ff19169055565b826001600160a01b0316639f43ddd26040518163ffffffff1660e01b815260040160206040518083038186803b15801561010d57600080fd5b505afa158015610121573d6000803e3d6000fd5b505050506040513d601f19601f820116820180604052508101906101459190610516565b61018c5760405162461bcd60e51b8152602060048201526013602482015272496e76616c6964204c5350206164647265737360681b60448201526064015b60405180910390fd5b8082136101cc5760405162461bcd60e51b815260206004820152600e60248201526d496e76616c696420626f756e647360901b6044820152606401610183565b6001600160a01b038316600090815260016020818152604092839020835180850190945280548085529201549083015215801561020b57506020810151155b6102505760405162461bcd60e51b815260206004820152601660248201527514185c985b595d195c9cc8185b1c9958591e481cd95d60521b6044820152606401610183565b5060408051808201825283815260208082018481526001600160a01b0387166000908152600192839052939093209151825591519101556102996000805460ff19166001179055565b505050565b60006102a86103ae565b3360009081526001602081815260409283902083518085019094528054808552920154908301521515806102df5750602081015115155b61032b5760405162461bcd60e51b815260206004820152601e60248201527f506172616d73206e6f742073657420666f722063616c6c696e67204c535000006044820152606401610183565b805183126103475761033d6001610402565b5191506103a99050565b8060200151831361035c5761033d6000610402565b6103a460405180602001604052808360200151846000015161037e919061056d565b815250604051806020016040528084602001518761039c919061056d565b905290610437565b519150505b919050565b60005460ff166104005760405162461bcd60e51b815260206004820152601f60248201527f5265656e7472616e637947756172643a207265656e7472616e742063616c6c006044820152606401610183565b565b60408051602081019091526000815260408051602081019091528061042f84670de0b6b3a764000061047c565b905292915050565b60408051602081019091526000815260408051602081019091528251845182916104739161046d90670de0b6b3a764000061047c565b9061048f565b90529392505050565b6000610488828461054e565b9392505050565b6000610488828461052e565b80356001600160a01b03811681146103a957600080fd5b6000602082840312156104c3578081fd5b6104888261049b565b6000806000606084860312156104e0578182fd5b6104e98461049b565b95602085013595506040909401359392505050565b60006020828403121561050f578081fd5b5035919050565b600060208284031215610527578081fd5b5051919050565b60008261054957634e487b7160e01b81526012600452602481fd5b500490565b6000816000190483118215151615610568576105686105ac565b500290565b60008083128015600160ff1b85018412161561058b5761058b6105ac565b6001600160ff1b03840183138116156105a6576105a66105ac565b50500390565b634e487b7160e01b600052601160045260246000fdfea26469706673582212205b63d9f24e08f4271d321e878c6be050fdbc51cedbfde4572ab48d65de5720d664736f6c63430008040033",
  "immutableReferences": {},
  "source": "// SPDX-License-Identifier: AGPL-3.0-only\npragma solidity ^0.8.0;\n\nimport \"@openzeppelin/contracts/utils/math/SignedSafeMath.sol\";\n\nimport \"./LongShortPairFinancialProductLibrary.sol\";\nimport \"../../../../common/implementation/Lockable.sol\";\n\n/**\n * @title Linear Long Short Pair Financial Product Library.\n * @notice Adds settlement logic to create linear LSPs. The contract will payout a scaled amount of collateral\n * depending on where the settlement price lands within a price range between an upperBound and a lowerBound. If\n * settlement price is within the price range then the expiryPercentLong is defined by\n * (expiryPrice - lowerBound) / (upperBound - lowerBound). This number represent the amount of collateral from the\n * collateralPerPair that will be sent to the long and short side. If the price is higher than the upperBound then\n * expiryPercentLong = 1. if the price is lower than the lower bound then expiryPercentLong = 0. For example, consider\n * a linear LSP on the price of ETH collateralized in USDC with an upperBound = 4000 and lowerBound = 2000 with a\n * collateralPerPair of 1000 (i.e each pair of long and shorts is worth 1000 USDC). At settlement the expiryPercentLong\n * would equal 1 (each long worth 1000 and short worth 0) if ETH price was > 4000 and it would equal 0 if < 2000\n * (each long is worthless and each short is worth 1000). If between the two (say 3500) then expiryPercentLong\n * = (3500 - 2000) / (4000 - 2000) = 0.75. Therefore each long is worth 750 and each short is worth 250.\n */\ncontract LinearLongShortPairFinancialProductLibrary is LongShortPairFinancialProductLibrary, Lockable {\n    using FixedPoint for FixedPoint.Unsigned;\n    using SignedSafeMath for int256;\n\n    struct LinearLongShortPairParameters {\n        int256 upperBound;\n        int256 lowerBound;\n    }\n\n    mapping(address => LinearLongShortPairParameters) public longShortPairParameters;\n\n    /**\n     * @notice Enables any address to set the parameters for an associated financial product.\n     * @param longShortPair address of the LSP contract.\n     * @param upperBound the upper price that the linear LSP will operate within.\n     * @param lowerBound the lower price that the linear LSP will operate within.\n     * @dev Note: a) Any address can set these parameters b) existing LSP parameters for address not set.\n     * c) upperBound > lowerBound.\n     * d) parameters can only be set once to prevent the deployer from changing the parameters after the fact.\n     * e) For safety, parameters should be set before depositing any synthetic tokens in a liquidity pool.\n     * f) longShortPair must expose an expirationTimestamp method to validate it is correctly deployed.\n     */\n    function setLongShortPairParameters(\n        address longShortPair,\n        int256 upperBound,\n        int256 lowerBound\n    ) public nonReentrant() {\n        require(ExpiringContractInterface(longShortPair).expirationTimestamp() != 0, \"Invalid LSP address\");\n        require(upperBound > lowerBound, \"Invalid bounds\");\n\n        LinearLongShortPairParameters memory params = longShortPairParameters[longShortPair];\n        require(params.upperBound == 0 && params.lowerBound == 0, \"Parameters already set\");\n\n        longShortPairParameters[longShortPair] = LinearLongShortPairParameters({\n            upperBound: upperBound,\n            lowerBound: lowerBound\n        });\n    }\n\n    /**\n     * @notice Returns a number between 0 and 1e18 to indicate how much collateral each long and short token is entitled\n     * to per collateralPerPair.\n     * @param expiryPrice price from the optimistic oracle for the LSP price identifier.\n     * @return expiryPercentLong to indicate how much collateral should be sent between long and short tokens.\n     */\n    function percentageLongCollateralAtExpiry(int256 expiryPrice)\n        public\n        view\n        override\n        nonReentrantView()\n        returns (uint256)\n    {\n        LinearLongShortPairParameters memory params = longShortPairParameters[msg.sender];\n        require(params.upperBound != 0 || params.lowerBound != 0, \"Params not set for calling LSP\");\n\n        if (expiryPrice >= params.upperBound) return FixedPoint.fromUnscaledUint(1).rawValue;\n\n        if (expiryPrice <= params.lowerBound) return FixedPoint.fromUnscaledUint(0).rawValue;\n\n        // if not exceeding bounds, expiryPercentLong = (expiryPrice - lowerBound) / (upperBound - lowerBound)\n        return\n            FixedPoint\n                .Unsigned(uint256(expiryPrice - params.lowerBound))\n                .div(FixedPoint.Unsigned(uint256(params.upperBound - params.lowerBound)))\n                .rawValue;\n    }\n}\n",
  "sourcePath": "/home/circleci/protocol/packages/core/contracts/financial-templates/common/financial-product-libraries/long-short-pair-libraries/LinearLongShortPairFinancialProductLibrary.sol",
  "compiler": {
    "name": "solc",
    "version": "0.8.4+commit.c7e474f2.Emscripten.clang"
  },
  "schemaVersion": "3.3.4",
  "updatedAt": "2021-07-16T20:27:09.758Z",
  "devdoc": {
    "kind": "dev",
    "methods": {
      "percentageLongCollateralAtExpiry(int256)": {
        "params": {
          "expiryPrice": "price from the optimistic oracle for the LSP price identifier."
        },
        "returns": {
          "_0": "expiryPercentLong to indicate how much collateral should be sent between long and short tokens."
        }
      },
      "setLongShortPairParameters(address,int256,int256)": {
        "details": "Note: a) Any address can set these parameters b) existing LSP parameters for address not set. c) upperBound > lowerBound. d) parameters can only be set once to prevent the deployer from changing the parameters after the fact. e) For safety, parameters should be set before depositing any synthetic tokens in a liquidity pool. f) longShortPair must expose an expirationTimestamp method to validate it is correctly deployed.",
        "params": {
          "longShortPair": "address of the LSP contract.",
          "lowerBound": "the lower price that the linear LSP will operate within.",
          "upperBound": "the upper price that the linear LSP will operate within."
        }
      }
    },
    "title": "Linear Long Short Pair Financial Product Library.",
    "version": 1
  },
  "userdoc": {
    "kind": "user",
    "methods": {
      "percentageLongCollateralAtExpiry(int256)": {
        "notice": "Returns a number between 0 and 1e18 to indicate how much collateral each long and short token is entitled to per collateralPerPair."
      },
      "setLongShortPairParameters(address,int256,int256)": {
        "notice": "Enables any address to set the parameters for an associated financial product."
      }
    },
    "notice": "Adds settlement logic to create linear LSPs. The contract will payout a scaled amount of collateral depending on where the settlement price lands within a price range between an upperBound and a lowerBound. If settlement price is within the price range then the expiryPercentLong is defined by (expiryPrice - lowerBound) / (upperBound - lowerBound). This number represent the amount of collateral from the collateralPerPair that will be sent to the long and short side. If the price is higher than the upperBound then expiryPercentLong = 1. if the price is lower than the lower bound then expiryPercentLong = 0. For example, consider a linear LSP on the price of ETH collateralized in USDC with an upperBound = 4000 and lowerBound = 2000 with a collateralPerPair of 1000 (i.e each pair of long and shorts is worth 1000 USDC). At settlement the expiryPercentLong would equal 1 (each long worth 1000 and short worth 0) if ETH price was > 4000 and it would equal 0 if < 2000 (each long is worthless and each short is worth 1000). If between the two (say 3500) then expiryPercentLong = (3500 - 2000) / (4000 - 2000) = 0.75. Therefore each long is worth 750 and each short is worth 250.",
    "version": 1
  }
}