{
  "contractName": "LongShortPair",
  "abi": [
    {
      "inputs": [
        {
          "components": [
            {
              "internalType": "string",
              "name": "pairName",
              "type": "string"
            },
            {
              "internalType": "uint64",
              "name": "expirationTimestamp",
              "type": "uint64"
            },
            {
              "internalType": "uint256",
              "name": "collateralPerPair",
              "type": "uint256"
            },
            {
              "internalType": "bytes32",
              "name": "priceIdentifier",
              "type": "bytes32"
            },
            {
              "internalType": "contract ExpandedIERC20",
              "name": "longToken",
              "type": "address"
            },
            {
              "internalType": "contract ExpandedIERC20",
              "name": "shortToken",
              "type": "address"
            },
            {
              "internalType": "contract IERC20",
              "name": "collateralToken",
              "type": "address"
            },
            {
              "internalType": "contract LongShortPairFinancialProductLibrary",
              "name": "financialProductLibrary",
              "type": "address"
            },
            {
              "internalType": "bytes",
              "name": "customAncillaryData",
              "type": "bytes"
            },
            {
              "internalType": "uint256",
              "name": "prepaidProposerReward",
              "type": "uint256"
            },
            {
              "internalType": "uint256",
              "name": "optimisticOracleLivenessTime",
              "type": "uint256"
            },
            {
              "internalType": "uint256",
              "name": "optimisticOracleProposerBond",
              "type": "uint256"
            },
            {
              "internalType": "contract FinderInterface",
              "name": "finder",
              "type": "address"
            },
            {
              "internalType": "address",
              "name": "timerAddress",
              "type": "address"
            }
          ],
          "internalType": "struct LongShortPair.ConstructorParams",
          "name": "params",
          "type": "tuple"
        }
      ],
      "stateMutability": "nonpayable",
      "type": "constructor"
    },
    {
      "anonymous": false,
      "inputs": [
        {
          "indexed": true,
          "internalType": "address",
          "name": "caller",
          "type": "address"
        }
      ],
      "name": "ContractExpired",
      "type": "event"
    },
    {
      "anonymous": false,
      "inputs": [
        {
          "indexed": true,
          "internalType": "address",
          "name": "sponsor",
          "type": "address"
        },
        {
          "indexed": false,
          "internalType": "uint256",
          "name": "collateralReturned",
          "type": "uint256"
        },
        {
          "indexed": false,
          "internalType": "uint256",
          "name": "longTokens",
          "type": "uint256"
        },
        {
          "indexed": false,
          "internalType": "uint256",
          "name": "shortTokens",
          "type": "uint256"
        }
      ],
      "name": "PositionSettled",
      "type": "event"
    },
    {
      "anonymous": false,
      "inputs": [
        {
          "indexed": true,
          "internalType": "address",
          "name": "sponsor",
          "type": "address"
        },
        {
          "indexed": true,
          "internalType": "uint256",
          "name": "collateralUsed",
          "type": "uint256"
        },
        {
          "indexed": true,
          "internalType": "uint256",
          "name": "tokensMinted",
          "type": "uint256"
        }
      ],
      "name": "TokensCreated",
      "type": "event"
    },
    {
      "anonymous": false,
      "inputs": [
        {
          "indexed": true,
          "internalType": "address",
          "name": "sponsor",
          "type": "address"
        },
        {
          "indexed": true,
          "internalType": "uint256",
          "name": "collateralReturned",
          "type": "uint256"
        },
        {
          "indexed": true,
          "internalType": "uint256",
          "name": "tokensRedeemed",
          "type": "uint256"
        }
      ],
      "name": "TokensRedeemed",
      "type": "event"
    },
    {
      "inputs": [],
      "name": "collateralPerPair",
      "outputs": [
        {
          "internalType": "uint256",
          "name": "",
          "type": "uint256"
        }
      ],
      "stateMutability": "view",
      "type": "function"
    },
    {
      "inputs": [],
      "name": "collateralToken",
      "outputs": [
        {
          "internalType": "contract IERC20",
          "name": "",
          "type": "address"
        }
      ],
      "stateMutability": "view",
      "type": "function"
    },
    {
      "inputs": [],
      "name": "contractState",
      "outputs": [
        {
          "internalType": "enum LongShortPair.ContractState",
          "name": "",
          "type": "uint8"
        }
      ],
      "stateMutability": "view",
      "type": "function"
    },
    {
      "inputs": [],
      "name": "customAncillaryData",
      "outputs": [
        {
          "internalType": "bytes",
          "name": "",
          "type": "bytes"
        }
      ],
      "stateMutability": "view",
      "type": "function"
    },
    {
      "inputs": [],
      "name": "expirationTimestamp",
      "outputs": [
        {
          "internalType": "uint64",
          "name": "",
          "type": "uint64"
        }
      ],
      "stateMutability": "view",
      "type": "function"
    },
    {
      "inputs": [],
      "name": "expiryPercentLong",
      "outputs": [
        {
          "internalType": "uint256",
          "name": "",
          "type": "uint256"
        }
      ],
      "stateMutability": "view",
      "type": "function"
    },
    {
      "inputs": [],
      "name": "expiryPrice",
      "outputs": [
        {
          "internalType": "int256",
          "name": "",
          "type": "int256"
        }
      ],
      "stateMutability": "view",
      "type": "function"
    },
    {
      "inputs": [],
      "name": "financialProductLibrary",
      "outputs": [
        {
          "internalType": "contract LongShortPairFinancialProductLibrary",
          "name": "",
          "type": "address"
        }
      ],
      "stateMutability": "view",
      "type": "function"
    },
    {
      "inputs": [],
      "name": "finder",
      "outputs": [
        {
          "internalType": "contract FinderInterface",
          "name": "",
          "type": "address"
        }
      ],
      "stateMutability": "view",
      "type": "function"
    },
    {
      "inputs": [],
      "name": "getCurrentTime",
      "outputs": [
        {
          "internalType": "uint256",
          "name": "",
          "type": "uint256"
        }
      ],
      "stateMutability": "view",
      "type": "function"
    },
    {
      "inputs": [],
      "name": "longToken",
      "outputs": [
        {
          "internalType": "contract ExpandedIERC20",
          "name": "",
          "type": "address"
        }
      ],
      "stateMutability": "view",
      "type": "function"
    },
    {
      "inputs": [],
      "name": "optimisticOracleLivenessTime",
      "outputs": [
        {
          "internalType": "uint256",
          "name": "",
          "type": "uint256"
        }
      ],
      "stateMutability": "view",
      "type": "function"
    },
    {
      "inputs": [],
      "name": "optimisticOracleProposerBond",
      "outputs": [
        {
          "internalType": "uint256",
          "name": "",
          "type": "uint256"
        }
      ],
      "stateMutability": "view",
      "type": "function"
    },
    {
      "inputs": [],
      "name": "pairName",
      "outputs": [
        {
          "internalType": "string",
          "name": "",
          "type": "string"
        }
      ],
      "stateMutability": "view",
      "type": "function"
    },
    {
      "inputs": [],
      "name": "prepaidProposerReward",
      "outputs": [
        {
          "internalType": "uint256",
          "name": "",
          "type": "uint256"
        }
      ],
      "stateMutability": "view",
      "type": "function"
    },
    {
      "inputs": [],
      "name": "priceIdentifier",
      "outputs": [
        {
          "internalType": "bytes32",
          "name": "",
          "type": "bytes32"
        }
      ],
      "stateMutability": "view",
      "type": "function"
    },
    {
      "inputs": [
        {
          "internalType": "uint256",
          "name": "time",
          "type": "uint256"
        }
      ],
      "name": "setCurrentTime",
      "outputs": [],
      "stateMutability": "nonpayable",
      "type": "function"
    },
    {
      "inputs": [],
      "name": "shortToken",
      "outputs": [
        {
          "internalType": "contract ExpandedIERC20",
          "name": "",
          "type": "address"
        }
      ],
      "stateMutability": "view",
      "type": "function"
    },
    {
      "inputs": [],
      "name": "timerAddress",
      "outputs": [
        {
          "internalType": "address",
          "name": "",
          "type": "address"
        }
      ],
      "stateMutability": "view",
      "type": "function"
    },
    {
      "inputs": [
        {
          "internalType": "uint256",
          "name": "tokensToCreate",
          "type": "uint256"
        }
      ],
      "name": "create",
      "outputs": [
        {
          "internalType": "uint256",
          "name": "collateralUsed",
          "type": "uint256"
        }
      ],
      "stateMutability": "nonpayable",
      "type": "function"
    },
    {
      "inputs": [
        {
          "internalType": "uint256",
          "name": "tokensToRedeem",
          "type": "uint256"
        }
      ],
      "name": "redeem",
      "outputs": [
        {
          "internalType": "uint256",
          "name": "collateralReturned",
          "type": "uint256"
        }
      ],
      "stateMutability": "nonpayable",
      "type": "function"
    },
    {
      "inputs": [
        {
          "internalType": "uint256",
          "name": "longTokensToRedeem",
          "type": "uint256"
        },
        {
          "internalType": "uint256",
          "name": "shortTokensToRedeem",
          "type": "uint256"
        }
      ],
      "name": "settle",
      "outputs": [
        {
          "internalType": "uint256",
          "name": "collateralReturned",
          "type": "uint256"
        }
      ],
      "stateMutability": "nonpayable",
      "type": "function"
    },
    {
      "inputs": [],
      "name": "expire",
      "outputs": [],
      "stateMutability": "nonpayable",
      "type": "function"
    },
    {
      "inputs": [
        {
          "internalType": "address",
          "name": "sponsor",
          "type": "address"
        }
      ],
      "name": "getPositionTokens",
      "outputs": [
        {
          "internalType": "uint256",
          "name": "",
          "type": "uint256"
        },
        {
          "internalType": "uint256",
          "name": "",
          "type": "uint256"
        }
      ],
      "stateMutability": "view",
      "type": "function"
    }
  ],
  "bytecode": "0x60806040523480156200001157600080fd5b50604051620029ab380380620029ab833981016040819052620000349162000abe565b6101a0810151600080546001600160a81b0319166001600160a01b0392831617600160a01b17905561018082015160098054919092166001600160a01b031991909116179055805151620000cf5760405162461bcd60e51b815260206004820152601760248201527f50616972206e616d652063616e7420626520656d70747900000000000000000060448201526064015b60405180910390fd5b620000d9620006fc565b81602001516001600160401b031611620001365760405162461bcd60e51b815260206004820152601c60248201527f45787069726174696f6e2074696d657374616d7020696e2070617374000000006044820152606401620000c6565b60008160400151116200018c5760405162461bcd60e51b815260206004820152601f60248201527f436f6c6c61746572616c2070657220706169722063616e6e6f742062652030006044820152606401620000c6565b62000196620007a1565b6001600160a01b03166390978d1b82606001516040518263ffffffff1660e01b8152600401620001c891815260200190565b60206040518083038186803b158015620001e157600080fd5b505afa158015620001f6573d6000803e3d6000fd5b505050506040513d601f19601f820116820180604052508101906200021c919062000a5e565b6200026a5760405162461bcd60e51b815260206004820152601960248201527f4964656e746966696572206e6f742072656769737465726564000000000000006044820152606401620000c6565b60006200027662000842565b6001600160a01b03161415620002c05760405162461bcd60e51b815260206004820152600e60248201526d24b73b30b634b2103334b73232b960911b6044820152606401620000c6565b60e08101516001600160a01b03166200031c5760405162461bcd60e51b815260206004820152601f60248201527f496e76616c69642046696e616e6369616c50726f647563744c696272617279006044820152606401620000c6565b6200032662000887565b60c0820151604051631d1d5b3960e11b81526001600160a01b039182166004820152911690633a3ab6729060240160206040518083038186803b1580156200036d57600080fd5b505afa15801562000382573d6000803e3d6000fd5b505050506040513d601f19601f82011682018060405250810190620003a8919062000a5e565b620003f65760405162461bcd60e51b815260206004820152601a60248201527f436f6c6c61746572616c206e6f742077686974656c69737465640000000000006044820152606401620000c6565b6000816101400151116200044d5760405162461bcd60e51b815260206004820152601760248201527f4f4f206c6976656e6573732063616e6e6f7420626520300000000000000000006044820152606401620000c6565b63bb74480081610140015110620004a75760405162461bcd60e51b815260206004820152601560248201527f4f4f206c6976656e65737320746f6f206c6172676500000000000000000000006044820152606401620000c6565b80518051620004bf91600191602090910190620008d9565b506020810151600080546001600160401b03909216600160b01b02600160b01b600160f01b0319909216919091178155604082015160025560608201516005556080820151600780546001600160a01b039283166001600160a01b03199182161790915560a08401516008805491841691831691909117905560c08401516006805491841691831691909117905560e0840151600a80549190931691161790556200056962000842565b9050806001600160a01b031663c371dda76040518163ffffffff1660e01b815260040160206040518083038186803b158015620005a557600080fd5b505afa158015620005ba573d6000803e3d6000fd5b505050506040513d601f19601f82011682018060405250810190620005e0919062000c1b565b61010083015160405163af5d2f3960e01b81526001600160a01b0384169163af5d2f3991620006159190309060040162000c34565b60006040518083038186803b1580156200062e57600080fd5b505afa15801562000643573d6000803e3d6000fd5b505050506040513d6000823e601f3d908101601f191682016040526200066d919081019062000a80565b511115620006be5760405162461bcd60e51b815260206004820152601760248201527f416e63696c6c617279204461746120746f6f206c6f6e670000000000000000006044820152606401620000c6565b6101008201518051620006da91600b91602090910190620008d9565b5050610120810151600c55610140810151600d556101600151600e5562000d45565b600080546001600160a01b0316156200079c5760008054906101000a90046001600160a01b03166001600160a01b03166329cb924d6040518163ffffffff1660e01b815260040160206040518083038186803b1580156200075c57600080fd5b505afa15801562000771573d6000803e3d6000fd5b505050506040513d601f19601f8201168201806040525081019062000797919062000c1b565b905090565b504290565b6009546040516302abf57960e61b81527f4964656e74696669657257686974656c6973740000000000000000000000000060048201526000916001600160a01b03169063aafd5e40906024015b60206040518083038186803b1580156200080757600080fd5b505afa1580156200081c573d6000803e3d6000fd5b505050506040513d601f19601f8201168201806040525081019062000797919062000a38565b6009546040516302abf57960e61b81526f4f7074696d69737469634f7261636c6560801b60048201526000916001600160a01b03169063aafd5e4090602401620007ee565b6009546040516302abf57960e61b81527f436f6c6c61746572616c57686974656c6973740000000000000000000000000060048201526000916001600160a01b03169063aafd5e4090602401620007ee565b828054620008e79062000cd9565b90600052602060002090601f0160209004810192826200090b576000855562000956565b82601f106200092657805160ff191683800117855562000956565b8280016001018555821562000956579182015b828111156200095657825182559160200191906001019062000939565b506200096492915062000968565b5090565b5b8082111562000964576000815560010162000969565b80516200098c8162000d2c565b919050565b600082601f830112620009a2578081fd5b81516001600160401b0380821115620009bf57620009bf62000d16565b604051601f8301601f19908116603f01168101908282118183101715620009ea57620009ea62000d16565b8160405283815286602085880101111562000a03578485fd5b62000a1684602083016020890162000ca6565b9695505050505050565b80516001600160401b03811681146200098c57600080fd5b60006020828403121562000a4a578081fd5b815162000a578162000d2c565b9392505050565b60006020828403121562000a70578081fd5b8151801515811462000a57578182fd5b60006020828403121562000a92578081fd5b81516001600160401b0381111562000aa8578182fd5b62000ab68482850162000991565b949350505050565b60006020828403121562000ad0578081fd5b81516001600160401b038082111562000ae7578283fd5b908301906101c0828603121562000afc578283fd5b62000b0662000c7a565b82518281111562000b15578485fd5b62000b238782860162000991565b82525062000b346020840162000a20565b6020820152604083015160408201526060830151606082015262000b5b608084016200097f565b608082015262000b6e60a084016200097f565b60a082015262000b8160c084016200097f565b60c082015262000b9460e084016200097f565b60e0820152610100808401518381111562000bad578586fd5b62000bbb8882870162000991565b9183019190915250610120838101519082015261014080840151908201526101608084015190820152610180915062000bf68284016200097f565b828201526101a0915062000c0c8284016200097f565b91810191909152949350505050565b60006020828403121562000c2d578081fd5b5051919050565b604081526000835180604084015262000c5581606085016020880162000ca6565b6001600160a01b0393909316602083015250601f91909101601f191601606001919050565b6040516101c081016001600160401b038111828210171562000ca05762000ca062000d16565b60405290565b60005b8381101562000cc357818101518382015260200162000ca9565b8381111562000cd3576000848401525b50505050565b600181811c9082168062000cee57607f821691505b6020821081141562000d1057634e487b7160e01b600052602260045260246000fd5b50919050565b634e487b7160e01b600052604160045260246000fd5b6001600160a01b038116811462000d4257600080fd5b50565b611c568062000d556000396000f3fe608060405234801561001057600080fd5b50600436106101585760003560e01c806397523661116100c3578063b9a3c84c1161007c578063b9a3c84c146102dd578063b9fd36c8146102f0578063db006a75146102f9578063e3065da71461030c578063e964ae021461031f578063edfa9a9b1461032857600080fd5b8063975236611461025e5780639a9c29f6146102675780639f43ddd21461027a578063a9ae29df146102ae578063b2016bd4146102b7578063b66333cd146102ca57600080fd5b8063780900dc11610115578063780900dc146101fe57806379599f96146102115780638150fd3d1461021957806385209ee01461022157806385c98474146102425780639375f0e91461024b57600080fd5b80631c39c38d1461015d57806322f8e5661461018d57806329cb924d146101a257806340794c3b146101b85780634eef4a73146101cd5780634fe4ecbf146101f5575b600080fd5b600054610170906001600160a01b031681565b6040516001600160a01b0390911681526020015b60405180910390f35b6101a061019b3660046118c6565b610331565b005b6101aa6103a7565b604051908152602001610184565b6101c0610447565b6040516101849190611ac4565b6101e06101db366004611856565b6104d5565b60408051928352602083019190915201610184565b6101aa600d5481565b6101aa61020c3660046118c6565b6105e3565b6101a0610803565b6101c061094a565b60005461023590600160a81b900460ff1681565b6040516101849190611ad7565b6101aa600e5481565b600a54610170906001600160a01b031681565b6101aa60055481565b6101aa6102753660046118de565b610957565b60005461029590600160b01b900467ffffffffffffffff1681565b60405167ffffffffffffffff9091168152602001610184565b6101aa60045481565b600654610170906001600160a01b031681565b600754610170906001600160a01b031681565b600954610170906001600160a01b031681565b6101aa600c5481565b6101aa6103073660046118c6565b610d6b565b600854610170906001600160a01b031681565b6101aa60025481565b6101aa60035481565b6000546001600160a01b031661034657600080fd5b60005460405163117c72b360e11b8152600481018390526001600160a01b03909116906322f8e56690602401600060405180830381600087803b15801561038c57600080fd5b505af11580156103a0573d6000803e3d6000fd5b5050505050565b600080546001600160a01b0316156104425760008054906101000a90046001600160a01b03166001600160a01b03166329cb924d6040518163ffffffff1660e01b815260040160206040518083038186803b15801561040557600080fd5b505afa158015610419573d6000803e3d6000fd5b505050506040513d601f19601f8201168201806040525081019061043d91906118ae565b905090565b504290565b6001805461045490611b8d565b80601f016020809104026020016040519081016040528092919081815260200182805461048090611b8d565b80156104cd5780601f106104a2576101008083540402835291602001916104cd565b820191906000526020600020905b8154815290600101906020018083116104b057829003601f168201915b505050505081565b6000806104e0610f18565b6007546040516370a0823160e01b81526001600160a01b038581166004830152909116906370a082319060240160206040518083038186803b15801561052557600080fd5b505afa158015610539573d6000803e3d6000fd5b505050506040513d601f19601f8201168201806040525081019061055d91906118ae565b6008546040516370a0823160e01b81526001600160a01b038681166004830152909116906370a082319060240160206040518083038186803b1580156105a257600080fd5b505afa1580156105b6573d6000803e3d6000fd5b505050506040513d601f19601f820116820180604052508101906105da91906118ae565b91509150915091565b60008054600160b01b900467ffffffffffffffff166106006103a7565b106106525760405162461bcd60e51b815260206004820152601860248201527f4f6e6c792063616c6c61626c65207072652d657870697279000000000000000060448201526064015b60405180910390fd5b61065a610f18565b61066c6000805460ff60a01b19169055565b6040805160208082018352600254825282519081019092528382526106919190610f71565b516006549091506106ad906001600160a01b0316333084610fff565b6007546040516340c10f1960e01b8152336004820152602481018490526001600160a01b03909116906340c10f1990604401602060405180830381600087803b1580156106f957600080fd5b505af115801561070d573d6000803e3d6000fd5b505050506040513d601f19601f82011682018060405250810190610731919061188e565b61073a57600080fd5b6008546040516340c10f1960e01b8152336004820152602481018490526001600160a01b03909116906340c10f1990604401602060405180830381600087803b15801561078657600080fd5b505af115801561079a573d6000803e3d6000fd5b505050506040513d601f19601f820116820180604052508101906107be919061188e565b6107c757600080fd5b6040518290829033907f2b42f4b25222a5d447ca19dfca2afd1b8d32adfed550f7b87bf9569f6da70c0090600090a46107fe611070565b919050565b600054600160b01b900467ffffffffffffffff1661081f6103a7565b10156108695760405162461bcd60e51b81526020600482015260196024820152784f6e6c792063616c6c61626c6520706f73742d65787069727960381b6044820152606401610649565b60008054600160a81b900460ff16600281111561089657634e487b7160e01b600052602160045260246000fd5b146108e35760405162461bcd60e51b815260206004820152601a60248201527f436f6e7472616374207374617465206973206e6f74204f70656e0000000000006044820152606401610649565b6108eb610f18565b6108fd6000805460ff60a01b19169055565b610905611085565b6000805460ff60a81b1916600160a81b17815560405133917f18600820405d6cf356e3556301762ca32395e72d8c81494fa344835c9da3633d91a2610948611070565b565b600b805461045490611b8d565b60008054600160b01b900467ffffffffffffffff166109746103a7565b10156109be5760405162461bcd60e51b81526020600482015260196024820152784f6e6c792063616c6c61626c6520706f73742d65787069727960381b6044820152606401610649565b6109c6610f18565b6109d86000805460ff60a01b19169055565b60008054600160a81b900460ff166002811115610a0557634e487b7160e01b600052602160045260246000fd5b1415610a485760405162461bcd60e51b8152602060048201526012602482015271155b995e1c1a5c99590818dbdb9d1c9858dd60721b6044820152606401610649565b6002600054600160a81b900460ff166002811115610a7657634e487b7160e01b600052602160045260246000fd5b14610b4557600054610a9890600160b01b900467ffffffffffffffff16611279565b6003819055600a54604051632da5236160e01b81526004810192909252610b2e916001600160a01b0390911690632da523619060240160206040518083038186803b158015610ae657600080fd5b505afa158015610afa573d6000803e3d6000fd5b505050506040513d601f19601f82011682018060405250810190610b1e91906118ae565b610b2860016113a4565b516113d9565b6004556000805460ff60a81b1916600160a91b1790555b60075460405163079cc67960e41b8152336004820152602481018590526001600160a01b03909116906379cc679090604401602060405180830381600087803b158015610b9157600080fd5b505af1158015610ba5573d6000803e3d6000fd5b505050506040513d601f19601f82011682018060405250810190610bc9919061188e565b610bd257600080fd5b60085460405163079cc67960e41b8152336004820152602481018490526001600160a01b03909116906379cc679090604401602060405180830381600087803b158015610c1e57600080fd5b505af1158015610c32573d6000803e3d6000fd5b505050506040513d601f19601f82011682018060405250810190610c56919061188e565b610c5f57600080fd5b604080516020808201835260045482528251808201845260025481528351918201909352858152600092610c9d9291610c97916113f1565b906113f1565b6000015190506000610cf1610ccc6040518060200160405280600454815250610cc660016113a4565b90611437565b604080516020808201835260025482528251908101909252878252610c9791906113f1565b519050610cfe8183611aff565b600654909350610d18906001600160a01b03163385611461565b604080518481526020810187905290810185905233907fe8fdc264e5a5640d893f125384c4e2c5afe2d9a04aef1129e643caaa72771cff9060600160405180910390a25050610d65611070565b92915050565b6000610d75610f18565b610d876000805460ff60a01b19169055565b60075460405163079cc67960e41b8152336004820152602481018490526001600160a01b03909116906379cc679090604401602060405180830381600087803b158015610dd357600080fd5b505af1158015610de7573d6000803e3d6000fd5b505050506040513d601f19601f82011682018060405250810190610e0b919061188e565b610e1457600080fd5b60085460405163079cc67960e41b8152336004820152602481018490526001600160a01b03909116906379cc679090604401602060405180830381600087803b158015610e6057600080fd5b505af1158015610e74573d6000803e3d6000fd5b505050506040513d601f19601f82011682018060405250810190610e98919061188e565b610ea157600080fd5b604080516020808201835260025482528251908101909252838252610ec691906113f1565b51600654909150610ee1906001600160a01b03163383611461565b6040518290829033907fd171fb179b26c49e23fe46eddd44d3048a1ad277b62144ac0725fbcf1dbf6d5290600090a46107fe611070565b600054600160a01b900460ff166109485760405162461bcd60e51b815260206004820152601f60248201527f5265656e7472616e637947756172643a207265656e7472616e742063616c6c006044820152606401610649565b6040805160208101909152600080825282518451610f8e91611496565b90506000610fa4670de0b6b3a764000083611b17565b90506000610fba83670de0b6b3a76400006114a2565b90508015610fe657604080516020810190915280610fd98460016114ae565b8152509350505050610d65565b6040518060200160405280838152509350505050610d65565b6040516001600160a01b038085166024830152831660448201526064810182905261106a9085906323b872dd60e01b906084015b60408051601f198184030181529190526020810180516001600160e01b03166001600160e01b0319909316929092179091526114ba565b50505050565b6000805460ff60a01b1916600160a01b179055565b600061108f61158c565b600c54909150156110b757600c546006546110b7916001600160a01b0390911690839061161b565b600554600054600654600c546040516311df92f160e01b81526001600160a01b03868116956311df92f19561110a959194600160b01b90910467ffffffffffffffff1693600b9390921691600401611a44565b602060405180830381600087803b15801561112457600080fd5b505af1158015611138573d6000803e3d6000fd5b505050506040513d601f19601f8201168201806040525081019061115c91906118ae565b50600554600054600d5460405163239e22ff60e11b81526001600160a01b0385169363473c45fe936111a8939192600160b01b90910467ffffffffffffffff1691600b91600401611a8a565b600060405180830381600087803b1580156111c257600080fd5b505af11580156111d6573d6000803e3d6000fd5b5050600554600054600e546040516356ad3aad60e11b81526001600160a01b038716955063ad5a755a94506112239392600160b01b900467ffffffffffffffff1691600b91600401611a8a565b602060405180830381600087803b15801561123d57600080fd5b505af1158015611251573d6000803e3d6000fd5b505050506040513d601f19601f8201168201806040525081019061127591906118ae565b5050565b60008061128461158c565b600554604051635e2c665560e11b81529192506001600160a01b0383169163bc58ccaa916112bc913091908890600b906004016119e5565b60206040518083038186803b1580156112d457600080fd5b505afa1580156112e8573d6000803e3d6000fd5b505050506040513d601f19601f8201168201806040525081019061130c919061188e565b61131557600080fd5b6005546040516353b5923960e01b81526000916001600160a01b038416916353b592399161134a918890600b90600401611a1c565b602060405180830381600087803b15801561136457600080fd5b505af1158015611378573d6000803e3d6000fd5b505050506040513d601f19601f8201168201806040525081019061139c91906118ae565b949350505050565b6040805160208101909152600081526040805160208101909152806113d184670de0b6b3a7640000611496565b905292915050565b60008183106113e857816113ea565b825b9392505050565b6040805160208101909152600081526040805160208101909152825184518291670de0b6b3a76400009161142491611496565b61142e9190611b17565b90529392505050565b604080516020810190915260008152604080516020810190915282518451829161142e919061173f565b6040516001600160a01b03831660248201526044810182905261149190849063a9059cbb60e01b90606401611033565b505050565b60006113ea8284611b2b565b60006113ea8284611bc8565b60006113ea8284611aff565b600061150f826040518060400160405280602081526020017f5361666545524332303a206c6f772d6c6576656c2063616c6c206661696c6564815250856001600160a01b031661174b9092919063ffffffff16565b805190915015611491578080602001905181019061152d919061188e565b6114915760405162461bcd60e51b815260206004820152602a60248201527f5361666545524332303a204552433230206f7065726174696f6e20646964206e6044820152691bdd081cdd58d8d9595960b21b6064820152608401610649565b6009546040516302abf57960e61b81526f4f7074696d69737469634f7261636c6560801b60048201526000916001600160a01b03169063aafd5e409060240160206040518083038186803b1580156115e357600080fd5b505afa1580156115f7573d6000803e3d6000fd5b505050506040513d601f19601f8201168201806040525081019061043d9190611872565b8015806116a45750604051636eb1769f60e11b81523060048201526001600160a01b03838116602483015284169063dd62ed3e9060440160206040518083038186803b15801561166a57600080fd5b505afa15801561167e573d6000803e3d6000fd5b505050506040513d601f19601f820116820180604052508101906116a291906118ae565b155b61170f5760405162461bcd60e51b815260206004820152603660248201527f5361666545524332303a20617070726f76652066726f6d206e6f6e2d7a65726f60448201527520746f206e6f6e2d7a65726f20616c6c6f77616e636560501b6064820152608401610649565b6040516001600160a01b03831660248201526044810182905261149190849063095ea7b360e01b90606401611033565b60006113ea8284611b4a565b606061139c848460008585843b6117a45760405162461bcd60e51b815260206004820152601d60248201527f416464726573733a2063616c6c20746f206e6f6e2d636f6e74726163740000006044820152606401610649565b600080866001600160a01b031685876040516117c091906119c9565b60006040518083038185875af1925050503d80600081146117fd576040519150601f19603f3d011682016040523d82523d6000602084013e611802565b606091505b509150915061181282828661181d565b979650505050505050565b6060831561182c5750816113ea565b82511561183c5782518084602001fd5b8160405162461bcd60e51b81526004016106499190611ac4565b600060208284031215611867578081fd5b81356113ea81611c08565b600060208284031215611883578081fd5b81516113ea81611c08565b60006020828403121561189f578081fd5b815180151581146113ea578182fd5b6000602082840312156118bf578081fd5b5051919050565b6000602082840312156118d7578081fd5b5035919050565b600080604083850312156118f0578081fd5b50508035926020909101359150565b60008151808452611917816020860160208601611b61565b601f01601f19169290920160200192915050565b8054600090600181811c908083168061194557607f831692505b602080841082141561196557634e487b7160e01b86526022600452602486fd5b838852602088018280156119805760018114611991576119bc565b60ff198716825282820197506119bc565b60008981526020902060005b878110156119b65781548482015290860190840161199d565b83019850505b5050505050505092915050565b600082516119db818460208701611b61565b9190910192915050565b60018060a01b0385168152836020820152826040820152608060608201526000611a12608083018461192b565b9695505050505050565b838152826020820152606060408201526000611a3b606083018461192b565b95945050505050565b85815267ffffffffffffffff8516602082015260a060408201526000611a6d60a083018661192b565b6001600160a01b0394909416606083015250608001529392505050565b84815267ffffffffffffffff84166020820152608060408201526000611ab3608083018561192b565b905082606083015295945050505050565b6020815260006113ea60208301846118ff565b6020810160038310611af957634e487b7160e01b600052602160045260246000fd5b91905290565b60008219821115611b1257611b12611bdc565b500190565b600082611b2657611b26611bf2565b500490565b6000816000190483118215151615611b4557611b45611bdc565b500290565b600082821015611b5c57611b5c611bdc565b500390565b60005b83811015611b7c578181015183820152602001611b64565b8381111561106a5750506000910152565b600181811c90821680611ba157607f821691505b60208210811415611bc257634e487b7160e01b600052602260045260246000fd5b50919050565b600082611bd757611bd7611bf2565b500690565b634e487b7160e01b600052601160045260246000fd5b634e487b7160e01b600052601260045260246000fd5b6001600160a01b0381168114611c1d57600080fd5b5056fea26469706673582212207b2f77c970590108a37c228a767712029ca2f4748392a645f43a3ee0cec3c98764736f6c63430008040033",
  "immutableReferences": {},
  "source": "// SPDX-License-Identifier: AGPL-3.0-only\npragma solidity ^0.8.0;\n\nimport \"@openzeppelin/contracts/utils/math/Math.sol\";\nimport \"@openzeppelin/contracts/token/ERC20/IERC20.sol\";\nimport \"@openzeppelin/contracts/token/ERC20/utils/SafeERC20.sol\";\n\nimport \"../common/financial-product-libraries/long-short-pair-libraries/LongShortPairFinancialProductLibrary.sol\";\n\nimport \"../../common/implementation/Testable.sol\";\nimport \"../../common/implementation/Lockable.sol\";\nimport \"../../common/implementation/FixedPoint.sol\";\n\nimport \"../../common/interfaces/ExpandedIERC20.sol\";\n\nimport \"../../oracle/interfaces/OracleInterface.sol\";\nimport \"../../common/interfaces/AddressWhitelistInterface.sol\";\nimport \"../../oracle/interfaces/FinderInterface.sol\";\nimport \"../../oracle/interfaces/OptimisticOracleInterface.sol\";\nimport \"../../oracle/interfaces/IdentifierWhitelistInterface.sol\";\n\nimport \"../../oracle/implementation/Constants.sol\";\n\n/**\n * @title Long Short Pair.\n * @notice Uses a combination of long and short tokens to tokenize the bounded price exposure to a given identifier.\n */\n\ncontract LongShortPair is Testable, Lockable {\n    using FixedPoint for FixedPoint.Unsigned;\n    using SafeERC20 for IERC20;\n\n    /*********************************************\n     *  LONG SHORT PAIR DATA STRUCTURES  *\n     *********************************************/\n\n    // Define the contract's constructor parameters as a struct to enable more variables to be specified.\n    struct ConstructorParams {\n        string pairName; // Name of the long short pair contract.\n        uint64 expirationTimestamp; // Unix timestamp of when the contract will expire.\n        uint256 collateralPerPair; // How many units of collateral are required to mint one pair of synthetic tokens.\n        bytes32 priceIdentifier; // Price identifier, registered in the DVM for the long short pair.\n        ExpandedIERC20 longToken; // Token used as long in the LSP. Mint and burn rights needed by this contract.\n        ExpandedIERC20 shortToken; // Token used as short in the LSP. Mint and burn rights needed by this contract.\n        IERC20 collateralToken; // Collateral token used to back LSP synthetics.\n        LongShortPairFinancialProductLibrary financialProductLibrary; // Contract providing settlement payout logic.\n        bytes customAncillaryData; // Custom ancillary data to be passed along with the price request to the OO.\n        uint256 prepaidProposerReward; // Preloaded reward to incentivize settlement price proposals.\n        uint256 optimisticOracleLivenessTime; // OO liveness time for price requests.\n        uint256 optimisticOracleProposerBond; // OO proposer bond for price requests.\n        FinderInterface finder; // DVM finder to find other UMA ecosystem contracts.\n        address timerAddress; // Timer used to synchronize contract time in testing. Set to 0x000... in production.\n    }\n\n    enum ContractState { Open, ExpiredPriceRequested, ExpiredPriceReceived }\n    // @dev note contractState and expirationTimestamp are declared in this order so they use the same storage slot.\n    ContractState public contractState;\n\n    uint64 public expirationTimestamp;\n\n    string public pairName;\n\n    // Amount of collateral a pair of tokens is always redeemable for.\n    uint256 public collateralPerPair;\n\n    // Price returned from the Optimistic oracle at settlement time.\n    int256 public expiryPrice;\n\n    // Number between 0 and 1e18 to allocate collateral between long & short tokens at redemption. 0 entitles each short\n    // to collateralPerPair and long worth 0. 1e18 makes each long worth collateralPerPair and short 0.\n    uint256 public expiryPercentLong;\n\n    bytes32 public priceIdentifier;\n\n    IERC20 public collateralToken;\n    ExpandedIERC20 public longToken;\n    ExpandedIERC20 public shortToken;\n\n    FinderInterface public finder;\n\n    LongShortPairFinancialProductLibrary public financialProductLibrary;\n\n    // Optimistic oracle customization parameters.\n    bytes public customAncillaryData;\n    uint256 public prepaidProposerReward;\n    uint256 public optimisticOracleLivenessTime;\n    uint256 public optimisticOracleProposerBond;\n\n    /****************************************\n     *                EVENTS                *\n     ****************************************/\n\n    event TokensCreated(address indexed sponsor, uint256 indexed collateralUsed, uint256 indexed tokensMinted);\n    event TokensRedeemed(address indexed sponsor, uint256 indexed collateralReturned, uint256 indexed tokensRedeemed);\n    event ContractExpired(address indexed caller);\n    event PositionSettled(address indexed sponsor, uint256 collateralReturned, uint256 longTokens, uint256 shortTokens);\n\n    /****************************************\n     *               MODIFIERS              *\n     ****************************************/\n\n    modifier preExpiration() {\n        require(getCurrentTime() < expirationTimestamp, \"Only callable pre-expiry\");\n        _;\n    }\n\n    modifier postExpiration() {\n        require(getCurrentTime() >= expirationTimestamp, \"Only callable post-expiry\");\n        _;\n    }\n\n    modifier onlyOpenState() {\n        require(contractState == ContractState.Open, \"Contract state is not Open\");\n        _;\n    }\n\n    /**\n     * @notice Construct the LongShortPair\n     * @param params Constructor params used to initialize the LSP. Key-valued object with the following structure:\n     *    pairName: Name of the long short pair contract.\n     *    expirationTimestamp: Unix timestamp of when the contract will expire.\n     *    collateralPerPair: How many units of collateral are required to mint one pair of synthetic tokens.\n     *    priceIdentifier: Price identifier, registered in the DVM for the long short pair.\n     *    longToken: Token used as long in the LSP. Mint and burn rights needed by this contract.\n     *    shortToken: Token used as short in the LSP. Mint and burn rights needed by this contract.\n     *    collateralToken: Collateral token used to back LSP synthetics.\n     *    financialProductLibrary: Contract providing settlement payout logic.\n     *    customAncillaryData: Custom ancillary data to be passed along with the price request to the OO.\n     *    prepaidProposerReward: Preloaded reward to incentivize settlement price proposals.\n     *    optimisticOracleLivenessTime: OO liveness time for price requests.\n     *    optimisticOracleProposerBond: OO proposer bond for price requests.\n     *    finder: DVM finder to find other UMA ecosystem contracts.\n     *    timerAddress: Timer used to synchronize contract time in testing. Set to 0x000... in production.\n     */\n    constructor(ConstructorParams memory params) Testable(params.timerAddress) {\n        finder = params.finder;\n        require(bytes(params.pairName).length > 0, \"Pair name cant be empty\");\n        require(params.expirationTimestamp > getCurrentTime(), \"Expiration timestamp in past\");\n        require(params.collateralPerPair > 0, \"Collateral per pair cannot be 0\");\n        require(_getIdentifierWhitelist().isIdentifierSupported(params.priceIdentifier), \"Identifier not registered\");\n        require(address(_getOptimisticOracle()) != address(0), \"Invalid finder\");\n        require(address(params.financialProductLibrary) != address(0), \"Invalid FinancialProductLibrary\");\n        require(_getCollateralWhitelist().isOnWhitelist(address(params.collateralToken)), \"Collateral not whitelisted\");\n        require(params.optimisticOracleLivenessTime > 0, \"OO liveness cannot be 0\");\n        require(params.optimisticOracleLivenessTime < 5200 weeks, \"OO liveness too large\");\n\n        pairName = params.pairName;\n        expirationTimestamp = params.expirationTimestamp;\n        collateralPerPair = params.collateralPerPair;\n        priceIdentifier = params.priceIdentifier;\n\n        longToken = params.longToken;\n        shortToken = params.shortToken;\n        collateralToken = params.collateralToken;\n\n        financialProductLibrary = params.financialProductLibrary;\n        OptimisticOracleInterface optimisticOracle = _getOptimisticOracle();\n        require(\n            optimisticOracle.stampAncillaryData(params.customAncillaryData, address(this)).length <=\n                optimisticOracle.ancillaryBytesLimit(),\n            \"Ancillary Data too long\"\n        );\n\n        customAncillaryData = params.customAncillaryData;\n        prepaidProposerReward = params.prepaidProposerReward;\n        optimisticOracleLivenessTime = params.optimisticOracleLivenessTime;\n        optimisticOracleProposerBond = params.optimisticOracleProposerBond;\n    }\n\n    /****************************************\n     *          POSITION FUNCTIONS          *\n     ****************************************/\n\n    /**\n     * @notice Creates a pair of long and short tokens equal in number to tokensToCreate. Pulls the required collateral\n     * amount into this contract, defined by the collateralPerPair value.\n     * @dev The caller must approve this contract to transfer `tokensToCreate * collateralPerPair` amount of collateral.\n     * @param tokensToCreate number of long and short synthetic tokens to create.\n     * @return collateralUsed total collateral used to mint the synthetics.\n     */\n    function create(uint256 tokensToCreate) public preExpiration() nonReentrant() returns (uint256 collateralUsed) {\n        // Note the use of mulCeil to prevent small collateralPerPair causing rounding of collateralUsed to 0 enabling\n        // callers to mint dust LSP tokens without paying any collateral.\n        collateralUsed = FixedPoint.Unsigned(tokensToCreate).mulCeil(FixedPoint.Unsigned(collateralPerPair)).rawValue;\n\n        collateralToken.safeTransferFrom(msg.sender, address(this), collateralUsed);\n\n        require(longToken.mint(msg.sender, tokensToCreate));\n        require(shortToken.mint(msg.sender, tokensToCreate));\n\n        emit TokensCreated(msg.sender, collateralUsed, tokensToCreate);\n    }\n\n    /**\n     * @notice Redeems a pair of long and short tokens equal in number to tokensToRedeem. Returns the commensurate\n     * amount of collateral to the caller for the pair of tokens, defined by the collateralPerPair value.\n     * @dev This contract must have the `Burner` role for the `longToken` and `shortToken` in order to call `burnFrom`.\n     * @dev The caller does not need to approve this contract to transfer any amount of `tokensToRedeem` since long\n     * and short tokens are burned, rather than transferred, from the caller.\n     * @param tokensToRedeem number of long and short synthetic tokens to redeem.\n     * @return collateralReturned total collateral returned in exchange for the pair of synthetics.\n     */\n    function redeem(uint256 tokensToRedeem) public nonReentrant() returns (uint256 collateralReturned) {\n        require(longToken.burnFrom(msg.sender, tokensToRedeem));\n        require(shortToken.burnFrom(msg.sender, tokensToRedeem));\n\n        collateralReturned = FixedPoint.Unsigned(tokensToRedeem).mul(FixedPoint.Unsigned(collateralPerPair)).rawValue;\n\n        collateralToken.safeTransfer(msg.sender, collateralReturned);\n\n        emit TokensRedeemed(msg.sender, collateralReturned, tokensToRedeem);\n    }\n\n    /**\n     * @notice Settle long and/or short tokens in for collateral at a rate informed by the contract settlement.\n     * @dev Uses financialProductLibrary to compute the redemption rate between long and short tokens.\n     * @dev This contract must have the `Burner` role for the `longToken` and `shortToken` in order to call `burnFrom`.\n     * @dev The caller does not need to approve this contract to transfer any amount of `tokensToRedeem` since long\n     * and short tokens are burned, rather than transferred, from the caller.\n     * @param longTokensToRedeem number of long tokens to settle.\n     * @param shortTokensToRedeem number of short tokens to settle.\n     * @return collateralReturned total collateral returned in exchange for the pair of synthetics.\n     */\n    function settle(uint256 longTokensToRedeem, uint256 shortTokensToRedeem)\n        public\n        postExpiration()\n        nonReentrant()\n        returns (uint256 collateralReturned)\n    {\n        // If the contract state is open and postExpiration passed then `expire()` has not yet been called.\n        require(contractState != ContractState.Open, \"Unexpired contract\");\n\n        // Get the current settlement price and store it. If it is not resolved, will revert.\n        if (contractState != ContractState.ExpiredPriceReceived) {\n            expiryPrice = _getOraclePriceExpiration(expirationTimestamp);\n            // Cap the return value at 1.\n            expiryPercentLong = Math.min(\n                financialProductLibrary.percentageLongCollateralAtExpiry(expiryPrice),\n                FixedPoint.fromUnscaledUint(1).rawValue\n            );\n            contractState = ContractState.ExpiredPriceReceived;\n        }\n\n        require(longToken.burnFrom(msg.sender, longTokensToRedeem));\n        require(shortToken.burnFrom(msg.sender, shortTokensToRedeem));\n\n        // expiryPercentLong is a number between 0 and 1e18. 0 means all collateral goes to short tokens and 1e18 means\n        // all collateral goes to the long token. Total collateral returned is the sum of payouts.\n        uint256 longCollateralRedeemed =\n            FixedPoint\n                .Unsigned(longTokensToRedeem)\n                .mul(FixedPoint.Unsigned(collateralPerPair))\n                .mul(FixedPoint.Unsigned(expiryPercentLong))\n                .rawValue;\n        uint256 shortCollateralRedeemed =\n            FixedPoint\n                .Unsigned(shortTokensToRedeem)\n                .mul(FixedPoint.Unsigned(collateralPerPair))\n                .mul(FixedPoint.fromUnscaledUint(1).sub(FixedPoint.Unsigned(expiryPercentLong)))\n                .rawValue;\n\n        collateralReturned = longCollateralRedeemed + shortCollateralRedeemed;\n        collateralToken.safeTransfer(msg.sender, collateralReturned);\n\n        emit PositionSettled(msg.sender, collateralReturned, longTokensToRedeem, shortTokensToRedeem);\n    }\n\n    /****************************************\n     *        GLOBAL STATE FUNCTIONS        *\n     ****************************************/\n\n    function expire() public postExpiration() onlyOpenState() nonReentrant() {\n        _requestOraclePriceExpiration();\n        contractState = ContractState.ExpiredPriceRequested;\n\n        emit ContractExpired(msg.sender);\n    }\n\n    /****************************************\n     *      GLOBAL ACCESSORS FUNCTIONS      *\n     ****************************************/\n    /**\n     * @notice Returns the number of long and short tokens a sponsor wallet holds.\n     * @param sponsor address of the sponsor to query.\n     * @return [uint256, uint256]. First is long tokens held by sponsor and second is short tokens held by sponsor.\n     */\n    function getPositionTokens(address sponsor) public view nonReentrantView() returns (uint256, uint256) {\n        return (longToken.balanceOf(sponsor), shortToken.balanceOf(sponsor));\n    }\n\n    /****************************************\n     *          INTERNAL FUNCTIONS          *\n     ****************************************/\n\n    function _getOraclePriceExpiration(uint256 requestedTime) internal returns (int256) {\n        // Create an instance of the oracle and get the price. If the price is not resolved revert.\n        OptimisticOracleInterface optimisticOracle = _getOptimisticOracle();\n        require(optimisticOracle.hasPrice(address(this), priceIdentifier, requestedTime, customAncillaryData));\n        int256 oraclePrice = optimisticOracle.settleAndGetPrice(priceIdentifier, requestedTime, customAncillaryData);\n\n        return oraclePrice;\n    }\n\n    function _requestOraclePriceExpiration() internal {\n        OptimisticOracleInterface optimisticOracle = _getOptimisticOracle();\n\n        // Use the prepaidProposerReward as the proposer reward.\n        if (prepaidProposerReward > 0) collateralToken.safeApprove(address(optimisticOracle), prepaidProposerReward);\n        optimisticOracle.requestPrice(\n            priceIdentifier,\n            expirationTimestamp,\n            customAncillaryData,\n            collateralToken,\n            prepaidProposerReward\n        );\n\n        // Set the Optimistic oracle liveness for the price request.\n        optimisticOracle.setCustomLiveness(\n            priceIdentifier,\n            expirationTimestamp,\n            customAncillaryData,\n            optimisticOracleLivenessTime\n        );\n\n        // Set the Optimistic oracle proposer bond for the price request.\n        optimisticOracle.setBond(\n            priceIdentifier,\n            expirationTimestamp,\n            customAncillaryData,\n            optimisticOracleProposerBond\n        );\n    }\n\n    function _getIdentifierWhitelist() internal view returns (IdentifierWhitelistInterface) {\n        return IdentifierWhitelistInterface(finder.getImplementationAddress(OracleInterfaces.IdentifierWhitelist));\n    }\n\n    function _getCollateralWhitelist() internal view returns (AddressWhitelistInterface) {\n        return AddressWhitelistInterface(finder.getImplementationAddress(OracleInterfaces.CollateralWhitelist));\n    }\n\n    function _getOptimisticOracle() internal view returns (OptimisticOracleInterface) {\n        return OptimisticOracleInterface(finder.getImplementationAddress(OracleInterfaces.OptimisticOracle));\n    }\n}\n",
  "sourcePath": "/home/circleci/protocol/packages/core/contracts/financial-templates/long-short-pair/LongShortPair.sol",
  "compiler": {
    "name": "solc",
    "version": "0.8.4+commit.c7e474f2.Emscripten.clang"
  },
  "schemaVersion": "3.3.4",
  "updatedAt": "2021-07-16T20:27:09.847Z",
  "devdoc": {
    "kind": "dev",
    "methods": {
      "constructor": {
        "params": {
          "params": "Constructor params used to initialize the LSP. Key-valued object with the following structure:    pairName: Name of the long short pair contract.    expirationTimestamp: Unix timestamp of when the contract will expire.    collateralPerPair: How many units of collateral are required to mint one pair of synthetic tokens.    priceIdentifier: Price identifier, registered in the DVM for the long short pair.    longToken: Token used as long in the LSP. Mint and burn rights needed by this contract.    shortToken: Token used as short in the LSP. Mint and burn rights needed by this contract.    collateralToken: Collateral token used to back LSP synthetics.    financialProductLibrary: Contract providing settlement payout logic.    customAncillaryData: Custom ancillary data to be passed along with the price request to the OO.    prepaidProposerReward: Preloaded reward to incentivize settlement price proposals.    optimisticOracleLivenessTime: OO liveness time for price requests.    optimisticOracleProposerBond: OO proposer bond for price requests.    finder: DVM finder to find other UMA ecosystem contracts.    timerAddress: Timer used to synchronize contract time in testing. Set to 0x000... in production."
        }
      },
      "create(uint256)": {
        "details": "The caller must approve this contract to transfer `tokensToCreate * collateralPerPair` amount of collateral.",
        "params": {
          "tokensToCreate": "number of long and short synthetic tokens to create."
        },
        "returns": {
          "collateralUsed": "total collateral used to mint the synthetics."
        }
      },
      "getCurrentTime()": {
        "returns": {
          "_0": "uint for the current Testable timestamp."
        }
      },
      "getPositionTokens(address)": {
        "params": {
          "sponsor": "address of the sponsor to query."
        },
        "returns": {
          "_0": "[uint256, uint256]. First is long tokens held by sponsor and second is short tokens held by sponsor."
        }
      },
      "redeem(uint256)": {
        "details": "This contract must have the `Burner` role for the `longToken` and `shortToken` in order to call `burnFrom`.The caller does not need to approve this contract to transfer any amount of `tokensToRedeem` since long and short tokens are burned, rather than transferred, from the caller.",
        "params": {
          "tokensToRedeem": "number of long and short synthetic tokens to redeem."
        },
        "returns": {
          "collateralReturned": "total collateral returned in exchange for the pair of synthetics."
        }
      },
      "setCurrentTime(uint256)": {
        "details": "Will revert if not running in test mode.",
        "params": {
          "time": "timestamp to set current Testable time to."
        }
      },
      "settle(uint256,uint256)": {
        "details": "Uses financialProductLibrary to compute the redemption rate between long and short tokens.This contract must have the `Burner` role for the `longToken` and `shortToken` in order to call `burnFrom`.The caller does not need to approve this contract to transfer any amount of `tokensToRedeem` since long and short tokens are burned, rather than transferred, from the caller.",
        "params": {
          "longTokensToRedeem": "number of long tokens to settle.",
          "shortTokensToRedeem": "number of short tokens to settle."
        },
        "returns": {
          "collateralReturned": "total collateral returned in exchange for the pair of synthetics."
        }
      }
    },
    "title": "Long Short Pair.",
    "version": 1
  },
  "userdoc": {
    "kind": "user",
    "methods": {
      "constructor": {
        "notice": "Construct the LongShortPair"
      },
      "create(uint256)": {
        "notice": "Creates a pair of long and short tokens equal in number to tokensToCreate. Pulls the required collateral amount into this contract, defined by the collateralPerPair value."
      },
      "getCurrentTime()": {
        "notice": "Gets the current time. Will return the last time set in `setCurrentTime` if running in test mode. Otherwise, it will return the block timestamp."
      },
      "getPositionTokens(address)": {
        "notice": "Returns the number of long and short tokens a sponsor wallet holds."
      },
      "redeem(uint256)": {
        "notice": "Redeems a pair of long and short tokens equal in number to tokensToRedeem. Returns the commensurate amount of collateral to the caller for the pair of tokens, defined by the collateralPerPair value."
      },
      "setCurrentTime(uint256)": {
        "notice": "Sets the current time."
      },
      "settle(uint256,uint256)": {
        "notice": "Settle long and/or short tokens in for collateral at a rate informed by the contract settlement."
      }
    },
    "notice": "Uses a combination of long and short tokens to tokenize the bounded price exposure to a given identifier.",
    "version": 1
  }
}