{
  "contractName": "OptimisticRequesterTest",
  "abi": [
    {
      "inputs": [
        {
          "internalType": "contract OptimisticOracle",
          "name": "_optimisticOracle",
          "type": "address"
        }
      ],
      "stateMutability": "nonpayable",
      "type": "constructor"
    },
    {
      "inputs": [],
      "name": "ancillaryData",
      "outputs": [
        {
          "internalType": "bytes",
          "name": "",
          "type": "bytes"
        }
      ],
      "stateMutability": "view",
      "type": "function"
    },
    {
      "inputs": [],
      "name": "collateralCurrency",
      "outputs": [
        {
          "internalType": "contract IERC20",
          "name": "",
          "type": "address"
        }
      ],
      "stateMutability": "view",
      "type": "function"
    },
    {
      "inputs": [],
      "name": "expirationTimestamp",
      "outputs": [
        {
          "internalType": "uint256",
          "name": "",
          "type": "uint256"
        }
      ],
      "stateMutability": "view",
      "type": "function"
    },
    {
      "inputs": [],
      "name": "identifier",
      "outputs": [
        {
          "internalType": "bytes32",
          "name": "",
          "type": "bytes32"
        }
      ],
      "stateMutability": "view",
      "type": "function"
    },
    {
      "inputs": [],
      "name": "price",
      "outputs": [
        {
          "internalType": "int256",
          "name": "",
          "type": "int256"
        }
      ],
      "stateMutability": "view",
      "type": "function"
    },
    {
      "inputs": [],
      "name": "refund",
      "outputs": [
        {
          "internalType": "uint256",
          "name": "",
          "type": "uint256"
        }
      ],
      "stateMutability": "view",
      "type": "function"
    },
    {
      "inputs": [],
      "name": "shouldRevert",
      "outputs": [
        {
          "internalType": "bool",
          "name": "",
          "type": "bool"
        }
      ],
      "stateMutability": "view",
      "type": "function"
    },
    {
      "inputs": [],
      "name": "timestamp",
      "outputs": [
        {
          "internalType": "uint256",
          "name": "",
          "type": "uint256"
        }
      ],
      "stateMutability": "view",
      "type": "function"
    },
    {
      "inputs": [
        {
          "internalType": "bytes32",
          "name": "_identifier",
          "type": "bytes32"
        },
        {
          "internalType": "uint256",
          "name": "_timestamp",
          "type": "uint256"
        },
        {
          "internalType": "bytes",
          "name": "_ancillaryData",
          "type": "bytes"
        },
        {
          "internalType": "contract IERC20",
          "name": "currency",
          "type": "address"
        },
        {
          "internalType": "uint256",
          "name": "reward",
          "type": "uint256"
        }
      ],
      "name": "requestPrice",
      "outputs": [],
      "stateMutability": "nonpayable",
      "type": "function"
    },
    {
      "inputs": [
        {
          "internalType": "bytes32",
          "name": "_identifier",
          "type": "bytes32"
        },
        {
          "internalType": "uint256",
          "name": "_timestamp",
          "type": "uint256"
        },
        {
          "internalType": "bytes",
          "name": "_ancillaryData",
          "type": "bytes"
        }
      ],
      "name": "settleAndGetPrice",
      "outputs": [
        {
          "internalType": "int256",
          "name": "",
          "type": "int256"
        }
      ],
      "stateMutability": "nonpayable",
      "type": "function"
    },
    {
      "inputs": [
        {
          "internalType": "bytes32",
          "name": "_identifier",
          "type": "bytes32"
        },
        {
          "internalType": "uint256",
          "name": "_timestamp",
          "type": "uint256"
        },
        {
          "internalType": "bytes",
          "name": "_ancillaryData",
          "type": "bytes"
        },
        {
          "internalType": "uint256",
          "name": "bond",
          "type": "uint256"
        }
      ],
      "name": "setBond",
      "outputs": [],
      "stateMutability": "nonpayable",
      "type": "function"
    },
    {
      "inputs": [
        {
          "internalType": "bytes32",
          "name": "_identifier",
          "type": "bytes32"
        },
        {
          "internalType": "uint256",
          "name": "_timestamp",
          "type": "uint256"
        },
        {
          "internalType": "bytes",
          "name": "_ancillaryData",
          "type": "bytes"
        }
      ],
      "name": "setRefundOnDispute",
      "outputs": [],
      "stateMutability": "nonpayable",
      "type": "function"
    },
    {
      "inputs": [
        {
          "internalType": "bytes32",
          "name": "_identifier",
          "type": "bytes32"
        },
        {
          "internalType": "uint256",
          "name": "_timestamp",
          "type": "uint256"
        },
        {
          "internalType": "bytes",
          "name": "_ancillaryData",
          "type": "bytes"
        },
        {
          "internalType": "uint256",
          "name": "customLiveness",
          "type": "uint256"
        }
      ],
      "name": "setCustomLiveness",
      "outputs": [],
      "stateMutability": "nonpayable",
      "type": "function"
    },
    {
      "inputs": [
        {
          "internalType": "bool",
          "name": "_shouldRevert",
          "type": "bool"
        }
      ],
      "name": "setRevert",
      "outputs": [],
      "stateMutability": "nonpayable",
      "type": "function"
    },
    {
      "inputs": [
        {
          "internalType": "uint256",
          "name": "_expirationTimestamp",
          "type": "uint256"
        }
      ],
      "name": "setExpirationTimestamp",
      "outputs": [],
      "stateMutability": "nonpayable",
      "type": "function"
    },
    {
      "inputs": [],
      "name": "clearState",
      "outputs": [],
      "stateMutability": "nonpayable",
      "type": "function"
    },
    {
      "inputs": [
        {
          "internalType": "bytes32",
          "name": "_identifier",
          "type": "bytes32"
        },
        {
          "internalType": "uint256",
          "name": "_timestamp",
          "type": "uint256"
        },
        {
          "internalType": "bytes",
          "name": "_ancillaryData",
          "type": "bytes"
        }
      ],
      "name": "priceProposed",
      "outputs": [],
      "stateMutability": "nonpayable",
      "type": "function"
    },
    {
      "inputs": [
        {
          "internalType": "bytes32",
          "name": "_identifier",
          "type": "bytes32"
        },
        {
          "internalType": "uint256",
          "name": "_timestamp",
          "type": "uint256"
        },
        {
          "internalType": "bytes",
          "name": "_ancillaryData",
          "type": "bytes"
        },
        {
          "internalType": "uint256",
          "name": "_refund",
          "type": "uint256"
        }
      ],
      "name": "priceDisputed",
      "outputs": [],
      "stateMutability": "nonpayable",
      "type": "function"
    },
    {
      "inputs": [
        {
          "internalType": "bytes32",
          "name": "_identifier",
          "type": "bytes32"
        },
        {
          "internalType": "uint256",
          "name": "_timestamp",
          "type": "uint256"
        },
        {
          "internalType": "bytes",
          "name": "_ancillaryData",
          "type": "bytes"
        },
        {
          "internalType": "int256",
          "name": "_price",
          "type": "int256"
        }
      ],
      "name": "priceSettled",
      "outputs": [],
      "stateMutability": "nonpayable",
      "type": "function"
    }
  ],
  "bytecode": "0x60806040526000805460ff60a01b1916905534801561001d57600080fd5b50604051610bf0380380610bf083398101604081905261003c91610061565b600080546001600160a01b0319166001600160a01b039290921691909117905561008f565b600060208284031215610072578081fd5b81516001600160a01b0381168114610088578182fd5b9392505050565b610b528061009e6000396000f3fe608060405234801561001057600080fd5b50600436106101215760003560e01c80637998a1c4116100ad578063a035b1fe11610071578063a035b1fe1461025a578063ad5a755a14610263578063b80777ea14610276578063d3072d821461027f578063f0136a63146102a357600080fd5b80637998a1c4146101f65780638fb5f171146101ff57806391f58dcb1461022b5780639c2fd1df1461023e5780639f43ddd21461025157600080fd5b806311df92f1116100f457806311df92f114610191578063473c45fe146101a457806353b59239146101b7578063590e1ae3146101d857806365599057146101e157600080fd5b806304cc1fd51461012657806304f441811461013b5780630d8f23721461014e5780630de15fd914610161575b600080fd5b610139610134366004610942565b6102bc565b005b6101396101493660046109b0565b600755565b61013961015c366004610942565b6102f9565b600654610174906001600160a01b031681565b6040516001600160a01b0390911681526020015b60405180910390f35b61013961019f3660046108ce565b610336565b6101396101b2366004610942565b610462565b6101ca6101c5366004610880565b6104d0565b604051908152602001610188565b6101ca60045481565b6101e961055f565b6040516101889190610aa7565b6101ca60015481565b61013961020d366004610841565b60008054911515600160a01b0260ff60a01b19909216919091179055565b610139610239366004610880565b6105ed565b61013961024c366004610880565b610658565b6101ca60075481565b6101ca60055481565b610139610271366004610942565b610692565b6101ca60025481565b60005461029390600160a01b900460ff1681565b6040519015158152602001610188565b6101396000600181905560028190556004819055600555565b600054600160a01b900460ff16156102d357600080fd5b6001849055600283905581516102f0906003906020850190610721565b50600555505050565b600054600160a01b900460ff161561031057600080fd5b60018490556002839055815161032d906003906020850190610721565b50600455505050565b600680546001600160a01b0319166001600160a01b0384811691821790925560005460405163095ea7b360e01b815292166004830152602482018390529063095ea7b390604401602060405180830381600087803b15801561039757600080fd5b505af11580156103ab573d6000803e3d6000fd5b505050506040513d601f19601f820116820180604052508101906103cf9190610864565b506000546040516311df92f160e01b81526001600160a01b03909116906311df92f1906104089088908890889088908890600401610a3b565b602060405180830381600087803b15801561042257600080fd5b505af1158015610436573d6000803e3d6000fd5b505050506040513d601f19601f8201168201806040525081019061045a9190610998565b505050505050565b60005460405163239e22ff60e11b81526001600160a01b039091169063473c45fe90610498908790879087908790600401610a77565b600060405180830381600087803b1580156104b257600080fd5b505af11580156104c6573d6000803e3d6000fd5b5050505050505050565b600080546040516353b5923960e01b81526001600160a01b03909116906353b592399061050590879087908790600401610a13565b602060405180830381600087803b15801561051f57600080fd5b505af1158015610533573d6000803e3d6000fd5b505050506040513d601f19601f820116820180604052508101906105579190610998565b949350505050565b6003805461056c90610aba565b80601f016020809104026020016040519081016040528092919081815260200182805461059890610aba565b80156105e55780601f106105ba576101008083540402835291602001916105e5565b820191906000526020600020905b8154815290600101906020018083116105c857829003601f168201915b505050505081565b6000546040516391f58dcb60e01b81526001600160a01b03909116906391f58dcb9061062190869086908690600401610a13565b600060405180830381600087803b15801561063b57600080fd5b505af115801561064f573d6000803e3d6000fd5b50505050505050565b600054600160a01b900460ff161561066f57600080fd5b60018390556002829055805161068c906003906020840190610721565b50505050565b6000546040516356ad3aad60e11b81526001600160a01b039091169063ad5a755a906106c8908790879087908790600401610a77565b602060405180830381600087803b1580156106e257600080fd5b505af11580156106f6573d6000803e3d6000fd5b505050506040513d601f19601f8201168201806040525081019061071a9190610998565b5050505050565b82805461072d90610aba565b90600052602060002090601f01602090048101928261074f5760008555610795565b82601f1061076857805160ff1916838001178555610795565b82800160010185558215610795579182015b8281111561079557825182559160200191906001019061077a565b506107a19291506107a5565b5090565b5b808211156107a157600081556001016107a6565b600082601f8301126107ca578081fd5b813567ffffffffffffffff808211156107e5576107e5610af5565b604051601f8301601f19908116603f0116810190828211818310171561080d5761080d610af5565b81604052838152866020858801011115610825578485fd5b8360208701602083013792830160200193909352509392505050565b600060208284031215610852578081fd5b813561085d81610b0b565b9392505050565b600060208284031215610875578081fd5b815161085d81610b0b565b600080600060608486031215610894578182fd5b8335925060208401359150604084013567ffffffffffffffff8111156108b8578182fd5b6108c4868287016107ba565b9150509250925092565b600080600080600060a086880312156108e5578081fd5b8535945060208601359350604086013567ffffffffffffffff811115610909578182fd5b610915888289016107ba565b93505060608601356001600160a01b0381168114610931578182fd5b949793965091946080013592915050565b60008060008060808587031215610957578384fd5b8435935060208501359250604085013567ffffffffffffffff81111561097b578283fd5b610987878288016107ba565b949793965093946060013593505050565b6000602082840312156109a9578081fd5b5051919050565b6000602082840312156109c1578081fd5b5035919050565b60008151808452815b818110156109ed576020818501810151868301820152016109d1565b818111156109fe5782602083870101525b50601f01601f19169290920160200192915050565b838152826020820152606060408201526000610a3260608301846109c8565b95945050505050565b85815284602082015260a060408201526000610a5a60a08301866109c8565b6001600160a01b0394909416606083015250608001529392505050565b848152836020820152608060408201526000610a9660808301856109c8565b905082606083015295945050505050565b60208152600061085d60208301846109c8565b600181811c90821680610ace57607f821691505b60208210811415610aef57634e487b7160e01b600052602260045260246000fd5b50919050565b634e487b7160e01b600052604160045260246000fd5b8015158114610b1957600080fd5b5056fea2646970667358221220479f3cb87df4cf8fbcc0e3c29c3e76a42b1edfa9b720bd51086bb8f06cbbe0ea64736f6c63430008040033",
  "immutableReferences": {},
  "source": "// SPDX-License-Identifier: AGPL-3.0-only\npragma solidity ^0.8.0;\n\nimport \"@openzeppelin/contracts/token/ERC20/IERC20.sol\";\n\nimport \"../OptimisticOracle.sol\";\n\n// This is just a test contract to make requests to the optimistic oracle.\ncontract OptimisticRequesterTest is OptimisticRequester {\n    OptimisticOracle optimisticOracle;\n    bool public shouldRevert = false;\n\n    // State variables to track incoming calls.\n    bytes32 public identifier;\n    uint256 public timestamp;\n    bytes public ancillaryData;\n    uint256 public refund;\n    int256 public price;\n\n    // Implement collateralCurrency so that this contract simulates a financial contract whose collateral\n    // token can be fetched by off-chain clients.\n    IERC20 public collateralCurrency;\n\n    // Manually set an expiration timestamp to simulate expiry price requests\n    uint256 public expirationTimestamp;\n\n    constructor(OptimisticOracle _optimisticOracle) {\n        optimisticOracle = _optimisticOracle;\n    }\n\n    function requestPrice(\n        bytes32 _identifier,\n        uint256 _timestamp,\n        bytes memory _ancillaryData,\n        IERC20 currency,\n        uint256 reward\n    ) external {\n        // Set collateral currency to last requested currency:\n        collateralCurrency = currency;\n\n        currency.approve(address(optimisticOracle), reward);\n        optimisticOracle.requestPrice(_identifier, _timestamp, _ancillaryData, currency, reward);\n    }\n\n    function settleAndGetPrice(\n        bytes32 _identifier,\n        uint256 _timestamp,\n        bytes memory _ancillaryData\n    ) external returns (int256) {\n        return optimisticOracle.settleAndGetPrice(_identifier, _timestamp, _ancillaryData);\n    }\n\n    function setBond(\n        bytes32 _identifier,\n        uint256 _timestamp,\n        bytes memory _ancillaryData,\n        uint256 bond\n    ) external {\n        optimisticOracle.setBond(_identifier, _timestamp, _ancillaryData, bond);\n    }\n\n    function setRefundOnDispute(\n        bytes32 _identifier,\n        uint256 _timestamp,\n        bytes memory _ancillaryData\n    ) external {\n        optimisticOracle.setRefundOnDispute(_identifier, _timestamp, _ancillaryData);\n    }\n\n    function setCustomLiveness(\n        bytes32 _identifier,\n        uint256 _timestamp,\n        bytes memory _ancillaryData,\n        uint256 customLiveness\n    ) external {\n        optimisticOracle.setCustomLiveness(_identifier, _timestamp, _ancillaryData, customLiveness);\n    }\n\n    function setRevert(bool _shouldRevert) external {\n        shouldRevert = _shouldRevert;\n    }\n\n    function setExpirationTimestamp(uint256 _expirationTimestamp) external {\n        expirationTimestamp = _expirationTimestamp;\n    }\n\n    function clearState() external {\n        delete identifier;\n        delete timestamp;\n        delete refund;\n        delete price;\n    }\n\n    function priceProposed(\n        bytes32 _identifier,\n        uint256 _timestamp,\n        bytes memory _ancillaryData\n    ) external override {\n        require(!shouldRevert);\n        identifier = _identifier;\n        timestamp = _timestamp;\n        ancillaryData = _ancillaryData;\n    }\n\n    function priceDisputed(\n        bytes32 _identifier,\n        uint256 _timestamp,\n        bytes memory _ancillaryData,\n        uint256 _refund\n    ) external override {\n        require(!shouldRevert);\n        identifier = _identifier;\n        timestamp = _timestamp;\n        ancillaryData = _ancillaryData;\n        refund = _refund;\n    }\n\n    function priceSettled(\n        bytes32 _identifier,\n        uint256 _timestamp,\n        bytes memory _ancillaryData,\n        int256 _price\n    ) external override {\n        require(!shouldRevert);\n        identifier = _identifier;\n        timestamp = _timestamp;\n        ancillaryData = _ancillaryData;\n        price = _price;\n    }\n}\n",
  "sourcePath": "/home/circleci/protocol/packages/core/contracts/oracle/implementation/test/OptimisticRequesterTest.sol",
  "compiler": {
    "name": "solc",
    "version": "0.8.4+commit.c7e474f2.Emscripten.clang"
  },
  "schemaVersion": "3.3.4",
  "updatedAt": "2021-07-16T20:27:10.087Z",
  "devdoc": {
    "kind": "dev",
    "methods": {},
    "version": 1
  },
  "userdoc": {
    "kind": "user",
    "methods": {},
    "version": 1
  }
}