{
  "contractName": "OptimisticDepositBox",
  "abi": [
    {
      "inputs": [
        {
          "internalType": "address",
          "name": "_collateralAddress",
          "type": "address"
        },
        {
          "internalType": "address",
          "name": "_finderAddress",
          "type": "address"
        },
        {
          "internalType": "bytes32",
          "name": "_priceIdentifier",
          "type": "bytes32"
        },
        {
          "internalType": "address",
          "name": "_timerAddress",
          "type": "address"
        }
      ],
      "stateMutability": "nonpayable",
      "type": "constructor"
    },
    {
      "anonymous": false,
      "inputs": [
        {
          "indexed": true,
          "internalType": "address",
          "name": "user",
          "type": "address"
        },
        {
          "indexed": true,
          "internalType": "uint256",
          "name": "collateralAmount",
          "type": "uint256"
        }
      ],
      "name": "Deposit",
      "type": "event"
    },
    {
      "anonymous": false,
      "inputs": [
        {
          "indexed": true,
          "internalType": "address",
          "name": "user",
          "type": "address"
        }
      ],
      "name": "EndedOptimisticDepositBox",
      "type": "event"
    },
    {
      "anonymous": false,
      "inputs": [
        {
          "indexed": true,
          "internalType": "address",
          "name": "user",
          "type": "address"
        }
      ],
      "name": "NewOptimisticDepositBox",
      "type": "event"
    },
    {
      "anonymous": false,
      "inputs": [
        {
          "indexed": true,
          "internalType": "address",
          "name": "user",
          "type": "address"
        },
        {
          "indexed": true,
          "internalType": "uint256",
          "name": "collateralAmount",
          "type": "uint256"
        },
        {
          "indexed": false,
          "internalType": "uint256",
          "name": "withdrawalRequestTimestamp",
          "type": "uint256"
        }
      ],
      "name": "RequestWithdrawal",
      "type": "event"
    },
    {
      "anonymous": false,
      "inputs": [
        {
          "indexed": true,
          "internalType": "address",
          "name": "user",
          "type": "address"
        },
        {
          "indexed": true,
          "internalType": "uint256",
          "name": "collateralAmount",
          "type": "uint256"
        },
        {
          "indexed": false,
          "internalType": "uint256",
          "name": "withdrawalRequestTimestamp",
          "type": "uint256"
        }
      ],
      "name": "RequestWithdrawalCanceled",
      "type": "event"
    },
    {
      "anonymous": false,
      "inputs": [
        {
          "indexed": true,
          "internalType": "address",
          "name": "user",
          "type": "address"
        },
        {
          "indexed": true,
          "internalType": "uint256",
          "name": "collateralAmount",
          "type": "uint256"
        },
        {
          "indexed": false,
          "internalType": "uint256",
          "name": "exchangeRate",
          "type": "uint256"
        },
        {
          "indexed": false,
          "internalType": "uint256",
          "name": "withdrawalRequestTimestamp",
          "type": "uint256"
        }
      ],
      "name": "RequestWithdrawalExecuted",
      "type": "event"
    },
    {
      "inputs": [],
      "name": "collateralCurrency",
      "outputs": [
        {
          "internalType": "contract IERC20",
          "name": "",
          "type": "address"
        }
      ],
      "stateMutability": "view",
      "type": "function"
    },
    {
      "inputs": [],
      "name": "getCurrentTime",
      "outputs": [
        {
          "internalType": "uint256",
          "name": "",
          "type": "uint256"
        }
      ],
      "stateMutability": "view",
      "type": "function"
    },
    {
      "inputs": [
        {
          "internalType": "uint256",
          "name": "time",
          "type": "uint256"
        }
      ],
      "name": "setCurrentTime",
      "outputs": [],
      "stateMutability": "nonpayable",
      "type": "function"
    },
    {
      "inputs": [],
      "name": "timerAddress",
      "outputs": [
        {
          "internalType": "address",
          "name": "",
          "type": "address"
        }
      ],
      "stateMutability": "view",
      "type": "function"
    },
    {
      "inputs": [],
      "name": "totalOptimisticDepositBoxCollateral",
      "outputs": [
        {
          "internalType": "uint256",
          "name": "",
          "type": "uint256"
        }
      ],
      "stateMutability": "view",
      "type": "function"
    },
    {
      "inputs": [
        {
          "internalType": "uint256",
          "name": "collateralAmount",
          "type": "uint256"
        }
      ],
      "name": "deposit",
      "outputs": [],
      "stateMutability": "nonpayable",
      "type": "function"
    },
    {
      "inputs": [
        {
          "internalType": "uint256",
          "name": "denominatedCollateralAmount",
          "type": "uint256"
        }
      ],
      "name": "requestWithdrawal",
      "outputs": [],
      "stateMutability": "nonpayable",
      "type": "function"
    },
    {
      "inputs": [],
      "name": "executeWithdrawal",
      "outputs": [
        {
          "internalType": "uint256",
          "name": "amountWithdrawn",
          "type": "uint256"
        }
      ],
      "stateMutability": "nonpayable",
      "type": "function"
    },
    {
      "inputs": [],
      "name": "cancelWithdrawal",
      "outputs": [],
      "stateMutability": "nonpayable",
      "type": "function"
    },
    {
      "inputs": [
        {
          "internalType": "address",
          "name": "user",
          "type": "address"
        }
      ],
      "name": "getCollateral",
      "outputs": [
        {
          "internalType": "uint256",
          "name": "",
          "type": "uint256"
        }
      ],
      "stateMutability": "view",
      "type": "function"
    }
  ],
  "bytecode": "0x60806040523480156200001157600080fd5b50604051620014943803806200149483398101604081905262000034916200041b565b600080546001600160a81b0319166001600160a01b03831617600160a01b1790556200005f62000285565b620000726000805460ff60a01b19169055565b600380546001600160a01b0319166001600160a01b03851617905562000097620002e2565b6001600160a01b03166390978d1b836040518263ffffffff1660e01b8152600401620000c591815260200190565b60206040518083038186803b158015620000de57600080fd5b505afa158015620000f3573d6000803e3d6000fd5b505050506040513d601f19601f820116820180604052508101906200011991906200046e565b6200016b5760405162461bcd60e51b815260206004820152601c60248201527f556e737570706f72746564207072696365206964656e7469666965720000000060448201526064015b60405180910390fd5b6200017562000388565b604051631d1d5b3960e11b81526001600160a01b0386811660048301529190911690633a3ab6729060240160206040518083038186803b158015620001b957600080fd5b505afa158015620001ce573d6000803e3d6000fd5b505050506040513d601f19601f82011682018060405250810190620001f491906200046e565b620002425760405162461bcd60e51b815260206004820152601b60248201527f556e737570706f7274656420636f6c6c61746572616c20747970650000000000604482015260640162000162565b600480546001600160a01b0319166001600160a01b03861617905560028290556200027b6000805460ff60a01b1916600160a01b179055565b5050505062000490565b600054600160a01b900460ff16620002e05760405162461bcd60e51b815260206004820152601f60248201527f5265656e7472616e637947756172643a207265656e7472616e742063616c6c00604482015260640162000162565b565b6003546040516302abf57960e61b81527f4964656e74696669657257686974656c6973740000000000000000000000000060048201526000916001600160a01b03169063aafd5e40906024015b60206040518083038186803b1580156200034857600080fd5b505afa1580156200035d573d6000803e3d6000fd5b505050506040513d601f19601f82011682018060405250810190620003839190620003f7565b905090565b6003546040516302abf57960e61b81527f436f6c6c61746572616c57686974656c6973740000000000000000000000000060048201526000916001600160a01b03169063aafd5e40906024016200032f565b80516001600160a01b0381168114620003f257600080fd5b919050565b60006020828403121562000409578081fd5b6200041482620003da565b9392505050565b6000806000806080858703121562000431578283fd5b6200043c85620003da565b93506200044c60208601620003da565b9250604085015191506200046360608601620003da565b905092959194509250565b60006020828403121562000480578081fd5b8151801515811462000414578182fd5b610ff480620004a06000396000f3fe608060405234801561001057600080fd5b506004361061009e5760003560e01c80639b56d6c9116100665780639b56d6c9146101195780639ee679e81461012c578063b6b55f251461013f578063dfddabaa14610152578063fa45aa001461015b57600080fd5b80630de15fd9146100a35780631c39c38d146100d357806322611280146100e657806322f8e566146100f057806329cb924d14610103575b600080fd5b6004546100b6906001600160a01b031681565b6040516001600160a01b0390911681526020015b60405180910390f35b6000546100b6906001600160a01b031681565b6100ee610163565b005b6100ee6100fe366004610e92565b61022d565b61010b6102a3565b6040519081526020016100ca565b61010b610127366004610e22565b610346565b6100ee61013a366004610e92565b61036f565b6100ee61014d366004610e92565b61044e565b61010b60055481565b61010b61056d565b61016b610712565b61017d6000805460ff60a01b19169055565b336000908152600160208190526040909120908101546101dc5760405162461bcd60e51b8152602060048201526015602482015274139bc81c195b991a5b99c81dda5d1a191c985dd85b605a1b60448201526064015b60405180910390fd5b8054600182015460405190815233907fb158ea6c33db5aec992a08be94850f984ed987f3d524e5ec7d0662b689093b149060200160405180910390a3600080825560018201555061022b61076b565b565b6000546001600160a01b031661024257600080fd5b60005460405163117c72b360e11b8152600481018390526001600160a01b03909116906322f8e56690602401600060405180830381600087803b15801561028857600080fd5b505af115801561029c573d6000803e3d6000fd5b5050505050565b600080546001600160a01b03161561033e5760008054906101000a90046001600160a01b03166001600160a01b03166329cb924d6040518163ffffffff1660e01b815260040160206040518083038186803b15801561030157600080fd5b505afa158015610315573d6000803e3d6000fd5b505050506040513d601f19601f820116820180604052508101906103399190610e7a565b905090565b504290565b90565b6000610350610712565b506001600160a01b031660009081526001602052604090206002015490565b3361037981610780565b610381610712565b6103936000805460ff60a01b19169055565b336000908152600160205260409020826103eb5760405162461bcd60e51b8152602060048201526019602482015278125b9d985b1a590818dbdb1b185d195c985b08185b5bdd5b9d603a1b60448201526064016101d3565b8281556103f66102a3565b60018201819055604051908152839033907fadf0d81321571e1d83f52cfa9faf7add412d39431677ee21583f0d8998a9c8389060200160405180910390a361044181600101546107df565b5061044a61076b565b5050565b610456610712565b6104686000805460ff60a01b19169055565b600081116104b45760405162461bcd60e51b8152602060048201526019602482015278125b9d985b1a590818dbdb1b185d195c985b08185b5bdd5b9d603a1b60448201526064016101d3565b33600090815260016020526040902060028101546104f85760405133907f5b4f05768e926839c662b50d15b54a8dc09e7bcecdc5555797b36befc536be7990600090a25b60028101546105079083610896565b60028201556005546105199083610896565b600555604051829033907fe1fffcc4923d04b559f4d29a8bfc6cda04eb5b0d3c460751c2402c5c5cc9109c90600090a3600454610561906001600160a01b03163330856108a9565b5061056a61076b565b50565b6000610577610712565b6105896000805460ff60a01b19169055565b33600090815260016020819052604090912090810154158015906105b857506105b06102a3565b816001015411155b6106045760405162461bcd60e51b815260206004820152601860248201527f496e76616c69642077697468647261772072657175657374000000000000000060448201526064016101d3565b6000610613826001015461091a565b604080516020808201835283825282519081019092528454825291925060009161063d9190610ab0565b516002840154909150811061067e5750600282015460405133907ffaef2b8b7c70f0da0a2ba1eb9e2b903a20a3b6004f0199a097e39be70119f5a890600090a25b600283015461068d9082610af5565b600284015560055461069f9082610af5565b6005556001830154604080518481526020810192909252829133917f1489278b1433363140f0068698af68fad66f0f617b6cabe5710540b57397de42910160405180910390a360008084556001840155600454610706906001600160a01b03163383610b01565b9250505061034361076b565b600054600160a01b900460ff1661022b5760405162461bcd60e51b815260206004820152601f60248201527f5265656e7472616e637947756172643a207265656e7472616e742063616c6c0060448201526064016101d3565b6000805460ff60a01b1916600160a01b179055565b6001600160a01b038116600090815260016020819052604090912001541561056a5760405162461bcd60e51b815260206004820152601260248201527114195b991a5b99c81dda5d1a191c985dd85b60721b60448201526064016101d3565b60006107e9610b31565b600254600480546040516311df92f160e01b8152918201929092526024810185905260a06044820152600060a482018190526001600160a01b03928316606483015260848201529192508216906311df92f19060c401602060405180830381600087803b15801561085957600080fd5b505af115801561086d573d6000803e3d6000fd5b505050506040513d601f19601f820116820180604052508101906108919190610e7a565b505050565b60006108a28284610ef9565b9392505050565b6040516001600160a01b03808516602483015283166044820152606481018290526109149085906323b872dd60e01b906084015b60408051601f198184030181529190526020810180516001600160e01b03166001600160e01b031990931692909217909152610bc0565b50505050565b600080610925610b31565b600254604051635e2c665560e11b815230600482015260248101919091526044810185905260806064820152600060848201529091506001600160a01b0382169063bc58ccaa9060a40160206040518083038186803b15801561098757600080fd5b505afa15801561099b573d6000803e3d6000fd5b505050506040513d601f19601f820116820180604052508101906109bf9190610e5a565b610a055760405162461bcd60e51b8152602060048201526017602482015276556e7265736f6c766564206f7261636c6520707269636560481b60448201526064016101d3565b6002546040516353b5923960e01b815260048101919091526024810184905260606044820152600060648201819052906001600160a01b038316906353b5923990608401602060405180830381600087803b158015610a6357600080fd5b505af1158015610a77573d6000803e3d6000fd5b505050506040513d601f19601f82011682018060405250810190610a9b9190610e7a565b905060008112156108a2575060009392505050565b6040805160208101909152600081526040805160208101909152825184518291610aec91610ae690670de0b6b3a7640000610c92565b90610c9e565b90529392505050565b60006108a28284610f50565b6040516001600160a01b03831660248201526044810182905261089190849063a9059cbb60e01b906064016108dd565b6003546040516302abf57960e61b81526f4f7074696d69737469634f7261636c6560801b60048201526000916001600160a01b03169063aafd5e409060240160206040518083038186803b158015610b8857600080fd5b505afa158015610b9c573d6000803e3d6000fd5b505050506040513d601f19601f820116820180604052508101906103399190610e3e565b6000610c15826040518060400160405280602081526020017f5361666545524332303a206c6f772d6c6576656c2063616c6c206661696c6564815250856001600160a01b0316610caa9092919063ffffffff16565b8051909150156108915780806020019051810190610c339190610e5a565b6108915760405162461bcd60e51b815260206004820152602a60248201527f5361666545524332303a204552433230206f7065726174696f6e20646964206e6044820152691bdd081cdd58d8d9595960b21b60648201526084016101d3565b60006108a28284610f31565b60006108a28284610f11565b6060610cb98484600085610cc1565b949350505050565b606082471015610d225760405162461bcd60e51b815260206004820152602660248201527f416464726573733a20696e73756666696369656e742062616c616e636520666f6044820152651c8818d85b1b60d21b60648201526084016101d3565b843b610d705760405162461bcd60e51b815260206004820152601d60248201527f416464726573733a2063616c6c20746f206e6f6e2d636f6e747261637400000060448201526064016101d3565b600080866001600160a01b03168587604051610d8c9190610eaa565b60006040518083038185875af1925050503d8060008114610dc9576040519150601f19603f3d011682016040523d82523d6000602084013e610dce565b606091505b5091509150610dde828286610de9565b979650505050505050565b60608315610df85750816108a2565b825115610e085782518084602001fd5b8160405162461bcd60e51b81526004016101d39190610ec6565b600060208284031215610e33578081fd5b81356108a281610fa9565b600060208284031215610e4f578081fd5b81516108a281610fa9565b600060208284031215610e6b578081fd5b815180151581146108a2578182fd5b600060208284031215610e8b578081fd5b5051919050565b600060208284031215610ea3578081fd5b5035919050565b60008251610ebc818460208701610f67565b9190910192915050565b6020815260008251806020840152610ee5816040850160208701610f67565b601f01601f19169190910160400192915050565b60008219821115610f0c57610f0c610f93565b500190565b600082610f2c57634e487b7160e01b81526012600452602481fd5b500490565b6000816000190483118215151615610f4b57610f4b610f93565b500290565b600082821015610f6257610f62610f93565b500390565b60005b83811015610f82578181015183820152602001610f6a565b838111156109145750506000910152565b634e487b7160e01b600052601160045260246000fd5b6001600160a01b038116811461056a57600080fdfea2646970667358221220d2a8047ec5785c657273cd7da3b85a4b9800897a32d40259eb17dcf9f6b8188d64736f6c63430008040033",
  "immutableReferences": {},
  "source": "// SPDX-License-Identifier: AGPL-3.0-only\npragma solidity ^0.8.0;\n\nimport \"@openzeppelin/contracts/utils/math/SafeMath.sol\";\nimport \"@openzeppelin/contracts/token/ERC20/IERC20.sol\";\nimport \"@openzeppelin/contracts/token/ERC20/utils/SafeERC20.sol\";\n\nimport \"../../common/implementation/FixedPoint.sol\";\nimport \"../../common/implementation/AddressWhitelist.sol\";\nimport \"../../common/implementation/Testable.sol\";\nimport \"../../common/implementation/Lockable.sol\";\n\nimport \"../../oracle/interfaces/FinderInterface.sol\";\nimport \"../../oracle/interfaces/IdentifierWhitelistInterface.sol\";\nimport \"../../oracle/interfaces/OptimisticOracleInterface.sol\";\nimport \"../../oracle/implementation/ContractCreator.sol\";\n\n/**\n * @title Optimistic Token Deposit Box\n * @notice This is a minimal example of a financial template that depends on price requests from the Optimistic Oracle.\n * This contract should be thought of as a \"Deposit Box\" into which the user deposits some ERC20 collateral.\n * The main feature of this box is that the user can withdraw their ERC20 corresponding to a desired USD amount.\n * When the user wants to make a withdrawal, a price request is made to the Optimistic Oracle.\n * For simplicity, the user is constrained to have one outstanding withdrawal request at any given time.\n * Final fees are charged to the proposer of a price but not to the contract making a price request.\n *\n * This example is intended to accompany a technical tutorial for how to integrate the Optimistic Oracle into a project.\n * The main feature this demo serves to showcase is how to build a financial product on-chain that \"pulls\" price\n * requests from the Optimistic Oracle on-demand, which is an implementation of the \"priceless\" oracle framework.\n *\n * The typical user flow would be:\n * - User sets up a deposit box for the ETH/USD price-identifier.\n *   The \"collateral currency\" in this deposit box is therefore wETH.\n *   The user can subsequently make withdrawal requests for USD-denominated amounts of wETH.\n * - User deposits 10 wETH into their deposit box.\n * - User later requests to withdraw $10,000 USD of wETH.\n * - OptimisticDepositBox asks Optimistic Oracle for latest ETH/USD exchange rate.\n * - Optimistic Oracle resolves the exchange rate at: 1 wETH is worth 2000 USD.\n * - OptimisticDepositBox transfers 5 wETH to user.\n */\ncontract OptimisticDepositBox is Testable, Lockable {\n    using SafeMath for uint256;\n    using FixedPoint for FixedPoint.Unsigned;\n    using SafeERC20 for IERC20;\n\n    // Represents a single caller's deposit box. All collateral is held by this contract.\n    struct OptimisticDepositBoxData {\n        // Requested amount of collateral, denominated in the quote asset of the price identifier.\n        // Example: If the price identifier is ETH/USD, and the `withdrawalRequestAmount = 1000`, then\n        // this represents a withdrawal request for 1000 USD worth of wETH.\n        uint256 withdrawalRequestAmount;\n        // Timestamp of the latest withdrawal request. A withdrawal request is pending if `withdrawalRequestTimestamp != 0`.\n        uint256 withdrawalRequestTimestamp;\n        // Collateral value.\n        uint256 collateral;\n    }\n\n    // Maps addresses to their deposit boxes. Each address can have only one position.\n    mapping(address => OptimisticDepositBoxData) private depositBoxes;\n\n    // Unique identifier for price feed ticker.\n    bytes32 private priceIdentifier;\n\n    // Finder for UMA contracts.\n    FinderInterface finder;\n\n    // The collateral currency used to back the positions in this contract.\n    IERC20 public collateralCurrency;\n\n    // Total collateral of all depositors.\n    uint256 public totalOptimisticDepositBoxCollateral;\n\n    /****************************************\n     *                EVENTS                *\n     ****************************************/\n\n    event NewOptimisticDepositBox(address indexed user);\n    event EndedOptimisticDepositBox(address indexed user);\n    event Deposit(address indexed user, uint256 indexed collateralAmount);\n    event RequestWithdrawal(address indexed user, uint256 indexed collateralAmount, uint256 withdrawalRequestTimestamp);\n    event RequestWithdrawalExecuted(\n        address indexed user,\n        uint256 indexed collateralAmount,\n        uint256 exchangeRate,\n        uint256 withdrawalRequestTimestamp\n    );\n    event RequestWithdrawalCanceled(\n        address indexed user,\n        uint256 indexed collateralAmount,\n        uint256 withdrawalRequestTimestamp\n    );\n\n    /****************************************\n     *               MODIFIERS              *\n     ****************************************/\n\n    modifier noPendingWithdrawal(address user) {\n        _depositBoxHasNoPendingWithdrawal(user);\n        _;\n    }\n\n    /****************************************\n     *           PUBLIC FUNCTIONS           *\n     ****************************************/\n\n    /**\n     * @notice Construct the OptimisticDepositBox.\n     * @param _collateralAddress ERC20 token to be deposited.\n     * @param _finderAddress UMA protocol Finder used to discover other protocol contracts.\n     * @param _priceIdentifier registered in the DVM, used to price the ERC20 deposited.\n     * The price identifier consists of a \"base\" asset and a \"quote\" asset. The \"base\" asset corresponds\n     * to the collateral ERC20 currency deposited into this account, and it is denominated in the \"quote\"\n     * asset on withdrawals.\n     * An example price identifier would be \"ETH/USD\" which will resolve and return the USD price of ETH.\n     * @param _timerAddress contract that stores the current time in a testing environment.\n     * Must be set to 0x0 for production environments that use live time.\n     */\n    constructor(\n        address _collateralAddress,\n        address _finderAddress,\n        bytes32 _priceIdentifier,\n        address _timerAddress\n    ) nonReentrant() Testable(_timerAddress) {\n        finder = FinderInterface(_finderAddress);\n        require(_getIdentifierWhitelist().isIdentifierSupported(_priceIdentifier), \"Unsupported price identifier\");\n        require(_getAddressWhitelist().isOnWhitelist(_collateralAddress), \"Unsupported collateral type\");\n        collateralCurrency = IERC20(_collateralAddress);\n        priceIdentifier = _priceIdentifier;\n    }\n\n    /**\n     * @notice Transfers `collateralAmount` of `collateralCurrency` into caller's deposit box.\n     * @dev This contract must be approved to spend at least `collateralAmount` of `collateralCurrency`.\n     * @param collateralAmount total amount of collateral tokens to be sent to the sponsor's position.\n     */\n    function deposit(uint256 collateralAmount) public nonReentrant() {\n        require(collateralAmount > 0, \"Invalid collateral amount\");\n        OptimisticDepositBoxData storage depositBoxData = depositBoxes[msg.sender];\n        if (depositBoxData.collateral == 0) {\n            emit NewOptimisticDepositBox(msg.sender);\n        }\n\n        // Increase the individual deposit box and global collateral balance by collateral amount.\n        depositBoxData.collateral = depositBoxData.collateral.add(collateralAmount);\n        totalOptimisticDepositBoxCollateral = totalOptimisticDepositBoxCollateral.add(collateralAmount);\n\n        emit Deposit(msg.sender, collateralAmount);\n\n        // Move collateral currency from sender to contract.\n        collateralCurrency.safeTransferFrom(msg.sender, address(this), collateralAmount);\n    }\n\n    /**\n     * @notice Starts a withdrawal request that allows the sponsor to withdraw `denominatedCollateralAmount`\n     * from their position denominated in the quote asset of the price identifier, following a Optimistic\n     * Oracle price resolution.\n     * @dev The request will be pending for the duration of the liveness period and can be cancelled at any\n     * time. Only one withdrawal request can exist for the user.\n     * @param denominatedCollateralAmount the quote-asset denominated amount of collateral requested to\n     * withdraw.\n     */\n    function requestWithdrawal(uint256 denominatedCollateralAmount)\n        public\n        noPendingWithdrawal(msg.sender)\n        nonReentrant()\n    {\n        OptimisticDepositBoxData storage depositBoxData = depositBoxes[msg.sender];\n        require(denominatedCollateralAmount > 0, \"Invalid collateral amount\");\n\n        // Update the position data for the user.\n        depositBoxData.withdrawalRequestAmount = denominatedCollateralAmount;\n        depositBoxData.withdrawalRequestTimestamp = getCurrentTime();\n\n        emit RequestWithdrawal(msg.sender, denominatedCollateralAmount, depositBoxData.withdrawalRequestTimestamp);\n\n        // A price request is sent for the current timestamp.\n        _requestOraclePrice(depositBoxData.withdrawalRequestTimestamp);\n    }\n\n    /**\n     * @notice After a withdrawal request (i.e., by a call to `requestWithdrawal`) and optimistic oracle\n     * price resolution, withdraws `depositBoxData.withdrawalRequestAmount` of collateral currency\n     * denominated in the quote asset.\n     * @dev Might not withdraw the full requested amount in order to account for precision loss.\n     * @return amountWithdrawn The actual amount of collateral withdrawn.\n     */\n    function executeWithdrawal() external nonReentrant() returns (uint256 amountWithdrawn) {\n        OptimisticDepositBoxData storage depositBoxData = depositBoxes[msg.sender];\n        require(\n            depositBoxData.withdrawalRequestTimestamp != 0 &&\n                depositBoxData.withdrawalRequestTimestamp <= getCurrentTime(),\n            \"Invalid withdraw request\"\n        );\n\n        // Get the resolved price or revert.\n        // Note that in practice, you may have to do some additional math here to deal with scaling in the oracle price.\n        uint256 exchangeRate = _getOraclePrice(depositBoxData.withdrawalRequestTimestamp);\n\n        // Calculate denomated amount of collateral based on resolved exchange rate.\n        // Example 1: User wants to withdraw $1000 of ETH, exchange rate is $2000/ETH, therefore user to receive 0.5 ETH.\n        // Example 2: User wants to withdraw $2500 of ETH, exchange rate is $2000/ETH, therefore user to receive 1.25 ETH.\n        uint256 denominatedAmountToWithdraw =\n            FixedPoint.Unsigned(depositBoxData.withdrawalRequestAmount).div(FixedPoint.Unsigned(exchangeRate)).rawValue;\n\n        // If withdrawal request amount is > collateral, then withdraw the full collateral amount.\n        if (denominatedAmountToWithdraw >= depositBoxData.collateral) {\n            denominatedAmountToWithdraw = depositBoxData.collateral;\n            emit EndedOptimisticDepositBox(msg.sender);\n        }\n\n        // Decrease the individual deposit box and global collateral balance.\n        depositBoxData.collateral = depositBoxData.collateral.sub(denominatedAmountToWithdraw);\n        totalOptimisticDepositBoxCollateral = totalOptimisticDepositBoxCollateral.sub(denominatedAmountToWithdraw);\n\n        emit RequestWithdrawalExecuted(\n            msg.sender,\n            denominatedAmountToWithdraw,\n            exchangeRate,\n            depositBoxData.withdrawalRequestTimestamp\n        );\n\n        // Reset withdrawal request by setting withdrawal request timestamp to 0.\n        _resetWithdrawalRequest(depositBoxData);\n\n        // Transfer approved withdrawal amount from the contract to the caller.\n        collateralCurrency.safeTransfer(msg.sender, denominatedAmountToWithdraw);\n        return denominatedAmountToWithdraw;\n    }\n\n    /**\n     * @notice Cancels a pending withdrawal request.\n     */\n    function cancelWithdrawal() external nonReentrant() {\n        OptimisticDepositBoxData storage depositBoxData = depositBoxes[msg.sender];\n        require(depositBoxData.withdrawalRequestTimestamp != 0, \"No pending withdrawal\");\n\n        emit RequestWithdrawalCanceled(\n            msg.sender,\n            depositBoxData.withdrawalRequestAmount,\n            depositBoxData.withdrawalRequestTimestamp\n        );\n\n        // Reset withdrawal request by setting withdrawal request timestamp and withdrawal amount to 0.\n        _resetWithdrawalRequest(depositBoxData);\n    }\n\n    /**\n     * @notice Accessor method for a user's collateral.\n     * @param user address whose collateral amount is retrieved.\n     * @return the collateral amount in the deposit box (i.e. available for withdrawal).\n     */\n    function getCollateral(address user) external view nonReentrantView() returns (uint256) {\n        return depositBoxes[user].collateral;\n    }\n\n    /****************************************\n     *          INTERNAL FUNCTIONS          *\n     ****************************************/\n\n    // Requests a price for `priceIdentifier` at `requestedTime` from the Optimistic Oracle.\n    function _requestOraclePrice(uint256 requestedTime) internal {\n        OptimisticOracleInterface oracle = _getOptimisticOracle();\n        // For other use cases, you may need ancillary data or a reward. Here, they are both zero.\n        oracle.requestPrice(priceIdentifier, requestedTime, \"\", IERC20(collateralCurrency), 0);\n    }\n\n    function _resetWithdrawalRequest(OptimisticDepositBoxData storage depositBoxData) internal {\n        depositBoxData.withdrawalRequestAmount = 0;\n        depositBoxData.withdrawalRequestTimestamp = 0;\n    }\n\n    function _depositBoxHasNoPendingWithdrawal(address user) internal view {\n        require(depositBoxes[user].withdrawalRequestTimestamp == 0, \"Pending withdrawal\");\n    }\n\n    function _getOptimisticOracle() internal view returns (OptimisticOracleInterface) {\n        return OptimisticOracleInterface(finder.getImplementationAddress(OracleInterfaces.OptimisticOracle));\n    }\n\n    function _getIdentifierWhitelist() internal view returns (IdentifierWhitelistInterface) {\n        return IdentifierWhitelistInterface(finder.getImplementationAddress(OracleInterfaces.IdentifierWhitelist));\n    }\n\n    function _getAddressWhitelist() internal view returns (AddressWhitelist) {\n        return AddressWhitelist(finder.getImplementationAddress(OracleInterfaces.CollateralWhitelist));\n    }\n\n    // Fetches a resolved oracle price from the Optimistic Oracle. Reverts if the oracle hasn't resolved for this request.\n    function _getOraclePrice(uint256 withdrawalRequestTimestamp) internal returns (uint256) {\n        OptimisticOracleInterface oracle = _getOptimisticOracle();\n        require(\n            oracle.hasPrice(address(this), priceIdentifier, withdrawalRequestTimestamp, \"\"),\n            \"Unresolved oracle price\"\n        );\n        int256 oraclePrice = oracle.settleAndGetPrice(priceIdentifier, withdrawalRequestTimestamp, \"\");\n\n        // For simplicity we don't want to deal with negative prices.\n        if (oraclePrice < 0) {\n            oraclePrice = 0;\n        }\n        return uint256(oraclePrice);\n    }\n}\n",
  "sourcePath": "/home/circleci/protocol/packages/core/contracts/financial-templates/demo/OptimisticDepositBox.sol",
  "compiler": {
    "name": "solc",
    "version": "0.8.4+commit.c7e474f2.Emscripten.clang"
  },
  "schemaVersion": "3.3.4",
  "updatedAt": "2021-07-16T20:27:09.774Z",
  "devdoc": {
    "kind": "dev",
    "methods": {
      "constructor": {
        "params": {
          "_collateralAddress": "ERC20 token to be deposited.",
          "_finderAddress": "UMA protocol Finder used to discover other protocol contracts.",
          "_priceIdentifier": "registered in the DVM, used to price the ERC20 deposited. The price identifier consists of a \"base\" asset and a \"quote\" asset. The \"base\" asset corresponds to the collateral ERC20 currency deposited into this account, and it is denominated in the \"quote\" asset on withdrawals. An example price identifier would be \"ETH/USD\" which will resolve and return the USD price of ETH.",
          "_timerAddress": "contract that stores the current time in a testing environment. Must be set to 0x0 for production environments that use live time."
        }
      },
      "deposit(uint256)": {
        "details": "This contract must be approved to spend at least `collateralAmount` of `collateralCurrency`.",
        "params": {
          "collateralAmount": "total amount of collateral tokens to be sent to the sponsor's position."
        }
      },
      "executeWithdrawal()": {
        "details": "Might not withdraw the full requested amount in order to account for precision loss.",
        "returns": {
          "amountWithdrawn": "The actual amount of collateral withdrawn."
        }
      },
      "getCollateral(address)": {
        "params": {
          "user": "address whose collateral amount is retrieved."
        },
        "returns": {
          "_0": "the collateral amount in the deposit box (i.e. available for withdrawal)."
        }
      },
      "getCurrentTime()": {
        "returns": {
          "_0": "uint for the current Testable timestamp."
        }
      },
      "requestWithdrawal(uint256)": {
        "details": "The request will be pending for the duration of the liveness period and can be cancelled at any time. Only one withdrawal request can exist for the user.",
        "params": {
          "denominatedCollateralAmount": "the quote-asset denominated amount of collateral requested to withdraw."
        }
      },
      "setCurrentTime(uint256)": {
        "details": "Will revert if not running in test mode.",
        "params": {
          "time": "timestamp to set current Testable time to."
        }
      }
    },
    "title": "Optimistic Token Deposit Box",
    "version": 1
  },
  "userdoc": {
    "kind": "user",
    "methods": {
      "cancelWithdrawal()": {
        "notice": "Cancels a pending withdrawal request."
      },
      "constructor": {
        "notice": "Construct the OptimisticDepositBox."
      },
      "deposit(uint256)": {
        "notice": "Transfers `collateralAmount` of `collateralCurrency` into caller's deposit box."
      },
      "executeWithdrawal()": {
        "notice": "After a withdrawal request (i.e., by a call to `requestWithdrawal`) and optimistic oracle price resolution, withdraws `depositBoxData.withdrawalRequestAmount` of collateral currency denominated in the quote asset."
      },
      "getCollateral(address)": {
        "notice": "Accessor method for a user's collateral."
      },
      "getCurrentTime()": {
        "notice": "Gets the current time. Will return the last time set in `setCurrentTime` if running in test mode. Otherwise, it will return the block timestamp."
      },
      "requestWithdrawal(uint256)": {
        "notice": "Starts a withdrawal request that allows the sponsor to withdraw `denominatedCollateralAmount` from their position denominated in the quote asset of the price identifier, following a Optimistic Oracle price resolution."
      },
      "setCurrentTime(uint256)": {
        "notice": "Sets the current time."
      }
    },
    "notice": "This is a minimal example of a financial template that depends on price requests from the Optimistic Oracle. This contract should be thought of as a \"Deposit Box\" into which the user deposits some ERC20 collateral. The main feature of this box is that the user can withdraw their ERC20 corresponding to a desired USD amount. When the user wants to make a withdrawal, a price request is made to the Optimistic Oracle. For simplicity, the user is constrained to have one outstanding withdrawal request at any given time. Final fees are charged to the proposer of a price but not to the contract making a price request. This example is intended to accompany a technical tutorial for how to integrate the Optimistic Oracle into a project. The main feature this demo serves to showcase is how to build a financial product on-chain that \"pulls\" price requests from the Optimistic Oracle on-demand, which is an implementation of the \"priceless\" oracle framework. The typical user flow would be: - User sets up a deposit box for the ETH/USD price-identifier.   The \"collateral currency\" in this deposit box is therefore wETH.   The user can subsequently make withdrawal requests for USD-denominated amounts of wETH. - User deposits 10 wETH into their deposit box. - User later requests to withdraw $10,000 USD of wETH. - OptimisticDepositBox asks Optimistic Oracle for latest ETH/USD exchange rate. - Optimistic Oracle resolves the exchange rate at: 1 wETH is worth 2000 USD. - OptimisticDepositBox transfers 5 wETH to user.",
    "version": 1
  }
}