{
  "contractName": "PerpetualPositionManager",
  "abi": [
    {
      "inputs": [
        {
          "internalType": "uint256",
          "name": "_withdrawalLiveness",
          "type": "uint256"
        },
        {
          "internalType": "address",
          "name": "_collateralAddress",
          "type": "address"
        },
        {
          "internalType": "address",
          "name": "_tokenAddress",
          "type": "address"
        },
        {
          "internalType": "address",
          "name": "_finderAddress",
          "type": "address"
        },
        {
          "internalType": "bytes32",
          "name": "_priceIdentifier",
          "type": "bytes32"
        },
        {
          "internalType": "bytes32",
          "name": "_fundingRateIdentifier",
          "type": "bytes32"
        },
        {
          "components": [
            {
              "internalType": "uint256",
              "name": "rawValue",
              "type": "uint256"
            }
          ],
          "internalType": "struct FixedPoint.Unsigned",
          "name": "_minSponsorTokens",
          "type": "tuple"
        },
        {
          "internalType": "address",
          "name": "_configStoreAddress",
          "type": "address"
        },
        {
          "components": [
            {
              "internalType": "uint256",
              "name": "rawValue",
              "type": "uint256"
            }
          ],
          "internalType": "struct FixedPoint.Unsigned",
          "name": "_tokenScaling",
          "type": "tuple"
        },
        {
          "internalType": "address",
          "name": "_timerAddress",
          "type": "address"
        }
      ],
      "stateMutability": "nonpayable",
      "type": "constructor"
    },
    {
      "anonymous": false,
      "inputs": [
        {
          "indexed": true,
          "internalType": "address",
          "name": "sponsor",
          "type": "address"
        },
        {
          "indexed": true,
          "internalType": "uint256",
          "name": "collateralAmount",
          "type": "uint256"
        }
      ],
      "name": "Deposit",
      "type": "event"
    },
    {
      "anonymous": false,
      "inputs": [
        {
          "indexed": true,
          "internalType": "address",
          "name": "caller",
          "type": "address"
        },
        {
          "indexed": false,
          "internalType": "uint256",
          "name": "shutdownTimestamp",
          "type": "uint256"
        }
      ],
      "name": "EmergencyShutdown",
      "type": "event"
    },
    {
      "anonymous": false,
      "inputs": [
        {
          "indexed": true,
          "internalType": "address",
          "name": "sponsor",
          "type": "address"
        }
      ],
      "name": "EndedSponsorPosition",
      "type": "event"
    },
    {
      "anonymous": false,
      "inputs": [
        {
          "indexed": true,
          "internalType": "uint256",
          "name": "amount",
          "type": "uint256"
        }
      ],
      "name": "FinalFeesPaid",
      "type": "event"
    },
    {
      "anonymous": false,
      "inputs": [
        {
          "indexed": false,
          "internalType": "int256",
          "name": "newFundingRate",
          "type": "int256"
        },
        {
          "indexed": true,
          "internalType": "uint256",
          "name": "updateTime",
          "type": "uint256"
        },
        {
          "indexed": false,
          "internalType": "uint256",
          "name": "reward",
          "type": "uint256"
        }
      ],
      "name": "FundingRateUpdated",
      "type": "event"
    },
    {
      "anonymous": false,
      "inputs": [
        {
          "indexed": true,
          "internalType": "address",
          "name": "sponsor",
          "type": "address"
        }
      ],
      "name": "NewSponsor",
      "type": "event"
    },
    {
      "anonymous": false,
      "inputs": [
        {
          "indexed": true,
          "internalType": "address",
          "name": "sponsor",
          "type": "address"
        },
        {
          "indexed": true,
          "internalType": "uint256",
          "name": "collateralAmount",
          "type": "uint256"
        },
        {
          "indexed": true,
          "internalType": "uint256",
          "name": "tokenAmount",
          "type": "uint256"
        }
      ],
      "name": "PositionCreated",
      "type": "event"
    },
    {
      "anonymous": false,
      "inputs": [
        {
          "indexed": true,
          "internalType": "address",
          "name": "sponsor",
          "type": "address"
        },
        {
          "indexed": true,
          "internalType": "uint256",
          "name": "collateralAmount",
          "type": "uint256"
        },
        {
          "indexed": true,
          "internalType": "uint256",
          "name": "tokenAmount",
          "type": "uint256"
        }
      ],
      "name": "Redeem",
      "type": "event"
    },
    {
      "anonymous": false,
      "inputs": [
        {
          "indexed": true,
          "internalType": "uint256",
          "name": "regularFee",
          "type": "uint256"
        },
        {
          "indexed": true,
          "internalType": "uint256",
          "name": "lateFee",
          "type": "uint256"
        }
      ],
      "name": "RegularFeesPaid",
      "type": "event"
    },
    {
      "anonymous": false,
      "inputs": [
        {
          "indexed": true,
          "internalType": "address",
          "name": "sponsor",
          "type": "address"
        },
        {
          "indexed": true,
          "internalType": "uint256",
          "name": "numTokensRepaid",
          "type": "uint256"
        },
        {
          "indexed": true,
          "internalType": "uint256",
          "name": "newTokenCount",
          "type": "uint256"
        }
      ],
      "name": "Repay",
      "type": "event"
    },
    {
      "anonymous": false,
      "inputs": [
        {
          "indexed": true,
          "internalType": "address",
          "name": "sponsor",
          "type": "address"
        },
        {
          "indexed": true,
          "internalType": "uint256",
          "name": "collateralAmount",
          "type": "uint256"
        }
      ],
      "name": "RequestWithdrawal",
      "type": "event"
    },
    {
      "anonymous": false,
      "inputs": [
        {
          "indexed": true,
          "internalType": "address",
          "name": "sponsor",
          "type": "address"
        },
        {
          "indexed": true,
          "internalType": "uint256",
          "name": "collateralAmount",
          "type": "uint256"
        }
      ],
      "name": "RequestWithdrawalCanceled",
      "type": "event"
    },
    {
      "anonymous": false,
      "inputs": [
        {
          "indexed": true,
          "internalType": "address",
          "name": "sponsor",
          "type": "address"
        },
        {
          "indexed": true,
          "internalType": "uint256",
          "name": "collateralAmount",
          "type": "uint256"
        }
      ],
      "name": "RequestWithdrawalExecuted",
      "type": "event"
    },
    {
      "anonymous": false,
      "inputs": [
        {
          "indexed": true,
          "internalType": "address",
          "name": "caller",
          "type": "address"
        },
        {
          "indexed": true,
          "internalType": "uint256",
          "name": "collateralReturned",
          "type": "uint256"
        },
        {
          "indexed": true,
          "internalType": "uint256",
          "name": "tokensBurned",
          "type": "uint256"
        }
      ],
      "name": "SettleEmergencyShutdown",
      "type": "event"
    },
    {
      "anonymous": false,
      "inputs": [
        {
          "indexed": true,
          "internalType": "address",
          "name": "sponsor",
          "type": "address"
        },
        {
          "indexed": true,
          "internalType": "uint256",
          "name": "collateralAmount",
          "type": "uint256"
        }
      ],
      "name": "Withdrawal",
      "type": "event"
    },
    {
      "inputs": [],
      "name": "applyFundingRate",
      "outputs": [],
      "stateMutability": "nonpayable",
      "type": "function"
    },
    {
      "inputs": [],
      "name": "collateralCurrency",
      "outputs": [
        {
          "internalType": "contract IERC20",
          "name": "",
          "type": "address"
        }
      ],
      "stateMutability": "view",
      "type": "function"
    },
    {
      "inputs": [],
      "name": "configStore",
      "outputs": [
        {
          "internalType": "contract ConfigStoreInterface",
          "name": "",
          "type": "address"
        }
      ],
      "stateMutability": "view",
      "type": "function"
    },
    {
      "inputs": [],
      "name": "cumulativeFeeMultiplier",
      "outputs": [
        {
          "internalType": "uint256",
          "name": "rawValue",
          "type": "uint256"
        }
      ],
      "stateMutability": "view",
      "type": "function"
    },
    {
      "inputs": [],
      "name": "emergencyShutdownPrice",
      "outputs": [
        {
          "internalType": "uint256",
          "name": "rawValue",
          "type": "uint256"
        }
      ],
      "stateMutability": "view",
      "type": "function"
    },
    {
      "inputs": [],
      "name": "emergencyShutdownTimestamp",
      "outputs": [
        {
          "internalType": "uint256",
          "name": "",
          "type": "uint256"
        }
      ],
      "stateMutability": "view",
      "type": "function"
    },
    {
      "inputs": [],
      "name": "finder",
      "outputs": [
        {
          "internalType": "contract FinderInterface",
          "name": "",
          "type": "address"
        }
      ],
      "stateMutability": "view",
      "type": "function"
    },
    {
      "inputs": [],
      "name": "fundingRate",
      "outputs": [
        {
          "components": [
            {
              "internalType": "int256",
              "name": "rawValue",
              "type": "int256"
            }
          ],
          "internalType": "struct FixedPoint.Signed",
          "name": "rate",
          "type": "tuple"
        },
        {
          "internalType": "bytes32",
          "name": "identifier",
          "type": "bytes32"
        },
        {
          "components": [
            {
              "internalType": "uint256",
              "name": "rawValue",
              "type": "uint256"
            }
          ],
          "internalType": "struct FixedPoint.Unsigned",
          "name": "cumulativeMultiplier",
          "type": "tuple"
        },
        {
          "internalType": "uint256",
          "name": "updateTime",
          "type": "uint256"
        },
        {
          "internalType": "uint256",
          "name": "applicationTime",
          "type": "uint256"
        },
        {
          "internalType": "uint256",
          "name": "proposalTime",
          "type": "uint256"
        }
      ],
      "stateMutability": "view",
      "type": "function"
    },
    {
      "inputs": [],
      "name": "getCurrentTime",
      "outputs": [
        {
          "internalType": "uint256",
          "name": "",
          "type": "uint256"
        }
      ],
      "stateMutability": "view",
      "type": "function"
    },
    {
      "inputs": [
        {
          "internalType": "uint256",
          "name": "time",
          "type": "uint256"
        }
      ],
      "name": "getOutstandingRegularFees",
      "outputs": [
        {
          "components": [
            {
              "internalType": "uint256",
              "name": "rawValue",
              "type": "uint256"
            }
          ],
          "internalType": "struct FixedPoint.Unsigned",
          "name": "regularFee",
          "type": "tuple"
        },
        {
          "components": [
            {
              "internalType": "uint256",
              "name": "rawValue",
              "type": "uint256"
            }
          ],
          "internalType": "struct FixedPoint.Unsigned",
          "name": "latePenalty",
          "type": "tuple"
        },
        {
          "components": [
            {
              "internalType": "uint256",
              "name": "rawValue",
              "type": "uint256"
            }
          ],
          "internalType": "struct FixedPoint.Unsigned",
          "name": "totalPaid",
          "type": "tuple"
        }
      ],
      "stateMutability": "view",
      "type": "function"
    },
    {
      "inputs": [],
      "name": "gulp",
      "outputs": [],
      "stateMutability": "nonpayable",
      "type": "function"
    },
    {
      "inputs": [],
      "name": "minSponsorTokens",
      "outputs": [
        {
          "internalType": "uint256",
          "name": "rawValue",
          "type": "uint256"
        }
      ],
      "stateMutability": "view",
      "type": "function"
    },
    {
      "inputs": [],
      "name": "payRegularFees",
      "outputs": [
        {
          "components": [
            {
              "internalType": "uint256",
              "name": "rawValue",
              "type": "uint256"
            }
          ],
          "internalType": "struct FixedPoint.Unsigned",
          "name": "",
          "type": "tuple"
        }
      ],
      "stateMutability": "nonpayable",
      "type": "function"
    },
    {
      "inputs": [],
      "name": "pfc",
      "outputs": [
        {
          "components": [
            {
              "internalType": "uint256",
              "name": "rawValue",
              "type": "uint256"
            }
          ],
          "internalType": "struct FixedPoint.Unsigned",
          "name": "",
          "type": "tuple"
        }
      ],
      "stateMutability": "view",
      "type": "function"
    },
    {
      "inputs": [
        {
          "internalType": "address",
          "name": "",
          "type": "address"
        }
      ],
      "name": "positions",
      "outputs": [
        {
          "components": [
            {
              "internalType": "uint256",
              "name": "rawValue",
              "type": "uint256"
            }
          ],
          "internalType": "struct FixedPoint.Unsigned",
          "name": "tokensOutstanding",
          "type": "tuple"
        },
        {
          "internalType": "uint256",
          "name": "withdrawalRequestPassTimestamp",
          "type": "uint256"
        },
        {
          "components": [
            {
              "internalType": "uint256",
              "name": "rawValue",
              "type": "uint256"
            }
          ],
          "internalType": "struct FixedPoint.Unsigned",
          "name": "withdrawalRequestAmount",
          "type": "tuple"
        },
        {
          "components": [
            {
              "internalType": "uint256",
              "name": "rawValue",
              "type": "uint256"
            }
          ],
          "internalType": "struct FixedPoint.Unsigned",
          "name": "rawCollateral",
          "type": "tuple"
        }
      ],
      "stateMutability": "view",
      "type": "function"
    },
    {
      "inputs": [],
      "name": "priceIdentifier",
      "outputs": [
        {
          "internalType": "bytes32",
          "name": "",
          "type": "bytes32"
        }
      ],
      "stateMutability": "view",
      "type": "function"
    },
    {
      "inputs": [
        {
          "components": [
            {
              "internalType": "int256",
              "name": "rawValue",
              "type": "int256"
            }
          ],
          "internalType": "struct FixedPoint.Signed",
          "name": "rate",
          "type": "tuple"
        },
        {
          "internalType": "uint256",
          "name": "timestamp",
          "type": "uint256"
        }
      ],
      "name": "proposeFundingRate",
      "outputs": [
        {
          "components": [
            {
              "internalType": "uint256",
              "name": "rawValue",
              "type": "uint256"
            }
          ],
          "internalType": "struct FixedPoint.Unsigned",
          "name": "totalBond",
          "type": "tuple"
        }
      ],
      "stateMutability": "nonpayable",
      "type": "function"
    },
    {
      "inputs": [],
      "name": "rawTotalPositionCollateral",
      "outputs": [
        {
          "internalType": "uint256",
          "name": "rawValue",
          "type": "uint256"
        }
      ],
      "stateMutability": "view",
      "type": "function"
    },
    {
      "inputs": [
        {
          "internalType": "uint256",
          "name": "time",
          "type": "uint256"
        }
      ],
      "name": "setCurrentTime",
      "outputs": [],
      "stateMutability": "nonpayable",
      "type": "function"
    },
    {
      "inputs": [],
      "name": "timerAddress",
      "outputs": [
        {
          "internalType": "address",
          "name": "",
          "type": "address"
        }
      ],
      "stateMutability": "view",
      "type": "function"
    },
    {
      "inputs": [],
      "name": "tokenCurrency",
      "outputs": [
        {
          "internalType": "contract ExpandedIERC20",
          "name": "",
          "type": "address"
        }
      ],
      "stateMutability": "view",
      "type": "function"
    },
    {
      "inputs": [],
      "name": "totalTokensOutstanding",
      "outputs": [
        {
          "internalType": "uint256",
          "name": "rawValue",
          "type": "uint256"
        }
      ],
      "stateMutability": "view",
      "type": "function"
    },
    {
      "inputs": [],
      "name": "withdrawalLiveness",
      "outputs": [
        {
          "internalType": "uint256",
          "name": "",
          "type": "uint256"
        }
      ],
      "stateMutability": "view",
      "type": "function"
    },
    {
      "inputs": [
        {
          "internalType": "address",
          "name": "sponsor",
          "type": "address"
        },
        {
          "components": [
            {
              "internalType": "uint256",
              "name": "rawValue",
              "type": "uint256"
            }
          ],
          "internalType": "struct FixedPoint.Unsigned",
          "name": "collateralAmount",
          "type": "tuple"
        }
      ],
      "name": "depositTo",
      "outputs": [],
      "stateMutability": "nonpayable",
      "type": "function"
    },
    {
      "inputs": [
        {
          "components": [
            {
              "internalType": "uint256",
              "name": "rawValue",
              "type": "uint256"
            }
          ],
          "internalType": "struct FixedPoint.Unsigned",
          "name": "collateralAmount",
          "type": "tuple"
        }
      ],
      "name": "deposit",
      "outputs": [],
      "stateMutability": "nonpayable",
      "type": "function"
    },
    {
      "inputs": [
        {
          "components": [
            {
              "internalType": "uint256",
              "name": "rawValue",
              "type": "uint256"
            }
          ],
          "internalType": "struct FixedPoint.Unsigned",
          "name": "collateralAmount",
          "type": "tuple"
        }
      ],
      "name": "withdraw",
      "outputs": [
        {
          "components": [
            {
              "internalType": "uint256",
              "name": "rawValue",
              "type": "uint256"
            }
          ],
          "internalType": "struct FixedPoint.Unsigned",
          "name": "amountWithdrawn",
          "type": "tuple"
        }
      ],
      "stateMutability": "nonpayable",
      "type": "function"
    },
    {
      "inputs": [
        {
          "components": [
            {
              "internalType": "uint256",
              "name": "rawValue",
              "type": "uint256"
            }
          ],
          "internalType": "struct FixedPoint.Unsigned",
          "name": "collateralAmount",
          "type": "tuple"
        }
      ],
      "name": "requestWithdrawal",
      "outputs": [],
      "stateMutability": "nonpayable",
      "type": "function"
    },
    {
      "inputs": [],
      "name": "withdrawPassedRequest",
      "outputs": [
        {
          "components": [
            {
              "internalType": "uint256",
              "name": "rawValue",
              "type": "uint256"
            }
          ],
          "internalType": "struct FixedPoint.Unsigned",
          "name": "amountWithdrawn",
          "type": "tuple"
        }
      ],
      "stateMutability": "nonpayable",
      "type": "function"
    },
    {
      "inputs": [],
      "name": "cancelWithdrawal",
      "outputs": [],
      "stateMutability": "nonpayable",
      "type": "function"
    },
    {
      "inputs": [
        {
          "components": [
            {
              "internalType": "uint256",
              "name": "rawValue",
              "type": "uint256"
            }
          ],
          "internalType": "struct FixedPoint.Unsigned",
          "name": "collateralAmount",
          "type": "tuple"
        },
        {
          "components": [
            {
              "internalType": "uint256",
              "name": "rawValue",
              "type": "uint256"
            }
          ],
          "internalType": "struct FixedPoint.Unsigned",
          "name": "numTokens",
          "type": "tuple"
        }
      ],
      "name": "create",
      "outputs": [],
      "stateMutability": "nonpayable",
      "type": "function"
    },
    {
      "inputs": [
        {
          "components": [
            {
              "internalType": "uint256",
              "name": "rawValue",
              "type": "uint256"
            }
          ],
          "internalType": "struct FixedPoint.Unsigned",
          "name": "numTokens",
          "type": "tuple"
        }
      ],
      "name": "redeem",
      "outputs": [
        {
          "components": [
            {
              "internalType": "uint256",
              "name": "rawValue",
              "type": "uint256"
            }
          ],
          "internalType": "struct FixedPoint.Unsigned",
          "name": "amountWithdrawn",
          "type": "tuple"
        }
      ],
      "stateMutability": "nonpayable",
      "type": "function"
    },
    {
      "inputs": [
        {
          "components": [
            {
              "internalType": "uint256",
              "name": "rawValue",
              "type": "uint256"
            }
          ],
          "internalType": "struct FixedPoint.Unsigned",
          "name": "numTokens",
          "type": "tuple"
        }
      ],
      "name": "repay",
      "outputs": [],
      "stateMutability": "nonpayable",
      "type": "function"
    },
    {
      "inputs": [],
      "name": "settleEmergencyShutdown",
      "outputs": [
        {
          "components": [
            {
              "internalType": "uint256",
              "name": "rawValue",
              "type": "uint256"
            }
          ],
          "internalType": "struct FixedPoint.Unsigned",
          "name": "amountWithdrawn",
          "type": "tuple"
        }
      ],
      "stateMutability": "nonpayable",
      "type": "function"
    },
    {
      "inputs": [],
      "name": "emergencyShutdown",
      "outputs": [],
      "stateMutability": "nonpayable",
      "type": "function"
    },
    {
      "inputs": [],
      "name": "remargin",
      "outputs": [],
      "stateMutability": "nonpayable",
      "type": "function"
    },
    {
      "inputs": [
        {
          "internalType": "address",
          "name": "sponsor",
          "type": "address"
        }
      ],
      "name": "getCollateral",
      "outputs": [
        {
          "components": [
            {
              "internalType": "uint256",
              "name": "rawValue",
              "type": "uint256"
            }
          ],
          "internalType": "struct FixedPoint.Unsigned",
          "name": "collateralAmount",
          "type": "tuple"
        }
      ],
      "stateMutability": "view",
      "type": "function"
    },
    {
      "inputs": [],
      "name": "totalPositionCollateral",
      "outputs": [
        {
          "components": [
            {
              "internalType": "uint256",
              "name": "rawValue",
              "type": "uint256"
            }
          ],
          "internalType": "struct FixedPoint.Unsigned",
          "name": "totalCollateral",
          "type": "tuple"
        }
      ],
      "stateMutability": "view",
      "type": "function"
    },
    {
      "inputs": [
        {
          "components": [
            {
              "internalType": "uint256",
              "name": "rawValue",
              "type": "uint256"
            }
          ],
          "internalType": "struct FixedPoint.Unsigned",
          "name": "rawTokenDebt",
          "type": "tuple"
        }
      ],
      "name": "getFundingRateAppliedTokenDebt",
      "outputs": [
        {
          "components": [
            {
              "internalType": "uint256",
              "name": "rawValue",
              "type": "uint256"
            }
          ],
          "internalType": "struct FixedPoint.Unsigned",
          "name": "totalCollateral",
          "type": "tuple"
        }
      ],
      "stateMutability": "view",
      "type": "function"
    }
  ],
  "bytecode": "0x60806040523480156200001157600080fd5b506040516200415038038062004150833981016040819052620000349162000436565b60008055600180546001600160a81b0319166001600160a01b0380841691909117600160a01b1790915560028054828c166001600160a01b03199182161790915560038054928a169290911691909117905584898885858584848262000099620001d1565b600481905550620000b660016200027a60201b62001b051760201c565b516005555060009150620000cb9050620001d1565b6009819055600a555050516008556007939093555050600c80546001600160a01b0319166001600160a01b039092169190911790556200010a620002be565b6001600160a01b03166390978d1b876040518263ffffffff1660e01b81526004016200013891815260200190565b60206040518083038186803b1580156200015157600080fd5b505afa15801562000166573d6000803e3d6000fd5b505050506040513d601f19601f820116820180604052508101906200018c9190620003fb565b6200019657600080fd5b50505060129690965550601080546001600160a01b0319166001600160a01b0394909416939093179092555091516013555060115562000517565b6001546000906001600160a01b0316156200027557600160009054906101000a90046001600160a01b03166001600160a01b03166329cb924d6040518163ffffffff1660e01b815260040160206040518083038186803b1580156200023557600080fd5b505afa1580156200024a573d6000803e3d6000fd5b505050506040513d601f19601f820116820180604052508101906200027091906200041d565b905090565b504290565b6040805160208101909152600081526040518060200160405280620002b6670de0b6b3a7640000856200035e60201b62001b3a1790919060201c565b905292915050565b6003546040516302abf57960e61b81527f4964656e74696669657257686974656c6973740000000000000000000000000060048201526000916001600160a01b03169063aafd5e409060240160206040518083038186803b1580156200032357600080fd5b505afa15801562000338573d6000803e3d6000fd5b505050506040513d601f19601f82011682018060405250810190620002709190620003de565b60006200036c8284620004eb565b9392505050565b80516001600160a01b03811681146200038b57600080fd5b919050565b600060208284031215620003a2578081fd5b604051602081016001600160401b0381118282101715620003d157634e487b7160e01b83526041600452602483fd5b6040529151825250919050565b600060208284031215620003f0578081fd5b6200036c8262000373565b6000602082840312156200040d578081fd5b815180151581146200036c578182fd5b6000602082840312156200042f578081fd5b5051919050565b6000806000806000806000806000806101408b8d03121562000456578586fd5b8a5199506200046860208c0162000373565b98506200047860408c0162000373565b97506200048860608c0162000373565b965060808b0151955060a08b01519450620004a78c60c08d0162000390565b9350620004b760e08c0162000373565b9250620004c98c6101008d0162000390565b9150620004da6101208c0162000373565b90509295989b9194979a5092959850565b60008160001904831182151516156200051257634e487b7160e01b81526011600452602481fd5b500290565b613c2980620005276000396000f3fe608060405234801561001057600080fd5b50600436106102315760003560e01c80636cf1be291161013057806397523661116100b8578063b9a3c84c1161007c578063b9a3c84c1461050d578063bc12163014610520578063bda02e77146102a8578063d1e92c1114610533578063dd0eef3d1461054657600080fd5b806397523661146104a65780639b56d6c9146104af5780639d69dc4e146104c25780639e4efaa0146104d55780639ff4dea81461050457600080fd5b806381a10ae1116100ff57806381a10ae11461046f5780638bbd9fb9146104775780638c382eb21461048a57806392120aec1461049457806394909e621461049e57600080fd5b80636cf1be29146104415780637048594b1461044a57806371f3c1b71461045d5780637b34ee7f1461046557600080fd5b80633403c2fc116101be57806343e4771b1161018257806343e4771b1461038557806355f575101461038d5780635aa266c9146104085780635f1af1ca1461041b5780636ba2f9921461042e57600080fd5b80633403c2fc146102e857806334c49556146102f05780633cb6ce83146103035780633ee7a5ce1461030b57806341d3c84c1461031e57600080fd5b80631c39c38d116102055780631c39c38d146102aa57806322611280146102bd57806322f8e566146102c557806329cb924d146102d857806333a46ca2146102e057600080fd5b8062b9add7146102365780630c9229ca146102525780630de15fd91461026a57806318928a0c14610295575b600080fd5b61023e610550565b604051905181526020015b60405180910390f35b600e5461025c9081565b604051908152602001610249565b60025461027d906001600160a01b031681565b6040516001600160a01b039091168152602001610249565b6102a86102a33660046133d2565b6108b9565b005b60015461027d906001600160a01b031681565b6102a8610971565b6102a86102d3366004613634565b6109ec565b61025c610a63565b61023e610b07565b6102a8610c40565b61023e6102fe366004613598565b610cdb565b61023e610f98565b61023e6103193660046135d2565b611116565b6040805160208082018352600654825260075483519182019093526008548152600954600a54600b54610352959392919086565b604080519651875260208701959095529251938501939093526060840152608083019190915260a082015260c001610249565b61023e6111d6565b6103e161039b36600461339a565b600d602090815260009182526040918290208251808301845281548152600182015484518085018652600284015481528551948501909552600390920154835292909184565b60408051945185526020850193909352905191830191909152516060820152608001610249565b6102a86104163660046135d2565b61120f565b61023e6104293660046135d2565b611386565b6102a861043c3660046135ed565b6115a9565b61025c60005481565b60105461027d906001600160a01b031681565b6102a86117df565b60145461025c9081565b61023e611808565b61023e6104853660046135d2565b611827565b600f5461025c9081565b60135461025c9081565b6102a861184f565b61025c60115481565b61023e6104bd36600461339a565b611867565b600c5461027d906001600160a01b031681565b6104e86104e3366004613634565b6118b7565b6040805193518452915160208401525190820152606001610249565b61025c60125481565b60035461027d906001600160a01b031681565b6102a861052e3660046135d2565b611a31565b6102a86105413660046135d2565b611af8565b60055461025c9081565b604080516020810190915260008152610567611b4d565b61056f6117df565b610577611b59565b61057f611bb7565b6105a461058c6000611b05565b60408051602081019091526014548152905190511490565b156105b6576105b1611bc6565b516014555b6040805160208101918290526010546370a0823160e01b90925233602482015260009181906001600160a01b03166370a082316044830160206040518083038186803b15801561060557600080fd5b505afa158015610619573d6000803e3d6000fd5b505050506040513d601f19601f8201168201806040525081019061063d9190613421565b9052604080516020810190915260145481529091506000906106689061066284611be0565b90611c06565b336000908152600d602090815260408083208151928301909152600381015482529293506106a0919061069a90611c4c565b90611c76565b1561078757604080516020808201835260145482528251908101909252825482526000916106d2919061066290611be0565b6040805160208101909152600384015481529091506000906106f390611c4c565b9050600061070383835190511090565b61071c5760405180602001604052806000815250610726565b6107268284611c8d565b90506107328582611cb7565b336000818152600d602052604080822082815560018101839055600281018390556003018290555192975090917fcad20625296d189a6fc6e5b39d0d544e5bd99dbda0c8f2f0ecffef3e0fbcc2829190a25050505b6040805160208101909152600f5481526000906107ad906107a790611c4c565b84611ce1565b90506107ba600f82611d06565b6040805160208101909152600e5481529095506107d79085611c8d565b51600e558351855160405133907f129c54fc6fd4bd937e4a04ede027ac4ad3f9397cd943d6d354649d9d968dacbe90600090a48451600254610826916001600160a01b03909116903390611d88565b8351601054610844916001600160a01b039091169033903090611deb565b6010548451604051630852cd8d60e31b81526001600160a01b03909216916342966c68916108789160040190815260200190565b600060405180830381600087803b15801561089257600080fd5b505af11580156108a6573d6000803e3d6000fd5b50505050505050506108b6611e29565b90565b6108c1611e3e565b816108cb81611e4b565b6108d36117df565b6108db611b59565b6108e3611bb7565b6108ee826000611c76565b6108f757600080fd5b600061090284611e62565b905061090e8184611e8a565b5082516040516001600160a01b038616907fe1fffcc4923d04b559f4d29a8bfc6cda04eb5b0d3c460751c2402c5c5cc9109c90600090a38251600254610963916001600160a01b039091169033903090611deb565b5061096c611e29565b505050565b610979611e3e565b610981611b59565b610989611bb7565b600061099433611e62565b90508060010154600014156109a857600080fd5b600281015460405133907f74d8a3658feb89d1a5c335229bbbfc3bbcfaf492769feb7aa4cd2d92efeaf69190600090a36109e181611eb2565b506109ea611e29565b565b6001546001600160a01b0316610a0157600080fd5b60015460405163117c72b360e11b8152600481018390526001600160a01b03909116906322f8e566906024015b600060405180830381600087803b158015610a4857600080fd5b505af1158015610a5c573d6000803e3d6000fd5b5050505050565b6001546000906001600160a01b031615610b0257600160009054906101000a90046001600160a01b03166001600160a01b03166329cb924d6040518163ffffffff1660e01b815260040160206040518083038186803b158015610ac557600080fd5b505afa158015610ad9573d6000803e3d6000fd5b505050506040513d601f19601f82011682018060405250810190610afd9190613421565b905090565b504290565b604080516020810190915260008152610b1e611e3e565b610b266117df565b610b2e611b59565b610b36611bb7565b6000610b4133611e62565b90508060010154600014158015610b635750610b5b610a63565b816001015411155b610b6c57600080fd5b60408051602080820183526002840154825282519081019092526003830154825290610bb590610b9b90611c4c565b604080516020810190915260028501548152905190511190565b15610bd857604080516020810190915260038301548152610bd590611c4c565b90505b610be28282611ecc565b9250610bed82611eb2565b8251600254610c09916001600160a01b03909116903390611d88565b825160405133907fc86c3298cb79f486674dca87d9247e88b76146160e7d412cc59b26b14c358a6890600090a350506108b6611e29565b610c48611e3e565b610c506117df565b610c58611b59565b610c60611bb7565b610c68611ef4565b6001600160a01b0316336001600160a01b031614610c8557600080fd5b610c8d610a63565b6000819055610c9b90611f8b565b60005460405190815233907f077382e0341a6d8666d1f8ed15b8c933a01f5c1a3e6c5229e2db8c5dc1c06ae19060200160405180910390a26109ea611e29565b604080516020810190915260008152610cf26117df565b610cfa611b59565b610d02611bb7565b600b5415610d0f57600080fd5b610d1883611fcb565b6000610d22610a63565b6009549091508084118015610d4c5750610d48610d3d612009565b60a001518390612099565b8410155b610d5557600080fd5b600b8490556000610d646120a5565b6007549091506000610d746120e9565b6002546040516311df92f160e01b81529192506001600160a01b03808616926311df92f192610db09287928d92889216906000906004016137d3565b602060405180830381600087803b158015610dca57600080fd5b505af1158015610dde573d6000803e3d6000fd5b505050506040513d601f19601f82011682018060405250810190610e029190613421565b506040518060200160405280846001600160a01b031663ad5a755a858b86610e37610e2b612009565b6040015161066261213a565b516040516001600160e01b031960e087901b168152610e5c949392919060040161380f565b602060405180830381600087803b158015610e7657600080fd5b505af1158015610e8a573d6000803e3d6000fd5b505050506040513d601f19601f82011682018060405250810190610eae9190613421565b90529550610ebd866000611c76565b15610efc578551600254610ee0916001600160a01b039091169033903090611deb565b8551600254610efc916001600160a01b03909116908590612162565b8751604051637c82288f60e01b81526001600160a01b03851691637c82288f91610f32913391309188918e918991600401613730565b602060405180830381600087803b158015610f4c57600080fd5b505af1158015610f60573d6000803e3d6000fd5b505050506040513d601f19601f82011682018060405250810190610f849190613421565b505050505050610f92611e29565b92915050565b604080516020810190915260008152610faf611b59565b610fb7611bb7565b6000610fc1610a63565b90506000610fcd61213a565b90506000806000610fdd856118b7565b600488905591945092509050610ff4816000612223565b1561100557945061110e9350505050565b815183516040517f19b92e73d08d517d71ec46136266e4f5d526a8cd4f8501d73713cebfe4f335ef90600090a361103c818561223a565b611047836000611c76565b156110db57600061105661227e565b8451600254919250611073916001600160a01b0316908390612162565b60025460405163432ce91960e11b81526001600160a01b0391821660048201528551602482015290821690638659d23290604401600060405180830381600087803b1580156110c157600080fd5b505af11580156110d5573d6000803e3d6000fd5b50505050505b6110e6826000611c76565b15611107578151600254611107916001600160a01b03909116903390611d88565b9450505050505b6108b6611e29565b60408051602081019091526000815261112d611e3e565b3361113781611e4b565b61113f6117df565b611147611b59565b61114f611bb7565b61115a836000611c76565b61116357600080fd5b600061116e33611e62565b905061117a81856122b7565b80516040519194509033907f7fcf532c15f0a6db0bd6d0e038bea71d30d808c7d98cb3bf7268a95bf5081b6590600090a382516002546111c7916001600160a01b03909116903390611d88565b506111d0611e29565b50919050565b6040805160208101909152600081526111ed611b59565b6040805160208101909152600f548152610afd9061120a90611c4c565b6122f1565b611217611e3e565b3361122181611e4b565b6112296117df565b611231611b59565b611239611bb7565b600061124433611e62565b60408051602081019091528154908190528451919250101561126557600080fd5b6040805160208101909152815481526000906112819085611c8d565b604080516020810190915260135490819052815191925011156112a357600080fd5b805182556040805160208101909152600e5481526112c19085611c8d565b51600e558051845160405133907f77c6871227e5d2dec8dadd5354f78453203e22e669cd0ec4c19d9a8c5edb31d090600090a48351601054611312916001600160a01b039091169033903090611deb565b6010548451604051630852cd8d60e31b81526001600160a01b03909216916342966c68916113469160040190815260200190565b600060405180830381600087803b15801561136057600080fd5b505af1158015611374573d6000803e3d6000fd5b505050505050611382611e29565b5050565b60408051602081019091526000815261139d611e3e565b336113a781611e4b565b6113af6117df565b6113b7611b59565b6113bf611bb7565b60006113ca33611e62565b6040805160208101909152815490819052855191925010156113eb57600080fd5b604080516020810190915281548152600090611408908690612367565b6040805160208101909152600384015481529091506000906114349061142d90611c4c565b8390611c06565b60408051602081019091528454908190528751919250141561146057611459336123a3565b94506114cf565b61146a8382611ecc565b6040805160208101909152845481529095506000906114899088611c8d565b604080516020810190915260135490819052815191925011156114ab57600080fd5b805184556040805160208101909152600e5481526114c99088611c8d565b51600e55505b8551855160405133907fe5b754fb1abb7f01b499791d0b820ae3b6af3424ac1c59768edb53f4ec31a92990600090a4845160025461151a916001600160a01b03909116903390611d88565b8551601054611538916001600160a01b039091169033903090611deb565b6010548651604051630852cd8d60e31b81526001600160a01b03909216916342966c689161156c9160040190815260200190565b600060405180830381600087803b15801561158657600080fd5b505af115801561159a573d6000803e3d6000fd5b505050505050506111d0611e29565b6115b1611e3e565b6115b96117df565b6115c1611b59565b6115c9611bb7565b336000908152600d6020908152604091829020825191820190925260038201548152611622906116049085906115fe90611c4c565b90611cb7565b60408051602081019091528354815261161d9085611cb7565b6124ae565b80611632575061163283836124ae565b61163b57600080fd5b60018101541561164a57600080fd5b604080516020810190915281548152611664906000612223565b156116b4576040805160208101909152601354908190528251101561168857600080fd5b60405133907ff60993fa76f94c9e0a803526ee6e1314814ed4d2b0d223febf1436b36897fb3790600090a25b6116be8184611e8a565b506040805160208101909152815481526116d89083611cb7565b5181556040805160208101909152600e5481526116f59083611cb7565b51600e558151835160405133907f4b82aa16e071a61de1a6b9aeec9edab0356331f8122c78683b469ac8e685dabc90600090a48251600254611746916001600160a01b039091169033903090611deb565b60105482516040516340c10f1960e01b815233600482015260248101919091526001600160a01b03909116906340c10f1990604401602060405180830381600087803b15801561179557600080fd5b505af11580156117a9573d6000803e3d6000fd5b505050506040513d601f19601f820116820180604052508101906117cd9190613407565b6117d657600080fd5b50611382611e29565b6117e7610f98565b506117f0611b59565b6117f8611bb7565b61180061250b565b6109ea611e29565b60408051602081019091526000815261181f611b59565b610afd61213a565b60408051602081019091526000815261183e611b59565b61184782611be0565b90505b919050565b611857611b59565b61185f611bb7565b611800612570565b60408051602081019091526000815261187e611b59565b6001600160a01b0382166000908152600d6020908152604091829020825191820190925260039091015481526118479061120a90611c4c565b60408051602081019091526000815260408051602081019091526000815260408051602081019091526000815260006118ee61227e565b905060006118fa61213a565b9050611907816000612223565b80611913575085600454145b1561191f575050611a2a565b600480546040516374201feb60e01b81529182015260248101879052815160448201526001600160a01b038316906374201feb90606401604080518083038186803b15801561196d57600080fd5b505afa158015611981573d6000803e3d6000fd5b505050506040513d601f19601f820116820180604052508101906119a59190613609565b90955093506119b48585611cb7565b92506119c1836000612223565b156119cd575050611a2a565b805183511115611a275760006119e38483611c8d565b905060006119f18683611ce1565b90506119fd8682611c8d565b9550611a098282611c8d565b9150611a1f611a188884611ce1565b8890611c8d565b965082945050505b50505b9193909250565b611a39611e3e565b33611a4381611e4b565b611a4b611b59565b611a53611bb7565b6000611a5e33611e62565b9050611a6b836000611c76565b8015611a995750604080516020810190915260038201548152611a9990611a9190611c4c565b518451111590565b611aa257600080fd5b611ab6601254611ab0610a63565b9061262f565b600182015582516002820181905560405133907fd33b726e11d2c5d38e6702b16613df0160a07f7ba5185455ee3c45d0494fab1190600090a350611382611e29565b611b0233826108b9565b50565b604080516020810190915260008152604080516020810190915280611b3284670de0b6b3a7640000611b3a565b905292915050565b6000611b468284613add565b9392505050565b6000546109ea57600080fd5b600154600160a01b900460ff166109ea5760405162461bcd60e51b815260206004820152601f60248201527f5265656e7472616e637947756172643a207265656e7472616e742063616c6c0060448201526064015b60405180910390fd5b6001805460ff60a01b19169055565b604080516020810190915260008152610afd60005461263b565b604080516020810190915260008152604080516020810190915260085481526118479083905b6040805160208101909152600081526040805160208101909152825184518291670de0b6b3a764000091611c3991611b3a565b611c439190613939565b90529392505050565b60408051602081019091526000815260408051602081019091526005548152611847908390611c06565b6000611c8182611b05565b51835111905092915050565b6040805160208101909152600081526040805160208101909152825184518291611c439190612099565b6040805160208101909152600081526040805160208101909152825184518291611c43919061262f565b6040805160208101909152600081528151835110611cff5781611b46565b5090919050565b604080516020810190915260008152604080516020810190915283548152600090611d3090611c4c565b90506000611d3d846126ff565b604080516020810190915286548152909150611d599082611c8d565b518086556040805160208101909152908152611d7f90611d7890611c4c565b8390611c8d565b95945050505050565b6040516001600160a01b03831660248201526044810182905261096c90849063a9059cbb60e01b906064015b60408051601f198184030181529190526020810180516001600160e01b03166001600160e01b031990931692909217909152612729565b6040516001600160a01b0380851660248301528316604482015260648101829052611e239085906323b872dd60e01b90608401611db4565b50505050565b6001805460ff60a01b1916600160a01b179055565b600054156109ea57600080fd5b611e5481611e62565b6001015415611b0257600080fd5b600081611e6e816127fb565b50506001600160a01b03166000908152600d6020526040902090565b604080516020810190915260008152611ea68360030183612832565b50611b46600f83612832565b611ebc6000611b05565b5160028201556000600190910155565b604080516020810190915260008152611ee88360030183611d06565b50611b46600f83611d06565b6003546040516302abf57960e61b8152762334b730b731b4b0b621b7b73a3930b1ba39a0b236b4b760491b60048201526000916001600160a01b03169063aafd5e40906024015b60206040518083038186803b158015611f5357600080fd5b505afa158015611f67573d6000803e3d6000fd5b505050506040513d601f19601f82011682018060405250810190610afd91906133b6565b611f936128a6565b6001600160a01b03166368ad8ae3601154836040518363ffffffff1660e01b8152600401610a2e929190918252602082015260400190565b611fe2611fd6612009565b60600151518251131590565b80156120005750612000611ff4612009565b60800151518251121590565b611b0257600080fd5b6120116132b3565b600c60009054906101000a90046001600160a01b03166001600160a01b031663145701f86040518163ffffffff1660e01b815260040160c060405180830381600087803b15801561206157600080fd5b505af1158015612075573d6000803e3d6000fd5b505050506040513d601f19601f82011682018060405250810190610afd9190613439565b6000611b468284613b1d565b6003546040516302abf57960e61b81526f4f7074696d69737469634f7261636c6560801b60048201526000916001600160a01b03169063aafd5e4090602401611f3b565b6060610afd604051806020016040528060008152506040518060400160405280600c81526020016b746f6b656e4164647265737360a01b8152506121356010546001600160a01b031690565b6128e0565b6040805160208101909152600081526040805160208101909152600f548152610afd90611c4c565b604051636eb1769f60e11b81523060048201526001600160a01b038381166024830152600091839186169063dd62ed3e9060440160206040518083038186803b1580156121ae57600080fd5b505afa1580156121c2573d6000803e3d6000fd5b505050506040513d601f19601f820116820180604052508101906121e69190613421565b6121f091906138fc565b6040516001600160a01b038516602482015260448101829052909150611e2390859063095ea7b360e01b90606401611db4565b600061222e82611b05565b51835114905092915050565b60006122468383612926565b905061227561225f826122596001611b05565b90611c8d565b6040805160208101909152600554815290611c06565b51600555505050565b6003546040516302abf57960e61b81526453746f726560d81b60048201526000916001600160a01b03169063aafd5e4090602401611f3b565b6040805160208101909152600081526122d38360030183611d06565b506122dd836129b5565b6122e657600080fd5b611b46600f83611d06565b604080516020810190915260008152600061230d6104e3610a63565b9250505061232561231e6000611b05565b5182511490565b15612331575090919050565b600061234561233e61213a565b8390612926565b905061235f612358826122596001611b05565b8590611c06565b949350505050565b6040805160208101909152600081526040805160208101909152825184518291611c439161239d90670de0b6b3a7640000611b3a565b906129eb565b60408051602081019091526000815260006123bd83611e62565b6040805160208101909152600f5481529091506000906123dc90611c4c565b6040805160208082018352600386015482528251908101909252600f54825291925061240791611c8d565b51600f556040805160208082018352845482528251908101909252600e5482526124319190611c8d565b51600e556001600160a01b0384166000818152600d60205260408082208281556001810183905560028101839055600301829055517fcad20625296d189a6fc6e5b39d0d544e5bd99dbda0c8f2f0ecffef3e0fbcc2829190a26040805160208101909152600f54815261235f906124a790611c4c565b8290611c8d565b6040805160208101909152600f54815260009081906124e5906124d090611c4c565b6040805160208101909152600e5481526129f7565b905060006124f385856129f7565b905061250182825190511190565b1595945050505050565b6000541561251557565b600061251f610a63565b600a54909150600090612533908390612099565b905061253d612a2e565b604080516020808201835260065482528251908101909252600854825261256691839190612d18565b5160085550600a55565b600061257a61213a565b6040805160208101918290526002546370a0823160e01b9092523060248201529192506000919081906001600160a01b03166370a082316044830160206040518083038186803b1580156125cd57600080fd5b505afa1580156125e1573d6000803e3d6000fd5b505050506040513d601f19601f820116820180604052508101906126059190613421565b9052905061261582825190511090565b156113825761262761225f8284612367565b516005555050565b6000611b4682846138fc565b60408051602081019091526000815260006126546128a6565b6001600160a01b031663c9280f06601154856040518363ffffffff1660e01b815260040161268c929190918252602082015260400190565b60206040518083038186803b1580156126a457600080fd5b505afa1580156126b8573d6000803e3d6000fd5b505050506040513d601f19601f820116820180604052508101906126dc9190613421565b905060008112156126eb575060005b604080516020810190915290815292915050565b60408051602081019091526000815260408051602081019091526005548152611847908390612367565b600061277e826040518060400160405280602081526020017f5361666545524332303a206c6f772d6c6576656c2063616c6c206661696c6564815250856001600160a01b0316612d8f9092919063ffffffff16565b80519091501561096c578080602001905181019061279c9190613407565b61096c5760405162461bcd60e51b815260206004820152602a60248201527f5361666545524332303a204552433230206f7065726174696f6e20646964206e6044820152691bdd081cdd58d8d9595960b21b6064820152608401611bae565b6001600160a01b0381166000908152600d602090815260408083208151928301909152600301548152612000919061069a90611c4c565b60408051602081019091526000815260408051602081019091528354815260009061285c90611c4c565b90506000612869846126ff565b6040805160208101909152865481529091506128859082611cb7565b518086556040805160208101909152908152611d7f90839061225990611c4c565b6003546040516302abf57960e61b8152654f7261636c6560d01b60048201526000916001600160a01b03169063aafd5e4090602401611f3b565b606060006128ee8585612d9e565b905084816128fb85612de0565b60405160200161290d93929190613694565b6040516020818303038152906040529150509392505050565b60408051602081019091526000808252835161294a90670de0b6b3a7640000611b3a565b835190915060009061295d9083906129eb565b8451909150600090612970908490612f43565b9050801561299c5760408051602081019091528061298f84600161262f565b8152509350505050610f92565b6040518060200160405280838152509350505050610f92565b604080516020810190915260038201548152600090611847906129d790611c4c565b6040805160208101909152845481526124ae565b6000611b468284613939565b604080516020810190915260008152612a11826000612f4f565b612a2457612a1f8383612367565b611b46565b611b466000611b05565b600b548015611b02576000612a416120a5565b6007549091506000612a516120e9565b6040516353b5923960e01b81529091506001600160a01b038416906353b5923990612a84908590889086906004016137b4565b602060405180830381600087803b158015612a9e57600080fd5b505af1925050508015612ace575060408051601f3d908101601f19168201909252612acb91810190613421565b60015b612b8f5760405163a9904f9b60e01b81526000906001600160a01b0385169063a9904f9b90612b0790309087908a90889060040161377d565b6101806040518083038186803b158015612b2057600080fd5b505afa158015612b34573d6000803e3d6000fd5b505050506040513d601f19601f82011682018060405250810190612b5891906134dc565b60208101519091506001600160a01b0316151580612b7e575080516001600160a01b0316155b15612b89576000600b555b50611e23565b600954808610612d0b576040805160208101909152829052600682905560098690556000612bbc81611b05565b90506000866001600160a01b031663a9904f9b30888b896040518563ffffffff1660e01b8152600401612bf2949392919061377d565b6101806040518083038186803b158015612c0b57600080fd5b505afa158015612c1f573d6000803e3d6000fd5b505050506040513d601f19601f82011682018060405250810190612c4391906134dc565b60208101519091506001600160a01b0316612cc157612c82612c658985612099565b612c7c612c70612009565b6020015161066261213a565b90612f67565b9150612c8f826000611c76565b15612cc157612ca582612ca061213a565b61223a565b80518251600254612cc1926001600160a01b0390911691611d88565b60095460065483516040517fee568d08fdf25d8d2f01948f7ba3dc157176924ef7312d148584409333f0d8cd92612d0092908252602082015260400190565b60405180910390a250505b50506000600b5550505050565b6040805160208101909152600081526000612d336001612f8f565b90506000612d4a612d4387612fbc565b8690613026565b90506000612d58838361304e565b90506000612d77612d7283612d6d6000612f8f565b613078565b613096565b9050612d838682611c06565b98975050505050505050565b606061235f8484600085613104565b815160609015612dcf5781604051602001612db991906136fc565b6040516020818303038152906040529050610f92565b81604051602001612db991906136d7565b60408051602880825260608281019093526000919060208201818036833701905050905060005b6014811015612f3c576000612e1d826013613b1d565b612e28906008613add565b612e339060026139b2565b612e46906001600160a01b038716613939565b60f81b9050600060108260f81c612e5d919061394d565b60f81b905060008160f81c6010612e749190613afc565b8360f81c612e829190613b34565b60f81b9050612e908261322c565b85612e9c866002613add565b81518110612eba57634e487b7160e01b600052603260045260246000fd5b60200101906001600160f81b031916908160001a905350612eda8161322c565b85612ee6866002613add565b612ef19060016138fc565b81518110612f0f57634e487b7160e01b600052603260045260246000fd5b60200101906001600160f81b031916908160001a9053505050508080612f3490613b83565b915050612e07565b5092915050565b6000611b468284613b9e565b6000612f5a82611b05565b5183511115905092915050565b604080516020810190915260008152604080516020810190915283518190611c439085611b3a565b604080516020810190915260008152604080516020810190915280611b3284670de0b6b3a7640000613262565b6000600160ff1b82106130225760405162461bcd60e51b815260206004820152602860248201527f53616665436173743a2076616c756520646f65736e27742066697420696e2061604482015267371034b73a191a9b60c11b6064820152608401611bae565b5090565b604080516020810190915260008152604080516020810190915283518190611c439085613262565b6040805160208101909152600081526040805160208101909152825184518291611c43919061326e565b6040805160208101909152600081528151835113611cff5781611b46565b6040805160208101909152600081528151600013156130f15760405162461bcd60e51b8152602060048201526017602482015276139959d85d1a5d99481d985b1d59481c1c9bdd9a591959604a1b6044820152606401611bae565b5060408051602081019091529051815290565b6060824710156131655760405162461bcd60e51b815260206004820152602660248201527f416464726573733a20696e73756666696369656e742062616c616e636520666f6044820152651c8818d85b1b60d21b6064820152608401611bae565b843b6131b35760405162461bcd60e51b815260206004820152601d60248201527f416464726573733a2063616c6c20746f206e6f6e2d636f6e74726163740000006044820152606401611bae565b600080866001600160a01b031685876040516131cf9190613678565b60006040518083038185875af1925050503d806000811461320c576040519150601f19603f3d011682016040523d82523d6000602084013e613211565b606091505b509150915061322182828661327a565b979650505050505050565b6000600a60f883901c10156132535761324a60f883901c6030613914565b60f81b92915050565b61324a60f883901c6057613914565b6000611b468284613a5a565b6000611b4682846138bb565b60608315613289575081611b46565b8251156132995782518084602001fd5b8160405162461bcd60e51b8152600401611bae919061383f565b6040518060c00160405280600081526020016132db6040518060200160405280600081525090565b81526020016132f66040518060200160405280600081525090565b81526020016133116040518060200160405280600081525090565b815260200161332c6040518060200160405280600081525090565b8152602001600081525090565b805161184a81613bde565b8051801515811461184a57600080fd5b600060208284031215613365578081fd5b61336d613852565b9151825250919050565b600060208284031215613388578081fd5b613390613852565b9135825250919050565b6000602082840312156133ab578081fd5b8135611b4681613bde565b6000602082840312156133c7578081fd5b8151611b4681613bde565b600080604083850312156133e4578081fd5b82356133ef81613bde565b91506133fe8460208501613377565b90509250929050565b600060208284031215613418578081fd5b611b4682613344565b600060208284031215613432578081fd5b5051919050565b600060c0828403121561344a578081fd5b60405160c0810181811067ffffffffffffffff8211171561347957634e487b7160e01b83526041600452602483fd5b6040528251815261348d8460208501613354565b602082015261349f8460408501613354565b60408201526134b18460608501613354565b60608201526134c38460808501613354565b608082015260a083015160a08201528091505092915050565b600061018082840312156134ee578081fd5b6134f6613889565b6134ff83613339565b815261350d60208401613339565b602082015261351e60408401613339565b604082015261352f60608401613344565b606082015261354060808401613344565b608082015260a0838101519082015260c0808401519082015260e08084015190820152610100808401519082015261012080840151908201526101408084015190820152610160928301519281019290925250919050565b60008082840360408112156135ab578283fd5b60208112156135b8578283fd5b506135c1613852565b833581529460209093013593505050565b6000602082840312156135e3578081fd5b611b468383613377565b600080604083850312156135ff578182fd5b6133ef8484613377565b6000806040838503121561361b578182fd5b6136258484613354565b91506133fe8460208501613354565b600060208284031215613645578081fd5b5035919050565b60008151808452613664816020860160208601613b57565b601f01601f19169290920160200192915050565b6000825161368a818460208701613b57565b9190910192915050565b600084516136a6818460208901613b57565b8451908301906136ba818360208901613b57565b84519101906136cd818360208801613b57565b0195945050505050565b600082516136e9818460208701613b57565b601d60f91b920191825250600101919050565b600b60fa1b815260008251613718816001850160208701613b57565b601d60f91b6001939091019283015250600201919050565b6001600160a01b03878116825286166020820152604081018590526060810184905260c06080820181905260009061376a9083018561364c565b90508260a0830152979650505050505050565b60018060a01b03851681528360208201528260408201526080606082015260006137aa608083018461364c565b9695505050505050565b838152826020820152606060408201526000611d7f606083018461364c565b85815284602082015260a0604082015260006137f260a083018661364c565b6001600160a01b0394909416606083015250608001529392505050565b84815283602082015260806040820152600061382e608083018561364c565b905082606083015295945050505050565b602081526000611b46602083018461364c565b6040516020810167ffffffffffffffff8111828210171561388357634e487b7160e01b600052604160045260246000fd5b60405290565b604051610180810167ffffffffffffffff8111828210171561388357634e487b7160e01b600052604160045260246000fd5b600080821280156001600160ff1b03849003851316156138dd576138dd613bb2565b600160ff1b83900384128116156138f6576138f6613bb2565b50500190565b6000821982111561390f5761390f613bb2565b500190565b600060ff821660ff84168060ff0382111561393157613931613bb2565b019392505050565b60008261394857613948613bc8565b500490565b600060ff83168061396057613960613bc8565b8060ff84160491505092915050565b600181815b808511156139aa57816000190482111561399057613990613bb2565b8085161561399d57918102915b93841c9390800290613974565b509250929050565b6000611b4683836000826139c857506001610f92565b816139d557506000610f92565b81600181146139eb57600281146139f557613a11565b6001915050610f92565b60ff841115613a0657613a06613bb2565b50506001821b610f92565b5060208310610133831016604e8410600b8410161715613a34575081810a610f92565b613a3e838361396f565b8060001904821115613a5257613a52613bb2565b029392505050565b60006001600160ff1b0381841382841380821686840486111615613a8057613a80613bb2565b600160ff1b84871282811687830589121615613a9e57613a9e613bb2565b858712925087820587128484161615613ab957613ab9613bb2565b87850587128184161615613acf57613acf613bb2565b505050929093029392505050565b6000816000190483118215151615613af757613af7613bb2565b500290565b600060ff821660ff84168160ff0481118215151615613a5257613a52613bb2565b600082821015613b2f57613b2f613bb2565b500390565b600060ff821660ff841680821015613b4e57613b4e613bb2565b90039392505050565b60005b83811015613b72578181015183820152602001613b5a565b83811115611e235750506000910152565b6000600019821415613b9757613b97613bb2565b5060010190565b600082613bad57613bad613bc8565b500690565b634e487b7160e01b600052601160045260246000fd5b634e487b7160e01b600052601260045260246000fd5b6001600160a01b0381168114611b0257600080fdfea264697066735822122065fc5e42c2b410744afc04296d0941710a751b1547ee7e47a31b400793cf4ff764736f6c63430008040033",
  "immutableReferences": {},
  "source": "// SPDX-License-Identifier: AGPL-3.0-only\npragma solidity ^0.8.0;\n\nimport \"@openzeppelin/contracts/utils/math/SafeMath.sol\";\nimport \"@openzeppelin/contracts/token/ERC20/IERC20.sol\";\nimport \"@openzeppelin/contracts/token/ERC20/utils/SafeERC20.sol\";\n\nimport \"../../common/implementation/FixedPoint.sol\";\nimport \"../../common/interfaces/ExpandedIERC20.sol\";\n\nimport \"../../oracle/interfaces/OracleInterface.sol\";\nimport \"../../oracle/interfaces/IdentifierWhitelistInterface.sol\";\nimport \"../../oracle/implementation/Constants.sol\";\n\nimport \"../common/FundingRateApplier.sol\";\n\n/**\n * @title Financial contract with priceless position management.\n * @notice Handles positions for multiple sponsors in an optimistic (i.e., priceless) way without relying\n * on a price feed. On construction, deploys a new ERC20, managed by this contract, that is the synthetic token.\n */\n\ncontract PerpetualPositionManager is FundingRateApplier {\n    using SafeMath for uint256;\n    using FixedPoint for FixedPoint.Unsigned;\n    using SafeERC20 for IERC20;\n    using SafeERC20 for ExpandedIERC20;\n\n    /****************************************\n     *  PRICELESS POSITION DATA STRUCTURES  *\n     ****************************************/\n\n    // Represents a single sponsor's position. All collateral is held by this contract.\n    // This struct acts as bookkeeping for how much of that collateral is allocated to each sponsor.\n    struct PositionData {\n        FixedPoint.Unsigned tokensOutstanding;\n        // Tracks pending withdrawal requests. A withdrawal request is pending if `withdrawalRequestPassTimestamp != 0`.\n        uint256 withdrawalRequestPassTimestamp;\n        FixedPoint.Unsigned withdrawalRequestAmount;\n        // Raw collateral value. This value should never be accessed directly -- always use _getFeeAdjustedCollateral().\n        // To add or remove collateral, use _addCollateral() and _removeCollateral().\n        FixedPoint.Unsigned rawCollateral;\n    }\n\n    // Maps sponsor addresses to their positions. Each sponsor can have only one position.\n    mapping(address => PositionData) public positions;\n\n    // Keep track of the total collateral and tokens across all positions to enable calculating the\n    // global collateralization ratio without iterating over all positions.\n    FixedPoint.Unsigned public totalTokensOutstanding;\n\n    // Similar to the rawCollateral in PositionData, this value should not be used directly.\n    // _getFeeAdjustedCollateral(), _addCollateral() and _removeCollateral() must be used to access and adjust.\n    FixedPoint.Unsigned public rawTotalPositionCollateral;\n\n    // Synthetic token created by this contract.\n    ExpandedIERC20 public tokenCurrency;\n\n    // Unique identifier for DVM price feed ticker.\n    bytes32 public priceIdentifier;\n\n    // Time that has to elapse for a withdrawal request to be considered passed, if no liquidations occur.\n    // !!Note: The lower the withdrawal liveness value, the more risk incurred by the contract.\n    //       Extremely low liveness values increase the chance that opportunistic invalid withdrawal requests\n    //       expire without liquidation, thereby increasing the insolvency risk for the contract as a whole. An insolvent\n    //       contract is extremely risky for any sponsor or synthetic token holder for the contract.\n    uint256 public withdrawalLiveness;\n\n    // Minimum number of tokens in a sponsor's position.\n    FixedPoint.Unsigned public minSponsorTokens;\n\n    // Expiry price pulled from the DVM in the case of an emergency shutdown.\n    FixedPoint.Unsigned public emergencyShutdownPrice;\n\n    /****************************************\n     *                EVENTS                *\n     ****************************************/\n\n    event Deposit(address indexed sponsor, uint256 indexed collateralAmount);\n    event Withdrawal(address indexed sponsor, uint256 indexed collateralAmount);\n    event RequestWithdrawal(address indexed sponsor, uint256 indexed collateralAmount);\n    event RequestWithdrawalExecuted(address indexed sponsor, uint256 indexed collateralAmount);\n    event RequestWithdrawalCanceled(address indexed sponsor, uint256 indexed collateralAmount);\n    event PositionCreated(address indexed sponsor, uint256 indexed collateralAmount, uint256 indexed tokenAmount);\n    event NewSponsor(address indexed sponsor);\n    event EndedSponsorPosition(address indexed sponsor);\n    event Redeem(address indexed sponsor, uint256 indexed collateralAmount, uint256 indexed tokenAmount);\n    event Repay(address indexed sponsor, uint256 indexed numTokensRepaid, uint256 indexed newTokenCount);\n    event EmergencyShutdown(address indexed caller, uint256 shutdownTimestamp);\n    event SettleEmergencyShutdown(\n        address indexed caller,\n        uint256 indexed collateralReturned,\n        uint256 indexed tokensBurned\n    );\n\n    /****************************************\n     *               MODIFIERS              *\n     ****************************************/\n\n    modifier onlyCollateralizedPosition(address sponsor) {\n        _onlyCollateralizedPosition(sponsor);\n        _;\n    }\n\n    modifier noPendingWithdrawal(address sponsor) {\n        _positionHasNoPendingWithdrawal(sponsor);\n        _;\n    }\n\n    /**\n     * @notice Construct the PerpetualPositionManager.\n     * @dev Deployer of this contract should consider carefully which parties have ability to mint and burn\n     * the synthetic tokens referenced by `_tokenAddress`. This contract's security assumes that no external accounts\n     * can mint new tokens, which could be used to steal all of this contract's locked collateral.\n     * We recommend to only use synthetic token contracts whose sole Owner role (the role capable of adding & removing roles)\n     * is assigned to this contract, whose sole Minter role is assigned to this contract, and whose\n     * total supply is 0 prior to construction of this contract.\n     * @param _withdrawalLiveness liveness delay, in seconds, for pending withdrawals.\n     * @param _collateralAddress ERC20 token used as collateral for all positions.\n     * @param _tokenAddress ERC20 token used as synthetic token.\n     * @param _finderAddress UMA protocol Finder used to discover other protocol contracts.\n     * @param _priceIdentifier registered in the DVM for the synthetic.\n     * @param _fundingRateIdentifier Unique identifier for DVM price feed ticker for child financial contract.\n     * @param _minSponsorTokens minimum number of tokens that must exist at any time in a position.\n     * @param _tokenScaling initial scaling to apply to the token value (i.e. scales the tracking index).\n     * @param _timerAddress Contract that stores the current time in a testing environment. Set to 0x0 for production.\n     */\n    constructor(\n        uint256 _withdrawalLiveness,\n        address _collateralAddress,\n        address _tokenAddress,\n        address _finderAddress,\n        bytes32 _priceIdentifier,\n        bytes32 _fundingRateIdentifier,\n        FixedPoint.Unsigned memory _minSponsorTokens,\n        address _configStoreAddress,\n        FixedPoint.Unsigned memory _tokenScaling,\n        address _timerAddress\n    )\n        FundingRateApplier(\n            _fundingRateIdentifier,\n            _collateralAddress,\n            _finderAddress,\n            _configStoreAddress,\n            _tokenScaling,\n            _timerAddress\n        )\n    {\n        require(_getIdentifierWhitelist().isIdentifierSupported(_priceIdentifier));\n\n        withdrawalLiveness = _withdrawalLiveness;\n        tokenCurrency = ExpandedIERC20(_tokenAddress);\n        minSponsorTokens = _minSponsorTokens;\n        priceIdentifier = _priceIdentifier;\n    }\n\n    /****************************************\n     *          POSITION FUNCTIONS          *\n     ****************************************/\n\n    /**\n     * @notice Transfers `collateralAmount` of `collateralCurrency` into the specified sponsor's position.\n     * @dev Increases the collateralization level of a position after creation. This contract must be approved to spend\n     * at least `collateralAmount` of `collateralCurrency`.\n     * @param sponsor the sponsor to credit the deposit to.\n     * @param collateralAmount total amount of collateral tokens to be sent to the sponsor's position.\n     */\n    function depositTo(address sponsor, FixedPoint.Unsigned memory collateralAmount)\n        public\n        notEmergencyShutdown()\n        noPendingWithdrawal(sponsor)\n        fees()\n        nonReentrant()\n    {\n        require(collateralAmount.isGreaterThan(0));\n        PositionData storage positionData = _getPositionData(sponsor);\n\n        // Increase the position and global collateral balance by collateral amount.\n        _incrementCollateralBalances(positionData, collateralAmount);\n\n        emit Deposit(sponsor, collateralAmount.rawValue);\n\n        // Move collateral currency from sender to contract.\n        collateralCurrency.safeTransferFrom(msg.sender, address(this), collateralAmount.rawValue);\n    }\n\n    /**\n     * @notice Transfers `collateralAmount` of `collateralCurrency` into the caller's position.\n     * @dev Increases the collateralization level of a position after creation. This contract must be approved to spend\n     * at least `collateralAmount` of `collateralCurrency`.\n     * @param collateralAmount total amount of collateral tokens to be sent to the sponsor's position.\n     */\n    function deposit(FixedPoint.Unsigned memory collateralAmount) public {\n        // This is just a thin wrapper over depositTo that specified the sender as the sponsor.\n        depositTo(msg.sender, collateralAmount);\n    }\n\n    /**\n     * @notice Transfers `collateralAmount` of `collateralCurrency` from the sponsor's position to the sponsor.\n     * @dev Reverts if the withdrawal puts this position's collateralization ratio below the global collateralization\n     * ratio. In that case, use `requestWithdrawal`. Might not withdraw the full requested amount to account for precision loss.\n     * @param collateralAmount is the amount of collateral to withdraw.\n     * @return amountWithdrawn The actual amount of collateral withdrawn.\n     */\n    function withdraw(FixedPoint.Unsigned memory collateralAmount)\n        public\n        notEmergencyShutdown()\n        noPendingWithdrawal(msg.sender)\n        fees()\n        nonReentrant()\n        returns (FixedPoint.Unsigned memory amountWithdrawn)\n    {\n        require(collateralAmount.isGreaterThan(0));\n        PositionData storage positionData = _getPositionData(msg.sender);\n\n        // Decrement the sponsor's collateral and global collateral amounts. Check the GCR between decrement to ensure\n        // position remains above the GCR within the withdrawal. If this is not the case the caller must submit a request.\n        amountWithdrawn = _decrementCollateralBalancesCheckGCR(positionData, collateralAmount);\n\n        emit Withdrawal(msg.sender, amountWithdrawn.rawValue);\n\n        // Move collateral currency from contract to sender.\n        // Note: that we move the amount of collateral that is decreased from rawCollateral (inclusive of fees)\n        // instead of the user requested amount. This eliminates precision loss that could occur\n        // where the user withdraws more collateral than rawCollateral is decremented by.\n        collateralCurrency.safeTransfer(msg.sender, amountWithdrawn.rawValue);\n    }\n\n    /**\n     * @notice Starts a withdrawal request that, if passed, allows the sponsor to withdraw from their position.\n     * @dev The request will be pending for `withdrawalLiveness`, during which the position can be liquidated.\n     * @param collateralAmount the amount of collateral requested to withdraw\n     */\n    function requestWithdrawal(FixedPoint.Unsigned memory collateralAmount)\n        public\n        notEmergencyShutdown()\n        noPendingWithdrawal(msg.sender)\n        nonReentrant()\n    {\n        PositionData storage positionData = _getPositionData(msg.sender);\n        require(\n            collateralAmount.isGreaterThan(0) &&\n                collateralAmount.isLessThanOrEqual(_getFeeAdjustedCollateral(positionData.rawCollateral))\n        );\n\n        // Update the position object for the user.\n        positionData.withdrawalRequestPassTimestamp = getCurrentTime().add(withdrawalLiveness);\n        positionData.withdrawalRequestAmount = collateralAmount;\n\n        emit RequestWithdrawal(msg.sender, collateralAmount.rawValue);\n    }\n\n    /**\n     * @notice After a passed withdrawal request (i.e., by a call to `requestWithdrawal` and waiting\n     * `withdrawalLiveness`), withdraws `positionData.withdrawalRequestAmount` of collateral currency.\n     * @dev Might not withdraw the full requested amount in order to account for precision loss or if the full requested\n     * amount exceeds the collateral in the position (due to paying fees).\n     * @return amountWithdrawn The actual amount of collateral withdrawn.\n     */\n    function withdrawPassedRequest()\n        external\n        notEmergencyShutdown()\n        fees()\n        nonReentrant()\n        returns (FixedPoint.Unsigned memory amountWithdrawn)\n    {\n        PositionData storage positionData = _getPositionData(msg.sender);\n        require(\n            positionData.withdrawalRequestPassTimestamp != 0 &&\n                positionData.withdrawalRequestPassTimestamp <= getCurrentTime()\n        );\n\n        // If withdrawal request amount is > position collateral, then withdraw the full collateral amount.\n        // This situation is possible due to fees charged since the withdrawal was originally requested.\n        FixedPoint.Unsigned memory amountToWithdraw = positionData.withdrawalRequestAmount;\n        if (positionData.withdrawalRequestAmount.isGreaterThan(_getFeeAdjustedCollateral(positionData.rawCollateral))) {\n            amountToWithdraw = _getFeeAdjustedCollateral(positionData.rawCollateral);\n        }\n\n        // Decrement the sponsor's collateral and global collateral amounts.\n        amountWithdrawn = _decrementCollateralBalances(positionData, amountToWithdraw);\n\n        // Reset withdrawal request by setting withdrawal amount and withdrawal timestamp to 0.\n        _resetWithdrawalRequest(positionData);\n\n        // Transfer approved withdrawal amount from the contract to the caller.\n        collateralCurrency.safeTransfer(msg.sender, amountWithdrawn.rawValue);\n\n        emit RequestWithdrawalExecuted(msg.sender, amountWithdrawn.rawValue);\n    }\n\n    /**\n     * @notice Cancels a pending withdrawal request.\n     */\n    function cancelWithdrawal() external notEmergencyShutdown() nonReentrant() {\n        PositionData storage positionData = _getPositionData(msg.sender);\n        // No pending withdrawal require message removed to save bytecode.\n        require(positionData.withdrawalRequestPassTimestamp != 0);\n\n        emit RequestWithdrawalCanceled(msg.sender, positionData.withdrawalRequestAmount.rawValue);\n\n        // Reset withdrawal request by setting withdrawal amount and withdrawal timestamp to 0.\n        _resetWithdrawalRequest(positionData);\n    }\n\n    /**\n     * @notice Creates tokens by creating a new position or by augmenting an existing position. Pulls `collateralAmount\n     * ` into the sponsor's position and mints `numTokens` of `tokenCurrency`.\n     * @dev This contract must have the Minter role for the `tokenCurrency`.\n     * @dev Reverts if minting these tokens would put the position's collateralization ratio below the\n     * global collateralization ratio. This contract must be approved to spend at least `collateralAmount` of\n     * `collateralCurrency`.\n     * @param collateralAmount is the number of collateral tokens to collateralize the position with\n     * @param numTokens is the number of tokens to mint from the position.\n     */\n    function create(FixedPoint.Unsigned memory collateralAmount, FixedPoint.Unsigned memory numTokens)\n        public\n        notEmergencyShutdown()\n        fees()\n        nonReentrant()\n    {\n        PositionData storage positionData = positions[msg.sender];\n\n        // Either the new create ratio or the resultant position CR must be above the current GCR.\n        require(\n            (_checkCollateralization(\n                _getFeeAdjustedCollateral(positionData.rawCollateral).add(collateralAmount),\n                positionData.tokensOutstanding.add(numTokens)\n            ) || _checkCollateralization(collateralAmount, numTokens))\n        );\n\n        require(positionData.withdrawalRequestPassTimestamp == 0);\n        if (positionData.tokensOutstanding.isEqual(0)) {\n            require(numTokens.isGreaterThanOrEqual(minSponsorTokens));\n            emit NewSponsor(msg.sender);\n        }\n\n        // Increase the position and global collateral balance by collateral amount.\n        _incrementCollateralBalances(positionData, collateralAmount);\n\n        // Add the number of tokens created to the position's outstanding tokens.\n        positionData.tokensOutstanding = positionData.tokensOutstanding.add(numTokens);\n\n        totalTokensOutstanding = totalTokensOutstanding.add(numTokens);\n\n        emit PositionCreated(msg.sender, collateralAmount.rawValue, numTokens.rawValue);\n\n        // Transfer tokens into the contract from caller and mint corresponding synthetic tokens to the caller's address.\n        collateralCurrency.safeTransferFrom(msg.sender, address(this), collateralAmount.rawValue);\n\n        // Note: revert reason removed to save bytecode.\n        require(tokenCurrency.mint(msg.sender, numTokens.rawValue));\n    }\n\n    /**\n     * @notice Burns `numTokens` of `tokenCurrency` and sends back the proportional amount of `collateralCurrency`.\n     * @dev Can only be called by a token sponsor. Might not redeem the full proportional amount of collateral\n     * in order to account for precision loss. This contract must be approved to spend at least `numTokens` of\n     * `tokenCurrency`.\n     * @dev This contract must have the Burner role for the `tokenCurrency`.\n     * @param numTokens is the number of tokens to be burnt for a commensurate amount of collateral.\n     * @return amountWithdrawn The actual amount of collateral withdrawn.\n     */\n    function redeem(FixedPoint.Unsigned memory numTokens)\n        public\n        notEmergencyShutdown()\n        noPendingWithdrawal(msg.sender)\n        fees()\n        nonReentrant()\n        returns (FixedPoint.Unsigned memory amountWithdrawn)\n    {\n        PositionData storage positionData = _getPositionData(msg.sender);\n        require(numTokens.isLessThanOrEqual(positionData.tokensOutstanding));\n\n        FixedPoint.Unsigned memory fractionRedeemed = numTokens.div(positionData.tokensOutstanding);\n        FixedPoint.Unsigned memory collateralRedeemed =\n            fractionRedeemed.mul(_getFeeAdjustedCollateral(positionData.rawCollateral));\n\n        // If redemption returns all tokens the sponsor has then we can delete their position. Else, downsize.\n        if (positionData.tokensOutstanding.isEqual(numTokens)) {\n            amountWithdrawn = _deleteSponsorPosition(msg.sender);\n        } else {\n            // Decrement the sponsor's collateral and global collateral amounts.\n            amountWithdrawn = _decrementCollateralBalances(positionData, collateralRedeemed);\n\n            // Decrease the sponsors position tokens size. Ensure it is above the min sponsor size.\n            FixedPoint.Unsigned memory newTokenCount = positionData.tokensOutstanding.sub(numTokens);\n            require(newTokenCount.isGreaterThanOrEqual(minSponsorTokens));\n            positionData.tokensOutstanding = newTokenCount;\n\n            // Update the totalTokensOutstanding after redemption.\n            totalTokensOutstanding = totalTokensOutstanding.sub(numTokens);\n        }\n\n        emit Redeem(msg.sender, amountWithdrawn.rawValue, numTokens.rawValue);\n\n        // Transfer collateral from contract to caller and burn callers synthetic tokens.\n        collateralCurrency.safeTransfer(msg.sender, amountWithdrawn.rawValue);\n        tokenCurrency.safeTransferFrom(msg.sender, address(this), numTokens.rawValue);\n        tokenCurrency.burn(numTokens.rawValue);\n    }\n\n    /**\n     * @notice Burns `numTokens` of `tokenCurrency` to decrease sponsors position size, without sending back `collateralCurrency`.\n     * This is done by a sponsor to increase position CR. Resulting size is bounded by minSponsorTokens.\n     * @dev Can only be called by token sponsor. This contract must be approved to spend `numTokens` of `tokenCurrency`.\n     * @dev This contract must have the Burner role for the `tokenCurrency`.\n     * @param numTokens is the number of tokens to be burnt from the sponsor's debt position.\n     */\n    function repay(FixedPoint.Unsigned memory numTokens)\n        public\n        notEmergencyShutdown()\n        noPendingWithdrawal(msg.sender)\n        fees()\n        nonReentrant()\n    {\n        PositionData storage positionData = _getPositionData(msg.sender);\n        require(numTokens.isLessThanOrEqual(positionData.tokensOutstanding));\n\n        // Decrease the sponsors position tokens size. Ensure it is above the min sponsor size.\n        FixedPoint.Unsigned memory newTokenCount = positionData.tokensOutstanding.sub(numTokens);\n        require(newTokenCount.isGreaterThanOrEqual(minSponsorTokens));\n        positionData.tokensOutstanding = newTokenCount;\n\n        // Update the totalTokensOutstanding after redemption.\n        totalTokensOutstanding = totalTokensOutstanding.sub(numTokens);\n\n        emit Repay(msg.sender, numTokens.rawValue, newTokenCount.rawValue);\n\n        // Transfer the tokens back from the sponsor and burn them.\n        tokenCurrency.safeTransferFrom(msg.sender, address(this), numTokens.rawValue);\n        tokenCurrency.burn(numTokens.rawValue);\n    }\n\n    /**\n     * @notice If the contract is emergency shutdown then all token holders and sponsors can redeem their tokens or\n     * remaining collateral for underlying at the prevailing price defined by a DVM vote.\n     * @dev This burns all tokens from the caller of `tokenCurrency` and sends back the resolved settlement value of\n     * `collateralCurrency`. Might not redeem the full proportional amount of collateral in order to account for\n     * precision loss. This contract must be approved to spend `tokenCurrency` at least up to the caller's full balance.\n     * @dev This contract must have the Burner role for the `tokenCurrency`.\n     * @dev Note that this function does not call the updateFundingRate modifier to update the funding rate as this\n     * function is only called after an emergency shutdown & there should be no funding rate updates after the shutdown.\n     * @return amountWithdrawn The actual amount of collateral withdrawn.\n     */\n    function settleEmergencyShutdown()\n        external\n        isEmergencyShutdown()\n        fees()\n        nonReentrant()\n        returns (FixedPoint.Unsigned memory amountWithdrawn)\n    {\n        // Set the emergency shutdown price as resolved from the DVM. If DVM has not resolved will revert.\n        if (emergencyShutdownPrice.isEqual(FixedPoint.fromUnscaledUint(0))) {\n            emergencyShutdownPrice = _getOracleEmergencyShutdownPrice();\n        }\n\n        // Get caller's tokens balance and calculate amount of underlying entitled to them.\n        FixedPoint.Unsigned memory tokensToRedeem = FixedPoint.Unsigned(tokenCurrency.balanceOf(msg.sender));\n        FixedPoint.Unsigned memory totalRedeemableCollateral =\n            _getFundingRateAppliedTokenDebt(tokensToRedeem).mul(emergencyShutdownPrice);\n\n        // If the caller is a sponsor with outstanding collateral they are also entitled to their excess collateral after their debt.\n        PositionData storage positionData = positions[msg.sender];\n        if (_getFeeAdjustedCollateral(positionData.rawCollateral).isGreaterThan(0)) {\n            // Calculate the underlying entitled to a token sponsor. This is collateral - debt in underlying with\n            // the funding rate applied to the outstanding token debt.\n\n            FixedPoint.Unsigned memory tokenDebtValueInCollateral =\n                _getFundingRateAppliedTokenDebt(positionData.tokensOutstanding).mul(emergencyShutdownPrice);\n            FixedPoint.Unsigned memory positionCollateral = _getFeeAdjustedCollateral(positionData.rawCollateral);\n\n            // If the debt is greater than the remaining collateral, they cannot redeem anything.\n            FixedPoint.Unsigned memory positionRedeemableCollateral =\n                tokenDebtValueInCollateral.isLessThan(positionCollateral)\n                    ? positionCollateral.sub(tokenDebtValueInCollateral)\n                    : FixedPoint.Unsigned(0);\n\n            // Add the number of redeemable tokens for the sponsor to their total redeemable collateral.\n            totalRedeemableCollateral = totalRedeemableCollateral.add(positionRedeemableCollateral);\n\n            // Reset the position state as all the value has been removed after settlement.\n            delete positions[msg.sender];\n            emit EndedSponsorPosition(msg.sender);\n        }\n\n        // Take the min of the remaining collateral and the collateral \"owed\". If the contract is undercapitalized,\n        // the caller will get as much collateral as the contract can pay out.\n        FixedPoint.Unsigned memory payout =\n            FixedPoint.min(_getFeeAdjustedCollateral(rawTotalPositionCollateral), totalRedeemableCollateral);\n\n        // Decrement total contract collateral and outstanding debt.\n        amountWithdrawn = _removeCollateral(rawTotalPositionCollateral, payout);\n        totalTokensOutstanding = totalTokensOutstanding.sub(tokensToRedeem);\n\n        emit SettleEmergencyShutdown(msg.sender, amountWithdrawn.rawValue, tokensToRedeem.rawValue);\n\n        // Transfer tokens & collateral and burn the redeemed tokens.\n        collateralCurrency.safeTransfer(msg.sender, amountWithdrawn.rawValue);\n        tokenCurrency.safeTransferFrom(msg.sender, address(this), tokensToRedeem.rawValue);\n        tokenCurrency.burn(tokensToRedeem.rawValue);\n    }\n\n    /****************************************\n     *        GLOBAL STATE FUNCTIONS        *\n     ****************************************/\n\n    /**\n     * @notice Premature contract settlement under emergency circumstances.\n     * @dev Only the governor can call this function as they are permissioned within the `FinancialContractAdmin`.\n     * Upon emergency shutdown, the contract settlement time is set to the shutdown time. This enables withdrawal\n     * to occur via the `settleEmergencyShutdown` function.\n     */\n    function emergencyShutdown() external override notEmergencyShutdown() fees() nonReentrant() {\n        // Note: revert reason removed to save bytecode.\n        require(msg.sender == _getFinancialContractsAdminAddress());\n\n        emergencyShutdownTimestamp = getCurrentTime();\n        _requestOraclePrice(emergencyShutdownTimestamp);\n\n        emit EmergencyShutdown(msg.sender, emergencyShutdownTimestamp);\n    }\n\n    /**\n     * @notice Theoretically supposed to pay fees and move money between margin accounts to make sure they\n     * reflect the NAV of the contract. However, this functionality doesn't apply to this contract.\n     * @dev This is supposed to be implemented by any contract that inherits `AdministrateeInterface` and callable\n     * only by the Governor contract. This method is therefore minimally implemented in this contract and does nothing.\n     */\n    function remargin() external override {\n        return;\n    }\n\n    /**\n     * @notice Accessor method for a sponsor's collateral.\n     * @dev This is necessary because the struct returned by the positions() method shows\n     * rawCollateral, which isn't a user-readable value.\n     * @dev This method accounts for pending regular fees that have not yet been withdrawn from this contract, for\n     * example if the `lastPaymentTime != currentTime`.\n     * @param sponsor address whose collateral amount is retrieved.\n     * @return collateralAmount amount of collateral within a sponsors position.\n     */\n    function getCollateral(address sponsor)\n        external\n        view\n        nonReentrantView()\n        returns (FixedPoint.Unsigned memory collateralAmount)\n    {\n        // Note: do a direct access to avoid the validity check.\n        return _getPendingRegularFeeAdjustedCollateral(_getFeeAdjustedCollateral(positions[sponsor].rawCollateral));\n    }\n\n    /**\n     * @notice Accessor method for the total collateral stored within the PerpetualPositionManager.\n     * @return totalCollateral amount of all collateral within the position manager.\n     */\n    function totalPositionCollateral()\n        external\n        view\n        nonReentrantView()\n        returns (FixedPoint.Unsigned memory totalCollateral)\n    {\n        return _getPendingRegularFeeAdjustedCollateral(_getFeeAdjustedCollateral(rawTotalPositionCollateral));\n    }\n\n    function getFundingRateAppliedTokenDebt(FixedPoint.Unsigned memory rawTokenDebt)\n        external\n        view\n        nonReentrantView()\n        returns (FixedPoint.Unsigned memory totalCollateral)\n    {\n        return _getFundingRateAppliedTokenDebt(rawTokenDebt);\n    }\n\n    /****************************************\n     *          INTERNAL FUNCTIONS          *\n     ****************************************/\n\n    // Reduces a sponsor's position and global counters by the specified parameters. Handles deleting the entire\n    // position if the entire position is being removed. Does not make any external transfers.\n    function _reduceSponsorPosition(\n        address sponsor,\n        FixedPoint.Unsigned memory tokensToRemove,\n        FixedPoint.Unsigned memory collateralToRemove,\n        FixedPoint.Unsigned memory withdrawalAmountToRemove\n    ) internal {\n        PositionData storage positionData = _getPositionData(sponsor);\n\n        // If the entire position is being removed, delete it instead.\n        if (\n            tokensToRemove.isEqual(positionData.tokensOutstanding) &&\n            _getFeeAdjustedCollateral(positionData.rawCollateral).isEqual(collateralToRemove)\n        ) {\n            _deleteSponsorPosition(sponsor);\n            return;\n        }\n\n        // Decrement the sponsor's collateral and global collateral amounts.\n        _decrementCollateralBalances(positionData, collateralToRemove);\n\n        // Ensure that the sponsor will meet the min position size after the reduction.\n        positionData.tokensOutstanding = positionData.tokensOutstanding.sub(tokensToRemove);\n        require(positionData.tokensOutstanding.isGreaterThanOrEqual(minSponsorTokens));\n\n        // Decrement the position's withdrawal amount.\n        positionData.withdrawalRequestAmount = positionData.withdrawalRequestAmount.sub(withdrawalAmountToRemove);\n\n        // Decrement the total outstanding tokens in the overall contract.\n        totalTokensOutstanding = totalTokensOutstanding.sub(tokensToRemove);\n    }\n\n    // Deletes a sponsor's position and updates global counters. Does not make any external transfers.\n    function _deleteSponsorPosition(address sponsor) internal returns (FixedPoint.Unsigned memory) {\n        PositionData storage positionToLiquidate = _getPositionData(sponsor);\n\n        FixedPoint.Unsigned memory startingGlobalCollateral = _getFeeAdjustedCollateral(rawTotalPositionCollateral);\n\n        // Remove the collateral and outstanding from the overall total position.\n        rawTotalPositionCollateral = rawTotalPositionCollateral.sub(positionToLiquidate.rawCollateral);\n        totalTokensOutstanding = totalTokensOutstanding.sub(positionToLiquidate.tokensOutstanding);\n\n        // Reset the sponsors position to have zero outstanding and collateral.\n        delete positions[sponsor];\n\n        emit EndedSponsorPosition(sponsor);\n\n        // Return fee-adjusted amount of collateral deleted from position.\n        return startingGlobalCollateral.sub(_getFeeAdjustedCollateral(rawTotalPositionCollateral));\n    }\n\n    function _pfc() internal view virtual override returns (FixedPoint.Unsigned memory) {\n        return _getFeeAdjustedCollateral(rawTotalPositionCollateral);\n    }\n\n    function _getPositionData(address sponsor)\n        internal\n        view\n        onlyCollateralizedPosition(sponsor)\n        returns (PositionData storage)\n    {\n        return positions[sponsor];\n    }\n\n    function _getIdentifierWhitelist() internal view returns (IdentifierWhitelistInterface) {\n        return IdentifierWhitelistInterface(finder.getImplementationAddress(OracleInterfaces.IdentifierWhitelist));\n    }\n\n    function _getOracle() internal view returns (OracleInterface) {\n        return OracleInterface(finder.getImplementationAddress(OracleInterfaces.Oracle));\n    }\n\n    function _getFinancialContractsAdminAddress() internal view returns (address) {\n        return finder.getImplementationAddress(OracleInterfaces.FinancialContractsAdmin);\n    }\n\n    // Requests a price for `priceIdentifier` at `requestedTime` from the Oracle.\n    function _requestOraclePrice(uint256 requestedTime) internal {\n        _getOracle().requestPrice(priceIdentifier, requestedTime);\n    }\n\n    // Fetches a resolved Oracle price from the Oracle. Reverts if the Oracle hasn't resolved for this request.\n    function _getOraclePrice(uint256 requestedTime) internal view returns (FixedPoint.Unsigned memory price) {\n        // Create an instance of the oracle and get the price. If the price is not resolved revert.\n        int256 oraclePrice = _getOracle().getPrice(priceIdentifier, requestedTime);\n\n        // For now we don't want to deal with negative prices in positions.\n        if (oraclePrice < 0) {\n            oraclePrice = 0;\n        }\n        return FixedPoint.Unsigned(uint256(oraclePrice));\n    }\n\n    // Fetches a resolved Oracle price from the Oracle. Reverts if the Oracle hasn't resolved for this request.\n    function _getOracleEmergencyShutdownPrice() internal view returns (FixedPoint.Unsigned memory) {\n        return _getOraclePrice(emergencyShutdownTimestamp);\n    }\n\n    // Reset withdrawal request by setting the withdrawal request and withdrawal timestamp to 0.\n    function _resetWithdrawalRequest(PositionData storage positionData) internal {\n        positionData.withdrawalRequestAmount = FixedPoint.fromUnscaledUint(0);\n        positionData.withdrawalRequestPassTimestamp = 0;\n    }\n\n    // Ensure individual and global consistency when increasing collateral balances. Returns the change to the position.\n    function _incrementCollateralBalances(\n        PositionData storage positionData,\n        FixedPoint.Unsigned memory collateralAmount\n    ) internal returns (FixedPoint.Unsigned memory) {\n        _addCollateral(positionData.rawCollateral, collateralAmount);\n        return _addCollateral(rawTotalPositionCollateral, collateralAmount);\n    }\n\n    // Ensure individual and global consistency when decrementing collateral balances. Returns the change to the\n    // position. We elect to return the amount that the global collateral is decreased by, rather than the individual\n    // position's collateral, because we need to maintain the invariant that the global collateral is always\n    // <= the collateral owned by the contract to avoid reverts on withdrawals. The amount returned = amount withdrawn.\n    function _decrementCollateralBalances(\n        PositionData storage positionData,\n        FixedPoint.Unsigned memory collateralAmount\n    ) internal returns (FixedPoint.Unsigned memory) {\n        _removeCollateral(positionData.rawCollateral, collateralAmount);\n        return _removeCollateral(rawTotalPositionCollateral, collateralAmount);\n    }\n\n    // Ensure individual and global consistency when decrementing collateral balances. Returns the change to the position.\n    // This function is similar to the _decrementCollateralBalances function except this function checks position GCR\n    // between the decrements. This ensures that collateral removal will not leave the position undercollateralized.\n    function _decrementCollateralBalancesCheckGCR(\n        PositionData storage positionData,\n        FixedPoint.Unsigned memory collateralAmount\n    ) internal returns (FixedPoint.Unsigned memory) {\n        _removeCollateral(positionData.rawCollateral, collateralAmount);\n        require(_checkPositionCollateralization(positionData));\n        return _removeCollateral(rawTotalPositionCollateral, collateralAmount);\n    }\n\n    // These internal functions are supposed to act identically to modifiers, but re-used modifiers\n    // unnecessarily increase contract bytecode size.\n    // source: https://blog.polymath.network/solidity-tips-and-tricks-to-save-gas-and-reduce-bytecode-size-c44580b218e6\n    function _onlyCollateralizedPosition(address sponsor) internal view {\n        require(_getFeeAdjustedCollateral(positions[sponsor].rawCollateral).isGreaterThan(0));\n    }\n\n    // Note: This checks whether an already existing position has a pending withdrawal. This cannot be used on the\n    // `create` method because it is possible that `create` is called on a new position (i.e. one without any collateral\n    // or tokens outstanding) which would fail the `onlyCollateralizedPosition` modifier on `_getPositionData`.\n    function _positionHasNoPendingWithdrawal(address sponsor) internal view {\n        require(_getPositionData(sponsor).withdrawalRequestPassTimestamp == 0);\n    }\n\n    /****************************************\n     *          PRIVATE FUNCTIONS          *\n     ****************************************/\n\n    function _checkPositionCollateralization(PositionData storage positionData) private view returns (bool) {\n        return\n            _checkCollateralization(\n                _getFeeAdjustedCollateral(positionData.rawCollateral),\n                positionData.tokensOutstanding\n            );\n    }\n\n    // Checks whether the provided `collateral` and `numTokens` have a collateralization ratio above the global\n    // collateralization ratio.\n    function _checkCollateralization(FixedPoint.Unsigned memory collateral, FixedPoint.Unsigned memory numTokens)\n        private\n        view\n        returns (bool)\n    {\n        FixedPoint.Unsigned memory global =\n            _getCollateralizationRatio(_getFeeAdjustedCollateral(rawTotalPositionCollateral), totalTokensOutstanding);\n        FixedPoint.Unsigned memory thisChange = _getCollateralizationRatio(collateral, numTokens);\n        return !global.isGreaterThan(thisChange);\n    }\n\n    function _getCollateralizationRatio(FixedPoint.Unsigned memory collateral, FixedPoint.Unsigned memory numTokens)\n        private\n        pure\n        returns (FixedPoint.Unsigned memory ratio)\n    {\n        return numTokens.isLessThanOrEqual(0) ? FixedPoint.fromUnscaledUint(0) : collateral.div(numTokens);\n    }\n\n    function _getTokenAddress() internal view override returns (address) {\n        return address(tokenCurrency);\n    }\n}\n",
  "sourcePath": "/home/circleci/protocol/packages/core/contracts/financial-templates/perpetual-multiparty/PerpetualPositionManager.sol",
  "compiler": {
    "name": "solc",
    "version": "0.8.4+commit.c7e474f2.Emscripten.clang"
  },
  "schemaVersion": "3.3.4",
  "updatedAt": "2021-07-16T20:27:09.919Z",
  "devdoc": {
    "kind": "dev",
    "methods": {
      "constructor": {
        "details": "Deployer of this contract should consider carefully which parties have ability to mint and burn the synthetic tokens referenced by `_tokenAddress`. This contract's security assumes that no external accounts can mint new tokens, which could be used to steal all of this contract's locked collateral. We recommend to only use synthetic token contracts whose sole Owner role (the role capable of adding & removing roles) is assigned to this contract, whose sole Minter role is assigned to this contract, and whose total supply is 0 prior to construction of this contract.",
        "params": {
          "_collateralAddress": "ERC20 token used as collateral for all positions.",
          "_finderAddress": "UMA protocol Finder used to discover other protocol contracts.",
          "_fundingRateIdentifier": "Unique identifier for DVM price feed ticker for child financial contract.",
          "_minSponsorTokens": "minimum number of tokens that must exist at any time in a position.",
          "_priceIdentifier": "registered in the DVM for the synthetic.",
          "_timerAddress": "Contract that stores the current time in a testing environment. Set to 0x0 for production.",
          "_tokenAddress": "ERC20 token used as synthetic token.",
          "_tokenScaling": "initial scaling to apply to the token value (i.e. scales the tracking index).",
          "_withdrawalLiveness": "liveness delay, in seconds, for pending withdrawals."
        }
      },
      "create((uint256),(uint256))": {
        "details": "This contract must have the Minter role for the `tokenCurrency`.Reverts if minting these tokens would put the position's collateralization ratio below the global collateralization ratio. This contract must be approved to spend at least `collateralAmount` of `collateralCurrency`.",
        "params": {
          "collateralAmount": "is the number of collateral tokens to collateralize the position with",
          "numTokens": "is the number of tokens to mint from the position."
        }
      },
      "deposit((uint256))": {
        "details": "Increases the collateralization level of a position after creation. This contract must be approved to spend at least `collateralAmount` of `collateralCurrency`.",
        "params": {
          "collateralAmount": "total amount of collateral tokens to be sent to the sponsor's position."
        }
      },
      "depositTo(address,(uint256))": {
        "details": "Increases the collateralization level of a position after creation. This contract must be approved to spend at least `collateralAmount` of `collateralCurrency`.",
        "params": {
          "collateralAmount": "total amount of collateral tokens to be sent to the sponsor's position.",
          "sponsor": "the sponsor to credit the deposit to."
        }
      },
      "emergencyShutdown()": {
        "details": "Only the governor can call this function as they are permissioned within the `FinancialContractAdmin`. Upon emergency shutdown, the contract settlement time is set to the shutdown time. This enables withdrawal to occur via the `settleEmergencyShutdown` function."
      },
      "getCollateral(address)": {
        "details": "This is necessary because the struct returned by the positions() method shows rawCollateral, which isn't a user-readable value.This method accounts for pending regular fees that have not yet been withdrawn from this contract, for example if the `lastPaymentTime != currentTime`.",
        "params": {
          "sponsor": "address whose collateral amount is retrieved."
        },
        "returns": {
          "collateralAmount": "amount of collateral within a sponsors position."
        }
      },
      "getCurrentTime()": {
        "returns": {
          "_0": "uint for the current Testable timestamp."
        }
      },
      "getOutstandingRegularFees(uint256)": {
        "details": "This returns 0 and exit early if there is no pfc, fees were already paid during the current block, or the fee rate is 0.",
        "returns": {
          "latePenalty": "outstanding unpaid late fee for being late in previous fee payments.",
          "regularFee": "outstanding unpaid regular fee.",
          "totalPaid": "Amount of collateral that the contract paid (sum of the amount paid to the Store and caller)."
        }
      },
      "gulp()": {
        "details": "Multiplying the `cumulativeFeeMultiplier` by the ratio of non-PfC-collateral :: PfC-collateral effectively pays all sponsors a pro-rata portion of the excess collateral.This will revert if PfC is 0 and this contract's collateral balance > 0."
      },
      "payRegularFees()": {
        "details": "These must be paid periodically for the life of the contract. If the contract has not paid its regular fee in a week or more then a late penalty is applied which is sent to the caller. If the amount of fees owed are greater than the pfc, then this will pay as much as possible from the available collateral. An event is only fired if the fees charged are greater than 0.",
        "returns": {
          "_0": "totalPaid Amount of collateral that the contract paid (sum of the amount paid to the Store and caller). This returns 0 and exit early if there is no pfc, fees were already paid during the current block, or the fee rate is 0."
        }
      },
      "pfc()": {
        "details": "This is equivalent to the collateral pool available from which to pay fees. Therefore, derived contracts are expected to implement this so that pay-fee methods can correctly compute the owed fees as a % of PfC.",
        "returns": {
          "_0": "pfc value for equal to the current profit from corruption denominated in collateral currency."
        }
      },
      "proposeFundingRate((int256),uint256)": {
        "params": {
          "rate": "funding rate being proposed.",
          "timestamp": "time at which the funding rate was computed."
        }
      },
      "redeem((uint256))": {
        "details": "Can only be called by a token sponsor. Might not redeem the full proportional amount of collateral in order to account for precision loss. This contract must be approved to spend at least `numTokens` of `tokenCurrency`.This contract must have the Burner role for the `tokenCurrency`.",
        "params": {
          "numTokens": "is the number of tokens to be burnt for a commensurate amount of collateral."
        },
        "returns": {
          "amountWithdrawn": "The actual amount of collateral withdrawn."
        }
      },
      "remargin()": {
        "details": "This is supposed to be implemented by any contract that inherits `AdministrateeInterface` and callable only by the Governor contract. This method is therefore minimally implemented in this contract and does nothing."
      },
      "repay((uint256))": {
        "details": "Can only be called by token sponsor. This contract must be approved to spend `numTokens` of `tokenCurrency`.This contract must have the Burner role for the `tokenCurrency`.",
        "params": {
          "numTokens": "is the number of tokens to be burnt from the sponsor's debt position."
        }
      },
      "requestWithdrawal((uint256))": {
        "details": "The request will be pending for `withdrawalLiveness`, during which the position can be liquidated.",
        "params": {
          "collateralAmount": "the amount of collateral requested to withdraw"
        }
      },
      "setCurrentTime(uint256)": {
        "details": "Will revert if not running in test mode.",
        "params": {
          "time": "timestamp to set current Testable time to."
        }
      },
      "settleEmergencyShutdown()": {
        "details": "This burns all tokens from the caller of `tokenCurrency` and sends back the resolved settlement value of `collateralCurrency`. Might not redeem the full proportional amount of collateral in order to account for precision loss. This contract must be approved to spend `tokenCurrency` at least up to the caller's full balance.This contract must have the Burner role for the `tokenCurrency`.Note that this function does not call the updateFundingRate modifier to update the funding rate as this function is only called after an emergency shutdown & there should be no funding rate updates after the shutdown.",
        "returns": {
          "amountWithdrawn": "The actual amount of collateral withdrawn."
        }
      },
      "totalPositionCollateral()": {
        "returns": {
          "totalCollateral": "amount of all collateral within the position manager."
        }
      },
      "withdraw((uint256))": {
        "details": "Reverts if the withdrawal puts this position's collateralization ratio below the global collateralization ratio. In that case, use `requestWithdrawal`. Might not withdraw the full requested amount to account for precision loss.",
        "params": {
          "collateralAmount": "is the amount of collateral to withdraw."
        },
        "returns": {
          "amountWithdrawn": "The actual amount of collateral withdrawn."
        }
      },
      "withdrawPassedRequest()": {
        "details": "Might not withdraw the full requested amount in order to account for precision loss or if the full requested amount exceeds the collateral in the position (due to paying fees).",
        "returns": {
          "amountWithdrawn": "The actual amount of collateral withdrawn."
        }
      }
    },
    "title": "Financial contract with priceless position management.",
    "version": 1
  },
  "userdoc": {
    "kind": "user",
    "methods": {
      "applyFundingRate()": {
        "notice": "This method takes 3 distinct actions: 1. Pays out regular fees. 2. If possible, resolves the outstanding funding rate proposal, pulling the result in and paying out the rewards. 3. Applies the prevailing funding rate over the most recent period."
      },
      "cancelWithdrawal()": {
        "notice": "Cancels a pending withdrawal request."
      },
      "constructor": {
        "notice": "Construct the PerpetualPositionManager."
      },
      "create((uint256),(uint256))": {
        "notice": "Creates tokens by creating a new position or by augmenting an existing position. Pulls `collateralAmount ` into the sponsor's position and mints `numTokens` of `tokenCurrency`."
      },
      "deposit((uint256))": {
        "notice": "Transfers `collateralAmount` of `collateralCurrency` into the caller's position."
      },
      "depositTo(address,(uint256))": {
        "notice": "Transfers `collateralAmount` of `collateralCurrency` into the specified sponsor's position."
      },
      "emergencyShutdown()": {
        "notice": "Premature contract settlement under emergency circumstances."
      },
      "getCollateral(address)": {
        "notice": "Accessor method for a sponsor's collateral."
      },
      "getCurrentTime()": {
        "notice": "Gets the current time. Will return the last time set in `setCurrentTime` if running in test mode. Otherwise, it will return the block timestamp."
      },
      "getOutstandingRegularFees(uint256)": {
        "notice": "Fetch any regular fees that the contract has pending but has not yet paid. If the fees to be paid are more than the total collateral within the contract then the totalPaid returned is full contract collateral amount."
      },
      "gulp()": {
        "notice": "Removes excess collateral balance not counted in the PfC by distributing it out pro-rata to all sponsors."
      },
      "payRegularFees()": {
        "notice": "Pays UMA DVM regular fees (as a % of the collateral pool) to the Store contract."
      },
      "pfc()": {
        "notice": "Gets the current profit from corruption for this contract in terms of the collateral currency."
      },
      "proposeFundingRate((int256),uint256)": {
        "notice": "Proposes a new funding rate. Proposer receives a reward if correct."
      },
      "redeem((uint256))": {
        "notice": "Burns `numTokens` of `tokenCurrency` and sends back the proportional amount of `collateralCurrency`."
      },
      "remargin()": {
        "notice": "Theoretically supposed to pay fees and move money between margin accounts to make sure they reflect the NAV of the contract. However, this functionality doesn't apply to this contract."
      },
      "repay((uint256))": {
        "notice": "Burns `numTokens` of `tokenCurrency` to decrease sponsors position size, without sending back `collateralCurrency`. This is done by a sponsor to increase position CR. Resulting size is bounded by minSponsorTokens."
      },
      "requestWithdrawal((uint256))": {
        "notice": "Starts a withdrawal request that, if passed, allows the sponsor to withdraw from their position."
      },
      "setCurrentTime(uint256)": {
        "notice": "Sets the current time."
      },
      "settleEmergencyShutdown()": {
        "notice": "If the contract is emergency shutdown then all token holders and sponsors can redeem their tokens or remaining collateral for underlying at the prevailing price defined by a DVM vote."
      },
      "totalPositionCollateral()": {
        "notice": "Accessor method for the total collateral stored within the PerpetualPositionManager."
      },
      "withdraw((uint256))": {
        "notice": "Transfers `collateralAmount` of `collateralCurrency` from the sponsor's position to the sponsor."
      },
      "withdrawPassedRequest()": {
        "notice": "After a passed withdrawal request (i.e., by a call to `requestWithdrawal` and waiting `withdrawalLiveness`), withdraws `positionData.withdrawalRequestAmount` of collateral currency."
      }
    },
    "notice": "Handles positions for multiple sponsors in an optimistic (i.e., priceless) way without relying on a price feed. On construction, deploys a new ERC20, managed by this contract, that is the synthetic token.",
    "version": 1
  }
}