{
  "contractName": "PositionSettler",
  "abi": [
    {
      "inputs": [
        {
          "internalType": "address",
          "name": "financialContractAddress",
          "type": "address"
        }
      ],
      "name": "settleExpired",
      "outputs": [
        {
          "components": [
            {
              "internalType": "uint256",
              "name": "rawValue",
              "type": "uint256"
            }
          ],
          "internalType": "struct FixedPoint.Unsigned",
          "name": "",
          "type": "tuple"
        }
      ],
      "stateMutability": "nonpayable",
      "type": "function"
    }
  ],
  "bytecode": "0x608060405234801561001057600080fd5b5061018f806100206000396000f3fe608060405234801561001057600080fd5b506004361061002b5760003560e01c8063c14795fa14610030575b600080fd5b61004361003e3660046100de565b610056565b6040519051815260200160405180910390f35b604080516020810190915260008152816001600160a01b031663fcccedc76040518163ffffffff1660e01b8152600401602060405180830381600087803b1580156100a057600080fd5b505af11580156100b4573d6000803e3d6000fd5b505050506040513d601f19601f820116820180604052508101906100d8919061010c565b92915050565b6000602082840312156100ef578081fd5b81356001600160a01b0381168114610105578182fd5b9392505050565b60006020828403121561011d578081fd5b6040516020810181811067ffffffffffffffff8211171561014c57634e487b7160e01b83526041600452602483fd5b604052915182525091905056fea26469706673582212205c6e03781c2cb61d0008072a4a9d36d1c37d1e736e66ff349abcbb3b87e16ecd64736f6c63430008040033",
  "immutableReferences": {},
  "source": "// SPDX-License-Identifier: AGPL-3.0-only\npragma solidity ^0.8.0;\n\nimport \"../../common/implementation/FixedPoint.sol\";\n\n// Simple contract used to Settle expired positions using a DSProxy.\ncontract PositionSettler {\n    function settleExpired(address financialContractAddress) public returns (FixedPoint.Unsigned memory) {\n        return IFinancialContract(financialContractAddress).settleExpired();\n    }\n}\n\ninterface IFinancialContract {\n    function settleExpired() external returns (FixedPoint.Unsigned memory amountWithdrawn);\n}\n",
  "sourcePath": "/home/circleci/protocol/packages/core/contracts/proxy-scripts/bot-action-wrappers/PositionSettler.sol",
  "compiler": {
    "name": "solc",
    "version": "0.8.4+commit.c7e474f2.Emscripten.clang"
  },
  "schemaVersion": "3.3.4",
  "updatedAt": "2021-07-16T20:27:10.182Z",
  "devdoc": {
    "kind": "dev",
    "methods": {},
    "version": 1
  },
  "userdoc": {
    "kind": "user",
    "methods": {},
    "version": 1
  }
}