{
  "contractName": "ReentrancyAttack",
  "abi": [
    {
      "inputs": [
        {
          "internalType": "bytes4",
          "name": "data",
          "type": "bytes4"
        }
      ],
      "name": "callSender",
      "outputs": [],
      "stateMutability": "nonpayable",
      "type": "function"
    }
  ],
  "bytecode": "0x608060405234801561001057600080fd5b506101ba806100206000396000f3fe608060405234801561001057600080fd5b506004361061002b5760003560e01c80630a2df1ed14610030575b600080fd5b61004361003e36600461011c565b610045565b005b60408051600481526024810182526020810180516001600160e01b03166001600160e01b0319851617905290516000913391610081919061014b565b6000604051808303816000865af19150503d80600081146100be576040519150601f19603f3d011682016040523d82523d6000602084013e6100c3565b606091505b50509050806101185760405162461bcd60e51b815260206004820152601d60248201527f5265656e7472616e637941747461636b3a206661696c65642063616c6c000000604482015260640160405180910390fd5b5050565b60006020828403121561012d578081fd5b81356001600160e01b031981168114610144578182fd5b9392505050565b60008251815b8181101561016b5760208186018101518583015201610151565b818111156101795782828501525b50919091019291505056fea264697066735822122038fc87384cfb9896b84f80c38374c5792d118fb0d01b2f40cbe708f91d99b9ff64736f6c63430008040033",
  "immutableReferences": {},
  "source": "// SPDX-License-Identifier: AGPL-3.0-only\npragma solidity ^0.8.0;\n\n// Tests reentrancy guards defined in Lockable.sol.\n// Copied from https://github.com/OpenZeppelin/openzeppelin-contracts/blob/v3.0.1/contracts/mocks/ReentrancyAttack.sol.\ncontract ReentrancyAttack {\n    function callSender(bytes4 data) public {\n        // solhint-disable-next-line avoid-low-level-calls\n        (bool success, ) = msg.sender.call(abi.encodeWithSelector(data));\n        require(success, \"ReentrancyAttack: failed call\");\n    }\n}\n",
  "sourcePath": "/home/circleci/protocol/packages/core/contracts/common/test/ReentrancyAttack.sol",
  "compiler": {
    "name": "solc",
    "version": "0.8.4+commit.c7e474f2.Emscripten.clang"
  },
  "schemaVersion": "3.3.4",
  "updatedAt": "2021-07-16T20:27:09.620Z",
  "devdoc": {
    "kind": "dev",
    "methods": {},
    "version": 1
  },
  "userdoc": {
    "kind": "user",
    "methods": {},
    "version": 1
  }
}