{
  "contractName": "SinkOracle",
  "abi": [
    {
      "inputs": [
        {
          "internalType": "address",
          "name": "_finderAddress",
          "type": "address"
        },
        {
          "internalType": "uint8",
          "name": "_chainID",
          "type": "uint8"
        },
        {
          "internalType": "uint8",
          "name": "_destinationChainID",
          "type": "uint8"
        }
      ],
      "stateMutability": "nonpayable",
      "type": "constructor"
    },
    {
      "anonymous": false,
      "inputs": [
        {
          "indexed": true,
          "internalType": "uint8",
          "name": "chainID",
          "type": "uint8"
        },
        {
          "indexed": true,
          "internalType": "bytes32",
          "name": "identifier",
          "type": "bytes32"
        },
        {
          "indexed": false,
          "internalType": "uint256",
          "name": "time",
          "type": "uint256"
        },
        {
          "indexed": false,
          "internalType": "bytes",
          "name": "ancillaryData",
          "type": "bytes"
        }
      ],
      "name": "PriceRequestAdded",
      "type": "event"
    },
    {
      "anonymous": false,
      "inputs": [
        {
          "indexed": true,
          "internalType": "uint8",
          "name": "chainID",
          "type": "uint8"
        },
        {
          "indexed": true,
          "internalType": "bytes32",
          "name": "identifier",
          "type": "bytes32"
        },
        {
          "indexed": false,
          "internalType": "uint256",
          "name": "time",
          "type": "uint256"
        },
        {
          "indexed": false,
          "internalType": "bytes",
          "name": "ancillaryData",
          "type": "bytes"
        },
        {
          "indexed": false,
          "internalType": "int256",
          "name": "price",
          "type": "int256"
        }
      ],
      "name": "PushedPrice",
      "type": "event"
    },
    {
      "inputs": [],
      "name": "currentChainID",
      "outputs": [
        {
          "internalType": "uint8",
          "name": "",
          "type": "uint8"
        }
      ],
      "stateMutability": "view",
      "type": "function"
    },
    {
      "inputs": [],
      "name": "destinationChainID",
      "outputs": [
        {
          "internalType": "uint8",
          "name": "",
          "type": "uint8"
        }
      ],
      "stateMutability": "view",
      "type": "function"
    },
    {
      "inputs": [],
      "name": "finder",
      "outputs": [
        {
          "internalType": "contract FinderInterface",
          "name": "",
          "type": "address"
        }
      ],
      "stateMutability": "view",
      "type": "function"
    },
    {
      "inputs": [
        {
          "internalType": "bytes32",
          "name": "identifier",
          "type": "bytes32"
        },
        {
          "internalType": "uint256",
          "name": "time",
          "type": "uint256"
        },
        {
          "internalType": "bytes",
          "name": "ancillaryData",
          "type": "bytes"
        }
      ],
      "name": "requestPrice",
      "outputs": [],
      "stateMutability": "nonpayable",
      "type": "function"
    },
    {
      "inputs": [
        {
          "internalType": "uint8",
          "name": "sinkChainID",
          "type": "uint8"
        },
        {
          "internalType": "bytes32",
          "name": "identifier",
          "type": "bytes32"
        },
        {
          "internalType": "uint256",
          "name": "time",
          "type": "uint256"
        },
        {
          "internalType": "bytes",
          "name": "ancillaryData",
          "type": "bytes"
        }
      ],
      "name": "validateDeposit",
      "outputs": [],
      "stateMutability": "nonpayable",
      "type": "function"
    },
    {
      "inputs": [
        {
          "internalType": "uint8",
          "name": "sinkChainID",
          "type": "uint8"
        },
        {
          "internalType": "bytes32",
          "name": "identifier",
          "type": "bytes32"
        },
        {
          "internalType": "uint256",
          "name": "time",
          "type": "uint256"
        },
        {
          "internalType": "bytes",
          "name": "ancillaryData",
          "type": "bytes"
        },
        {
          "internalType": "int256",
          "name": "price",
          "type": "int256"
        }
      ],
      "name": "executePublishPrice",
      "outputs": [],
      "stateMutability": "nonpayable",
      "type": "function"
    },
    {
      "inputs": [
        {
          "internalType": "bytes32",
          "name": "identifier",
          "type": "bytes32"
        },
        {
          "internalType": "uint256",
          "name": "time",
          "type": "uint256"
        },
        {
          "internalType": "bytes",
          "name": "ancillaryData",
          "type": "bytes"
        }
      ],
      "name": "hasPrice",
      "outputs": [
        {
          "internalType": "bool",
          "name": "",
          "type": "bool"
        }
      ],
      "stateMutability": "view",
      "type": "function"
    },
    {
      "inputs": [
        {
          "internalType": "bytes32",
          "name": "identifier",
          "type": "bytes32"
        },
        {
          "internalType": "uint256",
          "name": "time",
          "type": "uint256"
        },
        {
          "internalType": "bytes",
          "name": "ancillaryData",
          "type": "bytes"
        }
      ],
      "name": "getPrice",
      "outputs": [
        {
          "internalType": "int256",
          "name": "",
          "type": "int256"
        }
      ],
      "stateMutability": "view",
      "type": "function"
    },
    {
      "inputs": [],
      "name": "getResourceId",
      "outputs": [
        {
          "internalType": "bytes32",
          "name": "",
          "type": "bytes32"
        }
      ],
      "stateMutability": "view",
      "type": "function"
    },
    {
      "inputs": [
        {
          "internalType": "uint8",
          "name": "chainID",
          "type": "uint8"
        },
        {
          "internalType": "bytes32",
          "name": "identifier",
          "type": "bytes32"
        },
        {
          "internalType": "uint256",
          "name": "time",
          "type": "uint256"
        },
        {
          "internalType": "bytes",
          "name": "ancillaryData",
          "type": "bytes"
        }
      ],
      "name": "formatMetadata",
      "outputs": [
        {
          "internalType": "bytes",
          "name": "",
          "type": "bytes"
        }
      ],
      "stateMutability": "pure",
      "type": "function"
    }
  ],
  "bytecode": "0x608060405234801561001057600080fd5b5060405161112538038061112583398101604081905261002f91610087565b600280546000805460ff191660ff9586161790556001600160a01b03949094166001600160a81b031990941693909317600160a01b91909216021790556100d6565b805160ff8116811461008257600080fd5b919050565b60008060006060848603121561009b578283fd5b83516001600160a01b03811681146100b1578384fd5b92506100bf60208501610071565b91506100cd60408501610071565b90509250925092565b611040806100e56000396000f3fe608060405234801561001057600080fd5b506004361061009e5760003560e01c8063a2ef585c11610066578063a2ef585c1461012c578063b179e1e71461013f578063b551cd501461014c578063b9a3c84c1461016f578063f5bff6c71461019a57600080fd5b8063216666a4146100a35780633bf5e3b4146100b8578063719c6d56146100d35780637a9cffc8146100e6578063a0a34ad61461010c575b600080fd5b6100b66100b1366004610d71565b6101ad565b005b6100c06103d3565b6040519081526020015b60405180910390f35b6100c06100e1366004610d71565b610427565b6002546100fa90600160a01b900460ff1681565b60405160ff90911681526020016100ca565b61011f61011a366004610dbf565b6105ed565b6040516100ca9190610ed7565b6100b661013a366004610e1e565b610647565b6000546100fa9060ff1681565b61015f61015a366004610d71565b610753565b60405190151581526020016100ca565b600254610182906001600160a01b031681565b6040516001600160a01b0390911681526020016100ca565b6100b66101a8366004610dbf565b6108c7565b6002546040516302abf57960e61b815267526567697374727960c01b60048201526000916001600160a01b03169063aafd5e409060240160206040518083038186803b1580156101fc57600080fd5b505afa158015610210573d6000803e3d6000fd5b505050506040513d601f19601f820116820180604052508101906102349190610d23565b60405163f9f6b49b60e01b81523360048201529091506001600160a01b0382169063f9f6b49b9060240160206040518083038186803b15801561027657600080fd5b505afa15801561028a573d6000803e3d6000fd5b505050506040513d601f19601f820116820180604052508101906102ae9190610d51565b6102d35760405162461bcd60e51b81526004016102ca90610eea565b60405180910390fd5b600080546102e69060ff168686866108d3565b6000818152600160205260408120919250815460ff16600481111561031b57634e487b7160e01b600052602160045260246000fd5b146103275750506103cd565b6000546103399060ff1687878761090c565b6103416109a9565b6001600160a01b03166305e2ca17600260149054906101000a900460ff166103676103d3565b6000546103799060ff168b8b8b6105ed565b6040518463ffffffff1660e01b815260040161039793929190610f6b565b600060405180830381600087803b1580156103b157600080fd5b505af11580156103c5573d6000803e3d6000fd5b505050505b50505b50505050565b600254604080516020810182905260066060820152654f7261636c6560d01b6080820152600160a01b90920460ff169082015260009060a00160405160208183030381529060405280519060200120905090565b6002546040516302abf57960e61b815267526567697374727960c01b600482015260009182916001600160a01b039091169063aafd5e409060240160206040518083038186803b15801561047a57600080fd5b505afa15801561048e573d6000803e3d6000fd5b505050506040513d601f19601f820116820180604052508101906104b29190610d23565b60405163f9f6b49b60e01b81523360048201529091506001600160a01b0382169063f9f6b49b9060240160206040518083038186803b1580156104f457600080fd5b505afa158015610508573d6000803e3d6000fd5b505050506040513d601f19601f8201168201806040525081019061052c9190610d51565b6105485760405162461bcd60e51b81526004016102ca90610eea565b6000805461055b9060ff168787876108d3565b60008181526001602052604090209091506004815460ff16600481111561059257634e487b7160e01b600052602160045260246000fd5b146105df5760405162461bcd60e51b815260206004820152601b60248201527f507269636520686173206e6f74206265656e207265736f6c766564000000000060448201526064016102ca565b600101549695505050505050565b60606000858585856040516020016106089493929190610f96565b604051602081830303815290604052905080518160405160200161062d929190610eb1565b604051602081830303815290604052915050949350505050565b6002546040516302abf57960e61b81526d23b2b732b934b1a430b7323632b960911b60048201526001600160a01b039091169063aafd5e409060240160206040518083038186803b15801561069b57600080fd5b505afa1580156106af573d6000803e3d6000fd5b505050506040513d601f19601f820116820180604052508101906106d39190610d23565b6001600160a01b0316336001600160a01b0316146107335760405162461bcd60e51b815260206004820152601d60248201527f43616c6c6572206d7573742062652047656e6572696348616e646c657200000060448201526064016102ca565b6107408585858585610a33565b61074c85858585610b32565b5050505050565b6002546040516302abf57960e61b815267526567697374727960c01b600482015260009182916001600160a01b039091169063aafd5e409060240160206040518083038186803b1580156107a657600080fd5b505afa1580156107ba573d6000803e3d6000fd5b505050506040513d601f19601f820116820180604052508101906107de9190610d23565b60405163f9f6b49b60e01b81523360048201529091506001600160a01b0382169063f9f6b49b9060240160206040518083038186803b15801561082057600080fd5b505afa158015610834573d6000803e3d6000fd5b505050506040513d601f19601f820116820180604052508101906108589190610d51565b6108745760405162461bcd60e51b81526004016102ca90610eea565b600080546108879060ff168787876108d3565b9050600460008281526001602052604090205460ff1660048111156108bc57634e487b7160e01b600052602160045260246000fd5b149695505050505050565b6103cd84848484610be0565b6000848484846040516020016108ec9493929190610f96565b604051602081830303815290604052805190602001209050949350505050565b600061091a858585856108d3565b6000818152600160205260408120919250815460ff16600481111561094f57634e487b7160e01b600052602160045260246000fd5b14156103ca57805460ff19166001178155604051859060ff8816907f73a67cb84132a2f461ed3c04c189c0b36d084058f1776b565164aad656c13653906109999088908890610f21565b60405180910390a3505050505050565b6002546040516302abf57960e61b81526542726964676560d01b60048201526000916001600160a01b03169063aafd5e409060240160206040518083038186803b1580156109f657600080fd5b505afa158015610a0a573d6000803e3d6000fd5b505050506040513d601f19601f82011682018060405250810190610a2e9190610d23565b905090565b6000610a41868686866108d3565b60008181526001602052604090209091506002815460ff166004811115610a7857634e487b7160e01b600052602160045260246000fd5b14610ad45760405162461bcd60e51b815260206004820152602660248201527f50726963652072657175657374206973206e6f742063757272656e746c792070604482015265656e64696e6760d01b60648201526084016102ca565b60018101839055805460ff19166003178155604051869060ff8916907ffee3c549ded1d140e76f82727129b254f5d19815ec4c4dbfe2199145bf72b33590610b2190899089908990610f42565b60405180910390a350505050505050565b6000610b40858585856108d3565b60008181526001602052604090209091506003815460ff166004811115610b7757634e487b7160e01b600052602160045260246000fd5b14610bc45760405162461bcd60e51b815260206004820152601c60248201527f507269636520686173206e6f74206265656e207075626c69736865640000000060448201526064016102ca565b8054600490829060ff19166001835b0217905550505050505050565b6000610bee858585856108d3565b6000818152600160208190526040909120919250815460ff166004811115610c2657634e487b7160e01b600052602160045260246000fd5b14610c735760405162461bcd60e51b815260206004820152601c60248201527f507269636520686173206e6f74206265656e207265717565737465640000000060448201526064016102ca565b8054600290829060ff1916600183610bd3565b600082601f830112610c96578081fd5b813567ffffffffffffffff80821115610cb157610cb1610ff4565b604051601f8301601f19908116603f01168101908282118183101715610cd957610cd9610ff4565b81604052838152866020858801011115610cf1578485fd5b8360208701602083013792830160200193909352509392505050565b803560ff81168114610d1e57600080fd5b919050565b600060208284031215610d34578081fd5b81516001600160a01b0381168114610d4a578182fd5b9392505050565b600060208284031215610d62578081fd5b81518015158114610d4a578182fd5b600080600060608486031215610d85578182fd5b8335925060208401359150604084013567ffffffffffffffff811115610da9578182fd5b610db586828701610c86565b9150509250925092565b60008060008060808587031215610dd4578081fd5b610ddd85610d0d565b93506020850135925060408501359150606085013567ffffffffffffffff811115610e06578182fd5b610e1287828801610c86565b91505092959194509250565b600080600080600060a08688031215610e35578081fd5b610e3e86610d0d565b94506020860135935060408601359250606086013567ffffffffffffffff811115610e67578182fd5b610e7388828901610c86565b95989497509295608001359392505050565b60008151808452610e9d816020860160208601610fc8565b601f01601f19169290920160200192915050565b82815260008251610ec9816020850160208701610fc8565b919091016020019392505050565b602081526000610d4a6020830184610e85565b60208082526019908201527f43616c6c6572206d757374206265207265676973746572656400000000000000604082015260600190565b828152604060208201526000610f3a6040830184610e85565b949350505050565b838152606060208201526000610f5b6060830185610e85565b9050826040830152949350505050565b60ff84168152826020820152606060408201526000610f8d6060830184610e85565b95945050505050565b60ff85168152836020820152826040820152608060608201526000610fbe6080830184610e85565b9695505050505050565b60005b83811015610fe3578181015183820152602001610fcb565b838111156103cd5750506000910152565b634e487b7160e01b600052604160045260246000fdfea26469706673582212200d6ed045be0b16160dc8c078acdb842f0a69d64278e3f6eaae088c3a4a71d32c64736f6c63430008040033",
  "immutableReferences": {},
  "source": "// SPDX-License-Identifier: AGPL-3.0-only\npragma solidity ^0.8.0;\n\nimport \"./BeaconOracle.sol\";\nimport \"../oracle/interfaces/OracleAncillaryInterface.sol\";\nimport \"../oracle/interfaces/RegistryInterface.sol\";\n\n/**\n * @title Extension of BeaconOracle that is intended to be deployed on non-Mainnet networks to give financial\n * contracts on those networks the ability to trigger cross-chain price requests to the Mainnet DVM. Also has the\n * ability to receive published prices from Mainnet. This contract can be treated as the \"DVM\" for a non-Mainnet\n * network, because a calling contract can request and access a resolved price request from this contract.\n * @dev The intended client of this contract is an OptimisticOracle on a non-Mainnet network that needs price\n * resolution secured by the DVM on Mainnet. If a registered contract, such as the OptimisticOracle, calls\n * `requestPrice()` on this contract, then it will call the network's Bridge contract to signal to an off-chain\n * relayer to bridge a price request to Mainnet.\n */\ncontract SinkOracle is BeaconOracle, OracleAncillaryInterface {\n    // Chain ID of the Source Oracle that will communicate this contract's price request to the DVM on Mainnet.\n    uint8 public destinationChainID;\n\n    /**\n     * @notice Constructor.\n     * @param _finderAddress Address of Finder that this contract uses to locate Bridge.\n     * @param _chainID Chain ID for this contract.\n     * @param _destinationChainID Chain ID for SourceOracle that will resolve price requests sent from this contract.\n     */\n    constructor(\n        address _finderAddress,\n        uint8 _chainID,\n        uint8 _destinationChainID\n    ) BeaconOracle(_finderAddress, _chainID) {\n        destinationChainID = _destinationChainID;\n    }\n\n    // This assumes that the local network has a Registry that resembles the Mainnet registry.\n    modifier onlyRegisteredContract() {\n        RegistryInterface registry = RegistryInterface(finder.getImplementationAddress(OracleInterfaces.Registry));\n        require(registry.isContractRegistered(msg.sender), \"Caller must be registered\");\n        _;\n    }\n\n    /***************************************************************\n     * Bridging a Price Request to L1:\n     ***************************************************************/\n\n    /**\n     * @notice This is the first method that should be called in order to bridge a price request to Mainnet.\n     * @dev Can be called only by a Registered contract that is allowed to make DVM price requests. Will mark this\n     * price request as Requested, and therefore able to receive the ultimate price resolution data, and also\n     * calls the local Bridge's deposit() method which will emit a Deposit event in order to signal to an off-chain\n     * relayer to begin the cross-chain process.\n     * @param identifier Identifier of price request.\n     * @param time Timestamp of price request.\n     * @param ancillaryData extra data of price request.\n     */\n    function requestPrice(\n        bytes32 identifier,\n        uint256 time,\n        bytes memory ancillaryData\n    ) public override onlyRegisteredContract() {\n        bytes32 priceRequestId = _encodePriceRequest(currentChainID, identifier, time, ancillaryData);\n        Price storage lookup = prices[priceRequestId];\n        if (lookup.state != RequestState.NeverRequested) {\n            // Clients expect that `requestPrice` does not revert if a price is already requested, so return gracefully.\n            return;\n        } else {\n            _requestPrice(currentChainID, identifier, time, ancillaryData);\n\n            // Initiate cross-chain price request, which should lead the `Bridge` to call `validateDeposit` on this\n            // contract.\n            _getBridge().deposit(\n                destinationChainID,\n                getResourceId(),\n                formatMetadata(currentChainID, identifier, time, ancillaryData)\n            );\n        }\n    }\n\n    /**\n     * @notice This method will ultimately be called after `requestPrice` calls `Bridge.deposit()`, which will call\n     * `GenericHandler.deposit()` and ultimately this method.\n     * @dev This method should basically check that the `Bridge.deposit()` was triggered by a valid price request,\n     * specifically one that has not resolved yet and was called by a registered contract. Without this check,\n     * `Bridge.deposit()` could be called by non-registered contracts to make price requests to the DVM.\n     * @param sinkChainID Chain ID for this contract.\n     * @param identifier Identifier of price request.\n     * @param time Timestamp of price request.\n     * @param ancillaryData extra data of price request.\n     */\n    function validateDeposit(\n        uint8 sinkChainID,\n        bytes32 identifier,\n        uint256 time,\n        bytes memory ancillaryData\n    ) public {\n        // Advance state so that directly calling Bridge.deposit will revert and not emit a duplicate `Deposit` event.\n        _finalizeRequest(sinkChainID, identifier, time, ancillaryData);\n    }\n\n    /***************************************************************\n     * Responding to Price Request Resolution from L1:\n     ***************************************************************/\n\n    /**\n     * @notice This method will ultimately be called after a `publishPrice` has been bridged cross-chain from Mainnet\n     * to this network via an off-chain relayer. The relayer will call `Bridge.executeProposal` on this local network,\n     * which call `GenericHandler.executeProposal()` and ultimately this method.\n     * @dev This method should publish the price data for a requested price request. If this method fails for some\n     * reason, then it means that the price was never requested. Can only be called by the `GenericHandler`.\n     * @param sinkChainID Chain ID for this contract.\n     * @param identifier Identifier of price request to resolve.\n     * @param time Timestamp of price request to resolve.\n     * @param ancillaryData extra data of price request to resolve.\n     * @param price Price to publish to this oracle.\n     */\n    function executePublishPrice(\n        uint8 sinkChainID,\n        bytes32 identifier,\n        uint256 time,\n        bytes memory ancillaryData,\n        int256 price\n    ) public onlyGenericHandlerContract() {\n        _publishPrice(sinkChainID, identifier, time, ancillaryData, price);\n        _finalizePublish(sinkChainID, identifier, time, ancillaryData);\n    }\n\n    /**\n     * @notice Returns whether a price has resolved for the request.\n     * @param identifier Identifier of price request.\n     * @param time Timestamp of price request\n     * @param ancillaryData extra data of price request.\n     * @return True if a price is available, False otherwise. If true, then getPrice will succeed for the request.\n     */\n    function hasPrice(\n        bytes32 identifier,\n        uint256 time,\n        bytes memory ancillaryData\n    ) public view override onlyRegisteredContract() returns (bool) {\n        bytes32 priceRequestId = _encodePriceRequest(currentChainID, identifier, time, ancillaryData);\n        return prices[priceRequestId].state == RequestState.Resolved;\n    }\n\n    /**\n     * @notice Returns resolved price for the request.\n     * @dev Reverts if price is not available.\n     * @param identifier Identifier of price request.\n     * @param time Timestamp of price request\n     * @param ancillaryData extra data of price request.\n     * @return int256 Price, or reverts if no resolved price for any reason.\n     */\n\n    function getPrice(\n        bytes32 identifier,\n        uint256 time,\n        bytes memory ancillaryData\n    ) public view override onlyRegisteredContract() returns (int256) {\n        bytes32 priceRequestId = _encodePriceRequest(currentChainID, identifier, time, ancillaryData);\n        Price storage lookup = prices[priceRequestId];\n        require(lookup.state == RequestState.Resolved, \"Price has not been resolved\");\n        return lookup.price;\n    }\n\n    /**\n     * @notice Convenience method to get cross-chain Bridge resource ID linking this contract with the SourceOracle.\n     * @dev More details about Resource ID's here: https://chainbridge.chainsafe.io/spec/#resource-id\n     * @return bytes32 Hash containing the chain ID of the SourceOracle.\n     */\n    function getResourceId() public view returns (bytes32) {\n        return keccak256(abi.encode(\"Oracle\", destinationChainID));\n    }\n\n    /**\n     * @notice This helper method is useful for calling Bridge.deposit().\n     * @dev GenericHandler.deposit() expects data to be formatted as:\n     *     len(data)                              uint256     bytes  0  - 32\n     *     data                                   bytes       bytes  32 - END\n     * @param chainID Chain ID for this contract.\n     * @param identifier Identifier of price request.\n     * @param time Timestamp of price request.\n     * @param ancillaryData extra data of price request.\n     * @return bytes Formatted metadata.\n     */\n    function formatMetadata(\n        uint8 chainID,\n        bytes32 identifier,\n        uint256 time,\n        bytes memory ancillaryData\n    ) public pure returns (bytes memory) {\n        bytes memory metadata = abi.encode(chainID, identifier, time, ancillaryData);\n        return abi.encodePacked(metadata.length, metadata);\n    }\n}\n",
  "sourcePath": "/home/circleci/protocol/packages/core/contracts/chainbridge/SinkOracle.sol",
  "compiler": {
    "name": "solc",
    "version": "0.8.4+commit.c7e474f2.Emscripten.clang"
  },
  "schemaVersion": "3.3.4",
  "updatedAt": "2021-07-16T20:27:09.457Z",
  "devdoc": {
    "details": "The intended client of this contract is an OptimisticOracle on a non-Mainnet network that needs price resolution secured by the DVM on Mainnet. If a registered contract, such as the OptimisticOracle, calls `requestPrice()` on this contract, then it will call the network's Bridge contract to signal to an off-chain relayer to bridge a price request to Mainnet.",
    "kind": "dev",
    "methods": {
      "constructor": {
        "params": {
          "_chainID": "Chain ID for this contract.",
          "_destinationChainID": "Chain ID for SourceOracle that will resolve price requests sent from this contract.",
          "_finderAddress": "Address of Finder that this contract uses to locate Bridge."
        }
      },
      "executePublishPrice(uint8,bytes32,uint256,bytes,int256)": {
        "details": "This method should publish the price data for a requested price request. If this method fails for some reason, then it means that the price was never requested. Can only be called by the `GenericHandler`.",
        "params": {
          "ancillaryData": "extra data of price request to resolve.",
          "identifier": "Identifier of price request to resolve.",
          "price": "Price to publish to this oracle.",
          "sinkChainID": "Chain ID for this contract.",
          "time": "Timestamp of price request to resolve."
        }
      },
      "formatMetadata(uint8,bytes32,uint256,bytes)": {
        "details": "GenericHandler.deposit() expects data to be formatted as:     len(data)                              uint256     bytes  0  - 32     data                                   bytes       bytes  32 - END",
        "params": {
          "ancillaryData": "extra data of price request.",
          "chainID": "Chain ID for this contract.",
          "identifier": "Identifier of price request.",
          "time": "Timestamp of price request."
        },
        "returns": {
          "_0": "bytes Formatted metadata."
        }
      },
      "getPrice(bytes32,uint256,bytes)": {
        "details": "Reverts if price is not available.",
        "params": {
          "ancillaryData": "extra data of price request.",
          "identifier": "Identifier of price request.",
          "time": "Timestamp of price request"
        },
        "returns": {
          "_0": "int256 Price, or reverts if no resolved price for any reason."
        }
      },
      "getResourceId()": {
        "details": "More details about Resource ID's here: https://chainbridge.chainsafe.io/spec/#resource-id",
        "returns": {
          "_0": "bytes32 Hash containing the chain ID of the SourceOracle."
        }
      },
      "hasPrice(bytes32,uint256,bytes)": {
        "params": {
          "ancillaryData": "extra data of price request.",
          "identifier": "Identifier of price request.",
          "time": "Timestamp of price request"
        },
        "returns": {
          "_0": "True if a price is available, False otherwise. If true, then getPrice will succeed for the request."
        }
      },
      "requestPrice(bytes32,uint256,bytes)": {
        "details": "Can be called only by a Registered contract that is allowed to make DVM price requests. Will mark this price request as Requested, and therefore able to receive the ultimate price resolution data, and also calls the local Bridge's deposit() method which will emit a Deposit event in order to signal to an off-chain relayer to begin the cross-chain process.",
        "params": {
          "ancillaryData": "extra data of price request.",
          "identifier": "Identifier of price request.",
          "time": "Timestamp of price request."
        }
      },
      "validateDeposit(uint8,bytes32,uint256,bytes)": {
        "details": "This method should basically check that the `Bridge.deposit()` was triggered by a valid price request, specifically one that has not resolved yet and was called by a registered contract. Without this check, `Bridge.deposit()` could be called by non-registered contracts to make price requests to the DVM.",
        "params": {
          "ancillaryData": "extra data of price request.",
          "identifier": "Identifier of price request.",
          "sinkChainID": "Chain ID for this contract.",
          "time": "Timestamp of price request."
        }
      }
    },
    "title": "Extension of BeaconOracle that is intended to be deployed on non-Mainnet networks to give financial contracts on those networks the ability to trigger cross-chain price requests to the Mainnet DVM. Also has the ability to receive published prices from Mainnet. This contract can be treated as the \"DVM\" for a non-Mainnet network, because a calling contract can request and access a resolved price request from this contract.",
    "version": 1
  },
  "userdoc": {
    "kind": "user",
    "methods": {
      "constructor": {
        "notice": "Constructor."
      },
      "executePublishPrice(uint8,bytes32,uint256,bytes,int256)": {
        "notice": "This method will ultimately be called after a `publishPrice` has been bridged cross-chain from Mainnet to this network via an off-chain relayer. The relayer will call `Bridge.executeProposal` on this local network, which call `GenericHandler.executeProposal()` and ultimately this method."
      },
      "formatMetadata(uint8,bytes32,uint256,bytes)": {
        "notice": "This helper method is useful for calling Bridge.deposit()."
      },
      "getPrice(bytes32,uint256,bytes)": {
        "notice": "Returns resolved price for the request."
      },
      "getResourceId()": {
        "notice": "Convenience method to get cross-chain Bridge resource ID linking this contract with the SourceOracle."
      },
      "hasPrice(bytes32,uint256,bytes)": {
        "notice": "Returns whether a price has resolved for the request."
      },
      "requestPrice(bytes32,uint256,bytes)": {
        "notice": "This is the first method that should be called in order to bridge a price request to Mainnet."
      },
      "validateDeposit(uint8,bytes32,uint256,bytes)": {
        "notice": "This method will ultimately be called after `requestPrice` calls `Bridge.deposit()`, which will call `GenericHandler.deposit()` and ultimately this method."
      }
    },
    "version": 1
  }
}