{
  "contractName": "SourceOracle",
  "abi": [
    {
      "inputs": [
        {
          "internalType": "address",
          "name": "_finderAddress",
          "type": "address"
        },
        {
          "internalType": "uint8",
          "name": "_chainID",
          "type": "uint8"
        }
      ],
      "stateMutability": "nonpayable",
      "type": "constructor"
    },
    {
      "anonymous": false,
      "inputs": [
        {
          "indexed": true,
          "internalType": "uint8",
          "name": "chainID",
          "type": "uint8"
        },
        {
          "indexed": true,
          "internalType": "bytes32",
          "name": "identifier",
          "type": "bytes32"
        },
        {
          "indexed": false,
          "internalType": "uint256",
          "name": "time",
          "type": "uint256"
        },
        {
          "indexed": false,
          "internalType": "bytes",
          "name": "ancillaryData",
          "type": "bytes"
        }
      ],
      "name": "PriceRequestAdded",
      "type": "event"
    },
    {
      "anonymous": false,
      "inputs": [
        {
          "indexed": true,
          "internalType": "uint8",
          "name": "chainID",
          "type": "uint8"
        },
        {
          "indexed": true,
          "internalType": "bytes32",
          "name": "identifier",
          "type": "bytes32"
        },
        {
          "indexed": false,
          "internalType": "uint256",
          "name": "time",
          "type": "uint256"
        },
        {
          "indexed": false,
          "internalType": "bytes",
          "name": "ancillaryData",
          "type": "bytes"
        },
        {
          "indexed": false,
          "internalType": "int256",
          "name": "price",
          "type": "int256"
        }
      ],
      "name": "PushedPrice",
      "type": "event"
    },
    {
      "inputs": [],
      "name": "currentChainID",
      "outputs": [
        {
          "internalType": "uint8",
          "name": "",
          "type": "uint8"
        }
      ],
      "stateMutability": "view",
      "type": "function"
    },
    {
      "inputs": [],
      "name": "finder",
      "outputs": [
        {
          "internalType": "contract FinderInterface",
          "name": "",
          "type": "address"
        }
      ],
      "stateMutability": "view",
      "type": "function"
    },
    {
      "inputs": [
        {
          "internalType": "uint8",
          "name": "sinkChainID",
          "type": "uint8"
        },
        {
          "internalType": "bytes32",
          "name": "identifier",
          "type": "bytes32"
        },
        {
          "internalType": "uint256",
          "name": "time",
          "type": "uint256"
        },
        {
          "internalType": "bytes",
          "name": "ancillaryData",
          "type": "bytes"
        }
      ],
      "name": "publishPrice",
      "outputs": [],
      "stateMutability": "nonpayable",
      "type": "function"
    },
    {
      "inputs": [
        {
          "internalType": "uint8",
          "name": "sinkChainID",
          "type": "uint8"
        },
        {
          "internalType": "bytes32",
          "name": "identifier",
          "type": "bytes32"
        },
        {
          "internalType": "uint256",
          "name": "time",
          "type": "uint256"
        },
        {
          "internalType": "bytes",
          "name": "ancillaryData",
          "type": "bytes"
        },
        {
          "internalType": "int256",
          "name": "price",
          "type": "int256"
        }
      ],
      "name": "validateDeposit",
      "outputs": [],
      "stateMutability": "nonpayable",
      "type": "function"
    },
    {
      "inputs": [
        {
          "internalType": "uint8",
          "name": "sinkChainID",
          "type": "uint8"
        },
        {
          "internalType": "bytes32",
          "name": "identifier",
          "type": "bytes32"
        },
        {
          "internalType": "uint256",
          "name": "time",
          "type": "uint256"
        },
        {
          "internalType": "bytes",
          "name": "ancillaryData",
          "type": "bytes"
        }
      ],
      "name": "executeRequestPrice",
      "outputs": [],
      "stateMutability": "nonpayable",
      "type": "function"
    },
    {
      "inputs": [],
      "name": "getResourceId",
      "outputs": [
        {
          "internalType": "bytes32",
          "name": "",
          "type": "bytes32"
        }
      ],
      "stateMutability": "view",
      "type": "function"
    },
    {
      "inputs": [
        {
          "internalType": "uint8",
          "name": "chainID",
          "type": "uint8"
        },
        {
          "internalType": "bytes32",
          "name": "identifier",
          "type": "bytes32"
        },
        {
          "internalType": "uint256",
          "name": "time",
          "type": "uint256"
        },
        {
          "internalType": "bytes",
          "name": "ancillaryData",
          "type": "bytes"
        },
        {
          "internalType": "int256",
          "name": "price",
          "type": "int256"
        }
      ],
      "name": "formatMetadata",
      "outputs": [
        {
          "internalType": "bytes",
          "name": "",
          "type": "bytes"
        }
      ],
      "stateMutability": "pure",
      "type": "function"
    }
  ],
  "bytecode": "0x608060405234801561001057600080fd5b50604051610e34380380610e3483398101604081905261002f91610068565b600280546001600160a01b0319166001600160a01b0393909316929092179091556000805460ff191660ff9092169190911790556100b1565b6000806040838503121561007a578182fd5b82516001600160a01b0381168114610090578283fd5b602084015190925060ff811681146100a6578182fd5b809150509250929050565b610d74806100c06000396000f3fe608060405234801561001057600080fd5b506004361061007d5760003560e01c80637c1b84811161005b5780637c1b8481146100d2578063b179e1e7146100e5578063b9a3c84c14610104578063f7b7ee7e1461012f57600080fd5b80633bf5e3b4146100825780634df7f73d1461009d5780636cbaef3e146100bd575b600080fd5b61008a610142565b6040519081526020015b60405180910390f35b6100b06100ab366004610b2c565b61018e565b6040516100949190610c0d565b6100d06100cb366004610acd565b6101eb565b005b6100d06100e0366004610b2c565b610363565b6000546100f29060ff1681565b60405160ff9091168152602001610094565b600254610117906001600160a01b031681565b6040516001600160a01b039091168152602001610094565b6100d061013d366004610acd565b6103ed565b60008054604080516020810182905260066060820152654f7261636c6560d01b608082015260ff9092169082015260a00160405160208183030381529060405280519060200120905090565b6060600086868686866040516020016101ab959493929190610cbe565b60405160208183030381529060405290508051816040516020016101d0929190610bbf565b60405160208183030381529060405291505095945050505050565b6002546040516302abf57960e61b81526d23b2b732b934b1a430b7323632b960911b60048201526001600160a01b039091169063aafd5e409060240160206040518083038186803b15801561023f57600080fd5b505afa158015610253573d6000803e3d6000fd5b505050506040513d601f19601f820116820180604052508101906102779190610a67565b6001600160a01b0316336001600160a01b0316146102dc5760405162461bcd60e51b815260206004820152601d60248201527f43616c6c6572206d7573742062652047656e6572696348616e646c657200000060448201526064015b60405180910390fd5b6102e8848484846105db565b6102f484848484610679565b6102fc610728565b6001600160a01b031663216666a48484846040518463ffffffff1660e01b815260040161032b93929190610be5565b600060405180830381600087803b15801561034557600080fd5b505af1158015610359573d6000803e3d6000fd5b5050505050505050565b6000610371868686866107b3565b6000818152600160208190526040909120908101549192509083146103d85760405162461bcd60e51b815260206004820152601a60248201527f556e6578706563746564207072696365207075626c697368656400000000000060448201526064016102d3565b6103e4878787876107ec565b50505050505050565b6103f5610728565b6001600160a01b031663b551cd508484846040518463ffffffff1660e01b815260040161042493929190610be5565b60206040518083038186803b15801561043c57600080fd5b505afa158015610450573d6000803e3d6000fd5b505050506040513d601f19601f820116820180604052508101906104749190610a95565b6104c05760405162461bcd60e51b815260206004820152601a60248201527f44564d20686173206e6f74207265736f6c76656420707269636500000000000060448201526064016102d3565b60006104ca610728565b6001600160a01b031663719c6d568585856040518463ffffffff1660e01b81526004016104f993929190610be5565b60206040518083038186803b15801561051157600080fd5b505afa158015610525573d6000803e3d6000fd5b505050506040513d601f19601f820116820180604052508101906105499190610ab5565b90506105588585858585610891565b610560610990565b6001600160a01b03166305e2ca1786610577610142565b610584898989898961018e565b6040518463ffffffff1660e01b81526004016105a293929190610c6a565b600060405180830381600087803b1580156105bc57600080fd5b505af11580156105d0573d6000803e3d6000fd5b505050505050505050565b60006105e9858585856107b3565b6000818152600160205260408120919250815460ff16600481111561061e57634e487b7160e01b600052602160045260246000fd5b141561067157805460ff19166001178155604051859060ff8816907f73a67cb84132a2f461ed3c04c189c0b36d084058f1776b565164aad656c13653906106689088908890610c20565b60405180910390a35b505050505050565b6000610687858585856107b3565b6000818152600160208190526040909120919250815460ff1660048111156106bf57634e487b7160e01b600052602160045260246000fd5b1461070c5760405162461bcd60e51b815260206004820152601c60248201527f507269636520686173206e6f74206265656e207265717565737465640000000060448201526064016102d3565b8054600290829060ff19166001835b0217905550505050505050565b6002546040516302abf57960e61b8152654f7261636c6560d01b60048201526000916001600160a01b03169063aafd5e40906024015b60206040518083038186803b15801561077657600080fd5b505afa15801561078a573d6000803e3d6000fd5b505050506040513d601f19601f820116820180604052508101906107ae9190610a67565b905090565b6000848484846040516020016107cc9493929190610c8c565b604051602081830303815290604052805190602001209050949350505050565b60006107fa858585856107b3565b60008181526001602052604090209091506003815460ff16600481111561083157634e487b7160e01b600052602160045260246000fd5b1461087e5760405162461bcd60e51b815260206004820152601c60248201527f507269636520686173206e6f74206265656e207075626c69736865640000000060448201526064016102d3565b8054600490829060ff191660018361071b565b600061089f868686866107b3565b60008181526001602052604090209091506002815460ff1660048111156108d657634e487b7160e01b600052602160045260246000fd5b146109325760405162461bcd60e51b815260206004820152602660248201527f50726963652072657175657374206973206e6f742063757272656e746c792070604482015265656e64696e6760d01b60648201526084016102d3565b60018101839055805460ff19166003178155604051869060ff8916907ffee3c549ded1d140e76f82727129b254f5d19815ec4c4dbfe2199145bf72b3359061097f90899089908990610c41565b60405180910390a350505050505050565b6002546040516302abf57960e61b81526542726964676560d01b60048201526000916001600160a01b03169063aafd5e409060240161075e565b600082601f8301126109da578081fd5b813567ffffffffffffffff808211156109f5576109f5610d28565b604051601f8301601f19908116603f01168101908282118183101715610a1d57610a1d610d28565b81604052838152866020858801011115610a35578485fd5b8360208701602083013792830160200193909352509392505050565b803560ff81168114610a6257600080fd5b919050565b600060208284031215610a78578081fd5b81516001600160a01b0381168114610a8e578182fd5b9392505050565b600060208284031215610aa6578081fd5b81518015158114610a8e578182fd5b600060208284031215610ac6578081fd5b5051919050565b60008060008060808587031215610ae2578283fd5b610aeb85610a51565b93506020850135925060408501359150606085013567ffffffffffffffff811115610b14578182fd5b610b20878288016109ca565b91505092959194509250565b600080600080600060a08688031215610b43578081fd5b610b4c86610a51565b94506020860135935060408601359250606086013567ffffffffffffffff811115610b75578182fd5b610b81888289016109ca565b95989497509295608001359392505050565b60008151808452610bab816020860160208601610cf8565b601f01601f19169290920160200192915050565b82815260008251610bd7816020850160208701610cf8565b919091016020019392505050565b838152826020820152606060408201526000610c046060830184610b93565b95945050505050565b602081526000610a8e6020830184610b93565b828152604060208201526000610c396040830184610b93565b949350505050565b838152606060208201526000610c5a6060830185610b93565b9050826040830152949350505050565b60ff84168152826020820152606060408201526000610c046060830184610b93565b60ff85168152836020820152826040820152608060608201526000610cb46080830184610b93565b9695505050505050565b60ff8616815284602082015283604082015260a060608201526000610ce660a0830185610b93565b90508260808301529695505050505050565b60005b83811015610d13578181015183820152602001610cfb565b83811115610d22576000848401525b50505050565b634e487b7160e01b600052604160045260246000fdfea2646970667358221220efcf61d83d74f457b5433ade71fa59b551fa8859c9fd85443573ba4fcc31f3a464736f6c63430008040033",
  "immutableReferences": {},
  "source": "// SPDX-License-Identifier: AGPL-3.0-only\npragma solidity ^0.8.0;\n\nimport \"./BeaconOracle.sol\";\nimport \"../oracle/interfaces/OracleAncillaryInterface.sol\";\n\n/**\n * @title Extension of BeaconOracle that is intended to be deployed on Mainnet to give financial\n * contracts on non-Mainnet networks the ability to trigger cross-chain price requests to the Mainnet DVM. This contract\n * is responsible for triggering price requests originating from non-Mainnet, and broadcasting resolved price data\n * back to those networks. Technically, this contract is more of a Proxy than an Oracle, because it does not implement\n * the full Oracle interface including the getPrice and requestPrice methods. It's goal is to shuttle price request\n * functionality between L2 and L1.\n * @dev The intended client of this contract is some off-chain bot watching for resolved price events on the DVM. Once\n * that bot sees a price has resolved, it can call `publishPrice()` on this contract which will call the local Bridge\n * contract to signal to an off-chain relayer to bridge a price request to another network.\n * @dev This contract must be a registered financial contract in order to call DVM methods.\n */\ncontract SourceOracle is BeaconOracle {\n    /**\n     * @notice Constructor.\n     * @param _finderAddress Address of Finder that this contract uses to locate Bridge.\n     * @param _chainID Chain ID for this contract. This is configurable by the deployer, rather than\n     * automatically detected via `block.chainid` because the type of `currentChainId` should match any\n     * `sinkChainId`'s submitted as input to `publishPrice()`. `publishPrice()` calls `Bridge.deposit()`\n     * which expects a uint8 chainID passed as the first param, but `block.chainid` returns a uint256 value. Due to\n     * the possibility that a uint256 --> uint28 conversion leads to data loss and the complexity of mapping safely\n     * from uint256 --> uint8 on-chain, we opt to allow the user to specify a unique uint8 ID for this chain. It\n     * follows that the `_chainID` may not match with `block.chainid`.\n     */\n    constructor(address _finderAddress, uint8 _chainID) BeaconOracle(_finderAddress, _chainID) {}\n\n    /***************************************************************\n     * Publishing Price Request Data to L2:\n     ***************************************************************/\n\n    /**\n     * @notice This is the first method that should be called in order to publish a price request to another network\n     * marked by `sinkChainID`.\n     * @dev Publishes the DVM resolved price for the price request, or reverts if not resolved yet. Will call the\n     * local Bridge's deposit() method which will emit a Deposit event in order to signal to an off-chain\n     * relayer to begin the cross-chain process.\n     * @param sinkChainID Chain ID of SinkOracle that this price should ultimately be sent to.\n     * @param identifier Identifier of price request to resolve.\n     * @param time Timestamp of price request to resolve.\n     * @param ancillaryData extra data of price request to resolve.\n     */\n    function publishPrice(\n        uint8 sinkChainID,\n        bytes32 identifier,\n        uint256 time,\n        bytes memory ancillaryData\n    ) public {\n        require(_getOracle().hasPrice(identifier, time, ancillaryData), \"DVM has not resolved price\");\n        int256 price = _getOracle().getPrice(identifier, time, ancillaryData);\n        _publishPrice(sinkChainID, identifier, time, ancillaryData, price);\n\n        // Initiate cross-chain price request, which should lead the `Bridge` to call `validateDeposit` on this\n        // contract.\n        _getBridge().deposit(\n            sinkChainID,\n            getResourceId(),\n            formatMetadata(sinkChainID, identifier, time, ancillaryData, price)\n        );\n    }\n\n    /**\n     * @notice This method will ultimately be called after `publishPrice` calls `Bridge.deposit()`, which will call\n     * `GenericHandler.deposit()` and ultimately this method.\n     * @dev This method should basically check that the `Bridge.deposit()` was triggered by a valid publish event.\n     * @param sinkChainID Chain ID of SinkOracle that this price should ultimately be sent to.\n     * @param identifier Identifier of price request to resolve.\n     * @param time Timestamp of price request to resolve.\n     * @param ancillaryData extra data of price request to resolve.\n     * @param price Price resolved on DVM to send to SinkOracle.\n     */\n    function validateDeposit(\n        uint8 sinkChainID,\n        bytes32 identifier,\n        uint256 time,\n        bytes memory ancillaryData,\n        int256 price\n    ) public {\n        bytes32 priceRequestId = _encodePriceRequest(sinkChainID, identifier, time, ancillaryData);\n        Price storage lookup = prices[priceRequestId];\n        require(lookup.price == price, \"Unexpected price published\");\n        // Advance state so that directly calling Bridge.deposit will revert and not emit a duplicate `Deposit` event.\n        _finalizePublish(sinkChainID, identifier, time, ancillaryData);\n    }\n\n    /***************************************************************\n     * Responding to a Price Request from L2:\n     ***************************************************************/\n\n    /**\n     * @notice This method will ultimately be called after a `requestPrice` has been bridged cross-chain from\n     * non-Mainnet to this network via an off-chain relayer. The relayer will call `Bridge.executeProposal` on this\n     * local network, which call `GenericHandler.executeProposal()` and ultimately this method.\n     * @dev This method should prepare this oracle to receive a published price and then forward the price request\n     * to the DVM. Can only be called by the `GenericHandler`.\n     * @param sinkChainID Chain ID of SinkOracle that originally sent price request.\n     * @param identifier Identifier of price request.\n     * @param time Timestamp of price request.\n     * @param ancillaryData extra data of price request.\n     */\n\n    function executeRequestPrice(\n        uint8 sinkChainID,\n        bytes32 identifier,\n        uint256 time,\n        bytes memory ancillaryData\n    ) public onlyGenericHandlerContract() {\n        _requestPrice(sinkChainID, identifier, time, ancillaryData);\n        _finalizeRequest(sinkChainID, identifier, time, ancillaryData);\n        _getOracle().requestPrice(identifier, time, ancillaryData);\n    }\n\n    /**\n     * @notice Convenience method to get cross-chain Bridge resource ID linking this contract with its SinkOracles.\n     * @dev More details about Resource ID's here: https://chainbridge.chainsafe.io/spec/#resource-id\n     * @return bytes32 Hash containing this stored chain ID.\n     */\n    function getResourceId() public view returns (bytes32) {\n        return keccak256(abi.encode(\"Oracle\", currentChainID));\n    }\n\n    /**\n     * @notice Return DVM for this network.\n     */\n    function _getOracle() internal view returns (OracleAncillaryInterface) {\n        return OracleAncillaryInterface(finder.getImplementationAddress(OracleInterfaces.Oracle));\n    }\n\n    /**\n     * @notice This helper method is useful for shaping metadata that is passed into Bridge.deposit() that will\n     * ultimately be used to publish a price on the SinkOracle.\n     * @dev GenericHandler.deposit() expects data to be formatted as:\n     *     len(data)                              uint256     bytes  0  - 32\n     *     data                                   bytes       bytes  32 - END\n     * @param chainID Chain ID of SinkOracle to publish price to.\n     * @param identifier Identifier of price request to publish.\n     * @param time Timestamp of price request to publish.\n     * @param ancillaryData extra data of price request to publish.\n     * @return bytes Formatted metadata.\n     */\n    function formatMetadata(\n        uint8 chainID,\n        bytes32 identifier,\n        uint256 time,\n        bytes memory ancillaryData,\n        int256 price\n    ) public pure returns (bytes memory) {\n        bytes memory metadata = abi.encode(chainID, identifier, time, ancillaryData, price);\n        return abi.encodePacked(metadata.length, metadata);\n    }\n}\n",
  "sourcePath": "/home/circleci/protocol/packages/core/contracts/chainbridge/SourceOracle.sol",
  "compiler": {
    "name": "solc",
    "version": "0.8.4+commit.c7e474f2.Emscripten.clang"
  },
  "schemaVersion": "3.3.4",
  "updatedAt": "2021-07-16T20:27:09.472Z",
  "devdoc": {
    "details": "The intended client of this contract is some off-chain bot watching for resolved price events on the DVM. Once that bot sees a price has resolved, it can call `publishPrice()` on this contract which will call the local Bridge contract to signal to an off-chain relayer to bridge a price request to another network.This contract must be a registered financial contract in order to call DVM methods.",
    "kind": "dev",
    "methods": {
      "constructor": {
        "params": {
          "_chainID": "Chain ID for this contract. This is configurable by the deployer, rather than automatically detected via `block.chainid` because the type of `currentChainId` should match any `sinkChainId`'s submitted as input to `publishPrice()`. `publishPrice()` calls `Bridge.deposit()` which expects a uint8 chainID passed as the first param, but `block.chainid` returns a uint256 value. Due to the possibility that a uint256 --> uint28 conversion leads to data loss and the complexity of mapping safely from uint256 --> uint8 on-chain, we opt to allow the user to specify a unique uint8 ID for this chain. It follows that the `_chainID` may not match with `block.chainid`.",
          "_finderAddress": "Address of Finder that this contract uses to locate Bridge."
        }
      },
      "executeRequestPrice(uint8,bytes32,uint256,bytes)": {
        "details": "This method should prepare this oracle to receive a published price and then forward the price request to the DVM. Can only be called by the `GenericHandler`.",
        "params": {
          "ancillaryData": "extra data of price request.",
          "identifier": "Identifier of price request.",
          "sinkChainID": "Chain ID of SinkOracle that originally sent price request.",
          "time": "Timestamp of price request."
        }
      },
      "formatMetadata(uint8,bytes32,uint256,bytes,int256)": {
        "details": "GenericHandler.deposit() expects data to be formatted as:     len(data)                              uint256     bytes  0  - 32     data                                   bytes       bytes  32 - END",
        "params": {
          "ancillaryData": "extra data of price request to publish.",
          "chainID": "Chain ID of SinkOracle to publish price to.",
          "identifier": "Identifier of price request to publish.",
          "time": "Timestamp of price request to publish."
        },
        "returns": {
          "_0": "bytes Formatted metadata."
        }
      },
      "getResourceId()": {
        "details": "More details about Resource ID's here: https://chainbridge.chainsafe.io/spec/#resource-id",
        "returns": {
          "_0": "bytes32 Hash containing this stored chain ID."
        }
      },
      "publishPrice(uint8,bytes32,uint256,bytes)": {
        "details": "Publishes the DVM resolved price for the price request, or reverts if not resolved yet. Will call the local Bridge's deposit() method which will emit a Deposit event in order to signal to an off-chain relayer to begin the cross-chain process.",
        "params": {
          "ancillaryData": "extra data of price request to resolve.",
          "identifier": "Identifier of price request to resolve.",
          "sinkChainID": "Chain ID of SinkOracle that this price should ultimately be sent to.",
          "time": "Timestamp of price request to resolve."
        }
      },
      "validateDeposit(uint8,bytes32,uint256,bytes,int256)": {
        "details": "This method should basically check that the `Bridge.deposit()` was triggered by a valid publish event.",
        "params": {
          "ancillaryData": "extra data of price request to resolve.",
          "identifier": "Identifier of price request to resolve.",
          "price": "Price resolved on DVM to send to SinkOracle.",
          "sinkChainID": "Chain ID of SinkOracle that this price should ultimately be sent to.",
          "time": "Timestamp of price request to resolve."
        }
      }
    },
    "title": "Extension of BeaconOracle that is intended to be deployed on Mainnet to give financial contracts on non-Mainnet networks the ability to trigger cross-chain price requests to the Mainnet DVM. This contract is responsible for triggering price requests originating from non-Mainnet, and broadcasting resolved price data back to those networks. Technically, this contract is more of a Proxy than an Oracle, because it does not implement the full Oracle interface including the getPrice and requestPrice methods. It's goal is to shuttle price request functionality between L2 and L1.",
    "version": 1
  },
  "userdoc": {
    "kind": "user",
    "methods": {
      "constructor": {
        "notice": "Constructor."
      },
      "executeRequestPrice(uint8,bytes32,uint256,bytes)": {
        "notice": "This method will ultimately be called after a `requestPrice` has been bridged cross-chain from non-Mainnet to this network via an off-chain relayer. The relayer will call `Bridge.executeProposal` on this local network, which call `GenericHandler.executeProposal()` and ultimately this method."
      },
      "formatMetadata(uint8,bytes32,uint256,bytes,int256)": {
        "notice": "This helper method is useful for shaping metadata that is passed into Bridge.deposit() that will ultimately be used to publish a price on the SinkOracle."
      },
      "getResourceId()": {
        "notice": "Convenience method to get cross-chain Bridge resource ID linking this contract with its SinkOracles."
      },
      "publishPrice(uint8,bytes32,uint256,bytes)": {
        "notice": "This is the first method that should be called in order to publish a price request to another network marked by `sinkChainID`."
      },
      "validateDeposit(uint8,bytes32,uint256,bytes,int256)": {
        "notice": "This method will ultimately be called after `publishPrice` calls `Bridge.deposit()`, which will call `GenericHandler.deposit()` and ultimately this method."
      }
    },
    "version": 1
  }
}