{
  "contractName": "StateSyncMock",
  "abi": [
    {
      "anonymous": false,
      "inputs": [
        {
          "indexed": true,
          "internalType": "uint256",
          "name": "id",
          "type": "uint256"
        },
        {
          "indexed": true,
          "internalType": "address",
          "name": "contractAddress",
          "type": "address"
        },
        {
          "indexed": false,
          "internalType": "bytes",
          "name": "data",
          "type": "bytes"
        }
      ],
      "name": "StateSynced",
      "type": "event"
    },
    {
      "inputs": [
        {
          "internalType": "address",
          "name": "receiver",
          "type": "address"
        },
        {
          "internalType": "bytes",
          "name": "data",
          "type": "bytes"
        }
      ],
      "name": "syncState",
      "outputs": [],
      "stateMutability": "nonpayable",
      "type": "function"
    }
  ],
  "bytecode": "0x608060405234801561001057600080fd5b5061017f806100206000396000f3fe608060405234801561001057600080fd5b506004361061002b5760003560e01c806316f1983114610030575b600080fd5b61004361003e36600461008f565b610045565b005b826001600160a01b031660017f103fed9db65eac19c4d870f49ab7520fe03b99f1838e5996caf47e9e43308392848460405161008292919061011a565b60405180910390a3505050565b6000806000604084860312156100a3578283fd5b83356001600160a01b03811681146100b9578384fd5b9250602084013567ffffffffffffffff808211156100d5578384fd5b818601915086601f8301126100e8578384fd5b8135818111156100f6578485fd5b876020828501011115610107578485fd5b6020830194508093505050509250925092565b60208152816020820152818360408301376000818301604090810191909152601f909201601f1916010191905056fea2646970667358221220d27bb59dcab3d549c48744b345745684f5b976f5a5958e6be88ca7eff911468a64736f6c63430008040033",
  "immutableReferences": {},
  "source": "// SPDX-License-Identifier: MIT\npragma solidity ^0.8.0;\n\n/**\n * @notice Dummy State Sender contract to simulate plasma state sender while testing\n */\ncontract StateSyncMock {\n    /**\n     * @notice Event emitted when when syncState is called\n     * @dev Heimdall bridge listens to this event and sends the data to receiver contract on child chain\n     * @param id Id of the sync, increamented for each event in case of actual state sender contract\n     * @param contractAddress the contract receiving data on child chain\n     * @param data bytes data to be sent\n     */\n    event StateSynced(uint256 indexed id, address indexed contractAddress, bytes data);\n\n    /**\n     * @notice called to send data to child chain\n     * @dev sender and receiver contracts need to be registered in case of actual state sender contract\n     * @param receiver the contract receiving data on child chain\n     * @param data bytes data to be sent\n     */\n    function syncState(address receiver, bytes calldata data) external {\n        emit StateSynced(1, receiver, data);\n    }\n}\n",
  "sourcePath": "/home/circleci/protocol/packages/core/contracts/external/polygon/test/StateSyncMock.sol",
  "compiler": {
    "name": "solc",
    "version": "0.8.4+commit.c7e474f2.Emscripten.clang"
  },
  "schemaVersion": "3.3.4",
  "updatedAt": "2021-07-16T20:27:09.705Z",
  "devdoc": {
    "events": {
      "StateSynced(uint256,address,bytes)": {
        "details": "Heimdall bridge listens to this event and sends the data to receiver contract on child chain",
        "params": {
          "contractAddress": "the contract receiving data on child chain",
          "data": "bytes data to be sent",
          "id": "Id of the sync, increamented for each event in case of actual state sender contract"
        }
      }
    },
    "kind": "dev",
    "methods": {
      "syncState(address,bytes)": {
        "details": "sender and receiver contracts need to be registered in case of actual state sender contract",
        "params": {
          "data": "bytes data to be sent",
          "receiver": "the contract receiving data on child chain"
        }
      }
    },
    "version": 1
  },
  "userdoc": {
    "events": {
      "StateSynced(uint256,address,bytes)": {
        "notice": "Event emitted when when syncState is called"
      }
    },
    "kind": "user",
    "methods": {
      "syncState(address,bytes)": {
        "notice": "called to send data to child chain"
      }
    },
    "notice": "Dummy State Sender contract to simulate plasma state sender while testing",
    "version": 1
  }
}