{
  "contractName": "StructuredNoteFinancialProductLibrary",
  "abi": [
    {
      "anonymous": false,
      "inputs": [
        {
          "indexed": true,
          "internalType": "address",
          "name": "previousOwner",
          "type": "address"
        },
        {
          "indexed": true,
          "internalType": "address",
          "name": "newOwner",
          "type": "address"
        }
      ],
      "name": "OwnershipTransferred",
      "type": "event"
    },
    {
      "inputs": [],
      "name": "owner",
      "outputs": [
        {
          "internalType": "address",
          "name": "",
          "type": "address"
        }
      ],
      "stateMutability": "view",
      "type": "function"
    },
    {
      "inputs": [],
      "name": "renounceOwnership",
      "outputs": [],
      "stateMutability": "nonpayable",
      "type": "function"
    },
    {
      "inputs": [
        {
          "internalType": "address",
          "name": "newOwner",
          "type": "address"
        }
      ],
      "name": "transferOwnership",
      "outputs": [],
      "stateMutability": "nonpayable",
      "type": "function"
    },
    {
      "inputs": [
        {
          "internalType": "bytes32",
          "name": "priceIdentifier",
          "type": "bytes32"
        },
        {
          "internalType": "uint256",
          "name": "requestTime",
          "type": "uint256"
        }
      ],
      "name": "transformPriceIdentifier",
      "outputs": [
        {
          "internalType": "bytes32",
          "name": "",
          "type": "bytes32"
        }
      ],
      "stateMutability": "view",
      "type": "function"
    },
    {
      "inputs": [
        {
          "internalType": "address",
          "name": "financialProduct",
          "type": "address"
        },
        {
          "components": [
            {
              "internalType": "uint256",
              "name": "rawValue",
              "type": "uint256"
            }
          ],
          "internalType": "struct FixedPoint.Unsigned",
          "name": "strikePrice",
          "type": "tuple"
        }
      ],
      "name": "setFinancialProductStrike",
      "outputs": [],
      "stateMutability": "nonpayable",
      "type": "function"
    },
    {
      "inputs": [
        {
          "internalType": "address",
          "name": "financialProduct",
          "type": "address"
        }
      ],
      "name": "getStrikeForFinancialProduct",
      "outputs": [
        {
          "components": [
            {
              "internalType": "uint256",
              "name": "rawValue",
              "type": "uint256"
            }
          ],
          "internalType": "struct FixedPoint.Unsigned",
          "name": "",
          "type": "tuple"
        }
      ],
      "stateMutability": "view",
      "type": "function"
    },
    {
      "inputs": [
        {
          "components": [
            {
              "internalType": "uint256",
              "name": "rawValue",
              "type": "uint256"
            }
          ],
          "internalType": "struct FixedPoint.Unsigned",
          "name": "oraclePrice",
          "type": "tuple"
        },
        {
          "internalType": "uint256",
          "name": "requestTime",
          "type": "uint256"
        }
      ],
      "name": "transformPrice",
      "outputs": [
        {
          "components": [
            {
              "internalType": "uint256",
              "name": "rawValue",
              "type": "uint256"
            }
          ],
          "internalType": "struct FixedPoint.Unsigned",
          "name": "",
          "type": "tuple"
        }
      ],
      "stateMutability": "view",
      "type": "function"
    },
    {
      "inputs": [
        {
          "components": [
            {
              "internalType": "uint256",
              "name": "rawValue",
              "type": "uint256"
            }
          ],
          "internalType": "struct FixedPoint.Unsigned",
          "name": "oraclePrice",
          "type": "tuple"
        },
        {
          "components": [
            {
              "internalType": "uint256",
              "name": "rawValue",
              "type": "uint256"
            }
          ],
          "internalType": "struct FixedPoint.Unsigned",
          "name": "collateralRequirement",
          "type": "tuple"
        }
      ],
      "name": "transformCollateralRequirement",
      "outputs": [
        {
          "components": [
            {
              "internalType": "uint256",
              "name": "rawValue",
              "type": "uint256"
            }
          ],
          "internalType": "struct FixedPoint.Unsigned",
          "name": "",
          "type": "tuple"
        }
      ],
      "stateMutability": "view",
      "type": "function"
    }
  ],
  "bytecode": "0x608060405234801561001057600080fd5b50600080546001600160a01b031916339081178255604051909182917f8be0079c531659141344cd1fd0a4f28419497f9722a3daafe3b4186f6b6457e0908290a3506000805460ff60a01b1916600160a01b1790556109f9806100746000396000f3fe608060405234801561001057600080fd5b50600436106100885760003560e01c80638da5cb5b1161005b5780638da5cb5b146100e4578063a94ec3b0146100ff578063f19371b714610112578063f2fde38b1461013257600080fd5b80630ff49b901461008d5780632a312637146100b45780633a0acab5146100c7578063715018a6146100da575b600080fd5b6100a061009b366004610901565b610145565b604051905181526020015b60405180910390f35b6100a06100c23660046108e5565b61027b565b6100a06100d5366004610877565b610325565b6100e261036b565b005b6000546040516001600160a01b0390911681526020016100ab565b6100e261010d366004610891565b6103df565b6101246101203660046108c4565b5090565b6040519081526020016100ab565b6100e2610140366004610877565b6105ca565b60408051602081019091526000815261015c6106b4565b33600090815260016020908152604080832081519283019091525481529061018590829061070f565b6101cd5760405162461bcd60e51b815260206004820152601460248201527343616c6c657220686173206e6f20737472696b6560601b60448201526064015b60405180910390fd5b336001600160a01b0316639f43ddd26040518163ffffffff1660e01b815260040160206040518083038186803b15801561020657600080fd5b505afa15801561021a573d6000803e3d6000fd5b505050506040513d601f19601f8201168201806040525081019061023e919061092b565b8310156102575761024f6001610726565b915050610275565b80518451101561026b5761024f6001610726565b61024f818561075b565b92915050565b6040805160208101909152600081526102926106b4565b3360009081526001602090815260408083208151928301909152548152906102bb90829061070f565b6102fe5760405162461bcd60e51b815260206004820152601460248201527343616c6c657220686173206e6f20737472696b6560601b60448201526064016101c4565b8051845110156103115782915050610275565b61024f61031e828661075b565b84906107a0565b60408051602081019091526000815261033c6106b4565b506001600160a01b0381166000908152600160209081526040918290208251918201909252905481525b919050565b6000546001600160a01b031633146103955760405162461bcd60e51b81526004016101c490610943565b600080546040516001600160a01b03909116907f8be0079c531659141344cd1fd0a4f28419497f9722a3daafe3b4186f6b6457e0908390a3600080546001600160a01b0319169055565b6000546001600160a01b031633146104095760405162461bcd60e51b81526004016101c490610943565b6104116106b4565b6104236000805460ff60a01b19169055565b61042e81600061070f565b61046e5760405162461bcd60e51b815260206004820152601160248201527043616e7420736574203020737472696b6560781b60448201526064016101c4565b6001600160a01b0382166000908152600160209081526040808320815192830190915254815261049d916107dd565b6104de5760405162461bcd60e51b815260206004820152601260248201527114dd1c9a5ad948185b1c9958591e481cd95d60721b60448201526064016101c4565b816001600160a01b0316639f43ddd26040518163ffffffff1660e01b815260040160206040518083038186803b15801561051757600080fd5b505afa15801561052b573d6000803e3d6000fd5b505050506040513d601f19601f8201168201806040525081019061054f919061092b565b6105925760405162461bcd60e51b8152602060048201526014602482015273125b9d985b1a59081153540818dbdb9d1c9858dd60621b60448201526064016101c4565b6001600160a01b0382166000908152600160205260409020815190556105c66000805460ff60a01b1916600160a01b179055565b5050565b6000546001600160a01b031633146105f45760405162461bcd60e51b81526004016101c490610943565b6001600160a01b0381166106595760405162461bcd60e51b815260206004820152602660248201527f4f776e61626c653a206e6577206f776e657220697320746865207a65726f206160448201526564647265737360d01b60648201526084016101c4565b600080546040516001600160a01b03808516939216917f8be0079c531659141344cd1fd0a4f28419497f9722a3daafe3b4186f6b6457e091a3600080546001600160a01b0319166001600160a01b0392909216919091179055565b600054600160a01b900460ff1661070d5760405162461bcd60e51b815260206004820152601f60248201527f5265656e7472616e637947756172643a207265656e7472616e742063616c6c0060448201526064016101c4565b565b600061071a82610726565b51835111905092915050565b60408051602081019091526000815260408051602081019091528061075384670de0b6b3a76400006107f4565b905292915050565b60408051602081019091526000815260408051602081019091528251845182916107979161079190670de0b6b3a76400006107f4565b90610807565b90529392505050565b6040805160208101909152600081526040805160208101909152825184518291670de0b6b3a7640000916107d3916107f4565b6107979190610978565b60006107e882610726565b51835114905092915050565b60006108008284610998565b9392505050565b60006108008284610978565b80356001600160a01b038116811461036657600080fd5b60006020828403121561083b578081fd5b6040516020810181811067ffffffffffffffff8211171561086a57634e487b7160e01b83526041600452602483fd5b6040529135825250919050565b600060208284031215610888578081fd5b61080082610813565b600080604083850312156108a3578081fd5b6108ac83610813565b91506108bb846020850161082a565b90509250929050565b600080604083850312156108d6578182fd5b50508035926020909101359150565b600080604083850312156108f7578182fd5b6108ac848461082a565b60008060408385031215610913578182fd5b61091d848461082a565b946020939093013593505050565b60006020828403121561093c578081fd5b5051919050565b6020808252818101527f4f776e61626c653a2063616c6c6572206973206e6f7420746865206f776e6572604082015260600190565b60008261099357634e487b7160e01b81526012600452602481fd5b500490565b60008160001904831182151516156109be57634e487b7160e01b81526011600452602481fd5b50029056fea2646970667358221220471bd1de71fb8062d5a3d320e0bd8f36b0814fa597e006091993a06da8873ba664736f6c63430008040033",
  "immutableReferences": {},
  "source": "// SPDX-License-Identifier: AGPL-3.0-only\npragma solidity ^0.8.0;\nimport \"./FinancialProductLibrary.sol\";\nimport \"@openzeppelin/contracts/access/Ownable.sol\";\nimport \"../../../../common/implementation/Lockable.sol\";\n\n/**\n * @title Structured Note Financial Product Library\n * @notice Adds custom price transformation logic to modify the behavior of the expiring multi party contract. The\n * contract holds say 1 WETH in collateral and pays out that 1 WETH if, at expiry, ETHUSD is below a set strike. If\n * ETHUSD is above that strike, the contract pays out a given dollar amount of ETH.\n * Example: expiry is DEC 31. Strike is $400. Each token is backed by 1 WETH\n * If ETHUSD < $400 at expiry, token is redeemed for 1 ETH.\n * If ETHUSD >= $400 at expiry, token is redeemed for $400 worth of ETH, as determined by the DVM.\n */\ncontract StructuredNoteFinancialProductLibrary is FinancialProductLibrary, Ownable, Lockable {\n    using FixedPoint for FixedPoint.Unsigned;\n\n    mapping(address => FixedPoint.Unsigned) financialProductStrikes;\n\n    /**\n     * @notice Enables the deployer of the library to set the strike price for an associated financial product.\n     * @param financialProduct address of the financial product.\n     * @param strikePrice the strike price for the structured note to be applied to the financial product.\n     * @dev Note: a) Only the owner (deployer) of this library can set new strike prices b) A strike price cannot be 0.\n     * c) A strike price can only be set once to prevent the deployer from changing the strike after the fact.\n     * d)  financialProduct must exposes an expirationTimestamp method.\n     */\n    function setFinancialProductStrike(address financialProduct, FixedPoint.Unsigned memory strikePrice)\n        public\n        onlyOwner\n        nonReentrant()\n    {\n        require(strikePrice.isGreaterThan(0), \"Cant set 0 strike\");\n        require(financialProductStrikes[financialProduct].isEqual(0), \"Strike already set\");\n        require(ExpiringContractInterface(financialProduct).expirationTimestamp() != 0, \"Invalid EMP contract\");\n        financialProductStrikes[financialProduct] = strikePrice;\n    }\n\n    /**\n     * @notice Returns the strike price associated with a given financial product address.\n     * @param financialProduct address of the financial product.\n     * @return strikePrice for the associated financial product.\n     */\n    function getStrikeForFinancialProduct(address financialProduct)\n        public\n        view\n        nonReentrantView()\n        returns (FixedPoint.Unsigned memory)\n    {\n        return financialProductStrikes[financialProduct];\n    }\n\n    /**\n     * @notice Returns a transformed price by applying the structured note payout structure.\n     * @param oraclePrice price from the oracle to be transformed.\n     * @param requestTime timestamp the oraclePrice was requested at.\n     * @return transformedPrice the input oracle price with the price transformation logic applied to it.\n     */\n    function transformPrice(FixedPoint.Unsigned memory oraclePrice, uint256 requestTime)\n        public\n        view\n        override\n        nonReentrantView()\n        returns (FixedPoint.Unsigned memory)\n    {\n        FixedPoint.Unsigned memory strike = financialProductStrikes[msg.sender];\n        require(strike.isGreaterThan(0), \"Caller has no strike\");\n        // If price request is made before expiry, return 1. Thus we can keep the contract 100% collateralized with\n        // each token backed 1:1 by collateral currency.\n        if (requestTime < ExpiringContractInterface(msg.sender).expirationTimestamp()) {\n            return FixedPoint.fromUnscaledUint(1);\n        }\n        if (oraclePrice.isLessThan(strike)) {\n            return FixedPoint.fromUnscaledUint(1);\n        } else {\n            // Token expires to be worth strike $ worth of collateral.\n            // eg if ETHUSD is $500 and strike is $400, token is redeemable for 400/500 = 0.8 WETH.\n            return strike.div(oraclePrice);\n        }\n    }\n\n    /**\n     * @notice Returns a transformed collateral requirement by applying the structured note payout structure. If the price\n     * of the structured note is greater than the strike then the collateral requirement scales down accordingly.\n     * @param oraclePrice price from the oracle to transform the collateral requirement.\n     * @param collateralRequirement financial products collateral requirement to be scaled according to price and strike.\n     * @return transformedCollateralRequirement the input collateral requirement with the transformation logic applied to it.\n     */\n    function transformCollateralRequirement(\n        FixedPoint.Unsigned memory oraclePrice,\n        FixedPoint.Unsigned memory collateralRequirement\n    ) public view override nonReentrantView() returns (FixedPoint.Unsigned memory) {\n        FixedPoint.Unsigned memory strike = financialProductStrikes[msg.sender];\n        require(strike.isGreaterThan(0), \"Caller has no strike\");\n        // If the price is less than the strike than the original collateral requirement is used.\n        if (oraclePrice.isLessThan(strike)) {\n            return collateralRequirement;\n        } else {\n            // If the price is more than the strike then the collateral requirement is scaled by the strike. For example\n            // a strike of $400 and a CR of 1.2 would yield:\n            // ETHUSD = $350, payout is 1 WETH. CR is multiplied by 1. resulting CR = 1.2\n            // ETHUSD = $400, payout is 1 WETH. CR is multiplied by 1. resulting CR = 1.2\n            // ETHUSD = $425, payout is 0.941 WETH (worth $400). CR is multiplied by 0.941. resulting CR = 1.1292\n            // ETHUSD = $500, payout is 0.8 WETH (worth $400). CR multiplied by 0.8. resulting CR = 0.96\n            return collateralRequirement.mul(strike.div(oraclePrice));\n        }\n    }\n}\n",
  "sourcePath": "/home/circleci/protocol/packages/core/contracts/financial-templates/common/financial-product-libraries/expiring-multiparty-libraries/StructuredNoteFinancialProductLibrary.sol",
  "compiler": {
    "name": "solc",
    "version": "0.8.4+commit.c7e474f2.Emscripten.clang"
  },
  "schemaVersion": "3.3.4",
  "updatedAt": "2021-07-16T20:27:09.749Z",
  "devdoc": {
    "kind": "dev",
    "methods": {
      "getStrikeForFinancialProduct(address)": {
        "params": {
          "financialProduct": "address of the financial product."
        },
        "returns": {
          "_0": "strikePrice for the associated financial product."
        }
      },
      "owner()": {
        "details": "Returns the address of the current owner."
      },
      "renounceOwnership()": {
        "details": "Leaves the contract without owner. It will not be possible to call `onlyOwner` functions anymore. Can only be called by the current owner. NOTE: Renouncing ownership will leave the contract without an owner, thereby removing any functionality that is only available to the owner."
      },
      "setFinancialProductStrike(address,(uint256))": {
        "details": "Note: a) Only the owner (deployer) of this library can set new strike prices b) A strike price cannot be 0. c) A strike price can only be set once to prevent the deployer from changing the strike after the fact. d)  financialProduct must exposes an expirationTimestamp method.",
        "params": {
          "financialProduct": "address of the financial product.",
          "strikePrice": "the strike price for the structured note to be applied to the financial product."
        }
      },
      "transferOwnership(address)": {
        "details": "Transfers ownership of the contract to a new account (`newOwner`). Can only be called by the current owner."
      },
      "transformCollateralRequirement((uint256),(uint256))": {
        "params": {
          "collateralRequirement": "financial products collateral requirement to be scaled according to price and strike.",
          "oraclePrice": "price from the oracle to transform the collateral requirement."
        },
        "returns": {
          "_0": "transformedCollateralRequirement the input collateral requirement with the transformation logic applied to it."
        }
      },
      "transformPrice((uint256),uint256)": {
        "params": {
          "oraclePrice": "price from the oracle to be transformed.",
          "requestTime": "timestamp the oraclePrice was requested at."
        },
        "returns": {
          "_0": "transformedPrice the input oracle price with the price transformation logic applied to it."
        }
      },
      "transformPriceIdentifier(bytes32,uint256)": {
        "params": {
          "priceIdentifier": "input price identifier defined for the financial contract.",
          "requestTime": "timestamp the identifier is to be used at. EG the time that a price request would be sent using this identifier."
        },
        "returns": {
          "_0": "transformedPriceIdentifier input price identifier with the transformation function applied."
        }
      }
    },
    "title": "Structured Note Financial Product Library",
    "version": 1
  },
  "userdoc": {
    "kind": "user",
    "methods": {
      "getStrikeForFinancialProduct(address)": {
        "notice": "Returns the strike price associated with a given financial product address."
      },
      "setFinancialProductStrike(address,(uint256))": {
        "notice": "Enables the deployer of the library to set the strike price for an associated financial product."
      },
      "transformCollateralRequirement((uint256),(uint256))": {
        "notice": "Returns a transformed collateral requirement by applying the structured note payout structure. If the price of the structured note is greater than the strike then the collateral requirement scales down accordingly."
      },
      "transformPrice((uint256),uint256)": {
        "notice": "Returns a transformed price by applying the structured note payout structure."
      },
      "transformPriceIdentifier(bytes32,uint256)": {
        "notice": "Transforms a given price identifier using the financial product libraries transformation logic."
      }
    },
    "notice": "Adds custom price transformation logic to modify the behavior of the expiring multi party contract. The contract holds say 1 WETH in collateral and pays out that 1 WETH if, at expiry, ETHUSD is below a set strike. If ETHUSD is above that strike, the contract pays out a given dollar amount of ETH. Example: expiry is DEC 31. Strike is $400. Each token is backed by 1 WETH If ETHUSD < $400 at expiry, token is redeemed for 1 ETH. If ETHUSD >= $400 at expiry, token is redeemed for $400 worth of ETH, as determined by the DVM.",
    "version": 1
  }
}