{
  "contractName": "Timer",
  "abi": [
    {
      "inputs": [],
      "stateMutability": "nonpayable",
      "type": "constructor"
    },
    {
      "inputs": [
        {
          "internalType": "uint256",
          "name": "time",
          "type": "uint256"
        }
      ],
      "name": "setCurrentTime",
      "outputs": [],
      "stateMutability": "nonpayable",
      "type": "function"
    },
    {
      "inputs": [],
      "name": "getCurrentTime",
      "outputs": [
        {
          "internalType": "uint256",
          "name": "",
          "type": "uint256"
        }
      ],
      "stateMutability": "view",
      "type": "function"
    }
  ],
  "bytecode": "0x6080604052348015600f57600080fd5b504260005560ab806100226000396000f3fe6080604052348015600f57600080fd5b506004361060325760003560e01c806322f8e56614603757806329cb924d146049575b600080fd5b60476042366004605e565b600055565b005b60005460405190815260200160405180910390f35b600060208284031215606e578081fd5b503591905056fea2646970667358221220902cc776c2174c8ea61356654b957acf08d014b148d2f4cf99f77d17883f200264736f6c63430008040033",
  "immutableReferences": {},
  "source": "// SPDX-License-Identifier: AGPL-3.0-only\npragma solidity ^0.8.0;\n\n/**\n * @title Universal store of current contract time for testing environments.\n */\ncontract Timer {\n    uint256 private currentTime;\n\n    constructor() {\n        currentTime = block.timestamp; // solhint-disable-line not-rely-on-time\n    }\n\n    /**\n     * @notice Sets the current time.\n     * @dev Will revert if not running in test mode.\n     * @param time timestamp to set `currentTime` to.\n     */\n    function setCurrentTime(uint256 time) external {\n        currentTime = time;\n    }\n\n    /**\n     * @notice Gets the currentTime variable set in the Timer.\n     * @return uint256 for the current Testable timestamp.\n     */\n    function getCurrentTime() public view returns (uint256) {\n        return currentTime;\n    }\n}\n",
  "sourcePath": "/home/circleci/protocol/packages/core/contracts/common/implementation/Timer.sol",
  "compiler": {
    "name": "solc",
    "version": "0.8.4+commit.c7e474f2.Emscripten.clang"
  },
  "schemaVersion": "3.3.4",
  "updatedAt": "2021-07-16T20:27:09.555Z",
  "devdoc": {
    "kind": "dev",
    "methods": {
      "getCurrentTime()": {
        "returns": {
          "_0": "uint256 for the current Testable timestamp."
        }
      },
      "setCurrentTime(uint256)": {
        "details": "Will revert if not running in test mode.",
        "params": {
          "time": "timestamp to set `currentTime` to."
        }
      }
    },
    "title": "Universal store of current contract time for testing environments.",
    "version": 1
  },
  "userdoc": {
    "kind": "user",
    "methods": {
      "getCurrentTime()": {
        "notice": "Gets the currentTime variable set in the Timer."
      },
      "setCurrentTime(uint256)": {
        "notice": "Sets the current time."
      }
    },
    "version": 1
  }
}