{
  "contractName": "TokenRedeemer",
  "abi": [
    {
      "inputs": [
        {
          "internalType": "address",
          "name": "financialContractAddress",
          "type": "address"
        },
        {
          "components": [
            {
              "internalType": "uint256",
              "name": "rawValue",
              "type": "uint256"
            }
          ],
          "internalType": "struct FixedPoint.Unsigned",
          "name": "numTokens",
          "type": "tuple"
        }
      ],
      "name": "redeem",
      "outputs": [
        {
          "components": [
            {
              "internalType": "uint256",
              "name": "rawValue",
              "type": "uint256"
            }
          ],
          "internalType": "struct FixedPoint.Unsigned",
          "name": "",
          "type": "tuple"
        }
      ],
      "stateMutability": "nonpayable",
      "type": "function"
    }
  ],
  "bytecode": "0x608060405234801561001057600080fd5b5061040c806100206000396000f3fe608060405234801561001057600080fd5b506004361061002b5760003560e01c806313c0545314610030575b600080fd5b61004361003e3660046102c1565b610056565b6040519051815260200160405180910390f35b60408051602081019091526000815260008390506100e9816001600160a01b0316637048594b6040518163ffffffff1660e01b8152600401602060405180830381600087803b1580156100a857600080fd5b505af11580156100bc573d6000803e3d6000fd5b505050506040513d601f19601f820116820180604052508101906100e0919061029e565b8451869061016b565b604051632f8d78e560e11b8152835160048201526001600160a01b03821690635f1af1ca90602401602060405180830381600087803b15801561012b57600080fd5b505af115801561013f573d6000803e3d6000fd5b505050506040513d601f19601f82011682018060405250810190610163919061032b565b949350505050565b604080516001600160a01b038481166024830152604480830185905283518084039091018152606490920183526020820180516001600160e01b031663095ea7b360e01b17905291516000928392908716916101c7919061034e565b6000604051808303816000865af19150503d8060008114610204576040519150601f19603f3d011682016040523d82523d6000602084013e610209565b606091505b5091509150818015610233575080511580610233575080806020019051810190610233919061030b565b6102975760405162461bcd60e51b815260206004820152602b60248201527f5472616e7366657248656c7065723a3a73616665417070726f76653a2061707060448201526a1c9bdd994819985a5b195960aa1b606482015260840160405180910390fd5b5050505050565b6000602082840312156102af578081fd5b81516102ba816103be565b9392505050565b60008082840360408112156102d4578182fd5b83356102df816103be565b92506020601f19820112156102f2578182fd5b506102fb610387565b6020939093013583525092909150565b60006020828403121561031c578081fd5b815180151581146102ba578182fd5b60006020828403121561033c578081fd5b610344610387565b9151825250919050565b60008251815b8181101561036e5760208186018101518583015201610354565b8181111561037c5782828501525b509190910192915050565b6040516020810167ffffffffffffffff811182821017156103b857634e487b7160e01b600052604160045260246000fd5b60405290565b6001600160a01b03811681146103d357600080fd5b5056fea2646970667358221220859e7d53784c8fc60980ecd5153e5e85c83f860c4143ecb73170870fbc74f0fe64736f6c63430008040033",
  "immutableReferences": {},
  "source": "// SPDX-License-Identifier: AGPL-3.0-only\npragma solidity ^0.8.0;\n\nimport \"../../common/implementation/FixedPoint.sol\";\nimport \"@uniswap/lib/contracts/libraries/TransferHelper.sol\";\n\n// Simple contract used to redeem tokens using a DSProxy from an emp.\ncontract TokenRedeemer {\n    function redeem(address financialContractAddress, FixedPoint.Unsigned memory numTokens)\n        public\n        returns (FixedPoint.Unsigned memory)\n    {\n        IFinancialContract fc = IFinancialContract(financialContractAddress);\n        TransferHelper.safeApprove(fc.tokenCurrency(), financialContractAddress, numTokens.rawValue);\n        return fc.redeem(numTokens);\n    }\n}\n\ninterface IFinancialContract {\n    function redeem(FixedPoint.Unsigned memory numTokens) external returns (FixedPoint.Unsigned memory amountWithdrawn);\n\n    function tokenCurrency() external returns (address);\n}\n",
  "sourcePath": "/home/circleci/protocol/packages/core/contracts/proxy-scripts/bot-action-wrappers/TokenRedeemer.sol",
  "compiler": {
    "name": "solc",
    "version": "0.8.4+commit.c7e474f2.Emscripten.clang"
  },
  "schemaVersion": "3.3.4",
  "updatedAt": "2021-07-16T20:27:10.183Z",
  "devdoc": {
    "kind": "dev",
    "methods": {},
    "version": 1
  },
  "userdoc": {
    "kind": "user",
    "methods": {},
    "version": 1
  }
}