{
  "contractName": "UniswapV3Mock",
  "abi": [
    {
      "anonymous": false,
      "inputs": [
        {
          "indexed": true,
          "internalType": "address",
          "name": "sender",
          "type": "address"
        },
        {
          "indexed": true,
          "internalType": "address",
          "name": "recipient",
          "type": "address"
        },
        {
          "indexed": false,
          "internalType": "int256",
          "name": "amount0",
          "type": "int256"
        },
        {
          "indexed": false,
          "internalType": "int256",
          "name": "amount1",
          "type": "int256"
        },
        {
          "indexed": false,
          "internalType": "uint160",
          "name": "sqrtPriceX96",
          "type": "uint160"
        },
        {
          "indexed": false,
          "internalType": "uint128",
          "name": "liquidity",
          "type": "uint128"
        },
        {
          "indexed": false,
          "internalType": "int24",
          "name": "tick",
          "type": "int24"
        }
      ],
      "name": "Swap",
      "type": "event"
    },
    {
      "inputs": [],
      "name": "token0",
      "outputs": [
        {
          "internalType": "address",
          "name": "",
          "type": "address"
        }
      ],
      "stateMutability": "view",
      "type": "function"
    },
    {
      "inputs": [],
      "name": "token1",
      "outputs": [
        {
          "internalType": "address",
          "name": "",
          "type": "address"
        }
      ],
      "stateMutability": "view",
      "type": "function"
    },
    {
      "inputs": [
        {
          "internalType": "address",
          "name": "_token0",
          "type": "address"
        },
        {
          "internalType": "address",
          "name": "_token1",
          "type": "address"
        }
      ],
      "name": "setTokens",
      "outputs": [],
      "stateMutability": "nonpayable",
      "type": "function"
    },
    {
      "inputs": [
        {
          "internalType": "address",
          "name": "sender",
          "type": "address"
        },
        {
          "internalType": "address",
          "name": "recipient",
          "type": "address"
        },
        {
          "internalType": "int256",
          "name": "amount0",
          "type": "int256"
        },
        {
          "internalType": "int256",
          "name": "amount1",
          "type": "int256"
        },
        {
          "internalType": "uint160",
          "name": "sqrtPriceX96",
          "type": "uint160"
        },
        {
          "internalType": "uint128",
          "name": "liquidity",
          "type": "uint128"
        },
        {
          "internalType": "int24",
          "name": "tick",
          "type": "int24"
        }
      ],
      "name": "setPrice",
      "outputs": [],
      "stateMutability": "nonpayable",
      "type": "function"
    }
  ],
  "bytecode": "0x608060405234801561001057600080fd5b50610271806100206000396000f3fe608060405234801561001057600080fd5b506004361061004c5760003560e01c80630dfe16811461005157806381da806314610080578063cbc7854e14610095578063d21220a7146100d1575b600080fd5b600054610064906001600160a01b031681565b6040516001600160a01b03909116815260200160405180910390f35b61009361008e36600461018f565b6100e4565b005b6100936100a3366004610157565b600080546001600160a01b039384166001600160a01b03199182161790915560018054929093169116179055565b600154610064906001600160a01b031681565b60408051868152602081018690526001600160a01b03858116828401526001600160801b0385166060830152600284900b60808301529151888316928a16917fc42079f94a6350d7e6235f29174924f928cc2ac818eb64fed8004e115fbcca67919081900360a00190a350505050505050565b60008060408385031215610169578182fd5b823561017481610223565b9150602083013561018481610223565b809150509250929050565b600080600080600080600060e0888a0312156101a9578283fd5b87356101b481610223565b965060208801356101c481610223565b9550604088013594506060880135935060808801356101e281610223565b925060a08801356001600160801b03811681146101fd578283fd5b915060c0880135600281900b8114610213578182fd5b8091505092959891949750929550565b6001600160a01b038116811461023857600080fd5b5056fea26469706673582212200241b9edadbc2da6a1f940569b26a44e8a208563829303d72ea2ff240fc4145b64736f6c63430008040033",
  "immutableReferences": {},
  "source": "// SPDX-License-Identifier: AGPL-3.0-only\npragma solidity ^0.8.0;\n\nimport \"../interfaces/UniswapV3.sol\";\n\n/**\n * @title Uniswap v3 Mock that allows manual price injection.\n */\ncontract UniswapV3Mock is UniswapV3 {\n    function setTokens(address _token0, address _token1) external {\n        token0 = _token0;\n        token1 = _token1;\n    }\n\n    function setPrice(\n        address sender,\n        address recipient,\n        int256 amount0,\n        int256 amount1,\n        uint160 sqrtPriceX96,\n        uint128 liquidity,\n        int24 tick\n    ) external {\n        emit Swap(sender, recipient, amount0, amount1, sqrtPriceX96, liquidity, tick);\n    }\n}\n",
  "sourcePath": "/home/circleci/protocol/packages/core/contracts/common/test/UniswapV3Mock.sol",
  "compiler": {
    "name": "solc",
    "version": "0.8.4+commit.c7e474f2.Emscripten.clang"
  },
  "schemaVersion": "3.3.4",
  "updatedAt": "2021-07-16T20:27:09.638Z",
  "devdoc": {
    "kind": "dev",
    "methods": {},
    "title": "Uniswap v3 Mock that allows manual price injection.",
    "version": 1
  },
  "userdoc": {
    "kind": "user",
    "methods": {},
    "version": 1
  }
}