{
  "contractName": "UnsignedFixedPointTest",
  "abi": [
    {
      "inputs": [
        {
          "internalType": "uint256",
          "name": "a",
          "type": "uint256"
        }
      ],
      "name": "wrapFromUnscaledUint",
      "outputs": [
        {
          "internalType": "uint256",
          "name": "",
          "type": "uint256"
        }
      ],
      "stateMutability": "pure",
      "type": "function"
    },
    {
      "inputs": [
        {
          "internalType": "uint256",
          "name": "a",
          "type": "uint256"
        },
        {
          "internalType": "uint256",
          "name": "b",
          "type": "uint256"
        }
      ],
      "name": "wrapIsEqual",
      "outputs": [
        {
          "internalType": "bool",
          "name": "",
          "type": "bool"
        }
      ],
      "stateMutability": "pure",
      "type": "function"
    },
    {
      "inputs": [
        {
          "internalType": "uint256",
          "name": "a",
          "type": "uint256"
        },
        {
          "internalType": "uint256",
          "name": "b",
          "type": "uint256"
        }
      ],
      "name": "wrapMixedIsEqual",
      "outputs": [
        {
          "internalType": "bool",
          "name": "",
          "type": "bool"
        }
      ],
      "stateMutability": "pure",
      "type": "function"
    },
    {
      "inputs": [
        {
          "internalType": "uint256",
          "name": "a",
          "type": "uint256"
        },
        {
          "internalType": "uint256",
          "name": "b",
          "type": "uint256"
        }
      ],
      "name": "wrapIsGreaterThan",
      "outputs": [
        {
          "internalType": "bool",
          "name": "",
          "type": "bool"
        }
      ],
      "stateMutability": "pure",
      "type": "function"
    },
    {
      "inputs": [
        {
          "internalType": "uint256",
          "name": "a",
          "type": "uint256"
        },
        {
          "internalType": "uint256",
          "name": "b",
          "type": "uint256"
        }
      ],
      "name": "wrapIsGreaterThanOrEqual",
      "outputs": [
        {
          "internalType": "bool",
          "name": "",
          "type": "bool"
        }
      ],
      "stateMutability": "pure",
      "type": "function"
    },
    {
      "inputs": [
        {
          "internalType": "uint256",
          "name": "a",
          "type": "uint256"
        },
        {
          "internalType": "uint256",
          "name": "b",
          "type": "uint256"
        }
      ],
      "name": "wrapMixedIsGreaterThan",
      "outputs": [
        {
          "internalType": "bool",
          "name": "",
          "type": "bool"
        }
      ],
      "stateMutability": "pure",
      "type": "function"
    },
    {
      "inputs": [
        {
          "internalType": "uint256",
          "name": "a",
          "type": "uint256"
        },
        {
          "internalType": "uint256",
          "name": "b",
          "type": "uint256"
        }
      ],
      "name": "wrapMixedIsGreaterThanOrEqual",
      "outputs": [
        {
          "internalType": "bool",
          "name": "",
          "type": "bool"
        }
      ],
      "stateMutability": "pure",
      "type": "function"
    },
    {
      "inputs": [
        {
          "internalType": "uint256",
          "name": "a",
          "type": "uint256"
        },
        {
          "internalType": "uint256",
          "name": "b",
          "type": "uint256"
        }
      ],
      "name": "wrapMixedIsGreaterThanOpposite",
      "outputs": [
        {
          "internalType": "bool",
          "name": "",
          "type": "bool"
        }
      ],
      "stateMutability": "pure",
      "type": "function"
    },
    {
      "inputs": [
        {
          "internalType": "uint256",
          "name": "a",
          "type": "uint256"
        },
        {
          "internalType": "uint256",
          "name": "b",
          "type": "uint256"
        }
      ],
      "name": "wrapMixedIsGreaterThanOrEqualOpposite",
      "outputs": [
        {
          "internalType": "bool",
          "name": "",
          "type": "bool"
        }
      ],
      "stateMutability": "pure",
      "type": "function"
    },
    {
      "inputs": [
        {
          "internalType": "uint256",
          "name": "a",
          "type": "uint256"
        },
        {
          "internalType": "uint256",
          "name": "b",
          "type": "uint256"
        }
      ],
      "name": "wrapIsLessThan",
      "outputs": [
        {
          "internalType": "bool",
          "name": "",
          "type": "bool"
        }
      ],
      "stateMutability": "pure",
      "type": "function"
    },
    {
      "inputs": [
        {
          "internalType": "uint256",
          "name": "a",
          "type": "uint256"
        },
        {
          "internalType": "uint256",
          "name": "b",
          "type": "uint256"
        }
      ],
      "name": "wrapIsLessThanOrEqual",
      "outputs": [
        {
          "internalType": "bool",
          "name": "",
          "type": "bool"
        }
      ],
      "stateMutability": "pure",
      "type": "function"
    },
    {
      "inputs": [
        {
          "internalType": "uint256",
          "name": "a",
          "type": "uint256"
        },
        {
          "internalType": "uint256",
          "name": "b",
          "type": "uint256"
        }
      ],
      "name": "wrapMixedIsLessThan",
      "outputs": [
        {
          "internalType": "bool",
          "name": "",
          "type": "bool"
        }
      ],
      "stateMutability": "pure",
      "type": "function"
    },
    {
      "inputs": [
        {
          "internalType": "uint256",
          "name": "a",
          "type": "uint256"
        },
        {
          "internalType": "uint256",
          "name": "b",
          "type": "uint256"
        }
      ],
      "name": "wrapMixedIsLessThanOrEqual",
      "outputs": [
        {
          "internalType": "bool",
          "name": "",
          "type": "bool"
        }
      ],
      "stateMutability": "pure",
      "type": "function"
    },
    {
      "inputs": [
        {
          "internalType": "uint256",
          "name": "a",
          "type": "uint256"
        },
        {
          "internalType": "uint256",
          "name": "b",
          "type": "uint256"
        }
      ],
      "name": "wrapMixedIsLessThanOpposite",
      "outputs": [
        {
          "internalType": "bool",
          "name": "",
          "type": "bool"
        }
      ],
      "stateMutability": "pure",
      "type": "function"
    },
    {
      "inputs": [
        {
          "internalType": "uint256",
          "name": "a",
          "type": "uint256"
        },
        {
          "internalType": "uint256",
          "name": "b",
          "type": "uint256"
        }
      ],
      "name": "wrapMixedIsLessThanOrEqualOpposite",
      "outputs": [
        {
          "internalType": "bool",
          "name": "",
          "type": "bool"
        }
      ],
      "stateMutability": "pure",
      "type": "function"
    },
    {
      "inputs": [
        {
          "internalType": "uint256",
          "name": "a",
          "type": "uint256"
        },
        {
          "internalType": "uint256",
          "name": "b",
          "type": "uint256"
        }
      ],
      "name": "wrapMin",
      "outputs": [
        {
          "internalType": "uint256",
          "name": "",
          "type": "uint256"
        }
      ],
      "stateMutability": "pure",
      "type": "function"
    },
    {
      "inputs": [
        {
          "internalType": "uint256",
          "name": "a",
          "type": "uint256"
        },
        {
          "internalType": "uint256",
          "name": "b",
          "type": "uint256"
        }
      ],
      "name": "wrapMax",
      "outputs": [
        {
          "internalType": "uint256",
          "name": "",
          "type": "uint256"
        }
      ],
      "stateMutability": "pure",
      "type": "function"
    },
    {
      "inputs": [
        {
          "internalType": "uint256",
          "name": "a",
          "type": "uint256"
        },
        {
          "internalType": "uint256",
          "name": "b",
          "type": "uint256"
        }
      ],
      "name": "wrapAdd",
      "outputs": [
        {
          "internalType": "uint256",
          "name": "",
          "type": "uint256"
        }
      ],
      "stateMutability": "pure",
      "type": "function"
    },
    {
      "inputs": [
        {
          "internalType": "uint256",
          "name": "a",
          "type": "uint256"
        },
        {
          "internalType": "uint256",
          "name": "b",
          "type": "uint256"
        }
      ],
      "name": "wrapMixedAdd",
      "outputs": [
        {
          "internalType": "uint256",
          "name": "",
          "type": "uint256"
        }
      ],
      "stateMutability": "pure",
      "type": "function"
    },
    {
      "inputs": [
        {
          "internalType": "uint256",
          "name": "a",
          "type": "uint256"
        },
        {
          "internalType": "uint256",
          "name": "b",
          "type": "uint256"
        }
      ],
      "name": "wrapSub",
      "outputs": [
        {
          "internalType": "uint256",
          "name": "",
          "type": "uint256"
        }
      ],
      "stateMutability": "pure",
      "type": "function"
    },
    {
      "inputs": [
        {
          "internalType": "uint256",
          "name": "a",
          "type": "uint256"
        },
        {
          "internalType": "uint256",
          "name": "b",
          "type": "uint256"
        }
      ],
      "name": "wrapMixedSub",
      "outputs": [
        {
          "internalType": "uint256",
          "name": "",
          "type": "uint256"
        }
      ],
      "stateMutability": "pure",
      "type": "function"
    },
    {
      "inputs": [
        {
          "internalType": "uint256",
          "name": "a",
          "type": "uint256"
        },
        {
          "internalType": "uint256",
          "name": "b",
          "type": "uint256"
        }
      ],
      "name": "wrapMixedSubOpposite",
      "outputs": [
        {
          "internalType": "uint256",
          "name": "",
          "type": "uint256"
        }
      ],
      "stateMutability": "pure",
      "type": "function"
    },
    {
      "inputs": [
        {
          "internalType": "uint256",
          "name": "a",
          "type": "uint256"
        },
        {
          "internalType": "uint256",
          "name": "b",
          "type": "uint256"
        }
      ],
      "name": "wrapMul",
      "outputs": [
        {
          "internalType": "uint256",
          "name": "",
          "type": "uint256"
        }
      ],
      "stateMutability": "pure",
      "type": "function"
    },
    {
      "inputs": [
        {
          "internalType": "uint256",
          "name": "a",
          "type": "uint256"
        },
        {
          "internalType": "uint256",
          "name": "b",
          "type": "uint256"
        }
      ],
      "name": "wrapMulCeil",
      "outputs": [
        {
          "internalType": "uint256",
          "name": "",
          "type": "uint256"
        }
      ],
      "stateMutability": "pure",
      "type": "function"
    },
    {
      "inputs": [
        {
          "internalType": "uint256",
          "name": "a",
          "type": "uint256"
        },
        {
          "internalType": "uint256",
          "name": "b",
          "type": "uint256"
        }
      ],
      "name": "wrapMixedMul",
      "outputs": [
        {
          "internalType": "uint256",
          "name": "",
          "type": "uint256"
        }
      ],
      "stateMutability": "pure",
      "type": "function"
    },
    {
      "inputs": [
        {
          "internalType": "uint256",
          "name": "a",
          "type": "uint256"
        },
        {
          "internalType": "uint256",
          "name": "b",
          "type": "uint256"
        }
      ],
      "name": "wrapMixedMulCeil",
      "outputs": [
        {
          "internalType": "uint256",
          "name": "",
          "type": "uint256"
        }
      ],
      "stateMutability": "pure",
      "type": "function"
    },
    {
      "inputs": [
        {
          "internalType": "uint256",
          "name": "a",
          "type": "uint256"
        },
        {
          "internalType": "uint256",
          "name": "b",
          "type": "uint256"
        }
      ],
      "name": "wrapDiv",
      "outputs": [
        {
          "internalType": "uint256",
          "name": "",
          "type": "uint256"
        }
      ],
      "stateMutability": "pure",
      "type": "function"
    },
    {
      "inputs": [
        {
          "internalType": "uint256",
          "name": "a",
          "type": "uint256"
        },
        {
          "internalType": "uint256",
          "name": "b",
          "type": "uint256"
        }
      ],
      "name": "wrapDivCeil",
      "outputs": [
        {
          "internalType": "uint256",
          "name": "",
          "type": "uint256"
        }
      ],
      "stateMutability": "pure",
      "type": "function"
    },
    {
      "inputs": [
        {
          "internalType": "uint256",
          "name": "a",
          "type": "uint256"
        },
        {
          "internalType": "uint256",
          "name": "b",
          "type": "uint256"
        }
      ],
      "name": "wrapMixedDiv",
      "outputs": [
        {
          "internalType": "uint256",
          "name": "",
          "type": "uint256"
        }
      ],
      "stateMutability": "pure",
      "type": "function"
    },
    {
      "inputs": [
        {
          "internalType": "uint256",
          "name": "a",
          "type": "uint256"
        },
        {
          "internalType": "uint256",
          "name": "b",
          "type": "uint256"
        }
      ],
      "name": "wrapMixedDivCeil",
      "outputs": [
        {
          "internalType": "uint256",
          "name": "",
          "type": "uint256"
        }
      ],
      "stateMutability": "pure",
      "type": "function"
    },
    {
      "inputs": [
        {
          "internalType": "uint256",
          "name": "a",
          "type": "uint256"
        },
        {
          "internalType": "uint256",
          "name": "b",
          "type": "uint256"
        }
      ],
      "name": "wrapMixedDivOpposite",
      "outputs": [
        {
          "internalType": "uint256",
          "name": "",
          "type": "uint256"
        }
      ],
      "stateMutability": "pure",
      "type": "function"
    },
    {
      "inputs": [
        {
          "internalType": "uint256",
          "name": "a",
          "type": "uint256"
        },
        {
          "internalType": "uint256",
          "name": "b",
          "type": "uint256"
        }
      ],
      "name": "wrapPow",
      "outputs": [
        {
          "internalType": "uint256",
          "name": "",
          "type": "uint256"
        }
      ],
      "stateMutability": "pure",
      "type": "function"
    }
  ],
  "bytecode": "0x608060405234801561001057600080fd5b50610de7806100206000396000f3fe608060405234801561001057600080fd5b50600436106101f05760003560e01c80636f486eee1161010f578063928d9cf4116100a2578063de24b20411610071578063de24b20414610419578063de27b9ba1461042c578063e9f798ed1461043f578063fb1701cc1461045257600080fd5b8063928d9cf4146103cd578063a9ad4e67146103e0578063b097c2e1146103f3578063b0c661951461040657600080fd5b806384ea8404116100de57806384ea84041461038157806385ec2dc1146103945780638b257fde146103a75780638de1c54c146103ba57600080fd5b80636f486eee14610335578063778c752214610348578063785baba71461035b5780637ec47fc61461036e57600080fd5b80634038dc1c1161018757806355243e9b1161015657806355243e9b146102e95780635f2d4b64146102fc5780636361b81b1461030f5780636e1c91ac1461032257600080fd5b80634038dc1c146102b05780634c72910c146102c35780634e55787f1461021b5780635043b58a146102d657600080fd5b8063305cc77d116101c3578063305cc77d14610264578063308a1af8146102775780633210b59e1461028a5780633d5dbce21461029d57600080fd5b80630169cb43146101f5578063098967cd1461021b57806316f0a5fd1461022e578063303cc9a214610241575b600080fd5b610208610203366004610cee565b610465565b6040519081526020015b60405180910390f35b610208610229366004610cee565b610494565b61020861023c366004610cee565b6104af565b61025461024f366004610cee565b6104d2565b6040519015158152602001610212565b610254610272366004610cee565b6104fc565b610254610285366004610cee565b610517565b610254610298366004610cee565b61053a565b6102086102ab366004610cee565b61055d565b6102086102be366004610cee565b610582565b6102086102d1366004610cee565b61059d565b6102546102e4366004610cee565b6105c2565b6102546102f7366004610cee565b6105e8565b61025461030a366004610cee565b610603565b61020861031d366004610cd6565b610628565b610208610330366004610cee565b61063a565b610208610343366004610cee565b610655565b610254610356366004610cee565b61067a565b610254610369366004610cee565b6106a0565b61020861037c366004610cee565b6106c3565b61020861038f366004610cee565b6106e8565b6102086103a2366004610cee565b610703565b6102086103b5366004610cee565b610728565b6102086103c8366004610cee565b610743565b6102086103db366004610cee565b61075e565b6102086103ee366004610cee565b610783565b610254610401366004610cee565b6107a6565b610254610414366004610cee565b6107cb565b610208610427366004610cee565b6107f0565b61025461043a366004610cee565b610815565b61025461044d366004610cee565b610830565b610254610460366004610cee565b61084b565b6040805160208082018352838252825190810190925283825260009161048a91610866565b5190505b92915050565b604080516020810190915282815260009061048a908361088b565b600061048a604051806020016040528084815250846108bc90919063ffffffff16565b60006104f5604051806020016040528084815250846108dd90919063ffffffff16565b9392505050565b60408051602081019091528281526000906104f590836108f5565b60006104f56040518060200160405280848152508461090d90919063ffffffff16565b60006104f56040518060200160405280848152508461092490919063ffffffff16565b6040805160208082018352838252825190810190925283825260009161048a9161093c565b604080516020810190915282815260009061048a9083610978565b6040805160208082018352838252825190810190925283825260009161048a916109c3565b6040805160208082018352838252825190810190925290839052516000908310156104f5565b60408051602081019091528281526000906104f590836109e1565b60408051602080820183528382528251908101909252908390525160009083106104f5565b6000610633826109f8565b5192915050565b604080516020810190915282815260009061048a9083610a2d565b6040805160208082018352838252825190810190925283825260009161048a91610a55565b6040805160208082018352838252825190810190925290839052516000908311156104f5565b60006104f560405180602001604052808481525084610a9290919063ffffffff16565b6040805160208082018352838252825190810190925283825260009161048a91610aa9565b604080516020810190915282815260009061048a9083610b37565b6040805160208082018352838252825190810190925283825260009161048a91610b53565b604080516020810190915282815260009061048a9083610b7d565b604080516020810190915282815260009061048a9083610b9e565b6040805160208082018352838252825190810190925283825260009161048a91610bbf565b600061048a60405180602001604052808481525084610be990919063ffffffff16565b60408051602080820183528382528251908101909252908390525160009083146104f5565b60408051602080820183528382528251908101909252908390525160009083116104f5565b6040805160208082018352838252825190810190925283825260009161048a91610c0a565b60408051602081019091528281526000906104f59083610c54565b60408051602081019091528281526000906104f59083610c6b565b60408051602081019091528281526000906104f59083610c82565b604080516020810190915260008152815183511061088457816104f5565b5090919050565b6040805160208101909152600081526040805160208101909152835181906108b39085610c9a565b90529392505050565b6040805160208101909152600081526104f56108d7846109f8565b8361093c565b80516000906108eb846109f8565b5110159392505050565b6000610900826109f8565b5183511115905092915050565b805160009061091b846109f8565b51119392505050565b8051600090610932846109f8565b5111159392505050565b60408051602081019091526000815260408051602081019091528251845182916108b39161097290670de0b6b3a7640000610c9a565b90610ca6565b60408051602081019091526000815261099160016109f8565b905060005b828110156109bc576109a88285610a55565b91506109b5816001610cb2565b9050610996565b5092915050565b604080516020810190915260008152815183511161088457816104f5565b60006109ec826109f8565b51835114905092915050565b604080516020810190915260008152604080516020810190915280610a2584670de0b6b3a7640000610c9a565b905292915050565b6040805160208101909152600081526040805160208101909152835181906108b39085610ca6565b6040805160208101909152600081526040805160208101909152825184518291670de0b6b3a764000091610a8891610c9a565b6108b39190610d27565b8051600090610aa0846109f8565b51109392505050565b6040805160208101909152600080825282518451610ac691610c9a565b90506000610adc670de0b6b3a764000083610d27565b90506000610af283670de0b6b3a7640000610cbe565b90508015610b1e57604080516020810190915280610b11846001610cb2565b815250935050505061048e565b604051806020016040528083815250935050505061048e565b6040805160208101909152600081526104f583610b53846109f8565b60408051602081019091526000815260408051602081019091528251845182916108b39190610cb2565b6040805160208101909152600081526104f583610b99846109f8565b610bbf565b6040805160208101909152600081526104f583610bba846109f8565b610c0a565b60408051602081019091526000815260408051602081019091528251845182916108b39190610cca565b6040805160208101909152600081526104f5610c04846109f8565b83610bbf565b604080516020810190915260008082528351610c2e90670de0b6b3a7640000610c9a565b8351909150600090610c41908390610ca6565b8451909150600090610af2908490610cbe565b6000610c5f826109f8565b51835111905092915050565b6000610c76826109f8565b51835110905092915050565b6000610c8d826109f8565b5183511015905092915050565b60006104f58284610d3b565b60006104f58284610d27565b60006104f58284610d0f565b60006104f58284610d71565b60006104f58284610d5a565b600060208284031215610ce7578081fd5b5035919050565b60008060408385031215610d00578081fd5b50508035926020909101359150565b60008219821115610d2257610d22610d85565b500190565b600082610d3657610d36610d9b565b500490565b6000816000190483118215151615610d5557610d55610d85565b500290565b600082821015610d6c57610d6c610d85565b500390565b600082610d8057610d80610d9b565b500690565b634e487b7160e01b600052601160045260246000fd5b634e487b7160e01b600052601260045260246000fdfea2646970667358221220494ed456a559db3dc014de38414df7622dae5018e963f91d346892499dc6ab6064736f6c63430008040033",
  "immutableReferences": {},
  "source": "// SPDX-License-Identifier: AGPL-3.0-only\npragma solidity ^0.8.0;\n\nimport \"../implementation/FixedPoint.sol\";\n\n// Wraps the FixedPoint library for testing purposes.\ncontract UnsignedFixedPointTest {\n    using FixedPoint for FixedPoint.Unsigned;\n    using FixedPoint for uint256;\n    using SafeMath for uint256;\n\n    function wrapFromUnscaledUint(uint256 a) external pure returns (uint256) {\n        return FixedPoint.fromUnscaledUint(a).rawValue;\n    }\n\n    function wrapIsEqual(uint256 a, uint256 b) external pure returns (bool) {\n        return FixedPoint.Unsigned(a).isEqual(FixedPoint.Unsigned(b));\n    }\n\n    function wrapMixedIsEqual(uint256 a, uint256 b) external pure returns (bool) {\n        return FixedPoint.Unsigned(a).isEqual(b);\n    }\n\n    function wrapIsGreaterThan(uint256 a, uint256 b) external pure returns (bool) {\n        return FixedPoint.Unsigned(a).isGreaterThan(FixedPoint.Unsigned(b));\n    }\n\n    function wrapIsGreaterThanOrEqual(uint256 a, uint256 b) external pure returns (bool) {\n        return FixedPoint.Unsigned(a).isGreaterThanOrEqual(FixedPoint.Unsigned(b));\n    }\n\n    function wrapMixedIsGreaterThan(uint256 a, uint256 b) external pure returns (bool) {\n        return FixedPoint.Unsigned(a).isGreaterThan(b);\n    }\n\n    function wrapMixedIsGreaterThanOrEqual(uint256 a, uint256 b) external pure returns (bool) {\n        return FixedPoint.Unsigned(a).isGreaterThanOrEqual(b);\n    }\n\n    function wrapMixedIsGreaterThanOpposite(uint256 a, uint256 b) external pure returns (bool) {\n        return a.isGreaterThan(FixedPoint.Unsigned(b));\n    }\n\n    function wrapMixedIsGreaterThanOrEqualOpposite(uint256 a, uint256 b) external pure returns (bool) {\n        return a.isGreaterThanOrEqual(FixedPoint.Unsigned(b));\n    }\n\n    function wrapIsLessThan(uint256 a, uint256 b) external pure returns (bool) {\n        return FixedPoint.Unsigned(a).isLessThan(FixedPoint.Unsigned(b));\n    }\n\n    function wrapIsLessThanOrEqual(uint256 a, uint256 b) external pure returns (bool) {\n        return FixedPoint.Unsigned(a).isLessThanOrEqual(FixedPoint.Unsigned(b));\n    }\n\n    function wrapMixedIsLessThan(uint256 a, uint256 b) external pure returns (bool) {\n        return FixedPoint.Unsigned(a).isLessThan(b);\n    }\n\n    function wrapMixedIsLessThanOrEqual(uint256 a, uint256 b) external pure returns (bool) {\n        return FixedPoint.Unsigned(a).isLessThanOrEqual(b);\n    }\n\n    function wrapMixedIsLessThanOpposite(uint256 a, uint256 b) external pure returns (bool) {\n        return a.isLessThan(FixedPoint.Unsigned(b));\n    }\n\n    function wrapMixedIsLessThanOrEqualOpposite(uint256 a, uint256 b) external pure returns (bool) {\n        return a.isLessThanOrEqual(FixedPoint.Unsigned(b));\n    }\n\n    function wrapMin(uint256 a, uint256 b) external pure returns (uint256) {\n        return FixedPoint.Unsigned(a).min(FixedPoint.Unsigned(b)).rawValue;\n    }\n\n    function wrapMax(uint256 a, uint256 b) external pure returns (uint256) {\n        return FixedPoint.Unsigned(a).max(FixedPoint.Unsigned(b)).rawValue;\n    }\n\n    function wrapAdd(uint256 a, uint256 b) external pure returns (uint256) {\n        return FixedPoint.Unsigned(a).add(FixedPoint.Unsigned(b)).rawValue;\n    }\n\n    // The first uint256 is interpreted with a scaling factor and is converted to an `Unsigned` directly.\n    function wrapMixedAdd(uint256 a, uint256 b) external pure returns (uint256) {\n        return FixedPoint.Unsigned(a).add(b).rawValue;\n    }\n\n    function wrapSub(uint256 a, uint256 b) external pure returns (uint256) {\n        return FixedPoint.Unsigned(a).sub(FixedPoint.Unsigned(b)).rawValue;\n    }\n\n    // The first uint256 is interpreted with a scaling factor and is converted to an `Unsigned` directly.\n    function wrapMixedSub(uint256 a, uint256 b) external pure returns (uint256) {\n        return FixedPoint.Unsigned(a).sub(b).rawValue;\n    }\n\n    // The second uint256 is interpreted with a scaling factor and is converted to an `Unsigned` directly.\n    function wrapMixedSubOpposite(uint256 a, uint256 b) external pure returns (uint256) {\n        return a.sub(FixedPoint.Unsigned(b)).rawValue;\n    }\n\n    function wrapMul(uint256 a, uint256 b) external pure returns (uint256) {\n        return FixedPoint.Unsigned(a).mul(FixedPoint.Unsigned(b)).rawValue;\n    }\n\n    function wrapMulCeil(uint256 a, uint256 b) external pure returns (uint256) {\n        return FixedPoint.Unsigned(a).mulCeil(FixedPoint.Unsigned(b)).rawValue;\n    }\n\n    // The first uint256 is interpreted with a scaling factor and is converted to an `Unsigned` directly.\n    function wrapMixedMul(uint256 a, uint256 b) external pure returns (uint256) {\n        return FixedPoint.Unsigned(a).mul(b).rawValue;\n    }\n\n    function wrapMixedMulCeil(uint256 a, uint256 b) external pure returns (uint256) {\n        return FixedPoint.Unsigned(a).mulCeil(b).rawValue;\n    }\n\n    function wrapDiv(uint256 a, uint256 b) external pure returns (uint256) {\n        return FixedPoint.Unsigned(a).div(FixedPoint.Unsigned(b)).rawValue;\n    }\n\n    function wrapDivCeil(uint256 a, uint256 b) external pure returns (uint256) {\n        return FixedPoint.Unsigned(a).divCeil(FixedPoint.Unsigned(b)).rawValue;\n    }\n\n    // The first uint256 is interpreted with a scaling factor and is converted to an `Unsigned` directly.\n    function wrapMixedDiv(uint256 a, uint256 b) external pure returns (uint256) {\n        return FixedPoint.Unsigned(a).div(b).rawValue;\n    }\n\n    function wrapMixedDivCeil(uint256 a, uint256 b) external pure returns (uint256) {\n        return FixedPoint.Unsigned(a).divCeil(b).rawValue;\n    }\n\n    // The second uint256 is interpreted with a scaling factor and is converted to an `Unsigned` directly.\n    function wrapMixedDivOpposite(uint256 a, uint256 b) external pure returns (uint256) {\n        return a.div(FixedPoint.Unsigned(b)).rawValue;\n    }\n\n    // The first uint256 is interpreted with a scaling factor and is converted to an `Unsigned` directly.\n    function wrapPow(uint256 a, uint256 b) external pure returns (uint256) {\n        return FixedPoint.Unsigned(a).pow(b).rawValue;\n    }\n}\n",
  "sourcePath": "/home/circleci/protocol/packages/core/contracts/common/test/UnsignedFixedPointTest.sol",
  "compiler": {
    "name": "solc",
    "version": "0.8.4+commit.c7e474f2.Emscripten.clang"
  },
  "schemaVersion": "3.3.4",
  "updatedAt": "2021-07-16T20:27:09.639Z",
  "devdoc": {
    "kind": "dev",
    "methods": {},
    "version": 1
  },
  "userdoc": {
    "kind": "user",
    "methods": {},
    "version": 1
  }
}