{
  "contractName": "VaultMock",
  "abi": [
    {
      "inputs": [
        {
          "internalType": "contract IERC20",
          "name": "_token",
          "type": "address"
        }
      ],
      "stateMutability": "nonpayable",
      "type": "constructor"
    },
    {
      "inputs": [],
      "name": "token",
      "outputs": [
        {
          "internalType": "contract IERC20",
          "name": "",
          "type": "address"
        }
      ],
      "stateMutability": "view",
      "type": "function"
    },
    {
      "inputs": [],
      "name": "getPricePerFullShare",
      "outputs": [
        {
          "internalType": "uint256",
          "name": "",
          "type": "uint256"
        }
      ],
      "stateMutability": "view",
      "type": "function"
    },
    {
      "inputs": [
        {
          "internalType": "uint256",
          "name": "_pricePerFullShare",
          "type": "uint256"
        }
      ],
      "name": "setPricePerFullShare",
      "outputs": [],
      "stateMutability": "nonpayable",
      "type": "function"
    }
  ],
  "bytecode": "0x6080604052600060015534801561001557600080fd5b5060405161017438038061017483398101604081905261003491610059565b600080546001600160a01b0319166001600160a01b0392909216919091179055610087565b60006020828403121561006a578081fd5b81516001600160a01b0381168114610080578182fd5b9392505050565b60df806100956000396000f3fe6080604052348015600f57600080fd5b5060043610603c5760003560e01c806377c7b8fc146041578063c3819fb6146057578063fc0c546a146069575b600080fd5b6001546040519081526020015b60405180910390f35b606760623660046092565b600155565b005b600054607b906001600160a01b031681565b6040516001600160a01b039091168152602001604e565b60006020828403121560a2578081fd5b503591905056fea26469706673582212206195e43501214aeadd788badf173f8fdbbaab6b87dec81ebe4a6f869f0beb79164736f6c63430008040033",
  "immutableReferences": {},
  "source": "// SPDX-License-Identifier: AGPL-3.0-only\npragma solidity ^0.8.0;\n\nimport \"../interfaces/VaultInterface.sol\";\nimport \"@openzeppelin/contracts/token/ERC20/IERC20.sol\";\n\n/**\n * @title Mock for yearn-style vaults for use in tests.\n */\ncontract VaultMock is VaultInterface {\n    IERC20 public override token;\n    uint256 private pricePerFullShare = 0;\n\n    constructor(IERC20 _token) {\n        token = _token;\n    }\n\n    function getPricePerFullShare() external view override returns (uint256) {\n        return pricePerFullShare;\n    }\n\n    function setPricePerFullShare(uint256 _pricePerFullShare) external {\n        pricePerFullShare = _pricePerFullShare;\n    }\n}\n",
  "sourcePath": "/home/circleci/protocol/packages/core/contracts/common/test/VaultMock.sol",
  "compiler": {
    "name": "solc",
    "version": "0.8.4+commit.c7e474f2.Emscripten.clang"
  },
  "schemaVersion": "3.3.4",
  "updatedAt": "2021-07-16T20:27:09.646Z",
  "devdoc": {
    "kind": "dev",
    "methods": {},
    "title": "Mock for yearn-style vaults for use in tests.",
    "version": 1
  },
  "userdoc": {
    "kind": "user",
    "methods": {},
    "version": 1
  }
}