{
  "contractName": "VoteTimingTest",
  "abi": [
    {
      "inputs": [
        {
          "internalType": "uint256",
          "name": "phaseLength",
          "type": "uint256"
        }
      ],
      "stateMutability": "nonpayable",
      "type": "constructor"
    },
    {
      "inputs": [],
      "name": "voteTiming",
      "outputs": [
        {
          "internalType": "uint256",
          "name": "phaseLength",
          "type": "uint256"
        }
      ],
      "stateMutability": "view",
      "type": "function"
    },
    {
      "inputs": [
        {
          "internalType": "uint256",
          "name": "currentTime",
          "type": "uint256"
        }
      ],
      "name": "wrapComputeCurrentRoundId",
      "outputs": [
        {
          "internalType": "uint256",
          "name": "",
          "type": "uint256"
        }
      ],
      "stateMutability": "view",
      "type": "function"
    },
    {
      "inputs": [
        {
          "internalType": "uint256",
          "name": "currentTime",
          "type": "uint256"
        }
      ],
      "name": "wrapComputeCurrentPhase",
      "outputs": [
        {
          "internalType": "enum VotingAncillaryInterface.Phase",
          "name": "",
          "type": "uint8"
        }
      ],
      "stateMutability": "view",
      "type": "function"
    },
    {
      "inputs": [
        {
          "internalType": "uint256",
          "name": "phaseLength",
          "type": "uint256"
        }
      ],
      "name": "wrapInit",
      "outputs": [],
      "stateMutability": "nonpayable",
      "type": "function"
    }
  ],
  "bytecode": "0x608060405234801561001057600080fd5b506040516102eb3803806102eb83398101604081905261002f9161006a565b6100388161003e565b50610082565b61005681600061005960201b6100e21790919060201c565b50565b6000811161006657600080fd5b9055565b60006020828403121561007b578081fd5b5051919050565b61025a806100916000396000f3fe608060405234801561001057600080fd5b506004361061004c5760003560e01c806329e4b0131461005157806344d8ce9a1461007757806371b7db531461008c578063d9336ea414610096575b600080fd5b61006461005f36600461017b565b6100b6565b6040519081526020015b60405180910390f35b61008a61008536600461017b565b6100c8565b005b6000546100649081565b6100a96100a436600461017b565b6100d6565b60405161006e9190610193565b60006100c281836100f3565b92915050565b6100d36000826100e2565b50565b60006100c28183610117565b600081116100ef57600080fd5b9055565b6000806101036002855490610157565b905061010f8382610163565b949350505050565b60006101316002845461012b908590610163565b9061016f565b600281111561015057634e487b7160e01b600052602160045260246000fd5b9392505050565b600061015082846101cf565b600061015082846101bb565b600061015082846101fa565b60006020828403121561018c578081fd5b5035919050565b60208101600383106101b557634e487b7160e01b600052602160045260246000fd5b91905290565b6000826101ca576101ca61020e565b500490565b60008160001904831182151516156101f557634e487b7160e01b81526011600452602481fd5b500290565b6000826102095761020961020e565b500690565b634e487b7160e01b600052601260045260246000fdfea2646970667358221220d4de8eedea3e6f50f4b71b16def504090500be242fc67b865dcf6a9a128b101664736f6c63430008040033",
  "immutableReferences": {},
  "source": "// SPDX-License-Identifier: AGPL-3.0-only\npragma solidity ^0.8.0;\n\nimport \"../../interfaces/VotingInterface.sol\";\nimport \"../VoteTiming.sol\";\n\n// Wraps the library VoteTiming for testing purposes.\ncontract VoteTimingTest {\n    using VoteTiming for VoteTiming.Data;\n\n    VoteTiming.Data public voteTiming;\n\n    constructor(uint256 phaseLength) {\n        wrapInit(phaseLength);\n    }\n\n    function wrapComputeCurrentRoundId(uint256 currentTime) external view returns (uint256) {\n        return voteTiming.computeCurrentRoundId(currentTime);\n    }\n\n    function wrapComputeCurrentPhase(uint256 currentTime) external view returns (VotingAncillaryInterface.Phase) {\n        return voteTiming.computeCurrentPhase(currentTime);\n    }\n\n    function wrapInit(uint256 phaseLength) public {\n        voteTiming.init(phaseLength);\n    }\n}\n",
  "sourcePath": "/home/circleci/protocol/packages/core/contracts/oracle/implementation/test/VoteTimingTest.sol",
  "compiler": {
    "name": "solc",
    "version": "0.8.4+commit.c7e474f2.Emscripten.clang"
  },
  "schemaVersion": "3.3.4",
  "updatedAt": "2021-07-16T20:27:10.093Z",
  "devdoc": {
    "kind": "dev",
    "methods": {},
    "version": 1
  },
  "userdoc": {
    "kind": "user",
    "methods": {},
    "version": 1
  }
}