{
  "contractName": "VotingToken",
  "abi": [
    {
      "inputs": [],
      "stateMutability": "nonpayable",
      "type": "constructor"
    },
    {
      "anonymous": false,
      "inputs": [
        {
          "indexed": true,
          "internalType": "uint256",
          "name": "roleId",
          "type": "uint256"
        },
        {
          "indexed": true,
          "internalType": "address",
          "name": "newMember",
          "type": "address"
        },
        {
          "indexed": true,
          "internalType": "address",
          "name": "manager",
          "type": "address"
        }
      ],
      "name": "AddedSharedMember",
      "type": "event"
    },
    {
      "anonymous": false,
      "inputs": [
        {
          "indexed": true,
          "internalType": "address",
          "name": "owner",
          "type": "address"
        },
        {
          "indexed": true,
          "internalType": "address",
          "name": "spender",
          "type": "address"
        },
        {
          "indexed": false,
          "internalType": "uint256",
          "name": "value",
          "type": "uint256"
        }
      ],
      "name": "Approval",
      "type": "event"
    },
    {
      "anonymous": false,
      "inputs": [
        {
          "indexed": true,
          "internalType": "uint256",
          "name": "roleId",
          "type": "uint256"
        },
        {
          "indexed": true,
          "internalType": "address",
          "name": "oldMember",
          "type": "address"
        },
        {
          "indexed": true,
          "internalType": "address",
          "name": "manager",
          "type": "address"
        }
      ],
      "name": "RemovedSharedMember",
      "type": "event"
    },
    {
      "anonymous": false,
      "inputs": [
        {
          "indexed": true,
          "internalType": "uint256",
          "name": "roleId",
          "type": "uint256"
        },
        {
          "indexed": true,
          "internalType": "address",
          "name": "newMember",
          "type": "address"
        },
        {
          "indexed": true,
          "internalType": "address",
          "name": "manager",
          "type": "address"
        }
      ],
      "name": "ResetExclusiveMember",
      "type": "event"
    },
    {
      "anonymous": false,
      "inputs": [
        {
          "indexed": false,
          "internalType": "uint256",
          "name": "id",
          "type": "uint256"
        }
      ],
      "name": "Snapshot",
      "type": "event"
    },
    {
      "anonymous": false,
      "inputs": [
        {
          "indexed": true,
          "internalType": "address",
          "name": "from",
          "type": "address"
        },
        {
          "indexed": true,
          "internalType": "address",
          "name": "to",
          "type": "address"
        },
        {
          "indexed": false,
          "internalType": "uint256",
          "name": "value",
          "type": "uint256"
        }
      ],
      "name": "Transfer",
      "type": "event"
    },
    {
      "inputs": [
        {
          "internalType": "address",
          "name": "account",
          "type": "address"
        }
      ],
      "name": "addBurner",
      "outputs": [],
      "stateMutability": "nonpayable",
      "type": "function"
    },
    {
      "inputs": [
        {
          "internalType": "uint256",
          "name": "roleId",
          "type": "uint256"
        },
        {
          "internalType": "address",
          "name": "newMember",
          "type": "address"
        }
      ],
      "name": "addMember",
      "outputs": [],
      "stateMutability": "nonpayable",
      "type": "function"
    },
    {
      "inputs": [
        {
          "internalType": "address",
          "name": "account",
          "type": "address"
        }
      ],
      "name": "addMinter",
      "outputs": [],
      "stateMutability": "nonpayable",
      "type": "function"
    },
    {
      "inputs": [
        {
          "internalType": "address",
          "name": "owner",
          "type": "address"
        },
        {
          "internalType": "address",
          "name": "spender",
          "type": "address"
        }
      ],
      "name": "allowance",
      "outputs": [
        {
          "internalType": "uint256",
          "name": "",
          "type": "uint256"
        }
      ],
      "stateMutability": "view",
      "type": "function"
    },
    {
      "inputs": [
        {
          "internalType": "address",
          "name": "spender",
          "type": "address"
        },
        {
          "internalType": "uint256",
          "name": "amount",
          "type": "uint256"
        }
      ],
      "name": "approve",
      "outputs": [
        {
          "internalType": "bool",
          "name": "",
          "type": "bool"
        }
      ],
      "stateMutability": "nonpayable",
      "type": "function"
    },
    {
      "inputs": [
        {
          "internalType": "address",
          "name": "account",
          "type": "address"
        }
      ],
      "name": "balanceOf",
      "outputs": [
        {
          "internalType": "uint256",
          "name": "",
          "type": "uint256"
        }
      ],
      "stateMutability": "view",
      "type": "function"
    },
    {
      "inputs": [
        {
          "internalType": "address",
          "name": "account",
          "type": "address"
        },
        {
          "internalType": "uint256",
          "name": "snapshotId",
          "type": "uint256"
        }
      ],
      "name": "balanceOfAt",
      "outputs": [
        {
          "internalType": "uint256",
          "name": "",
          "type": "uint256"
        }
      ],
      "stateMutability": "view",
      "type": "function"
    },
    {
      "inputs": [
        {
          "internalType": "uint256",
          "name": "value",
          "type": "uint256"
        }
      ],
      "name": "burn",
      "outputs": [],
      "stateMutability": "nonpayable",
      "type": "function"
    },
    {
      "inputs": [
        {
          "internalType": "address",
          "name": "recipient",
          "type": "address"
        },
        {
          "internalType": "uint256",
          "name": "value",
          "type": "uint256"
        }
      ],
      "name": "burnFrom",
      "outputs": [
        {
          "internalType": "bool",
          "name": "",
          "type": "bool"
        }
      ],
      "stateMutability": "nonpayable",
      "type": "function"
    },
    {
      "inputs": [
        {
          "internalType": "address",
          "name": "spender",
          "type": "address"
        },
        {
          "internalType": "uint256",
          "name": "subtractedValue",
          "type": "uint256"
        }
      ],
      "name": "decreaseAllowance",
      "outputs": [
        {
          "internalType": "bool",
          "name": "",
          "type": "bool"
        }
      ],
      "stateMutability": "nonpayable",
      "type": "function"
    },
    {
      "inputs": [
        {
          "internalType": "uint256",
          "name": "roleId",
          "type": "uint256"
        }
      ],
      "name": "getMember",
      "outputs": [
        {
          "internalType": "address",
          "name": "",
          "type": "address"
        }
      ],
      "stateMutability": "view",
      "type": "function"
    },
    {
      "inputs": [
        {
          "internalType": "uint256",
          "name": "roleId",
          "type": "uint256"
        },
        {
          "internalType": "address",
          "name": "memberToCheck",
          "type": "address"
        }
      ],
      "name": "holdsRole",
      "outputs": [
        {
          "internalType": "bool",
          "name": "",
          "type": "bool"
        }
      ],
      "stateMutability": "view",
      "type": "function"
    },
    {
      "inputs": [
        {
          "internalType": "address",
          "name": "spender",
          "type": "address"
        },
        {
          "internalType": "uint256",
          "name": "addedValue",
          "type": "uint256"
        }
      ],
      "name": "increaseAllowance",
      "outputs": [
        {
          "internalType": "bool",
          "name": "",
          "type": "bool"
        }
      ],
      "stateMutability": "nonpayable",
      "type": "function"
    },
    {
      "inputs": [
        {
          "internalType": "address",
          "name": "recipient",
          "type": "address"
        },
        {
          "internalType": "uint256",
          "name": "value",
          "type": "uint256"
        }
      ],
      "name": "mint",
      "outputs": [
        {
          "internalType": "bool",
          "name": "",
          "type": "bool"
        }
      ],
      "stateMutability": "nonpayable",
      "type": "function"
    },
    {
      "inputs": [],
      "name": "name",
      "outputs": [
        {
          "internalType": "string",
          "name": "",
          "type": "string"
        }
      ],
      "stateMutability": "view",
      "type": "function"
    },
    {
      "inputs": [
        {
          "internalType": "uint256",
          "name": "roleId",
          "type": "uint256"
        },
        {
          "internalType": "address",
          "name": "memberToRemove",
          "type": "address"
        }
      ],
      "name": "removeMember",
      "outputs": [],
      "stateMutability": "nonpayable",
      "type": "function"
    },
    {
      "inputs": [
        {
          "internalType": "uint256",
          "name": "roleId",
          "type": "uint256"
        }
      ],
      "name": "renounceMembership",
      "outputs": [],
      "stateMutability": "nonpayable",
      "type": "function"
    },
    {
      "inputs": [
        {
          "internalType": "uint256",
          "name": "roleId",
          "type": "uint256"
        },
        {
          "internalType": "address",
          "name": "newMember",
          "type": "address"
        }
      ],
      "name": "resetMember",
      "outputs": [],
      "stateMutability": "nonpayable",
      "type": "function"
    },
    {
      "inputs": [
        {
          "internalType": "address",
          "name": "account",
          "type": "address"
        }
      ],
      "name": "resetOwner",
      "outputs": [],
      "stateMutability": "nonpayable",
      "type": "function"
    },
    {
      "inputs": [],
      "name": "symbol",
      "outputs": [
        {
          "internalType": "string",
          "name": "",
          "type": "string"
        }
      ],
      "stateMutability": "view",
      "type": "function"
    },
    {
      "inputs": [],
      "name": "totalSupply",
      "outputs": [
        {
          "internalType": "uint256",
          "name": "",
          "type": "uint256"
        }
      ],
      "stateMutability": "view",
      "type": "function"
    },
    {
      "inputs": [
        {
          "internalType": "uint256",
          "name": "snapshotId",
          "type": "uint256"
        }
      ],
      "name": "totalSupplyAt",
      "outputs": [
        {
          "internalType": "uint256",
          "name": "",
          "type": "uint256"
        }
      ],
      "stateMutability": "view",
      "type": "function"
    },
    {
      "inputs": [
        {
          "internalType": "address",
          "name": "recipient",
          "type": "address"
        },
        {
          "internalType": "uint256",
          "name": "amount",
          "type": "uint256"
        }
      ],
      "name": "transfer",
      "outputs": [
        {
          "internalType": "bool",
          "name": "",
          "type": "bool"
        }
      ],
      "stateMutability": "nonpayable",
      "type": "function"
    },
    {
      "inputs": [
        {
          "internalType": "address",
          "name": "sender",
          "type": "address"
        },
        {
          "internalType": "address",
          "name": "recipient",
          "type": "address"
        },
        {
          "internalType": "uint256",
          "name": "amount",
          "type": "uint256"
        }
      ],
      "name": "transferFrom",
      "outputs": [
        {
          "internalType": "bool",
          "name": "",
          "type": "bool"
        }
      ],
      "stateMutability": "nonpayable",
      "type": "function"
    },
    {
      "inputs": [],
      "name": "decimals",
      "outputs": [
        {
          "internalType": "uint8",
          "name": "",
          "type": "uint8"
        }
      ],
      "stateMutability": "view",
      "type": "function"
    },
    {
      "inputs": [],
      "name": "snapshot",
      "outputs": [
        {
          "internalType": "uint256",
          "name": "",
          "type": "uint256"
        }
      ],
      "stateMutability": "nonpayable",
      "type": "function"
    }
  ],
  "bytecode": "0x60806040523480156200001157600080fd5b506040518060400160405280601381526020017f554d4120566f74696e6720546f6b656e2076310000000000000000000000000081525060405180604001604052806003815260200162554d4160e81b815250601282828160039080519060200190620000809291906200051f565b508051620000969060049060208401906200051f565b50506006805460ff191660ff841617905550620000b660008033620000e8565b620000d360015b6040805160008082526020820190925262000251565b620000df6002620000bd565b5050506200062a565b826000808281526005602052604090206001015460ff1660028111156200011f57634e487b7160e01b600052602160045260246000fd5b14620001725760405162461bcd60e51b815260206004820152601e60248201527f43616e6e6f74207573652061207072652d6578697374696e6720726f6c65000060448201526064015b60405180910390fd5b60008481526005602052604090206001808201805460ff191682800217905550838155620001b06002820184620003b0602090811b62000c6517901c565b60008481526005602052604081206001015460ff166002811115620001e557634e487b7160e01b600052602160045260246000fd5b14156200024a5760405162461bcd60e51b815260206004820152603c6024820152600080516020620020ce83398151915260448201527f20746f206d616e61676520616e206578636c757369766520726f6c6500000000606482015260840162000169565b5050505050565b826000808281526005602052604090206001015460ff1660028111156200028857634e487b7160e01b600052602160045260246000fd5b14620002d75760405162461bcd60e51b815260206004820152601e60248201527f43616e6e6f74207573652061207072652d6578697374696e6720726f6c650000604482015260640162000169565b600084815260056020908152604090912060018101805460ff191660021790558481559062000316906003830190859062000c6f620003c0821b17901c565b60008481526005602052604081206001015460ff1660028111156200034b57634e487b7160e01b600052602160045260246000fd5b14156200024a5760405162461bcd60e51b81526020600482015260386024820152600080516020620020ce83398151915260448201527f20746f206d616e61676520612073686172656420726f6c650000000000000000606482015260840162000169565b620003bc828262000421565b5050565b60005b81518110156200041c576200040783838381518110620003f357634e487b7160e01b600052603260045260246000fd5b6020026020010151620004a260201b60201c565b80620004138162000602565b915050620003c3565b505050565b6001600160a01b038116620004855760405162461bcd60e51b815260206004820152602360248201527f43616e6e6f742073657420616e206578636c757369766520726f6c6520746f2060448201526203078360ec1b606482015260840162000169565b81546001600160a01b0319166001600160a01b0391909116179055565b6001600160a01b038116620004fa5760405162461bcd60e51b815260206004820152601f60248201527f43616e6e6f74206164642030783020746f20612073686172656420726f6c6500604482015260640162000169565b6001600160a01b0316600090815260209190915260409020805460ff19166001179055565b8280546200052d90620005c5565b90600052602060002090601f0160209004810192826200055157600085556200059c565b82601f106200056c57805160ff19168380011785556200059c565b828001600101855582156200059c579182015b828111156200059c5782518255916020019190600101906200057f565b50620005aa929150620005ae565b5090565b5b80821115620005aa5760008155600101620005af565b600181811c90821680620005da57607f821691505b60208210811415620005fc57634e487b7160e01b600052602260045260246000fd5b50919050565b60006000198214156200062357634e487b7160e01b81526011600452602481fd5b5060010190565b611a94806200063a6000396000f3fe608060405234801561001057600080fd5b506004361061018e5760003560e01c806379cc6790116100de578063a457c2d711610097578063ab3545e511610071578063ab3545e514610358578063d97c05be14610383578063dd62ed3e14610396578063f44637ba146103cf57600080fd5b8063a457c2d71461031f578063a9059cbb14610332578063aaa14ca31461034557600080fd5b806379cc6790146102c35780637cdc1cb9146102d657806395d89b41146102e95780639711715a146102f1578063981b24d0146102f9578063983b2d561461030c57600080fd5b806340c10f191161014b5780636be7658b116101255780636be7658b1461026157806370a082311461027457806373cc802a1461029d57806374d0a676146102b057600080fd5b806340c10f191461022657806342966c68146102395780634ee2cd7e1461024e57600080fd5b806306fdde0314610193578063095ea7b3146101b157806318160ddd146101d457806323b872dd146101e6578063313ce567146101f95780633950935114610213575b600080fd5b61019b6103e2565b6040516101a89190611817565b60405180910390f35b6101c46101bf3660046117b4565b610474565b60405190151581526020016101a8565b6002545b6040519081526020016101a8565b6101c46101f4366004611779565b61048b565b610201610541565b60405160ff90911681526020016101a8565b6101c46102213660046117b4565b610554565b6101c46102343660046117b4565b61058b565b61024c6102473660046117dd565b6105c9565b005b6101d861025c3660046117b4565b6105ff565b61024c61026f3660046117f5565b610658565b6101d861028236600461172d565b6001600160a01b031660009081526020819052604090205490565b61024c6102ab36600461172d565b61073c565b61024c6102be3660046117f5565b61074a565b6101c46102d13660046117b4565b61082e565b6101c46102e43660046117f5565b610862565b61019b610945565b6101d8610954565b6101d86103073660046117dd565b61095e565b61024c61031a36600461172d565b610989565b6101c461032d3660046117b4565b610995565b6101c46103403660046117b4565b610a26565b61024c6103533660046117dd565b610a33565b61036b6103663660046117dd565b610afd565b6040516001600160a01b0390911681526020016101a8565b61024c6103913660046117f5565b610b77565b6101d86103a4366004611747565b6001600160a01b03918216600090815260016020908152604080832093909416825291909152205490565b61024c6103dd36600461172d565b610c5b565b6060600380546103f1906119ce565b80601f016020809104026020016040519081016040528092919081815260200182805461041d906119ce565b801561046a5780601f1061043f5761010080835404028352916020019161046a565b820191906000526020600020905b81548152906001019060200180831161044d57829003601f168201915b5050505050905090565b6000610481338484610cc3565b5060015b92915050565b6000610498848484610de8565b6001600160a01b0384166000908152600160209081526040808320338452909152902054828110156105225760405162461bcd60e51b815260206004820152602860248201527f45524332303a207472616e7366657220616d6f756e74206578636565647320616044820152676c6c6f77616e636560c01b60648201526084015b60405180910390fd5b610536853361053186856119b7565b610cc3565b506001949350505050565b600061054f60065460ff1690565b905090565b3360008181526001602090815260408083206001600160a01b0387168452909152812054909161048191859061053190869061198b565b600060016105998133610862565b6105b55760405162461bcd60e51b815260040161051990611905565b6105bf8484610df3565b5060019392505050565b60026105d58133610862565b6105f15760405162461bcd60e51b815260040161051990611905565b6105fb3383610dfd565b5050565b6001600160a01b038216600090815260076020526040812081908190610626908590610e07565b915091508161064d576001600160a01b03851660009081526020819052604090205461064f565b805b95945050505050565b81600260008281526005602052604090206001015460ff16600281111561068f57634e487b7160e01b600052602160045260246000fd5b146106ac5760405162461bcd60e51b8152600401610519906118b9565b60008381526005602052604090205483906106c79033610862565b6106e35760405162461bcd60e51b815260040161051990611947565b60008481526005602052604090206106fe9060030184610f07565b60405133906001600160a01b0385169086907feb3e33034c392e69263b04ec0fa376dc12784a41b6676c7f31b936cbc0fbb5af90600090a450505050565b610747600082610b77565b50565b81600260008281526005602052604090206001015460ff16600281111561078157634e487b7160e01b600052602160045260246000fd5b1461079e5760405162461bcd60e51b8152600401610519906118b9565b60008381526005602052604090205483906107b99033610862565b6107d55760405162461bcd60e51b815260040161051990611947565b60008481526005602052604090206107f09060030184610f29565b60405133906001600160a01b0385169086907f63502af7324ff6db91ab38f8236a648727d9385ea6c782073dd4882d8a61a48f90600090a450505050565b6000600261083c8133610862565b6108585760405162461bcd60e51b815260040161051990611905565b6105bf8484610dfd565b600082815260056020526040812060018082015460ff16600281111561089857634e487b7160e01b600052602160045260246000fd5b14156108ba5760028101546001600160a01b038481169116145b915050610485565b6002600182015460ff1660028111156108e357634e487b7160e01b600052602160045260246000fd5b141561090c576001600160a01b038316600090815260038201602052604090205460ff166108b2565b60405162461bcd60e51b815260206004820152600e60248201526d125b9d985b1a59081c9bdb19525960921b6044820152606401610519565b6060600480546103f1906119ce565b600061054f610fa4565b600080600061096e846008610e07565b915091508161097f57600254610981565b805b949350505050565b61074760015b8261074a565b3360009081526001602090815260408083206001600160a01b038616845290915281205482811015610a175760405162461bcd60e51b815260206004820152602560248201527f45524332303a2064656372656173656420616c6c6f77616e63652062656c6f77604482015264207a65726f60d81b6064820152608401610519565b6105bf338561053186856119b7565b6000610481338484610de8565b80600260008281526005602052604090206001015460ff166002811115610a6a57634e487b7160e01b600052602160045260246000fd5b14610a875760405162461bcd60e51b8152600401610519906118b9565b81610a928133610862565b610aae5760405162461bcd60e51b815260040161051990611905565b6000838152600560205260409020610ac99060030133610f07565b6040513390819085907feb3e33034c392e69263b04ec0fa376dc12784a41b6676c7f31b936cbc0fbb5af90600090a4505050565b600081600160008281526005602052604090206001015460ff166002811115610b3657634e487b7160e01b600052602160045260246000fd5b14610b535760405162461bcd60e51b81526004016105199061186a565b6000838152600560205260409020600201546001600160a01b031691505b50919050565b81600160008281526005602052604090206001015460ff166002811115610bae57634e487b7160e01b600052602160045260246000fd5b14610bcb5760405162461bcd60e51b81526004016105199061186a565b6000838152600560205260409020548390610be69033610862565b610c025760405162461bcd60e51b815260040161051990611947565b6000848152600560205260409020610c1d9060020184610fff565b60405133906001600160a01b0385169086907f3b855c56b409b671c7112789d022675eb639d0bcb8896f1b6197c132f799e74690600090a450505050565b610747600261098f565b6105fb8282610fff565b60005b8151811015610cbe57610cac83838381518110610c9f57634e487b7160e01b600052603260045260246000fd5b6020026020010151610f29565b80610cb681611a03565b915050610c72565b505050565b6001600160a01b038316610d255760405162461bcd60e51b8152602060048201526024808201527f45524332303a20617070726f76652066726f6d20746865207a65726f206164646044820152637265737360e01b6064820152608401610519565b6001600160a01b038216610d865760405162461bcd60e51b815260206004820152602260248201527f45524332303a20617070726f766520746f20746865207a65726f206164647265604482015261737360f01b6064820152608401610519565b6001600160a01b0383811660008181526001602090815260408083209487168084529482529182902085905590518481527f8c5be1e5ebec7d5bd14f71427d1e84f3dd0314c0f7b2291e5b200ac8c7c3b92591015b60405180910390a3505050565b610cbe83838361107e565b6105fb8282611261565b6105fb828261134c565b60008060008411610e535760405162461bcd60e51b815260206004820152601660248201527504552433230536e617073686f743a20696420697320360541b6044820152606401610519565b600a54841115610ea55760405162461bcd60e51b815260206004820152601d60248201527f4552433230536e617073686f743a206e6f6e6578697374656e742069640000006044820152606401610519565b6000610eb184866114a7565b8454909150811415610eca576000809250925050610f00565b6001846001018281548110610eef57634e487b7160e01b600052603260045260246000fd5b906000526020600020015492509250505b9250929050565b6001600160a01b0316600090815260209190915260409020805460ff19169055565b6001600160a01b038116610f7f5760405162461bcd60e51b815260206004820152601f60248201527f43616e6e6f74206164642030783020746f20612073686172656420726f6c65006044820152606401610519565b6001600160a01b0316600090815260209190915260409020805460ff19166001179055565b6000610fb4600a80546001019055565b6000610fbf600a5490565b90507f8030e83b04d87bef53480e26263266d6ca66863aa8506aca6f2559d18aa1cb6781604051610ff291815260200190565b60405180910390a1919050565b6001600160a01b0381166110615760405162461bcd60e51b815260206004820152602360248201527f43616e6e6f742073657420616e206578636c757369766520726f6c6520746f2060448201526203078360ec1b6064820152608401610519565b81546001600160a01b0319166001600160a01b0391909116179055565b6001600160a01b0383166110e25760405162461bcd60e51b815260206004820152602560248201527f45524332303a207472616e736665722066726f6d20746865207a65726f206164604482015264647265737360d81b6064820152608401610519565b6001600160a01b0382166111445760405162461bcd60e51b815260206004820152602360248201527f45524332303a207472616e7366657220746f20746865207a65726f206164647260448201526265737360e81b6064820152608401610519565b61114f838383611586565b6001600160a01b038316600090815260208190526040902054818110156111c75760405162461bcd60e51b815260206004820152602660248201527f45524332303a207472616e7366657220616d6f756e7420657863656564732062604482015265616c616e636560d01b6064820152608401610519565b6111d182826119b7565b6001600160a01b03808616600090815260208190526040808220939093559085168152908120805484929061120790849061198b565b92505081905550826001600160a01b0316846001600160a01b03167fddf252ad1be2c89b69c2b068fc378daa952ba7f163c4a11628f55a4df523b3ef8460405161125391815260200190565b60405180910390a350505050565b6001600160a01b0382166112b75760405162461bcd60e51b815260206004820152601f60248201527f45524332303a206d696e7420746f20746865207a65726f2061646472657373006044820152606401610519565b6112c360008383611586565b80600260008282546112d5919061198b565b90915550506001600160a01b0382166000908152602081905260408120805483929061130290849061198b565b90915550506040518181526001600160a01b038316906000907fddf252ad1be2c89b69c2b068fc378daa952ba7f163c4a11628f55a4df523b3ef9060200160405180910390a35050565b6001600160a01b0382166113ac5760405162461bcd60e51b815260206004820152602160248201527f45524332303a206275726e2066726f6d20746865207a65726f206164647265736044820152607360f81b6064820152608401610519565b6113b882600083611586565b6001600160a01b0382166000908152602081905260409020548181101561142c5760405162461bcd60e51b815260206004820152602260248201527f45524332303a206275726e20616d6f756e7420657863656564732062616c616e604482015261636560f01b6064820152608401610519565b61143682826119b7565b6001600160a01b038416600090815260208190526040812091909155600280548492906114649084906119b7565b90915550506040518281526000906001600160a01b038516907fddf252ad1be2c89b69c2b068fc378daa952ba7f163c4a11628f55a4df523b3ef90602001610ddb565b81546000906114b857506000610485565b82546000905b808210156115225760006114d28383611591565b9050848682815481106114f557634e487b7160e01b600052603260045260246000fd5b9060005260206000200154111561150e5780915061151c565b61151981600161198b565b92505b506114be565b6000821180156115655750838561153a6001856119b7565b8154811061155857634e487b7160e01b600052603260045260246000fd5b9060005260206000200154145b1561157e576115756001836119b7565b92505050610485565b509050610485565b610cbe8383836115ef565b6000600261159f8184611a1e565b6115aa600286611a1e565b6115b4919061198b565b6115be91906119a3565b6115c96002846119a3565b6115d46002866119a3565b6115de919061198b565b6115e8919061198b565b9392505050565b6001600160a01b03831661160e5761160682611633565b610cbe611665565b6001600160a01b0382166116255761160683611633565b61162e83611633565b610cbe825b6001600160a01b038116600090815260076020908152604080832091839052909120546107479190611675565b611675565b611673600861166060025490565b565b6000611680600a5490565b90508061168c846116c0565b1015610cbe578254600180820185556000858152602080822090930193909355938401805494850181558252902090910155565b80546000906116d157506000919050565b815482906116e1906001906119b7565b815481106116ff57634e487b7160e01b600052603260045260246000fd5b90600052602060002001549050919050565b919050565b80356001600160a01b038116811461171157600080fd5b60006020828403121561173e578081fd5b6115e882611716565b60008060408385031215611759578081fd5b61176283611716565b915061177060208401611716565b90509250929050565b60008060006060848603121561178d578081fd5b61179684611716565b92506117a460208501611716565b9150604084013590509250925092565b600080604083850312156117c6578182fd5b6117cf83611716565b946020939093013593505050565b6000602082840312156117ee578081fd5b5035919050565b60008060408385031215611807578182fd5b8235915061177060208401611716565b6000602080835283518082850152825b8181101561184357858101830151858201604001528201611827565b818111156118545783604083870101525b50601f01601f1916929092016040019392505050565b6020808252602f908201527f4d7573742062652063616c6c6564206f6e20616e20696e697469616c697a656460408201526e204578636c757369766520726f6c6560881b606082015260800190565b6020808252602c908201527f4d7573742062652063616c6c6564206f6e20616e20696e697469616c697a656460408201526b2053686172656420726f6c6560a01b606082015260800190565b60208082526022908201527f53656e64657220646f6573206e6f7420686f6c6420726571756972656420726f6040820152616c6560f01b606082015260800190565b60208082526024908201527f43616e206f6e6c792062652063616c6c6564206279206120726f6c65206d616e60408201526330b3b2b960e11b606082015260800190565b6000821982111561199e5761199e611a32565b500190565b6000826119b2576119b2611a48565b500490565b6000828210156119c9576119c9611a32565b500390565b600181811c908216806119e257607f821691505b60208210811415610b7157634e487b7160e01b600052602260045260246000fd5b6000600019821415611a1757611a17611a32565b5060010190565b600082611a2d57611a2d611a48565b500690565b634e487b7160e01b600052601160045260246000fd5b634e487b7160e01b600052601260045260246000fdfea26469706673582212208888b20b4db25b41f5ae9c34570e0ef756f2240e62bf973898d7f404ca7d6ff764736f6c63430008040033417474656d7074656420746f2075736520616e20696e76616c696420726f6c65",
  "immutableReferences": {},
  "source": "// SPDX-License-Identifier: AGPL-3.0-only\npragma solidity ^0.8.0;\n\nimport \"../../common/implementation/ExpandedERC20.sol\";\nimport \"@openzeppelin/contracts/token/ERC20/extensions/ERC20Snapshot.sol\";\n\n/**\n * @title Ownership of this token allows a voter to respond to price requests.\n * @dev Supports snapshotting and allows the Oracle to mint new tokens as rewards.\n */\ncontract VotingToken is ExpandedERC20, ERC20Snapshot {\n    /**\n     * @notice Constructs the VotingToken.\n     */\n    constructor() ExpandedERC20(\"UMA Voting Token v1\", \"UMA\", 18) ERC20Snapshot() {}\n\n    function decimals() public view virtual override(ERC20, ExpandedERC20) returns (uint8) {\n        return super.decimals();\n    }\n\n    /**\n     * @notice Creates a new snapshot ID.\n     * @return uint256 Thew new snapshot ID.\n     */\n    function snapshot() external returns (uint256) {\n        return _snapshot();\n    }\n\n    // _transfer, _mint and _burn are ERC20 internal methods that are overridden by ERC20Snapshot,\n    // therefore the compiler will complain that VotingToken must override these methods\n    // because the two base classes (ERC20 and ERC20Snapshot) both define the same functions\n\n    function _transfer(\n        address from,\n        address to,\n        uint256 value\n    ) internal override(ERC20) {\n        super._transfer(from, to, value);\n    }\n\n    function _mint(address account, uint256 value) internal virtual override(ERC20) {\n        super._mint(account, value);\n    }\n\n    function _burn(address account, uint256 value) internal virtual override(ERC20) {\n        super._burn(account, value);\n    }\n\n    function _beforeTokenTransfer(\n        address from,\n        address to,\n        uint256 amount\n    ) internal virtual override(ERC20, ERC20Snapshot) {\n        super._beforeTokenTransfer(from, to, amount);\n    }\n}\n",
  "sourcePath": "/home/circleci/protocol/packages/core/contracts/oracle/implementation/VotingToken.sol",
  "compiler": {
    "name": "solc",
    "version": "0.8.4+commit.c7e474f2.Emscripten.clang"
  },
  "schemaVersion": "3.3.4",
  "updatedAt": "2021-07-16T20:27:10.077Z",
  "devdoc": {
    "details": "Supports snapshotting and allows the Oracle to mint new tokens as rewards.",
    "kind": "dev",
    "methods": {
      "addBurner(address)": {
        "details": "The caller must have the Owner role.",
        "params": {
          "account": "The address to which the Burner role is added."
        }
      },
      "addMember(uint256,address)": {
        "details": "Reverts if `roleId` does not represent an initialized, SharedRole or if the caller is not a member of the managing role for `roleId`.",
        "params": {
          "newMember": "the new SharedRole member.",
          "roleId": "the SharedRole membership to modify."
        }
      },
      "addMinter(address)": {
        "details": "The caller must have the Owner role.",
        "params": {
          "account": "The address to which the Minter role is added."
        }
      },
      "allowance(address,address)": {
        "details": "See {IERC20-allowance}."
      },
      "approve(address,uint256)": {
        "details": "See {IERC20-approve}. Requirements: - `spender` cannot be the zero address."
      },
      "balanceOf(address)": {
        "details": "See {IERC20-balanceOf}."
      },
      "balanceOfAt(address,uint256)": {
        "details": "Retrieves the balance of `account` at the time `snapshotId` was created."
      },
      "burn(uint256)": {
        "details": "Burns `value` tokens owned by `msg.sender`.",
        "params": {
          "value": "amount of tokens to burn."
        }
      },
      "burnFrom(address,uint256)": {
        "details": "Burns `value` tokens owned by `recipient`.",
        "params": {
          "recipient": "address to burn tokens from.",
          "value": "amount of tokens to burn."
        },
        "returns": {
          "_0": "True if the burn succeeded, or False."
        }
      },
      "decreaseAllowance(address,uint256)": {
        "details": "Atomically decreases the allowance granted to `spender` by the caller. This is an alternative to {approve} that can be used as a mitigation for problems described in {IERC20-approve}. Emits an {Approval} event indicating the updated allowance. Requirements: - `spender` cannot be the zero address. - `spender` must have allowance for the caller of at least `subtractedValue`."
      },
      "getMember(uint256)": {
        "details": "Reverts if `roleId` does not represent an initialized, exclusive role.",
        "params": {
          "roleId": "the ExclusiveRole membership to check."
        },
        "returns": {
          "_0": "the address of the current ExclusiveRole member."
        }
      },
      "holdsRole(uint256,address)": {
        "details": "Reverts if roleId does not correspond to an initialized role.",
        "params": {
          "memberToCheck": "the address to check.",
          "roleId": "the Role to check."
        },
        "returns": {
          "_0": "True if `memberToCheck` is a member of `roleId`."
        }
      },
      "increaseAllowance(address,uint256)": {
        "details": "Atomically increases the allowance granted to `spender` by the caller. This is an alternative to {approve} that can be used as a mitigation for problems described in {IERC20-approve}. Emits an {Approval} event indicating the updated allowance. Requirements: - `spender` cannot be the zero address."
      },
      "mint(address,uint256)": {
        "details": "Mints `value` tokens to `recipient`, returning true on success.",
        "params": {
          "recipient": "address to mint to.",
          "value": "amount of tokens to mint."
        },
        "returns": {
          "_0": "True if the mint succeeded, or False."
        }
      },
      "name()": {
        "details": "Returns the name of the token."
      },
      "removeMember(uint256,address)": {
        "details": "Reverts if `roleId` does not represent an initialized, SharedRole or if the caller is not a member of the managing role for `roleId`.",
        "params": {
          "memberToRemove": "the current SharedRole member to remove.",
          "roleId": "the SharedRole membership to modify."
        }
      },
      "renounceMembership(uint256)": {
        "details": "Reverts if the caller is not a member of the role for `roleId` or if `roleId` is not an initialized, SharedRole.",
        "params": {
          "roleId": "the SharedRole membership to modify."
        }
      },
      "resetMember(uint256,address)": {
        "details": "Reverts if the caller is not a member of the managing role for `roleId` or if `roleId` is not an initialized, ExclusiveRole.",
        "params": {
          "newMember": "the new ExclusiveRole member.",
          "roleId": "the ExclusiveRole membership to modify."
        }
      },
      "resetOwner(address)": {
        "details": "The caller must have the Owner role.",
        "params": {
          "account": "The new holder of the Owner role."
        }
      },
      "snapshot()": {
        "returns": {
          "_0": "uint256 Thew new snapshot ID."
        }
      },
      "symbol()": {
        "details": "Returns the symbol of the token, usually a shorter version of the name."
      },
      "totalSupply()": {
        "details": "See {IERC20-totalSupply}."
      },
      "totalSupplyAt(uint256)": {
        "details": "Retrieves the total supply at the time `snapshotId` was created."
      },
      "transfer(address,uint256)": {
        "details": "See {IERC20-transfer}. Requirements: - `recipient` cannot be the zero address. - the caller must have a balance of at least `amount`."
      },
      "transferFrom(address,address,uint256)": {
        "details": "See {IERC20-transferFrom}. Emits an {Approval} event indicating the updated allowance. This is not required by the EIP. See the note at the beginning of {ERC20}. Requirements: - `sender` and `recipient` cannot be the zero address. - `sender` must have a balance of at least `amount`. - the caller must have allowance for ``sender``'s tokens of at least `amount`."
      }
    },
    "title": "Ownership of this token allows a voter to respond to price requests.",
    "version": 1
  },
  "userdoc": {
    "kind": "user",
    "methods": {
      "addBurner(address)": {
        "notice": "Add Burner role to account."
      },
      "addMember(uint256,address)": {
        "notice": "Adds `newMember` to the shared role, `roleId`."
      },
      "addMinter(address)": {
        "notice": "Add Minter role to account."
      },
      "constructor": {
        "notice": "Constructs the VotingToken."
      },
      "getMember(uint256)": {
        "notice": "Gets the current holder of the exclusive role, `roleId`."
      },
      "holdsRole(uint256,address)": {
        "notice": "Whether `memberToCheck` is a member of roleId."
      },
      "removeMember(uint256,address)": {
        "notice": "Removes `memberToRemove` from the shared role, `roleId`."
      },
      "renounceMembership(uint256)": {
        "notice": "Removes caller from the role, `roleId`."
      },
      "resetMember(uint256,address)": {
        "notice": "Changes the exclusive role holder of `roleId` to `newMember`."
      },
      "resetOwner(address)": {
        "notice": "Reset Owner role to account."
      },
      "snapshot()": {
        "notice": "Creates a new snapshot ID."
      }
    },
    "version": 1
  }
}