{
  "contractName": "ConfigStore",
  "abi": [
    {
      "inputs": [
        {
          "components": [
            {
              "internalType": "uint256",
              "name": "timelockLiveness",
              "type": "uint256"
            },
            {
              "components": [
                {
                  "internalType": "uint256",
                  "name": "rawValue",
                  "type": "uint256"
                }
              ],
              "internalType": "struct FixedPoint.Unsigned",
              "name": "rewardRatePerSecond",
              "type": "tuple"
            },
            {
              "components": [
                {
                  "internalType": "uint256",
                  "name": "rawValue",
                  "type": "uint256"
                }
              ],
              "internalType": "struct FixedPoint.Unsigned",
              "name": "proposerBondPct",
              "type": "tuple"
            },
            {
              "internalType": "uint256",
              "name": "proposalTimeFutureLimit",
              "type": "uint256"
            },
            {
              "internalType": "uint256",
              "name": "proposalTimePastLimit",
              "type": "uint256"
            }
          ],
          "internalType": "struct ConfigStoreInterface.ConfigSettings",
          "name": "_initialConfig",
          "type": "tuple"
        },
        {
          "internalType": "address",
          "name": "_timerAddress",
          "type": "address"
        }
      ],
      "stateMutability": "nonpayable",
      "type": "constructor"
    },
    {
      "anonymous": false,
      "inputs": [
        {
          "indexed": false,
          "internalType": "uint256",
          "name": "rewardRate",
          "type": "uint256"
        },
        {
          "indexed": false,
          "internalType": "uint256",
          "name": "proposerBond",
          "type": "uint256"
        },
        {
          "indexed": false,
          "internalType": "uint256",
          "name": "timelockLiveness",
          "type": "uint256"
        },
        {
          "indexed": false,
          "internalType": "uint256",
          "name": "proposalTimeFutureLimit",
          "type": "uint256"
        },
        {
          "indexed": false,
          "internalType": "uint256",
          "name": "proposalTimePastLimit",
          "type": "uint256"
        }
      ],
      "name": "ChangedConfigSettings",
      "type": "event"
    },
    {
      "anonymous": false,
      "inputs": [
        {
          "indexed": true,
          "internalType": "address",
          "name": "previousOwner",
          "type": "address"
        },
        {
          "indexed": true,
          "internalType": "address",
          "name": "newOwner",
          "type": "address"
        }
      ],
      "name": "OwnershipTransferred",
      "type": "event"
    },
    {
      "anonymous": false,
      "inputs": [
        {
          "indexed": true,
          "internalType": "address",
          "name": "proposer",
          "type": "address"
        },
        {
          "indexed": false,
          "internalType": "uint256",
          "name": "rewardRate",
          "type": "uint256"
        },
        {
          "indexed": false,
          "internalType": "uint256",
          "name": "proposerBond",
          "type": "uint256"
        },
        {
          "indexed": false,
          "internalType": "uint256",
          "name": "timelockLiveness",
          "type": "uint256"
        },
        {
          "indexed": false,
          "internalType": "uint256",
          "name": "proposalTimeFutureLimit",
          "type": "uint256"
        },
        {
          "indexed": false,
          "internalType": "uint256",
          "name": "proposalTimePastLimit",
          "type": "uint256"
        },
        {
          "indexed": false,
          "internalType": "uint256",
          "name": "proposalPassedTimestamp",
          "type": "uint256"
        }
      ],
      "name": "ProposedNewConfigSettings",
      "type": "event"
    },
    {
      "inputs": [],
      "name": "getCurrentTime",
      "outputs": [
        {
          "internalType": "uint256",
          "name": "",
          "type": "uint256"
        }
      ],
      "stateMutability": "view",
      "type": "function"
    },
    {
      "inputs": [],
      "name": "owner",
      "outputs": [
        {
          "internalType": "address",
          "name": "",
          "type": "address"
        }
      ],
      "stateMutability": "view",
      "type": "function"
    },
    {
      "inputs": [],
      "name": "pendingConfig",
      "outputs": [
        {
          "internalType": "uint256",
          "name": "timelockLiveness",
          "type": "uint256"
        },
        {
          "components": [
            {
              "internalType": "uint256",
              "name": "rawValue",
              "type": "uint256"
            }
          ],
          "internalType": "struct FixedPoint.Unsigned",
          "name": "rewardRatePerSecond",
          "type": "tuple"
        },
        {
          "components": [
            {
              "internalType": "uint256",
              "name": "rawValue",
              "type": "uint256"
            }
          ],
          "internalType": "struct FixedPoint.Unsigned",
          "name": "proposerBondPct",
          "type": "tuple"
        },
        {
          "internalType": "uint256",
          "name": "proposalTimeFutureLimit",
          "type": "uint256"
        },
        {
          "internalType": "uint256",
          "name": "proposalTimePastLimit",
          "type": "uint256"
        }
      ],
      "stateMutability": "view",
      "type": "function"
    },
    {
      "inputs": [],
      "name": "pendingPassedTimestamp",
      "outputs": [
        {
          "internalType": "uint256",
          "name": "",
          "type": "uint256"
        }
      ],
      "stateMutability": "view",
      "type": "function"
    },
    {
      "inputs": [],
      "name": "renounceOwnership",
      "outputs": [],
      "stateMutability": "nonpayable",
      "type": "function"
    },
    {
      "inputs": [
        {
          "internalType": "uint256",
          "name": "time",
          "type": "uint256"
        }
      ],
      "name": "setCurrentTime",
      "outputs": [],
      "stateMutability": "nonpayable",
      "type": "function"
    },
    {
      "inputs": [],
      "name": "timerAddress",
      "outputs": [
        {
          "internalType": "address",
          "name": "",
          "type": "address"
        }
      ],
      "stateMutability": "view",
      "type": "function"
    },
    {
      "inputs": [
        {
          "internalType": "address",
          "name": "newOwner",
          "type": "address"
        }
      ],
      "name": "transferOwnership",
      "outputs": [],
      "stateMutability": "nonpayable",
      "type": "function"
    },
    {
      "inputs": [],
      "name": "getCurrentConfig",
      "outputs": [
        {
          "components": [
            {
              "internalType": "uint256",
              "name": "timelockLiveness",
              "type": "uint256"
            },
            {
              "components": [
                {
                  "internalType": "uint256",
                  "name": "rawValue",
                  "type": "uint256"
                }
              ],
              "internalType": "struct FixedPoint.Unsigned",
              "name": "rewardRatePerSecond",
              "type": "tuple"
            },
            {
              "components": [
                {
                  "internalType": "uint256",
                  "name": "rawValue",
                  "type": "uint256"
                }
              ],
              "internalType": "struct FixedPoint.Unsigned",
              "name": "proposerBondPct",
              "type": "tuple"
            },
            {
              "internalType": "uint256",
              "name": "proposalTimeFutureLimit",
              "type": "uint256"
            },
            {
              "internalType": "uint256",
              "name": "proposalTimePastLimit",
              "type": "uint256"
            }
          ],
          "internalType": "struct ConfigStoreInterface.ConfigSettings",
          "name": "",
          "type": "tuple"
        }
      ],
      "stateMutability": "view",
      "type": "function"
    },
    {
      "inputs": [
        {
          "components": [
            {
              "internalType": "uint256",
              "name": "timelockLiveness",
              "type": "uint256"
            },
            {
              "components": [
                {
                  "internalType": "uint256",
                  "name": "rawValue",
                  "type": "uint256"
                }
              ],
              "internalType": "struct FixedPoint.Unsigned",
              "name": "rewardRatePerSecond",
              "type": "tuple"
            },
            {
              "components": [
                {
                  "internalType": "uint256",
                  "name": "rawValue",
                  "type": "uint256"
                }
              ],
              "internalType": "struct FixedPoint.Unsigned",
              "name": "proposerBondPct",
              "type": "tuple"
            },
            {
              "internalType": "uint256",
              "name": "proposalTimeFutureLimit",
              "type": "uint256"
            },
            {
              "internalType": "uint256",
              "name": "proposalTimePastLimit",
              "type": "uint256"
            }
          ],
          "internalType": "struct ConfigStoreInterface.ConfigSettings",
          "name": "newConfig",
          "type": "tuple"
        }
      ],
      "name": "proposeNewConfig",
      "outputs": [],
      "stateMutability": "nonpayable",
      "type": "function"
    },
    {
      "inputs": [],
      "name": "publishPendingConfig",
      "outputs": [],
      "stateMutability": "nonpayable",
      "type": "function"
    }
  ],
  "bytecode": "0x60806040523480156200001157600080fd5b5060405162001324380380620013248339810160408190526200003491620003a6565b60008054600160a01b6001600160a01b03199091166001600160a01b0384161760ff60a01b191617815562000068620000ee565b600180546001600160a01b0319166001600160a01b038316908117909155604051919250906000907f8be0079c531659141344cd1fd0a4f28419497f9722a3daafe3b4186f6b6457e0908290a350620000c182620000f2565b508051600255602081015151600355604081015151600455606081015160055560800151600655620005a0565b3390565b805162093a80108015906200010b575080516201518011155b620001335760405162461bcd60e51b81526004016200012a9062000493565b60405180910390fd5b6200013d6200036b565b6200016f6127106200015b60046200021b60201b620005e91760201c565b6200025a60201b620006171790919060201c565b90506200018f8183604001516200029860201b620006431790919060201c565b620001ae5760405162461bcd60e51b81526004016200012a90620004ca565b620001b86200036b565b620001d7629896806200015b60216200021b60201b620005e91760201c565b9050620001f78184602001516200029860201b620006431790919060201c565b620002165760405162461bcd60e51b81526004016200012a9062000542565b505050565b620002256200036b565b604051806020016040528062000252670de0b6b3a7640000856200029f60201b6200064a1790919060201c565b905292915050565b620002646200036b565b60405180602001604052806200028d848660000151620002e660201b6200068b1790919060201c565b905290505b92915050565b5190511090565b600082620002b05750600062000292565b82820282848281620002be57fe5b0414620002df5760405162461bcd60e51b81526004016200012a9062000501565b9392505050565b6000620002df83836040518060400160405280601a81526020017f536166654d6174683a206469766973696f6e206279207a65726f0000000000008152506200033060201b60201c565b60008183620003545760405162461bcd60e51b81526004016200012a91906200043d565b5060008385816200036157fe5b0495945050505050565b6040518060200160405280600081525090565b60006020828403121562000390578081fd5b6200039c602062000579565b9151825250919050565b60008082840360c0811215620003ba578283fd5b60a0811215620003c8578283fd5b50620003d560a062000579565b83518152620003e885602086016200037e565b6020820152620003fc85604086016200037e565b6040820152606084810151908201526080808501519082015260a08401519092506001600160a01b038116811462000432578182fd5b809150509250929050565b6000602080835283518082850152825b818110156200046b578581018301518582016040015282016200044d565b818111156200047d5783604083870101525b50601f01601f1916929092016040019392505050565b60208082526018908201527f496e76616c69642074696d656c6f636b4c6976656e6573730000000000000000604082015260600190565b60208082526017908201527f496e76616c69642070726f706f736572426f6e64506374000000000000000000604082015260600190565b60208082526021908201527f536166654d6174683a206d756c7469706c69636174696f6e206f766572666c6f6040820152607760f81b606082015260800190565b6020808252601b908201527f496e76616c696420726577617264526174655065725365636f6e640000000000604082015260600190565b6040518181016001600160401b03811182821017156200059857600080fd5b604052919050565b610d7480620005b06000396000f3fe608060405234801561001057600080fd5b50600436106100a95760003560e01c8063715018a611610071578063715018a61461011357806373c6a2881461011b5780637888b8c8146101345780638da5cb5b14610147578063e6bde9131461014f578063f2fde38b14610157576100a9565b80631c39c38d146100ae57806322f8e566146100cc57806329cb924d146100e15780633950917f146100f65780634308aec1146100fe575b600080fd5b6100b661016a565b6040516100c39190610a36565b60405180910390f35b6100df6100da366004610a06565b610179565b005b6100e96101f3565b6040516100c39190610ca2565b6100e9610296565b61010661029c565b6040516100c39190610c66565b6100df610353565b6101236103db565b6040516100c3959493929190610cab565b6100df6101423660046109a5565b610407565b6100b6610501565b6100df610510565b6100df61016536600461097e565b610532565b6000546001600160a01b031681565b6000546001600160a01b031661018e57600080fd5b60005460405163117c72b360e11b81526001600160a01b03909116906322f8e566906101be908490600401610ca2565b600060405180830381600087803b1580156101d857600080fd5b505af11580156101ec573d6000803e3d6000fd5b5050505050565b600080546001600160a01b0316156102905760008054906101000a90046001600160a01b03166001600160a01b03166329cb924d6040518163ffffffff1660e01b815260040160206040518083038186803b15801561025157600080fd5b505afa158015610265573d6000803e3d6000fd5b505050506040513d601f19601f820116820180604052508101906102899190610a1e565b9050610293565b50425b90565b600c5481565b6102a461090b565b6102ac6106cd565b6102b46106f6565b1561030657506040805160a081018252600754815281516020818101845260085482528083019190915282519081018352600954815291810191909152600a546060820152600b546080820152610293565b506040805160a08101825260025481528151602081810184526003548252808301919091528251908101835260045481529181019190915260055460608201526006546080820152610293565b61035b610719565b6001546001600160a01b039081169116146103915760405162461bcd60e51b815260040161038890610bc3565b60405180910390fd5b6001546040516000916001600160a01b0316907f8be0079c531659141344cd1fd0a4f28419497f9722a3daafe3b4186f6b6457e0908390a3600180546001600160a01b0319169055565b6007546040805160208082018352600854825282519081019092526009548252600a54600b5491929185565b61040f610719565b6001546001600160a01b0390811691161461043c5760405162461bcd60e51b815260040161038890610bc3565b6104446106cd565b61044c61071d565b61045461072c565b61045d816107ae565b80516007556020810151516008556040810151516009556060810151600a556080810151600b55600254610499906104936101f3565b9061087a565b600c81905560208201515160408084015151845160608601516080870151935133967f1672538d17a3047151047aa39be0a6ecc56d146b41ff74f814cea59f12b1c078966104ee969095949392909190610cef565b60405180910390a26104fe61089f565b50565b6001546001600160a01b031690565b6105186106cd565b61052061071d565b61052861072c565b61053061089f565b565b61053a610719565b6001546001600160a01b039081169116146105675760405162461bcd60e51b815260040161038890610bc3565b6001600160a01b03811661058d5760405162461bcd60e51b815260040161038890610a9d565b6001546040516001600160a01b038084169216907f8be0079c531659141344cd1fd0a4f28419497f9722a3daafe3b4186f6b6457e090600090a3600180546001600160a01b0319166001600160a01b0392909216919091179055565b6105f1610946565b60408051602081019091528061060f84670de0b6b3a764000061064a565b905292915050565b61061f610946565b604080516020810190915283518190610638908561068b565b905290505b92915050565b5190511090565b6000826106595750600061063d565b8282028284828161066657fe5b04146106845760405162461bcd60e51b815260040161038890610b82565b9392505050565b600061068483836040518060400160405280601a81526020017f536166654d6174683a206469766973696f6e206279207a65726f0000000000008152506108b4565b600054600160a01b900460ff166105305760405162461bcd60e51b815260040161038890610c2f565b6000600c54600014158015610714575061070e6101f3565b600c5411155b905090565b3390565b6000805460ff60a01b19169055565b6107346106f6565b1561053057600754600255600854600355600954600455600a54600555600b5460065561075f6108eb565b6003546004546002546005546006546040517f8df0fc680f9b590b8c29bb5c958b17ddf98809c56df608cedfa5e496b6d9161d956107a4959094909390929091610ccc565b60405180910390a1565b805162093a80108015906107c6575080516201518011155b6107e25760405162461bcd60e51b815260040161038890610b1a565b6107ea610946565b6108006127106107fa60046105e9565b90610617565b60408301519091506108129082610643565b61082e5760405162461bcd60e51b815260040161038890610b51565b610836610946565b610847629896806107fa60216105e9565b60208401519091506108599082610643565b6108755760405162461bcd60e51b815260040161038890610bf8565b505050565b6000828201838110156106845760405162461bcd60e51b815260040161038890610ae3565b6000805460ff60a01b1916600160a01b179055565b600081836108d55760405162461bcd60e51b81526004016103889190610a4a565b5060008385816108e157fe5b0495945050505050565b6000600781905560088190556009819055600a819055600b819055600c55565b6040518060a0016040528060008152602001610925610946565b8152602001610932610946565b815260200160008152602001600081525090565b6040518060200160405280600081525090565b60006020828403121561096a578081fd5b6109746020610d17565b9135825250919050565b60006020828403121561098f578081fd5b81356001600160a01b0381168114610684578182fd5b600060a082840312156109b6578081fd5b6109c060a0610d17565b823581526109d18460208501610959565b60208201526109e38460408501610959565b604082015260608301356060820152608083013560808201528091505092915050565b600060208284031215610a17578081fd5b5035919050565b600060208284031215610a2f578081fd5b5051919050565b6001600160a01b0391909116815260200190565b6000602080835283518082850152825b81811015610a7657858101830151858201604001528201610a5a565b81811115610a875783604083870101525b50601f01601f1916929092016040019392505050565b60208082526026908201527f4f776e61626c653a206e6577206f776e657220697320746865207a65726f206160408201526564647265737360d01b606082015260800190565b6020808252601b908201527f536166654d6174683a206164646974696f6e206f766572666c6f770000000000604082015260600190565b60208082526018908201527f496e76616c69642074696d656c6f636b4c6976656e6573730000000000000000604082015260600190565b602080825260179082015276125b9d985b1a59081c1c9bdc1bdcd95c909bdb991418dd604a1b604082015260600190565b60208082526021908201527f536166654d6174683a206d756c7469706c69636174696f6e206f766572666c6f6040820152607760f81b606082015260800190565b6020808252818101527f4f776e61626c653a2063616c6c6572206973206e6f7420746865206f776e6572604082015260600190565b6020808252601b908201527f496e76616c696420726577617264526174655065725365636f6e640000000000604082015260600190565b6020808252601f908201527f5265656e7472616e637947756172643a207265656e7472616e742063616c6c00604082015260600190565b600060a0820190508251825260208301515160208301526040830151516040830152606083015160608301526080830151608083015292915050565b90815260200190565b94855292516020850152905160408401526060830152608082015260a00190565b948552602085019390935260408401919091526060830152608082015260a00190565b958652602086019490945260408501929092526060840152608083015260a082015260c00190565b60405181810167ffffffffffffffff81118282101715610d3657600080fd5b60405291905056fea2646970667358221220ca50d93b8f860de0d539daea6986c3be87f3688cf8f8293ee4aed9240743528664736f6c634300060c0033",
  "immutableReferences": {},
  "source": "// SPDX-License-Identifier: AGPL-3.0-only\npragma solidity ^0.6.0;\npragma experimental ABIEncoderV2;\n\nimport \"@openzeppelin/contracts/math/SafeMath.sol\";\nimport \"@openzeppelin/contracts/access/Ownable.sol\";\n\nimport \"./ConfigStoreInterface.sol\";\nimport \"../../common/implementation/Testable.sol\";\nimport \"../../common/implementation/Lockable.sol\";\nimport \"../../common/implementation/FixedPoint.sol\";\n\n/**\n * @notice ConfigStore stores configuration settings for a perpetual contract and provides and interface for it\n * to query settings such as reward rates, proposal bond sizes, etc. The configuration settings can be upgraded\n * by a privileged account and the upgraded changes are timelocked.\n */\ncontract ConfigStore is ConfigStoreInterface, Testable, Lockable, Ownable {\n    using SafeMath for uint256;\n    using FixedPoint for FixedPoint.Unsigned;\n\n    /****************************************\n     *        STORE DATA STRUCTURES         *\n     ****************************************/\n\n    // Make currentConfig private to force user to call getCurrentConfig, which returns the pendingConfig\n    // if its liveness has expired.\n    ConfigStoreInterface.ConfigSettings private currentConfig;\n\n    // Beginning on `pendingPassedTimestamp`, the `pendingConfig` can be published as the current config.\n    ConfigStoreInterface.ConfigSettings public pendingConfig;\n    uint256 public pendingPassedTimestamp;\n\n    /****************************************\n     *                EVENTS                *\n     ****************************************/\n\n    event ProposedNewConfigSettings(\n        address indexed proposer,\n        uint256 rewardRate,\n        uint256 proposerBond,\n        uint256 timelockLiveness,\n        uint256 proposalTimeFutureLimit,\n        uint256 proposalTimePastLimit,\n        uint256 proposalPassedTimestamp\n    );\n    event ChangedConfigSettings(\n        uint256 rewardRate,\n        uint256 proposerBond,\n        uint256 timelockLiveness,\n        uint256 proposalTimeFutureLimit,\n        uint256 proposalTimePastLimit\n    );\n\n    /****************************************\n     *                MODIFIERS             *\n     ****************************************/\n\n    // Update config settings if possible.\n    modifier updateConfig() {\n        _updateConfig();\n        _;\n    }\n\n    /**\n     * @notice Propose new configuration settings. New settings go into effect\n     * after a liveness period passes.\n     * @param _initialConfig Configuration settings to initialize `currentConfig` with.\n     * @param _timerAddress Address of testable Timer contract.\n     */\n    constructor(ConfigSettings memory _initialConfig, address _timerAddress) public Testable(_timerAddress) {\n        _validateConfig(_initialConfig);\n        currentConfig = _initialConfig;\n    }\n\n    /**\n     * @notice Returns current config or pending config if pending liveness has expired.\n     * @return ConfigSettings config settings that calling financial contract should view as \"live\".\n     */\n    function getCurrentConfig()\n        external\n        view\n        override\n        nonReentrantView()\n        returns (ConfigStoreInterface.ConfigSettings memory)\n    {\n        if (_pendingProposalPassed()) {\n            return pendingConfig;\n        } else {\n            return currentConfig;\n        }\n    }\n\n    /**\n     * @notice Propose new configuration settings. New settings go into effect\n     * after a liveness period passes.\n     * @param newConfig Configuration settings to publish after `currentConfig.timelockLiveness` passes from now.\n     * @dev Callable only by owner. Calling this while there is already a pending proposal\n     * will overwrite the pending proposal.\n     */\n    function proposeNewConfig(ConfigSettings memory newConfig) external onlyOwner() nonReentrant() updateConfig() {\n        _validateConfig(newConfig);\n\n        // Warning: This overwrites a pending proposal!\n        pendingConfig = newConfig;\n\n        // Use current config's liveness period to timelock this proposal.\n        pendingPassedTimestamp = getCurrentTime().add(currentConfig.timelockLiveness);\n\n        emit ProposedNewConfigSettings(\n            msg.sender,\n            newConfig.rewardRatePerSecond.rawValue,\n            newConfig.proposerBondPct.rawValue,\n            newConfig.timelockLiveness,\n            newConfig.proposalTimeFutureLimit,\n            newConfig.proposalTimePastLimit,\n            pendingPassedTimestamp\n        );\n    }\n\n    function publishPendingConfig() external nonReentrant() updateConfig() {}\n\n    /****************************************\n     *         INTERNAL FUNCTIONS           *\n     ****************************************/\n\n    // Check if pending proposal can overwrite the current config.\n    function _updateConfig() internal {\n        // If liveness has passed, publish new reward rate.\n        if (_pendingProposalPassed()) {\n            currentConfig = pendingConfig;\n\n            _deletePendingConfig();\n\n            emit ChangedConfigSettings(\n                currentConfig.rewardRatePerSecond.rawValue,\n                currentConfig.proposerBondPct.rawValue,\n                currentConfig.timelockLiveness,\n                currentConfig.proposalTimeFutureLimit,\n                currentConfig.proposalTimePastLimit\n            );\n        }\n    }\n\n    function _deletePendingConfig() internal {\n        delete pendingConfig;\n        pendingPassedTimestamp = 0;\n    }\n\n    function _pendingProposalPassed() internal view returns (bool) {\n        return (pendingPassedTimestamp != 0 && pendingPassedTimestamp <= getCurrentTime());\n    }\n\n    // Use this method to constrain values with which you can set ConfigSettings.\n    function _validateConfig(ConfigStoreInterface.ConfigSettings memory config) internal pure {\n        // Its hard to ascertain what are reasonable limits, into the future and the past, for proposal timestamps.\n        // So, we do not set any limits.\n\n        // Make sure timelockLiveness is not too long, otherwise contract can might not be able to fix itself\n        // before a vulnerability drains its collateral.\n        require(config.timelockLiveness <= 7 days && config.timelockLiveness >= 1 days, \"Invalid timelockLiveness\");\n\n        // Upper limits for the reward and bond rates are estimated based on offline discussions,\n        // and it is expected that these hard-coded limits can change in future deployments.\n        // For a discussion thread, go [here](https://github.com/UMAprotocol/protocol/pull/2223#discussion_r530692149).\n\n        // Proposer bond of 0.04% is based on a maximum expected funding rate error of 200%/year.\n        FixedPoint.Unsigned memory maxProposerBond = FixedPoint.fromUnscaledUint(4).div(1e4);\n        require(config.proposerBondPct.isLessThan(maxProposerBond), \"Invalid proposerBondPct\");\n\n        // Reward rate should be less than 100% a year => 100% / 360 days / 24 hours / 60 mins / 60 secs\n        // = 0.0000033\n        FixedPoint.Unsigned memory maxRewardRatePerSecond = FixedPoint.fromUnscaledUint(33).div(1e7);\n        require(config.rewardRatePerSecond.isLessThan(maxRewardRatePerSecond), \"Invalid rewardRatePerSecond\");\n    }\n}\n",
  "sourcePath": "/Users/matt/git/protocol/packages/core/contracts/financial-templates/perpetual-multiparty/ConfigStore.sol",
  "compiler": {
    "name": "solc",
    "version": "0.6.12+commit.27d51765.Emscripten.clang"
  },
  "schemaVersion": "3.2.3",
  "updatedAt": "2020-12-04T19:07:26.466Z",
  "devdoc": {
    "kind": "dev",
    "methods": {
      "constructor": {
        "params": {
          "_initialConfig": "Configuration settings to initialize `currentConfig` with.",
          "_timerAddress": "Address of testable Timer contract."
        }
      },
      "getCurrentConfig()": {
        "returns": {
          "_0": "ConfigSettings config settings that calling financial contract should view as \"live\"."
        }
      },
      "getCurrentTime()": {
        "returns": {
          "_0": "uint for the current Testable timestamp."
        }
      },
      "owner()": {
        "details": "Returns the address of the current owner."
      },
      "proposeNewConfig((uint256,(uint256),(uint256),uint256,uint256))": {
        "details": "Callable only by owner. Calling this while there is already a pending proposal will overwrite the pending proposal.",
        "params": {
          "newConfig": "Configuration settings to publish after `currentConfig.timelockLiveness` passes from now."
        }
      },
      "renounceOwnership()": {
        "details": "Leaves the contract without owner. It will not be possible to call `onlyOwner` functions anymore. Can only be called by the current owner. NOTE: Renouncing ownership will leave the contract without an owner, thereby removing any functionality that is only available to the owner."
      },
      "setCurrentTime(uint256)": {
        "details": "Will revert if not running in test mode.",
        "params": {
          "time": "timestamp to set current Testable time to."
        }
      },
      "transferOwnership(address)": {
        "details": "Transfers ownership of the contract to a new account (`newOwner`). Can only be called by the current owner."
      }
    },
    "version": 1
  },
  "userdoc": {
    "kind": "user",
    "methods": {
      "constructor": "Propose new configuration settings. New settings go into effect after a liveness period passes.",
      "getCurrentConfig()": {
        "notice": "Returns current config or pending config if pending liveness has expired."
      },
      "getCurrentTime()": {
        "notice": "Gets the current time. Will return the last time set in `setCurrentTime` if running in test mode. Otherwise, it will return the block timestamp."
      },
      "proposeNewConfig((uint256,(uint256),(uint256),uint256,uint256))": {
        "notice": "Propose new configuration settings. New settings go into effect after a liveness period passes."
      },
      "setCurrentTime(uint256)": {
        "notice": "Sets the current time."
      }
    },
    "notice": "ConfigStore stores configuration settings for a perpetual contract and provides and interface for it to query settings such as reward rates, proposal bond sizes, etc. The configuration settings can be upgraded by a privileged account and the upgraded changes are timelocked.",
    "version": 1
  }
}