{
  "contractName": "Finder",
  "abi": [
    {
      "anonymous": false,
      "inputs": [
        {
          "indexed": true,
          "internalType": "bytes32",
          "name": "interfaceName",
          "type": "bytes32"
        },
        {
          "indexed": true,
          "internalType": "address",
          "name": "newImplementationAddress",
          "type": "address"
        }
      ],
      "name": "InterfaceImplementationChanged",
      "type": "event"
    },
    {
      "anonymous": false,
      "inputs": [
        {
          "indexed": true,
          "internalType": "address",
          "name": "previousOwner",
          "type": "address"
        },
        {
          "indexed": true,
          "internalType": "address",
          "name": "newOwner",
          "type": "address"
        }
      ],
      "name": "OwnershipTransferred",
      "type": "event"
    },
    {
      "inputs": [
        {
          "internalType": "bytes32",
          "name": "",
          "type": "bytes32"
        }
      ],
      "name": "interfacesImplemented",
      "outputs": [
        {
          "internalType": "address",
          "name": "",
          "type": "address"
        }
      ],
      "stateMutability": "view",
      "type": "function"
    },
    {
      "inputs": [],
      "name": "owner",
      "outputs": [
        {
          "internalType": "address",
          "name": "",
          "type": "address"
        }
      ],
      "stateMutability": "view",
      "type": "function"
    },
    {
      "inputs": [],
      "name": "renounceOwnership",
      "outputs": [],
      "stateMutability": "nonpayable",
      "type": "function"
    },
    {
      "inputs": [
        {
          "internalType": "address",
          "name": "newOwner",
          "type": "address"
        }
      ],
      "name": "transferOwnership",
      "outputs": [],
      "stateMutability": "nonpayable",
      "type": "function"
    },
    {
      "inputs": [
        {
          "internalType": "bytes32",
          "name": "interfaceName",
          "type": "bytes32"
        },
        {
          "internalType": "address",
          "name": "implementationAddress",
          "type": "address"
        }
      ],
      "name": "changeImplementationAddress",
      "outputs": [],
      "stateMutability": "nonpayable",
      "type": "function"
    },
    {
      "inputs": [
        {
          "internalType": "bytes32",
          "name": "interfaceName",
          "type": "bytes32"
        }
      ],
      "name": "getImplementationAddress",
      "outputs": [
        {
          "internalType": "address",
          "name": "",
          "type": "address"
        }
      ],
      "stateMutability": "view",
      "type": "function"
    }
  ],
  "bytecode": "0x608060405234801561001057600080fd5b50600061001b61006a565b600080546001600160a01b0319166001600160a01b0383169081178255604051929350917f8be0079c531659141344cd1fd0a4f28419497f9722a3daafe3b4186f6b6457e0908290a35061006e565b3390565b61049c8061007d6000396000f3fe608060405234801561001057600080fd5b50600436106100625760003560e01c806331f9665e14610067578063715018a6146100955780638da5cb5b1461009d578063aafd5e40146100c1578063cc48f4db146100de578063f2fde38b146100fb575b600080fd5b6100936004803603604081101561007d57600080fd5b50803590602001356001600160a01b0316610121565b005b6100936101e4565b6100a5610298565b604080516001600160a01b039092168252519081900360200190f35b6100a5600480360360208110156100d757600080fd5b50356102a7565b6100a5600480360360208110156100f457600080fd5b5035610317565b6100936004803603602081101561011157600080fd5b50356001600160a01b0316610332565b61012961043c565b6000546001600160a01b0390811691161461018b576040805162461bcd60e51b815260206004820181905260248201527f4f776e61626c653a2063616c6c6572206973206e6f7420746865206f776e6572604482015290519081900360640190fd5b60008281526001602052604080822080546001600160a01b0319166001600160a01b0385169081179091559051909184917fb29aa13e555039289e0513962835b00fcc6e4a265ae8f99e68e5b90d5406fe489190a35050565b6101ec61043c565b6000546001600160a01b0390811691161461024e576040805162461bcd60e51b815260206004820181905260248201527f4f776e61626c653a2063616c6c6572206973206e6f7420746865206f776e6572604482015290519081900360640190fd5b600080546040516001600160a01b03909116907f8be0079c531659141344cd1fd0a4f28419497f9722a3daafe3b4186f6b6457e0908390a3600080546001600160a01b0319169055565b6000546001600160a01b031690565b6000818152600160205260408120546001600160a01b031680610311576040805162461bcd60e51b815260206004820152601860248201527f496d706c656d656e746174696f6e206e6f7420666f756e640000000000000000604482015290519081900360640190fd5b92915050565b6001602052600090815260409020546001600160a01b031681565b61033a61043c565b6000546001600160a01b0390811691161461039c576040805162461bcd60e51b815260206004820181905260248201527f4f776e61626c653a2063616c6c6572206973206e6f7420746865206f776e6572604482015290519081900360640190fd5b6001600160a01b0381166103e15760405162461bcd60e51b81526004018080602001828103825260268152602001806104416026913960400191505060405180910390fd5b600080546040516001600160a01b03808516939216917f8be0079c531659141344cd1fd0a4f28419497f9722a3daafe3b4186f6b6457e091a3600080546001600160a01b0319166001600160a01b0392909216919091179055565b339056fe4f776e61626c653a206e6577206f776e657220697320746865207a65726f2061646472657373a26469706673582212208cead3c1ef931792a82f65a69eb5b1ae80a417220849b3d2bbc6e3ff159a59b064736f6c634300060c0033",
  "immutableReferences": {},
  "source": "// SPDX-License-Identifier: AGPL-3.0-only\npragma solidity ^0.6.0;\n\nimport \"@openzeppelin/contracts/access/Ownable.sol\";\nimport \"../interfaces/FinderInterface.sol\";\n\n/**\n * @title Provides addresses of the live contracts implementing certain interfaces.\n * @dev Examples of interfaces with implementations that Finder locates are the Oracle and Store interfaces.\n */\ncontract Finder is FinderInterface, Ownable {\n    mapping(bytes32 => address) public interfacesImplemented;\n\n    event InterfaceImplementationChanged(bytes32 indexed interfaceName, address indexed newImplementationAddress);\n\n    /**\n     * @notice Updates the address of the contract that implements `interfaceName`.\n     * @param interfaceName bytes32 of the interface name that is either changed or registered.\n     * @param implementationAddress address of the implementation contract.\n     */\n    function changeImplementationAddress(bytes32 interfaceName, address implementationAddress)\n        external\n        override\n        onlyOwner\n    {\n        interfacesImplemented[interfaceName] = implementationAddress;\n\n        emit InterfaceImplementationChanged(interfaceName, implementationAddress);\n    }\n\n    /**\n     * @notice Gets the address of the contract that implements the given `interfaceName`.\n     * @param interfaceName queried interface.\n     * @return implementationAddress address of the defined interface.\n     */\n    function getImplementationAddress(bytes32 interfaceName) external view override returns (address) {\n        address implementationAddress = interfacesImplemented[interfaceName];\n        require(implementationAddress != address(0x0), \"Implementation not found\");\n        return implementationAddress;\n    }\n}\n",
  "sourcePath": "/Users/matt/git/protocol/packages/core/contracts/oracle/implementation/Finder.sol",
  "compiler": {
    "name": "solc",
    "version": "0.6.12+commit.27d51765.Emscripten.clang"
  },
  "schemaVersion": "3.2.3",
  "updatedAt": "2020-12-19T00:15:24.433Z",
  "devdoc": {
    "details": "Examples of interfaces with implementations that Finder locates are the Oracle and Store interfaces.",
    "kind": "dev",
    "methods": {
      "changeImplementationAddress(bytes32,address)": {
        "params": {
          "implementationAddress": "address of the implementation contract.",
          "interfaceName": "bytes32 of the interface name that is either changed or registered."
        }
      },
      "getImplementationAddress(bytes32)": {
        "params": {
          "interfaceName": "queried interface."
        },
        "returns": {
          "_0": "implementationAddress address of the defined interface."
        }
      },
      "owner()": {
        "details": "Returns the address of the current owner."
      },
      "renounceOwnership()": {
        "details": "Leaves the contract without owner. It will not be possible to call `onlyOwner` functions anymore. Can only be called by the current owner. NOTE: Renouncing ownership will leave the contract without an owner, thereby removing any functionality that is only available to the owner."
      },
      "transferOwnership(address)": {
        "details": "Transfers ownership of the contract to a new account (`newOwner`). Can only be called by the current owner."
      }
    },
    "title": "Provides addresses of the live contracts implementing certain interfaces.",
    "version": 1
  },
  "userdoc": {
    "kind": "user",
    "methods": {
      "changeImplementationAddress(bytes32,address)": {
        "notice": "Updates the address of the contract that implements `interfaceName`."
      },
      "getImplementationAddress(bytes32)": {
        "notice": "Gets the address of the contract that implements the given `interfaceName`."
      }
    },
    "version": 1
  }
}