{
  "contractName": "FundingRateApplierTest",
  "abi": [
    {
      "inputs": [
        {
          "internalType": "address",
          "name": "_fpFinderAddress",
          "type": "address"
        },
        {
          "internalType": "address",
          "name": "_timerAddress",
          "type": "address"
        },
        {
          "components": [
            {
              "internalType": "uint256",
              "name": "rawValue",
              "type": "uint256"
            }
          ],
          "internalType": "struct FixedPoint.Unsigned",
          "name": "_rewardRate",
          "type": "tuple"
        }
      ],
      "stateMutability": "nonpayable",
      "type": "constructor"
    },
    {
      "anonymous": false,
      "inputs": [
        {
          "indexed": true,
          "internalType": "uint256",
          "name": "newMultiplier",
          "type": "uint256"
        },
        {
          "indexed": false,
          "internalType": "uint256",
          "name": "lastUpdateTime",
          "type": "uint256"
        },
        {
          "indexed": false,
          "internalType": "uint256",
          "name": "updateTime",
          "type": "uint256"
        },
        {
          "indexed": true,
          "internalType": "uint256",
          "name": "paymentPeriod",
          "type": "uint256"
        },
        {
          "indexed": true,
          "internalType": "int256",
          "name": "latestFundingRate",
          "type": "int256"
        },
        {
          "indexed": false,
          "internalType": "int256",
          "name": "periodRate",
          "type": "int256"
        }
      ],
      "name": "NewFundingRate",
      "type": "event"
    },
    {
      "inputs": [],
      "name": "cumulativeFundingRateMultiplier",
      "outputs": [
        {
          "internalType": "uint256",
          "name": "rawValue",
          "type": "uint256"
        }
      ],
      "stateMutability": "view",
      "type": "function"
    },
    {
      "inputs": [],
      "name": "getCurrentTime",
      "outputs": [
        {
          "internalType": "uint256",
          "name": "",
          "type": "uint256"
        }
      ],
      "stateMutability": "view",
      "type": "function"
    },
    {
      "inputs": [],
      "name": "lastUpdateTime",
      "outputs": [
        {
          "internalType": "uint256",
          "name": "",
          "type": "uint256"
        }
      ],
      "stateMutability": "view",
      "type": "function"
    },
    {
      "inputs": [
        {
          "internalType": "uint256",
          "name": "time",
          "type": "uint256"
        }
      ],
      "name": "setCurrentTime",
      "outputs": [],
      "stateMutability": "nonpayable",
      "type": "function"
    },
    {
      "inputs": [],
      "name": "timerAddress",
      "outputs": [
        {
          "internalType": "address",
          "name": "",
          "type": "address"
        }
      ],
      "stateMutability": "view",
      "type": "function"
    },
    {
      "inputs": [],
      "name": "applyFundingRate",
      "outputs": [],
      "stateMutability": "nonpayable",
      "type": "function"
    },
    {
      "inputs": [
        {
          "internalType": "uint256",
          "name": "paymentPeriodSeconds",
          "type": "uint256"
        },
        {
          "components": [
            {
              "internalType": "int256",
              "name": "rawValue",
              "type": "int256"
            }
          ],
          "internalType": "struct FixedPoint.Signed",
          "name": "fundingRatePerSecond",
          "type": "tuple"
        },
        {
          "components": [
            {
              "internalType": "uint256",
              "name": "rawValue",
              "type": "uint256"
            }
          ],
          "internalType": "struct FixedPoint.Unsigned",
          "name": "currentCumulativeFundingRateMultiplier",
          "type": "tuple"
        }
      ],
      "name": "calculateEffectiveFundingRate",
      "outputs": [
        {
          "components": [
            {
              "internalType": "uint256",
              "name": "rawValue",
              "type": "uint256"
            }
          ],
          "internalType": "struct FixedPoint.Unsigned",
          "name": "",
          "type": "tuple"
        },
        {
          "components": [
            {
              "internalType": "int256",
              "name": "rawValue",
              "type": "int256"
            }
          ],
          "internalType": "struct FixedPoint.Signed",
          "name": "",
          "type": "tuple"
        }
      ],
      "stateMutability": "pure",
      "type": "function"
    }
  ],
  "bytecode": "0x60806040523480156200001157600080fd5b5060405162000f1b38038062000f1b83398101604081905262000034916200032d565b6000805460ff60a01b196001600160a01b038086166001600160a01b03199384161791909116600160a01b17909255600180549286169290911691909117905582816200008062000119565b6002819055506200009d6001620001c260201b6200026c1760201c565b51600355620000ab62000201565b6001600160a01b031663eb9c7de130836040518363ffffffff1660e01b8152600401620000da929190620003c1565b600060405180830381600087803b158015620000f557600080fd5b505af11580156200010a573d6000803e3d6000fd5b50505050505050505062000438565b600080546001600160a01b031615620001bc5760008054906101000a90046001600160a01b03166001600160a01b03166329cb924d6040518163ffffffff1660e01b815260040160206040518083038186803b1580156200017957600080fd5b505afa1580156200018e573d6000803e3d6000fd5b505050506040513d601f19601f82011682018060405250810190620001b49190620003a8565b9050620001bf565b50425b90565b620001cc620002dd565b6040518060200160405280620001f9670de0b6b3a7640000856200028b60201b6200029a1790919060201c565b905292915050565b6001546040516302abf57960e61b81526000916001600160a01b03169063aafd5e40906200023290600401620003db565b60206040518083038186803b1580156200024b57600080fd5b505afa15801562000260573d6000803e3d6000fd5b505050506040513d601f19601f8201168201806040525081019062000286919062000308565b905090565b6000826200029c57506000620002d7565b82820282848281620002aa57fe5b0414620002d45760405162461bcd60e51b8152600401620002cb90620003f7565b60405180910390fd5b90505b92915050565b6040518060200160405280600081525090565b80516001600160a01b0381168114620002d757600080fd5b6000602082840312156200031a578081fd5b620003268383620002f0565b9392505050565b6000806000838503606081121562000343578283fd5b6200034f8686620002f0565b9350620003608660208701620002f0565b92506020603f198201121562000374578182fd5b50604051602081016001600160401b038111828210171562000394578283fd5b604090815294909401518452509093909250565b600060208284031215620003ba578081fd5b5051919050565b6001600160a01b0392909216825251602082015260400190565b6f46756e64696e675261746553746f726560801b815260200190565b60208082526021908201527f536166654d6174683a206d756c7469706c69636174696f6e206f766572666c6f6040820152607760f81b606082015260800190565b610ad380620004486000396000f3fe608060405234801561001057600080fd5b506004361061007d5760003560e01c806371f3c1b71161005b57806371f3c1b7146100ca5780637b4ff673146100d2578063c8aa07bd146100da578063c8f33c91146100fb5761007d565b80631c39c38d1461008257806322f8e566146100a057806329cb924d146100b5575b600080fd5b61008a610103565b6040516100979190610882565b60405180910390f35b6100b36100ae3660046107e8565b610112565b005b6100bd61018c565b6040516100979190610a57565b6100b361022f565b6100bd610239565b6100ed6100e8366004610818565b61023f565b604051610097929190610a47565b6100bd610266565b6000546001600160a01b031681565b6000546001600160a01b031661012757600080fd5b60005460405163117c72b360e11b81526001600160a01b03909116906322f8e56690610157908490600401610a57565b600060405180830381600087803b15801561017157600080fd5b505af1158015610185573d6000803e3d6000fd5b5050505050565b600080546001600160a01b0316156102295760008054906101000a90046001600160a01b03166001600160a01b03166329cb924d6040518163ffffffff1660e01b815260040160206040518083038186803b1580156101ea57600080fd5b505afa1580156101fe573d6000803e3d6000fd5b505050506040513d601f19601f820116820180604052508101906102229190610800565b905061022c565b50425b90565b6102376102e6565b565b60035481565b610247610789565b61024f610789565b61025a85858561039e565b91509150935093915050565b60025481565b610274610789565b60408051602081019091528061029284670de0b6b3a764000061029a565b905292915050565b6000826102a9575060006102e0565b828202828482816102b657fe5b04146102dd5760405162461bcd60e51b81526004016102d490610977565b60405180910390fd5b90505b92915050565b60006102f061018c565b905060006103096002548361042790919063ffffffff16565b9050610313610789565b61031b610469565b9050610325610789565b61034683610331610469565b6040805160208101909152600354815261039e565b905160038190558351600254835160405194955091938793927f85626a4cfe9721bff91d77d9aebdab162813c94d50d297243967db6866ac9fb69261038e9290918b91610a60565b60405180910390a4505050600255565b6103a6610789565b6103ae610789565b6103b6610789565b6103c060016104f9565b90506103d56103ce8761051f565b8690610548565b91506103df610789565b6103e98284610572565b90506103f3610789565b61040e6104098361040460006104f9565b610595565b6105b3565b905061041a86826105f0565b9450505050935093915050565b60006102dd83836040518060400160405280601e81526020017f536166654d6174683a207375627472616374696f6e206f766572666c6f77000081525061062d565b610471610789565b610479610659565b6001600160a01b03166324b41f68306040518263ffffffff1660e01b81526004016104a49190610882565b60206040518083038186803b1580156104bc57600080fd5b505afa1580156104d0573d6000803e3d6000fd5b505050506040513d601f19601f820116820180604052508101906104f491906107c3565b905090565b610501610789565b60408051602081019091528061029284670de0b6b3a76400006106d8565b6000600160ff1b82106105445760405162461bcd60e51b81526004016102d4906109ff565b5090565b610550610789565b60408051602081019091528351819061056990856106d8565b90529392505050565b61057a610789565b60408051602081019091528251845182916105699190610743565b61059d610789565b81518351136105ac57816102dd565b5090919050565b6105bb610789565b8151600013156105dd5760405162461bcd60e51b81526004016102d490610946565b5060408051602081019091529051815290565b6105f8610789565b6040805160208101909152825184518291670de0b6b3a76400009161061c9161029a565b8161062357fe5b0490529392505050565b600081848411156106515760405162461bcd60e51b81526004016102d49190610896565b505050900390565b6001546040516302abf57960e61b81526000916001600160a01b03169063aafd5e4090610688906004016108e9565b60206040518083038186803b1580156106a057600080fd5b505afa1580156106b4573d6000803e3d6000fd5b505050506040513d601f19601f820116820180604052508101906104f4919061079c565b6000826106e7575060006102e0565b826000191480156106fb5750600160ff1b82145b156107185760405162461bcd60e51b81526004016102d4906109b8565b8282028284828161072557fe5b05146102dd5760405162461bcd60e51b81526004016102d4906109b8565b60008282018183128015906107585750838112155b8061076d575060008312801561076d57508381125b6102dd5760405162461bcd60e51b81526004016102d490610905565b6040518060200160405280600081525090565b6000602082840312156107ad578081fd5b81516001600160a01b03811681146102dd578182fd5b6000602082840312156107d4578081fd5b6107de6020610a76565b9151825250919050565b6000602082840312156107f9578081fd5b5035919050565b600060208284031215610811578081fd5b5051919050565b6000806000838503606081121561082d578283fd5b843593506020601f1982011215610842578283fd5b61084c6020610a76565b6020868101358252909350603f1982011215610866578182fd5b506108716020610a76565b604094909401358452509093909250565b6001600160a01b0391909116815260200190565b6000602080835283518082850152825b818110156108c2578581018301518582016040015282016108a6565b818111156108d35783604083870101525b50601f01601f1916929092016040019392505050565b6f46756e64696e675261746553746f726560801b815260200190565b60208082526021908201527f5369676e6564536166654d6174683a206164646974696f6e206f766572666c6f6040820152607760f81b606082015260800190565b602080825260179082015276139959d85d1a5d99481d985b1d59481c1c9bdd9a591959604a1b604082015260600190565b60208082526021908201527f536166654d6174683a206d756c7469706c69636174696f6e206f766572666c6f6040820152607760f81b606082015260800190565b60208082526027908201527f5369676e6564536166654d6174683a206d756c7469706c69636174696f6e206f604082015266766572666c6f7760c81b606082015260800190565b60208082526028908201527f53616665436173743a2076616c756520646f65736e27742066697420696e2061604082015267371034b73a191a9b60c11b606082015260800190565b9151825251602082015260400190565b90815260200190565b9283526020830191909152604082015260600190565b60405181810167ffffffffffffffff81118282101715610a9557600080fd5b60405291905056fea2646970667358221220fefb9adf31be5bfa2aa406b174808b49d067741cf9b46d8fcd001671e1b0d7f364736f6c634300060c0033",
  "immutableReferences": {},
  "source": "// SPDX-License-Identifier: AGPL-3.0-only\npragma solidity ^0.6.0;\n\npragma experimental ABIEncoderV2;\n\nimport \"../common/FundingRateApplier.sol\";\n\n// Implements FundingRateApplier internal methods to enable unit testing.\ncontract FundingRateApplierTest is FundingRateApplier {\n    constructor(\n        address _fpFinderAddress,\n        address _timerAddress,\n        FixedPoint.Unsigned memory _rewardRate\n    ) public Testable(_timerAddress) FundingRateApplier(_fpFinderAddress, _rewardRate) {}\n\n    function applyFundingRate() public {\n        _applyEffectiveFundingRate();\n    }\n\n    function calculateEffectiveFundingRate(\n        uint256 paymentPeriodSeconds,\n        FixedPoint.Signed memory fundingRatePerSecond,\n        FixedPoint.Unsigned memory currentCumulativeFundingRateMultiplier\n    ) public pure returns (FixedPoint.Unsigned memory, FixedPoint.Signed memory) {\n        return\n            _calculateEffectiveFundingRate(\n                paymentPeriodSeconds,\n                fundingRatePerSecond,\n                currentCumulativeFundingRateMultiplier\n            );\n    }\n}\n",
  "sourcePath": "/Users/matt/git/protocol/packages/core/contracts/financial-templates/test/FundingRateApplierTest.sol",
  "compiler": {
    "name": "solc",
    "version": "0.6.12+commit.27d51765.Emscripten.clang"
  },
  "schemaVersion": "3.2.3",
  "updatedAt": "2020-12-19T00:28:52.669Z",
  "devdoc": {
    "kind": "dev",
    "methods": {
      "getCurrentTime()": {
        "returns": {
          "_0": "uint for the current Testable timestamp."
        }
      },
      "setCurrentTime(uint256)": {
        "details": "Will revert if not running in test mode.",
        "params": {
          "time": "timestamp to set current Testable time to."
        }
      }
    },
    "version": 1
  },
  "userdoc": {
    "kind": "user",
    "methods": {
      "getCurrentTime()": {
        "notice": "Gets the current time. Will return the last time set in `setCurrentTime` if running in test mode. Otherwise, it will return the block timestamp."
      },
      "setCurrentTime(uint256)": {
        "notice": "Sets the current time."
      }
    },
    "version": 1
  }
}