{
  "contractName": "MockOracleAncillary",
  "abi": [
    {
      "inputs": [
        {
          "internalType": "address",
          "name": "_finderAddress",
          "type": "address"
        },
        {
          "internalType": "address",
          "name": "_timerAddress",
          "type": "address"
        }
      ],
      "stateMutability": "nonpayable",
      "type": "constructor"
    },
    {
      "inputs": [],
      "name": "getCurrentTime",
      "outputs": [
        {
          "internalType": "uint256",
          "name": "",
          "type": "uint256"
        }
      ],
      "stateMutability": "view",
      "type": "function"
    },
    {
      "inputs": [
        {
          "internalType": "uint256",
          "name": "time",
          "type": "uint256"
        }
      ],
      "name": "setCurrentTime",
      "outputs": [],
      "stateMutability": "nonpayable",
      "type": "function"
    },
    {
      "inputs": [],
      "name": "timerAddress",
      "outputs": [
        {
          "internalType": "address",
          "name": "",
          "type": "address"
        }
      ],
      "stateMutability": "view",
      "type": "function"
    },
    {
      "inputs": [
        {
          "internalType": "bytes32",
          "name": "identifier",
          "type": "bytes32"
        },
        {
          "internalType": "uint256",
          "name": "time",
          "type": "uint256"
        },
        {
          "internalType": "bytes",
          "name": "ancillaryData",
          "type": "bytes"
        }
      ],
      "name": "requestPrice",
      "outputs": [],
      "stateMutability": "nonpayable",
      "type": "function"
    },
    {
      "inputs": [
        {
          "internalType": "bytes32",
          "name": "identifier",
          "type": "bytes32"
        },
        {
          "internalType": "uint256",
          "name": "time",
          "type": "uint256"
        },
        {
          "internalType": "bytes",
          "name": "ancillaryData",
          "type": "bytes"
        },
        {
          "internalType": "int256",
          "name": "price",
          "type": "int256"
        }
      ],
      "name": "pushPrice",
      "outputs": [],
      "stateMutability": "nonpayable",
      "type": "function"
    },
    {
      "inputs": [
        {
          "internalType": "bytes32",
          "name": "identifier",
          "type": "bytes32"
        },
        {
          "internalType": "uint256",
          "name": "time",
          "type": "uint256"
        },
        {
          "internalType": "bytes",
          "name": "ancillaryData",
          "type": "bytes"
        }
      ],
      "name": "hasPrice",
      "outputs": [
        {
          "internalType": "bool",
          "name": "",
          "type": "bool"
        }
      ],
      "stateMutability": "view",
      "type": "function"
    },
    {
      "inputs": [
        {
          "internalType": "bytes32",
          "name": "identifier",
          "type": "bytes32"
        },
        {
          "internalType": "uint256",
          "name": "time",
          "type": "uint256"
        },
        {
          "internalType": "bytes",
          "name": "ancillaryData",
          "type": "bytes"
        }
      ],
      "name": "getPrice",
      "outputs": [
        {
          "internalType": "int256",
          "name": "",
          "type": "int256"
        }
      ],
      "stateMutability": "view",
      "type": "function"
    },
    {
      "inputs": [],
      "name": "getPendingQueries",
      "outputs": [
        {
          "components": [
            {
              "internalType": "bytes32",
              "name": "identifier",
              "type": "bytes32"
            },
            {
              "internalType": "uint256",
              "name": "time",
              "type": "uint256"
            },
            {
              "internalType": "bytes",
              "name": "ancillaryData",
              "type": "bytes"
            }
          ],
          "internalType": "struct MockOracleAncillary.QueryPoint[]",
          "name": "",
          "type": "tuple[]"
        }
      ],
      "stateMutability": "view",
      "type": "function"
    }
  ],
  "bytecode": "0x608060405234801561001057600080fd5b50604051610f67380380610f6783398101604081905261002f91610063565b600080546001600160a01b039283166001600160a01b031991821617909155600180549390921692169190911790556100b4565b60008060408385031215610075578182fd5b82516100808161009c565b60208401519092506100918161009c565b809150509250929050565b6001600160a01b03811681146100b157600080fd5b50565b610ea4806100c36000396000f3fe608060405234801561001057600080fd5b50600436106100885760003560e01c8063719c6d561161005b578063719c6d56146100e8578063b551cd50146100fb578063b555d6081461011b578063d7d6f43d1461013057610088565b80631c39c38d1461008d578063216666a4146100ab57806322f8e566146100c057806329cb924d146100d3575b600080fd5b610095610143565b6040516100a29190610d37565b60405180910390f35b6100be6100b9366004610bd7565b610152565b005b6100be6100ce366004610c7b565b610382565b6100db6103fc565b6040516100a29190610dec565b6100db6100f6366004610bd7565b61049f565b61010e610109366004610bd7565b610580565b6040516100a29190610de1565b610123610652565b6040516100a29190610d4b565b6100be61013e366004610c25565b610767565b6000546001600160a01b031681565b61015a610967565b6001600160a01b03166390978d1b846040518263ffffffff1660e01b81526004016101859190610dec565b60206040518083038186803b15801561019d57600080fd5b505afa1580156101b1573d6000803e3d6000fd5b505050506040513d601f19601f820116820180604052508101906101d59190610bb7565b6101de57600080fd5b60008381526002602090815260408083208584529091528082209051610205908490610cab565b908152604051908190036020019020805490915060ff161580156102615750600084815260036020908152604080832086845290915290819020905161024c908490610cab565b9081526040519081900360200190205460ff16155b1561037c576040805180820182526001815260045460208083019190915260008781526003825283812087825290915282902091519091906102a4908590610cab565b90815260408051602092819003830181208451815460ff19169015151781559383015160019485015560608101825287815282810187815291810186815260048054958601815560005281517f8a35acfbc15ff81a39ae7d344fd709f28e8600b4aa8c65c6b64bfe7fe36bd19b600390960295860190815592517f8a35acfbc15ff81a39ae7d344fd709f28e8600b4aa8c65c6b64bfe7fe36bd19c86015551805191949293610378937f8a35acfbc15ff81a39ae7d344fd709f28e8600b4aa8c65c6b64bfe7fe36bd19d0192910190610a03565b5050505b50505050565b6000546001600160a01b031661039757600080fd5b60005460405163117c72b360e11b81526001600160a01b03909116906322f8e566906103c7908490600401610dec565b600060405180830381600087803b1580156103e157600080fd5b505af11580156103f5573d6000803e3d6000fd5b5050505050565b600080546001600160a01b0316156104995760008054906101000a90046001600160a01b03166001600160a01b03166329cb924d6040518163ffffffff1660e01b815260040160206040518083038186803b15801561045a57600080fd5b505afa15801561046e573d6000803e3d6000fd5b505050506040513d601f19601f820116820180604052508101906104929190610c93565b905061049c565b50425b90565b60006104a9610967565b6001600160a01b03166390978d1b856040518263ffffffff1660e01b81526004016104d49190610dec565b60206040518083038186803b1580156104ec57600080fd5b505afa158015610500573d6000803e3d6000fd5b505050506040513d601f19601f820116820180604052508101906105249190610bb7565b61052d57600080fd5b60008481526002602090815260408083208684529091528082209051610554908590610cab565b908152604051908190036020019020805490915060ff1661057457600080fd5b60010154949350505050565b600061058a610967565b6001600160a01b03166390978d1b856040518263ffffffff1660e01b81526004016105b59190610dec565b60206040518083038186803b1580156105cd57600080fd5b505afa1580156105e1573d6000803e3d6000fd5b505050506040513d601f19601f820116820180604052508101906106059190610bb7565b61060e57600080fd5b60008481526002602090815260408083208684529091528082209051610635908590610cab565b9081526040519081900360200190205460ff169150509392505050565b60606004805480602002602001604051908101604052809291908181526020016000905b8282101561075e57838290600052602060002090600302016040518060600160405290816000820154815260200160018201548152602001600282018054600181600116156101000203166002900480601f0160208091040260200160405190810160405280929190818152602001828054600181600116156101000203166002900480156107465780601f1061071b57610100808354040283529160200191610746565b820191906000526020600020905b81548152906001019060200180831161072957829003601f168201915b50505050508152505081526020019060010190610676565b50505050905090565b60405180606001604052806001151581526020018281526020016107896103fc565b905260008581526002602090815260408083208784529091529081902090516107b3908590610cab565b90815260408051602092819003830181208451815460ff19169015151781558484015160018201559382015160029094019390935560008781526003835281812087825290925281209091610809908590610cab565b908152604051908190036020019020805490915060ff166108455760405162461bcd60e51b815260040161083c90610df5565b60405180910390fd5b60018101546000868152600360209081526040808320888452909152908190209051610872908690610cab565b908152604051908190036020019020805460ff19168155600060019091015560045460001901818114610378576000600482815481106108ae57fe5b60009182526020808320600392830201805484529181526040808420600184015485529091529182902091519092508491906108ee906002850190610cc7565b908152602001604051809103902060010181905550806004848154811061091157fe5b906000526020600020906003020160008201548160000155600182015481600101556002820181600201908054600181600116156101000203166002900461095a929190610a81565b5050505050505050505050565b6001546040516302abf57960e61b81526000916001600160a01b03169063aafd5e40906109ae90721259195b9d1a599a595c95da1a5d195b1a5cdd606a1b90600401610dec565b60206040518083038186803b1580156109c657600080fd5b505afa1580156109da573d6000803e3d6000fd5b505050506040513d601f19601f820116820180604052508101906109fe9190610b89565b905090565b828054600181600116156101000203166002900490600052602060002090601f016020900481019282601f10610a4457805160ff1916838001178555610a71565b82800160010185558215610a71579182015b82811115610a71578251825591602001919060010190610a56565b50610a7d929150610af6565b5090565b828054600181600116156101000203166002900490600052602060002090601f016020900481019282601f10610aba5780548555610a71565b82800160010185558215610a7157600052602060002091601f016020900482015b82811115610a71578254825591600101919060010190610adb565b5b80821115610a7d5760008155600101610af7565b600082601f830112610b1b578081fd5b813567ffffffffffffffff80821115610b32578283fd5b604051601f8301601f191681016020018281118282101715610b52578485fd5b604052828152925082848301602001861015610b6d57600080fd5b8260208601602083013760006020848301015250505092915050565b600060208284031215610b9a578081fd5b81516001600160a01b0381168114610bb0578182fd5b9392505050565b600060208284031215610bc8578081fd5b81518015158114610bb0578182fd5b600080600060608486031215610beb578182fd5b8335925060208401359150604084013567ffffffffffffffff811115610c0f578182fd5b610c1b86828701610b0b565b9150509250925092565b60008060008060808587031215610c3a578081fd5b8435935060208501359250604085013567ffffffffffffffff811115610c5e578182fd5b610c6a87828801610b0b565b949793965093946060013593505050565b600060208284031215610c8c578081fd5b5035919050565b600060208284031215610ca4578081fd5b5051919050565b60008251610cbd818460208701610e42565b9190910192915050565b6000808354600180821660008114610ce65760018114610cfd57610d2c565b60ff198316865260028304607f1686019350610d2c565b600283048786526020808720875b83811015610d245781548a820152908501908201610d0b565b505050860193505b509195945050505050565b6001600160a01b0391909116815260200190565b60208082528251828201819052600091906040908185019080840286018301878501865b83811015610dd357888303603f19018552815180518452878101518885015286015160608785018190528151908501819052608090610db381838801858d01610e42565b96890196601f01601f191694909401909301925090860190600101610d6f565b509098975050505050505050565b901515815260200190565b90815260200190565b6020808252602d908201527f43616e2774207075736820707269636573207468617420686176656e2774206260408201526c19595b881c995c5d595cdd1959609a1b606082015260800190565b60005b83811015610e5d578181015183820152602001610e45565b8381111561037c575050600091015256fea26469706673582212200eb3e5af7a1436a8bad03002764ede55e60f248c805db6531af93fd6daf9f2c464736f6c634300060c0033",
  "immutableReferences": {},
  "source": "// SPDX-License-Identifier: AGPL-3.0-only\npragma solidity ^0.6.0;\n\npragma experimental ABIEncoderV2;\n\nimport \"../../common/implementation/Testable.sol\";\nimport \"../interfaces/OracleAncillaryInterface.sol\";\nimport \"../interfaces/IdentifierWhitelistInterface.sol\";\nimport \"../interfaces/FinderInterface.sol\";\nimport \"../implementation/Constants.sol\";\n\n// A mock oracle used for testing.\ncontract MockOracleAncillary is OracleAncillaryInterface, Testable {\n    // Represents an available price. Have to keep a separate bool to allow for price=0.\n    struct Price {\n        bool isAvailable;\n        int256 price;\n        // Time the verified price became available.\n        uint256 verifiedTime;\n    }\n\n    // The two structs below are used in an array and mapping to keep track of prices that have been requested but are\n    // not yet available.\n    struct QueryIndex {\n        bool isValid;\n        uint256 index;\n    }\n\n    // Represents a (identifier, time) point that has been queried.\n    struct QueryPoint {\n        bytes32 identifier;\n        uint256 time;\n        bytes ancillaryData;\n    }\n\n    // Reference to the Finder.\n    FinderInterface private finder;\n\n    // Conceptually we want a (time, identifier) -> price map.\n    mapping(bytes32 => mapping(uint256 => mapping(bytes => Price))) private verifiedPrices;\n\n    // The mapping and array allow retrieving all the elements in a mapping and finding/deleting elements.\n    // Can we generalize this data structure?\n    mapping(bytes32 => mapping(uint256 => mapping(bytes => QueryIndex))) private queryIndices;\n    QueryPoint[] private requestedPrices;\n\n    constructor(address _finderAddress, address _timerAddress) public Testable(_timerAddress) {\n        finder = FinderInterface(_finderAddress);\n    }\n\n    // Enqueues a request (if a request isn't already present) for the given (identifier, time) pair.\n\n    function requestPrice(\n        bytes32 identifier,\n        uint256 time,\n        bytes memory ancillaryData\n    ) public override {\n        require(_getIdentifierWhitelist().isIdentifierSupported(identifier));\n        Price storage lookup = verifiedPrices[identifier][time][ancillaryData];\n        if (!lookup.isAvailable && !queryIndices[identifier][time][ancillaryData].isValid) {\n            // New query, enqueue it for review.\n            queryIndices[identifier][time][ancillaryData] = QueryIndex(true, requestedPrices.length);\n            requestedPrices.push(QueryPoint(identifier, time, ancillaryData));\n        }\n    }\n\n    // Pushes the verified price for a requested query.\n    function pushPrice(\n        bytes32 identifier,\n        uint256 time,\n        bytes memory ancillaryData,\n        int256 price\n    ) external {\n        verifiedPrices[identifier][time][ancillaryData] = Price(true, price, getCurrentTime());\n\n        QueryIndex storage queryIndex = queryIndices[identifier][time][ancillaryData];\n        require(queryIndex.isValid, \"Can't push prices that haven't been requested\");\n        // Delete from the array. Instead of shifting the queries over, replace the contents of `indexToReplace` with\n        // the contents of the last index (unless it is the last index).\n        uint256 indexToReplace = queryIndex.index;\n        delete queryIndices[identifier][time][ancillaryData];\n        uint256 lastIndex = requestedPrices.length - 1;\n        if (lastIndex != indexToReplace) {\n            QueryPoint storage queryToCopy = requestedPrices[lastIndex];\n            queryIndices[queryToCopy.identifier][queryToCopy.time][queryToCopy.ancillaryData].index = indexToReplace;\n            requestedPrices[indexToReplace] = queryToCopy;\n        }\n    }\n\n    // Checks whether a price has been resolved.\n    function hasPrice(\n        bytes32 identifier,\n        uint256 time,\n        bytes memory ancillaryData\n    ) public view override returns (bool) {\n        require(_getIdentifierWhitelist().isIdentifierSupported(identifier));\n        Price storage lookup = verifiedPrices[identifier][time][ancillaryData];\n        return lookup.isAvailable;\n    }\n\n    // Gets a price that has already been resolved.\n    function getPrice(\n        bytes32 identifier,\n        uint256 time,\n        bytes memory ancillaryData\n    ) public view override returns (int256) {\n        require(_getIdentifierWhitelist().isIdentifierSupported(identifier));\n        Price storage lookup = verifiedPrices[identifier][time][ancillaryData];\n        require(lookup.isAvailable);\n        return lookup.price;\n    }\n\n    // Gets the queries that still need verified prices.\n    function getPendingQueries() external view returns (QueryPoint[] memory) {\n        return requestedPrices;\n    }\n\n    function _getIdentifierWhitelist() private view returns (IdentifierWhitelistInterface supportedIdentifiers) {\n        return IdentifierWhitelistInterface(finder.getImplementationAddress(OracleInterfaces.IdentifierWhitelist));\n    }\n}\n",
  "sourcePath": "/Users/matt/git/protocol/packages/core/contracts/oracle/test/MockOracleAncillary.sol",
  "compiler": {
    "name": "solc",
    "version": "0.6.12+commit.27d51765.Emscripten.clang"
  },
  "schemaVersion": "3.2.3",
  "updatedAt": "2020-11-30T22:50:04.904Z",
  "devdoc": {
    "kind": "dev",
    "methods": {
      "getCurrentTime()": {
        "returns": {
          "_0": "uint for the current Testable timestamp."
        }
      },
      "getPrice(bytes32,uint256,bytes)": {
        "details": "If the price is not available, the method reverts.",
        "params": {
          "identifier": "uniquely identifies the price requested. eg BTC/USD (encoded as bytes32) could be requested.",
          "time": "unix timestamp for the price request."
        },
        "returns": {
          "_0": "int256 representing the resolved price for the given identifier and timestamp."
        }
      },
      "hasPrice(bytes32,uint256,bytes)": {
        "details": "Time must be in the past and the identifier must be supported.",
        "params": {
          "identifier": "uniquely identifies the price requested. eg BTC/USD (encoded as bytes32) could be requested.",
          "time": "unix timestamp for the price request."
        },
        "returns": {
          "_0": "bool if the DVM has resolved to a price for the given identifier and timestamp."
        }
      },
      "requestPrice(bytes32,uint256,bytes)": {
        "details": "Time must be in the past and the identifier must be supported.",
        "params": {
          "identifier": "uniquely identifies the price requested. eg BTC/USD (encoded as bytes32) could be requested.",
          "time": "unix timestamp for the price request."
        }
      },
      "setCurrentTime(uint256)": {
        "details": "Will revert if not running in test mode.",
        "params": {
          "time": "timestamp to set current Testable time to."
        }
      }
    },
    "version": 1
  },
  "userdoc": {
    "kind": "user",
    "methods": {
      "getCurrentTime()": {
        "notice": "Gets the current time. Will return the last time set in `setCurrentTime` if running in test mode. Otherwise, it will return the block timestamp."
      },
      "getPrice(bytes32,uint256,bytes)": {
        "notice": "Gets the price for `identifier` and `time` if it has already been requested and resolved."
      },
      "hasPrice(bytes32,uint256,bytes)": {
        "notice": "Whether the price for `identifier` and `time` is available."
      },
      "requestPrice(bytes32,uint256,bytes)": {
        "notice": "Enqueues a request (if a request isn't already present) for the given `identifier`, `time` pair."
      },
      "setCurrentTime(uint256)": {
        "notice": "Sets the current time."
      }
    },
    "version": 1
  }
}