{
  "contractName": "MockAdministratee",
  "abi": [
    {
      "inputs": [],
      "name": "timesEmergencyShutdown",
      "outputs": [
        {
          "internalType": "uint256",
          "name": "",
          "type": "uint256"
        }
      ],
      "stateMutability": "view",
      "type": "function"
    },
    {
      "inputs": [],
      "name": "timesRemargined",
      "outputs": [
        {
          "internalType": "uint256",
          "name": "",
          "type": "uint256"
        }
      ],
      "stateMutability": "view",
      "type": "function"
    },
    {
      "inputs": [],
      "name": "remargin",
      "outputs": [],
      "stateMutability": "nonpayable",
      "type": "function"
    },
    {
      "inputs": [],
      "name": "emergencyShutdown",
      "outputs": [],
      "stateMutability": "nonpayable",
      "type": "function"
    },
    {
      "inputs": [],
      "name": "pfc",
      "outputs": [
        {
          "components": [
            {
              "internalType": "uint256",
              "name": "rawValue",
              "type": "uint256"
            }
          ],
          "internalType": "struct FixedPoint.Unsigned",
          "name": "",
          "type": "tuple"
        }
      ],
      "stateMutability": "view",
      "type": "function"
    }
  ],
  "bytecode": "0x608060405234801561001057600080fd5b506101f8806100206000396000f3fe608060405234801561001057600080fd5b50600436106100575760003560e01c80633403c2fc1461005c5780635d21f1531461006657806381a10ae114610084578063bda02e7714610099578063bea002bc146100a1575b600080fd5b6100646100a9565b005b61006e6100b3565b60405161007b91906101b9565b60405180910390f35b61008c6100b9565b60405161007b91906101af565b6100646100d0565b61006e6100db565b6001805481019055565b60015481565b6100c161015b565b6100cb60006100e1565b905090565b600080546001019055565b60005481565b6100e961015b565b60408051602081019091528061010784670de0b6b3a764000061010f565b905292915050565b60008261011e57506000610155565b8282028284828161012b57fe5b04146101525760405162461bcd60e51b81526004016101499061016e565b60405180910390fd5b90505b92915050565b6040518060200160405280600081525090565b60208082526021908201527f536166654d6174683a206d756c7469706c69636174696f6e206f766572666c6f6040820152607760f81b606082015260800190565b9051815260200190565b9081526020019056fea2646970667358221220859c0d50d54a91c644319e93a5a3ad591ee94e94057e4785a3a117747b3378a364736f6c634300060c0033",
  "immutableReferences": {},
  "source": "// SPDX-License-Identifier: AGPL-3.0-only\npragma solidity ^0.6.0;\npragma experimental ABIEncoderV2;\n\nimport \"../../interfaces/AdministrateeInterface.sol\";\n\n// A mock implementation of AdministrateeInterface, taking the place of a financial contract.\ncontract MockAdministratee is AdministrateeInterface {\n    uint256 public timesRemargined;\n    uint256 public timesEmergencyShutdown;\n\n    function remargin() external override {\n        timesRemargined++;\n    }\n\n    function emergencyShutdown() external override {\n        timesEmergencyShutdown++;\n    }\n\n    function pfc() external view override returns (FixedPoint.Unsigned memory) {\n        return FixedPoint.fromUnscaledUint(0);\n    }\n}\n",
  "sourcePath": "/Users/matt/git/protocol/packages/core/contracts/oracle/implementation/test/MockAdministratee.sol",
  "compiler": {
    "name": "solc",
    "version": "0.6.12+commit.27d51765.Emscripten.clang"
  },
  "schemaVersion": "3.2.3",
  "updatedAt": "2020-12-19T00:28:52.752Z",
  "devdoc": {
    "kind": "dev",
    "methods": {
      "pfc()": {
        "details": "This is equivalent to the collateral pool available from which to pay fees. Therefore, derived contracts are expected to implement this so that pay-fee methods can correctly compute the owed fees as a % of PfC.",
        "returns": {
          "_0": "pfc value for equal to the current profit from corruption denominated in collateral currency."
        }
      },
      "remargin()": {
        "details": "It pays fees and moves money between margin accounts to make sure they reflect the NAV of the contract."
      }
    },
    "version": 1
  },
  "userdoc": {
    "kind": "user",
    "methods": {
      "emergencyShutdown()": {
        "notice": "Initiates the shutdown process, in case of an emergency."
      },
      "pfc()": {
        "notice": "Gets the current profit from corruption for this contract in terms of the collateral currency."
      },
      "remargin()": {
        "notice": "A core contract method called independently or as a part of other financial contract transactions."
      }
    },
    "version": 1
  }
}