{
  "contractName": "MockOracle",
  "abi": [
    {
      "inputs": [
        {
          "internalType": "address",
          "name": "_finderAddress",
          "type": "address"
        },
        {
          "internalType": "address",
          "name": "_timerAddress",
          "type": "address"
        }
      ],
      "stateMutability": "nonpayable",
      "type": "constructor"
    },
    {
      "inputs": [],
      "name": "getCurrentTime",
      "outputs": [
        {
          "internalType": "uint256",
          "name": "",
          "type": "uint256"
        }
      ],
      "stateMutability": "view",
      "type": "function"
    },
    {
      "inputs": [
        {
          "internalType": "uint256",
          "name": "time",
          "type": "uint256"
        }
      ],
      "name": "setCurrentTime",
      "outputs": [],
      "stateMutability": "nonpayable",
      "type": "function"
    },
    {
      "inputs": [],
      "name": "timerAddress",
      "outputs": [
        {
          "internalType": "address",
          "name": "",
          "type": "address"
        }
      ],
      "stateMutability": "view",
      "type": "function"
    },
    {
      "inputs": [
        {
          "internalType": "bytes32",
          "name": "identifier",
          "type": "bytes32"
        },
        {
          "internalType": "uint256",
          "name": "time",
          "type": "uint256"
        }
      ],
      "name": "requestPrice",
      "outputs": [],
      "stateMutability": "nonpayable",
      "type": "function"
    },
    {
      "inputs": [
        {
          "internalType": "bytes32",
          "name": "identifier",
          "type": "bytes32"
        },
        {
          "internalType": "uint256",
          "name": "time",
          "type": "uint256"
        },
        {
          "internalType": "int256",
          "name": "price",
          "type": "int256"
        }
      ],
      "name": "pushPrice",
      "outputs": [],
      "stateMutability": "nonpayable",
      "type": "function"
    },
    {
      "inputs": [
        {
          "internalType": "bytes32",
          "name": "identifier",
          "type": "bytes32"
        },
        {
          "internalType": "uint256",
          "name": "time",
          "type": "uint256"
        }
      ],
      "name": "hasPrice",
      "outputs": [
        {
          "internalType": "bool",
          "name": "",
          "type": "bool"
        }
      ],
      "stateMutability": "view",
      "type": "function"
    },
    {
      "inputs": [
        {
          "internalType": "bytes32",
          "name": "identifier",
          "type": "bytes32"
        },
        {
          "internalType": "uint256",
          "name": "time",
          "type": "uint256"
        }
      ],
      "name": "getPrice",
      "outputs": [
        {
          "internalType": "int256",
          "name": "",
          "type": "int256"
        }
      ],
      "stateMutability": "view",
      "type": "function"
    },
    {
      "inputs": [],
      "name": "getPendingQueries",
      "outputs": [
        {
          "components": [
            {
              "internalType": "bytes32",
              "name": "identifier",
              "type": "bytes32"
            },
            {
              "internalType": "uint256",
              "name": "time",
              "type": "uint256"
            }
          ],
          "internalType": "struct MockOracle.QueryPoint[]",
          "name": "",
          "type": "tuple[]"
        }
      ],
      "stateMutability": "view",
      "type": "function"
    }
  ],
  "bytecode": "0x608060405234801561001057600080fd5b50604051610a52380380610a5283398101604081905261002f91610063565b600080546001600160a01b039283166001600160a01b031991821617909155600180549390921692169190911790556100b4565b60008060408385031215610075578182fd5b82516100808161009c565b60208401519092506100918161009c565b809150509250929050565b6001600160a01b03811681146100b157600080fd5b50565b61098f806100c36000396000f3fe608060405234801561001057600080fd5b50600436106100885760003560e01c806368ad8ae31161005b57806368ad8ae3146100e8578063a03e881a146100fb578063b555d6081461011b578063c9280f061461013057610088565b8063051fd48c1461008d5780631c39c38d146100a257806322f8e566146100c057806329cb924d146100d3575b600080fd5b6100a061009b36600461083a565b610143565b005b6100aa610294565b6040516100b79190610895565b60405180910390f35b6100a06100ce366004610865565b6102a3565b6100db61031d565b6040516100b79190610903565b6100a06100f6366004610819565b6103c0565b61010e610109366004610819565b61054d565b6040516100b791906108f8565b6101236105fc565b6040516100b791906108a9565b6100db61013e366004610819565b61066f565b604051806060016040528060011515815260200182815260200161016561031d565b9052600084815260026020818152604080842087855282528084208551815460ff19169015151781558583015160018201559481015194909201939093558582526003835280822085835290925220805460ff166101de5760405162461bcd60e51b81526004016101d59061090c565b60405180910390fd5b60018082015460008681526003602090815260408083208884529091528120805460ff19168155909201919091556004546000190180821461028c5760006004828154811061022957fe5b6000918252602080832060029092029091018054835260038252604080842060018084015486529352909220018490556004805491925082918590811061026c57fe5b600091825260209091208254600290920201908155600191820154910155505b505050505050565b6000546001600160a01b031681565b6000546001600160a01b03166102b857600080fd5b60005460405163117c72b360e11b81526001600160a01b03909116906322f8e566906102e8908490600401610903565b600060405180830381600087803b15801561030257600080fd5b505af1158015610316573d6000803e3d6000fd5b5050505050565b600080546001600160a01b0316156103ba5760008054906101000a90046001600160a01b03166001600160a01b03166329cb924d6040518163ffffffff1660e01b815260040160206040518083038186803b15801561037b57600080fd5b505afa15801561038f573d6000803e3d6000fd5b505050506040513d601f19601f820116820180604052508101906103b3919061087d565b90506103bd565b50425b90565b6103c861072f565b6001600160a01b03166390978d1b836040518263ffffffff1660e01b81526004016103f39190610903565b60206040518083038186803b15801561040b57600080fd5b505afa15801561041f573d6000803e3d6000fd5b505050506040513d601f19601f8201168201806040525081019061044391906107f9565b61044c57600080fd5b60008281526002602090815260408083208484529091529020805460ff161580156104915750600083815260036020908152604080832085845290915290205460ff16155b1561054857604080518082018252600180825260048054602080850191825260008981526003825286812089825282528681209551865460ff1916901515178655915194840194909455845180860190955287855292840186815281549283018255925291517f8a35acfbc15ff81a39ae7d344fd709f28e8600b4aa8c65c6b64bfe7fe36bd19b600290930292830155517f8a35acfbc15ff81a39ae7d344fd709f28e8600b4aa8c65c6b64bfe7fe36bd19c909101555b505050565b600061055761072f565b6001600160a01b03166390978d1b846040518263ffffffff1660e01b81526004016105829190610903565b60206040518083038186803b15801561059a57600080fd5b505afa1580156105ae573d6000803e3d6000fd5b505050506040513d601f19601f820116820180604052508101906105d291906107f9565b6105db57600080fd5b50600091825260026020908152604080842092845291905290205460ff1690565b60606004805480602002602001604051908101604052809291908181526020016000905b8282101561066657838290600052602060002090600202016040518060400160405290816000820154815260200160018201548152505081526020019060010190610620565b50505050905090565b600061067961072f565b6001600160a01b03166390978d1b846040518263ffffffff1660e01b81526004016106a49190610903565b60206040518083038186803b1580156106bc57600080fd5b505afa1580156106d0573d6000803e3d6000fd5b505050506040513d601f19601f820116820180604052508101906106f491906107f9565b6106fd57600080fd5b60008381526002602090815260408083208584529091529020805460ff1661072457600080fd5b600101549392505050565b6001546040516302abf57960e61b81526000916001600160a01b03169063aafd5e409061077690721259195b9d1a599a595c95da1a5d195b1a5cdd606a1b90600401610903565b60206040518083038186803b15801561078e57600080fd5b505afa1580156107a2573d6000803e3d6000fd5b505050506040513d601f19601f820116820180604052508101906107c691906107cb565b905090565b6000602082840312156107dc578081fd5b81516001600160a01b03811681146107f2578182fd5b9392505050565b60006020828403121561080a578081fd5b815180151581146107f2578182fd5b6000806040838503121561082b578081fd5b50508035926020909101359150565b60008060006060848603121561084e578081fd5b505081359360208301359350604090920135919050565b600060208284031215610876578081fd5b5035919050565b60006020828403121561088e578081fd5b5051919050565b6001600160a01b0391909116815260200190565b602080825282518282018190526000919060409081850190868401855b828110156108eb578151805185528601518685015292840192908501906001016108c6565b5091979650505050505050565b901515815260200190565b90815260200190565b6020808252602d908201527f43616e2774207075736820707269636573207468617420686176656e2774206260408201526c19595b881c995c5d595cdd1959609a1b60608201526080019056fea264697066735822122061500ea8ceca5a0941921827ec701f6e53a5919fa1cdc6da17e7ed81d079ce6064736f6c634300060c0033",
  "immutableReferences": {},
  "source": "// SPDX-License-Identifier: AGPL-3.0-only\npragma solidity ^0.6.0;\n\npragma experimental ABIEncoderV2;\n\nimport \"../../common/implementation/Testable.sol\";\nimport \"../interfaces/OracleInterface.sol\";\nimport \"../interfaces/IdentifierWhitelistInterface.sol\";\nimport \"../interfaces/FinderInterface.sol\";\nimport \"../implementation/Constants.sol\";\n\n// A mock oracle used for testing.\ncontract MockOracle is OracleInterface, Testable {\n    // Represents an available price. Have to keep a separate bool to allow for price=0.\n    struct Price {\n        bool isAvailable;\n        int256 price;\n        // Time the verified price became available.\n        uint256 verifiedTime;\n    }\n\n    // The two structs below are used in an array and mapping to keep track of prices that have been requested but are\n    // not yet available.\n    struct QueryIndex {\n        bool isValid;\n        uint256 index;\n    }\n\n    // Represents a (identifier, time) point that has been queried.\n    struct QueryPoint {\n        bytes32 identifier;\n        uint256 time;\n    }\n\n    // Reference to the Finder.\n    FinderInterface private finder;\n\n    // Conceptually we want a (time, identifier) -> price map.\n    mapping(bytes32 => mapping(uint256 => Price)) private verifiedPrices;\n\n    // The mapping and array allow retrieving all the elements in a mapping and finding/deleting elements.\n    // Can we generalize this data structure?\n    mapping(bytes32 => mapping(uint256 => QueryIndex)) private queryIndices;\n    QueryPoint[] private requestedPrices;\n\n    constructor(address _finderAddress, address _timerAddress) public Testable(_timerAddress) {\n        finder = FinderInterface(_finderAddress);\n    }\n\n    // Enqueues a request (if a request isn't already present) for the given (identifier, time) pair.\n\n    function requestPrice(bytes32 identifier, uint256 time) external override {\n        require(_getIdentifierWhitelist().isIdentifierSupported(identifier));\n        Price storage lookup = verifiedPrices[identifier][time];\n        if (!lookup.isAvailable && !queryIndices[identifier][time].isValid) {\n            // New query, enqueue it for review.\n            queryIndices[identifier][time] = QueryIndex(true, requestedPrices.length);\n            requestedPrices.push(QueryPoint(identifier, time));\n        }\n    }\n\n    // Pushes the verified price for a requested query.\n    function pushPrice(\n        bytes32 identifier,\n        uint256 time,\n        int256 price\n    ) external {\n        verifiedPrices[identifier][time] = Price(true, price, getCurrentTime());\n\n        QueryIndex storage queryIndex = queryIndices[identifier][time];\n        require(queryIndex.isValid, \"Can't push prices that haven't been requested\");\n        // Delete from the array. Instead of shifting the queries over, replace the contents of `indexToReplace` with\n        // the contents of the last index (unless it is the last index).\n        uint256 indexToReplace = queryIndex.index;\n        delete queryIndices[identifier][time];\n        uint256 lastIndex = requestedPrices.length - 1;\n        if (lastIndex != indexToReplace) {\n            QueryPoint storage queryToCopy = requestedPrices[lastIndex];\n            queryIndices[queryToCopy.identifier][queryToCopy.time].index = indexToReplace;\n            requestedPrices[indexToReplace] = queryToCopy;\n        }\n    }\n\n    // Checks whether a price has been resolved.\n    function hasPrice(bytes32 identifier, uint256 time) external view override returns (bool) {\n        require(_getIdentifierWhitelist().isIdentifierSupported(identifier));\n        Price storage lookup = verifiedPrices[identifier][time];\n        return lookup.isAvailable;\n    }\n\n    // Gets a price that has already been resolved.\n    function getPrice(bytes32 identifier, uint256 time) external view override returns (int256) {\n        require(_getIdentifierWhitelist().isIdentifierSupported(identifier));\n        Price storage lookup = verifiedPrices[identifier][time];\n        require(lookup.isAvailable);\n        return lookup.price;\n    }\n\n    // Gets the queries that still need verified prices.\n    function getPendingQueries() external view returns (QueryPoint[] memory) {\n        return requestedPrices;\n    }\n\n    function _getIdentifierWhitelist() private view returns (IdentifierWhitelistInterface supportedIdentifiers) {\n        return IdentifierWhitelistInterface(finder.getImplementationAddress(OracleInterfaces.IdentifierWhitelist));\n    }\n}\n",
  "sourcePath": "/Users/matt/git/protocol/packages/core/contracts/oracle/test/MockOracle.sol",
  "compiler": {
    "name": "solc",
    "version": "0.6.12+commit.27d51765.Emscripten.clang"
  },
  "schemaVersion": "3.2.3",
  "updatedAt": "2020-12-19T00:28:52.767Z",
  "devdoc": {
    "kind": "dev",
    "methods": {
      "getCurrentTime()": {
        "returns": {
          "_0": "uint for the current Testable timestamp."
        }
      },
      "getPrice(bytes32,uint256)": {
        "details": "If the price is not available, the method reverts.",
        "params": {
          "identifier": "uniquely identifies the price requested. eg BTC/USD (encoded as bytes32) could be requested.",
          "time": "unix timestamp for the price request."
        },
        "returns": {
          "_0": "int256 representing the resolved price for the given identifier and timestamp."
        }
      },
      "hasPrice(bytes32,uint256)": {
        "details": "Time must be in the past and the identifier must be supported.",
        "params": {
          "identifier": "uniquely identifies the price requested. eg BTC/USD (encoded as bytes32) could be requested.",
          "time": "unix timestamp for the price request."
        },
        "returns": {
          "_0": "bool if the DVM has resolved to a price for the given identifier and timestamp."
        }
      },
      "requestPrice(bytes32,uint256)": {
        "details": "Time must be in the past and the identifier must be supported.",
        "params": {
          "identifier": "uniquely identifies the price requested. eg BTC/USD (encoded as bytes32) could be requested.",
          "time": "unix timestamp for the price request."
        }
      },
      "setCurrentTime(uint256)": {
        "details": "Will revert if not running in test mode.",
        "params": {
          "time": "timestamp to set current Testable time to."
        }
      }
    },
    "version": 1
  },
  "userdoc": {
    "kind": "user",
    "methods": {
      "getCurrentTime()": {
        "notice": "Gets the current time. Will return the last time set in `setCurrentTime` if running in test mode. Otherwise, it will return the block timestamp."
      },
      "getPrice(bytes32,uint256)": {
        "notice": "Gets the price for `identifier` and `time` if it has already been requested and resolved."
      },
      "hasPrice(bytes32,uint256)": {
        "notice": "Whether the price for `identifier` and `time` is available."
      },
      "requestPrice(bytes32,uint256)": {
        "notice": "Enqueues a request (if a request isn't already present) for the given `identifier`, `time` pair."
      },
      "setCurrentTime(uint256)": {
        "notice": "Sets the current time."
      }
    },
    "version": 1
  }
}