{
  "contractName": "PricelessPositionManager",
  "abi": [
    {
      "inputs": [
        {
          "internalType": "uint256",
          "name": "_expirationTimestamp",
          "type": "uint256"
        },
        {
          "internalType": "uint256",
          "name": "_withdrawalLiveness",
          "type": "uint256"
        },
        {
          "internalType": "address",
          "name": "_collateralAddress",
          "type": "address"
        },
        {
          "internalType": "address",
          "name": "_tokenAddress",
          "type": "address"
        },
        {
          "internalType": "address",
          "name": "_finderAddress",
          "type": "address"
        },
        {
          "internalType": "bytes32",
          "name": "_priceIdentifier",
          "type": "bytes32"
        },
        {
          "components": [
            {
              "internalType": "uint256",
              "name": "rawValue",
              "type": "uint256"
            }
          ],
          "internalType": "struct FixedPoint.Unsigned",
          "name": "_minSponsorTokens",
          "type": "tuple"
        },
        {
          "internalType": "address",
          "name": "_timerAddress",
          "type": "address"
        },
        {
          "internalType": "address",
          "name": "_excessTokenBeneficiary",
          "type": "address"
        },
        {
          "internalType": "address",
          "name": "_financialProductLibraryAddress",
          "type": "address"
        }
      ],
      "stateMutability": "nonpayable",
      "type": "constructor"
    },
    {
      "anonymous": false,
      "inputs": [
        {
          "indexed": true,
          "internalType": "address",
          "name": "caller",
          "type": "address"
        }
      ],
      "name": "ContractExpired",
      "type": "event"
    },
    {
      "anonymous": false,
      "inputs": [
        {
          "indexed": true,
          "internalType": "address",
          "name": "sponsor",
          "type": "address"
        },
        {
          "indexed": true,
          "internalType": "uint256",
          "name": "collateralAmount",
          "type": "uint256"
        }
      ],
      "name": "Deposit",
      "type": "event"
    },
    {
      "anonymous": false,
      "inputs": [
        {
          "indexed": true,
          "internalType": "address",
          "name": "caller",
          "type": "address"
        },
        {
          "indexed": false,
          "internalType": "uint256",
          "name": "originalExpirationTimestamp",
          "type": "uint256"
        },
        {
          "indexed": false,
          "internalType": "uint256",
          "name": "shutdownTimestamp",
          "type": "uint256"
        }
      ],
      "name": "EmergencyShutdown",
      "type": "event"
    },
    {
      "anonymous": false,
      "inputs": [
        {
          "indexed": true,
          "internalType": "address",
          "name": "sponsor",
          "type": "address"
        }
      ],
      "name": "EndedSponsorPosition",
      "type": "event"
    },
    {
      "anonymous": false,
      "inputs": [
        {
          "indexed": true,
          "internalType": "uint256",
          "name": "amount",
          "type": "uint256"
        }
      ],
      "name": "FinalFeesPaid",
      "type": "event"
    },
    {
      "anonymous": false,
      "inputs": [
        {
          "indexed": true,
          "internalType": "address",
          "name": "sponsor",
          "type": "address"
        }
      ],
      "name": "NewSponsor",
      "type": "event"
    },
    {
      "anonymous": false,
      "inputs": [
        {
          "indexed": true,
          "internalType": "address",
          "name": "sponsor",
          "type": "address"
        },
        {
          "indexed": true,
          "internalType": "uint256",
          "name": "collateralAmount",
          "type": "uint256"
        },
        {
          "indexed": true,
          "internalType": "uint256",
          "name": "tokenAmount",
          "type": "uint256"
        }
      ],
      "name": "PositionCreated",
      "type": "event"
    },
    {
      "anonymous": false,
      "inputs": [
        {
          "indexed": true,
          "internalType": "address",
          "name": "sponsor",
          "type": "address"
        },
        {
          "indexed": true,
          "internalType": "uint256",
          "name": "collateralAmount",
          "type": "uint256"
        },
        {
          "indexed": true,
          "internalType": "uint256",
          "name": "tokenAmount",
          "type": "uint256"
        }
      ],
      "name": "Redeem",
      "type": "event"
    },
    {
      "anonymous": false,
      "inputs": [
        {
          "indexed": true,
          "internalType": "uint256",
          "name": "regularFee",
          "type": "uint256"
        },
        {
          "indexed": true,
          "internalType": "uint256",
          "name": "lateFee",
          "type": "uint256"
        }
      ],
      "name": "RegularFeesPaid",
      "type": "event"
    },
    {
      "anonymous": false,
      "inputs": [
        {
          "indexed": true,
          "internalType": "address",
          "name": "oldSponsor",
          "type": "address"
        }
      ],
      "name": "RequestTransferPosition",
      "type": "event"
    },
    {
      "anonymous": false,
      "inputs": [
        {
          "indexed": true,
          "internalType": "address",
          "name": "oldSponsor",
          "type": "address"
        }
      ],
      "name": "RequestTransferPositionCanceled",
      "type": "event"
    },
    {
      "anonymous": false,
      "inputs": [
        {
          "indexed": true,
          "internalType": "address",
          "name": "oldSponsor",
          "type": "address"
        },
        {
          "indexed": true,
          "internalType": "address",
          "name": "newSponsor",
          "type": "address"
        }
      ],
      "name": "RequestTransferPositionExecuted",
      "type": "event"
    },
    {
      "anonymous": false,
      "inputs": [
        {
          "indexed": true,
          "internalType": "address",
          "name": "sponsor",
          "type": "address"
        },
        {
          "indexed": true,
          "internalType": "uint256",
          "name": "collateralAmount",
          "type": "uint256"
        }
      ],
      "name": "RequestWithdrawal",
      "type": "event"
    },
    {
      "anonymous": false,
      "inputs": [
        {
          "indexed": true,
          "internalType": "address",
          "name": "sponsor",
          "type": "address"
        },
        {
          "indexed": true,
          "internalType": "uint256",
          "name": "collateralAmount",
          "type": "uint256"
        }
      ],
      "name": "RequestWithdrawalCanceled",
      "type": "event"
    },
    {
      "anonymous": false,
      "inputs": [
        {
          "indexed": true,
          "internalType": "address",
          "name": "sponsor",
          "type": "address"
        },
        {
          "indexed": true,
          "internalType": "uint256",
          "name": "collateralAmount",
          "type": "uint256"
        }
      ],
      "name": "RequestWithdrawalExecuted",
      "type": "event"
    },
    {
      "anonymous": false,
      "inputs": [
        {
          "indexed": true,
          "internalType": "address",
          "name": "caller",
          "type": "address"
        },
        {
          "indexed": true,
          "internalType": "uint256",
          "name": "collateralReturned",
          "type": "uint256"
        },
        {
          "indexed": true,
          "internalType": "uint256",
          "name": "tokensBurned",
          "type": "uint256"
        }
      ],
      "name": "SettleExpiredPosition",
      "type": "event"
    },
    {
      "anonymous": false,
      "inputs": [
        {
          "indexed": true,
          "internalType": "address",
          "name": "sponsor",
          "type": "address"
        },
        {
          "indexed": true,
          "internalType": "uint256",
          "name": "collateralAmount",
          "type": "uint256"
        }
      ],
      "name": "Withdrawal",
      "type": "event"
    },
    {
      "inputs": [],
      "name": "collateralCurrency",
      "outputs": [
        {
          "internalType": "contract IERC20",
          "name": "",
          "type": "address"
        }
      ],
      "stateMutability": "view",
      "type": "function"
    },
    {
      "inputs": [],
      "name": "contractState",
      "outputs": [
        {
          "internalType": "enum PricelessPositionManager.ContractState",
          "name": "",
          "type": "uint8"
        }
      ],
      "stateMutability": "view",
      "type": "function"
    },
    {
      "inputs": [],
      "name": "cumulativeFeeMultiplier",
      "outputs": [
        {
          "internalType": "uint256",
          "name": "rawValue",
          "type": "uint256"
        }
      ],
      "stateMutability": "view",
      "type": "function"
    },
    {
      "inputs": [],
      "name": "excessTokenBeneficiary",
      "outputs": [
        {
          "internalType": "address",
          "name": "",
          "type": "address"
        }
      ],
      "stateMutability": "view",
      "type": "function"
    },
    {
      "inputs": [],
      "name": "expirationTimestamp",
      "outputs": [
        {
          "internalType": "uint256",
          "name": "",
          "type": "uint256"
        }
      ],
      "stateMutability": "view",
      "type": "function"
    },
    {
      "inputs": [],
      "name": "expiryPrice",
      "outputs": [
        {
          "internalType": "uint256",
          "name": "rawValue",
          "type": "uint256"
        }
      ],
      "stateMutability": "view",
      "type": "function"
    },
    {
      "inputs": [],
      "name": "financialProductLibrary",
      "outputs": [
        {
          "internalType": "contract FinancialProductLibrary",
          "name": "",
          "type": "address"
        }
      ],
      "stateMutability": "view",
      "type": "function"
    },
    {
      "inputs": [],
      "name": "finder",
      "outputs": [
        {
          "internalType": "contract FinderInterface",
          "name": "",
          "type": "address"
        }
      ],
      "stateMutability": "view",
      "type": "function"
    },
    {
      "inputs": [],
      "name": "getCurrentTime",
      "outputs": [
        {
          "internalType": "uint256",
          "name": "",
          "type": "uint256"
        }
      ],
      "stateMutability": "view",
      "type": "function"
    },
    {
      "inputs": [],
      "name": "minSponsorTokens",
      "outputs": [
        {
          "internalType": "uint256",
          "name": "rawValue",
          "type": "uint256"
        }
      ],
      "stateMutability": "view",
      "type": "function"
    },
    {
      "inputs": [],
      "name": "payRegularFees",
      "outputs": [
        {
          "components": [
            {
              "internalType": "uint256",
              "name": "rawValue",
              "type": "uint256"
            }
          ],
          "internalType": "struct FixedPoint.Unsigned",
          "name": "totalPaid",
          "type": "tuple"
        }
      ],
      "stateMutability": "nonpayable",
      "type": "function"
    },
    {
      "inputs": [],
      "name": "pfc",
      "outputs": [
        {
          "components": [
            {
              "internalType": "uint256",
              "name": "rawValue",
              "type": "uint256"
            }
          ],
          "internalType": "struct FixedPoint.Unsigned",
          "name": "",
          "type": "tuple"
        }
      ],
      "stateMutability": "view",
      "type": "function"
    },
    {
      "inputs": [
        {
          "internalType": "address",
          "name": "",
          "type": "address"
        }
      ],
      "name": "positions",
      "outputs": [
        {
          "components": [
            {
              "internalType": "uint256",
              "name": "rawValue",
              "type": "uint256"
            }
          ],
          "internalType": "struct FixedPoint.Unsigned",
          "name": "tokensOutstanding",
          "type": "tuple"
        },
        {
          "internalType": "uint256",
          "name": "withdrawalRequestPassTimestamp",
          "type": "uint256"
        },
        {
          "components": [
            {
              "internalType": "uint256",
              "name": "rawValue",
              "type": "uint256"
            }
          ],
          "internalType": "struct FixedPoint.Unsigned",
          "name": "withdrawalRequestAmount",
          "type": "tuple"
        },
        {
          "components": [
            {
              "internalType": "uint256",
              "name": "rawValue",
              "type": "uint256"
            }
          ],
          "internalType": "struct FixedPoint.Unsigned",
          "name": "rawCollateral",
          "type": "tuple"
        },
        {
          "internalType": "uint256",
          "name": "transferPositionRequestPassTimestamp",
          "type": "uint256"
        }
      ],
      "stateMutability": "view",
      "type": "function"
    },
    {
      "inputs": [],
      "name": "priceIdentifier",
      "outputs": [
        {
          "internalType": "bytes32",
          "name": "",
          "type": "bytes32"
        }
      ],
      "stateMutability": "view",
      "type": "function"
    },
    {
      "inputs": [],
      "name": "rawTotalPositionCollateral",
      "outputs": [
        {
          "internalType": "uint256",
          "name": "rawValue",
          "type": "uint256"
        }
      ],
      "stateMutability": "view",
      "type": "function"
    },
    {
      "inputs": [
        {
          "internalType": "uint256",
          "name": "time",
          "type": "uint256"
        }
      ],
      "name": "setCurrentTime",
      "outputs": [],
      "stateMutability": "nonpayable",
      "type": "function"
    },
    {
      "inputs": [],
      "name": "timerAddress",
      "outputs": [
        {
          "internalType": "address",
          "name": "",
          "type": "address"
        }
      ],
      "stateMutability": "view",
      "type": "function"
    },
    {
      "inputs": [],
      "name": "tokenCurrency",
      "outputs": [
        {
          "internalType": "contract ExpandedIERC20",
          "name": "",
          "type": "address"
        }
      ],
      "stateMutability": "view",
      "type": "function"
    },
    {
      "inputs": [],
      "name": "totalTokensOutstanding",
      "outputs": [
        {
          "internalType": "uint256",
          "name": "rawValue",
          "type": "uint256"
        }
      ],
      "stateMutability": "view",
      "type": "function"
    },
    {
      "inputs": [],
      "name": "withdrawalLiveness",
      "outputs": [
        {
          "internalType": "uint256",
          "name": "",
          "type": "uint256"
        }
      ],
      "stateMutability": "view",
      "type": "function"
    },
    {
      "inputs": [],
      "name": "requestTransferPosition",
      "outputs": [],
      "stateMutability": "nonpayable",
      "type": "function"
    },
    {
      "inputs": [
        {
          "internalType": "address",
          "name": "newSponsorAddress",
          "type": "address"
        }
      ],
      "name": "transferPositionPassedRequest",
      "outputs": [],
      "stateMutability": "nonpayable",
      "type": "function"
    },
    {
      "inputs": [],
      "name": "cancelTransferPosition",
      "outputs": [],
      "stateMutability": "nonpayable",
      "type": "function"
    },
    {
      "inputs": [
        {
          "internalType": "address",
          "name": "sponsor",
          "type": "address"
        },
        {
          "components": [
            {
              "internalType": "uint256",
              "name": "rawValue",
              "type": "uint256"
            }
          ],
          "internalType": "struct FixedPoint.Unsigned",
          "name": "collateralAmount",
          "type": "tuple"
        }
      ],
      "name": "depositTo",
      "outputs": [],
      "stateMutability": "nonpayable",
      "type": "function"
    },
    {
      "inputs": [
        {
          "components": [
            {
              "internalType": "uint256",
              "name": "rawValue",
              "type": "uint256"
            }
          ],
          "internalType": "struct FixedPoint.Unsigned",
          "name": "collateralAmount",
          "type": "tuple"
        }
      ],
      "name": "deposit",
      "outputs": [],
      "stateMutability": "nonpayable",
      "type": "function"
    },
    {
      "inputs": [
        {
          "components": [
            {
              "internalType": "uint256",
              "name": "rawValue",
              "type": "uint256"
            }
          ],
          "internalType": "struct FixedPoint.Unsigned",
          "name": "collateralAmount",
          "type": "tuple"
        }
      ],
      "name": "withdraw",
      "outputs": [
        {
          "components": [
            {
              "internalType": "uint256",
              "name": "rawValue",
              "type": "uint256"
            }
          ],
          "internalType": "struct FixedPoint.Unsigned",
          "name": "amountWithdrawn",
          "type": "tuple"
        }
      ],
      "stateMutability": "nonpayable",
      "type": "function"
    },
    {
      "inputs": [
        {
          "components": [
            {
              "internalType": "uint256",
              "name": "rawValue",
              "type": "uint256"
            }
          ],
          "internalType": "struct FixedPoint.Unsigned",
          "name": "collateralAmount",
          "type": "tuple"
        }
      ],
      "name": "requestWithdrawal",
      "outputs": [],
      "stateMutability": "nonpayable",
      "type": "function"
    },
    {
      "inputs": [],
      "name": "withdrawPassedRequest",
      "outputs": [
        {
          "components": [
            {
              "internalType": "uint256",
              "name": "rawValue",
              "type": "uint256"
            }
          ],
          "internalType": "struct FixedPoint.Unsigned",
          "name": "amountWithdrawn",
          "type": "tuple"
        }
      ],
      "stateMutability": "nonpayable",
      "type": "function"
    },
    {
      "inputs": [],
      "name": "cancelWithdrawal",
      "outputs": [],
      "stateMutability": "nonpayable",
      "type": "function"
    },
    {
      "inputs": [
        {
          "components": [
            {
              "internalType": "uint256",
              "name": "rawValue",
              "type": "uint256"
            }
          ],
          "internalType": "struct FixedPoint.Unsigned",
          "name": "collateralAmount",
          "type": "tuple"
        },
        {
          "components": [
            {
              "internalType": "uint256",
              "name": "rawValue",
              "type": "uint256"
            }
          ],
          "internalType": "struct FixedPoint.Unsigned",
          "name": "numTokens",
          "type": "tuple"
        }
      ],
      "name": "create",
      "outputs": [],
      "stateMutability": "nonpayable",
      "type": "function"
    },
    {
      "inputs": [
        {
          "components": [
            {
              "internalType": "uint256",
              "name": "rawValue",
              "type": "uint256"
            }
          ],
          "internalType": "struct FixedPoint.Unsigned",
          "name": "numTokens",
          "type": "tuple"
        }
      ],
      "name": "redeem",
      "outputs": [
        {
          "components": [
            {
              "internalType": "uint256",
              "name": "rawValue",
              "type": "uint256"
            }
          ],
          "internalType": "struct FixedPoint.Unsigned",
          "name": "amountWithdrawn",
          "type": "tuple"
        }
      ],
      "stateMutability": "nonpayable",
      "type": "function"
    },
    {
      "inputs": [],
      "name": "settleExpired",
      "outputs": [
        {
          "components": [
            {
              "internalType": "uint256",
              "name": "rawValue",
              "type": "uint256"
            }
          ],
          "internalType": "struct FixedPoint.Unsigned",
          "name": "amountWithdrawn",
          "type": "tuple"
        }
      ],
      "stateMutability": "nonpayable",
      "type": "function"
    },
    {
      "inputs": [],
      "name": "expire",
      "outputs": [],
      "stateMutability": "nonpayable",
      "type": "function"
    },
    {
      "inputs": [],
      "name": "emergencyShutdown",
      "outputs": [],
      "stateMutability": "nonpayable",
      "type": "function"
    },
    {
      "inputs": [],
      "name": "remargin",
      "outputs": [],
      "stateMutability": "nonpayable",
      "type": "function"
    },
    {
      "inputs": [
        {
          "internalType": "contract IERC20",
          "name": "token",
          "type": "address"
        }
      ],
      "name": "trimExcess",
      "outputs": [
        {
          "components": [
            {
              "internalType": "uint256",
              "name": "rawValue",
              "type": "uint256"
            }
          ],
          "internalType": "struct FixedPoint.Unsigned",
          "name": "amount",
          "type": "tuple"
        }
      ],
      "stateMutability": "nonpayable",
      "type": "function"
    },
    {
      "inputs": [
        {
          "internalType": "address",
          "name": "sponsor",
          "type": "address"
        }
      ],
      "name": "getCollateral",
      "outputs": [
        {
          "components": [
            {
              "internalType": "uint256",
              "name": "rawValue",
              "type": "uint256"
            }
          ],
          "internalType": "struct FixedPoint.Unsigned",
          "name": "collateralAmount",
          "type": "tuple"
        }
      ],
      "stateMutability": "view",
      "type": "function"
    },
    {
      "inputs": [],
      "name": "totalPositionCollateral",
      "outputs": [
        {
          "components": [
            {
              "internalType": "uint256",
              "name": "rawValue",
              "type": "uint256"
            }
          ],
          "internalType": "struct FixedPoint.Unsigned",
          "name": "totalCollateral",
          "type": "tuple"
        }
      ],
      "stateMutability": "view",
      "type": "function"
    },
    {
      "inputs": [
        {
          "components": [
            {
              "internalType": "uint256",
              "name": "rawValue",
              "type": "uint256"
            }
          ],
          "internalType": "struct FixedPoint.Unsigned",
          "name": "price",
          "type": "tuple"
        },
        {
          "internalType": "uint256",
          "name": "requestTime",
          "type": "uint256"
        }
      ],
      "name": "transformPrice",
      "outputs": [
        {
          "components": [
            {
              "internalType": "uint256",
              "name": "rawValue",
              "type": "uint256"
            }
          ],
          "internalType": "struct FixedPoint.Unsigned",
          "name": "",
          "type": "tuple"
        }
      ],
      "stateMutability": "view",
      "type": "function"
    },
    {
      "inputs": [
        {
          "internalType": "address",
          "name": "_collateralAddress",
          "type": "address"
        }
      ],
      "name": "_getSyntheticDecimals",
      "outputs": [
        {
          "internalType": "uint8",
          "name": "decimals",
          "type": "uint8"
        }
      ],
      "stateMutability": "view",
      "type": "function"
    }
  ],
  "bytecode": "0x60806040523480156200001157600080fd5b5060405162003dd538038062003dd58339810160408190526200003491620004ca565b6000805460ff60a01b196001600160a01b038087166001600160a01b03199384161791909116600160a01b1790925560018054838c1690831617905560028054928916929091169190911790558786846200008e62000210565b600381905550620000ab6001620002b960201b62001d531760201c565b5160045550620000bd915050620002f8565b620000c762000326565b620000d162000210565b8a11620000fb5760405162461bcd60e51b8152600401620000f290620005bb565b60405180910390fd5b6200010562000335565b6001600160a01b03166390978d1b866040518263ffffffff1660e01b8152600401620001329190620005b2565b60206040518083038186803b1580156200014b57600080fd5b505afa15801562000160573d6000803e3d6000fd5b505050506040513d601f19601f820116820180604052508101906200018691906200048f565b620001a55760405162461bcd60e51b8152600401620000f29062000633565b600b8a9055600c899055600980546001600160a01b03808a166001600160a01b0319928316179092558551600d55600a879055600f8054858416908316179055601080549284169290911691909117905562000200620003e1565b50505050505050505050620006a1565b600080546001600160a01b031615620002b35760008054906101000a90046001600160a01b03166001600160a01b03166329cb924d6040518163ffffffff1660e01b815260040160206040518083038186803b1580156200027057600080fd5b505afa15801562000285573d6000803e3d6000fd5b505050506040513d601f19601f82011682018060405250810190620002ab9190620004b1565b9050620002b6565b50425b90565b620002c36200043f565b6040518060200160405280620002f0670de0b6b3a764000085620003f660201b62001d811790919060201c565b905292915050565b600054600160a01b900460ff16620003245760405162461bcd60e51b8152600401620000f2906200066a565b565b6000805460ff60a01b19169055565b6002546040516302abf57960e61b81526000916001600160a01b03169063aafd5e409062000388907f4964656e74696669657257686974656c6973740000000000000000000000000090600401620005b2565b60206040518083038186803b158015620003a157600080fd5b505afa158015620003b6573d6000803e3d6000fd5b505050506040513d601f19601f82011682018060405250810190620003dc91906200046a565b905090565b6000805460ff60a01b1916600160a01b179055565b600082620004075750600062000439565b828202828482816200041557fe5b0414620004365760405162461bcd60e51b8152600401620000f290620005f2565b90505b92915050565b6040518060200160405280600081525090565b80516001600160a01b03811681146200043957600080fd5b6000602082840312156200047c578081fd5b62000488838362000452565b9392505050565b600060208284031215620004a1578081fd5b8151801515811462000436578182fd5b600060208284031215620004c3578081fd5b5051919050565b6000806000806000806000806000808a8c03610140811215620004eb578687fd5b8b519a5060208c01519950620005058d60408e0162000452565b9850620005168d60608e0162000452565b9750620005278d60808e0162000452565b965060a08c01519550602060bf198201121562000542578485fd5b50604051602081016001600160401b038111828210171562000562578586fd5b60405260c08c0151815293506200057d8c60e08d0162000452565b92506200058f8c6101008d0162000452565b9150620005a18c6101208d0162000452565b90509295989b9194979a5092959850565b90815260200190565b6020808252601c908201527f496e76616c69642065787069726174696f6e20696e2066757475726500000000604082015260600190565b60208082526021908201527f536166654d6174683a206d756c7469706c69636174696f6e206f766572666c6f6040820152607760f81b606082015260800190565b6020808252601c908201527f556e737570706f72746564207072696365206964656e74696669657200000000604082015260600190565b6020808252601f908201527f5265656e7472616e637947756172643a207265656e7472616e742063616c6c00604082015260600190565b61372480620006b16000396000f3fe608060405234801561001057600080fd5b50600436106102485760003560e01c80636ba2f9921161013b5780639f43ddd2116100b8578063bda02e771161007c578063bda02e7714610446578063d1e92c111461044e578063dd0eef3d14610461578063edfa9a9b14610469578063fcccedc71461047157610248565b80639f43ddd2146104135780639ff4dea81461041b578063b795f0d414610423578063b9a3c84c1461042b578063bc1216301461043357610248565b80638c382eb2116100ff5780638c382eb2146103e057806392120aec146103e85780639375f0e9146103f057806397523661146103f85780639b56d6c91461040057610248565b80636ba2f992146103a05780637048594b146103b357806379599f96146103bb57806381a10ae1146103c357806385209ee0146103cb57610248565b806333a46ca2116101c957806343e4771b1161018d57806343e4771b1461032e5780634ead6e511461033657806355f57510146103565780635617151c1461037a5780635f1af1ca1461038d57610248565b806333a46ca2146102fb5780633403c2fc1461030357806336980f581461030b5780633cb6ce83146103135780633ee7a5ce1461031b57610248565b80631fd00067116102105780631fd00067146102bd57806322611280146102c557806322f8e566146102cd57806324e8cb8d146102e057806329cb924d146102f357610248565b80630c9229ca1461024d5780630de15fd91461026b5780630ff49b901461028057806318928a0c146102a05780631c39c38d146102b5575b600080fd5b610255610479565b604051610262919061300c565b60405180910390f35b61027361047f565b6040516102629190612f87565b61029361028e366004612f08565b61048e565b6040516102629190613624565b6102b36102ae366004612e1e565b61053a565b005b61027361060f565b61027361061e565b6102b361062d565b6102b36102db366004612f32565b6106b3565b6102936102ee366004612de6565b61072d565b61025561083d565b6102936108e0565b6102b3610a2d565b6102b3610af1565b610293610baf565b610293610329366004612e8b565b610e4b565b610293610f18565b610349610344366004612de6565b610f46565b6040516102629190613678565b610369610364366004612de6565b610fc4565b60405161026295949392919061363d565b6102b3610388366004612de6565b611011565b61029361039b366004612e8b565b6111e5565b6102b36103ae366004612ec1565b611439565b6102736116bf565b6102b36116ce565b610293611753565b6103d361176b565b6040516102629190613023565b610255611774565b61025561177a565b610273611780565b61025561178f565b61029361040e366004612de6565b611795565b6102556117da565b6102556117e0565b6102b36117e6565b61027361186b565b6102b3610441366004612e8b565b61187a565b6102b3611975565b6102b361045c366004612e8b565b611995565b6102556119a2565b6102556119a8565b6102936119ae565b60075481565b6001546001600160a01b031681565b610496612d89565b6010546001600160a01b03166104ad575081610534565b60105460405162ff49b960e41b81526001600160a01b0390911690630ff49b90906104de908690869060040161362e565b60206040518083038186803b1580156104f657600080fd5b505afa925050508015610526575060408051601f3d908101601f1916820190925261052391810190612ea6565b60015b610531575081610534565b90505b92915050565b610542611dbb565b8161054c81611de3565b610554610baf565b5061055d611e0d565b610565611e36565b610570826000611e45565b6105955760405162461bcd60e51b815260040161058c906131d0565b60405180910390fd5b60006105a084611e5c565b90506105ac8184611e84565b5082516040516001600160a01b038616907fe1fffcc4923d04b559f4d29a8bfc6cda04eb5b0d3c460751c2402c5c5cc9109c90600090a38251600154610601916001600160a01b039091169033903090611ea5565b5061060a611f03565b505050565b6000546001600160a01b031681565b600f546001600160a01b031681565b610635611e0d565b61063d611e36565b600061064833611e5c565b905080600101546000141561066f5760405162461bcd60e51b815260040161058c906135f5565b600281015460405133907f74d8a3658feb89d1a5c335229bbbfc3bbcfaf492769feb7aa4cd2d92efeaf69190600090a36106a881611f18565b506106b1611f03565b565b6000546001600160a01b03166106c857600080fd5b60005460405163117c72b360e11b81526001600160a01b03909116906322f8e566906106f890849060040161300c565b600060405180830381600087803b15801561071257600080fd5b505af1158015610726573d6000803e3d6000fd5b5050505050565b610735612d89565b61073d610baf565b50610746611e0d565b61074e611e36565b610756612d89565b6040805160208101918290526370a0823160e01b909152806001600160a01b0385166370a0823161078a3060248501612f87565b60206040518083038186803b1580156107a257600080fd5b505afa1580156107b6573d6000803e3d6000fd5b505050506040513d601f19601f820116820180604052508101906107da9190612e73565b90526001549091506001600160a01b038481169116141561080e57610807610800611f32565b8290611f3a565b9150610812565b8091505b600f54825161082f916001600160a01b0386811692911690611f66565b50610838611f03565b919050565b600080546001600160a01b0316156108da5760008054906101000a90046001600160a01b03166001600160a01b03166329cb924d6040518163ffffffff1660e01b815260040160206040518083038186803b15801561089b57600080fd5b505afa1580156108af573d6000803e3d6000fd5b505050506040513d601f19601f820116820180604052508101906108d39190612e73565b90506108dd565b50425b90565b6108e8612d89565b6108f0611dbb565b6108f8610baf565b50610901611e0d565b610909611e36565b600061091433611e5c565b90508060010154600014158015610936575061092e61083d565b816001015411155b6109525760405162461bcd60e51b815260040161058c906132ab565b61095a612d89565b50604080516020808201835260028401548252825190810190925260038301548252906109a29061098a90611f85565b60408051602081019091526002850154815290611fa8565b156109c5576040805160208101909152600383015481526109c290611f85565b90505b6109cf8282611faf565b92506109da82611f18565b82516001546109f6916001600160a01b03909116903390611f66565b825160405133907fc86c3298cb79f486674dca87d9247e88b76146160e7d412cc59b26b14c358a6890600090a350506108dd611f03565b610a35611dbb565b610a3d611fd0565b610a45611e0d565b610a4d611e36565b610a55612000565b6001600160a01b0316336001600160a01b031614610a855760405162461bcd60e51b815260040161058c90613319565b6005805460ff19166001179055600b54610a9d61083d565b600b819055610aab9061209b565b600b5460405133917fd39eeb7157d9c446579a0893ecf9ecd87d1f466cdb270c6a189cf38ca1e30f4891610ae0918591613015565b60405180910390a2506106b1611f03565b610af9611dbb565b610b01611e0d565b610b09611e36565b6000610b1433611e5c565b90508060040154600014610b3a5760405162461bcd60e51b815260040161058c9061355d565b6000610b50600c54610b4a61083d565b9061210d565b9050600b548110610b735760405162461bcd60e51b815260040161058c90613479565b6004820181905560405133907fbf457c80c8bf299d5c48272c4c1168bf87b33d83b13f0ab9aac332ce1161ed1e90600090a250506106b1611f03565b610bb7612d89565b610bbf611e0d565b610bc7611e36565b6000610bd1612132565b90506000610bdd61083d565b9050610be7612d89565b610bef611f32565b9050610bfc81600061216b565b15610c0957505050610e43565b816003541415610c1b57505050610e43565b610c23612d89565b610c2b612d89565b6003546040516374201feb60e01b81526001600160a01b038716916374201feb91610c5d919088908890600401613661565b604080518083038186803b158015610c7457600080fd5b505afa158015610c88573d6000803e3d6000fd5b505050506040513d601f19601f82011682018060405250810190610cac9190612edd565b60038690559092509050610cc08282612182565b9550610ccd86600061216b565b15610cdc575050505050610e43565b610ce68684611fa8565b15610d4757610cf3612d89565b610cfd8785611f3a565b9050610d07612d89565b610d1183836121a5565b9050610d1d8382611f3a565b9250610d298282611f3a565b9150610d3f610d3885846121a5565b8590611f3a565b935084975050505b805182516040517f19b92e73d08d517d71ec46136266e4f5d526a8cd4f8501d73713cebfe4f335ef90600090a3610d7e86846121c3565b610d89826000611e45565b15610e11578151600154610daa916001600160a01b0390911690879061220d565b60015460405163432ce91960e11b81526001600160a01b0387811692638659d23292610dde92909116908690600401612ff2565b600060405180830381600087803b158015610df857600080fd5b505af1158015610e0c573d6000803e3d6000fd5b505050505b610e1c816000611e45565b15610e3d578051600154610e3d916001600160a01b03909116903390611f66565b50505050505b6108dd611f03565b610e53612d89565b610e5b611dbb565b33610e6581611de3565b610e6d610baf565b50610e76611e0d565b610e7e611e36565b6000610e8933611e5c565b9050610e96846000611e45565b610eb25760405162461bcd60e51b815260040161058c906131d0565b610ebc81856122b2565b80516040519194509033907f7fcf532c15f0a6db0bd6d0e038bea71d30d808c7d98cb3bf7268a95bf5081b6590600090a38251600154610f09916001600160a01b03909116903390611f66565b50610f12611f03565b50919050565b610f20612d89565b610f28611e0d565b60408051602081019091526008548152610f4190611f85565b905090565b6000816001600160a01b031663313ce5676040518163ffffffff1660e01b815260040160206040518083038186803b158015610f8157600080fd5b505afa925050508015610fb1575060408051601f3d908101601f19168201909252610fae91810190612f4a565b60015b610fbd57506012610838565b9050610838565b600660209081526000918252604091829020825180830184528154815260018201548451808501865260028401548152855194850190955260038301548452600490920154909391929085565b611019611dbb565b3361102381611de3565b61102b611e0d565b611033611e36565b61107b6110406000611d53565b6001600160a01b0384166000908152600660209081526040918290208251918201909252600390910154815261107590611f85565b906122f8565b6110975760405162461bcd60e51b815260040161058c906133d4565b60006110a233611e5c565b905080600401546000141580156110c457506110bc61083d565b816004015411155b6110e05760405162461bcd60e51b815260040161058c906132e2565b600060048083018281556001600160a01b038616808452600660205260408085208654815560018088015481830155600280890154818401556003808a01548185015595549287019290925533808852838820888155918201889055918101879055938401869055929093018490559151919290917ff1a2dcf23621f1a96185c79d39a5776b5ba3dadbea70c5aa86d84c17c7e9418e9190a36040516001600160a01b038416907ff60993fa76f94c9e0a803526ee6e1314814ed4d2b0d223febf1436b36897fb3790600090a260405133907fcad20625296d189a6fc6e5b39d0d544e5bd99dbda0c8f2f0ecffef3e0fbcc28290600090a2506111e1611f03565b5050565b6111ed612d89565b336111f781611de3565b6111ff610baf565b50611208611e0d565b611210611e36565b600061121b33611e5c565b604080516020810190915281548152909150611238908590611fa8565b156112555760405162461bcd60e51b815260040161058c90613103565b61125d612d89565b6040805160208101909152825481526112779086906122ff565b9050611281612d89565b6040805160208101909152600384015481526112a7906112a090611f85565b8390612334565b6040805160208101909152845481529091506112c390876122f8565b156112d8576112d133612371565b9450611363565b6112e28382611faf565b94506112ec612d89565b6040805160208101909152845481526113059088611f3a565b6040805160208101909152600d548152909150611323908290612493565b61133f5760405162461bcd60e51b815260040161058c90613199565b805184556040805160208101909152600754815261135d9088611f3a565b51600755505b8551855160405133907fe5b754fb1abb7f01b499791d0b820ae3b6af3424ac1c59768edb53f4ec31a92990600090a484516001546113ae916001600160a01b03909116903390611f66565b85516009546113cc916001600160a01b039091169033903090611ea5565b6009548651604051630852cd8d60e31b81526001600160a01b03909216916342966c68916113fc9160040161300c565b600060405180830381600087803b15801561141657600080fd5b505af115801561142a573d6000803e3d6000fd5b50505050505050610f12611f03565b611441611dbb565b611449610baf565b50611452611e0d565b61145a611e36565b336000908152600660209081526040918290208251918201909252600382015481526114b39061149590859061148f90611f85565b90612182565b6040805160208101909152835481526114ae9085612182565b61249b565b806114c357506114c3838361249b565b6114df5760405162461bcd60e51b815260040161058c906133a3565b6001810154156115015760405162461bcd60e51b815260040161058c9061327f565b60408051602081019091528154815261151b90600061216b565b15611583576040805160208101909152600d54815261153b908390612493565b6115575760405162461bcd60e51b815260040161058c90613199565b60405133907ff60993fa76f94c9e0a803526ee6e1314814ed4d2b0d223febf1436b36897fb3790600090a25b61158d8184611e84565b506040805160208101909152815481526115a79083612182565b518155604080516020810190915260075481526115c49083612182565b516007558151835160405133907f4b82aa16e071a61de1a6b9aeec9edab0356331f8122c78683b469ac8e685dabc90600090a48251600154611615916001600160a01b039091169033903090611ea5565b60095482516040516340c10f1960e01b81526001600160a01b03909216916340c10f199161164891339190600401612f9b565b602060405180830381600087803b15801561166257600080fd5b505af1158015611676573d6000803e3d6000fd5b505050506040513d601f19601f8201168201806040525081019061169a9190612e53565b6116b65760405162461bcd60e51b815260040161058c90613346565b506111e1611f03565b6009546001600160a01b031681565b6116d6612501565b6116de611fd0565b6116e6610baf565b506116ef611e0d565b6116f7611e36565b6005805460ff191660011790556117153061171061252a565b6125c5565b611720600b5461209b565b60405133907f18600820405d6cf356e3556301762ca32395e72d8c81494fa344835c9da3633d90600090a26106b1611f03565b61175b612d89565b611763611e0d565b610f41611f32565b60055460ff1681565b60085481565b600d5481565b6010546001600160a01b031681565b600a5481565b61179d612d89565b6117a5611e0d565b6001600160a01b0382166000908152600660209081526040918290208251918201909252600390910154815261053490611f85565b600b5481565b600c5481565b6117ee611dbb565b6117f6611e0d565b6117fe611e36565b600061180933611e5c565b90508060040154600014156118305760405162461bcd60e51b815260040161058c906130a1565b60405133907f2e5702420c76e041698ad7ba57a9ff5cadccf647ea8d96e6007a40b5b2662f5690600090a260006004909101556106b1611f03565b6002546001600160a01b031681565b611882611dbb565b3361188c81611de3565b611894611e0d565b61189c611e36565b60006118a733611e5c565b90506118b4836000611e45565b80156118e157506040805160208101909152600382015481526118e1906118da90611f85565b849061270e565b6118fd5760405162461bcd60e51b815260040161058c906131d0565b600061190d600c54610b4a61083d565b9050600b5481106119305760405162461bcd60e51b815260040161058c90613479565b6001820181905583516002830181905560405133907fd33b726e11d2c5d38e6702b16613df0160a07f7ba5185455ee3c45d0494fab1190600090a350506111e1611f03565b61197d611dbb565b611985611e0d565b61198d611e36565b6106b1611f03565b61199f338261053a565b50565b60045481565b600e5481565b6119b6612d89565b6119be612501565b6119c6610baf565b506119cf611e0d565b6119d7611e36565b600060055460ff1660028111156119ea57fe5b1415611a085760405162461bcd60e51b815260040161058c90613531565b600260055460ff166002811115611a1b57fe5b14611a3d57611a2b600b54612716565b51600e556005805460ff191660021790555b611a45612d89565b6040805160208101918290526009546370a0823160e01b9092529081906001600160a01b03166370a08231611a7d3360248501612f87565b60206040518083038186803b158015611a9557600080fd5b505afa158015611aa9573d6000803e3d6000fd5b505050506040513d601f19601f82011682018060405250810190611acd9190612e73565b90529050611ad9612d89565b6040805160208101909152600e548152611af4908390612334565b336000908152600660209081526040808320815192830190915260038101548252929350611b2c9190611b2690611f85565b90611e45565b15611c2357611b39612d89565b6040805160208082018352600e548252825190810190925283548252611b5f9190612334565b9050611b69612d89565b604080516020810190915260038401548152611b8490611f85565b9050611b8e612d89565b611b988383612877565b611bb15760405180602001604052806000815250611bbb565b611bbb8284611f3a565b9050611bc78582612182565b336000818152600660205260408082208281556001810183905560028101839055600381018390556004018290555192975090917fcad20625296d189a6fc6e5b39d0d544e5bd99dbda0c8f2f0ecffef3e0fbcc2829190a25050505b611c2b612d89565b60408051602081019091526008548152611c4e90611c4890611f85565b846121a5565b9050611c5b60088261287e565b60408051602081019091526007548152909550611c789085611f3a565b516007558351855160405133907f9d349c102bec959fb7f20f9a3621e015819d3ae4ed6e9afd1f56a69d5845600690600090a48451600154611cc7916001600160a01b03909116903390611f66565b8351600954611ce5916001600160a01b039091169033903090611ea5565b6009548451604051630852cd8d60e31b81526001600160a01b03909216916342966c6891611d159160040161300c565b600060405180830381600087803b158015611d2f57600080fd5b505af1158015611d43573d6000803e3d6000fd5b50505050505050506108dd611f03565b611d5b612d89565b604080516020810190915280611d7984670de0b6b3a7640000611d81565b905292915050565b600082611d9057506000610534565b82820282848281611d9d57fe5b04146105315760405162461bcd60e51b815260040161058c9061323e565b600b54611dc661083d565b106106b15760405162461bcd60e51b815260040161058c9061340b565b611dec81611e5c565b600101541561199f5760405162461bcd60e51b815260040161058c9061327f565b600054600160a01b900460ff166106b15760405162461bcd60e51b815260040161058c906134fa565b6000805460ff60a01b19169055565b6000611e5082611d53565b51835111905092915050565b600081611e68816128f4565b50506001600160a01b0316600090815260066020526040902090565b611e8c612d89565b611e998360030183612947565b50610531600883612947565b611efd846323b872dd60e01b858585604051602401611ec693929190612fce565b60408051601f198184030181529190526020810180516001600160e01b03166001600160e01b0319909316929092179091526129bf565b50505050565b6000805460ff60a01b1916600160a01b179055565b611f226000611d53565b5160028201556000600190910155565b610f28612d89565b611f42612d89565b6040805160208101909152825184518291611f5d9190612aa4565b90529392505050565b61060a8363a9059cbb60e01b8484604051602401611ec6929190612f9b565b611f8d612d89565b60408051602081019091526004548152610534908390612334565b5190511190565b611fb7612d89565b611fc4836003018361287e565b5061053160088361287e565b600060055460ff166002811115611fe357fe5b146106b15760405162461bcd60e51b815260040161058c90613131565b6002546040516302abf57960e61b81526000916001600160a01b03169063aafd5e409061204b90762334b730b731b4b0b621b7b73a3930b1ba39a0b236b4b760491b9060040161300c565b60206040518083038186803b15801561206357600080fd5b505afa158015612077573d6000803e3d6000fd5b505050506040513d601f19601f82011682018060405250810190610f419190612e02565b60006120a5612ae6565b600a546040516368ad8ae360e01b81529192506001600160a01b038316916368ad8ae3916120d7918690600401613015565b600060405180830381600087803b1580156120f157600080fd5b505af1158015612105573d6000803e3d6000fd5b505050505050565b6000828201838110156105315760405162461bcd60e51b815260040161058c9061306a565b6002546040516302abf57960e61b81526000916001600160a01b03169063aafd5e409061204b906453746f726560d81b9060040161300c565b600061217682611d53565b51835114905092915050565b61218a612d89565b6040805160208101909152825184518291611f5d919061210d565b6121ad612d89565b81518351106121bc5781610531565b5090919050565b6121cb612d89565b6121d58383612b20565b90506122046121ee826121e86001611d53565b90611f3a565b6040805160208101909152600454815290612334565b51600455505050565b600061229182856001600160a01b031663dd62ed3e30876040518363ffffffff1660e01b8152600401612241929190612fb4565b60206040518083038186803b15801561225957600080fd5b505afa15801561226d573d6000803e3d6000fd5b505050506040513d601f19601f82011682018060405250810190610b4a9190612e73565b9050611efd8463095ea7b360e01b8584604051602401611ec6929190612f9b565b6122ba612d89565b6122c7836003018361287e565b506122d183612baa565b6122ed5760405162461bcd60e51b815260040161058c9061337d565b61053160088361287e565b5190511490565b612307612d89565b6040805160208101909152825184518291611f5d9161232e90670de0b6b3a7640000611d81565b90612be0565b61233c612d89565b6040805160208101909152825184518291670de0b6b3a76400009161236091611d81565b8161236757fe5b0490529392505050565b612379612d89565b600061238483611e5c565b905061238e612d89565b604080516020810190915260085481526123a790611f85565b90506123b1612d89565b5060408051602080820183526003850154825282519081019092526008548252906123dc9082611f3a565b51600855604080516020808201835285548252825190810190925260075482526124069190611f3a565b516007556001600160a01b038516600081815260066020526040808220828155600181018390556002810183905560038101839055600401829055517fcad20625296d189a6fc6e5b39d0d544e5bd99dbda0c8f2f0ecffef3e0fbcc2829190a26040805160208101909152600854815261248a9061248390611f85565b8390611f3a565b95945050505050565b519051101590565b60006124a5612d89565b604080516020810190915260085481526124d7906124c290611f85565b60408051602081019091526007548152612c22565b90506124e1612d89565b6124eb8585612c22565b90506124f78282611fa8565b1595945050505050565b600b5461250c61083d565b10156106b15760405162461bcd60e51b815260040161058c90613442565b612532612d89565b600061253c612132565b600154604051635b97aadd60e01b81529192506001600160a01b0380841692635b97aadd9261256f921690600401612f87565b60206040518083038186803b15801561258757600080fd5b505afa15801561259b573d6000803e3d6000fd5b505050506040513d601f19601f820116820180604052508101906125bf9190612ea6565b91505090565b6125d081600061216b565b156125da576111e1565b6001600160a01b038216301461260d578051600154612608916001600160a01b039091169084903090611ea5565b612651565b612615612d89565b61261d611f32565b90506126298183611fa8565b6126455760405162461bcd60e51b815260040161058c906135be565b61264f82826121c3565b505b80516040517f4f9bf7e8cd0f2456f9c43d2597bedcf1446c9c64544053f1ece6423ae9a07e5290600090a26000612686612132565b82516001549192506126a3916001600160a01b031690839061220d565b60015460405163432ce91960e11b81526001600160a01b0383811692638659d232926126d792909116908690600401612ff2565b600060405180830381600087803b1580156126f157600080fd5b505af1158015612705573d6000803e3d6000fd5b50505050505050565b519051111590565b61271e612d89565b6000612728612ae6565b600a5460405163501f440d60e11b81529192506001600160a01b0383169163a03e881a9161275a918790600401613015565b60206040518083038186803b15801561277257600080fd5b505afa158015612786573d6000803e3d6000fd5b505050506040513d601f19601f820116820180604052508101906127aa9190612e53565b6127c65760405162461bcd60e51b815260040161058c90613168565b600a54604051636494078360e11b81526000916001600160a01b0384169163c9280f06916127f8918890600401613015565b60206040518083038186803b15801561281057600080fd5b505afa158015612824573d6000803e3d6000fd5b505050506040513d601f19601f820116820180604052508101906128489190612e73565b90506000811215612857575060005b61286f6040518060200160405280838152508561048e565b949350505050565b5190511090565b612886612d89565b61288e612d89565b6040805160208101909152845481526128a690611f85565b90506128b0612d89565b6128b984612c54565b6040805160208101909152865481529091506128d59082611f3a565b51808655604080516020810190915290815261248a9061248390611f85565b6001600160a01b0381166000908152600660209081526040808320815192830190915260030154815261292b9190611b2690611f85565b61199f5760405162461bcd60e51b815260040161058c90613207565b61294f612d89565b612957612d89565b60408051602081019091528454815261296f90611f85565b9050612979612d89565b61298284612c54565b60408051602081019091528654815290915061299e9082612182565b51808655604080516020810190915290815261248a9083906121e890611f85565b6129d1826001600160a01b0316612c77565b6129ed5760405162461bcd60e51b815260040161058c90613587565b60006060836001600160a01b031683604051612a099190612f6b565b6000604051808303816000865af19150503d8060008114612a46576040519150601f19603f3d011682016040523d82523d6000602084013e612a4b565b606091505b509150915081612a6d5760405162461bcd60e51b815260040161058c906130ce565b805115611efd5780806020019051810190612a889190612e53565b611efd5760405162461bcd60e51b815260040161058c906134b0565b600061053183836040518060400160405280601e81526020017f536166654d6174683a207375627472616374696f6e206f766572666c6f770000815250612cb0565b6002546040516302abf57960e61b81526000916001600160a01b03169063aafd5e409061204b90654f7261636c6560d01b9060040161300c565b612b28612d89565b8251600090612b3f90670de0b6b3a7640000611d81565b8351909150600090612b52908390612be0565b8451909150600090612b65908490612cdc565b90508015612b9157604080516020810190915280612b8484600161210d565b8152509350505050610534565b6040518060200160405280838152509350505050610534565b60408051602081019091526003820154815260009061053490612bcc90611f85565b60408051602081019091528454815261249b565b600061053183836040518060400160405280601a81526020017f536166654d6174683a206469766973696f6e206279207a65726f000000000000815250612d1e565b612c2a612d89565b612c35826000611e45565b612c4a57612c436000611d53565b9050610534565b612c4383836122ff565b612c5c612d89565b604080516020810190915260045481526105349083906122ff565b6000813f7fc5d2460186f7233c927e7db2dcc703c0e500b653ca82273b7bfad8045d85a47081811480159061286f575050151592915050565b60008184841115612cd45760405162461bcd60e51b815260040161058c9190613037565b505050900390565b600061053183836040518060400160405280601881526020017f536166654d6174683a206d6f64756c6f206279207a65726f0000000000000000815250612d55565b60008183612d3f5760405162461bcd60e51b815260040161058c9190613037565b506000838581612d4b57fe5b0495945050505050565b60008183612d765760405162461bcd60e51b815260040161058c9190613037565b50828481612d8057fe5b06949350505050565b6040518060200160405280600081525090565b600060208284031215612dad578081fd5b612db76020613686565b9135825250919050565b600060208284031215612dd2578081fd5b612ddc6020613686565b9151825250919050565b600060208284031215612df7578081fd5b8135610531816136d9565b600060208284031215612e13578081fd5b8151610531816136d9565b60008060408385031215612e30578081fd5b8235612e3b816136d9565b9150612e4a8460208501612d9c565b90509250929050565b600060208284031215612e64578081fd5b81518015158114610531578182fd5b600060208284031215612e84578081fd5b5051919050565b600060208284031215612e9c578081fd5b6105318383612d9c565b600060208284031215612eb7578081fd5b6105318383612dc1565b60008060408385031215612ed3578182fd5b612e3b8484612d9c565b60008060408385031215612eef578182fd5b612ef98484612dc1565b9150612e4a8460208501612dc1565b60008060408385031215612f1a578182fd5b612f248484612d9c565b946020939093013593505050565b600060208284031215612f43578081fd5b5035919050565b600060208284031215612f5b578081fd5b815160ff81168114610531578182fd5b60008251612f7d8184602087016136ad565b9190910192915050565b6001600160a01b0391909116815260200190565b6001600160a01b03929092168252602082015260400190565b6001600160a01b0392831681529116602082015260400190565b6001600160a01b039384168152919092166020820152604081019190915260600190565b6001600160a01b0392909216825251602082015260400190565b90815260200190565b918252602082015260400190565b602081016003831061303157fe5b91905290565b60006020825282518060208401526130568160408501602087016136ad565b601f01601f19169190910160400192915050565b6020808252601b908201527f536166654d6174683a206164646974696f6e206f766572666c6f770000000000604082015260600190565b6020808252601390820152722737903832b73234b733903a3930b739b332b960691b604082015260600190565b6020808252818101527f5361666545524332303a206c6f772d6c6576656c2063616c6c206661696c6564604082015260600190565b602080825260149082015273125b9d985b1a59081d1bdad95b88185b5bdd5b9d60621b604082015260600190565b6020808252601a908201527f436f6e7472616374207374617465206973206e6f74204f50454e000000000000604082015260600190565b602080825260179082015276556e7265736f6c766564206f7261636c6520707269636560481b604082015260600190565b6020808252601e908201527f42656c6f77206d696e696d756d2073706f6e736f7220706f736974696f6e0000604082015260600190565b60208082526019908201527f496e76616c696420636f6c6c61746572616c20616d6f756e7400000000000000604082015260600190565b6020808252601a908201527f506f736974696f6e20686173206e6f20636f6c6c61746572616c000000000000604082015260600190565b60208082526021908201527f536166654d6174683a206d756c7469706c69636174696f6e206f766572666c6f6040820152607760f81b606082015260800190565b60208082526012908201527114195b991a5b99c81dda5d1a191c985dd85b60721b604082015260600190565b60208082526018908201527f496e76616c696420776974686472617720726571756573740000000000000000604082015260600190565b60208082526018908201527f496e76616c6964207472616e7366657220726571756573740000000000000000604082015260600190565b60208082526013908201527221b0b63632b9103737ba1023b7bb32b93737b960691b604082015260600190565b6020808252601f908201527f4d696e74696e672073796e74686574696320746f6b656e73206661696c656400604082015260600190565b6020808252600c908201526b21a9103132b637bb9023a1a960a11b604082015260600190565b602080825260179082015276125b9cdd59999a58da595b9d0818dbdb1b185d195c985b604a1b604082015260600190565b6020808252601c908201527f53706f6e736f7220616c72656164792068617320706f736974696f6e00000000604082015260600190565b60208082526018908201527f4f6e6c792063616c6c61626c65207072652d6578706972790000000000000000604082015260600190565b60208082526019908201527f4f6e6c792063616c6c61626c6520706f73742d65787069727900000000000000604082015260600190565b6020808252601b908201527f52657175657374206578706972657320706f73742d6578706972790000000000604082015260600190565b6020808252602a908201527f5361666545524332303a204552433230206f7065726174696f6e20646964206e6040820152691bdd081cdd58d8d9595960b21b606082015260800190565b6020808252601f908201527f5265656e7472616e637947756172643a207265656e7472616e742063616c6c00604082015260600190565b6020808252601290820152712ab732bc3834b932b2103837b9b4ba34b7b760711b604082015260600190565b60208082526010908201526f2832b73234b733903a3930b739b332b960811b604082015260600190565b6020808252601f908201527f5361666545524332303a2063616c6c20746f206e6f6e2d636f6e747261637400604082015260600190565b6020808252601a908201527f46696e616c20666565206973206d6f7265207468616e20506643000000000000604082015260600190565b602080825260159082015274139bc81c195b991a5b99c81dda5d1a191c985dd85b605a1b604082015260600190565b9051815260200190565b91518252602082015260400190565b94518552602085019390935290516040840152516060830152608082015260a00190565b928352602083019190915251604082015260600190565b60ff91909116815260200190565b60405181810167ffffffffffffffff811182821017156136a557600080fd5b604052919050565b60005b838110156136c85781810151838201526020016136b0565b83811115611efd5750506000910152565b6001600160a01b038116811461199f57600080fdfea26469706673582212202e50f019f8ce6e5c1bd50dec7089b0f9b714a915c4dcf435825a910b2ae8cc5d64736f6c634300060c0033",
  "immutableReferences": {},
  "source": "// SPDX-License-Identifier: AGPL-3.0-only\npragma solidity ^0.6.0;\npragma experimental ABIEncoderV2;\n\nimport \"@openzeppelin/contracts/math/SafeMath.sol\";\nimport \"@openzeppelin/contracts/token/ERC20/IERC20.sol\";\nimport \"@openzeppelin/contracts/token/ERC20/SafeERC20.sol\";\n\nimport \"../../common/implementation/FixedPoint.sol\";\nimport \"../../common/interfaces/ExpandedIERC20.sol\";\nimport \"../../common/interfaces/IERC20Standard.sol\";\n\nimport \"../../oracle/interfaces/OracleInterface.sol\";\nimport \"../../oracle/interfaces/IdentifierWhitelistInterface.sol\";\nimport \"../../oracle/implementation/Constants.sol\";\n\nimport \"../common/FeePayer.sol\";\nimport \"../common/financial-product-libraries/FinancialProductLibrary.sol\";\n\n/**\n * @title Financial contract with priceless position management.\n * @notice Handles positions for multiple sponsors in an optimistic (i.e., priceless) way without relying\n * on a price feed. On construction, deploys a new ERC20, managed by this contract, that is the synthetic token.\n */\n\ncontract PricelessPositionManager is FeePayer {\n    using SafeMath for uint256;\n    using FixedPoint for FixedPoint.Unsigned;\n    using SafeERC20 for IERC20;\n    using SafeERC20 for ExpandedIERC20;\n\n    /****************************************\n     *  PRICELESS POSITION DATA STRUCTURES  *\n     ****************************************/\n\n    // Stores the state of the PricelessPositionManager. Set on expiration, emergency shutdown, or settlement.\n    enum ContractState { Open, ExpiredPriceRequested, ExpiredPriceReceived }\n    ContractState public contractState;\n\n    // Represents a single sponsor's position. All collateral is held by this contract.\n    // This struct acts as bookkeeping for how much of that collateral is allocated to each sponsor.\n    struct PositionData {\n        FixedPoint.Unsigned tokensOutstanding;\n        // Tracks pending withdrawal requests. A withdrawal request is pending if `withdrawalRequestPassTimestamp != 0`.\n        uint256 withdrawalRequestPassTimestamp;\n        FixedPoint.Unsigned withdrawalRequestAmount;\n        // Raw collateral value. This value should never be accessed directly -- always use _getFeeAdjustedCollateral().\n        // To add or remove collateral, use _addCollateral() and _removeCollateral().\n        FixedPoint.Unsigned rawCollateral;\n        // Tracks pending transfer position requests. A transfer position request is pending if `transferPositionRequestPassTimestamp != 0`.\n        uint256 transferPositionRequestPassTimestamp;\n    }\n\n    // Maps sponsor addresses to their positions. Each sponsor can have only one position.\n    mapping(address => PositionData) public positions;\n\n    // Keep track of the total collateral and tokens across all positions to enable calculating the\n    // global collateralization ratio without iterating over all positions.\n    FixedPoint.Unsigned public totalTokensOutstanding;\n\n    // Similar to the rawCollateral in PositionData, this value should not be used directly.\n    // _getFeeAdjustedCollateral(), _addCollateral() and _removeCollateral() must be used to access and adjust.\n    FixedPoint.Unsigned public rawTotalPositionCollateral;\n\n    // Synthetic token created by this contract.\n    ExpandedIERC20 public tokenCurrency;\n\n    // Unique identifier for DVM price feed ticker.\n    bytes32 public priceIdentifier;\n    // Time that this contract expires. Should not change post-construction unless an emergency shutdown occurs.\n    uint256 public expirationTimestamp;\n    // Time that has to elapse for a withdrawal request to be considered passed, if no liquidations occur.\n    // !!Note: The lower the withdrawal liveness value, the more risk incurred by the contract.\n    //       Extremely low liveness values increase the chance that opportunistic invalid withdrawal requests\n    //       expire without liquidation, thereby increasing the insolvency risk for the contract as a whole. An insolvent\n    //       contract is extremely risky for any sponsor or synthetic token holder for the contract.\n    uint256 public withdrawalLiveness;\n\n    // Minimum number of tokens in a sponsor's position.\n    FixedPoint.Unsigned public minSponsorTokens;\n\n    // The expiry price pulled from the DVM.\n    FixedPoint.Unsigned public expiryPrice;\n\n    // The excessTokenBeneficiary of any excess tokens added to the contract.\n    address public excessTokenBeneficiary;\n\n    // Instance of FinancialProductLibrary to provide custom price and collateral requirement transformations to extend\n    // the functionality of the EMP to support a wider range of financial products.\n    FinancialProductLibrary public financialProductLibrary;\n\n    /****************************************\n     *                EVENTS                *\n     ****************************************/\n\n    event RequestTransferPosition(address indexed oldSponsor);\n    event RequestTransferPositionExecuted(address indexed oldSponsor, address indexed newSponsor);\n    event RequestTransferPositionCanceled(address indexed oldSponsor);\n    event Deposit(address indexed sponsor, uint256 indexed collateralAmount);\n    event Withdrawal(address indexed sponsor, uint256 indexed collateralAmount);\n    event RequestWithdrawal(address indexed sponsor, uint256 indexed collateralAmount);\n    event RequestWithdrawalExecuted(address indexed sponsor, uint256 indexed collateralAmount);\n    event RequestWithdrawalCanceled(address indexed sponsor, uint256 indexed collateralAmount);\n    event PositionCreated(address indexed sponsor, uint256 indexed collateralAmount, uint256 indexed tokenAmount);\n    event NewSponsor(address indexed sponsor);\n    event EndedSponsorPosition(address indexed sponsor);\n    event Redeem(address indexed sponsor, uint256 indexed collateralAmount, uint256 indexed tokenAmount);\n    event ContractExpired(address indexed caller);\n    event SettleExpiredPosition(\n        address indexed caller,\n        uint256 indexed collateralReturned,\n        uint256 indexed tokensBurned\n    );\n    event EmergencyShutdown(address indexed caller, uint256 originalExpirationTimestamp, uint256 shutdownTimestamp);\n\n    /****************************************\n     *               MODIFIERS              *\n     ****************************************/\n\n    modifier onlyPreExpiration() {\n        _onlyPreExpiration();\n        _;\n    }\n\n    modifier onlyPostExpiration() {\n        _onlyPostExpiration();\n        _;\n    }\n\n    modifier onlyCollateralizedPosition(address sponsor) {\n        _onlyCollateralizedPosition(sponsor);\n        _;\n    }\n\n    // Check that the current state of the pricelessPositionManager is Open.\n    // This prevents multiple calls to `expire` and `EmergencyShutdown` post expiration.\n    modifier onlyOpenState() {\n        _onlyOpenState();\n        _;\n    }\n\n    modifier noPendingWithdrawal(address sponsor) {\n        _positionHasNoPendingWithdrawal(sponsor);\n        _;\n    }\n\n    /**\n     * @notice Construct the PricelessPositionManager\n     * @dev Deployer of this contract should consider carefully which parties have ability to mint and burn\n     * the synthetic tokens referenced by `_tokenAddress`. This contract's security assumes that no external accounts\n     * can mint new tokens, which could be used to steal all of this contract's locked collateral.\n     * We recommend to only use synthetic token contracts whose sole Owner role (the role capable of adding & removing roles)\n     * is assigned to this contract, whose sole Minter role is assigned to this contract, and whose\n     * total supply is 0 prior to construction of this contract.\n     * @param _expirationTimestamp unix timestamp of when the contract will expire.\n     * @param _withdrawalLiveness liveness delay, in seconds, for pending withdrawals.\n     * @param _collateralAddress ERC20 token used as collateral for all positions.\n     * @param _tokenAddress ERC20 token used as synthetic token.\n     * @param _finderAddress UMA protocol Finder used to discover other protocol contracts.\n     * @param _priceIdentifier registered in the DVM for the synthetic.\n     * @param _minSponsorTokens minimum amount of collateral that must exist at any time in a position.\n     * @param _timerAddress Contract that stores the current time in a testing environment.\n     * @param _excessTokenBeneficiary Beneficiary to which all excess token balances that accrue in the contract can be\n     * sent.\n     * Must be set to 0x0 for production environments that use live time.\n     */\n    constructor(\n        uint256 _expirationTimestamp,\n        uint256 _withdrawalLiveness,\n        address _collateralAddress,\n        address _tokenAddress,\n        address _finderAddress,\n        bytes32 _priceIdentifier,\n        FixedPoint.Unsigned memory _minSponsorTokens,\n        address _timerAddress,\n        address _excessTokenBeneficiary,\n        address _financialProductLibraryAddress\n    ) public FeePayer(_collateralAddress, _finderAddress, _timerAddress) nonReentrant() {\n        require(_expirationTimestamp > getCurrentTime(), \"Invalid expiration in future\");\n        require(_getIdentifierWhitelist().isIdentifierSupported(_priceIdentifier), \"Unsupported price identifier\");\n\n        expirationTimestamp = _expirationTimestamp;\n        withdrawalLiveness = _withdrawalLiveness;\n        tokenCurrency = ExpandedIERC20(_tokenAddress);\n        minSponsorTokens = _minSponsorTokens;\n        priceIdentifier = _priceIdentifier;\n        excessTokenBeneficiary = _excessTokenBeneficiary;\n\n        // Initialize the financialProductLibrary at the provided address.\n        financialProductLibrary = FinancialProductLibrary(_financialProductLibraryAddress);\n    }\n\n    /****************************************\n     *          POSITION FUNCTIONS          *\n     ****************************************/\n\n    /**\n     * @notice Requests to transfer ownership of the caller's current position to a new sponsor address.\n     * Once the request liveness is passed, the sponsor can execute the transfer and specify the new sponsor.\n     * @dev The liveness length is the same as the withdrawal liveness.\n     */\n    function requestTransferPosition() public onlyPreExpiration() nonReentrant() {\n        PositionData storage positionData = _getPositionData(msg.sender);\n        require(positionData.transferPositionRequestPassTimestamp == 0, \"Pending transfer\");\n\n        // Make sure the proposed expiration of this request is not post-expiry.\n        uint256 requestPassTime = getCurrentTime().add(withdrawalLiveness);\n        require(requestPassTime < expirationTimestamp, \"Request expires post-expiry\");\n\n        // Update the position object for the user.\n        positionData.transferPositionRequestPassTimestamp = requestPassTime;\n\n        emit RequestTransferPosition(msg.sender);\n    }\n\n    /**\n     * @notice After a passed transfer position request (i.e., by a call to `requestTransferPosition` and waiting\n     * `withdrawalLiveness`), transfers ownership of the caller's current position to `newSponsorAddress`.\n     * @dev Transferring positions can only occur if the recipient does not already have a position.\n     * @param newSponsorAddress is the address to which the position will be transferred.\n     */\n    function transferPositionPassedRequest(address newSponsorAddress)\n        public\n        onlyPreExpiration()\n        noPendingWithdrawal(msg.sender)\n        nonReentrant()\n    {\n        require(\n            _getFeeAdjustedCollateral(positions[newSponsorAddress].rawCollateral).isEqual(\n                FixedPoint.fromUnscaledUint(0)\n            ),\n            \"Sponsor already has position\"\n        );\n        PositionData storage positionData = _getPositionData(msg.sender);\n        require(\n            positionData.transferPositionRequestPassTimestamp != 0 &&\n                positionData.transferPositionRequestPassTimestamp <= getCurrentTime(),\n            \"Invalid transfer request\"\n        );\n\n        // Reset transfer request.\n        positionData.transferPositionRequestPassTimestamp = 0;\n\n        positions[newSponsorAddress] = positionData;\n        delete positions[msg.sender];\n\n        emit RequestTransferPositionExecuted(msg.sender, newSponsorAddress);\n        emit NewSponsor(newSponsorAddress);\n        emit EndedSponsorPosition(msg.sender);\n    }\n\n    /**\n     * @notice Cancels a pending transfer position request.\n     */\n    function cancelTransferPosition() external onlyPreExpiration() nonReentrant() {\n        PositionData storage positionData = _getPositionData(msg.sender);\n        require(positionData.transferPositionRequestPassTimestamp != 0, \"No pending transfer\");\n\n        emit RequestTransferPositionCanceled(msg.sender);\n\n        // Reset withdrawal request.\n        positionData.transferPositionRequestPassTimestamp = 0;\n    }\n\n    /**\n     * @notice Transfers `collateralAmount` of `collateralCurrency` into the specified sponsor's position.\n     * @dev Increases the collateralization level of a position after creation. This contract must be approved to spend\n     * at least `collateralAmount` of `collateralCurrency`.\n     * @param sponsor the sponsor to credit the deposit to.\n     * @param collateralAmount total amount of collateral tokens to be sent to the sponsor's position.\n     */\n    function depositTo(address sponsor, FixedPoint.Unsigned memory collateralAmount)\n        public\n        onlyPreExpiration()\n        noPendingWithdrawal(sponsor)\n        fees()\n        nonReentrant()\n    {\n        require(collateralAmount.isGreaterThan(0), \"Invalid collateral amount\");\n        PositionData storage positionData = _getPositionData(sponsor);\n\n        // Increase the position and global collateral balance by collateral amount.\n        _incrementCollateralBalances(positionData, collateralAmount);\n\n        emit Deposit(sponsor, collateralAmount.rawValue);\n\n        // Move collateral currency from sender to contract.\n        collateralCurrency.safeTransferFrom(msg.sender, address(this), collateralAmount.rawValue);\n    }\n\n    /**\n     * @notice Transfers `collateralAmount` of `collateralCurrency` into the caller's position.\n     * @dev Increases the collateralization level of a position after creation. This contract must be approved to spend\n     * at least `collateralAmount` of `collateralCurrency`.\n     * @param collateralAmount total amount of collateral tokens to be sent to the sponsor's position.\n     */\n    function deposit(FixedPoint.Unsigned memory collateralAmount) public {\n        // This is just a thin wrapper over depositTo that specified the sender as the sponsor.\n        depositTo(msg.sender, collateralAmount);\n    }\n\n    /**\n     * @notice Transfers `collateralAmount` of `collateralCurrency` from the sponsor's position to the sponsor.\n     * @dev Reverts if the withdrawal puts this position's collateralization ratio below the global collateralization\n     * ratio. In that case, use `requestWithdrawal`. Might not withdraw the full requested amount to account for precision loss.\n     * @param collateralAmount is the amount of collateral to withdraw.\n     * @return amountWithdrawn The actual amount of collateral withdrawn.\n     */\n    function withdraw(FixedPoint.Unsigned memory collateralAmount)\n        public\n        onlyPreExpiration()\n        noPendingWithdrawal(msg.sender)\n        fees()\n        nonReentrant()\n        returns (FixedPoint.Unsigned memory amountWithdrawn)\n    {\n        PositionData storage positionData = _getPositionData(msg.sender);\n        require(collateralAmount.isGreaterThan(0), \"Invalid collateral amount\");\n\n        // Decrement the sponsor's collateral and global collateral amounts. Check the GCR between decrement to ensure\n        // position remains above the GCR within the witdrawl. If this is not the case the caller must submit a request.\n        amountWithdrawn = _decrementCollateralBalancesCheckGCR(positionData, collateralAmount);\n\n        emit Withdrawal(msg.sender, amountWithdrawn.rawValue);\n\n        // Move collateral currency from contract to sender.\n        // Note: that we move the amount of collateral that is decreased from rawCollateral (inclusive of fees)\n        // instead of the user requested amount. This eliminates precision loss that could occur\n        // where the user withdraws more collateral than rawCollateral is decremented by.\n        collateralCurrency.safeTransfer(msg.sender, amountWithdrawn.rawValue);\n    }\n\n    /**\n     * @notice Starts a withdrawal request that, if passed, allows the sponsor to withdraw` from their position.\n     * @dev The request will be pending for `withdrawalLiveness`, during which the position can be liquidated.\n     * @param collateralAmount the amount of collateral requested to withdraw\n     */\n    function requestWithdrawal(FixedPoint.Unsigned memory collateralAmount)\n        public\n        onlyPreExpiration()\n        noPendingWithdrawal(msg.sender)\n        nonReentrant()\n    {\n        PositionData storage positionData = _getPositionData(msg.sender);\n        require(\n            collateralAmount.isGreaterThan(0) &&\n                collateralAmount.isLessThanOrEqual(_getFeeAdjustedCollateral(positionData.rawCollateral)),\n            \"Invalid collateral amount\"\n        );\n\n        // Make sure the proposed expiration of this request is not post-expiry.\n        uint256 requestPassTime = getCurrentTime().add(withdrawalLiveness);\n        require(requestPassTime < expirationTimestamp, \"Request expires post-expiry\");\n\n        // Update the position object for the user.\n        positionData.withdrawalRequestPassTimestamp = requestPassTime;\n        positionData.withdrawalRequestAmount = collateralAmount;\n\n        emit RequestWithdrawal(msg.sender, collateralAmount.rawValue);\n    }\n\n    /**\n     * @notice After a passed withdrawal request (i.e., by a call to `requestWithdrawal` and waiting\n     * `withdrawalLiveness`), withdraws `positionData.withdrawalRequestAmount` of collateral currency.\n     * @dev Might not withdraw the full requested amount in order to account for precision loss or if the full requested\n     * amount exceeds the collateral in the position (due to paying fees).\n     * @return amountWithdrawn The actual amount of collateral withdrawn.\n     */\n    function withdrawPassedRequest()\n        external\n        onlyPreExpiration()\n        fees()\n        nonReentrant()\n        returns (FixedPoint.Unsigned memory amountWithdrawn)\n    {\n        PositionData storage positionData = _getPositionData(msg.sender);\n        require(\n            positionData.withdrawalRequestPassTimestamp != 0 &&\n                positionData.withdrawalRequestPassTimestamp <= getCurrentTime(),\n            \"Invalid withdraw request\"\n        );\n\n        // If withdrawal request amount is > position collateral, then withdraw the full collateral amount.\n        // This situation is possible due to fees charged since the withdrawal was originally requested.\n        FixedPoint.Unsigned memory amountToWithdraw = positionData.withdrawalRequestAmount;\n        if (positionData.withdrawalRequestAmount.isGreaterThan(_getFeeAdjustedCollateral(positionData.rawCollateral))) {\n            amountToWithdraw = _getFeeAdjustedCollateral(positionData.rawCollateral);\n        }\n\n        // Decrement the sponsor's collateral and global collateral amounts.\n        amountWithdrawn = _decrementCollateralBalances(positionData, amountToWithdraw);\n\n        // Reset withdrawal request by setting withdrawal amount and withdrawal timestamp to 0.\n        _resetWithdrawalRequest(positionData);\n\n        // Transfer approved withdrawal amount from the contract to the caller.\n        collateralCurrency.safeTransfer(msg.sender, amountWithdrawn.rawValue);\n\n        emit RequestWithdrawalExecuted(msg.sender, amountWithdrawn.rawValue);\n    }\n\n    /**\n     * @notice Cancels a pending withdrawal request.\n     */\n    function cancelWithdrawal() external nonReentrant() {\n        PositionData storage positionData = _getPositionData(msg.sender);\n        require(positionData.withdrawalRequestPassTimestamp != 0, \"No pending withdrawal\");\n\n        emit RequestWithdrawalCanceled(msg.sender, positionData.withdrawalRequestAmount.rawValue);\n\n        // Reset withdrawal request by setting withdrawal amount and withdrawal timestamp to 0.\n        _resetWithdrawalRequest(positionData);\n    }\n\n    /**\n     * @notice Creates tokens by creating a new position or by augmenting an existing position. Pulls `collateralAmount` into the sponsor's position and mints `numTokens` of `tokenCurrency`.\n     * @dev Reverts if minting these tokens would put the position's collateralization ratio below the\n     * global collateralization ratio. This contract must be approved to spend at least `collateralAmount` of\n     * `collateralCurrency`.\n     * @dev This contract must have the Minter role for the `tokenCurrency`.\n     * @param collateralAmount is the number of collateral tokens to collateralize the position with\n     * @param numTokens is the number of tokens to mint from the position.\n     */\n    function create(FixedPoint.Unsigned memory collateralAmount, FixedPoint.Unsigned memory numTokens)\n        public\n        onlyPreExpiration()\n        fees()\n        nonReentrant()\n    {\n        PositionData storage positionData = positions[msg.sender];\n\n        // Either the new create ratio or the resultant position CR must be above the current GCR.\n        require(\n            (_checkCollateralization(\n                _getFeeAdjustedCollateral(positionData.rawCollateral).add(collateralAmount),\n                positionData.tokensOutstanding.add(numTokens)\n            ) || _checkCollateralization(collateralAmount, numTokens)),\n            \"Insufficient collateral\"\n        );\n\n        require(positionData.withdrawalRequestPassTimestamp == 0, \"Pending withdrawal\");\n        if (positionData.tokensOutstanding.isEqual(0)) {\n            require(numTokens.isGreaterThanOrEqual(minSponsorTokens), \"Below minimum sponsor position\");\n            emit NewSponsor(msg.sender);\n        }\n\n        // Increase the position and global collateral balance by collateral amount.\n        _incrementCollateralBalances(positionData, collateralAmount);\n\n        // Add the number of tokens created to the position's outstanding tokens.\n        positionData.tokensOutstanding = positionData.tokensOutstanding.add(numTokens);\n\n        totalTokensOutstanding = totalTokensOutstanding.add(numTokens);\n\n        emit PositionCreated(msg.sender, collateralAmount.rawValue, numTokens.rawValue);\n\n        // Transfer tokens into the contract from caller and mint corresponding synthetic tokens to the caller's address.\n        collateralCurrency.safeTransferFrom(msg.sender, address(this), collateralAmount.rawValue);\n        require(tokenCurrency.mint(msg.sender, numTokens.rawValue), \"Minting synthetic tokens failed\");\n    }\n\n    /**\n     * @notice Burns `numTokens` of `tokenCurrency` and sends back the proportional amount of `collateralCurrency`.\n     * @dev Can only be called by a token sponsor. Might not redeem the full proportional amount of collateral\n     * in order to account for precision loss. This contract must be approved to spend at least `numTokens` of\n     * `tokenCurrency`.\n     * @dev This contract must have the Burner role for the `tokenCurrency`.\n     * @param numTokens is the number of tokens to be burnt for a commensurate amount of collateral.\n     * @return amountWithdrawn The actual amount of collateral withdrawn.\n     */\n    function redeem(FixedPoint.Unsigned memory numTokens)\n        public\n        noPendingWithdrawal(msg.sender)\n        fees()\n        nonReentrant()\n        returns (FixedPoint.Unsigned memory amountWithdrawn)\n    {\n        PositionData storage positionData = _getPositionData(msg.sender);\n        require(!numTokens.isGreaterThan(positionData.tokensOutstanding), \"Invalid token amount\");\n\n        FixedPoint.Unsigned memory fractionRedeemed = numTokens.div(positionData.tokensOutstanding);\n        FixedPoint.Unsigned memory collateralRedeemed =\n            fractionRedeemed.mul(_getFeeAdjustedCollateral(positionData.rawCollateral));\n\n        // If redemption returns all tokens the sponsor has then we can delete their position. Else, downsize.\n        if (positionData.tokensOutstanding.isEqual(numTokens)) {\n            amountWithdrawn = _deleteSponsorPosition(msg.sender);\n        } else {\n            // Decrement the sponsor's collateral and global collateral amounts.\n            amountWithdrawn = _decrementCollateralBalances(positionData, collateralRedeemed);\n\n            // Decrease the sponsors position tokens size. Ensure it is above the min sponsor size.\n            FixedPoint.Unsigned memory newTokenCount = positionData.tokensOutstanding.sub(numTokens);\n            require(newTokenCount.isGreaterThanOrEqual(minSponsorTokens), \"Below minimum sponsor position\");\n            positionData.tokensOutstanding = newTokenCount;\n\n            // Update the totalTokensOutstanding after redemption.\n            totalTokensOutstanding = totalTokensOutstanding.sub(numTokens);\n        }\n\n        emit Redeem(msg.sender, amountWithdrawn.rawValue, numTokens.rawValue);\n\n        // Transfer collateral from contract to caller and burn callers synthetic tokens.\n        collateralCurrency.safeTransfer(msg.sender, amountWithdrawn.rawValue);\n        tokenCurrency.safeTransferFrom(msg.sender, address(this), numTokens.rawValue);\n        tokenCurrency.burn(numTokens.rawValue);\n    }\n\n    /**\n     * @notice After a contract has passed expiry all token holders can redeem their tokens for underlying at the\n     * prevailing price defined by the DVM from the `expire` function.\n     * @dev This burns all tokens from the caller of `tokenCurrency` and sends back the proportional amount of\n     * `collateralCurrency`. Might not redeem the full proportional amount of collateral in order to account for\n     * precision loss. This contract must be approved to spend `tokenCurrency` at least up to the caller's full balance.\n     * @dev This contract must have the Burner role for the `tokenCurrency`.\n     * @return amountWithdrawn The actual amount of collateral withdrawn.\n     */\n    function settleExpired()\n        external\n        onlyPostExpiration()\n        fees()\n        nonReentrant()\n        returns (FixedPoint.Unsigned memory amountWithdrawn)\n    {\n        // If the contract state is open and onlyPostExpiration passed then `expire()` has not yet been called.\n        require(contractState != ContractState.Open, \"Unexpired position\");\n\n        // Get the current settlement price and store it. If it is not resolved will revert.\n        if (contractState != ContractState.ExpiredPriceReceived) {\n            expiryPrice = _getOraclePrice(expirationTimestamp);\n            contractState = ContractState.ExpiredPriceReceived;\n        }\n\n        // Get caller's tokens balance and calculate amount of underlying entitled to them.\n        FixedPoint.Unsigned memory tokensToRedeem = FixedPoint.Unsigned(tokenCurrency.balanceOf(msg.sender));\n        FixedPoint.Unsigned memory totalRedeemableCollateral = tokensToRedeem.mul(expiryPrice);\n\n        // If the caller is a sponsor with outstanding collateral they are also entitled to their excess collateral after their debt.\n        PositionData storage positionData = positions[msg.sender];\n        if (_getFeeAdjustedCollateral(positionData.rawCollateral).isGreaterThan(0)) {\n            // Calculate the underlying entitled to a token sponsor. This is collateral - debt in underlying.\n            FixedPoint.Unsigned memory tokenDebtValueInCollateral = positionData.tokensOutstanding.mul(expiryPrice);\n            FixedPoint.Unsigned memory positionCollateral = _getFeeAdjustedCollateral(positionData.rawCollateral);\n\n            // If the debt is greater than the remaining collateral, they cannot redeem anything.\n            FixedPoint.Unsigned memory positionRedeemableCollateral =\n                tokenDebtValueInCollateral.isLessThan(positionCollateral)\n                    ? positionCollateral.sub(tokenDebtValueInCollateral)\n                    : FixedPoint.Unsigned(0);\n\n            // Add the number of redeemable tokens for the sponsor to their total redeemable collateral.\n            totalRedeemableCollateral = totalRedeemableCollateral.add(positionRedeemableCollateral);\n\n            // Reset the position state as all the value has been removed after settlement.\n            delete positions[msg.sender];\n            emit EndedSponsorPosition(msg.sender);\n        }\n\n        // Take the min of the remaining collateral and the collateral \"owed\". If the contract is undercapitalized,\n        // the caller will get as much collateral as the contract can pay out.\n        FixedPoint.Unsigned memory payout =\n            FixedPoint.min(_getFeeAdjustedCollateral(rawTotalPositionCollateral), totalRedeemableCollateral);\n\n        // Decrement total contract collateral and outstanding debt.\n        amountWithdrawn = _removeCollateral(rawTotalPositionCollateral, payout);\n        totalTokensOutstanding = totalTokensOutstanding.sub(tokensToRedeem);\n\n        emit SettleExpiredPosition(msg.sender, amountWithdrawn.rawValue, tokensToRedeem.rawValue);\n\n        // Transfer tokens & collateral and burn the redeemed tokens.\n        collateralCurrency.safeTransfer(msg.sender, amountWithdrawn.rawValue);\n        tokenCurrency.safeTransferFrom(msg.sender, address(this), tokensToRedeem.rawValue);\n        tokenCurrency.burn(tokensToRedeem.rawValue);\n    }\n\n    /****************************************\n     *        GLOBAL STATE FUNCTIONS        *\n     ****************************************/\n\n    /**\n     * @notice Locks contract state in expired and requests oracle price.\n     * @dev this function can only be called once the contract is expired and can't be re-called.\n     */\n    function expire() external onlyPostExpiration() onlyOpenState() fees() nonReentrant() {\n        contractState = ContractState.ExpiredPriceRequested;\n\n        // The final fee for this request is paid out of the contract rather than by the caller.\n        _payFinalFees(address(this), _computeFinalFees());\n        _requestOraclePrice(expirationTimestamp);\n\n        emit ContractExpired(msg.sender);\n    }\n\n    /**\n     * @notice Premature contract settlement under emergency circumstances.\n     * @dev Only the governor can call this function as they are permissioned within the `FinancialContractAdmin`.\n     * Upon emergency shutdown, the contract settlement time is set to the shutdown time. This enables withdrawal\n     * to occur via the standard `settleExpired` function. Contract state is set to `ExpiredPriceRequested`\n     * which prevents re-entry into this function or the `expire` function. No fees are paid when calling\n     * `emergencyShutdown` as the governor who would call the function would also receive the fees.\n     */\n    function emergencyShutdown() external override onlyPreExpiration() onlyOpenState() nonReentrant() {\n        require(msg.sender == _getFinancialContractsAdminAddress(), \"Caller not Governor\");\n\n        contractState = ContractState.ExpiredPriceRequested;\n        // Expiratory time now becomes the current time (emergency shutdown time).\n        // Price requested at this time stamp. `settleExpired` can now withdraw at this timestamp.\n        uint256 oldExpirationTimestamp = expirationTimestamp;\n        expirationTimestamp = getCurrentTime();\n        _requestOraclePrice(expirationTimestamp);\n\n        emit EmergencyShutdown(msg.sender, oldExpirationTimestamp, expirationTimestamp);\n    }\n\n    /**\n     * @notice Theoretically supposed to pay fees and move money between margin accounts to make sure they\n     * reflect the NAV of the contract. However, this functionality doesn't apply to this contract.\n     * @dev This is supposed to be implemented by any contract that inherits `AdministrateeInterface` and callable\n     * only by the Governor contract. This method is therefore minimally implemented in this contract and does nothing.\n     */\n    function remargin() external override onlyPreExpiration() nonReentrant() {\n        return;\n    }\n\n    /**\n     * @notice Drains any excess balance of the provided ERC20 token to a pre-selected beneficiary.\n     * @dev This will drain down to the amount of tracked collateral and drain the full balance of any other token.\n     * @param token address of the ERC20 token whose excess balance should be drained.\n     */\n    function trimExcess(IERC20 token) external fees() nonReentrant() returns (FixedPoint.Unsigned memory amount) {\n        FixedPoint.Unsigned memory balance = FixedPoint.Unsigned(token.balanceOf(address(this)));\n\n        if (address(token) == address(collateralCurrency)) {\n            // If it is the collateral currency, send only the amount that the contract is not tracking.\n            // Note: this could be due to rounding error or balance-changing tokens, like aTokens.\n            amount = balance.sub(_pfc());\n        } else {\n            // If it's not the collateral currency, send the entire balance.\n            amount = balance;\n        }\n        token.safeTransfer(excessTokenBeneficiary, amount.rawValue);\n    }\n\n    /**\n     * @notice Accessor method for a sponsor's collateral.\n     * @dev This is necessary because the struct returned by the positions() method shows\n     * rawCollateral, which isn't a user-readable value.\n     * @dev TODO: This method does not account for any pending regular fees that have not yet been withdrawn\n     * from this contract, for example if the `lastPaymentTime != currentTime`. Future work should be to add\n     * logic to this method to account for any such pending fees.\n     * @param sponsor address whose collateral amount is retrieved.\n     * @return collateralAmount amount of collateral within a sponsors position.\n     */\n    function getCollateral(address sponsor)\n        external\n        view\n        nonReentrantView()\n        returns (FixedPoint.Unsigned memory collateralAmount)\n    {\n        // Note: do a direct access to avoid the validity check.\n        return _getFeeAdjustedCollateral(positions[sponsor].rawCollateral);\n    }\n\n    /**\n     * @notice Accessor method for the total collateral stored within the PricelessPositionManager.\n     * @return totalCollateral amount of all collateral within the Expiring Multi Party Contract.\n     */\n    function totalPositionCollateral()\n        external\n        view\n        nonReentrantView()\n        returns (FixedPoint.Unsigned memory totalCollateral)\n    {\n        return _getFeeAdjustedCollateral(rawTotalPositionCollateral);\n    }\n\n    /**\n     * @notice Accessor method to calculate a transformed price using the provided finanicalProductLibrary specified\n     * during contract deployment. If no library was provided then no modification to the price is done.\n     * @param price input price to be transformed.\n     * @return transformedPrice price with the transformation function applied to it.\n     * @dev This method should never revert.\n     */\n\n    function transformPrice(FixedPoint.Unsigned memory price, uint256 requestTime)\n        public\n        view\n        returns (FixedPoint.Unsigned memory)\n    {\n        if (address(financialProductLibrary) == address(0)) return price;\n        try financialProductLibrary.transformPrice(price, requestTime) returns (\n            FixedPoint.Unsigned memory transformedPrice\n        ) {\n            return transformedPrice;\n        } catch {\n            return price;\n        }\n    }\n\n    /****************************************\n     *          INTERNAL FUNCTIONS          *\n     ****************************************/\n\n    // Reduces a sponsor's position and global counters by the specified parameters. Handles deleting the entire\n    // position if the entire position is being removed. Does not make any external transfers.\n    function _reduceSponsorPosition(\n        address sponsor,\n        FixedPoint.Unsigned memory tokensToRemove,\n        FixedPoint.Unsigned memory collateralToRemove,\n        FixedPoint.Unsigned memory withdrawalAmountToRemove\n    ) internal {\n        PositionData storage positionData = _getPositionData(sponsor);\n\n        // If the entire position is being removed, delete it instead.\n        if (\n            tokensToRemove.isEqual(positionData.tokensOutstanding) &&\n            _getFeeAdjustedCollateral(positionData.rawCollateral).isEqual(collateralToRemove)\n        ) {\n            _deleteSponsorPosition(sponsor);\n            return;\n        }\n\n        // Decrement the sponsor's collateral and global collateral amounts.\n        _decrementCollateralBalances(positionData, collateralToRemove);\n\n        // Ensure that the sponsor will meet the min position size after the reduction.\n        FixedPoint.Unsigned memory newTokenCount = positionData.tokensOutstanding.sub(tokensToRemove);\n        require(newTokenCount.isGreaterThanOrEqual(minSponsorTokens), \"Below minimum sponsor position\");\n        positionData.tokensOutstanding = newTokenCount;\n\n        // Decrement the position's withdrawal amount.\n        positionData.withdrawalRequestAmount = positionData.withdrawalRequestAmount.sub(withdrawalAmountToRemove);\n\n        // Decrement the total outstanding tokens in the overall contract.\n        totalTokensOutstanding = totalTokensOutstanding.sub(tokensToRemove);\n    }\n\n    // Deletes a sponsor's position and updates global counters. Does not make any external transfers.\n    function _deleteSponsorPosition(address sponsor) internal returns (FixedPoint.Unsigned memory) {\n        PositionData storage positionToLiquidate = _getPositionData(sponsor);\n\n        FixedPoint.Unsigned memory startingGlobalCollateral = _getFeeAdjustedCollateral(rawTotalPositionCollateral);\n\n        // Remove the collateral and outstanding from the overall total position.\n        FixedPoint.Unsigned memory remainingRawCollateral = positionToLiquidate.rawCollateral;\n        rawTotalPositionCollateral = rawTotalPositionCollateral.sub(remainingRawCollateral);\n        totalTokensOutstanding = totalTokensOutstanding.sub(positionToLiquidate.tokensOutstanding);\n\n        // Reset the sponsors position to have zero outstanding and collateral.\n        delete positions[sponsor];\n\n        emit EndedSponsorPosition(sponsor);\n\n        // Return fee-adjusted amount of collateral deleted from position.\n        return startingGlobalCollateral.sub(_getFeeAdjustedCollateral(rawTotalPositionCollateral));\n    }\n\n    function _pfc() internal view virtual override returns (FixedPoint.Unsigned memory) {\n        return _getFeeAdjustedCollateral(rawTotalPositionCollateral);\n    }\n\n    function _getPositionData(address sponsor)\n        internal\n        view\n        onlyCollateralizedPosition(sponsor)\n        returns (PositionData storage)\n    {\n        return positions[sponsor];\n    }\n\n    function _getIdentifierWhitelist() internal view returns (IdentifierWhitelistInterface) {\n        return IdentifierWhitelistInterface(finder.getImplementationAddress(OracleInterfaces.IdentifierWhitelist));\n    }\n\n    function _getOracle() internal view returns (OracleInterface) {\n        return OracleInterface(finder.getImplementationAddress(OracleInterfaces.Oracle));\n    }\n\n    function _getFinancialContractsAdminAddress() internal view returns (address) {\n        return finder.getImplementationAddress(OracleInterfaces.FinancialContractsAdmin);\n    }\n\n    // Requests a price for `priceIdentifier` at `requestedTime` from the Oracle.\n    function _requestOraclePrice(uint256 requestedTime) internal {\n        OracleInterface oracle = _getOracle();\n        oracle.requestPrice(priceIdentifier, requestedTime);\n    }\n\n    // Fetches a resolved Oracle price from the Oracle. Reverts if the Oracle hasn't resolved for this request.\n    function _getOraclePrice(uint256 requestedTime) internal view returns (FixedPoint.Unsigned memory) {\n        // Create an instance of the oracle and get the price. If the price is not resolved revert.\n        OracleInterface oracle = _getOracle();\n        require(oracle.hasPrice(priceIdentifier, requestedTime), \"Unresolved oracle price\");\n        int256 oraclePrice = oracle.getPrice(priceIdentifier, requestedTime);\n\n        // For now we don't want to deal with negative prices in positions.\n        if (oraclePrice < 0) {\n            oraclePrice = 0;\n        }\n        return transformPrice(FixedPoint.Unsigned(uint256(oraclePrice)), requestedTime);\n    }\n\n    // Reset withdrawal request by setting the withdrawal request and withdrawal timestamp to 0.\n    function _resetWithdrawalRequest(PositionData storage positionData) internal {\n        positionData.withdrawalRequestAmount = FixedPoint.fromUnscaledUint(0);\n        positionData.withdrawalRequestPassTimestamp = 0;\n    }\n\n    // Ensure individual and global consistency when increasing collateral balances. Returns the change to the position.\n    function _incrementCollateralBalances(\n        PositionData storage positionData,\n        FixedPoint.Unsigned memory collateralAmount\n    ) internal returns (FixedPoint.Unsigned memory) {\n        _addCollateral(positionData.rawCollateral, collateralAmount);\n        return _addCollateral(rawTotalPositionCollateral, collateralAmount);\n    }\n\n    // Ensure individual and global consistency when decrementing collateral balances. Returns the change to the\n    // position. We elect to return the amount that the global collateral is decreased by, rather than the individual\n    // position's collateral, because we need to maintain the invariant that the global collateral is always\n    // <= the collateral owned by the contract to avoid reverts on withdrawals. The amount returned = amount withdrawn.\n    function _decrementCollateralBalances(\n        PositionData storage positionData,\n        FixedPoint.Unsigned memory collateralAmount\n    ) internal returns (FixedPoint.Unsigned memory) {\n        _removeCollateral(positionData.rawCollateral, collateralAmount);\n        return _removeCollateral(rawTotalPositionCollateral, collateralAmount);\n    }\n\n    // Ensure individual and global consistency when decrementing collateral balances. Returns the change to the position.\n    // This function is similar to the _decrementCollateralBalances function except this function checks position GCR\n    // between the decrements. This ensures that collateral removal will not leave the position undercollateralized.\n    function _decrementCollateralBalancesCheckGCR(\n        PositionData storage positionData,\n        FixedPoint.Unsigned memory collateralAmount\n    ) internal returns (FixedPoint.Unsigned memory) {\n        _removeCollateral(positionData.rawCollateral, collateralAmount);\n        require(_checkPositionCollateralization(positionData), \"CR below GCR\");\n        return _removeCollateral(rawTotalPositionCollateral, collateralAmount);\n    }\n\n    // These internal functions are supposed to act identically to modifiers, but re-used modifiers\n    // unnecessarily increase contract bytecode size.\n    // source: https://blog.polymath.network/solidity-tips-and-tricks-to-save-gas-and-reduce-bytecode-size-c44580b218e6\n    function _onlyOpenState() internal view {\n        require(contractState == ContractState.Open, \"Contract state is not OPEN\");\n    }\n\n    function _onlyPreExpiration() internal view {\n        require(getCurrentTime() < expirationTimestamp, \"Only callable pre-expiry\");\n    }\n\n    function _onlyPostExpiration() internal view {\n        require(getCurrentTime() >= expirationTimestamp, \"Only callable post-expiry\");\n    }\n\n    function _onlyCollateralizedPosition(address sponsor) internal view {\n        require(\n            _getFeeAdjustedCollateral(positions[sponsor].rawCollateral).isGreaterThan(0),\n            \"Position has no collateral\"\n        );\n    }\n\n    // Note: This checks whether an already existing position has a pending withdrawal. This cannot be used on the\n    // `create` method because it is possible that `create` is called on a new position (i.e. one without any collateral\n    // or tokens outstanding) which would fail the `onlyCollateralizedPosition` modifier on `_getPositionData`.\n    function _positionHasNoPendingWithdrawal(address sponsor) internal view {\n        require(_getPositionData(sponsor).withdrawalRequestPassTimestamp == 0, \"Pending withdrawal\");\n    }\n\n    /****************************************\n     *          PRIVATE FUNCTIONS          *\n     ****************************************/\n\n    function _checkPositionCollateralization(PositionData storage positionData) private view returns (bool) {\n        return\n            _checkCollateralization(\n                _getFeeAdjustedCollateral(positionData.rawCollateral),\n                positionData.tokensOutstanding\n            );\n    }\n\n    // Checks whether the provided `collateral` and `numTokens` have a collateralization ratio above the global\n    // collateralization ratio.\n    function _checkCollateralization(FixedPoint.Unsigned memory collateral, FixedPoint.Unsigned memory numTokens)\n        private\n        view\n        returns (bool)\n    {\n        FixedPoint.Unsigned memory global =\n            _getCollateralizationRatio(_getFeeAdjustedCollateral(rawTotalPositionCollateral), totalTokensOutstanding);\n        FixedPoint.Unsigned memory thisChange = _getCollateralizationRatio(collateral, numTokens);\n        return !global.isGreaterThan(thisChange);\n    }\n\n    function _getCollateralizationRatio(FixedPoint.Unsigned memory collateral, FixedPoint.Unsigned memory numTokens)\n        private\n        pure\n        returns (FixedPoint.Unsigned memory ratio)\n    {\n        if (!numTokens.isGreaterThan(0)) {\n            return FixedPoint.fromUnscaledUint(0);\n        } else {\n            return collateral.div(numTokens);\n        }\n    }\n\n    // IERC20Standard.decimals() will revert if the collateral contract has not implemented the decimals() method,\n    // which is possible since the method is only an OPTIONAL method in the ERC20 standard:\n    // https://eips.ethereum.org/EIPS/eip-20#methods.\n    function _getSyntheticDecimals(address _collateralAddress) public view returns (uint8 decimals) {\n        try IERC20Standard(_collateralAddress).decimals() returns (uint8 _decimals) {\n            return _decimals;\n        } catch {\n            return 18;\n        }\n    }\n}\n",
  "sourcePath": "/Users/matt/git/protocol/packages/core/contracts/financial-templates/expiring-multiparty/PricelessPositionManager.sol",
  "compiler": {
    "name": "solc",
    "version": "0.6.12+commit.27d51765.Emscripten.clang"
  },
  "schemaVersion": "3.2.3",
  "updatedAt": "2020-12-19T00:28:52.558Z",
  "devdoc": {
    "kind": "dev",
    "methods": {
      "constructor": {
        "details": "Deployer of this contract should consider carefully which parties have ability to mint and burn the synthetic tokens referenced by `_tokenAddress`. This contract's security assumes that no external accounts can mint new tokens, which could be used to steal all of this contract's locked collateral. We recommend to only use synthetic token contracts whose sole Owner role (the role capable of adding & removing roles) is assigned to this contract, whose sole Minter role is assigned to this contract, and whose total supply is 0 prior to construction of this contract.",
        "params": {
          "_collateralAddress": "ERC20 token used as collateral for all positions.",
          "_excessTokenBeneficiary": "Beneficiary to which all excess token balances that accrue in the contract can be sent. Must be set to 0x0 for production environments that use live time.",
          "_expirationTimestamp": "unix timestamp of when the contract will expire.",
          "_finderAddress": "UMA protocol Finder used to discover other protocol contracts.",
          "_minSponsorTokens": "minimum amount of collateral that must exist at any time in a position.",
          "_priceIdentifier": "registered in the DVM for the synthetic.",
          "_timerAddress": "Contract that stores the current time in a testing environment.",
          "_tokenAddress": "ERC20 token used as synthetic token.",
          "_withdrawalLiveness": "liveness delay, in seconds, for pending withdrawals."
        }
      },
      "create((uint256),(uint256))": {
        "details": "Reverts if minting these tokens would put the position's collateralization ratio below the global collateralization ratio. This contract must be approved to spend at least `collateralAmount` of `collateralCurrency`.This contract must have the Minter role for the `tokenCurrency`.",
        "params": {
          "collateralAmount": "is the number of collateral tokens to collateralize the position with",
          "numTokens": "is the number of tokens to mint from the position."
        }
      },
      "deposit((uint256))": {
        "details": "Increases the collateralization level of a position after creation. This contract must be approved to spend at least `collateralAmount` of `collateralCurrency`.",
        "params": {
          "collateralAmount": "total amount of collateral tokens to be sent to the sponsor's position."
        }
      },
      "depositTo(address,(uint256))": {
        "details": "Increases the collateralization level of a position after creation. This contract must be approved to spend at least `collateralAmount` of `collateralCurrency`.",
        "params": {
          "collateralAmount": "total amount of collateral tokens to be sent to the sponsor's position.",
          "sponsor": "the sponsor to credit the deposit to."
        }
      },
      "emergencyShutdown()": {
        "details": "Only the governor can call this function as they are permissioned within the `FinancialContractAdmin`. Upon emergency shutdown, the contract settlement time is set to the shutdown time. This enables withdrawal to occur via the standard `settleExpired` function. Contract state is set to `ExpiredPriceRequested` which prevents re-entry into this function or the `expire` function. No fees are paid when calling `emergencyShutdown` as the governor who would call the function would also receive the fees."
      },
      "expire()": {
        "details": "this function can only be called once the contract is expired and can't be re-called."
      },
      "getCollateral(address)": {
        "details": "This is necessary because the struct returned by the positions() method shows rawCollateral, which isn't a user-readable value.TODO: This method does not account for any pending regular fees that have not yet been withdrawn from this contract, for example if the `lastPaymentTime != currentTime`. Future work should be to add logic to this method to account for any such pending fees.",
        "params": {
          "sponsor": "address whose collateral amount is retrieved."
        },
        "returns": {
          "collateralAmount": "amount of collateral within a sponsors position."
        }
      },
      "getCurrentTime()": {
        "returns": {
          "_0": "uint for the current Testable timestamp."
        }
      },
      "payRegularFees()": {
        "details": "These must be paid periodically for the life of the contract. If the contract has not paid its regular fee in a week or more then a late penalty is applied which is sent to the caller. If the amount of fees owed are greater than the pfc, then this will pay as much as possible from the available collateral. An event is only fired if the fees charged are greater than 0.",
        "returns": {
          "totalPaid": "Amount of collateral that the contract paid (sum of the amount paid to the Store and caller). This returns 0 and exit early if there is no pfc, fees were already paid during the current block, or the fee rate is 0."
        }
      },
      "pfc()": {
        "details": "This is equivalent to the collateral pool available from which to pay fees. Therefore, derived contracts are expected to implement this so that pay-fee methods can correctly compute the owed fees as a % of PfC.",
        "returns": {
          "_0": "pfc value for equal to the current profit from corruption denominated in collateral currency."
        }
      },
      "redeem((uint256))": {
        "details": "Can only be called by a token sponsor. Might not redeem the full proportional amount of collateral in order to account for precision loss. This contract must be approved to spend at least `numTokens` of `tokenCurrency`.This contract must have the Burner role for the `tokenCurrency`.",
        "params": {
          "numTokens": "is the number of tokens to be burnt for a commensurate amount of collateral."
        },
        "returns": {
          "amountWithdrawn": "The actual amount of collateral withdrawn."
        }
      },
      "remargin()": {
        "details": "This is supposed to be implemented by any contract that inherits `AdministrateeInterface` and callable only by the Governor contract. This method is therefore minimally implemented in this contract and does nothing."
      },
      "requestTransferPosition()": {
        "details": "The liveness length is the same as the withdrawal liveness."
      },
      "requestWithdrawal((uint256))": {
        "details": "The request will be pending for `withdrawalLiveness`, during which the position can be liquidated.",
        "params": {
          "collateralAmount": "the amount of collateral requested to withdraw"
        }
      },
      "setCurrentTime(uint256)": {
        "details": "Will revert if not running in test mode.",
        "params": {
          "time": "timestamp to set current Testable time to."
        }
      },
      "settleExpired()": {
        "details": "This burns all tokens from the caller of `tokenCurrency` and sends back the proportional amount of `collateralCurrency`. Might not redeem the full proportional amount of collateral in order to account for precision loss. This contract must be approved to spend `tokenCurrency` at least up to the caller's full balance.This contract must have the Burner role for the `tokenCurrency`.",
        "returns": {
          "amountWithdrawn": "The actual amount of collateral withdrawn."
        }
      },
      "totalPositionCollateral()": {
        "returns": {
          "totalCollateral": "amount of all collateral within the Expiring Multi Party Contract."
        }
      },
      "transferPositionPassedRequest(address)": {
        "details": "Transferring positions can only occur if the recipient does not already have a position.",
        "params": {
          "newSponsorAddress": "is the address to which the position will be transferred."
        }
      },
      "transformPrice((uint256),uint256)": {
        "details": "This method should never revert.",
        "params": {
          "price": "input price to be transformed."
        },
        "returns": {
          "_0": "transformedPrice price with the transformation function applied to it."
        }
      },
      "trimExcess(address)": {
        "details": "This will drain down to the amount of tracked collateral and drain the full balance of any other token.",
        "params": {
          "token": "address of the ERC20 token whose excess balance should be drained."
        }
      },
      "withdraw((uint256))": {
        "details": "Reverts if the withdrawal puts this position's collateralization ratio below the global collateralization ratio. In that case, use `requestWithdrawal`. Might not withdraw the full requested amount to account for precision loss.",
        "params": {
          "collateralAmount": "is the amount of collateral to withdraw."
        },
        "returns": {
          "amountWithdrawn": "The actual amount of collateral withdrawn."
        }
      },
      "withdrawPassedRequest()": {
        "details": "Might not withdraw the full requested amount in order to account for precision loss or if the full requested amount exceeds the collateral in the position (due to paying fees).",
        "returns": {
          "amountWithdrawn": "The actual amount of collateral withdrawn."
        }
      }
    },
    "title": "Financial contract with priceless position management.",
    "version": 1
  },
  "userdoc": {
    "kind": "user",
    "methods": {
      "cancelTransferPosition()": {
        "notice": "Cancels a pending transfer position request."
      },
      "cancelWithdrawal()": {
        "notice": "Cancels a pending withdrawal request."
      },
      "constructor": "Construct the PricelessPositionManager",
      "create((uint256),(uint256))": {
        "notice": "Creates tokens by creating a new position or by augmenting an existing position. Pulls `collateralAmount` into the sponsor's position and mints `numTokens` of `tokenCurrency`."
      },
      "deposit((uint256))": {
        "notice": "Transfers `collateralAmount` of `collateralCurrency` into the caller's position."
      },
      "depositTo(address,(uint256))": {
        "notice": "Transfers `collateralAmount` of `collateralCurrency` into the specified sponsor's position."
      },
      "emergencyShutdown()": {
        "notice": "Premature contract settlement under emergency circumstances."
      },
      "expire()": {
        "notice": "Locks contract state in expired and requests oracle price."
      },
      "getCollateral(address)": {
        "notice": "Accessor method for a sponsor's collateral."
      },
      "getCurrentTime()": {
        "notice": "Gets the current time. Will return the last time set in `setCurrentTime` if running in test mode. Otherwise, it will return the block timestamp."
      },
      "payRegularFees()": {
        "notice": "Pays UMA DVM regular fees (as a % of the collateral pool) to the Store contract."
      },
      "pfc()": {
        "notice": "Gets the current profit from corruption for this contract in terms of the collateral currency."
      },
      "redeem((uint256))": {
        "notice": "Burns `numTokens` of `tokenCurrency` and sends back the proportional amount of `collateralCurrency`."
      },
      "remargin()": {
        "notice": "Theoretically supposed to pay fees and move money between margin accounts to make sure they reflect the NAV of the contract. However, this functionality doesn't apply to this contract."
      },
      "requestTransferPosition()": {
        "notice": "Requests to transfer ownership of the caller's current position to a new sponsor address. Once the request liveness is passed, the sponsor can execute the transfer and specify the new sponsor."
      },
      "requestWithdrawal((uint256))": {
        "notice": "Starts a withdrawal request that, if passed, allows the sponsor to withdraw` from their position."
      },
      "setCurrentTime(uint256)": {
        "notice": "Sets the current time."
      },
      "settleExpired()": {
        "notice": "After a contract has passed expiry all token holders can redeem their tokens for underlying at the prevailing price defined by the DVM from the `expire` function."
      },
      "totalPositionCollateral()": {
        "notice": "Accessor method for the total collateral stored within the PricelessPositionManager."
      },
      "transferPositionPassedRequest(address)": {
        "notice": "After a passed transfer position request (i.e., by a call to `requestTransferPosition` and waiting `withdrawalLiveness`), transfers ownership of the caller's current position to `newSponsorAddress`."
      },
      "transformPrice((uint256),uint256)": {
        "notice": "Accessor method to calculate a transformed price using the provided finanicalProductLibrary specified during contract deployment. If no library was provided then no modification to the price is done."
      },
      "trimExcess(address)": {
        "notice": "Drains any excess balance of the provided ERC20 token to a pre-selected beneficiary."
      },
      "withdraw((uint256))": {
        "notice": "Transfers `collateralAmount` of `collateralCurrency` from the sponsor's position to the sponsor."
      },
      "withdrawPassedRequest()": {
        "notice": "After a passed withdrawal request (i.e., by a call to `requestWithdrawal` and waiting `withdrawalLiveness`), withdraws `positionData.withdrawalRequestAmount` of collateral currency."
      }
    },
    "notice": "Handles positions for multiple sponsors in an optimistic (i.e., priceless) way without relying on a price feed. On construction, deploys a new ERC20, managed by this contract, that is the synthetic token.",
    "version": 1
  }
}