{
  "contractName": "FundingRateStore",
  "abi": [
    {
      "inputs": [
        {
          "internalType": "uint256",
          "name": "_proposalLiveness",
          "type": "uint256"
        },
        {
          "internalType": "address",
          "name": "_finderAddress",
          "type": "address"
        },
        {
          "internalType": "address",
          "name": "_timerAddress",
          "type": "address"
        },
        {
          "components": [
            {
              "internalType": "uint256",
              "name": "rawValue",
              "type": "uint256"
            }
          ],
          "internalType": "struct FixedPoint.Unsigned",
          "name": "_proposalBondPct",
          "type": "tuple"
        }
      ],
      "stateMutability": "nonpayable",
      "type": "constructor"
    },
    {
      "anonymous": false,
      "inputs": [
        {
          "indexed": true,
          "internalType": "address",
          "name": "perpetual",
          "type": "address"
        },
        {
          "indexed": false,
          "internalType": "uint256",
          "name": "rewardRate",
          "type": "uint256"
        }
      ],
      "name": "ChangedRewardRate",
      "type": "event"
    },
    {
      "anonymous": false,
      "inputs": [
        {
          "indexed": true,
          "internalType": "address",
          "name": "perpetual",
          "type": "address"
        },
        {
          "indexed": false,
          "internalType": "int256",
          "name": "rate",
          "type": "int256"
        },
        {
          "indexed": true,
          "internalType": "uint256",
          "name": "proposalTime",
          "type": "uint256"
        },
        {
          "indexed": true,
          "internalType": "address",
          "name": "proposer",
          "type": "address"
        },
        {
          "indexed": false,
          "internalType": "address",
          "name": "disputer",
          "type": "address"
        },
        {
          "indexed": false,
          "internalType": "uint256",
          "name": "disputeBond",
          "type": "uint256"
        },
        {
          "indexed": false,
          "internalType": "uint256",
          "name": "finalFeeBond",
          "type": "uint256"
        }
      ],
      "name": "DisputedRate",
      "type": "event"
    },
    {
      "anonymous": false,
      "inputs": [
        {
          "indexed": true,
          "internalType": "address",
          "name": "perpetual",
          "type": "address"
        },
        {
          "indexed": true,
          "internalType": "uint256",
          "name": "proposalTime",
          "type": "uint256"
        },
        {
          "indexed": false,
          "internalType": "address",
          "name": "proposer",
          "type": "address"
        },
        {
          "indexed": true,
          "internalType": "address",
          "name": "disputer",
          "type": "address"
        },
        {
          "indexed": false,
          "internalType": "bool",
          "name": "disputeSucceeded",
          "type": "bool"
        }
      ],
      "name": "DisputedRateSettled",
      "type": "event"
    },
    {
      "anonymous": false,
      "inputs": [
        {
          "indexed": true,
          "internalType": "address",
          "name": "collateralCurrency",
          "type": "address"
        },
        {
          "indexed": true,
          "internalType": "uint256",
          "name": "amount",
          "type": "uint256"
        }
      ],
      "name": "FinalFeesPaid",
      "type": "event"
    },
    {
      "anonymous": false,
      "inputs": [
        {
          "indexed": true,
          "internalType": "address",
          "name": "perpetual",
          "type": "address"
        },
        {
          "indexed": false,
          "internalType": "int256",
          "name": "rate",
          "type": "int256"
        },
        {
          "indexed": true,
          "internalType": "uint256",
          "name": "proposalTime",
          "type": "uint256"
        },
        {
          "indexed": true,
          "internalType": "address",
          "name": "proposer",
          "type": "address"
        },
        {
          "indexed": false,
          "internalType": "uint256",
          "name": "rewardPct",
          "type": "uint256"
        },
        {
          "indexed": false,
          "internalType": "uint256",
          "name": "proposalBond",
          "type": "uint256"
        },
        {
          "indexed": false,
          "internalType": "uint256",
          "name": "finalFeeBond",
          "type": "uint256"
        }
      ],
      "name": "ProposedRate",
      "type": "event"
    },
    {
      "anonymous": false,
      "inputs": [
        {
          "indexed": true,
          "internalType": "address",
          "name": "perpetual",
          "type": "address"
        },
        {
          "indexed": false,
          "internalType": "int256",
          "name": "rate",
          "type": "int256"
        },
        {
          "indexed": true,
          "internalType": "uint256",
          "name": "proposalTime",
          "type": "uint256"
        },
        {
          "indexed": true,
          "internalType": "address",
          "name": "proposer",
          "type": "address"
        },
        {
          "indexed": false,
          "internalType": "uint256",
          "name": "rewardPct",
          "type": "uint256"
        },
        {
          "indexed": false,
          "internalType": "uint256",
          "name": "rewardPayment",
          "type": "uint256"
        },
        {
          "indexed": false,
          "internalType": "uint256",
          "name": "totalPayment",
          "type": "uint256"
        }
      ],
      "name": "PublishedRate",
      "type": "event"
    },
    {
      "anonymous": false,
      "inputs": [
        {
          "indexed": true,
          "internalType": "address",
          "name": "perpetual",
          "type": "address"
        },
        {
          "indexed": false,
          "internalType": "uint256",
          "name": "withdrawAmount",
          "type": "uint256"
        }
      ],
      "name": "WithdrawErrorIgnored",
      "type": "event"
    },
    {
      "inputs": [],
      "name": "finder",
      "outputs": [
        {
          "internalType": "contract FinderInterface",
          "name": "",
          "type": "address"
        }
      ],
      "stateMutability": "view",
      "type": "function"
    },
    {
      "inputs": [],
      "name": "getCurrentTime",
      "outputs": [
        {
          "internalType": "uint256",
          "name": "",
          "type": "uint256"
        }
      ],
      "stateMutability": "view",
      "type": "function"
    },
    {
      "inputs": [],
      "name": "proposalBondPct",
      "outputs": [
        {
          "internalType": "uint256",
          "name": "rawValue",
          "type": "uint256"
        }
      ],
      "stateMutability": "view",
      "type": "function"
    },
    {
      "inputs": [],
      "name": "proposalLiveness",
      "outputs": [
        {
          "internalType": "uint256",
          "name": "",
          "type": "uint256"
        }
      ],
      "stateMutability": "view",
      "type": "function"
    },
    {
      "inputs": [
        {
          "internalType": "uint256",
          "name": "time",
          "type": "uint256"
        }
      ],
      "name": "setCurrentTime",
      "outputs": [],
      "stateMutability": "nonpayable",
      "type": "function"
    },
    {
      "inputs": [],
      "name": "timerAddress",
      "outputs": [
        {
          "internalType": "address",
          "name": "",
          "type": "address"
        }
      ],
      "stateMutability": "view",
      "type": "function"
    },
    {
      "inputs": [
        {
          "internalType": "address",
          "name": "perpetual",
          "type": "address"
        }
      ],
      "name": "getFundingRateForContract",
      "outputs": [
        {
          "components": [
            {
              "internalType": "int256",
              "name": "rawValue",
              "type": "int256"
            }
          ],
          "internalType": "struct FixedPoint.Signed",
          "name": "",
          "type": "tuple"
        }
      ],
      "stateMutability": "view",
      "type": "function"
    },
    {
      "inputs": [
        {
          "internalType": "address",
          "name": "perpetual",
          "type": "address"
        },
        {
          "components": [
            {
              "internalType": "int256",
              "name": "rawValue",
              "type": "int256"
            }
          ],
          "internalType": "struct FixedPoint.Signed",
          "name": "rate",
          "type": "tuple"
        }
      ],
      "name": "getRewardRateForContract",
      "outputs": [
        {
          "components": [
            {
              "internalType": "uint256",
              "name": "rawValue",
              "type": "uint256"
            }
          ],
          "internalType": "struct FixedPoint.Unsigned",
          "name": "rewardRate",
          "type": "tuple"
        }
      ],
      "stateMutability": "view",
      "type": "function"
    },
    {
      "inputs": [
        {
          "internalType": "address",
          "name": "perpetual",
          "type": "address"
        },
        {
          "components": [
            {
              "internalType": "int256",
              "name": "rawValue",
              "type": "int256"
            }
          ],
          "internalType": "struct FixedPoint.Signed",
          "name": "rate",
          "type": "tuple"
        }
      ],
      "name": "propose",
      "outputs": [],
      "stateMutability": "nonpayable",
      "type": "function"
    },
    {
      "inputs": [
        {
          "internalType": "address",
          "name": "perpetual",
          "type": "address"
        }
      ],
      "name": "dispute",
      "outputs": [],
      "stateMutability": "nonpayable",
      "type": "function"
    },
    {
      "inputs": [
        {
          "internalType": "address",
          "name": "perpetual",
          "type": "address"
        },
        {
          "internalType": "uint256",
          "name": "proposalTime",
          "type": "uint256"
        }
      ],
      "name": "settleDispute",
      "outputs": [],
      "stateMutability": "nonpayable",
      "type": "function"
    },
    {
      "inputs": [
        {
          "internalType": "address",
          "name": "perpetual",
          "type": "address"
        }
      ],
      "name": "withdrawProposalRewards",
      "outputs": [],
      "stateMutability": "nonpayable",
      "type": "function"
    },
    {
      "inputs": [
        {
          "internalType": "address",
          "name": "perpetual",
          "type": "address"
        },
        {
          "components": [
            {
              "internalType": "uint256",
              "name": "rawValue",
              "type": "uint256"
            }
          ],
          "internalType": "struct FixedPoint.Unsigned",
          "name": "rewardRate",
          "type": "tuple"
        }
      ],
      "name": "setRewardRate",
      "outputs": [],
      "stateMutability": "nonpayable",
      "type": "function"
    },
    {
      "inputs": [
        {
          "internalType": "address",
          "name": "perpetual",
          "type": "address"
        },
        {
          "internalType": "uint256",
          "name": "startTime",
          "type": "uint256"
        },
        {
          "internalType": "uint256",
          "name": "endTime",
          "type": "uint256"
        },
        {
          "components": [
            {
              "internalType": "int256",
              "name": "rawValue",
              "type": "int256"
            }
          ],
          "internalType": "struct FixedPoint.Signed",
          "name": "proposedRate",
          "type": "tuple"
        },
        {
          "components": [
            {
              "internalType": "int256",
              "name": "rawValue",
              "type": "int256"
            }
          ],
          "internalType": "struct FixedPoint.Signed",
          "name": "currentRate",
          "type": "tuple"
        }
      ],
      "name": "calculateProposalRewardPct",
      "outputs": [
        {
          "components": [
            {
              "internalType": "uint256",
              "name": "rawValue",
              "type": "uint256"
            }
          ],
          "internalType": "struct FixedPoint.Unsigned",
          "name": "reward",
          "type": "tuple"
        }
      ],
      "stateMutability": "view",
      "type": "function"
    }
  ],
  "bytecode": "0x60806040523480156200001157600080fd5b5060405162002b1938038062002b198339810160408190526200003491620000b8565b60008054600160a01b6001600160a01b03199091166001600160a01b0385161760ff60a01b191617905583620000875760405162461bcd60e51b81526004016200007e9062000141565b60405180910390fd5b600593909355509051600155600280546001600160a01b0319166001600160a01b0390921691909117905562000191565b6000806000808486036080811215620000cf578485fd5b855194506020860151620000e38162000178565b6040870151909450620000f68162000178565b92506020605f19820112156200010a578182fd5b50604051602081016001600160401b03811182821017156200012a578283fd5b604052606095909501518552509194909350909190565b60208082526016908201527f50726f706f73616c206c6976656e657373206973203000000000000000000000604082015260600190565b6001600160a01b03811681146200018e57600080fd5b50565b61297880620001a16000396000f3fe608060405234801561001057600080fd5b50600436106100e95760003560e01c8063715174961161008c578063b9a3c84c11610066578063b9a3c84c146101bd578063c5bc81ac146101c5578063eb9c7de1146101cd578063f75f9f7b146101e0576100e9565b8063715174961461018f578063b43caa9f14610197578063b8107cc9146101aa576100e9565b80631c39c38d116100c85780631c39c38d1461013f57806322f8e5661461015457806324b41f681461016757806329cb924d1461017a576100e9565b80623cf0fb146100ee578063018afa4c1461011757806308bf48941461012c575b600080fd5b6101016100fc3660046121e0565b6101f3565b60405161010e91906128d0565b60405180910390f35b61012a6101253660046121a8565b61023f565b005b61012a61013a3660046121e0565b610265565b610147610738565b60405161010e9190612377565b61012a610162366004612343565b610747565b6101016101753660046121a8565b6107c1565b610182610956565b60405161010e9190612417565b6101826109f9565b6101016101a536600461228c565b6109ff565b61012a6101b8366004612261565b610a1e565b610147610dd9565b610182610de8565b61012a6101db366004612215565b610dee565b61012a6101ee3660046121a8565b610e9f565b6101fb612170565b61020361119b565b600061020e846111c6565b9050610237848260010154610221610956565b60408051602081019091528554815287906111e4565b949350505050565b61024761119b565b61024f6112f7565b8061025981611306565b5061026261165a565b50565b61026d61119b565b6102756112f7565b8161027f81611306565b61028761166f565b6001600160a01b03166390978d1b846001600160a01b03166341b3eb7c6040518163ffffffff1660e01b815260040160206040518083038186803b1580156102ce57600080fd5b505afa1580156102e2573d6000803e3d6000fd5b505050506040513d601f19601f820116820180604052508101906103069190612306565b6040518263ffffffff1660e01b81526004016103229190612417565b60206040518083038186803b15801561033a57600080fd5b505afa15801561034e573d6000803e3d6000fd5b505050506040513d601f19601f8201168201806040525081019061037291906122e6565b6103975760405162461bcd60e51b815260040161038e90612604565b60405180910390fd5b60006103a2846111c6565b905060016103b28260020161170b565b60028111156103bd57fe5b14156103db5760405162461bcd60e51b815260040161038e9061253a565b6040805160208101909152815481526103f49084611752565b156104115760405162461bcd60e51b815260040161038e906126bd565b600061041b610956565b90506000610429868361175e565b600401546001600160a01b0316146104535760405162461bcd60e51b815260040161038e9061273b565b6000856001600160a01b0316630cd77bb96040518163ffffffff1660e01b815260040160206040518083038186803b15801561048e57600080fd5b505afa1580156104a2573d6000803e3d6000fd5b505050506040513d601f19601f820116820180604052508101906104c691906121c4565b90506104d0612170565b6104d982611785565b90506104e3612170565b6001850154604080516020810190915286548152610506918a9187908b906111e4565b9050610510612170565b61059a896001600160a01b03166381a10ae16040518163ffffffff1660e01b815260040160206040518083038186803b15801561054c57600080fd5b505afa158015610560573d6000803e3d6000fd5b505050506040513d601f19601f82011682018060405250810190610584919061231e565b604080516020810190915260015481529061181d565b90506040518060e00160405280898152602001868152602001336001600160a01b0316815260200184815260200182815260200160006001600160a01b0316815260200183815250866002016000820151816000016000820151816000015550506020820151816001015560408201518160020160006101000a8154816001600160a01b0302191690836001600160a01b0316021790555060608201518160030160008201518160000155505060808201518160040160008201518160000155505060a08201518160050160006101000a8154816001600160a01b0302191690836001600160a01b0316021790555060c082015181600601600082015181600001555050905050336001600160a01b0316858a6001600160a01b03167f4825d16ae5aee12b571048f907dd665d9242b971de8d36d66039cd6ad6da507d8b600001518660000151866000015189600001516040516106fb9493929190612452565b60405180910390a46107253330610712848761185a565b516001600160a01b038816929190611886565b5050505050505061073461165a565b5050565b6000546001600160a01b031681565b6000546001600160a01b031661075c57600080fd5b60005460405163117c72b360e11b81526001600160a01b03909116906322f8e5669061078c908490600401612417565b600060405180830381600087803b1580156107a657600080fd5b505af11580156107ba573d6000803e3d6000fd5b5050505050565b6107c9612170565b6002546040516302abf57960e61b81526000916001600160a01b03169063aafd5e40906108059067526567697374727960c01b90600401612417565b60206040518083038186803b15801561081d57600080fd5b505afa158015610831573d6000803e3d6000fd5b505050506040513d601f19601f8201168201806040525081019061085591906121c4565b60405163f9f6b49b60e01b81529091506001600160a01b0382169063f9f6b49b90610884903390600401612377565b60206040518083038186803b15801561089c57600080fd5b505afa1580156108b0573d6000803e3d6000fd5b505050506040513d601f19601f820116820180604052508101906108d491906122e6565b6108f05760405162461bcd60e51b815260040161038e9061256b565b6108f861119b565b6000610903846111c6565b905060026109138260020161170b565b600281111561091e57fe5b141561093e57604080516020810190915260029091015481529150610950565b60408051602081019091529054815291505b50919050565b600080546001600160a01b0316156109f35760008054906101000a90046001600160a01b03166001600160a01b03166329cb924d6040518163ffffffff1660e01b815260040160206040518083038186803b1580156109b457600080fd5b505afa1580156109c8573d6000803e3d6000fd5b505050506040513d601f19601f820116820180604052508101906109ec9190612306565b90506109f6565b50425b90565b60055481565b610a07612170565b610a1486868686866111e4565b9695505050505050565b610a2661119b565b610a2e6112f7565b81610a3881611306565b6000610a44848461175e565b9050610a4e612170565b610ac8856001600160a01b03166341b3eb7c6040518163ffffffff1660e01b815260040160206040518083038186803b158015610a8a57600080fd5b505afa158015610a9e573d6000803e3d6000fd5b505050506040513d601f19601f82011682018060405250810190610ac29190612306565b856118e4565b604080516020810190915260028401548152909150600090610aeb908390611752565b159050600081610b085760048401546001600160a01b0316610b17565b60078401546001600160a01b03165b600785015460048601546040519293506001600160a01b039182169289928b8116927f7c7c099806f31ffbf0cbd7322ca9dbb7492d0518ee4a2a1376378b8b14a4701992610b6a929091169088906123c9565b60405180910390a46000876001600160a01b0316630cd77bb96040518163ffffffff1660e01b815260040160206040518083038186803b158015610bad57600080fd5b505afa158015610bc1573d6000803e3d6000fd5b505050506040513d601f19601f82011682018060405250810190610be591906121c4565b90508215610c7257610bf5612170565b604080516020808201835260058901548252825190810190925260068801548252610c20919061185a565b9050610c2a612170565b506040805160208101909152600687015481526007870154610c6b906001600160a01b0316610c59838561185a565b516001600160a01b0386169190611a2b565b5050610ce1565b610c7a612170565b604080516020808201835260058901548252825190810190925260068801548252610ca5919061185a565b9050610caf612170565b506040805160208101909152600687015481526004870154610cde906001600160a01b0316610c59838561185a565b50505b6000610cec896111c6565b905087816001015411610d55578451808255600182018990556040516001600160a01b03808616928b92918d16917f9d00dff5dd1b96e4af562828c2c765d400000485d3e9c090c396cf6b44edceb191610d4c9160009081908190612452565b60405180910390a45b5050506001600160a01b0386166000908152600460208181526040808420898552909152822082815560018101839055600281018390556003810183905590810180546001600160a01b031990811690915560058201839055600682018390556007820180549091169055600881018290556009015550610734925061165a915050565b6002546001600160a01b031681565b60015481565b610df661119b565b610dfe6112f7565b81610e0881611306565b336001600160a01b03841614610e305760405162461bcd60e51b815260040161038e906124a0565b6000610e3b846111c6565b835160098201559050610e4c610956565b600182015582516040516001600160a01b038616917f31f4888233feba01ac41664a2921a44e35f36d408edcd4d971473f5d82dcad2691610e8d9190612417565b60405180910390a2505061073461165a565b610ea761119b565b610eaf6112f7565b80610eb981611306565b6000610ec4836111c6565b90506001610ed48260020161170b565b6002811115610edf57fe5b14610efc5760405162461bcd60e51b815260040161038e90612772565b610f04612170565b506040805160208082018352600684015482528251630cd77bb960e01b8152925191926000926001600160a01b03881692630cd77bb99260048181019391829003018186803b158015610f5657600080fd5b505afa158015610f6a573d6000803e3d6000fd5b505050506040513d601f19601f82011682018060405250810190610f8e91906121c4565b8251909150610fab906001600160a01b0383169033903090611886565b604080516020810190915260058401548152610fca9082903390611a4f565b611048856001600160a01b03166341b3eb7c6040518163ffffffff1660e01b815260040160206040518083038186803b15801561100657600080fd5b505afa15801561101a573d6000803e3d6000fd5b505050506040513d601f19601f8201168201806040525081019061103e9190612306565b6003850154611b3f565b600483015460038401546002850154845160058701546040516001600160a01b03958616958b16937fde2362c2dc2ffb5b5f6b9b92f798371f0f2f4eb7fcb0ffb308c8ccb01812cb11936110a093919233929061242e565b60405180910390a45050600780820180546001600160a01b0319908116331782556001600160a01b0386811660008181526004602081815260408084206003808c01805487529184528286208c5481556001808e0154908201556002808e015482820155925481830155858d015481870180548c16918b169190911790556005808e0154828201556006808f0154818401559b54828e0180548d1691909b16179099556008808e01548183015560099d8e01549d9091019c909c55958552918590528320908101839055928301829055820180548516905591810182905592830181905592820180549091169055909101555061026261165a565b600054600160a01b900460ff166111c45760405162461bcd60e51b815260040161038e90612862565b565b6001600160a01b03811660009081526003602052604090205b919050565b6111ec612170565b60006111f88587611bb1565b9050611202612170565b61120b886111c6565b6040805160208101909152600991909101548152905061122b8183611bf3565b9250611235612170565b611240856000611c14565b61125d57611258856112528189611c2b565b90611c4e565b611267565b6112678587611c2b565b9050611271612170565b61128561127e6000611c83565b8390611cb1565b6112975761129282611cb8565b6112b4565b6112b46112af6112a8600019611c83565b8490611cf5565b611cb8565b90506112e96112c4826002611d32565b6112d8576112d3826001611d49565b6112e2565b6112e26003611d63565b869061181d565b9a9950505050505050505050565b6000805460ff60a01b19169055565b6000611311826111c6565b905060026113218260020161170b565b600281111561132c57fe5b146113375750610262565b6002810154815560038101546001820155611350612170565b826001600160a01b03166381a10ae16040518163ffffffff1660e01b815260040160206040518083038186803b15801561138957600080fd5b505afa15801561139d573d6000803e3d6000fd5b505050506040513d601f19601f820116820180604052508101906113c1919061231e565b90506113cb612170565b506040805160208101909152600883015481526113e6612170565b6113f0828461181d565b90506000856001600160a01b0316630cd77bb96040518163ffffffff1660e01b815260040160206040518083038186803b15801561142d57600080fd5b505afa158015611441573d6000803e3d6000fd5b505050506040513d601f19601f8201168201806040525081019061146591906121c4565b905061146f612170565b60408051602080820183526006890154825282519081019092526005880154825261149a919061185a565b6040516340704d6760e01b81529091506001600160a01b038816906340704d67906114c99086906004016128d0565b602060405180830381600087803b1580156114e357600080fd5b505af1925050508015611513575060408051601f3d908101601f191682019092526115109181019061231e565b60015b61156d57866001600160a01b03167ff4ace737db2688efd126a964c9212c5a67b6b787927ceed43d332188939da03184600001516040516115549190612417565b60405180910390a26115666000611d63565b925061157b565b611577828261185a565b9150505b6004860154815161159a916001600160a01b0385811692911690611a2b565b6004860154600387015460028801548651865185516040516001600160a01b03968716968e16947f9d00dff5dd1b96e4af562828c2c765d400000485d3e9c090c396cf6b44edceb1946115f09491939092612452565b60405180910390a45050506001600160a01b03841660009081526003602081905260408220600281018390559081018290556004810180546001600160a01b0319908116909155600582018390556006820183905560078201805490911690556008015550505050565b6000805460ff60a01b1916600160a01b179055565b6002546040516302abf57960e61b81526000916001600160a01b03169063aafd5e40906116b690721259195b9d1a599a595c95da1a5d195b1a5cdd606a1b90600401612417565b60206040518083038186803b1580156116ce57600080fd5b505afa1580156116e2573d6000803e3d6000fd5b505050506040513d601f19601f8201168201806040525081019061170691906121c4565b905090565b6001810154600090806117225760009150506111df565b600554611730908290611d89565b611738610956565b10156117485760019150506111df565b60029150506111df565b80518251145b92915050565b6001600160a01b039190911660009081526004602090815260408083209383529290522090565b61178d612170565b6000611797611dae565b604051635b97aadd60e01b81529091506001600160a01b03821690635b97aadd906117c6908690600401612377565b60206040518083038186803b1580156117de57600080fd5b505afa1580156117f2573d6000803e3d6000fd5b505050506040513d601f19601f82011682018060405250810190611816919061231e565b9392505050565b611825612170565b6040805160208101909152825184518291670de0b6b3a76400009161184991611de7565b8161185057fe5b0490529392505050565b611862612170565b604080516020810190915282518451829161187d9190611d89565b90529392505050565b6118de846323b872dd60e01b8585856040516024016118a7939291906123a5565b60408051601f198184030181529190526020810180516001600160e01b03166001600160e01b031990931692909217909152611e21565b50505050565b6118ec612170565b60006118f6611f06565b60405163501f440d60e11b81529091506001600160a01b0382169063a03e881a906119279087908790600401612420565b60206040518083038186803b15801561193f57600080fd5b505afa158015611953573d6000803e3d6000fd5b505050506040513d601f19601f8201168201806040525081019061197791906122e6565b6119935760405162461bcd60e51b815260040161038e906125d3565b604051636494078360e11b81526000906001600160a01b0383169063c9280f06906119c49088908890600401612420565b60206040518083038186803b1580156119dc57600080fd5b505afa1580156119f0573d6000803e3d6000fd5b505050506040513d601f19601f82011682018060405250810190611a149190612306565b604080516020810190915290815295945050505050565b611a4a8363a9059cbb60e01b84846040516024016118a79291906123fe565b505050565b611a5a816000611f40565b15611a6457611a4a565b8051611a7e906001600160a01b0385169084903090611886565b80516040516001600160a01b038516907f735a59249230d483d328f5dc5666795900a68e13b8f0add285ddbfba32489b6f90600090a36000611abe611dae565b8251909150611ad9906001600160a01b038616908390611f4b565b60405163432ce91960e11b81526001600160a01b03821690638659d23290611b0790879086906004016123e4565b600060405180830381600087803b158015611b2157600080fd5b505af1158015611b35573d6000803e3d6000fd5b5050505050505050565b6000611b49611f06565b6040516368ad8ae360e01b81529091506001600160a01b038216906368ad8ae390611b7a9086908690600401612420565b600060405180830381600087803b158015611b9457600080fd5b505af1158015611ba8573d6000803e3d6000fd5b50505050505050565b600061181683836040518060400160405280601e81526020017f536166654d6174683a207375627472616374696f6e206f766572666c6f770000815250611ff6565b611bfb612170565b60408051602081019091528351819061187d9085611de7565b6000611c1f82611c83565b51835114905092915050565b611c33612170565b604080516020810190915282518451829161187d9190612022565b611c56612170565b604080516020810190915282518451829161187d91611c7d90670de0b6b3a7640000612068565b906120d3565b611c8b612170565b604080516020810190915280611ca984670de0b6b3a7640000612068565b905292915050565b5190511290565b611cc0612170565b815160001315611ce25760405162461bcd60e51b815260040161038e906125a2565b5060408051602081019091529051815290565b611cfd612170565b6040805160208101909152825184518291670de0b6b3a764000091611d2191612068565b81611d2857fe5b0590529392505050565b6000611d3d82611d63565b51835111905092915050565b611d51612170565b61181683611d5e84611d63565b61185a565b611d6b612170565b604080516020810190915280611ca984670de0b6b3a7640000611de7565b6000828201838110156118165760405162461bcd60e51b815260040161038e906124ce565b6002546040516302abf57960e61b81526000916001600160a01b03169063aafd5e40906116b6906453746f726560d81b90600401612417565b600082611df657506000611758565b82820282848281611e0357fe5b04146118165760405162461bcd60e51b815260040161038e9061267c565b611e33826001600160a01b0316612137565b611e4f5760405162461bcd60e51b815260040161038e90612899565b60006060836001600160a01b031683604051611e6b919061235b565b6000604051808303816000865af19150503d8060008114611ea8576040519150601f19603f3d011682016040523d82523d6000602084013e611ead565b606091505b509150915081611ecf5760405162461bcd60e51b815260040161038e90612505565b8051156118de5780806020019051810190611eea91906122e6565b6118de5760405162461bcd60e51b815260040161038e906127e3565b6002546040516302abf57960e61b81526000916001600160a01b03169063aafd5e40906116b690654f7261636c6560d01b90600401612417565b6000611c1f82611d63565b6000611fd582856001600160a01b031663dd62ed3e30876040518363ffffffff1660e01b8152600401611f7f92919061238b565b60206040518083038186803b158015611f9757600080fd5b505afa158015611fab573d6000803e3d6000fd5b505050506040513d601f19601f82011682018060405250810190611fcf9190612306565b90611d89565b90506118de8463095ea7b360e01b85846040516024016118a79291906123fe565b6000818484111561201a5760405162461bcd60e51b815260040161038e919061246d565b505050900390565b60008183038183128015906120375750838113155b8061204c575060008312801561204c57508381135b6118165760405162461bcd60e51b815260040161038e9061279f565b60008261207757506000611758565b8260001914801561208b5750600160ff1b82145b156120a85760405162461bcd60e51b815260040161038e906126f4565b828202828482816120b557fe5b05146118165760405162461bcd60e51b815260040161038e906126f4565b6000816120f25760405162461bcd60e51b815260040161038e9061282d565b816000191480156121065750600160ff1b83145b156121235760405162461bcd60e51b815260040161038e9061263b565b600082848161212e57fe5b05949350505050565b6000813f7fc5d2460186f7233c927e7db2dcc703c0e500b653ca82273b7bfad8045d85a470818114801590610237575050151592915050565b6040518060200160405280600081525090565b600060208284031215612194578081fd5b61219e60206128da565b9135825250919050565b6000602082840312156121b9578081fd5b81356118168161292d565b6000602082840312156121d5578081fd5b81516118168161292d565b600080604083850312156121f2578081fd5b82356121fd8161292d565b915061220c8460208501612183565b90509250929050565b6000808284036040811215612228578283fd5b83356122338161292d565b92506020601f1982011215612246578182fd5b5061225160206128da565b6020939093013583525092909150565b60008060408385031215612273578182fd5b823561227e8161292d565b946020939093013593505050565b600080600080600060a086880312156122a3578081fd5b85356122ae8161292d565b945060208601359350604086013592506122cb8760608801612183565b91506122da8760808801612183565b90509295509295909350565b6000602082840312156122f7578081fd5b81518015158114611816578182fd5b600060208284031215612317578081fd5b5051919050565b60006020828403121561232f578081fd5b61233960206128da565b9151825250919050565b600060208284031215612354578081fd5b5035919050565b6000825161236d818460208701612901565b9190910192915050565b6001600160a01b0391909116815260200190565b6001600160a01b0392831681529116602082015260400190565b6001600160a01b039384168152919092166020820152604081019190915260600190565b6001600160a01b039290921682521515602082015260400190565b6001600160a01b0392909216825251602082015260400190565b6001600160a01b03929092168252602082015260400190565b90815260200190565b918252602082015260400190565b9384526001600160a01b039290921660208401526040830152606082015260800190565b93845260208401929092526040830152606082015260800190565b600060208252825180602084015261248c816040850160208701612901565b601f01601f19169190910160400192915050565b60208082526014908201527310d85b1b195c881b9bdd081c195c9c195d1d585b60621b604082015260600190565b6020808252601b908201527f536166654d6174683a206164646974696f6e206f766572666c6f770000000000604082015260600190565b6020808252818101527f5361666545524332303a206c6f772d6c6576656c2063616c6c206661696c6564604082015260600190565b60208082526017908201527650656e64696e672070726f706f73616c2065786973747360481b604082015260600190565b60208082526019908201527f43616c6c6572206d757374206265207265676973746572656400000000000000604082015260600190565b602080825260179082015276139959d85d1a5d99481d985b1d59481c1c9bdd9a591959604a1b604082015260600190565b602080825260179082015276556e7265736f6c766564206f7261636c6520707269636560481b604082015260600190565b6020808252601e908201527f556e737570706f727465642066756e64696e67206964656e7469666965720000604082015260600190565b60208082526021908201527f5369676e6564536166654d6174683a206469766973696f6e206f766572666c6f6040820152607760f81b606082015260800190565b60208082526021908201527f536166654d6174683a206d756c7469706c69636174696f6e206f766572666c6f6040820152607760f81b606082015260800190565b60208082526018908201527f43616e6e6f742070726f706f73652073616d6520726174650000000000000000604082015260600190565b60208082526027908201527f5369676e6564536166654d6174683a206d756c7469706c69636174696f6e206f604082015266766572666c6f7760c81b606082015260800190565b60208082526018908201527f50726f706f73616c2070656e64696e6720646973707574650000000000000000604082015260600190565b602080825260139082015272139bc81c195b991a5b99c81c1c9bdc1bdcd85b606a1b604082015260600190565b60208082526024908201527f5369676e6564536166654d6174683a207375627472616374696f6e206f766572604082015263666c6f7760e01b606082015260800190565b6020808252602a908201527f5361666545524332303a204552433230206f7065726174696f6e20646964206e6040820152691bdd081cdd58d8d9595960b21b606082015260800190565b6020808252818101527f5369676e6564536166654d6174683a206469766973696f6e206279207a65726f604082015260600190565b6020808252601f908201527f5265656e7472616e637947756172643a207265656e7472616e742063616c6c00604082015260600190565b6020808252601f908201527f5361666545524332303a2063616c6c20746f206e6f6e2d636f6e747261637400604082015260600190565b9051815260200190565b60405181810167ffffffffffffffff811182821017156128f957600080fd5b604052919050565b60005b8381101561291c578181015183820152602001612904565b838111156118de5750506000910152565b6001600160a01b038116811461026257600080fdfea2646970667358221220ecabc5c33bfa8e0ab84a539ee6341dcfb0b72fdd2800293f5f05442477324e9364736f6c634300060c0033",
  "immutableReferences": {},
  "source": "// SPDX-License-Identifier: AGPL-3.0-only\npragma solidity ^0.6.0;\npragma experimental ABIEncoderV2;\n\nimport \"@openzeppelin/contracts/token/ERC20/IERC20.sol\";\nimport \"@openzeppelin/contracts/token/ERC20/SafeERC20.sol\";\nimport \"@openzeppelin/contracts/math/SafeMath.sol\";\n\nimport \"../../../oracle/interfaces/StoreInterface.sol\";\nimport \"../../../oracle/interfaces/OracleInterface.sol\";\nimport \"../../../oracle/interfaces/FinderInterface.sol\";\nimport \"../../../oracle/interfaces/AdministrateeInterface.sol\";\nimport \"../../../oracle/interfaces/IdentifierWhitelistInterface.sol\";\nimport \"../../../oracle/interfaces/RegistryInterface.sol\";\nimport \"../../../oracle/implementation/Constants.sol\";\n\nimport \"../../perpetual-multiparty/PerpetualInterface.sol\";\nimport \"../interfaces/FundingRateStoreInterface.sol\";\nimport \"../../../common/implementation/Testable.sol\";\nimport \"../../../common/implementation/Lockable.sol\";\nimport \"../../../common/implementation/FixedPoint.sol\";\n\n/**\n * @notice FundingRateStore always makes available the current funding rate for a given perpetual contract address.\n * \"Proposers\" can update funding rates by proposing a new rate and waiting for a proposal liveness to expire. During\n * the liveness period, \"Disputers\" can reject a proposed funding rate and raise a price request against the DVM.\n * Cash flows as follows in the following actions:\n *\n * VARIABLES:\n * - Final fee bond   : a constant value unique for each funding rate identifier and perpetual contract (we assume that\n *                      every perpetual is 1-to-1 mapped to a funding rate identifier).\n * - Proposal bond    : the product of the \"proposalBondPct\" state variable and a given perpetual's PfC at the time of\n *                      proposal.\n * - Dispute bond     : same as the proposal bond currently.\n * - Proposal reward  : the product of a given perpetual's PfC and its \"reward rate\" at the time of\n *                      proposal. The reward rate implies that the reward gets larger as time since the last proposal\n *                      increases, and also includes a \"difference factor\" to give more weight to larger funding rate\n *                      changes.\n *\n * ACTIONS:\n * - Proposing a new funding rate:\n *     - Proposer pays: (final fee bond) + (proposal bond)\n *     - Store receives: (final fee bond) + (proposal bond)\n * - Publishing a proposal after its liveness expires:\n *     - Proposer receives: (final fee bond) + (proposal bond) + (proposal reward)\n *     - Perpetual pays: (proposal reward)\n *     - Store pays: (final fee bond) + (proposal bond)\n * - Disputing a pending proposal:\n *     - Disputer pays: (final fee bond) + (disputer bond)\n *     - Store receives (disputer bond)\n *     - DVM receives (final fee bond)\n * - Settling a dispute after the DVM resolves its price request:\n *     - Winner of dispute (disputer or proposer) receives: (proposal bond) + (disputer bond) + (final fee bond)\n *     - Store pays: (proposal bond) + (disputer bond) + (final fee bond)\n */\ncontract FundingRateStore is FundingRateStoreInterface, Testable, Lockable {\n    using SafeMath for uint256;\n    using FixedPoint for FixedPoint.Unsigned;\n    using FixedPoint for FixedPoint.Signed;\n    using SafeERC20 for IERC20;\n\n    /****************************************\n     *        STORE DATA STRUCTURES         *\n     ****************************************/\n\n    FixedPoint.Unsigned public proposalBondPct; // Percentage of 1, e.g. 0.0005 is 0.05%\n\n    // Finder contract used to look up addresses for UMA system contracts.\n    FinderInterface public finder;\n\n    struct Proposal {\n        FixedPoint.Signed rate;\n        uint256 time;\n        address proposer;\n        FixedPoint.Unsigned finalFee;\n        FixedPoint.Unsigned proposalBond;\n        address disputer;\n        FixedPoint.Unsigned rewardRate;\n    }\n\n    struct FundingRateRecord {\n        FixedPoint.Signed rate; // Current funding rate.\n        uint256 proposeTime; // Time at which current funding rate was proposed.\n        Proposal proposal;\n        FixedPoint.Unsigned rewardRatePerSecond; // Percentage of 1 E.g., .1 is 10%.\n    }\n\n    enum ProposalState { None, Pending, Expired }\n\n    mapping(address => FundingRateRecord) private fundingRateRecords;\n    // TODO: Is there any reason to make `fundingRateDisputes` public? Could users use the dispute struct\n    // to get funding rate data \"for free\"? If not, then I see no harm in making it public.\n    mapping(address => mapping(uint256 => FundingRateRecord)) private fundingRateDisputes;\n\n    uint256 public proposalLiveness;\n\n    /****************************************\n     *                EVENTS                *\n     ****************************************/\n\n    event ChangedRewardRate(address indexed perpetual, uint256 rewardRate);\n    event ProposedRate(\n        address indexed perpetual,\n        int256 rate,\n        uint256 indexed proposalTime,\n        address indexed proposer,\n        uint256 rewardPct,\n        uint256 proposalBond,\n        uint256 finalFeeBond\n    );\n    event DisputedRate(\n        address indexed perpetual,\n        int256 rate,\n        uint256 indexed proposalTime,\n        address indexed proposer,\n        address disputer,\n        uint256 disputeBond,\n        uint256 finalFeeBond\n    );\n    event PublishedRate(\n        address indexed perpetual,\n        int256 rate,\n        uint256 indexed proposalTime,\n        address indexed proposer,\n        uint256 rewardPct,\n        uint256 rewardPayment,\n        uint256 totalPayment\n    );\n    event DisputedRateSettled(\n        address indexed perpetual,\n        uint256 indexed proposalTime,\n        address proposer,\n        address indexed disputer,\n        bool disputeSucceeded\n    );\n    event FinalFeesPaid(address indexed collateralCurrency, uint256 indexed amount);\n    event WithdrawErrorIgnored(address indexed perpetual, uint256 withdrawAmount);\n\n    /****************************************\n     *                MODIFIERS             *\n     ****************************************/\n\n    // Pubishes any pending proposals whose liveness has passed, pays out rewards for such proposals.\n    modifier publishAndWithdrawProposal(address perpetual) {\n        _publishRateAndWithdrawRewards(perpetual);\n        _;\n    }\n\n    // Function callable only by contracts registered with the DVM.\n    modifier onlyRegisteredContract() {\n        RegistryInterface registry = RegistryInterface(finder.getImplementationAddress(OracleInterfaces.Registry));\n        require(registry.isContractRegistered(msg.sender), \"Caller must be registered\");\n        _;\n    }\n\n    constructor(\n        uint256 _proposalLiveness,\n        address _finderAddress,\n        address _timerAddress,\n        FixedPoint.Unsigned memory _proposalBondPct\n    ) public Testable(_timerAddress) {\n        require(_proposalLiveness > 0, \"Proposal liveness is 0\");\n        proposalLiveness = _proposalLiveness;\n        proposalBondPct = _proposalBondPct;\n        finder = FinderInterface(_finderAddress);\n    }\n\n    /**\n     * @notice Gets the latest funding rate for a perpetual contract.\n     * @dev This method should never revert. Moreover, because this method is designed to be called by the `perpetual`\n     * contract, it should never make a call back to the `perpetual` contract. Otherwise it will trigger the\n     * `perpetual`'s reentrancy guards and cause the external calls to revert.\n     * @param perpetual perpetual contract whose funding rate identifier that the calling contracts wants to get\n     * a funding rate for.\n     * @return FixedPoint.Signed representing the funding rate for the given contract. 0.01 would represent a funding\n     * rate of 1% per second. -0.01 would represent a negative funding rate of -1% per second.\n     */\n    function getFundingRateForContract(address perpetual)\n        external\n        view\n        override\n        onlyRegisteredContract()\n        nonReentrantView()\n        returns (FixedPoint.Signed memory)\n    {\n        FundingRateRecord storage fundingRateRecord = _getFundingRateRecord(perpetual);\n        if (_getProposalState(fundingRateRecord.proposal) == ProposalState.Expired) {\n            return fundingRateRecord.proposal.rate;\n        } else {\n            return fundingRateRecord.rate;\n        }\n    }\n\n    /**\n     * @notice Gets the projected reward % for a successful proposer of a funding rate for a given perpetual contract.\n     * @dev This method is designed to be helpful for proposers in projecting their rewards. The reward % is a function\n     * of the perpetual contract's base reward % per second, the time elapsed since the last proposal, and the\n     * magnitude of change between the proposed and current funding rates. Note that unless the caller calls this\n     * method and proposes a funding rate in the same block, then the projected reward will be slightly underestimated.\n     * Note also that the actual reward is dependent on the perpetual's `PfC` at publish time and this method's\n     * reward %.\n     * @param perpetual Perpetual contract whose reward the caller is querying.\n     * @param rate Proposed rate.\n     * @return rewardRate Representing the reward % for a given contract if they were to propose a funding rate\n     * now.\n     */\n    function getRewardRateForContract(address perpetual, FixedPoint.Signed memory rate)\n        external\n        view\n        nonReentrantView()\n        returns (FixedPoint.Unsigned memory rewardRate)\n    {\n        FundingRateRecord storage fundingRateRecord = _getFundingRateRecord(perpetual);\n\n        rewardRate = _calculateProposalRewardPct(\n            perpetual,\n            fundingRateRecord.proposeTime,\n            getCurrentTime(),\n            rate,\n            fundingRateRecord.rate\n        );\n    }\n\n    /**\n     * @notice Propose a new funding rate for a perpetual.\n     * @dev This will revert if there is already a pending funding rate for the perpetual.\n     * @dev Caller must approve this contract to spend `finalFeeBond` + `proposalBond` amount of collateral, which they can\n     * receive back once their funding rate is published.\n     * @param perpetual Perpetual contract to propose funding rate for.\n     * @param rate Proposed rate.\n     */\n    function propose(address perpetual, FixedPoint.Signed memory rate)\n        external\n        nonReentrant()\n        publishAndWithdrawProposal(perpetual)\n    {\n        // Ensure that the perpetual's funding rate identifier is whitelisted with the DVM, otherwise disputes on this\n        // proposal would not be possible.\n        require(\n            _getIdentifierWhitelist().isIdentifierSupported(PerpetualInterface(perpetual).getFundingRateIdentifier()),\n            \"Unsupported funding identifier\"\n        );\n\n        FundingRateRecord storage fundingRateRecord = _getFundingRateRecord(perpetual);\n        require(_getProposalState(fundingRateRecord.proposal) != ProposalState.Pending, \"Pending proposal exists\");\n        require(!fundingRateRecord.rate.isEqual(rate), \"Cannot propose same rate\");\n        uint256 currentTime = getCurrentTime();\n\n        // Make sure that there is no disputed proposal for the same perpetual and proposal time. This prevents\n        // the proposer from potentially overwriting a proposal. Note that this would be a rare case in which the\n        // proposer [ (1) created a proposal, (2) disputed the proposal, and (3) created another proposal ] all within\n        // the same block. The proposer would lose their bond from the first proposal forever.\n        require(\n            _getFundingRateDispute(perpetual, currentTime).proposal.proposer == address(0x0),\n            \"Proposal pending dispute\"\n        );\n\n        // Compute final fee at time of proposal.\n        IERC20 collateralCurrency = IERC20(PerpetualInterface(perpetual).getCollateralCurrency());\n        FixedPoint.Unsigned memory finalFeeBond = _computeFinalFees(collateralCurrency);\n\n        // Calculate and store reward %. Note that because this saved data is a percent, the actual reward\n        // will vary at publish time depending on the `perpetual`'s PfC at that time.\n        FixedPoint.Unsigned memory rewardRate =\n            _calculateProposalRewardPct(\n                perpetual,\n                fundingRateRecord.proposeTime,\n                currentTime,\n                rate,\n                fundingRateRecord.rate\n            );\n\n        // Compute proposal bond.\n        FixedPoint.Unsigned memory proposalBond = proposalBondPct.mul(AdministrateeInterface(perpetual).pfc());\n\n        // Enqueue proposal.\n        fundingRateRecord.proposal = Proposal({\n            rate: rate,\n            time: currentTime,\n            proposer: msg.sender,\n            finalFee: finalFeeBond,\n            proposalBond: proposalBond,\n            disputer: address(0x0),\n            rewardRate: rewardRate\n        });\n        emit ProposedRate(\n            perpetual,\n            rate.rawValue,\n            currentTime,\n            msg.sender,\n            rewardRate.rawValue,\n            proposalBond.rawValue,\n            finalFeeBond.rawValue\n        );\n\n        // Pull total bond from proposer.\n        collateralCurrency.safeTransferFrom(msg.sender, address(this), proposalBond.add(finalFeeBond).rawValue);\n    }\n\n    /**\n     * @notice Dispute a pending funding rate. This will delete the pending funding rate, meaning that a\n     * proposer can now propose another rate with a fresh liveness.\n     * @dev This will revert if there is no pending funding rate for the perpetual.\n     * @dev Caller must approve this this contract to spend `finalFeeBond` + `proposalBond` amount of collateral,\n     * which they can receive back if their dispute is successful.\n     * @param perpetual Contract to dispute proposed funding rate for.\n     */\n    function dispute(address perpetual) external nonReentrant() publishAndWithdrawProposal(perpetual) {\n        FundingRateRecord storage fundingRateRecord = _getFundingRateRecord(perpetual);\n        require(_getProposalState(fundingRateRecord.proposal) == ProposalState.Pending, \"No pending proposal\");\n\n        // Pull proposal bond from disputer and pay DVM store using final fee portion.\n        FixedPoint.Unsigned memory proposalBond = fundingRateRecord.proposal.proposalBond;\n        IERC20 collateralCurrency = IERC20(PerpetualInterface(perpetual).getCollateralCurrency());\n        collateralCurrency.safeTransferFrom(msg.sender, address(this), proposalBond.rawValue);\n        _payFinalFees(collateralCurrency, msg.sender, fundingRateRecord.proposal.finalFee);\n\n        // Send price request\n        _requestOraclePrice(PerpetualInterface(perpetual).getFundingRateIdentifier(), fundingRateRecord.proposal.time);\n\n        emit DisputedRate(\n            perpetual,\n            fundingRateRecord.proposal.rate.rawValue,\n            fundingRateRecord.proposal.time,\n            fundingRateRecord.proposal.proposer,\n            msg.sender,\n            proposalBond.rawValue,\n            fundingRateRecord.proposal.finalFee.rawValue\n        );\n\n        // Delete pending proposal and copy into dispute records.\n        fundingRateRecord.proposal.disputer = msg.sender;\n        fundingRateDisputes[perpetual][fundingRateRecord.proposal.time] = fundingRateRecord;\n        delete fundingRateRecords[perpetual].proposal;\n    }\n\n    /**\n     * @notice Settle a disputed funding rate. The winner of the dispute, either the disputer or the proposer,\n     * will receive a rebate for their bonds plus the losing party's bond. This method will also overwrite the\n     * current funding rate with the resolved funding rate returned by the Oracle if there has not been a more\n     * recent published rate. Pending funding rates are unaffected by this method.\n     * @dev This will revert if there is no price available for the disputed funding rate. This contract\n     * will pull money from a PerpetualContract ONLY IF the dispute in question fails.\n     * @param perpetual Contract to settle disputed funding rate for.\n     * @param proposalTime Proposal time at which the disputed funding rate was proposed.\n     */\n    function settleDispute(address perpetual, uint256 proposalTime)\n        external\n        nonReentrant()\n        publishAndWithdrawProposal(perpetual)\n    {\n        FundingRateRecord storage fundingRateDispute = _getFundingRateDispute(perpetual, proposalTime);\n\n        // Get the returned funding rate from the oracle. If this has not yet resolved will revert.\n        // If the fundingRateDispute struct has been deleted, then this call will also fail because the proposal\n        // time will be 0.\n        FixedPoint.Signed memory settlementRate =\n            _getOraclePrice(PerpetualInterface(perpetual).getFundingRateIdentifier(), proposalTime);\n\n        // Dispute was successful if settled rate is different from proposed rate.\n        bool disputeSucceeded = !settlementRate.isEqual(fundingRateDispute.proposal.rate);\n        address proposer =\n            disputeSucceeded ? fundingRateDispute.proposal.disputer : fundingRateDispute.proposal.proposer;\n        emit DisputedRateSettled(\n            perpetual,\n            proposalTime,\n            fundingRateDispute.proposal.proposer,\n            fundingRateDispute.proposal.disputer,\n            disputeSucceeded\n        );\n\n        IERC20 collateralCurrency = IERC20(PerpetualInterface(perpetual).getCollateralCurrency());\n        // TODO: Decide whether loser of dispute should lose entire bond or partial\n        if (disputeSucceeded) {\n            // If dispute succeeds:\n            // - Disputer earns back their bonds: dispute bond + final fee bond\n            // - Disputer earns as reward: the proposal bond\n            FixedPoint.Unsigned memory disputerRebate =\n                fundingRateDispute.proposal.proposalBond.add(fundingRateDispute.proposal.finalFee);\n            FixedPoint.Unsigned memory disputerReward = fundingRateDispute.proposal.proposalBond;\n\n            collateralCurrency.safeTransfer(\n                fundingRateDispute.proposal.disputer,\n                disputerReward.add(disputerRebate).rawValue\n            );\n        } else {\n            // If dispute fails:\n            // - Proposer earns back their bonds: proposal bond + final fee bond\n            // - Proposer earns as reward: the dispute bond\n            FixedPoint.Unsigned memory proposerRebate =\n                fundingRateDispute.proposal.proposalBond.add(fundingRateDispute.proposal.finalFee);\n            FixedPoint.Unsigned memory proposerReward = fundingRateDispute.proposal.proposalBond;\n\n            collateralCurrency.safeTransfer(\n                fundingRateDispute.proposal.proposer,\n                proposerReward.add(proposerRebate).rawValue\n            );\n        }\n\n        // Update current rate to settlement rate if there has not been a published funding rate since the dispute\n        // began.\n        FundingRateRecord storage fundingRateRecord = _getFundingRateRecord(perpetual);\n        if (fundingRateRecord.proposeTime <= proposalTime) {\n            fundingRateRecord.rate = settlementRate;\n            fundingRateRecord.proposeTime = proposalTime;\n            // Note: Set rewards to 0 since we published the DVM resolved funding rate and there is no proposer to pay.\n            emit PublishedRate(perpetual, settlementRate.rawValue, proposalTime, proposer, 0, 0, 0);\n        }\n\n        // Delete dispute\n        delete fundingRateDisputes[perpetual][proposalTime];\n    }\n\n    /**\n     * @notice Publishes any expired pending proposals and pays out proposal rewards if neccessary.\n     * @param perpetual Contract to check proposed funding rates for.\n     */\n    function withdrawProposalRewards(address perpetual) external nonReentrant() publishAndWithdrawProposal(perpetual) {}\n\n    /**\n     * @notice Set the reward rate (per second) for a specific `perpetual` contract.\n     * @dev Callable only by the Perpetual contract.\n     */\n    function setRewardRate(address perpetual, FixedPoint.Unsigned memory rewardRate)\n        external\n        override\n        nonReentrant()\n        publishAndWithdrawProposal(perpetual)\n    {\n        require(msg.sender == perpetual, \"Caller not perpetual\");\n        FundingRateRecord storage fundingRateRecord = _getFundingRateRecord(perpetual);\n        fundingRateRecord.rewardRatePerSecond = rewardRate;\n\n        // Set last propose time to current time since rewards will start accruing from here on out.\n        fundingRateRecord.proposeTime = getCurrentTime();\n\n        emit ChangedRewardRate(perpetual, rewardRate.rawValue);\n    }\n\n    /**\n     * @notice Helpful method for proposers who want to calculate their potential rewards and useful for testing.\n     */\n    function calculateProposalRewardPct(\n        address perpetual,\n        uint256 startTime,\n        uint256 endTime,\n        FixedPoint.Signed memory proposedRate,\n        FixedPoint.Signed memory currentRate\n    ) external view returns (FixedPoint.Unsigned memory reward) {\n        return _calculateProposalRewardPct(perpetual, startTime, endTime, proposedRate, currentRate);\n    }\n\n    /****************************************\n     *         INTERNAL FUNCTIONS           *\n     ****************************************/\n\n    function _publishRateAndWithdrawRewards(address perpetual) internal {\n        FundingRateRecord storage fundingRateRecord = _getFundingRateRecord(perpetual);\n\n        // Check if proposal liveness has expired\n        if (_getProposalState(fundingRateRecord.proposal) != ProposalState.Expired) {\n            return;\n        }\n\n        // Publish rate and proposal time.\n        fundingRateRecord.rate = fundingRateRecord.proposal.rate;\n        fundingRateRecord.proposeTime = fundingRateRecord.proposal.time;\n\n        // Calculate reward for proposer using saved reward rate and current perpetual PfC.\n        FixedPoint.Unsigned memory pfc = AdministrateeInterface(perpetual).pfc();\n        FixedPoint.Unsigned memory rewardRate = fundingRateRecord.proposal.rewardRate;\n        FixedPoint.Unsigned memory reward = rewardRate.mul(pfc);\n\n        // Pull reward payment from Perpetual, and transfer (payment + final fee bond + proposal bond) to proposer.\n        // Note: Proposer always receives rebates for their bonds, but may not receive their proposer reward if the\n        // perpetual fails to send fees.\n        IERC20 collateralCurrency = IERC20(PerpetualInterface(perpetual).getCollateralCurrency());\n        FixedPoint.Unsigned memory amountToPay =\n            fundingRateRecord.proposal.finalFee.add(fundingRateRecord.proposal.proposalBond);\n        try PerpetualInterface(perpetual).withdrawFundingRateFees(reward) returns (\n            FixedPoint.Unsigned memory rewardWithdrawn\n        ) {\n            // Only transfer rewards if withdrawal from perpetual succeeded.\n            amountToPay = amountToPay.add(rewardWithdrawn);\n        } catch {\n            // If the withdraw fails, then only rebate final fee and emit an alert. Because this method is called\n            // by every other external method in the contract, its important that this method does not revert.\n            emit WithdrawErrorIgnored(perpetual, reward.rawValue);\n            reward = FixedPoint.fromUnscaledUint(0);\n        }\n\n        collateralCurrency.safeTransfer(fundingRateRecord.proposal.proposer, amountToPay.rawValue);\n        emit PublishedRate(\n            perpetual,\n            fundingRateRecord.proposal.rate.rawValue,\n            fundingRateRecord.proposal.time,\n            fundingRateRecord.proposal.proposer,\n            rewardRate.rawValue,\n            reward.rawValue,\n            amountToPay.rawValue\n        );\n\n        // Delete proposal now that it has been published.\n        delete fundingRateRecords[perpetual].proposal;\n    }\n\n    // Requests a price for `priceIdentifier` at `requestedTime` from the Oracle.\n    function _requestOraclePrice(bytes32 identifier, uint256 requestedTime) internal {\n        OracleInterface oracle = _getOracle();\n        oracle.requestPrice(identifier, requestedTime);\n    }\n\n    // Pays UMA Oracle final fees of `amount` in `collateralCurrency` to the Store contract. Final fee is a flat fee\n    // charged for each price request.\n    function _payFinalFees(\n        IERC20 collateralCurrency,\n        address payer,\n        FixedPoint.Unsigned memory amount\n    ) internal {\n        if (amount.isEqual(0)) {\n            return;\n        }\n\n        collateralCurrency.safeTransferFrom(payer, address(this), amount.rawValue);\n\n        emit FinalFeesPaid(address(collateralCurrency), amount.rawValue);\n\n        StoreInterface store = _getStore();\n        collateralCurrency.safeIncreaseAllowance(address(store), amount.rawValue);\n        store.payOracleFeesErc20(address(collateralCurrency), amount);\n    }\n\n    function _calculateProposalRewardPct(\n        address perpetual,\n        uint256 startTime,\n        uint256 endTime,\n        FixedPoint.Signed memory proposedRate,\n        FixedPoint.Signed memory currentRate\n    ) private view returns (FixedPoint.Unsigned memory reward) {\n        uint256 timeDiff = endTime.sub(startTime);\n\n        FixedPoint.Unsigned memory rewardRate = _getFundingRateRecord(perpetual).rewardRatePerSecond;\n\n        // First compute the reward for the time elapsed.\n        reward = rewardRate.mul(timeDiff);\n\n        // Next scale the reward based on the absolute difference % between the current and proposed rates.\n        // Formula:\n        //    - reward = reward * (1 + (proposedRate - currentRate) / currentRate)\n        // Or, if currentRate = 0:\n        //    - reward = reward * (1 + (proposedRate - currentRate))\n        FixedPoint.Signed memory diffPercent =\n            (currentRate.isEqual(0) ? currentRate.sub(proposedRate) : currentRate.sub(proposedRate).div(currentRate));\n        FixedPoint.Unsigned memory absDiffPercent =\n            (\n                diffPercent.isLessThan(FixedPoint.fromUnscaledInt(0))\n                    ? FixedPoint.fromSigned(diffPercent.mul(FixedPoint.fromUnscaledInt(-1)))\n                    : FixedPoint.fromSigned(diffPercent)\n            );\n        // TODO: Set an arbitrary 200% ceiling on the value of `absDiffPercent` so this factor at most triples the reward:\n        // - if (absDiffPercent > 2) then reward = reward * 3\n        // - else reward = reward * (1 + absDiffPercent)\n        reward = reward.mul(absDiffPercent.isGreaterThan(2) ? FixedPoint.fromUnscaledUint(3) : absDiffPercent.add(1));\n    }\n\n    // Returns the pending Proposal struct for a perpetual contract.\n    function _getFundingRateRecord(address perpetual) private view returns (FundingRateRecord storage) {\n        return fundingRateRecords[perpetual];\n    }\n\n    // Returns the disputed Proposal struct for a perpetual and proposal time. This returns empty if the dispute\n    // has already been resolved via `settleDispute`.\n    function _getFundingRateDispute(address perpetual, uint256 time) private view returns (FundingRateRecord storage) {\n        return fundingRateDisputes[perpetual][time];\n    }\n\n    // Returns whether a proposal is a pending or expired proposal, or does not exist.\n    function _getProposalState(Proposal storage proposal) private view returns (ProposalState) {\n        uint256 time = proposal.time;\n        if (time == 0) {\n            return ProposalState.None;\n        } else if (getCurrentTime() < time.add(proposalLiveness)) {\n            return ProposalState.Pending;\n        } else {\n            return ProposalState.Expired;\n        }\n    }\n\n    // Fetches a resolved Oracle price from the Oracle. Reverts if the Oracle hasn't resolved for this request.\n    function _getOraclePrice(bytes32 identifier, uint256 requestedTime)\n        internal\n        view\n        returns (FixedPoint.Signed memory)\n    {\n        // Create an instance of the oracle and get the price. If the price is not resolved revert.\n        OracleInterface oracle = _getOracle();\n        require(oracle.hasPrice(identifier, requestedTime), \"Unresolved oracle price\");\n        int256 oraclePrice = oracle.getPrice(identifier, requestedTime);\n\n        return FixedPoint.Signed(oraclePrice);\n    }\n\n    function _computeFinalFees(IERC20 collateralCurrency) internal view returns (FixedPoint.Unsigned memory finalFees) {\n        StoreInterface store = _getStore();\n        return store.computeFinalFee(address(collateralCurrency));\n    }\n\n    function _getOracle() internal view returns (OracleInterface) {\n        return OracleInterface(finder.getImplementationAddress(OracleInterfaces.Oracle));\n    }\n\n    function _getStore() internal view returns (StoreInterface) {\n        return StoreInterface(finder.getImplementationAddress(OracleInterfaces.Store));\n    }\n\n    function _getIdentifierWhitelist() internal view returns (IdentifierWhitelistInterface) {\n        return IdentifierWhitelistInterface(finder.getImplementationAddress(OracleInterfaces.IdentifierWhitelist));\n    }\n}\n",
  "sourcePath": "/Users/chris/temp/protocol/packages/core/contracts/financial-templates/funding-rate-store/implementation/FundingRateStore.sol",
  "compiler": {
    "name": "solc",
    "version": "0.6.12+commit.27d51765.Emscripten.clang"
  },
  "schemaVersion": "3.2.3",
  "updatedAt": "2020-12-21T06:57:53.301Z",
  "devdoc": {
    "kind": "dev",
    "methods": {
      "dispute(address)": {
        "details": "This will revert if there is no pending funding rate for the perpetual.Caller must approve this this contract to spend `finalFeeBond` + `proposalBond` amount of collateral, which they can receive back if their dispute is successful.",
        "params": {
          "perpetual": "Contract to dispute proposed funding rate for."
        }
      },
      "getCurrentTime()": {
        "returns": {
          "_0": "uint for the current Testable timestamp."
        }
      },
      "getFundingRateForContract(address)": {
        "details": "This method should never revert. Moreover, because this method is designed to be called by the `perpetual` contract, it should never make a call back to the `perpetual` contract. Otherwise it will trigger the `perpetual`'s reentrancy guards and cause the external calls to revert.",
        "params": {
          "perpetual": "perpetual contract whose funding rate identifier that the calling contracts wants to get a funding rate for."
        },
        "returns": {
          "_0": "FixedPoint.Signed representing the funding rate for the given contract. 0.01 would represent a funding rate of 1% per second. -0.01 would represent a negative funding rate of -1% per second."
        }
      },
      "getRewardRateForContract(address,(int256))": {
        "details": "This method is designed to be helpful for proposers in projecting their rewards. The reward % is a function of the perpetual contract's base reward % per second, the time elapsed since the last proposal, and the magnitude of change between the proposed and current funding rates. Note that unless the caller calls this method and proposes a funding rate in the same block, then the projected reward will be slightly underestimated. Note also that the actual reward is dependent on the perpetual's `PfC` at publish time and this method's reward %.",
        "params": {
          "perpetual": "Perpetual contract whose reward the caller is querying.",
          "rate": "Proposed rate."
        },
        "returns": {
          "rewardRate": "Representing the reward % for a given contract if they were to propose a funding rate now."
        }
      },
      "propose(address,(int256))": {
        "details": "This will revert if there is already a pending funding rate for the perpetual.Caller must approve this contract to spend `finalFeeBond` + `proposalBond` amount of collateral, which they can receive back once their funding rate is published.",
        "params": {
          "perpetual": "Perpetual contract to propose funding rate for.",
          "rate": "Proposed rate."
        }
      },
      "setCurrentTime(uint256)": {
        "details": "Will revert if not running in test mode.",
        "params": {
          "time": "timestamp to set current Testable time to."
        }
      },
      "setRewardRate(address,(uint256))": {
        "details": "Callable only by the Perpetual contract."
      },
      "settleDispute(address,uint256)": {
        "details": "This will revert if there is no price available for the disputed funding rate. This contract will pull money from a PerpetualContract ONLY IF the dispute in question fails.",
        "params": {
          "perpetual": "Contract to settle disputed funding rate for.",
          "proposalTime": "Proposal time at which the disputed funding rate was proposed."
        }
      },
      "withdrawProposalRewards(address)": {
        "params": {
          "perpetual": "Contract to check proposed funding rates for."
        }
      }
    },
    "version": 1
  },
  "userdoc": {
    "kind": "user",
    "methods": {
      "calculateProposalRewardPct(address,uint256,uint256,(int256),(int256))": {
        "notice": "Helpful method for proposers who want to calculate their potential rewards and useful for testing."
      },
      "dispute(address)": {
        "notice": "Dispute a pending funding rate. This will delete the pending funding rate, meaning that a proposer can now propose another rate with a fresh liveness."
      },
      "getCurrentTime()": {
        "notice": "Gets the current time. Will return the last time set in `setCurrentTime` if running in test mode. Otherwise, it will return the block timestamp."
      },
      "getFundingRateForContract(address)": {
        "notice": "Gets the latest funding rate for a perpetual contract."
      },
      "getRewardRateForContract(address,(int256))": {
        "notice": "Gets the projected reward % for a successful proposer of a funding rate for a given perpetual contract."
      },
      "propose(address,(int256))": {
        "notice": "Propose a new funding rate for a perpetual."
      },
      "setCurrentTime(uint256)": {
        "notice": "Sets the current time."
      },
      "setRewardRate(address,(uint256))": {
        "notice": "Set the reward rate (per second) for a specific `perpetual` contract."
      },
      "settleDispute(address,uint256)": {
        "notice": "Settle a disputed funding rate. The winner of the dispute, either the disputer or the proposer, will receive a rebate for their bonds plus the losing party's bond. This method will also overwrite the current funding rate with the resolved funding rate returned by the Oracle if there has not been a more recent published rate. Pending funding rates are unaffected by this method."
      },
      "withdrawProposalRewards(address)": {
        "notice": "Publishes any expired pending proposals and pays out proposal rewards if neccessary."
      }
    },
    "notice": "FundingRateStore always makes available the current funding rate for a given perpetual contract address. \"Proposers\" can update funding rates by proposing a new rate and waiting for a proposal liveness to expire. During the liveness period, \"Disputers\" can reject a proposed funding rate and raise a price request against the DVM. Cash flows as follows in the following actions: VARIABLES: - Final fee bond   : a constant value unique for each funding rate identifier and perpetual contract (we assume that                      every perpetual is 1-to-1 mapped to a funding rate identifier). - Proposal bond    : the product of the \"proposalBondPct\" state variable and a given perpetual's PfC at the time of                      proposal. - Dispute bond     : same as the proposal bond currently. - Proposal reward  : the product of a given perpetual's PfC and its \"reward rate\" at the time of                      proposal. The reward rate implies that the reward gets larger as time since the last proposal                      increases, and also includes a \"difference factor\" to give more weight to larger funding rate                      changes. ACTIONS: - Proposing a new funding rate:     - Proposer pays: (final fee bond) + (proposal bond)     - Store receives: (final fee bond) + (proposal bond) - Publishing a proposal after its liveness expires:     - Proposer receives: (final fee bond) + (proposal bond) + (proposal reward)     - Perpetual pays: (proposal reward)     - Store pays: (final fee bond) + (proposal bond) - Disputing a pending proposal:     - Disputer pays: (final fee bond) + (disputer bond)     - Store receives (disputer bond)     - DVM receives (final fee bond) - Settling a dispute after the DVM resolves its price request:     - Winner of dispute (disputer or proposer) receives: (proposal bond) + (disputer bond) + (final fee bond)     - Store pays: (proposal bond) + (disputer bond) + (final fee bond)",
    "version": 1
  }
}