{
  "contractName": "OptimisticRequesterTest",
  "abi": [
    {
      "inputs": [
        {
          "internalType": "contract OptimisticOracle",
          "name": "_optimisticOracle",
          "type": "address"
        }
      ],
      "stateMutability": "nonpayable",
      "type": "constructor"
    },
    {
      "inputs": [],
      "name": "ancillaryData",
      "outputs": [
        {
          "internalType": "bytes",
          "name": "",
          "type": "bytes"
        }
      ],
      "stateMutability": "view",
      "type": "function"
    },
    {
      "inputs": [],
      "name": "identifier",
      "outputs": [
        {
          "internalType": "bytes32",
          "name": "",
          "type": "bytes32"
        }
      ],
      "stateMutability": "view",
      "type": "function"
    },
    {
      "inputs": [],
      "name": "price",
      "outputs": [
        {
          "internalType": "int256",
          "name": "",
          "type": "int256"
        }
      ],
      "stateMutability": "view",
      "type": "function"
    },
    {
      "inputs": [],
      "name": "refund",
      "outputs": [
        {
          "internalType": "uint256",
          "name": "",
          "type": "uint256"
        }
      ],
      "stateMutability": "view",
      "type": "function"
    },
    {
      "inputs": [],
      "name": "shouldRevert",
      "outputs": [
        {
          "internalType": "bool",
          "name": "",
          "type": "bool"
        }
      ],
      "stateMutability": "view",
      "type": "function"
    },
    {
      "inputs": [],
      "name": "timestamp",
      "outputs": [
        {
          "internalType": "uint256",
          "name": "",
          "type": "uint256"
        }
      ],
      "stateMutability": "view",
      "type": "function"
    },
    {
      "inputs": [
        {
          "internalType": "bytes32",
          "name": "_identifier",
          "type": "bytes32"
        },
        {
          "internalType": "uint256",
          "name": "_timestamp",
          "type": "uint256"
        },
        {
          "internalType": "bytes",
          "name": "_ancillaryData",
          "type": "bytes"
        },
        {
          "internalType": "contract IERC20",
          "name": "currency",
          "type": "address"
        },
        {
          "internalType": "uint256",
          "name": "reward",
          "type": "uint256"
        }
      ],
      "name": "requestPrice",
      "outputs": [],
      "stateMutability": "nonpayable",
      "type": "function"
    },
    {
      "inputs": [
        {
          "internalType": "bytes32",
          "name": "_identifier",
          "type": "bytes32"
        },
        {
          "internalType": "uint256",
          "name": "_timestamp",
          "type": "uint256"
        },
        {
          "internalType": "bytes",
          "name": "_ancillaryData",
          "type": "bytes"
        }
      ],
      "name": "getPrice",
      "outputs": [
        {
          "internalType": "int256",
          "name": "",
          "type": "int256"
        }
      ],
      "stateMutability": "nonpayable",
      "type": "function"
    },
    {
      "inputs": [
        {
          "internalType": "bytes32",
          "name": "_identifier",
          "type": "bytes32"
        },
        {
          "internalType": "uint256",
          "name": "_timestamp",
          "type": "uint256"
        },
        {
          "internalType": "bytes",
          "name": "_ancillaryData",
          "type": "bytes"
        },
        {
          "internalType": "uint256",
          "name": "bond",
          "type": "uint256"
        }
      ],
      "name": "setBond",
      "outputs": [],
      "stateMutability": "nonpayable",
      "type": "function"
    },
    {
      "inputs": [
        {
          "internalType": "bytes32",
          "name": "_identifier",
          "type": "bytes32"
        },
        {
          "internalType": "uint256",
          "name": "_timestamp",
          "type": "uint256"
        },
        {
          "internalType": "bytes",
          "name": "_ancillaryData",
          "type": "bytes"
        }
      ],
      "name": "setRefundOnDispute",
      "outputs": [],
      "stateMutability": "nonpayable",
      "type": "function"
    },
    {
      "inputs": [
        {
          "internalType": "bytes32",
          "name": "_identifier",
          "type": "bytes32"
        },
        {
          "internalType": "uint256",
          "name": "_timestamp",
          "type": "uint256"
        },
        {
          "internalType": "bytes",
          "name": "_ancillaryData",
          "type": "bytes"
        },
        {
          "internalType": "uint256",
          "name": "customLiveness",
          "type": "uint256"
        }
      ],
      "name": "setCustomLiveness",
      "outputs": [],
      "stateMutability": "nonpayable",
      "type": "function"
    },
    {
      "inputs": [
        {
          "internalType": "bool",
          "name": "_shouldRevert",
          "type": "bool"
        }
      ],
      "name": "setRevert",
      "outputs": [],
      "stateMutability": "nonpayable",
      "type": "function"
    },
    {
      "inputs": [],
      "name": "clearState",
      "outputs": [],
      "stateMutability": "nonpayable",
      "type": "function"
    },
    {
      "inputs": [
        {
          "internalType": "bytes32",
          "name": "_identifier",
          "type": "bytes32"
        },
        {
          "internalType": "uint256",
          "name": "_timestamp",
          "type": "uint256"
        },
        {
          "internalType": "bytes",
          "name": "_ancillaryData",
          "type": "bytes"
        }
      ],
      "name": "priceProposed",
      "outputs": [],
      "stateMutability": "nonpayable",
      "type": "function"
    },
    {
      "inputs": [
        {
          "internalType": "bytes32",
          "name": "_identifier",
          "type": "bytes32"
        },
        {
          "internalType": "uint256",
          "name": "_timestamp",
          "type": "uint256"
        },
        {
          "internalType": "bytes",
          "name": "_ancillaryData",
          "type": "bytes"
        },
        {
          "internalType": "uint256",
          "name": "_refund",
          "type": "uint256"
        }
      ],
      "name": "priceDisputed",
      "outputs": [],
      "stateMutability": "nonpayable",
      "type": "function"
    },
    {
      "inputs": [
        {
          "internalType": "bytes32",
          "name": "_identifier",
          "type": "bytes32"
        },
        {
          "internalType": "uint256",
          "name": "_timestamp",
          "type": "uint256"
        },
        {
          "internalType": "bytes",
          "name": "_ancillaryData",
          "type": "bytes"
        },
        {
          "internalType": "int256",
          "name": "_price",
          "type": "int256"
        }
      ],
      "name": "priceSettled",
      "outputs": [],
      "stateMutability": "nonpayable",
      "type": "function"
    }
  ],
  "bytecode": "0x60806040526000805460ff60a01b1916905534801561001d57600080fd5b50604051610b4c380380610b4c83398101604081905261003c91610061565b600080546001600160a01b0319166001600160a01b039290921691909117905561008f565b600060208284031215610072578081fd5b81516001600160a01b0381168114610088578182fd5b9392505050565b610aae8061009e6000396000f3fe608060405234801561001057600080fd5b50600436106101005760003560e01c80638fb5f17111610097578063ad5a755a11610066578063ad5a755a146101e2578063b80777ea146101f5578063d3072d82146101fd578063f0136a631461021257610100565b80638fb5f171146101a157806391f58dcb146101b45780639c2fd1df146101c7578063a035b1fe146101da57610100565b8063590e1ae3116100d3578063590e1ae3146101535780636559905714610171578063719c6d56146101865780637998a1c41461019957610100565b806304cc1fd5146101055780630d8f23721461011a57806311df92f11461012d578063473c45fe14610140575b600080fd5b6101186101133660046108da565b61021a565b005b6101186101283660046108da565b610257565b61011861013b366004610866565b610294565b61011861014e3660046108da565b6103ad565b61015b61041b565b60405161016891906109b7565b60405180910390f35b610179610421565b6040516101689190610a54565b61015b610194366004610818565b6104af565b61015b61053e565b6101186101af3660046107d9565b610544565b6101186101c2366004610818565b610562565b6101186101d5366004610818565b6105cd565b61015b610607565b6101186101f03660046108da565b61060d565b61015b61069c565b6102056106a2565b60405161016891906109ac565b6101186106b2565b600054600160a01b900460ff161561023157600080fd5b60018490556002839055815161024e9060039060208501906106c8565b50600555505050565b600054600160a01b900460ff161561026e57600080fd5b60018490556002839055815161028b9060039060208501906106c8565b50600455505050565b60005460405163095ea7b360e01b81526001600160a01b038481169263095ea7b3926102c892909116908590600401610993565b602060405180830381600087803b1580156102e257600080fd5b505af11580156102f6573d6000803e3d6000fd5b505050506040513d601f19601f8201168201806040525081019061031a91906107fc565b506000546040516311df92f160e01b81526001600160a01b03909116906311df92f19061035390889088908890889088906004016109e8565b602060405180830381600087803b15801561036d57600080fd5b505af1158015610381573d6000803e3d6000fd5b505050506040513d601f19601f820116820180604052508101906103a59190610930565b505050505050565b60005460405163239e22ff60e11b81526001600160a01b039091169063473c45fe906103e3908790879087908790600401610a24565b600060405180830381600087803b1580156103fd57600080fd5b505af1158015610411573d6000803e3d6000fd5b5050505050505050565b60045481565b6003805460408051602060026001851615610100026000190190941693909304601f810184900484028201840190925281815292918301828280156104a75780601f1061047c576101008083540402835291602001916104a7565b820191906000526020600020905b81548152906001019060200180831161048a57829003601f168201915b505050505081565b600080546040516338ce36ab60e11b81526001600160a01b039091169063719c6d56906104e4908790879087906004016109c0565b602060405180830381600087803b1580156104fe57600080fd5b505af1158015610512573d6000803e3d6000fd5b505050506040513d601f19601f820116820180604052508101906105369190610930565b949350505050565b60015481565b60008054911515600160a01b0260ff60a01b19909216919091179055565b6000546040516391f58dcb60e01b81526001600160a01b03909116906391f58dcb90610596908690869086906004016109c0565b600060405180830381600087803b1580156105b057600080fd5b505af11580156105c4573d6000803e3d6000fd5b50505050505050565b600054600160a01b900460ff16156105e457600080fd5b6001839055600282905580516106019060039060208401906106c8565b50505050565b60055481565b6000546040516356ad3aad60e11b81526001600160a01b039091169063ad5a755a90610643908790879087908790600401610a24565b602060405180830381600087803b15801561065d57600080fd5b505af1158015610671573d6000803e3d6000fd5b505050506040513d601f19601f820116820180604052508101906106959190610930565b5050505050565b60025481565b600054600160a01b900460ff1681565b6000600181905560028190556004819055600555565b828054600181600116156101000203166002900490600052602060002090601f016020900481019282601f1061070957805160ff1916838001178555610736565b82800160010185558215610736579182015b8281111561073657825182559160200191906001019061071b565b50610742929150610746565b5090565b5b808211156107425760008155600101610747565b600082601f83011261076b578081fd5b813567ffffffffffffffff80821115610782578283fd5b604051601f8301601f1916810160200182811182821017156107a2578485fd5b6040528281529250828483016020018610156107bd57600080fd5b8260208601602083013760006020848301015250505092915050565b6000602082840312156107ea578081fd5b81356107f581610a67565b9392505050565b60006020828403121561080d578081fd5b81516107f581610a67565b60008060006060848603121561082c578182fd5b8335925060208401359150604084013567ffffffffffffffff811115610850578182fd5b61085c8682870161075b565b9150509250925092565b600080600080600060a0868803121561087d578081fd5b8535945060208601359350604086013567ffffffffffffffff8111156108a1578182fd5b6108ad8882890161075b565b93505060608601356001600160a01b03811681146108c9578182fd5b949793965091946080013592915050565b600080600080608085870312156108ef578384fd5b8435935060208501359250604085013567ffffffffffffffff811115610913578283fd5b61091f8782880161075b565b949793965093946060013593505050565b600060208284031215610941578081fd5b5051919050565b60008151808452815b8181101561096d57602081850181015186830182015201610951565b8181111561097e5782602083870101525b50601f01601f19169290920160200192915050565b6001600160a01b03929092168252602082015260400190565b901515815260200190565b90815260200190565b6000848252836020830152606060408301526109df6060830184610948565b95945050505050565b600086825285602083015260a06040830152610a0760a0830186610948565b6001600160a01b0394909416606083015250608001529392505050565b600085825284602083015260806040830152610a436080830185610948565b905082606083015295945050505050565b6000602082526107f56020830184610948565b8015158114610a7557600080fd5b5056fea264697066735822122070d3b9107af5c3e59e6fa76747bdfea460ad69b5f12ebe48e2647d52f3166da464736f6c634300060c0033",
  "immutableReferences": {},
  "source": "// SPDX-License-Identifier: AGPL-3.0-only\npragma solidity ^0.6.0;\npragma experimental ABIEncoderV2;\n\nimport \"@openzeppelin/contracts/token/ERC20/IERC20.sol\";\n\nimport \"../OptimisticOracle.sol\";\n\n// This is just a test contract to make requests to the optimistic oracle.\ncontract OptimisticRequesterTest is OptimisticRequester {\n    OptimisticOracle optimisticOracle;\n    bool public shouldRevert = false;\n\n    // State variables to track incoming calls.\n    bytes32 public identifier;\n    uint256 public timestamp;\n    bytes public ancillaryData;\n    uint256 public refund;\n    int256 public price;\n\n    constructor(OptimisticOracle _optimisticOracle) public {\n        optimisticOracle = _optimisticOracle;\n    }\n\n    function requestPrice(\n        bytes32 _identifier,\n        uint256 _timestamp,\n        bytes memory _ancillaryData,\n        IERC20 currency,\n        uint256 reward\n    ) external {\n        currency.approve(address(optimisticOracle), reward);\n        optimisticOracle.requestPrice(_identifier, _timestamp, _ancillaryData, currency, reward);\n    }\n\n    function getPrice(\n        bytes32 _identifier,\n        uint256 _timestamp,\n        bytes memory _ancillaryData\n    ) external returns (int256) {\n        return optimisticOracle.getPrice(_identifier, _timestamp, _ancillaryData);\n    }\n\n    function setBond(\n        bytes32 _identifier,\n        uint256 _timestamp,\n        bytes memory _ancillaryData,\n        uint256 bond\n    ) external {\n        optimisticOracle.setBond(_identifier, _timestamp, _ancillaryData, bond);\n    }\n\n    function setRefundOnDispute(\n        bytes32 _identifier,\n        uint256 _timestamp,\n        bytes memory _ancillaryData\n    ) external {\n        optimisticOracle.setRefundOnDispute(_identifier, _timestamp, _ancillaryData);\n    }\n\n    function setCustomLiveness(\n        bytes32 _identifier,\n        uint256 _timestamp,\n        bytes memory _ancillaryData,\n        uint256 customLiveness\n    ) external {\n        optimisticOracle.setCustomLiveness(_identifier, _timestamp, _ancillaryData, customLiveness);\n    }\n\n    function setRevert(bool _shouldRevert) external {\n        shouldRevert = _shouldRevert;\n    }\n\n    function clearState() external {\n        delete identifier;\n        delete timestamp;\n        delete refund;\n        delete price;\n    }\n\n    function priceProposed(\n        bytes32 _identifier,\n        uint256 _timestamp,\n        bytes memory _ancillaryData\n    ) external override {\n        require(!shouldRevert);\n        identifier = _identifier;\n        timestamp = _timestamp;\n        ancillaryData = _ancillaryData;\n    }\n\n    function priceDisputed(\n        bytes32 _identifier,\n        uint256 _timestamp,\n        bytes memory _ancillaryData,\n        uint256 _refund\n    ) external override {\n        require(!shouldRevert);\n        identifier = _identifier;\n        timestamp = _timestamp;\n        ancillaryData = _ancillaryData;\n        refund = _refund;\n    }\n\n    function priceSettled(\n        bytes32 _identifier,\n        uint256 _timestamp,\n        bytes memory _ancillaryData,\n        int256 _price\n    ) external override {\n        require(!shouldRevert);\n        identifier = _identifier;\n        timestamp = _timestamp;\n        ancillaryData = _ancillaryData;\n        price = _price;\n    }\n}\n",
  "sourcePath": "/Users/chris/temp/protocol/packages/core/contracts/oracle/implementation/test/OptimisticRequesterTest.sol",
  "compiler": {
    "name": "solc",
    "version": "0.6.12+commit.27d51765.Emscripten.clang"
  },
  "schemaVersion": "3.2.3",
  "updatedAt": "2020-12-14T08:25:49.511Z",
  "devdoc": {
    "kind": "dev",
    "methods": {},
    "version": 1
  },
  "userdoc": {
    "kind": "user",
    "methods": {},
    "version": 1
  }
}