{
  "contractName": "Perpetual",
  "abi": [
    {
      "inputs": [
        {
          "components": [
            {
              "internalType": "uint256",
              "name": "withdrawalLiveness",
              "type": "uint256"
            },
            {
              "internalType": "address",
              "name": "collateralAddress",
              "type": "address"
            },
            {
              "internalType": "address",
              "name": "tokenAddress",
              "type": "address"
            },
            {
              "internalType": "address",
              "name": "finderAddress",
              "type": "address"
            },
            {
              "internalType": "address",
              "name": "timerAddress",
              "type": "address"
            },
            {
              "internalType": "address",
              "name": "excessTokenBeneficiary",
              "type": "address"
            },
            {
              "internalType": "bytes32",
              "name": "priceFeedIdentifier",
              "type": "bytes32"
            },
            {
              "internalType": "bytes32",
              "name": "fundingRateIdentifier",
              "type": "bytes32"
            },
            {
              "components": [
                {
                  "internalType": "uint256",
                  "name": "rawValue",
                  "type": "uint256"
                }
              ],
              "internalType": "struct FixedPoint.Unsigned",
              "name": "fundingRateRewardRate",
              "type": "tuple"
            },
            {
              "components": [
                {
                  "internalType": "uint256",
                  "name": "rawValue",
                  "type": "uint256"
                }
              ],
              "internalType": "struct FixedPoint.Unsigned",
              "name": "minSponsorTokens",
              "type": "tuple"
            },
            {
              "internalType": "uint256",
              "name": "liquidationLiveness",
              "type": "uint256"
            },
            {
              "components": [
                {
                  "internalType": "uint256",
                  "name": "rawValue",
                  "type": "uint256"
                }
              ],
              "internalType": "struct FixedPoint.Unsigned",
              "name": "collateralRequirement",
              "type": "tuple"
            },
            {
              "components": [
                {
                  "internalType": "uint256",
                  "name": "rawValue",
                  "type": "uint256"
                }
              ],
              "internalType": "struct FixedPoint.Unsigned",
              "name": "disputeBondPct",
              "type": "tuple"
            },
            {
              "components": [
                {
                  "internalType": "uint256",
                  "name": "rawValue",
                  "type": "uint256"
                }
              ],
              "internalType": "struct FixedPoint.Unsigned",
              "name": "sponsorDisputeRewardPct",
              "type": "tuple"
            },
            {
              "components": [
                {
                  "internalType": "uint256",
                  "name": "rawValue",
                  "type": "uint256"
                }
              ],
              "internalType": "struct FixedPoint.Unsigned",
              "name": "disputerDisputeRewardPct",
              "type": "tuple"
            }
          ],
          "internalType": "struct PerpetualLiquidatable.ConstructorParams",
          "name": "params",
          "type": "tuple"
        }
      ],
      "stateMutability": "nonpayable",
      "type": "constructor"
    },
    {
      "anonymous": false,
      "inputs": [
        {
          "indexed": true,
          "internalType": "address",
          "name": "sponsor",
          "type": "address"
        },
        {
          "indexed": true,
          "internalType": "uint256",
          "name": "collateralAmount",
          "type": "uint256"
        }
      ],
      "name": "Deposit",
      "type": "event"
    },
    {
      "anonymous": false,
      "inputs": [
        {
          "indexed": true,
          "internalType": "address",
          "name": "caller",
          "type": "address"
        },
        {
          "indexed": true,
          "internalType": "address",
          "name": "sponsor",
          "type": "address"
        },
        {
          "indexed": true,
          "internalType": "address",
          "name": "liquidator",
          "type": "address"
        },
        {
          "indexed": false,
          "internalType": "address",
          "name": "disputer",
          "type": "address"
        },
        {
          "indexed": false,
          "internalType": "uint256",
          "name": "liquidationId",
          "type": "uint256"
        },
        {
          "indexed": false,
          "internalType": "bool",
          "name": "disputeSucceeded",
          "type": "bool"
        }
      ],
      "name": "DisputeSettled",
      "type": "event"
    },
    {
      "anonymous": false,
      "inputs": [
        {
          "indexed": true,
          "internalType": "address",
          "name": "caller",
          "type": "address"
        },
        {
          "indexed": false,
          "internalType": "uint256",
          "name": "shutdownTimestamp",
          "type": "uint256"
        }
      ],
      "name": "EmergencyShutdown",
      "type": "event"
    },
    {
      "anonymous": false,
      "inputs": [
        {
          "indexed": true,
          "internalType": "address",
          "name": "sponsor",
          "type": "address"
        }
      ],
      "name": "EndedSponsorPosition",
      "type": "event"
    },
    {
      "anonymous": false,
      "inputs": [
        {
          "indexed": true,
          "internalType": "uint256",
          "name": "amount",
          "type": "uint256"
        }
      ],
      "name": "FinalFeesPaid",
      "type": "event"
    },
    {
      "anonymous": false,
      "inputs": [
        {
          "indexed": true,
          "internalType": "uint256",
          "name": "fundingRateFee",
          "type": "uint256"
        }
      ],
      "name": "FundingRateFeesWithdrawn",
      "type": "event"
    },
    {
      "anonymous": false,
      "inputs": [
        {
          "indexed": true,
          "internalType": "address",
          "name": "sponsor",
          "type": "address"
        },
        {
          "indexed": true,
          "internalType": "address",
          "name": "liquidator",
          "type": "address"
        },
        {
          "indexed": true,
          "internalType": "uint256",
          "name": "liquidationId",
          "type": "uint256"
        },
        {
          "indexed": false,
          "internalType": "uint256",
          "name": "tokensOutstanding",
          "type": "uint256"
        },
        {
          "indexed": false,
          "internalType": "uint256",
          "name": "lockedCollateral",
          "type": "uint256"
        },
        {
          "indexed": false,
          "internalType": "uint256",
          "name": "liquidatedCollateral",
          "type": "uint256"
        },
        {
          "indexed": false,
          "internalType": "uint256",
          "name": "liquidationTime",
          "type": "uint256"
        }
      ],
      "name": "LiquidationCreated",
      "type": "event"
    },
    {
      "anonymous": false,
      "inputs": [
        {
          "indexed": true,
          "internalType": "address",
          "name": "sponsor",
          "type": "address"
        },
        {
          "indexed": true,
          "internalType": "address",
          "name": "liquidator",
          "type": "address"
        },
        {
          "indexed": true,
          "internalType": "address",
          "name": "disputer",
          "type": "address"
        },
        {
          "indexed": false,
          "internalType": "uint256",
          "name": "liquidationId",
          "type": "uint256"
        },
        {
          "indexed": false,
          "internalType": "uint256",
          "name": "disputeBondAmount",
          "type": "uint256"
        }
      ],
      "name": "LiquidationDisputed",
      "type": "event"
    },
    {
      "anonymous": false,
      "inputs": [
        {
          "indexed": true,
          "internalType": "address",
          "name": "caller",
          "type": "address"
        },
        {
          "indexed": false,
          "internalType": "uint256",
          "name": "paidToLiquidator",
          "type": "uint256"
        },
        {
          "indexed": false,
          "internalType": "uint256",
          "name": "paidToDisputer",
          "type": "uint256"
        },
        {
          "indexed": false,
          "internalType": "uint256",
          "name": "paidToSponsor",
          "type": "uint256"
        },
        {
          "indexed": true,
          "internalType": "enum PerpetualLiquidatable.Status",
          "name": "liquidationStatus",
          "type": "uint8"
        },
        {
          "indexed": false,
          "internalType": "uint256",
          "name": "settlementPrice",
          "type": "uint256"
        }
      ],
      "name": "LiquidationWithdrawn",
      "type": "event"
    },
    {
      "anonymous": false,
      "inputs": [
        {
          "indexed": true,
          "internalType": "uint256",
          "name": "newMultiplier",
          "type": "uint256"
        },
        {
          "indexed": false,
          "internalType": "uint256",
          "name": "lastUpdateTime",
          "type": "uint256"
        },
        {
          "indexed": false,
          "internalType": "uint256",
          "name": "updateTime",
          "type": "uint256"
        },
        {
          "indexed": true,
          "internalType": "uint256",
          "name": "paymentPeriod",
          "type": "uint256"
        },
        {
          "indexed": true,
          "internalType": "int256",
          "name": "latestFundingRate",
          "type": "int256"
        },
        {
          "indexed": false,
          "internalType": "int256",
          "name": "periodRate",
          "type": "int256"
        }
      ],
      "name": "NewFundingRate",
      "type": "event"
    },
    {
      "anonymous": false,
      "inputs": [
        {
          "indexed": true,
          "internalType": "address",
          "name": "sponsor",
          "type": "address"
        }
      ],
      "name": "NewSponsor",
      "type": "event"
    },
    {
      "anonymous": false,
      "inputs": [
        {
          "indexed": true,
          "internalType": "address",
          "name": "sponsor",
          "type": "address"
        },
        {
          "indexed": true,
          "internalType": "uint256",
          "name": "collateralAmount",
          "type": "uint256"
        },
        {
          "indexed": true,
          "internalType": "uint256",
          "name": "tokenAmount",
          "type": "uint256"
        }
      ],
      "name": "PositionCreated",
      "type": "event"
    },
    {
      "anonymous": false,
      "inputs": [
        {
          "indexed": true,
          "internalType": "address",
          "name": "sponsor",
          "type": "address"
        },
        {
          "indexed": true,
          "internalType": "uint256",
          "name": "collateralAmount",
          "type": "uint256"
        },
        {
          "indexed": true,
          "internalType": "uint256",
          "name": "tokenAmount",
          "type": "uint256"
        }
      ],
      "name": "Redeem",
      "type": "event"
    },
    {
      "anonymous": false,
      "inputs": [
        {
          "indexed": true,
          "internalType": "uint256",
          "name": "regularFee",
          "type": "uint256"
        },
        {
          "indexed": true,
          "internalType": "uint256",
          "name": "lateFee",
          "type": "uint256"
        }
      ],
      "name": "RegularFeesPaid",
      "type": "event"
    },
    {
      "anonymous": false,
      "inputs": [
        {
          "indexed": true,
          "internalType": "address",
          "name": "sponsor",
          "type": "address"
        },
        {
          "indexed": true,
          "internalType": "uint256",
          "name": "numTokensRepaid",
          "type": "uint256"
        },
        {
          "indexed": true,
          "internalType": "uint256",
          "name": "newTokenCount",
          "type": "uint256"
        }
      ],
      "name": "Repay",
      "type": "event"
    },
    {
      "anonymous": false,
      "inputs": [
        {
          "indexed": true,
          "internalType": "address",
          "name": "sponsor",
          "type": "address"
        },
        {
          "indexed": true,
          "internalType": "uint256",
          "name": "collateralAmount",
          "type": "uint256"
        }
      ],
      "name": "RequestWithdrawal",
      "type": "event"
    },
    {
      "anonymous": false,
      "inputs": [
        {
          "indexed": true,
          "internalType": "address",
          "name": "sponsor",
          "type": "address"
        },
        {
          "indexed": true,
          "internalType": "uint256",
          "name": "collateralAmount",
          "type": "uint256"
        }
      ],
      "name": "RequestWithdrawalCanceled",
      "type": "event"
    },
    {
      "anonymous": false,
      "inputs": [
        {
          "indexed": true,
          "internalType": "address",
          "name": "sponsor",
          "type": "address"
        },
        {
          "indexed": true,
          "internalType": "uint256",
          "name": "collateralAmount",
          "type": "uint256"
        }
      ],
      "name": "RequestWithdrawalExecuted",
      "type": "event"
    },
    {
      "anonymous": false,
      "inputs": [
        {
          "indexed": true,
          "internalType": "address",
          "name": "caller",
          "type": "address"
        },
        {
          "indexed": true,
          "internalType": "uint256",
          "name": "collateralReturned",
          "type": "uint256"
        },
        {
          "indexed": true,
          "internalType": "uint256",
          "name": "tokensBurned",
          "type": "uint256"
        }
      ],
      "name": "SettleEmergencyShutdown",
      "type": "event"
    },
    {
      "anonymous": false,
      "inputs": [
        {
          "indexed": true,
          "internalType": "address",
          "name": "sponsor",
          "type": "address"
        },
        {
          "indexed": true,
          "internalType": "uint256",
          "name": "collateralAmount",
          "type": "uint256"
        }
      ],
      "name": "Withdrawal",
      "type": "event"
    },
    {
      "inputs": [],
      "name": "applyFundingRate",
      "outputs": [],
      "stateMutability": "nonpayable",
      "type": "function"
    },
    {
      "inputs": [],
      "name": "cancelWithdrawal",
      "outputs": [],
      "stateMutability": "nonpayable",
      "type": "function"
    },
    {
      "inputs": [],
      "name": "collateralCurrency",
      "outputs": [
        {
          "internalType": "contract IERC20",
          "name": "",
          "type": "address"
        }
      ],
      "stateMutability": "view",
      "type": "function"
    },
    {
      "inputs": [],
      "name": "collateralRequirement",
      "outputs": [
        {
          "internalType": "uint256",
          "name": "rawValue",
          "type": "uint256"
        }
      ],
      "stateMutability": "view",
      "type": "function"
    },
    {
      "inputs": [
        {
          "components": [
            {
              "internalType": "uint256",
              "name": "rawValue",
              "type": "uint256"
            }
          ],
          "internalType": "struct FixedPoint.Unsigned",
          "name": "collateralAmount",
          "type": "tuple"
        },
        {
          "components": [
            {
              "internalType": "uint256",
              "name": "rawValue",
              "type": "uint256"
            }
          ],
          "internalType": "struct FixedPoint.Unsigned",
          "name": "numTokens",
          "type": "tuple"
        }
      ],
      "name": "create",
      "outputs": [],
      "stateMutability": "nonpayable",
      "type": "function"
    },
    {
      "inputs": [
        {
          "internalType": "address",
          "name": "sponsor",
          "type": "address"
        },
        {
          "components": [
            {
              "internalType": "uint256",
              "name": "rawValue",
              "type": "uint256"
            }
          ],
          "internalType": "struct FixedPoint.Unsigned",
          "name": "minCollateralPerToken",
          "type": "tuple"
        },
        {
          "components": [
            {
              "internalType": "uint256",
              "name": "rawValue",
              "type": "uint256"
            }
          ],
          "internalType": "struct FixedPoint.Unsigned",
          "name": "maxCollateralPerToken",
          "type": "tuple"
        },
        {
          "components": [
            {
              "internalType": "uint256",
              "name": "rawValue",
              "type": "uint256"
            }
          ],
          "internalType": "struct FixedPoint.Unsigned",
          "name": "maxTokensToLiquidate",
          "type": "tuple"
        },
        {
          "internalType": "uint256",
          "name": "deadline",
          "type": "uint256"
        }
      ],
      "name": "createLiquidation",
      "outputs": [
        {
          "internalType": "uint256",
          "name": "liquidationId",
          "type": "uint256"
        },
        {
          "components": [
            {
              "internalType": "uint256",
              "name": "rawValue",
              "type": "uint256"
            }
          ],
          "internalType": "struct FixedPoint.Unsigned",
          "name": "tokensLiquidated",
          "type": "tuple"
        },
        {
          "components": [
            {
              "internalType": "uint256",
              "name": "rawValue",
              "type": "uint256"
            }
          ],
          "internalType": "struct FixedPoint.Unsigned",
          "name": "finalFeeBond",
          "type": "tuple"
        }
      ],
      "stateMutability": "nonpayable",
      "type": "function"
    },
    {
      "inputs": [],
      "name": "cumulativeFeeMultiplier",
      "outputs": [
        {
          "internalType": "uint256",
          "name": "rawValue",
          "type": "uint256"
        }
      ],
      "stateMutability": "view",
      "type": "function"
    },
    {
      "inputs": [],
      "name": "cumulativeFundingRateMultiplier",
      "outputs": [
        {
          "internalType": "uint256",
          "name": "rawValue",
          "type": "uint256"
        }
      ],
      "stateMutability": "view",
      "type": "function"
    },
    {
      "inputs": [
        {
          "components": [
            {
              "internalType": "uint256",
              "name": "rawValue",
              "type": "uint256"
            }
          ],
          "internalType": "struct FixedPoint.Unsigned",
          "name": "collateralAmount",
          "type": "tuple"
        }
      ],
      "name": "deposit",
      "outputs": [],
      "stateMutability": "nonpayable",
      "type": "function"
    },
    {
      "inputs": [
        {
          "internalType": "address",
          "name": "sponsor",
          "type": "address"
        },
        {
          "components": [
            {
              "internalType": "uint256",
              "name": "rawValue",
              "type": "uint256"
            }
          ],
          "internalType": "struct FixedPoint.Unsigned",
          "name": "collateralAmount",
          "type": "tuple"
        }
      ],
      "name": "depositTo",
      "outputs": [],
      "stateMutability": "nonpayable",
      "type": "function"
    },
    {
      "inputs": [
        {
          "internalType": "uint256",
          "name": "liquidationId",
          "type": "uint256"
        },
        {
          "internalType": "address",
          "name": "sponsor",
          "type": "address"
        }
      ],
      "name": "dispute",
      "outputs": [
        {
          "components": [
            {
              "internalType": "uint256",
              "name": "rawValue",
              "type": "uint256"
            }
          ],
          "internalType": "struct FixedPoint.Unsigned",
          "name": "totalPaid",
          "type": "tuple"
        }
      ],
      "stateMutability": "nonpayable",
      "type": "function"
    },
    {
      "inputs": [],
      "name": "disputeBondPct",
      "outputs": [
        {
          "internalType": "uint256",
          "name": "rawValue",
          "type": "uint256"
        }
      ],
      "stateMutability": "view",
      "type": "function"
    },
    {
      "inputs": [],
      "name": "disputerDisputeRewardPct",
      "outputs": [
        {
          "internalType": "uint256",
          "name": "rawValue",
          "type": "uint256"
        }
      ],
      "stateMutability": "view",
      "type": "function"
    },
    {
      "inputs": [],
      "name": "emergencyShutdown",
      "outputs": [],
      "stateMutability": "nonpayable",
      "type": "function"
    },
    {
      "inputs": [],
      "name": "emergencyShutdownPrice",
      "outputs": [
        {
          "internalType": "uint256",
          "name": "rawValue",
          "type": "uint256"
        }
      ],
      "stateMutability": "view",
      "type": "function"
    },
    {
      "inputs": [],
      "name": "emergencyShutdownTimestamp",
      "outputs": [
        {
          "internalType": "uint256",
          "name": "",
          "type": "uint256"
        }
      ],
      "stateMutability": "view",
      "type": "function"
    },
    {
      "inputs": [],
      "name": "excessTokenBeneficiary",
      "outputs": [
        {
          "internalType": "address",
          "name": "",
          "type": "address"
        }
      ],
      "stateMutability": "view",
      "type": "function"
    },
    {
      "inputs": [],
      "name": "finder",
      "outputs": [
        {
          "internalType": "contract FinderInterface",
          "name": "",
          "type": "address"
        }
      ],
      "stateMutability": "view",
      "type": "function"
    },
    {
      "inputs": [],
      "name": "fundingRateIdentifier",
      "outputs": [
        {
          "internalType": "bytes32",
          "name": "",
          "type": "bytes32"
        }
      ],
      "stateMutability": "view",
      "type": "function"
    },
    {
      "inputs": [
        {
          "internalType": "address",
          "name": "sponsor",
          "type": "address"
        }
      ],
      "name": "getCollateral",
      "outputs": [
        {
          "components": [
            {
              "internalType": "uint256",
              "name": "rawValue",
              "type": "uint256"
            }
          ],
          "internalType": "struct FixedPoint.Unsigned",
          "name": "collateralAmount",
          "type": "tuple"
        }
      ],
      "stateMutability": "view",
      "type": "function"
    },
    {
      "inputs": [],
      "name": "getCollateralCurrency",
      "outputs": [
        {
          "internalType": "contract IERC20",
          "name": "",
          "type": "address"
        }
      ],
      "stateMutability": "view",
      "type": "function"
    },
    {
      "inputs": [],
      "name": "getCurrentTime",
      "outputs": [
        {
          "internalType": "uint256",
          "name": "",
          "type": "uint256"
        }
      ],
      "stateMutability": "view",
      "type": "function"
    },
    {
      "inputs": [
        {
          "components": [
            {
              "internalType": "uint256",
              "name": "rawValue",
              "type": "uint256"
            }
          ],
          "internalType": "struct FixedPoint.Unsigned",
          "name": "rawTokenDebt",
          "type": "tuple"
        }
      ],
      "name": "getFundingRateAppliedTokenDebt",
      "outputs": [
        {
          "components": [
            {
              "internalType": "uint256",
              "name": "rawValue",
              "type": "uint256"
            }
          ],
          "internalType": "struct FixedPoint.Unsigned",
          "name": "totalCollateral",
          "type": "tuple"
        }
      ],
      "stateMutability": "view",
      "type": "function"
    },
    {
      "inputs": [],
      "name": "getFundingRateIdentifier",
      "outputs": [
        {
          "internalType": "bytes32",
          "name": "",
          "type": "bytes32"
        }
      ],
      "stateMutability": "view",
      "type": "function"
    },
    {
      "inputs": [
        {
          "internalType": "address",
          "name": "sponsor",
          "type": "address"
        }
      ],
      "name": "getLiquidations",
      "outputs": [
        {
          "components": [
            {
              "internalType": "address",
              "name": "sponsor",
              "type": "address"
            },
            {
              "internalType": "address",
              "name": "liquidator",
              "type": "address"
            },
            {
              "internalType": "enum PerpetualLiquidatable.Status",
              "name": "state",
              "type": "uint8"
            },
            {
              "internalType": "uint256",
              "name": "liquidationTime",
              "type": "uint256"
            },
            {
              "components": [
                {
                  "internalType": "uint256",
                  "name": "rawValue",
                  "type": "uint256"
                }
              ],
              "internalType": "struct FixedPoint.Unsigned",
              "name": "tokensOutstanding",
              "type": "tuple"
            },
            {
              "components": [
                {
                  "internalType": "uint256",
                  "name": "rawValue",
                  "type": "uint256"
                }
              ],
              "internalType": "struct FixedPoint.Unsigned",
              "name": "lockedCollateral",
              "type": "tuple"
            },
            {
              "components": [
                {
                  "internalType": "uint256",
                  "name": "rawValue",
                  "type": "uint256"
                }
              ],
              "internalType": "struct FixedPoint.Unsigned",
              "name": "liquidatedCollateral",
              "type": "tuple"
            },
            {
              "components": [
                {
                  "internalType": "uint256",
                  "name": "rawValue",
                  "type": "uint256"
                }
              ],
              "internalType": "struct FixedPoint.Unsigned",
              "name": "rawUnitCollateral",
              "type": "tuple"
            },
            {
              "internalType": "address",
              "name": "disputer",
              "type": "address"
            },
            {
              "components": [
                {
                  "internalType": "uint256",
                  "name": "rawValue",
                  "type": "uint256"
                }
              ],
              "internalType": "struct FixedPoint.Unsigned",
              "name": "settlementPrice",
              "type": "tuple"
            },
            {
              "components": [
                {
                  "internalType": "uint256",
                  "name": "rawValue",
                  "type": "uint256"
                }
              ],
              "internalType": "struct FixedPoint.Unsigned",
              "name": "finalFee",
              "type": "tuple"
            }
          ],
          "internalType": "struct PerpetualLiquidatable.LiquidationData[]",
          "name": "liquidationData",
          "type": "tuple[]"
        }
      ],
      "stateMutability": "view",
      "type": "function"
    },
    {
      "inputs": [],
      "name": "lastUpdateTime",
      "outputs": [
        {
          "internalType": "uint256",
          "name": "",
          "type": "uint256"
        }
      ],
      "stateMutability": "view",
      "type": "function"
    },
    {
      "inputs": [],
      "name": "liquidationLiveness",
      "outputs": [
        {
          "internalType": "uint256",
          "name": "",
          "type": "uint256"
        }
      ],
      "stateMutability": "view",
      "type": "function"
    },
    {
      "inputs": [
        {
          "internalType": "address",
          "name": "",
          "type": "address"
        },
        {
          "internalType": "uint256",
          "name": "",
          "type": "uint256"
        }
      ],
      "name": "liquidations",
      "outputs": [
        {
          "internalType": "address",
          "name": "sponsor",
          "type": "address"
        },
        {
          "internalType": "address",
          "name": "liquidator",
          "type": "address"
        },
        {
          "internalType": "enum PerpetualLiquidatable.Status",
          "name": "state",
          "type": "uint8"
        },
        {
          "internalType": "uint256",
          "name": "liquidationTime",
          "type": "uint256"
        },
        {
          "components": [
            {
              "internalType": "uint256",
              "name": "rawValue",
              "type": "uint256"
            }
          ],
          "internalType": "struct FixedPoint.Unsigned",
          "name": "tokensOutstanding",
          "type": "tuple"
        },
        {
          "components": [
            {
              "internalType": "uint256",
              "name": "rawValue",
              "type": "uint256"
            }
          ],
          "internalType": "struct FixedPoint.Unsigned",
          "name": "lockedCollateral",
          "type": "tuple"
        },
        {
          "components": [
            {
              "internalType": "uint256",
              "name": "rawValue",
              "type": "uint256"
            }
          ],
          "internalType": "struct FixedPoint.Unsigned",
          "name": "liquidatedCollateral",
          "type": "tuple"
        },
        {
          "components": [
            {
              "internalType": "uint256",
              "name": "rawValue",
              "type": "uint256"
            }
          ],
          "internalType": "struct FixedPoint.Unsigned",
          "name": "rawUnitCollateral",
          "type": "tuple"
        },
        {
          "internalType": "address",
          "name": "disputer",
          "type": "address"
        },
        {
          "components": [
            {
              "internalType": "uint256",
              "name": "rawValue",
              "type": "uint256"
            }
          ],
          "internalType": "struct FixedPoint.Unsigned",
          "name": "settlementPrice",
          "type": "tuple"
        },
        {
          "components": [
            {
              "internalType": "uint256",
              "name": "rawValue",
              "type": "uint256"
            }
          ],
          "internalType": "struct FixedPoint.Unsigned",
          "name": "finalFee",
          "type": "tuple"
        }
      ],
      "stateMutability": "view",
      "type": "function"
    },
    {
      "inputs": [],
      "name": "minSponsorTokens",
      "outputs": [
        {
          "internalType": "uint256",
          "name": "rawValue",
          "type": "uint256"
        }
      ],
      "stateMutability": "view",
      "type": "function"
    },
    {
      "inputs": [],
      "name": "payRegularFees",
      "outputs": [
        {
          "components": [
            {
              "internalType": "uint256",
              "name": "rawValue",
              "type": "uint256"
            }
          ],
          "internalType": "struct FixedPoint.Unsigned",
          "name": "totalPaid",
          "type": "tuple"
        }
      ],
      "stateMutability": "nonpayable",
      "type": "function"
    },
    {
      "inputs": [],
      "name": "pfc",
      "outputs": [
        {
          "components": [
            {
              "internalType": "uint256",
              "name": "rawValue",
              "type": "uint256"
            }
          ],
          "internalType": "struct FixedPoint.Unsigned",
          "name": "",
          "type": "tuple"
        }
      ],
      "stateMutability": "view",
      "type": "function"
    },
    {
      "inputs": [
        {
          "internalType": "address",
          "name": "",
          "type": "address"
        }
      ],
      "name": "positions",
      "outputs": [
        {
          "components": [
            {
              "internalType": "uint256",
              "name": "rawValue",
              "type": "uint256"
            }
          ],
          "internalType": "struct FixedPoint.Unsigned",
          "name": "tokensOutstanding",
          "type": "tuple"
        },
        {
          "internalType": "uint256",
          "name": "withdrawalRequestPassTimestamp",
          "type": "uint256"
        },
        {
          "components": [
            {
              "internalType": "uint256",
              "name": "rawValue",
              "type": "uint256"
            }
          ],
          "internalType": "struct FixedPoint.Unsigned",
          "name": "withdrawalRequestAmount",
          "type": "tuple"
        },
        {
          "components": [
            {
              "internalType": "uint256",
              "name": "rawValue",
              "type": "uint256"
            }
          ],
          "internalType": "struct FixedPoint.Unsigned",
          "name": "rawCollateral",
          "type": "tuple"
        }
      ],
      "stateMutability": "view",
      "type": "function"
    },
    {
      "inputs": [],
      "name": "priceIdentifier",
      "outputs": [
        {
          "internalType": "bytes32",
          "name": "",
          "type": "bytes32"
        }
      ],
      "stateMutability": "view",
      "type": "function"
    },
    {
      "inputs": [],
      "name": "rawLiquidationCollateral",
      "outputs": [
        {
          "internalType": "uint256",
          "name": "rawValue",
          "type": "uint256"
        }
      ],
      "stateMutability": "view",
      "type": "function"
    },
    {
      "inputs": [],
      "name": "rawTotalPositionCollateral",
      "outputs": [
        {
          "internalType": "uint256",
          "name": "rawValue",
          "type": "uint256"
        }
      ],
      "stateMutability": "view",
      "type": "function"
    },
    {
      "inputs": [
        {
          "components": [
            {
              "internalType": "uint256",
              "name": "rawValue",
              "type": "uint256"
            }
          ],
          "internalType": "struct FixedPoint.Unsigned",
          "name": "numTokens",
          "type": "tuple"
        }
      ],
      "name": "redeem",
      "outputs": [
        {
          "components": [
            {
              "internalType": "uint256",
              "name": "rawValue",
              "type": "uint256"
            }
          ],
          "internalType": "struct FixedPoint.Unsigned",
          "name": "amountWithdrawn",
          "type": "tuple"
        }
      ],
      "stateMutability": "nonpayable",
      "type": "function"
    },
    {
      "inputs": [],
      "name": "remargin",
      "outputs": [],
      "stateMutability": "nonpayable",
      "type": "function"
    },
    {
      "inputs": [
        {
          "components": [
            {
              "internalType": "uint256",
              "name": "rawValue",
              "type": "uint256"
            }
          ],
          "internalType": "struct FixedPoint.Unsigned",
          "name": "numTokens",
          "type": "tuple"
        }
      ],
      "name": "repay",
      "outputs": [],
      "stateMutability": "nonpayable",
      "type": "function"
    },
    {
      "inputs": [
        {
          "components": [
            {
              "internalType": "uint256",
              "name": "rawValue",
              "type": "uint256"
            }
          ],
          "internalType": "struct FixedPoint.Unsigned",
          "name": "collateralAmount",
          "type": "tuple"
        }
      ],
      "name": "requestWithdrawal",
      "outputs": [],
      "stateMutability": "nonpayable",
      "type": "function"
    },
    {
      "inputs": [
        {
          "internalType": "uint256",
          "name": "time",
          "type": "uint256"
        }
      ],
      "name": "setCurrentTime",
      "outputs": [],
      "stateMutability": "nonpayable",
      "type": "function"
    },
    {
      "inputs": [],
      "name": "settleEmergencyShutdown",
      "outputs": [
        {
          "components": [
            {
              "internalType": "uint256",
              "name": "rawValue",
              "type": "uint256"
            }
          ],
          "internalType": "struct FixedPoint.Unsigned",
          "name": "amountWithdrawn",
          "type": "tuple"
        }
      ],
      "stateMutability": "nonpayable",
      "type": "function"
    },
    {
      "inputs": [],
      "name": "sponsorDisputeRewardPct",
      "outputs": [
        {
          "internalType": "uint256",
          "name": "rawValue",
          "type": "uint256"
        }
      ],
      "stateMutability": "view",
      "type": "function"
    },
    {
      "inputs": [],
      "name": "timerAddress",
      "outputs": [
        {
          "internalType": "address",
          "name": "",
          "type": "address"
        }
      ],
      "stateMutability": "view",
      "type": "function"
    },
    {
      "inputs": [],
      "name": "tokenCurrency",
      "outputs": [
        {
          "internalType": "contract ExpandedIERC20",
          "name": "",
          "type": "address"
        }
      ],
      "stateMutability": "view",
      "type": "function"
    },
    {
      "inputs": [],
      "name": "totalPositionCollateral",
      "outputs": [
        {
          "components": [
            {
              "internalType": "uint256",
              "name": "rawValue",
              "type": "uint256"
            }
          ],
          "internalType": "struct FixedPoint.Unsigned",
          "name": "totalCollateral",
          "type": "tuple"
        }
      ],
      "stateMutability": "view",
      "type": "function"
    },
    {
      "inputs": [],
      "name": "totalTokensOutstanding",
      "outputs": [
        {
          "internalType": "uint256",
          "name": "rawValue",
          "type": "uint256"
        }
      ],
      "stateMutability": "view",
      "type": "function"
    },
    {
      "inputs": [
        {
          "internalType": "contract IERC20",
          "name": "token",
          "type": "address"
        }
      ],
      "name": "trimExcess",
      "outputs": [
        {
          "components": [
            {
              "internalType": "uint256",
              "name": "rawValue",
              "type": "uint256"
            }
          ],
          "internalType": "struct FixedPoint.Unsigned",
          "name": "amount",
          "type": "tuple"
        }
      ],
      "stateMutability": "nonpayable",
      "type": "function"
    },
    {
      "inputs": [
        {
          "components": [
            {
              "internalType": "uint256",
              "name": "rawValue",
              "type": "uint256"
            }
          ],
          "internalType": "struct FixedPoint.Unsigned",
          "name": "collateralAmount",
          "type": "tuple"
        }
      ],
      "name": "withdraw",
      "outputs": [
        {
          "components": [
            {
              "internalType": "uint256",
              "name": "rawValue",
              "type": "uint256"
            }
          ],
          "internalType": "struct FixedPoint.Unsigned",
          "name": "amountWithdrawn",
          "type": "tuple"
        }
      ],
      "stateMutability": "nonpayable",
      "type": "function"
    },
    {
      "inputs": [
        {
          "components": [
            {
              "internalType": "uint256",
              "name": "rawValue",
              "type": "uint256"
            }
          ],
          "internalType": "struct FixedPoint.Unsigned",
          "name": "amount",
          "type": "tuple"
        }
      ],
      "name": "withdrawFundingRateFees",
      "outputs": [
        {
          "components": [
            {
              "internalType": "uint256",
              "name": "rawValue",
              "type": "uint256"
            }
          ],
          "internalType": "struct FixedPoint.Unsigned",
          "name": "",
          "type": "tuple"
        }
      ],
      "stateMutability": "nonpayable",
      "type": "function"
    },
    {
      "inputs": [
        {
          "internalType": "uint256",
          "name": "liquidationId",
          "type": "uint256"
        },
        {
          "internalType": "address",
          "name": "sponsor",
          "type": "address"
        }
      ],
      "name": "withdrawLiquidation",
      "outputs": [
        {
          "components": [
            {
              "components": [
                {
                  "internalType": "uint256",
                  "name": "rawValue",
                  "type": "uint256"
                }
              ],
              "internalType": "struct FixedPoint.Unsigned",
              "name": "payToSponsor",
              "type": "tuple"
            },
            {
              "components": [
                {
                  "internalType": "uint256",
                  "name": "rawValue",
                  "type": "uint256"
                }
              ],
              "internalType": "struct FixedPoint.Unsigned",
              "name": "payToLiquidator",
              "type": "tuple"
            },
            {
              "components": [
                {
                  "internalType": "uint256",
                  "name": "rawValue",
                  "type": "uint256"
                }
              ],
              "internalType": "struct FixedPoint.Unsigned",
              "name": "payToDisputer",
              "type": "tuple"
            },
            {
              "components": [
                {
                  "internalType": "uint256",
                  "name": "rawValue",
                  "type": "uint256"
                }
              ],
              "internalType": "struct FixedPoint.Unsigned",
              "name": "paidToSponsor",
              "type": "tuple"
            },
            {
              "components": [
                {
                  "internalType": "uint256",
                  "name": "rawValue",
                  "type": "uint256"
                }
              ],
              "internalType": "struct FixedPoint.Unsigned",
              "name": "paidToLiquidator",
              "type": "tuple"
            },
            {
              "components": [
                {
                  "internalType": "uint256",
                  "name": "rawValue",
                  "type": "uint256"
                }
              ],
              "internalType": "struct FixedPoint.Unsigned",
              "name": "paidToDisputer",
              "type": "tuple"
            }
          ],
          "internalType": "struct PerpetualLiquidatable.RewardsData",
          "name": "",
          "type": "tuple"
        }
      ],
      "stateMutability": "nonpayable",
      "type": "function"
    },
    {
      "inputs": [],
      "name": "withdrawPassedRequest",
      "outputs": [
        {
          "components": [
            {
              "internalType": "uint256",
              "name": "rawValue",
              "type": "uint256"
            }
          ],
          "internalType": "struct FixedPoint.Unsigned",
          "name": "amountWithdrawn",
          "type": "tuple"
        }
      ],
      "stateMutability": "nonpayable",
      "type": "function"
    },
    {
      "inputs": [],
      "name": "withdrawalLiveness",
      "outputs": [
        {
          "internalType": "uint256",
          "name": "",
          "type": "uint256"
        }
      ],
      "stateMutability": "view",
      "type": "function"
    }
  ],
  "bytecode": "0x60806040523480156200001157600080fd5b5060405162005b6b38038062005b6b8339810160408190526200003491620006be565b805160208201516040830151606084015160c085015160e0860151610100870151610120880151608089015160a08a01516000805460ff60a01b196001600160a01b038086166001600160a01b03199384161791909116600160a01b1790925560018054838d1690831617905560028054928a16929091169190911790558a999897969594939291908684868b8386828282620000d062000384565b600381905550620000ed60016200042d60201b62002b041760201c565b516004555050506005939093555050600680546001600160a01b0319166001600160a01b038516179055506200012262000384565b6007819055506200013f60016200042d60201b62002b041760201c565b516008556200014d6200046c565b6001600160a01b031663eb9c7de130836040518363ffffffff1660e01b81526004016200017c92919062000804565b600060405180830381600087803b1580156200019757600080fd5b505af1158015620001ac573d6000803e3d6000fd5b505050505050620001c2620004f660201b60201c565b6001600160a01b03166390978d1b876040518263ffffffff1660e01b8152600401620001ef91906200081e565b60206040518083038186803b1580156200020857600080fd5b505afa1580156200021d573d6000803e3d6000fd5b505050506040513d601f19601f820116820180604052508101906200024391906200069c565b6200026b5760405162461bcd60e51b8152600401620002629062000929565b60405180910390fd5b600e9990995550600c80546001600160a01b03199081166001600160a01b03988916179091559051600f55600d9390935550506012805490911692909416919091179092555050610160810151620002d190600162000549602090811b62002b3217901c565b620002f05760405162461bcd60e51b81526004016200026290620008b1565b6200032e60016200031a836101c00151846101a001516200056360201b62002b491790919060201c565b620005a360201b62002b751790919060201c565b6200034d5760405162461bcd60e51b815260040162000262906200087a565b61014081015160155561016081015151601655610180810151516017556101a0810151516018556101c00151516019555062000987565b600080546001600160a01b031615620004275760008054906101000a90046001600160a01b03166001600160a01b03166329cb924d6040518163ffffffff1660e01b815260040160206040518083038186803b158015620003e457600080fd5b505afa158015620003f9573d6000803e3d6000fd5b505050506040513d601f19601f820116820180604052508101906200041f9190620007eb565b90506200042a565b50425b90565b620004376200062b565b604051806020016040528062000464670de0b6b3a764000085620005bc60201b62002b8c1790919060201c565b905292915050565b6006546040516302abf57960e61b81526000916001600160a01b03169063aafd5e40906200049d9060040162000827565b60206040518083038186803b158015620004b657600080fd5b505afa158015620004cb573d6000803e3d6000fd5b505050506040513d601f19601f82011682018060405250810190620004f191906200067e565b905090565b6002546040516302abf57960e61b81526000916001600160a01b03169063aafd5e40906200049d907f4964656e74696669657257686974656c69737400000000000000000000000000906004016200081e565b600062000556826200042d565b5183511190505b92915050565b6200056d6200062b565b60405180602001604052806200059a846000015186600001516200060360201b62002bcd1790919060201c565b90529392505050565b6000620005b0826200042d565b51835110905092915050565b600082620005cd575060006200055d565b82820282848281620005db57fe5b0414620005fc5760405162461bcd60e51b81526004016200026290620008e8565b9392505050565b600082820183811015620005fc5760405162461bcd60e51b8152600401620002629062000843565b6040518060200160405280600081525090565b80516001600160a01b03811681146200055d57600080fd5b60006020828403121562000668578081fd5b62000674602062000960565b9151825250919050565b60006020828403121562000690578081fd5b620005fc83836200063e565b600060208284031215620006ae578081fd5b81518015158114620005fc578182fd5b60006101e0808385031215620006d2578182fd5b620006dd8162000960565b905082518152620006f284602085016200063e565b60208201526200070684604085016200063e565b60408201526200071a84606085016200063e565b60608201526200072e84608085016200063e565b6080820152620007428460a085016200063e565b60a082015260c083015160c082015260e083015160e08201526101006200076c8582860162000656565b90820152610120620007818585830162000656565b908201526101408381015190820152610160620007a18582860162000656565b90820152610180620007b68585830162000656565b908201526101a0620007cb8585830162000656565b908201526101c0620007e08585830162000656565b908201529392505050565b600060208284031215620007fd578081fd5b5051919050565b6001600160a01b0392909216825251602082015260400190565b90815260200190565b6f46756e64696e675261746553746f726560801b815260200190565b6020808252601b908201527f536166654d6174683a206164646974696f6e206f766572666c6f770000000000604082015260600190565b6020808252601a908201527f5265776172647320617265206d6f7265207468616e2031303025000000000000604082015260600190565b60208082526014908201527f4352206973206d6f7265207468616e2031303025000000000000000000000000604082015260600190565b60208082526021908201527f536166654d6174683a206d756c7469706c69636174696f6e206f766572666c6f6040820152607760f81b606082015260800190565b6020808252601c908201527f556e737570706f72746564207072696365206964656e74696669657200000000604082015260600190565b6040518181016001600160401b03811182821017156200097f57600080fd5b604052919050565b6151d480620009976000396000f3fe608060405234801561001057600080fd5b506004361061030b5760003560e01c806355f575101161019d57806392120aec116100e9578063b9a3c84c116100a2578063c13f62e11161007c578063c13f62e1146105cd578063c8f33c91146105d5578063d1e92c11146105dd578063dd0eef3d146105f05761030b565b8063b9a3c84c146105aa578063bc121630146105b2578063bda02e77146105c55761030b565b806392120aec1461054c57806397523661146105545780639b56d6c91461055c5780639ff4dea81461056f578063a1c4d1e714610577578063a765fbea146105975761030b565b80637048594b116101565780637b4ff673116101305780637b4ff6731461052157806381a10ae1146105295780638bbd9fb9146105315780638c382eb2146105445761030b565b80637048594b1461050957806371f3c1b7146105115780637b34ee7f146105195761030b565b806355f575101461049d5780635aa266c9146104c05780635ee0fe32146104d35780635f1af1ca146104db5780636ba2f992146104ee5780636cf1be29146105015761030b565b80632d5436cf1161025c5780633ee7a5ce1161021557806343e4771b116101ef57806343e4771b1461045b57806348e30c3f146104635780634f8c48471461046b57806350f49846146104955761030b565b80633ee7a5ce1461042d57806340704d671461044057806341b3eb7c146104535761030b565b80632d5436cf146103e557806333a46ca2146103ed5780633403c2fc146103f5578063360598e1146103fd578063391fe4e21461041d5780633cb6ce83146104255761030b565b80631fd00067116102c957806322f8e566116102a357806322f8e5661461039557806324e8cb8d146103a857806325ed4dd8146103bb57806329cb924d146103dd5761030b565b80631fd000671461037d57806321d4051214610385578063226112801461038d5761030b565b8062b9add7146103105780630c9229ca1461032e5780630cd77bb9146103435780630de15fd91461035857806318928a0c146103605780631c39c38d14610375575b600080fd5b6103186105f8565b60405161032591906150b0565b60405180910390f35b610336610973565b60405161032591906148ce565b61034b610979565b6040516103259190614692565b61034b610988565b61037361036e3660046144fa565b610997565b005b61034b610a74565b61034b610a83565b610336610a92565b610373610a98565b6103736103a336600461460f565b610b2e565b6103186103b6366004614462565b610ba8565b6103ce6103c936600461449a565b610caf565b604051610325939291906150d8565b61033661121a565b6103366112be565b6103186112c4565b610373611419565b61041061040b366004614627565b6114d2565b6040516103259190615066565b61033661195f565b610318611965565b61031861043b366004614592565b611c01565b61031861044e366004614592565b611cd6565b610336611e45565b610318611e4b565b610336611e79565b61047e61047936600461452f565b611e7f565b6040516103259b9a999897969594939291906146d9565b610336611f43565b6104b06104ab366004614462565b611f49565b60405161032594939291906150ba565b6103736104ce366004614592565b611f8f565b610336612140565b6103186104e9366004614592565b612146565b6103736104fc3660046145c8565b6123a9565b610336612631565b61034b612637565b610373612646565b61033661266e565b610336612674565b61031861267a565b61031861053f366004614592565b612692565b6103366126b1565b6103366126b7565b6103366126bd565b61031861056a366004614462565b6126c3565b610336612708565b61058a610585366004614462565b61270e565b60405161032591906147bf565b6103186105a5366004614627565b61286c565b61034b6129fb565b6103736105c0366004614592565b612a0a565b610373610b2c565b610336612ae5565b610336612aeb565b6103736105eb366004614592565b612af1565b610336612afe565b61060061439b565b610608612bf2565b610610611965565b50610619612c11565b610621612c3a565b61064461062e6000612b04565b6040805160208101909152601054815290612c49565b1561065657610651612c50565b516010555b61065e61439b565b604080516020810191829052600c546370a0823160e01b9092529081906001600160a01b03166370a082316106963360248501614692565b60206040518083038186803b1580156106ae57600080fd5b505afa1580156106c2573d6000803e3d6000fd5b505050506040513d601f19601f820116820180604052508101906106e6919061457a565b905290506106f261439b565b604080516020810190915260105481526107159061070f84612c82565b90612ca1565b33600090815260096020908152604080832081519283019091526003810154825292935061074d919061074790612cde565b90612b32565b156108405761075a61439b565b604080516020808201835260105482528251908101909252835482526107839161070f90612c82565b905061078d61439b565b6040805160208101909152600384015481526107a890612cde565b90506107b261439b565b6107bc8383612d01565b6107d557604051806020016040528060008152506107df565b6107df8284612d08565b90506107eb8582612b49565b3360008181526009602052604080822082815560018101839055600281018390556003018290555192975090917fcad20625296d189a6fc6e5b39d0d544e5bd99dbda0c8f2f0ecffef3e0fbcc2829190a25050505b61084861439b565b6040805160208101909152600b54815261086b9061086590612cde565b84612d2b565b9050610878600b82612d49565b6040805160208101909152600a5481529095506108959085612d08565b51600a558351855160405133907f129c54fc6fd4bd937e4a04ede027ac4ad3f9397cd943d6d354649d9d968dacbe90600090a484516001546108e4916001600160a01b03909116903390612dcf565b8351600c54610902916001600160a01b039091169033903090612e25565b600c548451604051630852cd8d60e31b81526001600160a01b03909216916342966c6891610932916004016148ce565b600060405180830381600087803b15801561094c57600080fd5b505af1158015610960573d6000803e3d6000fd5b5050505050505050610970612e4c565b90565b600a5481565b6001546001600160a01b031690565b6001546001600160a01b031681565b61099f612e61565b816109a981612e81565b6109b1611965565b506109ba612eab565b6109c2612c11565b6109ca612c3a565b6109d5826000612b32565b6109fa5760405162461bcd60e51b81526004016109f190614b74565b60405180910390fd5b6000610a0584612f63565b9050610a118184612f8b565b5082516040516001600160a01b038616907fe1fffcc4923d04b559f4d29a8bfc6cda04eb5b0d3c460751c2402c5c5cc9109c90600090a38251600154610a66916001600160a01b039091169033903090612e25565b50610a6f612e4c565b505050565b6000546001600160a01b031681565b6012546001600160a01b031681565b60055481565b610aa0612e61565b610aa8612eab565b610ab0612c11565b610ab8612c3a565b6000610ac333612f63565b9050806001015460001415610aea5760405162461bcd60e51b81526004016109f190615037565b600281015460405133907f74d8a3658feb89d1a5c335229bbbfc3bbcfaf492769feb7aa4cd2d92efeaf69190600090a3610b2381612fac565b50610b2c612e4c565b565b6000546001600160a01b0316610b4357600080fd5b60005460405163117c72b360e11b81526001600160a01b03909116906322f8e56690610b739084906004016148ce565b600060405180830381600087803b158015610b8d57600080fd5b505af1158015610ba1573d6000803e3d6000fd5b5050505050565b610bb061439b565b610bb8612c11565b610bc0612c3a565b610bc861439b565b6040805160208101918290526370a0823160e01b909152806001600160a01b0385166370a08231610bfc3060248501614692565b60206040518083038186803b158015610c1457600080fd5b505afa158015610c28573d6000803e3d6000fd5b505050506040513d601f19601f82011682018060405250810190610c4c919061457a565b90526001549091506001600160a01b0384811691161415610c8057610c79610c72612fc6565b8290612d08565b9150610c84565b8091505b6012548251610ca1916001600160a01b0386811692911690612dcf565b50610caa612e4c565b919050565b6000610cb961439b565b610cc161439b565b610cc9611965565b50610cd2612e61565b610cda612eab565b610ce2612c11565b610cea612c3a565b83610cf361121a565b1115610d115760405162461bcd60e51b81526004016109f1906149d9565b6000610d1c89612f63565b9050610d44610d3036889003880188614592565b604080516020810190915283548152612d2b565b9250610d51836000612b32565b610d6d5760405162461bcd60e51b81526004016109f190614be2565b610d7561439b565b604080516020810190915260038301548152610d9090612cde565b9050610d9a61439b565b610da46000612b04565b604080516020810190915260028501548152909150610dc39083612ff3565b15610de857604080516020810190915260028401548152610de5908390612d08565b90505b610df061439b565b50604080516020810190915283548152610e1d82610e178361070f368f90038f018f614592565b90612ffb565b610e395760405162461bcd60e51b81526004016109f190614d96565b610e5882610e52838e80360381019061070f9190614592565b90612ff3565b610e745760405162461bcd60e51b81526004016109f190614e5b565b50610e7d613003565b9350610e8761439b565b610e8f61439b565b610e9761439b565b604080516020810190915286548152610eb190899061309e565b9050610ebd8582612ca1565b9250610ec98482612ca1565b9150610ed361439b565b604080516020810190915260028801548152610eef9083612ca1565b9050610efd8f8a86846130d3565b50610f1490506014610f0f8489612b49565b6131ed565b506001600160a01b038d1660008181526013602090815260409182902080548351610160810185529485523392850192909252909a509190810160018152602001610f5d61121a565b8152602001898152602001848152602001838152602001610f86610f816001612b04565b613265565b815260200160006001600160a01b03168152602001610fa56000612b04565b815260209081018990528254600180820185556000948552938290208351600a9092020180546001600160a01b03199081166001600160a01b0393841617825592840151948101805490931694909116939093178082556040830151929392919060ff60a01b1916600160a01b83600481111561101e57fe5b021790555060608201516002820155608082015151600382015560a082015151600482015560c082015151600582015560e08201515160068201556101008201516007820180546001600160a01b0319166001600160a01b0390921691909117905561012082015151600882015561014090910151516009909101556110a261439b565b506040805160208101909152600f5481526001860154158015906110d057506110c961121a565b8660010154115b80156110e157506110e18882612ffb565b15611100576110fa600e546110f461121a565b90612bcd565b60018701555b88336001600160a01b03168f6001600160a01b03167f39b4371645b4132767fd76a1aad3108ff95c20d7b687b24d171555f5459a75978b600001518760000151876000015161114d61121a565b60405161115d949392919061511b565b60405180910390a48751600c54611183916001600160a01b039091169033903090612e25565b600c548851604051630852cd8d60e31b81526001600160a01b03909216916342966c68916111b3916004016148ce565b600060405180830381600087803b1580156111cd57600080fd5b505af11580156111e1573d6000803e3d6000fd5b5050885160015461120193506001600160a01b0316915033903090612e25565b50505050505061120f612e4c565b955095509592505050565b600080546001600160a01b0316156112b75760008054906101000a90046001600160a01b03166001600160a01b03166329cb924d6040518163ffffffff1660e01b815260040160206040518083038186803b15801561127857600080fd5b505afa15801561128c573d6000803e3d6000fd5b505050506040513d601f19601f820116820180604052508101906112b0919061457a565b9050610970565b5042610970565b60155481565b6112cc61439b565b6112d4612e61565b6112dc611965565b506112e5612eab565b6112ed612c11565b6112f5612c3a565b600061130033612f63565b90508060010154600014158015611322575061131a61121a565b816001015411155b61133e5760405162461bcd60e51b81526004016109f190614cb4565b61134661439b565b506040805160208082018352600284015482528251908101909252600383015482529061138e9061137690612cde565b60408051602081019091526002850154815290613288565b156113b1576040805160208101909152600383015481526113ae90612cde565b90505b6113bb828261328f565b92506113c682612fac565b82516001546113e2916001600160a01b03909116903390612dcf565b825160405133907fc86c3298cb79f486674dca87d9247e88b76146160e7d412cc59b26b14c358a6890600090a35050610970612e4c565b611421612e61565b611429612eab565b611431612c11565b611439612c3a565b6114416132b0565b6001600160a01b0316336001600160a01b0316146114715760405162461bcd60e51b81526004016109f190614d32565b61147961121a565b60118190556114879061334b565b336001600160a01b03167f077382e0341a6d8666d1f8ed15b8c933a01f5c1a3e6c5229e2db8c5dc1c06ae16011546040516114c291906148ce565b60405180910390a2610b2c612e4c565b6114da6143ae565b82826114e68282613382565b6114ee611965565b506114f7612eab565b6114ff612c11565b611507612c3a565b600061151385876133fc565b905061151f8686613499565b61152761439b565b60408051602081019091526006830154815261154290612cde565b905061154c61439b565b5060408051602081019091526008830154815261156761439b565b6115908361070f8461070f88600301604051806020016040529081600082015481525050612c82565b905061159a61439b565b6040805160208101909152600486015481526115b69085612ca1565b90506115c061439b565b604080516020810190915260195481526115da9084612ca1565b90506115e461439b565b604080516020810190915260185481526115fe9085612ca1565b905061160861439b565b60408051602081019091526017548152611623908590612ca1565b905061162d61439b565b604080516020810190915260098a015481526116499089612ca1565b90506116536143ae565b600360018b0154600160a01b900460ff16600481111561166f57fe5b141561176d57611689826116838786612b49565b90612b49565b60408201526116a261169b8789612d08565b8590612b49565b81526116b8856116b28987612d08565b90612d08565b602082018190526116cb90601490612d49565b608082015280516116de90601490612d49565b606082015260408101516116f490601490612d49565b60a0820181905260078b0154905160015461171d926001600160a01b0391821692911690612dcf565b6001808b01546080830151519154611745926001600160a01b03918216929190911690612dcf565b8954606082015151600154611768926001600160a01b0391821692911690612dcf565b611840565b600460018b0154600160a01b900460ff16600481111561178957fe5b14156117d95761179d826116838886612b49565b602082018190526117b090601490612d49565b608082018190526001808c015491519054611768926001600160a01b0391821692911690612dcf565b6001808b0154600160a01b900460ff1660048111156117f457fe5b1415611840576118048683612b49565b6020820181905261181790601490612d49565b608082018190526001808c015491519054611840926001600160a01b0391821692911690612dcf565b60018a0154600160a01b900460ff16600481111561185a57fe5b60808201515160a0830151516060840151518b5160405133947fb479588a37dc7f6bac1c91587fcfc539cac4949cf26bb536ad9c8d061f00f50d946118a2949193909261511b565b60405180910390a3601360008f6001600160a01b03166001600160a01b031681526020019081526020016000208f815481106118da57fe5b600091825260208220600a9091020180546001600160a01b031990811682556001820180546001600160a81b03191690556002820183905560038201839055600482018390556005820183905560068201839055600782018054909116905560088101829055600901559b50505050505050505050611957612e4c565b505092915050565b60175481565b61196d61439b565b611975612c11565b61197d612c3a565b60006119876135f2565b9050600061199361121a565b905061199d61439b565b6119a5612fc6565b90506119b281600061362b565b156119bf57505050611bf9565b8160035414156119d157505050611bf9565b6119d961439b565b6119e161439b565b6003546040516374201feb60e01b81526001600160a01b038716916374201feb91611a13919088908890600401615104565b604080518083038186803b158015611a2a57600080fd5b505afa158015611a3e573d6000803e3d6000fd5b505050506040513d601f19601f82011682018060405250810190611a6291906145e4565b60038690559092509050611a768282612b49565b9550611a8386600061362b565b15611a92575050505050611bf9565b611a9c8684613288565b15611afd57611aa961439b565b611ab38785612d08565b9050611abd61439b565b611ac78383612d2b565b9050611ad38382612d08565b9250611adf8282612d08565b9150611af5611aee8584612d2b565b8590612d08565b935084975050505b805182516040517f19b92e73d08d517d71ec46136266e4f5d526a8cd4f8501d73713cebfe4f335ef90600090a3611b348684613642565b611b3f826000612b32565b15611bc7578151600154611b60916001600160a01b03909116908790613686565b60015460405163432ce91960e11b81526001600160a01b0387811692638659d23292611b9492909116908690600401614782565b600060405180830381600087803b158015611bae57600080fd5b505af1158015611bc2573d6000803e3d6000fd5b505050505b611bd2816000612b32565b15611bf3578051600154611bf3916001600160a01b03909116903390612dcf565b50505050505b610970612e4c565b611c0961439b565b611c11612e61565b33611c1b81612e81565b611c23611965565b50611c2c612eab565b611c34612c11565b611c3c612c3a565b6000611c4733612f63565b9050611c54846000612b32565b611c705760405162461bcd60e51b81526004016109f190614b74565b611c7a818561372b565b80516040519194509033907f7fcf532c15f0a6db0bd6d0e038bea71d30d808c7d98cb3bf7268a95bf5081b6590600090a38251600154611cc7916001600160a01b03909116903390612dcf565b50611cd0612e4c565b50919050565b611cde61439b565b611ce733613771565b611cef611965565b50611cf8612c11565b611d00612c3a565b6002546040516302abf57960e61b81526000916001600160a01b03169063aafd5e4090611d2f90600401614918565b60206040518083038186803b158015611d4757600080fd5b505afa158015611d5b573d6000803e3d6000fd5b505050506040513d601f19601f82011682018060405250810190611d7f919061447e565b9050611d8961439b565b611d91612fc6565b9050611d9e84600061362b565b80611daf5750611daf81600061362b565b15611dc757611dbe6000612b04565b92505050611e3d565b611dcf61439b565b611dd98583613288565b611de35784611de5565b815b9050611df18183613642565b8051600154611e0d916001600160a01b03909116908590612dcf565b80516040517f71f3c0d1f8772dbfaaaa8cd55e5744b3dc9c2db10e703f84e12c3c81a9c6325290600090a2925050505b610caa612e4c565b60055490565b611e5361439b565b611e5b612c11565b6040805160208101909152600b548152611e7490612cde565b905090565b60165481565b60136020528160005260406000208181548110611e9857fe5b6000918252602091829020600a919091020180546001820154600283015460408051808701825260038601548152815180880183526004870154815282518089018452600588015481528351808a0185526006890154815260078901548551808c01875260088b0154815286519b8c019096526009909901548a526001600160a01b039788169b508787169a50600160a01b90960460ff16989497929691959094909391909216918b565b60145481565b6009602090815260009182526040918290208251808301845281548152600182015484518085018652600284015481528551948501909552600390920154835292909184565b611f97612e61565b33611fa181612e81565b611fa9611965565b50611fb2612eab565b611fba612c11565b611fc2612c3a565b6000611fcd33612f63565b604080516020810190915281548152909150611fea908490612ff3565b6120065760405162461bcd60e51b81526004016109f190614a7d565b61200e61439b565b6040805160208101909152825481526120279085612d08565b6040805160208101909152600f548152909150612045908290612ffb565b6120615760405162461bcd60e51b81526004016109f190614b0d565b805182556040805160208101909152600a54815261207f9085612d08565b51600a558051845160405133907f77c6871227e5d2dec8dadd5354f78453203e22e669cd0ec4c19d9a8c5edb31d090600090a48351600c546120d0916001600160a01b039091169033903090612e25565b600c548451604051630852cd8d60e31b81526001600160a01b03909216916342966c6891612100916004016148ce565b600060405180830381600087803b15801561211a57600080fd5b505af115801561212e573d6000803e3d6000fd5b50505050505061213c612e4c565b5050565b60195481565b61214e61439b565b612156612e61565b3361216081612e81565b612168611965565b50612171612eab565b612179612c11565b612181612c3a565b600061218c33612f63565b6040805160208101909152815481529091506121a9908590612ff3565b6121c55760405162461bcd60e51b81526004016109f190614a7d565b6121cd61439b565b6040805160208101909152825481526121e790869061309e565b90506121f161439b565b6040805160208101909152600384015481526122179061221090612cde565b8390612ca1565b6040805160208101909152845481529091506122339087612c49565b15612248576122413361381f565b94506122d3565b612252838261328f565b945061225c61439b565b6040805160208101909152845481526122759088612d08565b6040805160208101909152600f548152909150612293908290612ffb565b6122af5760405162461bcd60e51b81526004016109f190614b0d565b805184556040805160208101909152600a5481526122cd9088612d08565b51600a55505b8551855160405133907fe5b754fb1abb7f01b499791d0b820ae3b6af3424ac1c59768edb53f4ec31a92990600090a4845160015461231e916001600160a01b03909116903390612dcf565b8551600c5461233c916001600160a01b039091169033903090612e25565b600c548651604051630852cd8d60e31b81526001600160a01b03909216916342966c689161236c916004016148ce565b600060405180830381600087803b15801561238657600080fd5b505af115801561239a573d6000803e3d6000fd5b50505050505050611cd0612e4c565b6123b1612e61565b6123b9611965565b506123c2612eab565b6123ca612c11565b6123d2612c3a565b336000908152600960209081526040918290208251918201909252600382015481526124259061240790859061168390612cde565b6040805160208101909152835481526124209085612b49565b613928565b8061243557506124358383613928565b6124515760405162461bcd60e51b81526004016109f190614e2a565b6001810154156124735760405162461bcd60e51b81526004016109f190614c88565b60408051602081019091528154815261248d90600061362b565b156124f5576040805160208101909152600f5481526124ad908390612ffb565b6124c95760405162461bcd60e51b81526004016109f190614b0d565b60405133907ff60993fa76f94c9e0a803526ee6e1314814ed4d2b0d223febf1436b36897fb3790600090a25b6124ff8184612f8b565b506040805160208101909152815481526125199083612b49565b5181556040805160208101909152600a5481526125369083612b49565b51600a558151835160405133907f4b82aa16e071a61de1a6b9aeec9edab0356331f8122c78683b469ac8e685dabc90600090a48251600154612587916001600160a01b039091169033903090612e25565b600c5482516040516340c10f1960e01b81526001600160a01b03909216916340c10f19916125ba913391906004016146a6565b602060405180830381600087803b1580156125d457600080fd5b505af11580156125e8573d6000803e3d6000fd5b505050506040513d601f19601f8201168201806040525081019061260c919061455a565b6126285760405162461bcd60e51b81526004016109f190614d5f565b5061213c612e4c565b60115481565b600c546001600160a01b031681565b61264e612e61565b612656612eab565b61265e612c11565b612666612c3a565b610b2c612e4c565b60105481565b60085481565b61268261439b565b61268a612c11565b611e74612fc6565b61269a61439b565b6126a2612c11565b6126ab82612c82565b92915050565b600b5481565b600f5481565b600d5481565b6126cb61439b565b6126d3612c11565b6001600160a01b038216600090815260096020908152604091829020825191820190925260039091015481526126ab90612cde565b600e5481565b6060612718612c11565b6001600160a01b038216600090815260136020908152604080832080548251818502810185019093528083529193909284015b828210156128615760008481526020908190206040805161016081018252600a860290920180546001600160a01b039081168452600182015490811694840194909452919290830190600160a01b900460ff1660048111156127a957fe5b60048111156127b457fe5b8152600282015460208083019190915260408051808301825260038501548152818401528051808301825260048501548152606084015280518083018252600585015481526080840152805180830182526006850154815260a084015260078401546001600160a01b031660c0840152805180830182526008850154815260e08401528051808301909152600990930154835261010090910191909152908252600192909201910161274b565b505050509050919050565b61287461439b565b8282612880828261398e565b612888611965565b50612891612eab565b612899612c11565b6128a1612c3a565b60006128ad85876133fc565b90506128b761439b565b6040805160208101909152600683015481526128ff906128d690612cde565b6040805160208082018352601754825282519081019092526004860154825261070f9190612ca1565b905061290c6014826131ed565b5060018201805460ff60a01b1916600160a11b1790556007820180546001600160a01b0319163317905560028201546129449061334b565b6001820154815160405133926001600160a01b0390811692908a16917fcaca181ccad7979cf36ed4fc921e496001ab5264608f0fac7007ae1b43d361029161298e918d91906148d7565b60405180910390a46040805160208101909152600983015481526129b3908290612b49565b6040805160208101909152600984015481529095506129d39033906139ee565b80516001546129f1916001600160a01b039091169033903090612e25565b5050611957612e4c565b6002546001600160a01b031681565b612a12612e61565b33612a1c81612e81565b612a24612eab565b612a2c612c11565b612a34612c3a565b6000612a3f33612f63565b9050612a4c836000612b32565b8015612a795750604080516020810190915260038201548152612a7990612a7290612cde565b8490612ff3565b612a955760405162461bcd60e51b81526004016109f190614b74565b612aa3600e546110f461121a565b600182015582516002820181905560405133907fd33b726e11d2c5d38e6702b16613df0160a07f7ba5185455ee3c45d0494fab1190600090a35061213c612e4c565b60185481565b60075481565b612afb3382610997565b50565b60045481565b612b0c61439b565b604080516020810190915280612b2a84670de0b6b3a7640000612b8c565b905292915050565b6000612b3d82612b04565b51835111905092915050565b612b5161439b565b6040805160208101909152825184518291612b6c9190612bcd565b90529392505050565b6000612b8082612b04565b51835110905092915050565b600082612b9b575060006126ab565b82820282848281612ba857fe5b0414612bc65760405162461bcd60e51b81526004016109f190614c47565b9392505050565b600082820183811015612bc65760405162461bcd60e51b81526004016109f1906149a2565b601154610b2c5760405162461bcd60e51b81526004016109f190614eda565b600054600160a01b900460ff16610b2c5760405162461bcd60e51b81526004016109f190614f5b565b6000805460ff60a01b19169055565b5190511490565b612c5861439b565b601154612c775760405162461bcd60e51b81526004016109f190614f92565b611e74601154613b37565b612c8a61439b565b604080516020810190915260085481526126ab9083905b612ca961439b565b6040805160208101909152825184518291670de0b6b3a764000091612ccd91612b8c565b81612cd457fe5b0490529392505050565b612ce661439b565b604080516020810190915260045481526126ab908390612ca1565b5190511090565b612d1061439b565b6040805160208101909152825184518291612b6c9190613c8d565b612d3361439b565b8151835110612d425781612bc6565b5090919050565b612d5161439b565b612d5961439b565b604080516020810190915284548152612d7190612cde565b9050612d7b61439b565b612d8484613265565b604080516020810190915286548152909150612da09082612d08565b518086556040805160208101909152908152612dc690612dbf90612cde565b8390612d08565b95945050505050565b610a6f8363a9059cbb60e01b8484604051602401612dee9291906146a6565b60408051601f198184030181529190526020810180516001600160e01b03166001600160e01b031990931692909217909152613ccf565b612e46846323b872dd60e01b858585604051602401612dee9392919061475e565b50505050565b6000805460ff60a01b1916600160a01b179055565b60115415610b2c5760405162461bcd60e51b81526004016109f190614dcd565b612e8a81612f63565b6001015415612afb5760405162461bcd60e51b81526004016109f190614c88565b6000612eb561121a565b90506000612ece60075483613c8d90919063ffffffff16565b9050612ed861439b565b612ee0613db4565b9050612eea61439b565b612f0b83612ef6613db4565b60408051602081019091526008548152613e3f565b905160088190558351600754835160405194955091938793927f85626a4cfe9721bff91d77d9aebdab162813c94d50d297243967db6866ac9fb692612f539290918b916150ee565b60405180910390a4505050600755565b600081612f6f81613ec8565b50506001600160a01b0316600090815260096020526040902090565b612f9361439b565b612fa083600301836131ed565b50612bc6600b836131ed565b612fb66000612b04565b5160028201556000600190910155565b612fce61439b565b60408051602081019091526014548152611e7490612feb90612cde565b611683613f1b565b519051111590565b519051101590565b61300b61439b565b60006130156135f2565b600154604051635b97aadd60e01b81529192506001600160a01b0380841692635b97aadd92613048921690600401614692565b60206040518083038186803b15801561306057600080fd5b505afa158015613074573d6000803e3d6000fd5b505050506040513d601f19601f8201168201806040525081019061309891906145ad565b91505090565b6130a661439b565b6040805160208101909152825184518291612b6c916130cd90670de0b6b3a7640000612b8c565b90613f23565b60006130de85612f63565b6040805160208101909152815481529091506130fb908590612c49565b8015613129575060408051602081019091526003820154815261312990849061312390612cde565b90612c49565b1561313e576131378561381f565b5050612e46565b613148818461328f565b506040805160208101909152815481526131629085612d08565b518082556040805160208082018352600f548252825190810190925291815261318a91612ffb565b6131a65760405162461bcd60e51b81526004016109f190614b0d565b6040805160208101909152600282015481526131c29083612d08565b5160028201556040805160208101909152600a5481526131e29085612d08565b51600a555050505050565b6131f561439b565b6131fd61439b565b60408051602081019091528454815261321590612cde565b905061321f61439b565b61322884613265565b6040805160208101909152865481529091506132449082612b49565b518086556040805160208101909152908152612dc69083906116b290612cde565b61326d61439b565b604080516020810190915260045481526126ab90839061309e565b5190511190565b61329761439b565b6132a48360030183612d49565b50612bc6600b83612d49565b6002546040516302abf57960e61b81526000916001600160a01b03169063aafd5e40906132fb90762334b730b731b4b0b621b7b73a3930b1ba39a0b236b4b760491b906004016148ce565b60206040518083038186803b15801561331357600080fd5b505afa158015613327573d6000803e3d6000fd5b505050506040513d601f19601f82011682018060405250810190611e74919061447e565b613353613f65565b6001600160a01b03166368ad8ae3600d54836040518363ffffffff1660e01b8152600401610b739291906148d7565b600061338e82846133fc565b600181810154919250600160a01b90910460ff16908160048111156133af57fe5b11806133e057506133be61121a565b6133c783613f9f565b111580156133e0575060018160048111156133de57fe5b145b612e465760405162461bcd60e51b81526004016109f190614934565b6001600160a01b038216600090815260136020526040812080548310801561345a5750600081848154811061342d57fe5b90600052602060002090600a020160010160149054906101000a900460ff16600481111561345757fe5b14155b6134765760405162461bcd60e51b81526004016109f190614b44565b80838154811061348257fe5b90600052602060002090600a020191505092915050565b60006134a582846133fc565b905060026001820154600160a01b900460ff1660048111156134c357fe5b146134ce575061213c565b6134db8160020154613b37565b5160088201556134e961439b565b6040805160208082018352600885015482528251908101909252600384015482526135179161070f90612c82565b905061352161439b565b6040805160208101909152601654815261353c908390612ca1565b60408051602081019091526005850154815290915060009061355e9083612ffb565b90508061356c57600461356f565b60035b60018501805460ff60a01b1916600160a01b83600481111561358d57fe5b0217905550600184015460078501546040516001600160a01b03928316928881169233927f6c5582199868fabbe697f9ea10abe481bacf53ac78c02a965b34dff82fd20e3b926135e29216908c90889061479c565b60405180910390a4505050505050565b6002546040516302abf57960e61b81526000916001600160a01b03169063aafd5e40906132fb906453746f726560d81b906004016148ce565b600061363682612b04565b51835114905092915050565b61364a61439b565b6136548383613fba565b905061367d613667826116b26001612b04565b6040805160208101909152600454815290612ca1565b51600455505050565b600061370a82856001600160a01b031663dd62ed3e30876040518363ffffffff1660e01b81526004016136ba9291906146bf565b60206040518083038186803b1580156136d257600080fd5b505afa1580156136e6573d6000803e3d6000fd5b505050506040513d601f19601f820116820180604052508101906110f4919061457a565b9050612e468463095ea7b360e01b8584604051602401612dee9291906146a6565b61373361439b565b6137408360030183612d49565b5061374a83614044565b6137665760405162461bcd60e51b81526004016109f190614e04565b612bc6600b83612d49565b6002546040516302abf57960e61b81526001600160a01b039091169063aafd5e409061379f90600401614918565b60206040518083038186803b1580156137b757600080fd5b505afa1580156137cb573d6000803e3d6000fd5b505050506040513d601f19601f820116820180604052508101906137ef919061447e565b6001600160a01b0316816001600160a01b031614612afb5760405162461bcd60e51b81526004016109f19061496b565b61382761439b565b600061383283612f63565b905061383c61439b565b6040805160208101909152600b54815261385590612cde565b6040805160208082018352600386015482528251908101909252600b54825291925061388091612d08565b51600b556040805160208082018352845482528251908101909252600a5482526138aa9190612d08565b51600a556001600160a01b0384166000818152600960205260408082208281556001810183905560028101839055600301829055517fcad20625296d189a6fc6e5b39d0d544e5bd99dbda0c8f2f0ecffef3e0fbcc2829190a26040805160208101909152600b54815261392090610c7290612cde565b949350505050565b600061393261439b565b6040805160208101909152600b5481526139649061394f90612cde565b6040805160208101909152600a54815261407a565b905061396e61439b565b613978858561407a565b90506139848282613288565b1595945050505050565b600061399a82846133fc565b90506139a581613f9f565b6139ad61121a565b1080156139d25750600180820154600160a01b900460ff1660048111156139d057fe5b145b610a6f5760405162461bcd60e51b81526004016109f190614c10565b6139f981600061362b565b15613a035761213c565b6001600160a01b0382163014613a36578051600154613a31916001600160a01b039091169084903090612e25565b613a7a565b613a3e61439b565b613a46612fc6565b9050613a528183613288565b613a6e5760405162461bcd60e51b81526004016109f190615000565b613a788282613642565b505b80516040517f4f9bf7e8cd0f2456f9c43d2597bedcf1446c9c64544053f1ece6423ae9a07e5290600090a26000613aaf6135f2565b8251600154919250613acc916001600160a01b0316908390613686565b60015460405163432ce91960e11b81526001600160a01b0383811692638659d23292613b0092909116908690600401614782565b600060405180830381600087803b158015613b1a57600080fd5b505af1158015613b2e573d6000803e3d6000fd5b50505050505050565b613b3f61439b565b6000613b49613f65565b600d5460405163501f440d60e11b81529192506001600160a01b0383169163a03e881a91613b7b9187906004016148d7565b60206040518083038186803b158015613b9357600080fd5b505afa158015613ba7573d6000803e3d6000fd5b505050506040513d601f19601f82011682018060405250810190613bcb919061455a565b613be75760405162461bcd60e51b81526004016109f190614adc565b600d54604051636494078360e11b81526000916001600160a01b0384169163c9280f0691613c199188906004016148d7565b60206040518083038186803b158015613c3157600080fd5b505afa158015613c45573d6000803e3d6000fd5b505050506040513d601f19601f82011682018060405250810190613c69919061457a565b90506000811215613c78575060005b60408051602081019091529081529392505050565b6000612bc683836040518060400160405280601e81526020017f536166654d6174683a207375627472616374696f6e206f766572666c6f7700008152506140aa565b613ce1826001600160a01b03166140d6565b613cfd5760405162461bcd60e51b81526004016109f190614fc9565b60006060836001600160a01b031683604051613d199190614676565b6000604051808303816000865af19150503d8060008114613d56576040519150601f19603f3d011682016040523d82523d6000602084013e613d5b565b606091505b509150915081613d7d5760405162461bcd60e51b81526004016109f190614a48565b805115612e465780806020019051810190613d98919061455a565b612e465760405162461bcd60e51b81526004016109f190614f11565b613dbc61439b565b613dc461410f565b6001600160a01b03166324b41f68306040518263ffffffff1660e01b8152600401613def9190614692565b60206040518083038186803b158015613e0757600080fd5b505afa158015613e1b573d6000803e3d6000fd5b505050506040513d601f19601f82011682018060405250810190611e74919061443d565b613e4761439b565b613e4f61439b565b613e5761439b565b613e61600161413e565b9050613e76613e6f87614164565b869061418d565b9150613e8061439b565b613e8a82846141ae565b9050613e9461439b565b613eaf613eaa83613ea5600061413e565b6141d1565b6141e8565b9050613ebb8682612ca1565b9450505050935093915050565b6001600160a01b03811660009081526009602090815260408083208151928301909152600301548152613eff919061074790612cde565b612afb5760405162461bcd60e51b81526004016109f190614bab565b611e5b61439b565b6000612bc683836040518060400160405280601a81526020017f536166654d6174683a206469766973696f6e206279207a65726f000000000000815250614225565b6002546040516302abf57960e61b81526000916001600160a01b03169063aafd5e40906132fb90654f7261636c6560d01b906004016148ce565b60006126ab6015548360020154612bcd90919063ffffffff16565b613fc261439b565b8251600090613fd990670de0b6b3a7640000612b8c565b8351909150600090613fec908390613f23565b8451909150600090613fff90849061425c565b9050801561402b5760408051602081019091528061401e846001612bcd565b81525093505050506126ab565b60405180602001604052808381525093505050506126ab565b6040805160208101909152600382015481526000906126ab9061406690612cde565b604080516020810190915284548152613928565b61408261439b565b61408d82600061429e565b6140a05761409b838361309e565b612bc6565b612bc66000612b04565b600081848411156140ce5760405162461bcd60e51b81526004016109f191906148e5565b505050900390565b6000813f7fc5d2460186f7233c927e7db2dcc703c0e500b653ca82273b7bfad8045d85a470818114801590613920575050151592915050565b6006546040516302abf57960e61b81526000916001600160a01b03169063aafd5e40906132fb90600401614918565b61414661439b565b604080516020810190915280612b2a84670de0b6b3a76400006142b6565b6000600160ff1b82106141895760405162461bcd60e51b81526004016109f190614e92565b5090565b61419561439b565b604080516020810190915283518190612b6c90856142b6565b6141b661439b565b6040805160208101909152825184518291612b6c9190614321565b6141d961439b565b8151835113612d425781612bc6565b6141f061439b565b8151600013156142125760405162461bcd60e51b81526004016109f190614aab565b5060408051602081019091529051815290565b600081836142465760405162461bcd60e51b81526004016109f191906148e5565b50600083858161425257fe5b0495945050505050565b6000612bc683836040518060400160405280601881526020017f536166654d6174683a206d6f64756c6f206279207a65726f0000000000000000815250614367565b60006142a982612b04565b5183511115905092915050565b6000826142c5575060006126ab565b826000191480156142d95750600160ff1b82145b156142f65760405162461bcd60e51b81526004016109f190614ceb565b8282028284828161430357fe5b0514612bc65760405162461bcd60e51b81526004016109f190614ceb565b60008282018183128015906143365750838112155b8061434b575060008312801561434b57508381125b612bc65760405162461bcd60e51b81526004016109f190614a07565b600081836143885760405162461bcd60e51b81526004016109f191906148e5565b5082848161439257fe5b06949350505050565b6040518060200160405280600081525090565b6040518060c001604052806143c161439b565b81526020016143ce61439b565b81526020016143db61439b565b81526020016143e861439b565b81526020016143f561439b565b815260200161440261439b565b905290565b600060208284031215611cd0578081fd5b600060208284031215614429578081fd5b6144336020615136565b9135825250919050565b60006020828403121561444e578081fd5b6144586020615136565b9151825250919050565b600060208284031215614473578081fd5b8135612bc681615189565b60006020828403121561448f578081fd5b8151612bc681615189565b600080600080600060a086880312156144b1578081fd5b85356144bc81615189565b94506144cb8760208801614407565b93506144da8760408801614407565b92506144e98760608801614407565b949793965091946080013592915050565b6000806040838503121561450c578182fd5b823561451781615189565b91506145268460208501614418565b90509250929050565b60008060408385031215614541578182fd5b823561454c81615189565b946020939093013593505050565b60006020828403121561456b578081fd5b81518015158114612bc6578182fd5b60006020828403121561458b578081fd5b5051919050565b6000602082840312156145a3578081fd5b612bc68383614418565b6000602082840312156145be578081fd5b612bc6838361443d565b600080604083850312156145da578182fd5b6145178484614418565b600080604083850312156145f6578182fd5b614600848461443d565b9150614526846020850161443d565b600060208284031215614620578081fd5b5035919050565b60008060408385031215614639578182fd5b82359150602083013561464b81615189565b809150509250929050565b6001600160a01b03169052565b6005811061466d57fe5b9052565b519052565b6000825161468881846020870161515d565b9190910192915050565b6001600160a01b0391909116815260200190565b6001600160a01b03929092168252602082015260400190565b6001600160a01b0392831681529116602082015260400190565b6001600160a01b038c811682528b166020820152610160810160058b106146fc57fe5b8a604083015289606083015288516080830152875160a0830152865160c0830152855160e0830152614732610100830186614656565b614740610120830185614671565b61474e610140830184614671565b9c9b505050505050505050505050565b6001600160a01b039384168152919092166020820152604081019190915260600190565b6001600160a01b0392909216825251602082015260400190565b6001600160a01b0393909316835260208301919091521515604082015260600190565b602080825282518282018190526000919060409081850190868401855b828110156148c15781516147f1858251614656565b8681015161480188870182614656565b508581015161481287870182614663565b506060818101519086015260808082015161482f82880182614671565b505060a08082015161484382880182614671565b505060c08082015161485782880182614671565b505060e08082015161486b82880182614671565b50506101008082015161488082880182614656565b50506101208082015161489582880182614671565b505061014090810151906148ab86820183614671565b50506101609390930192908501906001016147dc565b5091979650505050505050565b90815260200190565b918252602082015260400190565b600060208252825180602084015261490481604085016020870161515d565b601f01601f19169190910160400192915050565b6f46756e64696e675261746553746f726560801b815260200190565b6020808252601c908201527f4c69717569646174696f6e206e6f7420776974686472617761626c6500000000604082015260600190565b6020808252601d908201527f43616c6c6572206e6f742066756e64696e6720726174652073746f7265000000604082015260600190565b6020808252601b908201527f536166654d6174683a206164646974696f6e206f766572666c6f770000000000604082015260600190565b6020808252601490820152734d696e656420616674657220646561646c696e6560601b604082015260600190565b60208082526021908201527f5369676e6564536166654d6174683a206164646974696f6e206f766572666c6f6040820152607760f81b606082015260800190565b6020808252818101527f5361666545524332303a206c6f772d6c6576656c2063616c6c206661696c6564604082015260600190565b602080825260149082015273125b9d985b1a59081d1bdad95b88185b5bdd5b9d60621b604082015260600190565b602080825260179082015276139959d85d1a5d99481d985b1d59481c1c9bdd9a591959604a1b604082015260600190565b602080825260179082015276556e7265736f6c766564206f7261636c6520707269636560481b604082015260600190565b6020808252601e908201527f42656c6f77206d696e696d756d2073706f6e736f7220706f736974696f6e0000604082015260600190565b602080825260169082015275125b9d985b1a59081b1a5c5d5a59185d1a5bdb88125160521b604082015260600190565b60208082526019908201527f496e76616c696420636f6c6c61746572616c20616d6f756e7400000000000000604082015260600190565b6020808252601a908201527f506f736974696f6e20686173206e6f20636f6c6c61746572616c000000000000604082015260600190565b6020808252601490820152734c69717569646174696e67203020746f6b656e7360601b604082015260600190565b6020808252601a908201527f4c69717569646174696f6e206e6f742064697370757461626c65000000000000604082015260600190565b60208082526021908201527f536166654d6174683a206d756c7469706c69636174696f6e206f766572666c6f6040820152607760f81b606082015260800190565b60208082526012908201527114195b991a5b99c81dda5d1a191c985dd85b60721b604082015260600190565b60208082526018908201527f496e76616c696420776974686472617720726571756573740000000000000000604082015260600190565b60208082526027908201527f5369676e6564536166654d6174683a206d756c7469706c69636174696f6e206f604082015266766572666c6f7760c81b606082015260800190565b60208082526013908201527221b0b63632b9103737ba1023b7bb32b93737b960691b604082015260600190565b6020808252601f908201527f4d696e74696e672073796e74686574696320746f6b656e73206661696c656400604082015260600190565b6020808252601e908201527f4352206973206d6f7265207468616e206d6178206c69712e2070726963650000604082015260600190565b6020808252601b908201527f436f6e747261637420656d657267656e63792073687574646f776e0000000000604082015260600190565b6020808252600c908201526b21a9103132b637bb9023a1a960a11b604082015260600190565b602080825260179082015276125b9cdd59999a58da595b9d0818dbdb1b185d195c985b604a1b604082015260600190565b6020808252601e908201527f4352206973206c657373207468616e206d696e206c69712e2070726963650000604082015260600190565b60208082526028908201527f53616665436173743a2076616c756520646f65736e27742066697420696e2061604082015267371034b73a191a9b60c11b606082015260800190565b6020808252601f908201527f436f6e7472616374206e6f7420656d657267656e63792073687574646f776e00604082015260600190565b6020808252602a908201527f5361666545524332303a204552433230206f7065726174696f6e20646964206e6040820152691bdd081cdd58d8d9595960b21b606082015260800190565b6020808252601f908201527f5265656e7472616e637947756172643a207265656e7472616e742063616c6c00604082015260600190565b60208082526019908201527f4e6f2073687574646f776e2074696d657374616d702073657400000000000000604082015260600190565b6020808252601f908201527f5361666545524332303a2063616c6c20746f206e6f6e2d636f6e747261637400604082015260600190565b6020808252601a908201527f46696e616c20666565206973206d6f7265207468616e20506643000000000000604082015260600190565b602080825260159082015274139bc81c195b991a5b99c81dda5d1a191c985dd85b605a1b604082015260600190565b600060c0820190508251518252602083015151602083015260408301515160408301526060830151516060830152608083015151608083015260a08301515160a083015292915050565b9051815260200190565b93518452602084019290925251604083015251606082015260800190565b9283529051602083015251604082015260600190565b9283526020830191909152604082015260600190565b928352602083019190915251604082015260600190565b93845260208401929092526040830152606082015260800190565b60405181810167ffffffffffffffff8111828210171561515557600080fd5b604052919050565b60005b83811015615178578181015183820152602001615160565b83811115612e465750506000910152565b6001600160a01b0381168114612afb57600080fdfea2646970667358221220dc194816d46a7101fa8da3256cf3815be5936de25d0577be461d5dca0e2f40b964736f6c634300060c0033",
  "immutableReferences": {},
  "source": "// SPDX-License-Identifier: AGPL-3.0-only\npragma solidity ^0.6.0;\npragma experimental ABIEncoderV2;\n\nimport \"./PerpetualLiquidatable.sol\";\n\n/**\n * @title Perpetual Multiparty Contract.\n * @notice Convenient wrapper for Liquidatable.\n */\ncontract Perpetual is PerpetualLiquidatable {\n    /**\n     * @notice Constructs the Perpetual contract.\n     * @param params struct to define input parameters for construction of Liquidatable. Some params\n     * are fed directly into the PositionManager's constructor within the inheritance tree.\n     */\n    constructor(ConstructorParams memory params)\n        public\n        PerpetualLiquidatable(params)\n    // Note: since there is no logic here, there is no need to add a re-entrancy guard.\n    {\n\n    }\n}\n",
  "sourcePath": "/Users/chris/temp/protocol/packages/core/contracts/financial-templates/perpetual-multiparty/Perpetual.sol",
  "compiler": {
    "name": "solc",
    "version": "0.6.12+commit.27d51765.Emscripten.clang"
  },
  "schemaVersion": "3.2.3",
  "updatedAt": "2020-12-22T06:11:33.800Z",
  "devdoc": {
    "kind": "dev",
    "methods": {
      "constructor": {
        "params": {
          "params": "struct to define input parameters for construction of Liquidatable. Some params are fed directly into the PositionManager's constructor within the inheritance tree."
        }
      },
      "create((uint256),(uint256))": {
        "details": "This contract must have the Minter role for the `tokenCurrency`.Reverts if minting these tokens would put the position's collateralization ratio below the global collateralization ratio. This contract must be approved to spend at least `collateralAmount` of `collateralCurrency`.",
        "params": {
          "collateralAmount": "is the number of collateral tokens to collateralize the position with",
          "numTokens": "is the number of tokens to mint from the position."
        }
      },
      "createLiquidation(address,(uint256),(uint256),(uint256),uint256)": {
        "details": "This method generates an ID that will uniquely identify liquidation for the sponsor. This contract must be approved to spend at least `tokensLiquidated` of `tokenCurrency` and at least `finalFeeBond` of `collateralCurrency`.This contract must have the Burner role for the `tokenCurrency`.",
        "params": {
          "deadline": "abort the liquidation if the transaction is mined after this timestamp.",
          "maxCollateralPerToken": "abort the liquidation if the position's collateral per token exceeds this value.",
          "maxTokensToLiquidate": "max number of tokens to liquidate.",
          "minCollateralPerToken": "abort the liquidation if the position's collateral per token is below this value.",
          "sponsor": "address of the sponsor to liquidate."
        },
        "returns": {
          "finalFeeBond": "amount of collateral to be posted by liquidator and returned if not disputed successfully.",
          "liquidationId": "ID of the newly created liquidation.",
          "tokensLiquidated": "amount of synthetic tokens removed and liquidated from the `sponsor`'s position."
        }
      },
      "deposit((uint256))": {
        "details": "Increases the collateralization level of a position after creation. This contract must be approved to spend at least `collateralAmount` of `collateralCurrency`.",
        "params": {
          "collateralAmount": "total amount of collateral tokens to be sent to the sponsor's position."
        }
      },
      "depositTo(address,(uint256))": {
        "details": "Increases the collateralization level of a position after creation. This contract must be approved to spend at least `collateralAmount` of `collateralCurrency`.",
        "params": {
          "collateralAmount": "total amount of collateral tokens to be sent to the sponsor's position.",
          "sponsor": "the sponsor to credit the deposit to."
        }
      },
      "dispute(uint256,address)": {
        "details": "Can only dispute a liquidation before the liquidation expires and if there are no other pending disputes. This contract must be approved to spend at least the dispute bond amount of `collateralCurrency`. This dispute bond amount is calculated from `disputeBondPct` times the collateral in the liquidation.",
        "params": {
          "liquidationId": "of the disputed liquidation.",
          "sponsor": "the address of the sponsor whose liquidation is being disputed."
        },
        "returns": {
          "totalPaid": "amount of collateral charged to disputer (i.e. final fee bond + dispute bond)."
        }
      },
      "emergencyShutdown()": {
        "details": "Only the governor can call this function as they are permissioned within the `FinancialContractAdmin`. Upon emergency shutdown, the contract settlement time is set to the shutdown time. This enables withdrawal to occur via the `settleEmergencyShutdown` function."
      },
      "getCollateral(address)": {
        "details": "This is necessary because the struct returned by the positions() method shows rawCollateral, which isn't a user-readable value.TODO: This method does not account for any pending regular fees that have not yet been withdrawn from this contract, for example if the `lastPaymentTime != currentTime`. Future work should be to add logic to this method to account for any such pending fees.",
        "params": {
          "sponsor": "address whose collateral amount is retrieved."
        },
        "returns": {
          "collateralAmount": "amount of collateral within a sponsors position."
        }
      },
      "getCurrentTime()": {
        "returns": {
          "_0": "uint for the current Testable timestamp."
        }
      },
      "getLiquidations(address)": {
        "params": {
          "sponsor": "address of the position sponsor."
        },
        "returns": {
          "liquidationData": "array of all liquidation information for the given sponsor address."
        }
      },
      "payRegularFees()": {
        "details": "These must be paid periodically for the life of the contract. If the contract has not paid its regular fee in a week or more then a late penalty is applied which is sent to the caller. If the amount of fees owed are greater than the pfc, then this will pay as much as possible from the available collateral. An event is only fired if the fees charged are greater than 0.",
        "returns": {
          "totalPaid": "Amount of collateral that the contract paid (sum of the amount paid to the Store and caller). This returns 0 and exit early if there is no pfc, fees were already paid during the current block, or the fee rate is 0."
        }
      },
      "pfc()": {
        "details": "This is equivalent to the collateral pool available from which to pay fees. Therefore, derived contracts are expected to implement this so that pay-fee methods can correctly compute the owed fees as a % of PfC.",
        "returns": {
          "_0": "pfc value for equal to the current profit from corruption denominated in collateral currency."
        }
      },
      "redeem((uint256))": {
        "details": "Can only be called by a token sponsor. Might not redeem the full proportional amount of collateral in order to account for precision loss. This contract must be approved to spend at least `numTokens` of `tokenCurrency`.This contract must have the Burner role for the `tokenCurrency`.",
        "params": {
          "numTokens": "is the number of tokens to be burnt for a commensurate amount of collateral."
        },
        "returns": {
          "amountWithdrawn": "The actual amount of collateral withdrawn."
        }
      },
      "remargin()": {
        "details": "This is supposed to be implemented by any contract that inherits `AdministrateeInterface` and callable only by the Governor contract. This method is therefore minimally implemented in this contract and does nothing."
      },
      "repay((uint256))": {
        "details": "Can only be called by token sponsor. This contract must be approved to spend `numTokens` of `tokenCurrency`.This contract must have the Burner role for the `tokenCurrency`.",
        "params": {
          "numTokens": "is the number of tokens to be burnt for a commensurate amount of collateral."
        }
      },
      "requestWithdrawal((uint256))": {
        "details": "The request will be pending for `withdrawalLiveness`, during which the position can be liquidated.",
        "params": {
          "collateralAmount": "the amount of collateral requested to withdraw"
        }
      },
      "setCurrentTime(uint256)": {
        "details": "Will revert if not running in test mode.",
        "params": {
          "time": "timestamp to set current Testable time to."
        }
      },
      "settleEmergencyShutdown()": {
        "details": "This burns all tokens from the caller of `tokenCurrency` and sends back the resolved settlement value of `collateralCurrency`. Might not redeem the full proportional amount of collateral in order to account for precision loss. This contract must be approved to spend `tokenCurrency` at least up to the caller's full balance.This contract must have the Burner role for the `tokenCurrency`.Note that this function does not call the updateFundingRate modifier to update the funding rate as this function is only called after an emergency shutdown & there should be no funding rate updates after the shutdown.",
        "returns": {
          "amountWithdrawn": "The actual amount of collateral withdrawn."
        }
      },
      "totalPositionCollateral()": {
        "returns": {
          "totalCollateral": "amount of all collateral within the position manager."
        }
      },
      "trimExcess(address)": {
        "details": "This will drain down to the amount of tracked collateral and drain the full balance of any other token.",
        "params": {
          "token": "address of the ERC20 token whose excess balance should be drained."
        }
      },
      "withdraw((uint256))": {
        "details": "Reverts if the withdrawal puts this position's collateralization ratio below the global collateralization ratio. In that case, use `requestWithdrawal`. Might not withdraw the full requested amount to account for precision loss.",
        "params": {
          "collateralAmount": "is the amount of collateral to withdraw."
        },
        "returns": {
          "amountWithdrawn": "The actual amount of collateral withdrawn."
        }
      },
      "withdrawFundingRateFees((uint256))": {
        "details": "Callable only by the FundingRateStore. This should never revert. Note that regular fees are withdrawn before any funding rate fees. This means that if the caller intended to withdraw funding rate fees as a % of this contract's PfC, then the effective % could be slightly less if any regular fees had not been withdrawn yet. The caller should be aware that the value of `pfc()` before this call could be slightly higher than the one during this call, prior to withdrawing any funding rate fees, due solely to regular fees.",
        "params": {
          "amount": "Amount of fees to pay to FundingRateStore."
        },
        "returns": {
          "_0": "actual amount of fees withdrawn, which can be less than `amount` if regular fees were assessed."
        }
      },
      "withdrawLiquidation(uint256,address)": {
        "details": "If the dispute SUCCEEDED: the sponsor, liquidator, and disputer are eligible for payment. If the dispute FAILED: only the liquidator receives payment. This method deletes the liquidation data. This method will revert if rewards have already been dispersed.",
        "params": {
          "liquidationId": "uniquely identifies the sponsor's liquidation.",
          "sponsor": "address of the sponsor associated with the liquidation."
        },
        "returns": {
          "_0": "data about rewards paid out."
        }
      },
      "withdrawPassedRequest()": {
        "details": "Might not withdraw the full requested amount in order to account for precision loss or if the full requested amount exceeds the collateral in the position (due to paying fees).",
        "returns": {
          "amountWithdrawn": "The actual amount of collateral withdrawn."
        }
      }
    },
    "title": "Perpetual Multiparty Contract.",
    "version": 1
  },
  "userdoc": {
    "kind": "user",
    "methods": {
      "cancelWithdrawal()": {
        "notice": "Cancels a pending withdrawal request."
      },
      "constructor": "Constructs the Perpetual contract.",
      "create((uint256),(uint256))": {
        "notice": "Creates tokens by creating a new position or by augmenting an existing position. Pulls `collateralAmount ` into the sponsor's position and mints `numTokens` of `tokenCurrency`."
      },
      "createLiquidation(address,(uint256),(uint256),(uint256),uint256)": {
        "notice": "Liquidates the sponsor's position if the caller has enough synthetic tokens to retire the position's outstanding tokens. Liquidations above a minimum size also reset an ongoing \"slow withdrawal\"'s liveness."
      },
      "deposit((uint256))": {
        "notice": "Transfers `collateralAmount` of `collateralCurrency` into the caller's position."
      },
      "depositTo(address,(uint256))": {
        "notice": "Transfers `collateralAmount` of `collateralCurrency` into the specified sponsor's position."
      },
      "dispute(uint256,address)": {
        "notice": "Disputes a liquidation, if the caller has enough collateral to post a dispute bond and pay a fixed final fee charged on each price request."
      },
      "emergencyShutdown()": {
        "notice": "Premature contract settlement under emergency circumstances."
      },
      "getCollateral(address)": {
        "notice": "Accessor method for a sponsor's collateral."
      },
      "getCurrentTime()": {
        "notice": "Gets the current time. Will return the last time set in `setCurrentTime` if running in test mode. Otherwise, it will return the block timestamp."
      },
      "getLiquidations(address)": {
        "notice": "Gets all liquidation information for a given sponsor address."
      },
      "payRegularFees()": {
        "notice": "Pays UMA DVM regular fees (as a % of the collateral pool) to the Store contract."
      },
      "pfc()": {
        "notice": "Gets the current profit from corruption for this contract in terms of the collateral currency."
      },
      "redeem((uint256))": {
        "notice": "Burns `numTokens` of `tokenCurrency` and sends back the proportional amount of `collateralCurrency`."
      },
      "remargin()": {
        "notice": "Theoretically supposed to pay fees and move money between margin accounts to make sure they reflect the NAV of the contract. However, this functionality doesn't apply to this contract."
      },
      "repay((uint256))": {
        "notice": "Burns `numTokens` of `tokenCurrency` to decrease sponsors position size, without sending back `collateralCurrency`. This is done by a sponsor to increase position CR. Resulting size is bounded by minSponsorTokens."
      },
      "requestWithdrawal((uint256))": {
        "notice": "Starts a withdrawal request that, if passed, allows the sponsor to withdraw` from their position."
      },
      "setCurrentTime(uint256)": {
        "notice": "Sets the current time."
      },
      "settleEmergencyShutdown()": {
        "notice": "If the contract is emergency shutdown then all token holders and sponsors can redeem their tokens or remaining collateral for underlying at the prevailing price defined by a DVM vote."
      },
      "totalPositionCollateral()": {
        "notice": "Accessor method for the total collateral stored within the PerpetualPositionManager."
      },
      "trimExcess(address)": {
        "notice": "Drains any excess balance of the provided ERC20 token to a pre-selected beneficiary."
      },
      "withdraw((uint256))": {
        "notice": "Transfers `collateralAmount` of `collateralCurrency` from the sponsor's position to the sponsor."
      },
      "withdrawFundingRateFees((uint256))": {
        "notice": "Sends `amount` fees to the FundingRateStore contract and debits the raw collateral accordingly."
      },
      "withdrawLiquidation(uint256,address)": {
        "notice": "After a dispute has settled or after a non-disputed liquidation has expired, anyone can call this method to disperse payments to the sponsor, liquidator, and disputer."
      },
      "withdrawPassedRequest()": {
        "notice": "After a passed withdrawal request (i.e., by a call to `requestWithdrawal` and waiting `withdrawalLiveness`), withdraws `positionData.withdrawalRequestAmount` of collateral currency."
      }
    },
    "notice": "Convenient wrapper for Liquidatable.",
    "version": 1
  }
}