{
  "contractName": "PreExpirationIdentifierTransformationFinancialProductLibrary",
  "abi": [
    {
      "anonymous": false,
      "inputs": [
        {
          "indexed": true,
          "internalType": "address",
          "name": "previousOwner",
          "type": "address"
        },
        {
          "indexed": true,
          "internalType": "address",
          "name": "newOwner",
          "type": "address"
        }
      ],
      "name": "OwnershipTransferred",
      "type": "event"
    },
    {
      "inputs": [],
      "name": "owner",
      "outputs": [
        {
          "internalType": "address",
          "name": "",
          "type": "address"
        }
      ],
      "stateMutability": "view",
      "type": "function"
    },
    {
      "inputs": [],
      "name": "renounceOwnership",
      "outputs": [],
      "stateMutability": "nonpayable",
      "type": "function"
    },
    {
      "inputs": [
        {
          "internalType": "address",
          "name": "newOwner",
          "type": "address"
        }
      ],
      "name": "transferOwnership",
      "outputs": [],
      "stateMutability": "nonpayable",
      "type": "function"
    },
    {
      "inputs": [
        {
          "components": [
            {
              "internalType": "uint256",
              "name": "rawValue",
              "type": "uint256"
            }
          ],
          "internalType": "struct FixedPoint.Unsigned",
          "name": "oraclePrice",
          "type": "tuple"
        },
        {
          "components": [
            {
              "internalType": "uint256",
              "name": "rawValue",
              "type": "uint256"
            }
          ],
          "internalType": "struct FixedPoint.Unsigned",
          "name": "collateralRequirement",
          "type": "tuple"
        }
      ],
      "name": "transformCollateralRequirement",
      "outputs": [
        {
          "components": [
            {
              "internalType": "uint256",
              "name": "rawValue",
              "type": "uint256"
            }
          ],
          "internalType": "struct FixedPoint.Unsigned",
          "name": "",
          "type": "tuple"
        }
      ],
      "stateMutability": "view",
      "type": "function"
    },
    {
      "inputs": [
        {
          "components": [
            {
              "internalType": "uint256",
              "name": "rawValue",
              "type": "uint256"
            }
          ],
          "internalType": "struct FixedPoint.Unsigned",
          "name": "oraclePrice",
          "type": "tuple"
        },
        {
          "internalType": "uint256",
          "name": "requestTime",
          "type": "uint256"
        }
      ],
      "name": "transformPrice",
      "outputs": [
        {
          "components": [
            {
              "internalType": "uint256",
              "name": "rawValue",
              "type": "uint256"
            }
          ],
          "internalType": "struct FixedPoint.Unsigned",
          "name": "",
          "type": "tuple"
        }
      ],
      "stateMutability": "view",
      "type": "function"
    },
    {
      "inputs": [
        {
          "internalType": "address",
          "name": "financialProduct",
          "type": "address"
        },
        {
          "internalType": "bytes32",
          "name": "transformedIdentifier",
          "type": "bytes32"
        }
      ],
      "name": "setFinancialProductTransformedIdentifier",
      "outputs": [],
      "stateMutability": "nonpayable",
      "type": "function"
    },
    {
      "inputs": [
        {
          "internalType": "address",
          "name": "financialProduct",
          "type": "address"
        }
      ],
      "name": "getTransformedIdentifierForFinancialProduct",
      "outputs": [
        {
          "internalType": "bytes32",
          "name": "",
          "type": "bytes32"
        }
      ],
      "stateMutability": "view",
      "type": "function"
    },
    {
      "inputs": [
        {
          "internalType": "bytes32",
          "name": "identifier",
          "type": "bytes32"
        },
        {
          "internalType": "uint256",
          "name": "requestTime",
          "type": "uint256"
        }
      ],
      "name": "transformPriceIdentifier",
      "outputs": [
        {
          "internalType": "bytes32",
          "name": "",
          "type": "bytes32"
        }
      ],
      "stateMutability": "view",
      "type": "function"
    }
  ],
  "bytecode": "0x608060405234801561001057600080fd5b50600061001b61007d565b600080546001600160a01b0319166001600160a01b0383169081178255604051929350917f8be0079c531659141344cd1fd0a4f28419497f9722a3daafe3b4186f6b6457e0908290a3506000805460ff60a01b1916600160a01b179055610081565b3390565b610859806100906000396000f3fe608060405234801561001057600080fd5b50600436106100885760003560e01c80638da5cb5b1161005b5780638da5cb5b146100e6578063bc2ac858146100fb578063f19371b71461011b578063f2fde38b1461012e57610088565b80630ff49b901461008d57806316bed30e146100b65780632a312637146100cb578063715018a6146100de575b600080fd5b6100a061009b366004610645565b610141565b6040516100ad9190610819565b60405180910390f35b6100c96100c43660046105c6565b610152565b005b6100a06100d9366004610611565b6102a7565b6100c96102b5565b6100ee610334565b6040516100ad9190610679565b61010e6101093660046105a4565b610343565b6040516100ad919061068d565b61010e6101293660046105f0565b610369565b6100c961013c3660046105a4565b610434565b61014961053d565b50815b92915050565b61015a6104ea565b6000546001600160a01b039081169116146101905760405162461bcd60e51b815260040161018790610776565b60405180910390fd5b6101986104ee565b6101a0610519565b806101bd5760405162461bcd60e51b815260040161018790610741565b6001600160a01b038216600090815260016020526040902054156101f35760405162461bcd60e51b81526004016101879061070a565b816001600160a01b0316639f43ddd26040518163ffffffff1660e01b815260040160206040518083038186803b15801561022c57600080fd5b505afa158015610240573d6000803e3d6000fd5b505050506040513d601f19601f820116820180604052508101906102649190610661565b6102805760405162461bcd60e51b8152600401610187906106dc565b6001600160a01b03821660009081526001602052604090208190556102a3610528565b5050565b6102af61053d565b50919050565b6102bd6104ea565b6000546001600160a01b039081169116146102ea5760405162461bcd60e51b815260040161018790610776565b600080546040516001600160a01b03909116907f8be0079c531659141344cd1fd0a4f28419497f9722a3daafe3b4186f6b6457e0908390a3600080546001600160a01b0319169055565b6000546001600160a01b031690565b600061034d6104ee565b506001600160a01b031660009081526001602052604090205490565b60006103736104ee565b3360009081526001602052604090205461039f5760405162461bcd60e51b8152600401610187906107ab565b336001600160a01b0316639f43ddd26040518163ffffffff1660e01b815260040160206040518083038186803b1580156103d857600080fd5b505afa1580156103ec573d6000803e3d6000fd5b505050506040513d601f19601f820116820180604052508101906104109190610661565b82101561042d57503360009081526001602052604090205461014c565b508161014c565b61043c6104ea565b6000546001600160a01b039081169116146104695760405162461bcd60e51b815260040161018790610776565b6001600160a01b03811661048f5760405162461bcd60e51b815260040161018790610696565b600080546040516001600160a01b03808516939216917f8be0079c531659141344cd1fd0a4f28419497f9722a3daafe3b4186f6b6457e091a3600080546001600160a01b0319166001600160a01b0392909216919091179055565b3390565b600054600160a01b900460ff166105175760405162461bcd60e51b8152600401610187906107e2565b565b6000805460ff60a01b19169055565b6000805460ff60a01b1916600160a01b179055565b6040518060200160405280600081525090565b80356001600160a01b038116811461014c57600080fd5b600060208284031215610578578081fd5b6040516020810181811067ffffffffffffffff82111715610597578283fd5b6040529135825250919050565b6000602082840312156105b5578081fd5b6105bf8383610550565b9392505050565b600080604083850312156105d8578081fd5b6105e28484610550565b946020939093013593505050565b60008060408385031215610602578182fd5b50508035926020909101359150565b60008060408385031215610623578182fd5b61062d8484610567565b915061063c8460208501610567565b90509250929050565b60008060408385031215610657578182fd5b6105e28484610567565b600060208284031215610672578081fd5b5051919050565b6001600160a01b0391909116815260200190565b90815260200190565b60208082526026908201527f4f776e61626c653a206e6577206f776e657220697320746865207a65726f206160408201526564647265737360d01b606082015260800190565b602080825260149082015273125b9d985b1a59081153540818dbdb9d1c9858dd60621b604082015260600190565b6020808252601a908201527f5472616e73666f726d6174696f6e20616c726561647920736574000000000000604082015260600190565b6020808252818101527f43616e742073657420746f20656d707479207472616e73666f726d6174696f6e604082015260600190565b6020808252818101527f4f776e61626c653a2063616c6c6572206973206e6f7420746865206f776e6572604082015260600190565b6020808252601c908201527f43616c6c657220686173206e6f207472616e73666f726d6174696f6e00000000604082015260600190565b6020808252601f908201527f5265656e7472616e637947756172643a207265656e7472616e742063616c6c00604082015260600190565b905181526020019056fea2646970667358221220ca5f04933ea531dfec22169189a34e88345ea74a94db4aa7055cf1206116d4ff64736f6c634300060c0033",
  "immutableReferences": {},
  "source": "pragma solidity ^0.6.0;\npragma experimental ABIEncoderV2;\nimport \"./FinancialProductLibrary.sol\";\nimport \"@openzeppelin/contracts/access/Ownable.sol\";\nimport \"../../../common/implementation/Lockable.sol\";\n\n/**\n * @title Pre-Expiration Identifier Transformation Financial Product Library\n * @notice Adds custom identifier transformation to enable a financial contract to use two different identifiers, depending\n * on when a price request is made. If the request is made before expiration than a transformation is made to the identifier\n * & if it is at or after expiration then the original identifier is returned. This library enables self referential\n * TWAP identifier to be used on synthetics pre-expiration, in conjunction with a separate identifier at expiration.\n */\ncontract PreExpirationIdentifierTransformationFinancialProductLibrary is FinancialProductLibrary, Ownable, Lockable {\n    mapping(address => bytes32) financialProductTransformedIdentifiers;\n\n    /**\n     * @notice Enables the deployer of the library to set the transformed identifier for an associated financial product.\n     * @param financialProduct address of the financial product.\n     * @param transformedIdentifier the identifier for the financial product to be used if the contract is post expiration.\n     * @dev Note: a) Only the owner (deployer) of this library can set identifier transformations b) The identifier Cant\n     * be set to blank. c) A transformed price can only be set once to prevent the deployer from changing it after the fact.\n     * d)  financialProduct must exposes an expirationTimestamp method.\n     */\n    function setFinancialProductTransformedIdentifier(address financialProduct, bytes32 transformedIdentifier)\n        public\n        onlyOwner\n        nonReentrant()\n    {\n        require(transformedIdentifier != \"\", \"Cant set to empty transformation\");\n        require(financialProductTransformedIdentifiers[financialProduct] == \"\", \"Transformation already set\");\n        require(ExpiringContractInterface(financialProduct).expirationTimestamp() != 0, \"Invalid EMP contract\");\n        financialProductTransformedIdentifiers[financialProduct] = transformedIdentifier;\n    }\n\n    /**\n     * @notice Returns the transformed identifier associated with a given financial product address.\n     * @param financialProduct address of the financial product.\n     * @return transformed identifier for the associated financial product.\n     */\n    function getTransformedIdentifierForFinancialProduct(address financialProduct)\n        public\n        view\n        nonReentrantView()\n        returns (bytes32)\n    {\n        return financialProductTransformedIdentifiers[financialProduct];\n    }\n\n    /**\n     * @notice Returns a transformed price identifier if the contract is pre-expiration and no transformation if post.\n     * @param identifier input price identifier to be transformed.\n     * @param requestTime timestamp the identifier is to be used at.\n     * @return transformedPriceIdentifier the input price identifier with the transformation logic applied to it.\n     */\n    function transformPriceIdentifier(bytes32 identifier, uint256 requestTime)\n        public\n        view\n        override\n        nonReentrantView()\n        returns (bytes32)\n    {\n        require(financialProductTransformedIdentifiers[msg.sender] != \"\", \"Caller has no transformation\");\n        // If the request time is before contract expiration then return the transformed identifier. Else, return the\n        // transformed price identifier.\n        if (requestTime < ExpiringContractInterface(msg.sender).expirationTimestamp()) {\n            return financialProductTransformedIdentifiers[msg.sender];\n        } else {\n            return identifier;\n        }\n    }\n}\n",
  "sourcePath": "/Users/chris/temp/protocol/packages/core/contracts/financial-templates/common/financial-product-libraries/PreExpirationIdentifierTransformationFinancialProductLibrary.sol",
  "compiler": {
    "name": "solc",
    "version": "0.6.12+commit.27d51765.Emscripten.clang"
  },
  "schemaVersion": "3.2.3",
  "updatedAt": "2020-12-09T10:40:25.503Z",
  "devdoc": {
    "kind": "dev",
    "methods": {
      "getTransformedIdentifierForFinancialProduct(address)": {
        "params": {
          "financialProduct": "address of the financial product."
        },
        "returns": {
          "_0": "transformed identifier for the associated financial product."
        }
      },
      "owner()": {
        "details": "Returns the address of the current owner."
      },
      "renounceOwnership()": {
        "details": "Leaves the contract without owner. It will not be possible to call `onlyOwner` functions anymore. Can only be called by the current owner. NOTE: Renouncing ownership will leave the contract without an owner, thereby removing any functionality that is only available to the owner."
      },
      "setFinancialProductTransformedIdentifier(address,bytes32)": {
        "details": "Note: a) Only the owner (deployer) of this library can set identifier transformations b) The identifier Cant be set to blank. c) A transformed price can only be set once to prevent the deployer from changing it after the fact. d)  financialProduct must exposes an expirationTimestamp method.",
        "params": {
          "financialProduct": "address of the financial product.",
          "transformedIdentifier": "the identifier for the financial product to be used if the contract is post expiration."
        }
      },
      "transferOwnership(address)": {
        "details": "Transfers ownership of the contract to a new account (`newOwner`). Can only be called by the current owner."
      },
      "transformCollateralRequirement((uint256),(uint256))": {
        "params": {
          "collateralRequirement": "input collateral requirement to be transformed.",
          "oraclePrice": "input price returned by DVM used to transform the collateral requirement."
        },
        "returns": {
          "_0": "transformedCollateralRequirement input collateral requirement with the transformation function applied."
        }
      },
      "transformPrice((uint256),uint256)": {
        "params": {
          "oraclePrice": "input price returned by the DVM to be transformed.",
          "requestTime": "timestamp the oraclePrice was requested at."
        },
        "returns": {
          "_0": "transformedPrice input oraclePrice with the transformation function applied."
        }
      },
      "transformPriceIdentifier(bytes32,uint256)": {
        "params": {
          "identifier": "input price identifier to be transformed.",
          "requestTime": "timestamp the identifier is to be used at."
        },
        "returns": {
          "_0": "transformedPriceIdentifier the input price identifier with the transformation logic applied to it."
        }
      }
    },
    "title": "Pre-Expiration Identifier Transformation Financial Product Library",
    "version": 1
  },
  "userdoc": {
    "kind": "user",
    "methods": {
      "getTransformedIdentifierForFinancialProduct(address)": {
        "notice": "Returns the transformed identifier associated with a given financial product address."
      },
      "setFinancialProductTransformedIdentifier(address,bytes32)": {
        "notice": "Enables the deployer of the library to set the transformed identifier for an associated financial product."
      },
      "transformCollateralRequirement((uint256),(uint256))": {
        "notice": "Transforms a given collateral requirement using the financial product libraries transformation logic."
      },
      "transformPrice((uint256),uint256)": {
        "notice": "Transforms a given oracle price using the financial product libraries transformation logic."
      },
      "transformPriceIdentifier(bytes32,uint256)": {
        "notice": "Returns a transformed price identifier if the contract is pre-expiration and no transformation if post."
      }
    },
    "notice": "Adds custom identifier transformation to enable a financial contract to use two different identifiers, depending on when a price request is made. If the request is made before expiration than a transformation is made to the identifier & if it is at or after expiration then the original identifier is returned. This library enables self referential TWAP identifier to be used on synthetics pre-expiration, in conjunction with a separate identifier at expiration.",
    "version": 1
  }
}