{
  "contractName": "ResultComputationTest",
  "abi": [
    {
      "inputs": [],
      "name": "data",
      "outputs": [
        {
          "components": [
            {
              "internalType": "uint256",
              "name": "rawValue",
              "type": "uint256"
            }
          ],
          "internalType": "struct FixedPoint.Unsigned",
          "name": "totalVotes",
          "type": "tuple"
        },
        {
          "internalType": "int256",
          "name": "currentMode",
          "type": "int256"
        }
      ],
      "stateMutability": "view",
      "type": "function"
    },
    {
      "inputs": [
        {
          "internalType": "int256",
          "name": "votePrice",
          "type": "int256"
        },
        {
          "internalType": "uint256",
          "name": "numberTokens",
          "type": "uint256"
        }
      ],
      "name": "wrapAddVote",
      "outputs": [],
      "stateMutability": "nonpayable",
      "type": "function"
    },
    {
      "inputs": [
        {
          "internalType": "uint256",
          "name": "minVoteThreshold",
          "type": "uint256"
        }
      ],
      "name": "wrapGetResolvedPrice",
      "outputs": [
        {
          "internalType": "bool",
          "name": "isResolved",
          "type": "bool"
        },
        {
          "internalType": "int256",
          "name": "price",
          "type": "int256"
        }
      ],
      "stateMutability": "view",
      "type": "function"
    },
    {
      "inputs": [
        {
          "internalType": "bytes32",
          "name": "revealHash",
          "type": "bytes32"
        }
      ],
      "name": "wrapWasVoteCorrect",
      "outputs": [
        {
          "internalType": "bool",
          "name": "",
          "type": "bool"
        }
      ],
      "stateMutability": "view",
      "type": "function"
    },
    {
      "inputs": [],
      "name": "wrapGetTotalCorrectlyVotedTokens",
      "outputs": [
        {
          "internalType": "uint256",
          "name": "",
          "type": "uint256"
        }
      ],
      "stateMutability": "view",
      "type": "function"
    }
  ],
  "bytecode": "0x608060405234801561001057600080fd5b5061064f806100206000396000f3fe608060405234801561001057600080fd5b50600436106100575760003560e01c806373d4a13a1461005c578063a3c5fe481461007b578063abba025414610090578063cc15973f146100a5578063fb7da38c146100c6575b600080fd5b6100646100e6565b60405161007292919061060a565b60405180910390f35b6100836100fc565b6040516100729190610536565b6100a361009e3660046104fa565b61010e565b005b6100b86100b33660046104e2565b61012e565b604051610072929190610526565b6100d96100d43660046104e2565b61015c565b604051610072919061051b565b6040805160208101909152600154815260025482565b6000610108600061016e565b51905090565b604080516020810190915281815261012a90600090849061019a565b5050565b600080610153604051806020016040528085815250600061025290919063ffffffff16565b91509150915091565b600061016881836102fe565b92915050565b6101766104cf565b50600281015460009081526020918252604090819020815192830190915254815290565b6040805160208101909152600184015481526101b69082610335565b516001840155600082815260208481526040918290208251918201909252905481526101e29082610335565b6000838152602085905260409020905190556002830154821480159061024057506002830154600090815260208481526040808320815180840183529054815285845286835292819020815192830190915254815261024091610361565b1561024d57600283018290555b505050565b60008061025d6104cf565b610272606461026c6032610368565b90610396565b6040805160208101909152600187015481529091506102919085610361565b80156102dc5750604080516020808201835260018801548252600288015460009081528882528390208351918201909352915482526102dc9183916102d691906103b7565b90610361565b156102f15760019250846002015491506102f6565b600092505b509250929050565b600082600201546040516020016103159190610536565b604051602081830303815290604052805190602001208214905092915050565b61033d6104cf565b604080516020810190915282518451829161035891906103ec565b90529392505050565b5190511190565b6103706104cf565b60408051602081019091528061038e84670de0b6b3a7640000610421565b905292915050565b61039e6104cf565b604080516020810190915283518190610358908561045b565b6103bf6104cf565b6040805160208101909152825184518291610358916103e690670de0b6b3a7640000610421565b9061045b565b60008282018381101561041a5760405162461bcd60e51b815260040161041190610592565b60405180910390fd5b9392505050565b60008261043057506000610168565b8282028284828161043d57fe5b041461041a5760405162461bcd60e51b8152600401610411906105c9565b600061041a83836040518060400160405280601a81526020017f536166654d6174683a206469766973696f6e206279207a65726f000000000000815250600081836104b95760405162461bcd60e51b8152600401610411919061053f565b5060008385816104c557fe5b0495945050505050565b6040518060200160405280600081525090565b6000602082840312156104f3578081fd5b5035919050565b6000806040838503121561050c578081fd5b50508035926020909101359150565b901515815260200190565b9115158252602082015260400190565b90815260200190565b6000602080835283518082850152825b8181101561056b5785810183015185820160400152820161054f565b8181111561057c5783604083870101525b50601f01601f1916929092016040019392505050565b6020808252601b908201527f536166654d6174683a206164646974696f6e206f766572666c6f770000000000604082015260600190565b60208082526021908201527f536166654d6174683a206d756c7469706c69636174696f6e206f766572666c6f6040820152607760f81b606082015260800190565b9151825260208201526040019056fea264697066735822122081bba88f77fbd6c71ee893992db7b8150243916e346c5c93916e6b01cdca4a1a64736f6c634300060c0033",
  "immutableReferences": {},
  "source": "// SPDX-License-Identifier: AGPL-3.0-only\npragma solidity ^0.6.0;\n\npragma experimental ABIEncoderV2;\n\nimport \"../ResultComputation.sol\";\nimport \"../../../common/implementation/FixedPoint.sol\";\n\n// Wraps the library ResultComputation for testing purposes.\ncontract ResultComputationTest {\n    using ResultComputation for ResultComputation.Data;\n\n    ResultComputation.Data public data;\n\n    function wrapAddVote(int256 votePrice, uint256 numberTokens) external {\n        data.addVote(votePrice, FixedPoint.Unsigned(numberTokens));\n    }\n\n    function wrapGetResolvedPrice(uint256 minVoteThreshold) external view returns (bool isResolved, int256 price) {\n        return data.getResolvedPrice(FixedPoint.Unsigned(minVoteThreshold));\n    }\n\n    function wrapWasVoteCorrect(bytes32 revealHash) external view returns (bool) {\n        return data.wasVoteCorrect(revealHash);\n    }\n\n    function wrapGetTotalCorrectlyVotedTokens() external view returns (uint256) {\n        return data.getTotalCorrectlyVotedTokens().rawValue;\n    }\n}\n",
  "sourcePath": "/Users/chris/temp/protocol/packages/core/contracts/oracle/implementation/test/ResultComputationTest.sol",
  "compiler": {
    "name": "solc",
    "version": "0.6.12+commit.27d51765.Emscripten.clang"
  },
  "schemaVersion": "3.2.3",
  "updatedAt": "2020-12-21T06:57:53.500Z",
  "devdoc": {
    "kind": "dev",
    "methods": {},
    "version": 1
  },
  "userdoc": {
    "kind": "user",
    "methods": {},
    "version": 1
  }
}