{
  "contractName": "Umip3Upgrader",
  "abi": [
    {
      "inputs": [
        {
          "internalType": "address",
          "name": "_existingGovernor",
          "type": "address"
        },
        {
          "internalType": "address",
          "name": "_existingVoting",
          "type": "address"
        },
        {
          "internalType": "address",
          "name": "_finder",
          "type": "address"
        },
        {
          "internalType": "address",
          "name": "_voting",
          "type": "address"
        },
        {
          "internalType": "address",
          "name": "_identifierWhitelist",
          "type": "address"
        },
        {
          "internalType": "address",
          "name": "_store",
          "type": "address"
        },
        {
          "internalType": "address",
          "name": "_financialContractsAdmin",
          "type": "address"
        },
        {
          "internalType": "address",
          "name": "_registry",
          "type": "address"
        },
        {
          "internalType": "address",
          "name": "_newGovernor",
          "type": "address"
        }
      ],
      "stateMutability": "nonpayable",
      "type": "constructor"
    },
    {
      "inputs": [],
      "name": "existingGovernor",
      "outputs": [
        {
          "internalType": "address",
          "name": "",
          "type": "address"
        }
      ],
      "stateMutability": "view",
      "type": "function"
    },
    {
      "inputs": [],
      "name": "existingVoting",
      "outputs": [
        {
          "internalType": "contract Voting",
          "name": "",
          "type": "address"
        }
      ],
      "stateMutability": "view",
      "type": "function"
    },
    {
      "inputs": [],
      "name": "financialContractsAdmin",
      "outputs": [
        {
          "internalType": "address",
          "name": "",
          "type": "address"
        }
      ],
      "stateMutability": "view",
      "type": "function"
    },
    {
      "inputs": [],
      "name": "finder",
      "outputs": [
        {
          "internalType": "contract Finder",
          "name": "",
          "type": "address"
        }
      ],
      "stateMutability": "view",
      "type": "function"
    },
    {
      "inputs": [],
      "name": "identifierWhitelist",
      "outputs": [
        {
          "internalType": "address",
          "name": "",
          "type": "address"
        }
      ],
      "stateMutability": "view",
      "type": "function"
    },
    {
      "inputs": [],
      "name": "newGovernor",
      "outputs": [
        {
          "internalType": "address",
          "name": "",
          "type": "address"
        }
      ],
      "stateMutability": "view",
      "type": "function"
    },
    {
      "inputs": [],
      "name": "registry",
      "outputs": [
        {
          "internalType": "address",
          "name": "",
          "type": "address"
        }
      ],
      "stateMutability": "view",
      "type": "function"
    },
    {
      "inputs": [],
      "name": "store",
      "outputs": [
        {
          "internalType": "address",
          "name": "",
          "type": "address"
        }
      ],
      "stateMutability": "view",
      "type": "function"
    },
    {
      "inputs": [],
      "name": "voting",
      "outputs": [
        {
          "internalType": "address",
          "name": "",
          "type": "address"
        }
      ],
      "stateMutability": "view",
      "type": "function"
    },
    {
      "inputs": [],
      "name": "upgrade",
      "outputs": [],
      "stateMutability": "nonpayable",
      "type": "function"
    }
  ],
  "bytecode": "0x608060405234801561001057600080fd5b50604051610712380380610712833981810160405261012081101561003457600080fd5b508051602082015160408301516060840151608085015160a086015160c087015160e088015161010090980151600080546001600160a01b03199081166001600160a01b039a8b16178255600180548216998b1699909917909855600380548916978a1697909717909655600480548816958916959095179094556005805487169388169390931790925560068054861691871691909117905560078054851691861691909117905560088054841695851695909517909455600280549092169290931691909117905561060490819061010e90396000f3fe608060405234801561001057600080fd5b506004361061009e5760003560e01c8063b9a3c84c11610066578063b9a3c84c146100e7578063d55ec697146100ef578063e84bf00c146100f9578063ebb4bfb014610101578063fce1ccca146101095761009e565b8063679b721c146100a35780636a06d469146100c75780637b103999146100cf5780638fd20577146100d7578063975057e7146100df575b600080fd5b6100ab610111565b604080516001600160a01b039092168252519081900360200190f35b6100ab610120565b6100ab61012f565b6100ab61013e565b6100ab61014d565b6100ab61015c565b6100f761016b565b005b6100ab61056a565b6100ab610579565b6100ab610588565b6001546001600160a01b031681565b6005546001600160a01b031681565b6008546001600160a01b031681565b6002546001600160a01b031681565b6006546001600160a01b031681565b6003546001600160a01b031681565b6000546001600160a01b031633146101b45760405162461bcd60e51b81526004018080602001828103825260378152602001806105986037913960400191505060405180910390fd5b60035460048054604080516318fcb32f60e11b8152654f7261636c6560d01b938101939093526001600160a01b039182166024840152519216916331f9665e9160448082019260009290919082900301818387803b15801561021557600080fd5b505af1158015610229573d6000803e3d6000fd5b5050600354600554604080516318fcb32f60e11b8152721259195b9d1a599a595c95da1a5d195b1a5cdd606a1b60048201526001600160a01b03928316602482015290519190921693506331f9665e9250604480830192600092919082900301818387803b15801561029a57600080fd5b505af11580156102ae573d6000803e3d6000fd5b5050600354600654604080516318fcb32f60e11b81526453746f726560d81b60048201526001600160a01b03928316602482015290519190921693506331f9665e9250604480830192600092919082900301818387803b15801561031157600080fd5b505af1158015610325573d6000803e3d6000fd5b5050600354600754604080516318fcb32f60e11b8152762334b730b731b4b0b621b7b73a3930b1ba39a0b236b4b760491b60048201526001600160a01b03928316602482015290519190921693506331f9665e9250604480830192600092919082900301818387803b15801561039a57600080fd5b505af11580156103ae573d6000803e3d6000fd5b5050600354600854604080516318fcb32f60e11b815267526567697374727960c01b60048201526001600160a01b03928316602482015290519190921693506331f9665e9250604480830192600092919082900301818387803b15801561041457600080fd5b505af1158015610428573d6000803e3d6000fd5b50506003546002546040805163f2fde38b60e01b81526001600160a01b039283166004820152905191909216935063f2fde38b9250602480830192600092919082900301818387803b15801561047d57600080fd5b505af1158015610491573d6000803e3d6000fd5b50506001546004805460408051632960b5af60e01b81526001600160a01b03928316938101939093525192169350632960b5af925060248082019260009290919082900301818387803b1580156104e757600080fd5b505af11580156104fb573d6000803e3d6000fd5b50506001546002546040805163f2fde38b60e01b81526001600160a01b039283166004820152905191909216935063f2fde38b9250602480830192600092919082900301818387803b15801561055057600080fd5b505af1158015610564573d6000803e3d6000fd5b50505050565b6007546001600160a01b031681565b6000546001600160a01b031681565b6004546001600160a01b03168156fe557067726164652063616e206f6e6c7920626520696e6974696174656420627920746865206578697374696e6720676f7665726e6f722ea26469706673582212201ed0e4d73b9604a50e102f84a155ce33daaaee119250a1edf33052228e33ca1e64736f6c634300060c0033",
  "immutableReferences": {},
  "source": "// SPDX-License-Identifier: AGPL-3.0-only\npragma solidity ^0.6.0;\n\nimport \"../oracle/implementation/Finder.sol\";\nimport \"../oracle/implementation/Constants.sol\";\nimport \"../oracle/implementation/Voting.sol\";\n\n/**\n * @title A contract to track a whitelist of addresses.\n */\ncontract Umip3Upgrader {\n    // Existing governor is the only one who can initiate the upgrade.\n    address public existingGovernor;\n\n    // Existing Voting contract needs to be informed of the address of the new Voting contract.\n    Voting public existingVoting;\n\n    // New governor will be the new owner of the finder.\n    address public newGovernor;\n\n    // Finder contract to push upgrades to.\n    Finder public finder;\n\n    // Addresses to upgrade.\n    address public voting;\n    address public identifierWhitelist;\n    address public store;\n    address public financialContractsAdmin;\n    address public registry;\n\n    constructor(\n        address _existingGovernor,\n        address _existingVoting,\n        address _finder,\n        address _voting,\n        address _identifierWhitelist,\n        address _store,\n        address _financialContractsAdmin,\n        address _registry,\n        address _newGovernor\n    ) public {\n        existingGovernor = _existingGovernor;\n        existingVoting = Voting(_existingVoting);\n        finder = Finder(_finder);\n        voting = _voting;\n        identifierWhitelist = _identifierWhitelist;\n        store = _store;\n        financialContractsAdmin = _financialContractsAdmin;\n        registry = _registry;\n        newGovernor = _newGovernor;\n    }\n\n    function upgrade() external {\n        require(msg.sender == existingGovernor, \"Upgrade can only be initiated by the existing governor.\");\n\n        // Change the addresses in the Finder.\n        finder.changeImplementationAddress(OracleInterfaces.Oracle, voting);\n        finder.changeImplementationAddress(OracleInterfaces.IdentifierWhitelist, identifierWhitelist);\n        finder.changeImplementationAddress(OracleInterfaces.Store, store);\n        finder.changeImplementationAddress(OracleInterfaces.FinancialContractsAdmin, financialContractsAdmin);\n        finder.changeImplementationAddress(OracleInterfaces.Registry, registry);\n\n        // Transfer the ownership of the Finder to the new Governor now that all the addresses have been updated.\n        finder.transferOwnership(newGovernor);\n\n        // Inform the existing Voting contract of the address of the new Voting contract and transfer its\n        // ownership to the new governor to allow for any future changes to the migrated contract.\n        existingVoting.setMigrated(voting);\n        existingVoting.transferOwnership(newGovernor);\n    }\n}\n",
  "sourcePath": "/Users/chris/temp/protocol/packages/core/contracts/umips/Umip3Upgrader.sol",
  "compiler": {
    "name": "solc",
    "version": "0.6.12+commit.27d51765.Emscripten.clang"
  },
  "schemaVersion": "3.2.3",
  "updatedAt": "2020-12-21T06:57:53.520Z",
  "devdoc": {
    "kind": "dev",
    "methods": {},
    "title": "A contract to track a whitelist of addresses.",
    "version": 1
  },
  "userdoc": {
    "kind": "user",
    "methods": {},
    "version": 1
  }
}