{
  "contractName": "VotingTest",
  "abi": [
    {
      "inputs": [
        {
          "internalType": "uint256",
          "name": "_phaseLength",
          "type": "uint256"
        },
        {
          "components": [
            {
              "internalType": "uint256",
              "name": "rawValue",
              "type": "uint256"
            }
          ],
          "internalType": "struct FixedPoint.Unsigned",
          "name": "_gatPercentage",
          "type": "tuple"
        },
        {
          "components": [
            {
              "internalType": "uint256",
              "name": "rawValue",
              "type": "uint256"
            }
          ],
          "internalType": "struct FixedPoint.Unsigned",
          "name": "_inflationRate",
          "type": "tuple"
        },
        {
          "internalType": "uint256",
          "name": "_rewardsExpirationTimeout",
          "type": "uint256"
        },
        {
          "internalType": "address",
          "name": "_votingToken",
          "type": "address"
        },
        {
          "internalType": "address",
          "name": "_finder",
          "type": "address"
        },
        {
          "internalType": "address",
          "name": "_timerAddress",
          "type": "address"
        }
      ],
      "stateMutability": "nonpayable",
      "type": "constructor"
    },
    {
      "anonymous": false,
      "inputs": [
        {
          "indexed": true,
          "internalType": "address",
          "name": "voter",
          "type": "address"
        },
        {
          "indexed": true,
          "internalType": "uint256",
          "name": "roundId",
          "type": "uint256"
        },
        {
          "indexed": true,
          "internalType": "bytes32",
          "name": "identifier",
          "type": "bytes32"
        },
        {
          "indexed": false,
          "internalType": "uint256",
          "name": "time",
          "type": "uint256"
        },
        {
          "indexed": false,
          "internalType": "bytes",
          "name": "encryptedVote",
          "type": "bytes"
        }
      ],
      "name": "EncryptedVote",
      "type": "event"
    },
    {
      "anonymous": false,
      "inputs": [
        {
          "indexed": true,
          "internalType": "address",
          "name": "previousOwner",
          "type": "address"
        },
        {
          "indexed": true,
          "internalType": "address",
          "name": "newOwner",
          "type": "address"
        }
      ],
      "name": "OwnershipTransferred",
      "type": "event"
    },
    {
      "anonymous": false,
      "inputs": [
        {
          "indexed": true,
          "internalType": "uint256",
          "name": "roundId",
          "type": "uint256"
        },
        {
          "indexed": true,
          "internalType": "bytes32",
          "name": "identifier",
          "type": "bytes32"
        },
        {
          "indexed": false,
          "internalType": "uint256",
          "name": "time",
          "type": "uint256"
        }
      ],
      "name": "PriceRequestAdded",
      "type": "event"
    },
    {
      "anonymous": false,
      "inputs": [
        {
          "indexed": true,
          "internalType": "uint256",
          "name": "roundId",
          "type": "uint256"
        },
        {
          "indexed": true,
          "internalType": "bytes32",
          "name": "identifier",
          "type": "bytes32"
        },
        {
          "indexed": false,
          "internalType": "uint256",
          "name": "time",
          "type": "uint256"
        },
        {
          "indexed": false,
          "internalType": "int256",
          "name": "price",
          "type": "int256"
        }
      ],
      "name": "PriceResolved",
      "type": "event"
    },
    {
      "anonymous": false,
      "inputs": [
        {
          "indexed": true,
          "internalType": "address",
          "name": "voter",
          "type": "address"
        },
        {
          "indexed": true,
          "internalType": "uint256",
          "name": "roundId",
          "type": "uint256"
        },
        {
          "indexed": true,
          "internalType": "bytes32",
          "name": "identifier",
          "type": "bytes32"
        },
        {
          "indexed": false,
          "internalType": "uint256",
          "name": "time",
          "type": "uint256"
        },
        {
          "indexed": false,
          "internalType": "uint256",
          "name": "numTokens",
          "type": "uint256"
        }
      ],
      "name": "RewardsRetrieved",
      "type": "event"
    },
    {
      "anonymous": false,
      "inputs": [
        {
          "indexed": true,
          "internalType": "address",
          "name": "voter",
          "type": "address"
        },
        {
          "indexed": true,
          "internalType": "uint256",
          "name": "roundId",
          "type": "uint256"
        },
        {
          "indexed": true,
          "internalType": "bytes32",
          "name": "identifier",
          "type": "bytes32"
        },
        {
          "indexed": false,
          "internalType": "uint256",
          "name": "time",
          "type": "uint256"
        }
      ],
      "name": "VoteCommitted",
      "type": "event"
    },
    {
      "anonymous": false,
      "inputs": [
        {
          "indexed": true,
          "internalType": "address",
          "name": "voter",
          "type": "address"
        },
        {
          "indexed": true,
          "internalType": "uint256",
          "name": "roundId",
          "type": "uint256"
        },
        {
          "indexed": true,
          "internalType": "bytes32",
          "name": "identifier",
          "type": "bytes32"
        },
        {
          "indexed": false,
          "internalType": "uint256",
          "name": "time",
          "type": "uint256"
        },
        {
          "indexed": false,
          "internalType": "int256",
          "name": "price",
          "type": "int256"
        },
        {
          "indexed": false,
          "internalType": "uint256",
          "name": "numTokens",
          "type": "uint256"
        }
      ],
      "name": "VoteRevealed",
      "type": "event"
    },
    {
      "inputs": [
        {
          "components": [
            {
              "internalType": "bytes32",
              "name": "identifier",
              "type": "bytes32"
            },
            {
              "internalType": "uint256",
              "name": "time",
              "type": "uint256"
            },
            {
              "internalType": "bytes32",
              "name": "hash",
              "type": "bytes32"
            },
            {
              "internalType": "bytes",
              "name": "encryptedVote",
              "type": "bytes"
            }
          ],
          "internalType": "struct VotingInterface.Commitment[]",
          "name": "commits",
          "type": "tuple[]"
        }
      ],
      "name": "batchCommit",
      "outputs": [],
      "stateMutability": "nonpayable",
      "type": "function"
    },
    {
      "inputs": [
        {
          "components": [
            {
              "internalType": "bytes32",
              "name": "identifier",
              "type": "bytes32"
            },
            {
              "internalType": "uint256",
              "name": "time",
              "type": "uint256"
            },
            {
              "internalType": "int256",
              "name": "price",
              "type": "int256"
            },
            {
              "internalType": "int256",
              "name": "salt",
              "type": "int256"
            }
          ],
          "internalType": "struct VotingInterface.Reveal[]",
          "name": "reveals",
          "type": "tuple[]"
        }
      ],
      "name": "batchReveal",
      "outputs": [],
      "stateMutability": "nonpayable",
      "type": "function"
    },
    {
      "inputs": [
        {
          "internalType": "bytes32",
          "name": "identifier",
          "type": "bytes32"
        },
        {
          "internalType": "uint256",
          "name": "time",
          "type": "uint256"
        },
        {
          "internalType": "bytes32",
          "name": "hash",
          "type": "bytes32"
        },
        {
          "internalType": "bytes",
          "name": "encryptedVote",
          "type": "bytes"
        }
      ],
      "name": "commitAndEmitEncryptedVote",
      "outputs": [],
      "stateMutability": "nonpayable",
      "type": "function"
    },
    {
      "inputs": [
        {
          "internalType": "bytes32",
          "name": "identifier",
          "type": "bytes32"
        },
        {
          "internalType": "uint256",
          "name": "time",
          "type": "uint256"
        },
        {
          "internalType": "bytes32",
          "name": "hash",
          "type": "bytes32"
        }
      ],
      "name": "commitVote",
      "outputs": [],
      "stateMutability": "nonpayable",
      "type": "function"
    },
    {
      "inputs": [],
      "name": "gatPercentage",
      "outputs": [
        {
          "internalType": "uint256",
          "name": "rawValue",
          "type": "uint256"
        }
      ],
      "stateMutability": "view",
      "type": "function"
    },
    {
      "inputs": [],
      "name": "getCurrentRoundId",
      "outputs": [
        {
          "internalType": "uint256",
          "name": "",
          "type": "uint256"
        }
      ],
      "stateMutability": "view",
      "type": "function"
    },
    {
      "inputs": [],
      "name": "getCurrentTime",
      "outputs": [
        {
          "internalType": "uint256",
          "name": "",
          "type": "uint256"
        }
      ],
      "stateMutability": "view",
      "type": "function"
    },
    {
      "inputs": [],
      "name": "getPendingRequests",
      "outputs": [
        {
          "components": [
            {
              "internalType": "bytes32",
              "name": "identifier",
              "type": "bytes32"
            },
            {
              "internalType": "uint256",
              "name": "time",
              "type": "uint256"
            }
          ],
          "internalType": "struct VotingInterface.PendingRequest[]",
          "name": "",
          "type": "tuple[]"
        }
      ],
      "stateMutability": "view",
      "type": "function"
    },
    {
      "inputs": [
        {
          "internalType": "bytes32",
          "name": "identifier",
          "type": "bytes32"
        },
        {
          "internalType": "uint256",
          "name": "time",
          "type": "uint256"
        }
      ],
      "name": "getPrice",
      "outputs": [
        {
          "internalType": "int256",
          "name": "",
          "type": "int256"
        }
      ],
      "stateMutability": "view",
      "type": "function"
    },
    {
      "inputs": [
        {
          "components": [
            {
              "internalType": "bytes32",
              "name": "identifier",
              "type": "bytes32"
            },
            {
              "internalType": "uint256",
              "name": "time",
              "type": "uint256"
            }
          ],
          "internalType": "struct VotingInterface.PendingRequest[]",
          "name": "requests",
          "type": "tuple[]"
        }
      ],
      "name": "getPriceRequestStatuses",
      "outputs": [
        {
          "components": [
            {
              "internalType": "enum Voting.RequestStatus",
              "name": "status",
              "type": "uint8"
            },
            {
              "internalType": "uint256",
              "name": "lastVotingRound",
              "type": "uint256"
            }
          ],
          "internalType": "struct Voting.RequestState[]",
          "name": "",
          "type": "tuple[]"
        }
      ],
      "stateMutability": "view",
      "type": "function"
    },
    {
      "inputs": [],
      "name": "getVotePhase",
      "outputs": [
        {
          "internalType": "enum VotingInterface.Phase",
          "name": "",
          "type": "uint8"
        }
      ],
      "stateMutability": "view",
      "type": "function"
    },
    {
      "inputs": [
        {
          "internalType": "bytes32",
          "name": "identifier",
          "type": "bytes32"
        },
        {
          "internalType": "uint256",
          "name": "time",
          "type": "uint256"
        }
      ],
      "name": "hasPrice",
      "outputs": [
        {
          "internalType": "bool",
          "name": "",
          "type": "bool"
        }
      ],
      "stateMutability": "view",
      "type": "function"
    },
    {
      "inputs": [],
      "name": "inflationRate",
      "outputs": [
        {
          "internalType": "uint256",
          "name": "rawValue",
          "type": "uint256"
        }
      ],
      "stateMutability": "view",
      "type": "function"
    },
    {
      "inputs": [],
      "name": "migratedAddress",
      "outputs": [
        {
          "internalType": "address",
          "name": "",
          "type": "address"
        }
      ],
      "stateMutability": "view",
      "type": "function"
    },
    {
      "inputs": [],
      "name": "owner",
      "outputs": [
        {
          "internalType": "address",
          "name": "",
          "type": "address"
        }
      ],
      "stateMutability": "view",
      "type": "function"
    },
    {
      "inputs": [],
      "name": "renounceOwnership",
      "outputs": [],
      "stateMutability": "nonpayable",
      "type": "function"
    },
    {
      "inputs": [
        {
          "internalType": "bytes32",
          "name": "identifier",
          "type": "bytes32"
        },
        {
          "internalType": "uint256",
          "name": "time",
          "type": "uint256"
        }
      ],
      "name": "requestPrice",
      "outputs": [],
      "stateMutability": "nonpayable",
      "type": "function"
    },
    {
      "inputs": [
        {
          "internalType": "address",
          "name": "voterAddress",
          "type": "address"
        },
        {
          "internalType": "uint256",
          "name": "roundId",
          "type": "uint256"
        },
        {
          "components": [
            {
              "internalType": "bytes32",
              "name": "identifier",
              "type": "bytes32"
            },
            {
              "internalType": "uint256",
              "name": "time",
              "type": "uint256"
            }
          ],
          "internalType": "struct VotingInterface.PendingRequest[]",
          "name": "toRetrieve",
          "type": "tuple[]"
        }
      ],
      "name": "retrieveRewards",
      "outputs": [
        {
          "components": [
            {
              "internalType": "uint256",
              "name": "rawValue",
              "type": "uint256"
            }
          ],
          "internalType": "struct FixedPoint.Unsigned",
          "name": "totalRewardToIssue",
          "type": "tuple"
        }
      ],
      "stateMutability": "nonpayable",
      "type": "function"
    },
    {
      "inputs": [
        {
          "internalType": "bytes32",
          "name": "identifier",
          "type": "bytes32"
        },
        {
          "internalType": "uint256",
          "name": "time",
          "type": "uint256"
        },
        {
          "internalType": "int256",
          "name": "price",
          "type": "int256"
        },
        {
          "internalType": "int256",
          "name": "salt",
          "type": "int256"
        }
      ],
      "name": "revealVote",
      "outputs": [],
      "stateMutability": "nonpayable",
      "type": "function"
    },
    {
      "inputs": [],
      "name": "rewardsExpirationTimeout",
      "outputs": [
        {
          "internalType": "uint256",
          "name": "",
          "type": "uint256"
        }
      ],
      "stateMutability": "view",
      "type": "function"
    },
    {
      "inputs": [
        {
          "internalType": "uint256",
          "name": "",
          "type": "uint256"
        }
      ],
      "name": "rounds",
      "outputs": [
        {
          "internalType": "uint256",
          "name": "snapshotId",
          "type": "uint256"
        },
        {
          "components": [
            {
              "internalType": "uint256",
              "name": "rawValue",
              "type": "uint256"
            }
          ],
          "internalType": "struct FixedPoint.Unsigned",
          "name": "inflationRate",
          "type": "tuple"
        },
        {
          "components": [
            {
              "internalType": "uint256",
              "name": "rawValue",
              "type": "uint256"
            }
          ],
          "internalType": "struct FixedPoint.Unsigned",
          "name": "gatPercentage",
          "type": "tuple"
        },
        {
          "internalType": "uint256",
          "name": "rewardsExpirationTime",
          "type": "uint256"
        }
      ],
      "stateMutability": "view",
      "type": "function"
    },
    {
      "inputs": [
        {
          "internalType": "uint256",
          "name": "time",
          "type": "uint256"
        }
      ],
      "name": "setCurrentTime",
      "outputs": [],
      "stateMutability": "nonpayable",
      "type": "function"
    },
    {
      "inputs": [
        {
          "components": [
            {
              "internalType": "uint256",
              "name": "rawValue",
              "type": "uint256"
            }
          ],
          "internalType": "struct FixedPoint.Unsigned",
          "name": "newGatPercentage",
          "type": "tuple"
        }
      ],
      "name": "setGatPercentage",
      "outputs": [],
      "stateMutability": "nonpayable",
      "type": "function"
    },
    {
      "inputs": [
        {
          "components": [
            {
              "internalType": "uint256",
              "name": "rawValue",
              "type": "uint256"
            }
          ],
          "internalType": "struct FixedPoint.Unsigned",
          "name": "newInflationRate",
          "type": "tuple"
        }
      ],
      "name": "setInflationRate",
      "outputs": [],
      "stateMutability": "nonpayable",
      "type": "function"
    },
    {
      "inputs": [
        {
          "internalType": "address",
          "name": "newVotingAddress",
          "type": "address"
        }
      ],
      "name": "setMigrated",
      "outputs": [],
      "stateMutability": "nonpayable",
      "type": "function"
    },
    {
      "inputs": [
        {
          "internalType": "uint256",
          "name": "NewRewardsExpirationTimeout",
          "type": "uint256"
        }
      ],
      "name": "setRewardsExpirationTimeout",
      "outputs": [],
      "stateMutability": "nonpayable",
      "type": "function"
    },
    {
      "inputs": [
        {
          "internalType": "bytes",
          "name": "signature",
          "type": "bytes"
        }
      ],
      "name": "snapshotCurrentRound",
      "outputs": [],
      "stateMutability": "nonpayable",
      "type": "function"
    },
    {
      "inputs": [],
      "name": "snapshotMessageHash",
      "outputs": [
        {
          "internalType": "bytes32",
          "name": "",
          "type": "bytes32"
        }
      ],
      "stateMutability": "view",
      "type": "function"
    },
    {
      "inputs": [],
      "name": "timerAddress",
      "outputs": [
        {
          "internalType": "address",
          "name": "",
          "type": "address"
        }
      ],
      "stateMutability": "view",
      "type": "function"
    },
    {
      "inputs": [
        {
          "internalType": "address",
          "name": "newOwner",
          "type": "address"
        }
      ],
      "name": "transferOwnership",
      "outputs": [],
      "stateMutability": "nonpayable",
      "type": "function"
    },
    {
      "inputs": [],
      "name": "voteTiming",
      "outputs": [
        {
          "internalType": "uint256",
          "name": "phaseLength",
          "type": "uint256"
        }
      ],
      "stateMutability": "view",
      "type": "function"
    },
    {
      "inputs": [],
      "name": "votingToken",
      "outputs": [
        {
          "internalType": "contract VotingToken",
          "name": "",
          "type": "address"
        }
      ],
      "stateMutability": "view",
      "type": "function"
    },
    {
      "inputs": [],
      "name": "getPendingPriceRequestsArray",
      "outputs": [
        {
          "internalType": "bytes32[]",
          "name": "",
          "type": "bytes32[]"
        }
      ],
      "stateMutability": "view",
      "type": "function"
    }
  ],
  "bytecode": "0x60c060405260116080527014da59db88119bdc8814db985c1cda1bdd607a1b60a052620000587f05ae8dd7e03a2a2e45343dbd50fe048482c1d0e0e9e034857ff13dd19f476b7e620001b6602090811b62001efd17901c565b600c553480156200006857600080fd5b5060405162003d6938038062003d698339810160408190526200008b9162000308565b600080546001600160a01b0319166001600160a01b0383161781558790879087908790879087908790620000be620001e8565b600180546001600160a01b0319166001600160a01b038316908117909155604051919250906000907f8be0079c531659141344cd1fd0a4f28419497f9722a3daafe3b4186f6b6457e0908290a35062000127876005620001ec60201b62001f2d1790919060201c565b62000142600187620001fe60201b62001f3e1790919060201c565b6200016a5760405162461bcd60e51b81526004016200016190620003c0565b60405180910390fd5b5093516006559151600755600980546001600160a01b039384166001600160a01b031991821617909155600a805494909316931692909217905560085550620004389650505050505050565b600081604051602001620001cb91906200038f565b604051602081830303815290604052805190602001209050919050565b3390565b60008111620001fa57600080fd5b9055565b60006200020b8262000219565b518351111590505b92915050565b620002236200029f565b604051806020016040528062000250670de0b6b3a7640000856200025860201b62001f561790919060201c565b905292915050565b600082620002695750600062000213565b828202828482816200027757fe5b0414620002985760405162461bcd60e51b81526004016200016190620003f7565b9392505050565b6040518060200160405280600081525090565b80516001600160a01b03811681146200021357600080fd5b600060208284031215620002dc578081fd5b604051602081016001600160401b0381118282101715620002fb578283fd5b6040529151825250919050565b600080600080600080600060e0888a03121562000323578283fd5b87519650620003368960208a01620002ca565b9550620003478960408a01620002ca565b9450606088015193506200035f8960808a01620002b2565b9250620003708960a08a01620002b2565b9150620003818960c08a01620002b2565b905092959891949750929550565b7f19457468657265756d205369676e6564204d6573736167653a0a3332000000008152601c810191909152603c0190565b6020808252601e908201527f4741542070657263656e74616765206d757374206265203c3d20313030250000604082015260600190565b60208082526021908201527f536166654d6174683a206d756c7469706c69636174696f6e206f766572666c6f6040820152607760f81b606082015260800190565b61392180620004486000396000f3fe608060405234801561001057600080fd5b50600436106101fb5760003560e01c806370a0cf2c1161011a5780638c65c81f116100ad578063b90fd4801161007c578063b90fd480146103fb578063c9280f0614610403578063d8651ad014610416578063f116961f14610429578063f2fde38b1461043e576101fb565b80638c65c81f146103a85780638da5cb5b146103cb578063a03e881a146103d3578063b0340123146103f3576101fb565b806380a1f712116100e957806380a1f7121461034d57806383c6aaca146103625780638558d4f3146103755780638876e8a014610395576101fb565b806370a0cf2c14610315578063715018a61461032857806371b7db531461033057806374dd278c14610338576101fb565b806329cb924d116101925780634c7a2603116101615780634c7a2603146102d45780635727e25d146102e75780636852eea0146102ef57806368ad8ae314610302576101fb565b806329cb924d146102a957806331f9e35b146102b15780634000851f146102b95780634666cb0c146102c1576101fb565b806320b373a2116101ce57806320b373a21461026657806322f8e5661461027b57806326af73bf1461028e5780632960b5af14610296576101fb565b80630d434e7e14610200578063110d559a1461022957806313e56d6a1461023e5780631c39c38d14610251575b600080fd5b61021361020e366004612c6c565b610451565b60405161022091906137e3565b60405180910390f35b61023c610237366004612f04565b6109bb565b005b61023c61024c366004612f5e565b610ab5565b610259610b17565b6040516102209190613069565b61026e610b26565b6040516102209190613180565b61023c610289366004612f83565b610b2c565b61026e610ba6565b61023c6102a4366004612c34565b610bac565b61026e610c03565b61026e610ca6565b610259610cac565b61023c6102cf366004612e2b565b610cbb565b61023c6102e2366004612ed3565b610d29565b61026e610fab565b61023c6102fd366004612d62565b610fbd565b61023c610310366004612ddf565b611035565b61023c610323366004612cc2565b61138c565b61023c61150f565b61026e61158e565b610340611594565b60405161022091906131b5565b6103556115a9565b60405161022091906130da565b61023c610370366004612f5e565b611765565b610388610383366004612d30565b6117a0565b6040516102209190613129565b61023c6103a3366004612f83565b6118ec565b6103bb6103b6366004612f83565b611926565b604051610220949392919061381c565b610259611960565b6103e66103e1366004612ddf565b61196f565b6040516102209190613175565b610259611af4565b61026e611b03565b61026e610411366004612ddf565b611b09565b61023c610424366004612e00565b611caa565b610431611dee565b6040516102209190613096565b61023c61044c366004612c34565b611e46565b610459612b52565b600b546001600160a01b03161561049d57600b546001600160a01b0316331461049d5760405162461bcd60e51b815260040161049490613377565b60405180910390fd5b60006104a7610c03565b90506104b4600582611f97565b84106104d25760405162461bcd60e51b8152600401610494906133ae565b6000848152600260205260409020600381015482116104ef612b52565b604080516020810191829052600954855463277166bf60e11b909352909182916001600160a01b031690634ee2cd7e9061052e908d906024860161307d565b60206040518083038186803b15801561054657600080fd5b505afa15801561055a573d6000803e3d6000fd5b505050506040513d601f19601f8201168201806040525081019061057e9190612f9b565b9052905061058a612b52565b6040805160208101918290526009548654630981b24d60e41b909352909182916001600160a01b03169063981b24d0906105c79060248501613180565b60206040518083038186803b1580156105df57600080fd5b505afa1580156105f3573d6000803e3d6000fd5b505050506040513d601f19601f820116820180604052508101906106179190612f9b565b90529050610623612b52565b60408051602081019091526001860154815261063f9083611fbc565b905060405180602001604052806000815250965060005b88518110156108fc5760006106998a838151811061067057fe5b6020026020010151600001518b848151811061068857fe5b602002602001015160200151611ff9565b6003810154600081815260028301602052604090209192508c146106cf5760405162461bcd60e51b81526004016104949061373e565b6106d9828261201f565b6001600160a01b038d166000908152602082905260409020600101546107005750506108f4565b861561077f578a838151811061071257fe5b6020026020010151600001518c8e6001600160a01b03167ff8da7bdb1837995e872689b605d1a2b076db111cb4b15351f835ebd275be423f8e878151811061075657fe5b6020026020010151602001516000604051610772929190613189565b60405180910390a46108d5565b6001600160a01b038d1660009081526020829052604090206001908101546107a991830190612161565b15610860576107b6612b52565b6107d56107c583600101612198565b6107cf8988611fbc565b906121c4565b90506107e18b82612202565b9a508b84815181106107ef57fe5b6020026020010151600001518d8f6001600160a01b03167ff8da7bdb1837995e872689b605d1a2b076db111cb4b15351f835ebd275be423f8f888151811061083357fe5b6020026020010151602001518560000151604051610852929190613189565b60405180910390a4506108d5565b8a838151811061086c57fe5b6020026020010151600001518c8e6001600160a01b03167ff8da7bdb1837995e872689b605d1a2b076db111cb4b15351f835ebd275be423f8e87815181106108b057fe5b60200260200101516020015160006040516108cc929190613189565b60405180910390a45b6001600160a01b038d1660009081526020919091526040812060010155505b600101610656565b50610908876000612225565b156109ae5760095487516040516340c10f1960e01b81526001600160a01b03909216916340c10f1991610940918e919060040161307d565b602060405180830381600087803b15801561095a57600080fd5b505af115801561096e573d6000803e3d6000fd5b505050506040513d601f19601f820116820180604052508101906109929190612dbf565b6109ae5760405162461bcd60e51b815260040161049490613534565b5050505050509392505050565b600b546001600160a01b0316156109e45760405162461bcd60e51b8152600401610494906136d8565b60006109ee610c03565b905060016109fd60058361223c565b6002811115610a0857fe5b14610a255760405162461bcd60e51b815260040161049490613775565b336001600160a01b0316610a71600c5485858080601f01602080910402602001604051908101604052809392919081815260200183838082843760009201919091525061226192505050565b6001600160a01b031614610a975760405162461bcd60e51b8152600401610494906134fd565b6000610aa4600583611f97565b9050610aaf8161238f565b50505050565b610abd61247a565b6001546001600160a01b03908116911614610aea5760405162461bcd60e51b815260040161049490613491565b610af581600161247e565b610b115760405162461bcd60e51b8152600401610494906135fe565b51600655565b6000546001600160a01b031681565b600c5481565b6000546001600160a01b0316610b4157600080fd5b60005460405163117c72b360e11b81526001600160a01b03909116906322f8e56690610b71908490600401613180565b600060405180830381600087803b158015610b8b57600080fd5b505af1158015610b9f573d6000803e3d6000fd5b5050505050565b60085481565b610bb461247a565b6001546001600160a01b03908116911614610be15760405162461bcd60e51b815260040161049490613491565b600b80546001600160a01b0319166001600160a01b0392909216919091179055565b600080546001600160a01b031615610ca05760008054906101000a90046001600160a01b03166001600160a01b03166329cb924d6040518163ffffffff1660e01b815260040160206040518083038186803b158015610c6157600080fd5b505afa158015610c75573d6000803e3d6000fd5b505050506040513d601f19601f82011682018060405250810190610c999190612f9b565b9050610ca3565b50425b90565b60075481565b600b546001600160a01b031681565b610cc6848484611caa565b6000610cdb610cd3610c03565b600590611f97565b90508481336001600160a01b03167f6992efdd7b69c1a8d79212d5ef5fe92118ed053fb7195808a858fa6889a117e98786604051610d1a9291906137ed565b60405180910390a45050505050565b600b546001600160a01b031615610d525760405162461bcd60e51b8152600401610494906136d8565b6000610d5c610c03565b90506001610d6b60058361223c565b6002811115610d7657fe5b14610d935760405162461bcd60e51b8152600401610494906132fe565b6000610da0600583611f97565b90506000610dae8787611ff9565b600083815260028201602090815260408083203384529182905290912080549293509091610dee5760405162461bcd60e51b81526004016104949061359a565b80600001548787338b888e604051602001610e0e96959493929190612ffe565b6040516020818303038152906040528051906020012014610e415760405162461bcd60e51b81526004016104949061324a565b600084815260026020526040902054610e6c5760405162461bcd60e51b81526004016104949061370f565b600084815260026020526040812054908255610e86612b52565b60408051602081019182905260095463277166bf60e11b9092529081906001600160a01b0316634ee2cd7e610ebf33876024860161307d565b60206040518083038186803b158015610ed757600080fd5b505afa158015610eeb573d6000803e3d6000fd5b505050506040513d601f19601f82011682018060405250810190610f0f9190612f9b565b815250905088604051602001610f259190613180565b60408051601f198184030181529190528051602090910120600180850191909155610f539085018a83612495565b8a86336001600160a01b03167fd04931ad32b4f942a0f169443ebd7f85a7d42c8b4310b4792243a065348836078d8d8660000151604051610f9693929190613806565b60405180910390a45050505050505050505050565b6000610fb8610cd3610c03565b905090565b60005b8181101561103057611028838383818110610fd757fe5b90506080020160000135848484818110610fed57fe5b9050608002016020013585858581811061100357fe5b9050608002016040013586868681811061101957fe5b90506080020160600135610d29565b600101610fc0565b505050565b600b546001600160a01b03161561107557600b546001600160a01b031633146110705760405162461bcd60e51b8152600401610494906137ac565b61119e565b600a546040516302abf57960e61b81526000916001600160a01b03169063aafd5e40906110b19067526567697374727960c01b90600401613180565b60206040518083038186803b1580156110c957600080fd5b505afa1580156110dd573d6000803e3d6000fd5b505050506040513d601f19601f820116820180604052508101906111019190612c50565b60405163f9f6b49b60e01b81529091506001600160a01b0382169063f9f6b49b90611130903390600401613069565b60206040518083038186803b15801561114857600080fd5b505afa15801561115c573d6000803e3d6000fd5b505050506040513d601f19601f820116820180604052508101906111809190612dbf565b61119c5760405162461bcd60e51b81526004016104949061366a565b505b60006111a8610c03565b9050808211156111ca5760405162461bcd60e51b8152600401610494906135c7565b6111d261254a565b6001600160a01b03166390978d1b846040518263ffffffff1660e01b81526004016111fd9190613180565b60206040518083038186803b15801561121557600080fd5b505afa158015611229573d6000803e3d6000fd5b505050506040513d601f19601f8201168201806040525081019061124d9190612dbf565b6112695760405162461bcd60e51b815260040161049490613419565b600061127584846125e1565b6000818152600360205260408120919250611291600585611f97565b9050600061129f8383612614565b905060008160038111156112af57fe5b14156113835760006112c283600161269b565b604080516080810182528a815260208082018b8152828401858152600480546060860190815260008d815260039586905287812096518755935160018088019190915592519486019490945592519383019390935581549283018255527f8a35acfbc15ff81a39ae7d344fd709f28e8600b4aa8c65c6b64bfe7fe36bd19b0187905551909150889082907f5d80f93c41e95cacea0b9ce9bb825092d709fa503a70bb26ea3f536bf16946bd90611379908b90613180565b60405180910390a3505b50505050505050565b60005b81811015611030578282828181106113a357fe5b90506020028101906113b59190613882565b6113c3906060810190613837565b1515905061143b576114368383838181106113da57fe5b90506020028101906113ec9190613882565b358484848181106113f957fe5b905060200281019061140b9190613882565b6020013585858581811061141b57fe5b905060200281019061142d9190613882565b60400135611caa565b611507565b61150783838381811061144a57fe5b905060200281019061145c9190613882565b3584848481811061146957fe5b905060200281019061147b9190613882565b6020013585858581811061148b57fe5b905060200281019061149d9190613882565b604001358686868181106114ad57fe5b90506020028101906114bf9190613882565b6114cd906060810190613837565b8080601f016020809104026020016040519081016040528093929190818152602001838380828437600092019190915250610cbb92505050565b60010161138f565b61151761247a565b6001546001600160a01b039081169116146115445760405162461bcd60e51b815260040161049490613491565b6001546040516000916001600160a01b0316907f8be0079c531659141344cd1fd0a4f28419497f9722a3daafe3b4186f6b6457e0908390a3600180546001600160a01b0319169055565b60055481565b6000610fb86115a1610c03565b60059061223c565b606060006115b5610c03565b905060006115c4600583611f97565b6004549091506060906001600160401b03811180156115e257600080fd5b5060405190808252806020026020018201604052801561161c57816020015b611609612b65565b8152602001906001900390816116015790505b5090506000805b6004548110156116c7576000600360006004848154811061164057fe5b9060005260206000200154815260200190815260200160002090506001600381111561166857fe5b6116728287612614565b600381111561167d57fe5b14156116be5760405180604001604052808260000154815260200182600101548152508484815181106116ac57fe5b60209081029190910101526001909201915b50600101611623565b506060816001600160401b03811180156116e057600080fd5b5060405190808252806020026020018201604052801561171a57816020015b611707612b65565b8152602001906001900390816116ff5790505b50905060005b8281101561175b5783818151811061173457fe5b602002602001015182828151811061174857fe5b6020908102919091010152600101611720565b5094505050505090565b61176d61247a565b6001546001600160a01b0390811691161461179a5760405162461bcd60e51b815260040161049490613491565b51600755565b60608082516001600160401b03811180156117ba57600080fd5b506040519080825280602002602001820160405280156117f457816020015b6117e1612b65565b8152602001906001900390816117d95790505b5090506000611804610cd3610c03565b905060005b84518110156118e157600061183b86838151811061182357fe5b60200260200101516000015187848151811061068857fe5b905060006118498285612614565b9050600181600381111561185957fe5b1415611881578385848151811061186c57fe5b602002602001015160200181815250506118a3565b816003015485848151811061189257fe5b602002602001015160200181815250505b808584815181106118b057fe5b60200260200101516000019060038111156118c757fe5b908160038111156118d457fe5b9052505050600101611809565b50909150505b919050565b6118f461247a565b6001546001600160a01b039081169116146119215760405162461bcd60e51b815260040161049490613491565b600855565b6002602081815260009283526040928390208054845180840186526001830154815285519384019095529281015482526003015491929184565b6001546001600160a01b031690565b600b546000906001600160a01b0316156119b257600b546001600160a01b031633146119ad5760405162461bcd60e51b8152600401610494906137ac565b611adb565b600a546040516302abf57960e61b81526000916001600160a01b03169063aafd5e40906119ee9067526567697374727960c01b90600401613180565b60206040518083038186803b158015611a0657600080fd5b505afa158015611a1a573d6000803e3d6000fd5b505050506040513d601f19601f82011682018060405250810190611a3e9190612c50565b60405163f9f6b49b60e01b81529091506001600160a01b0382169063f9f6b49b90611a6d903390600401613069565b60206040518083038186803b158015611a8557600080fd5b505afa158015611a99573d6000803e3d6000fd5b505050506040513d601f19601f82011682018060405250810190611abd9190612dbf565b611ad95760405162461bcd60e51b81526004016104949061366a565b505b6000611ae784846126c0565b5090925050505b92915050565b6009546001600160a01b031681565b60065481565b600b546000906001600160a01b031615611b4c57600b546001600160a01b03163314611b475760405162461bcd60e51b8152600401610494906137ac565b611c75565b600a546040516302abf57960e61b81526000916001600160a01b03169063aafd5e4090611b889067526567697374727960c01b90600401613180565b60206040518083038186803b158015611ba057600080fd5b505afa158015611bb4573d6000803e3d6000fd5b505050506040513d601f19601f82011682018060405250810190611bd89190612c50565b60405163f9f6b49b60e01b81529091506001600160a01b0382169063f9f6b49b90611c07903390600401613069565b60206040518083038186803b158015611c1f57600080fd5b505afa158015611c33573d6000803e3d6000fd5b505050506040513d601f19601f82011682018060405250810190611c579190612dbf565b611c735760405162461bcd60e51b81526004016104949061366a565b505b6000806060611c8486866126c0565b925092509250828190611ae75760405162461bcd60e51b815260040161049491906131c9565b600b546001600160a01b031615611cd35760405162461bcd60e51b8152600401610494906136d8565b80611cf05760405162461bcd60e51b81526004016104949061356b565b6000611cfa610c03565b90506000611d0960058361223c565b6002811115611d1457fe5b14611d315760405162461bcd60e51b8152600401610494906136a1565b6000611d3e600583611f97565b90506000611d4c8686611ff9565b90506001611d5a8284612614565b6003811115611d6557fe5b14611d825760405162461bcd60e51b8152600401610494906134c6565b600381018290556000828152600282016020908152604080832033808552928190529281902087905551889185917f879c67d036f174a10ea491cf7281d05af9b906660b4f26727d866aec0cf9147c90611ddd908b90613180565b60405180910390a450505050505050565b60606004805480602002602001604051908101604052809291908181526020018280548015611e3c57602002820191906000526020600020905b815481526020019060010190808311611e28575b5050505050905090565b611e4e61247a565b6001546001600160a01b03908116911614611e7b5760405162461bcd60e51b815260040161049490613491565b6001600160a01b038116611ea15760405162461bcd60e51b815260040161049490613281565b6001546040516001600160a01b038084169216907f8be0079c531659141344cd1fd0a4f28419497f9722a3daafe3b4186f6b6457e090600090a3600180546001600160a01b0319166001600160a01b0392909216919091179055565b600081604051602001611f109190613038565b604051602081830303815290604052805190602001209050919050565b60008111611f3a57600080fd5b9055565b6000611f498261284b565b5183511115905092915050565b600082611f6557506000611aee565b82820282848281611f7257fe5b0414611f905760405162461bcd60e51b815260040161049490613450565b9392505050565b600080611fa860025b855490611f56565b9050611fb48382612879565b949350505050565b611fc4612b52565b6040805160208101909152825184518291670de0b6b3a764000091611fe891611f56565b81611fef57fe5b0490529392505050565b60006003600061200985856125e1565b8152602001908152602001600020905092915050565b600482015460001914156120325761215d565b60008061204f61204585600301546128bb565b60018501906129ad565b91509150816120705760405162461bcd60e51b815260040161049490613635565b6004805460001981019160009160039183918590811061208c57fe5b90600052602060002001548152602001908152602001600020905085600401548160040181905550600482815481106120c157fe5b906000526020600020015460048760040154815481106120dd57fe5b60009182526020909120015560048054806120f457fe5b60008281526020812082016000199081019190915590810190915560048701558554600387015460018801546040517f67565e6a3e804c4e180134cb2885e32142229de3ca125701318af11658ee498891612150918890613189565b60405180910390a3505050505b5050565b600082600201546040516020016121789190613180565b604051602081830303815290604052805190602001208214905092915050565b6121a0612b52565b50600281015460009081526020918252604090819020815192830190915254815290565b6121cc612b52565b60408051602081019091528251845182916121f9916121f390670de0b6b3a7640000611f56565b90612879565b90529392505050565b61220a612b52565b60408051602081019091528251845182916121f9919061269b565b60006122308261284b565b51835111905092915050565b600061225660028454612250908590612879565b90612a59565b6002811115611f9057fe5b600081516041146122845760405162461bcd60e51b815260040161049490613213565b60208201516040830151606084015160001a7f7fffffffffffffffffffffffffffffff5d576e7357a4501ddfe92f46681b20a08211156122d65760405162461bcd60e51b815260040161049490613335565b8060ff16601b141580156122ee57508060ff16601c14155b1561230b5760405162461bcd60e51b8152600401610494906133d7565b6000600187838686604051600081526020016040526040516123309493929190613197565b6020604051602081039080840390855afa158015612352573d6000803e3d6000fd5b5050604051601f1901519150506001600160a01b0381166123855760405162461bcd60e51b8152600401610494906131dc565b9695505050505050565b6000818152600260205260409020805461215d57600960009054906101000a90046001600160a01b03166001600160a01b0316639711715a6040518163ffffffff1660e01b8152600401602060405180830381600087803b1580156123f357600080fd5b505af1158015612407573d6000803e3d6000fd5b505050506040513d601f19601f8201168201806040525081019061242b9190612f9b565b8155600082815260026020819052604090912060075460018201556006549101556008546124649061245e600585612a9b565b9061269b565b6000838152600260205260409020600301555050565b3390565b60006124898261284b565b51835110905092915050565b6040805160208101909152600184015481526124b19082612202565b516001840155600082815260208481526040918290208251918201909252905481526124dd9082612202565b6000838152602085905260409020905190556002830154821480159061253b57506002830154600090815260208481526040808320815180840183529054815285845286835292819020815192830190915254815261253b91612abf565b15611030575060029190910155565b600a546040516302abf57960e61b81526000916001600160a01b03169063aafd5e409061259190721259195b9d1a599a595c95da1a5d195b1a5cdd606a1b90600401613180565b60206040518083038186803b1580156125a957600080fd5b505afa1580156125bd573d6000803e3d6000fd5b505050506040513d601f19601f82011682018060405250810190610fb89190612c50565b600082826040516020016125f6929190613189565b60405160208183030381529060405280519060200120905092915050565b600082600301546000141561262b57506000611aee565b818360030154101561267f57600383015460008181526002850160205260408120916126649061265a906128bb565b60018401906129ad565b50905080612673576001612676565b60025b92505050611aee565b818360030154141561269357506001611aee565b506003611aee565b600082820183811015611f905760405162461bcd60e51b8152600401610494906132c7565b600080606060006126d18686611ff9565b905060006126e0610cd3610c03565b905060006126ee8383612614565b905060018160038111156126fe57fe5b141561274b576000806040518060400160405280601e81526020017f43757272656e7420766f74696e6720726f756e64206e6f7420656e6465640000815250955095509550505050612844565b600281600381111561275957fe5b14156127a657600383015460008181526002850160205260408120916127829061265a906128bb565b60408051602081019091526000815260019a50909850965061284495505050505050565b60038160038111156127b457fe5b1415612801576000806040518060400160405280601d81526020017f5072696365206973207374696c6c20746f20626520766f746564206f6e000000815250955095509550505050612844565b6000806040518060400160405280601981526020017f507269636520776173206e6576657220726571756573746564000000000000008152509550955095505050505b9250925092565b612853612b52565b60408051602081019091528061287184670de0b6b3a7640000611f56565b905292915050565b6000611f9083836040518060400160405280601a81526020017f536166654d6174683a206469766973696f6e206279207a65726f000000000000815250612ac6565b6128c3612b52565b600082815260026020526040902054806128ee575050604080516020810190915260001981526118e7565b6128f6612b52565b604080516020810191829052600954630981b24d60e41b9092529081906001600160a01b031663981b24d061292e8660248501613180565b60206040518083038186803b15801561294657600080fd5b505afa15801561295a573d6000803e3d6000fd5b505050506040513d601f19601f8201168201806040525081019061297e9190612f9b565b905260008581526002602081815260409283902083519182019093529101548152909150611fb4908290611fbc565b6000806129b8612b52565b6129cd60646129c7603261284b565b90612afd565b6040805160208101909152600187015481529091506129ec9085612abf565b8015612a37575060408051602080820183526001880154825260028801546000908152888252839020835191820190935291548252612a37918391612a3191906121c4565b90612abf565b15612a4c576001925084600201549150612a51565b600092505b509250929050565b6000611f9083836040518060400160405280601881526020017f536166654d6174683a206d6f64756c6f206279207a65726f0000000000000000815250612b1e565b600080612aa86002611fa0565b9050611fb4612ab884600161269b565b8290611f56565b5190511190565b60008183612ae75760405162461bcd60e51b815260040161049491906131c9565b506000838581612af357fe5b0495945050505050565b612b05612b52565b6040805160208101909152835181906121f99085612879565b60008183612b3f5760405162461bcd60e51b815260040161049491906131c9565b50828481612b4957fe5b06949350505050565b6040518060200160405280600081525090565b604080518082019091526000808252602082015290565b600082601f830112612b8c578081fd5b81356001600160401b03811115612ba1578182fd5b6020612bb081828402016138a1565b8281529250808301848201604080850287018401881015612bd057600080fd5b60005b85811015612bf757612be58984612c03565b84529284019291810191600101612bd3565b50505050505092915050565b600060408284031215612c14578081fd5b612c1e60406138a1565b9050813581526020820135602082015292915050565b600060208284031215612c45578081fd5b8135611f90816138d3565b600060208284031215612c61578081fd5b8151611f90816138d3565b600080600060608486031215612c80578182fd5b8335612c8b816138d3565b92506020840135915060408401356001600160401b03811115612cac578182fd5b612cb886828701612b7c565b9150509250925092565b60008060208385031215612cd4578182fd5b82356001600160401b0380821115612cea578384fd5b818501915085601f830112612cfd578384fd5b813581811115612d0b578485fd5b8660208083028501011115612d1e578485fd5b60209290920196919550909350505050565b600060208284031215612d41578081fd5b81356001600160401b03811115612d56578182fd5b611fb484828501612b7c565b60008060208385031215612d74578182fd5b82356001600160401b0380821115612d8a578384fd5b818501915085601f830112612d9d578384fd5b813581811115612dab578485fd5b866020608083028501011115612d1e578485fd5b600060208284031215612dd0578081fd5b81518015158114611f90578182fd5b60008060408385031215612df1578182fd5b50508035926020909101359150565b600080600060608486031215612e14578283fd5b505081359360208301359350604090920135919050565b60008060008060808587031215612e40578081fd5b84359350602085013592506040850135915060608501356001600160401b0380821115612e6b578283fd5b818701915087601f830112612e7e578283fd5b813581811115612e8c578384fd5b612e9f601f8201601f19166020016138a1565b9150808252886020828501011115612eb5578384fd5b612ec68160208401602086016138c7565b5094979396509194505050565b60008060008060808587031215612ee8578182fd5b5050823594602084013594506040840135936060013592509050565b60008060208385031215612f16578182fd5b82356001600160401b0380821115612f2c578384fd5b818501915085601f830112612f3f578384fd5b813581811115612f4d578485fd5b866020828501011115612d1e578485fd5b600060208284031215612f6f578081fd5b612f7960206138a1565b9135825250919050565b600060208284031215612f94578081fd5b5035919050565b600060208284031215612fac578081fd5b5051919050565b60008151808452815b81811015612fd857602081850181015186830182015201612fbc565b81811115612fe95782602083870101525b50601f01601f19169290920160200192915050565b958652602086019490945260609290921b6bffffffffffffffffffffffff1916604085015260548401526074830152609482015260b40190565b7f19457468657265756d205369676e6564204d6573736167653a0a3332000000008152601c810191909152603c0190565b6001600160a01b0391909116815260200190565b6001600160a01b03929092168252602082015260400190565b6020808252825182820181905260009190848201906040850190845b818110156130ce578351835292840192918401916001016130b2565b50909695505050505050565b602080825282518282018190526000919060409081850190868401855b8281101561311c578151805185528601518685015292840192908501906001016130f7565b5091979650505050505050565b602080825282518282018190526000919060409081850190868401855b8281101561311c57815180516004811061315c57fe5b8552860151868501529284019290850190600101613146565b901515815260200190565b90815260200190565b918252602082015260400190565b93845260ff9290921660208401526040830152606082015260800190565b60208101600383106131c357fe5b91905290565b600060208252611f906020830184612fb3565b60208082526018908201527f45434453413a20696e76616c6964207369676e61747572650000000000000000604082015260600190565b6020808252601f908201527f45434453413a20696e76616c6964207369676e6174757265206c656e67746800604082015260600190565b6020808252601c908201527f52657665616c6564206461746120213d20636f6d6d6974206861736800000000604082015260600190565b60208082526026908201527f4f776e61626c653a206e6577206f776e657220697320746865207a65726f206160408201526564647265737360d01b606082015260800190565b6020808252601b908201527f536166654d6174683a206164646974696f6e206f766572666c6f770000000000604082015260600190565b6020808252601d908201527f43616e6e6f742072657665616c20696e20636f6d6d6974207068617365000000604082015260600190565b60208082526022908201527f45434453413a20696e76616c6964207369676e6174757265202773272076616c604082015261756560f01b606082015260800190565b6020808252601b908201527f43616e206f6e6c792063616c6c2066726f6d206d696772617465640000000000604082015260600190565b6020808252600f908201526e125b9d985b1a59081c9bdd5b991259608a1b604082015260600190565b60208082526022908201527f45434453413a20696e76616c6964207369676e6174757265202776272076616c604082015261756560f01b606082015260800190565b6020808252601e908201527f556e737570706f72746564206964656e74696669657220726571756573740000604082015260600190565b60208082526021908201527f536166654d6174683a206d756c7469706c69636174696f6e206f766572666c6f6040820152607760f81b606082015260800190565b6020808252818101527f4f776e61626c653a2063616c6c6572206973206e6f7420746865206f776e6572604082015260600190565b6020808252601e908201527f43616e6e6f7420636f6d6d697420696e61637469766520726571756573740000604082015260600190565b6020808252601b908201527f5369676e6174757265206d757374206d617463682073656e6465720000000000604082015260600190565b6020808252601c908201527f566f74696e6720746f6b656e2069737375616e6365206661696c656400000000604082015260600190565b602080825260159082015274092dcecc2d8d2c840e0e4deecd2c8cac840d0c2e6d605b1b604082015260600190565b602080825260139082015272125b9d985b1a59081a185cda081c995d99585b606a1b604082015260600190565b60208082526018908201527f43616e206f6e6c79207265717565737420696e20706173740000000000000000604082015260600190565b6020808252601d908201527f4741542070657263656e74616765206d757374206265203c2031303025000000604082015260600190565b6020808252818101527f43616e2774207265736f6c766520756e7265736f6c7665642072657175657374604082015260600190565b60208082526019908201527f43616c6c6564206d757374206265207265676973746572656400000000000000604082015260600190565b6020808252601d908201527f43616e6e6f7420636f6d6d697420696e2072657665616c207068617365000000604082015260600190565b6020808252601e908201527f4f6e6c792063616c6c2074686973206966206e6f74206d696772617465640000604082015260600190565b602080825260159082015274149bdd5b99081a185cc81b9bc81cdb985c1cda1bdd605a1b604082015260600190565b6020808252601d908201527f526574726965766520666f7220766f7465732073616d6520726f756e64000000604082015260600190565b6020808252601d908201527f4f6e6c7920736e617073686f7420696e2072657665616c207068617365000000604082015260600190565b6020808252601f908201527f43616c6c6572206d757374206265206d69677261746564206164647265737300604082015260600190565b9051815260200190565b600083825260406020830152611fb46040830184612fb3565b9283526020830191909152604082015260600190565b93845291516020840152516040830152606082015260800190565b6000808335601e1984360301811261384d578283fd5b8301803591506001600160401b03821115613866578283fd5b60200191503681900382131561387b57600080fd5b9250929050565b60008235607e19833603018112613897578182fd5b9190910192915050565b6040518181016001600160401b03811182821017156138bf57600080fd5b604052919050565b82818337506000910152565b6001600160a01b03811681146138e857600080fd5b5056fea2646970667358221220e1e637017ee218837dba3ca82d505013804a1462177ee2b7d2d0d8ba2dee282764736f6c634300060c0033",
  "immutableReferences": {},
  "source": "// SPDX-License-Identifier: AGPL-3.0-only\npragma solidity ^0.6.0;\n\npragma experimental ABIEncoderV2;\n\nimport \"../Voting.sol\";\nimport \"../../../common/implementation/FixedPoint.sol\";\n\n// Test contract used to access internal variables in the Voting contract.\ncontract VotingTest is Voting {\n    constructor(\n        uint256 _phaseLength,\n        FixedPoint.Unsigned memory _gatPercentage,\n        FixedPoint.Unsigned memory _inflationRate,\n        uint256 _rewardsExpirationTimeout,\n        address _votingToken,\n        address _finder,\n        address _timerAddress\n    )\n        public\n        Voting(\n            _phaseLength,\n            _gatPercentage,\n            _inflationRate,\n            _rewardsExpirationTimeout,\n            _votingToken,\n            _finder,\n            _timerAddress\n        )\n    {}\n\n    function getPendingPriceRequestsArray() external view returns (bytes32[] memory) {\n        return pendingPriceRequests;\n    }\n}\n",
  "sourcePath": "/Users/chris/temp/protocol/packages/core/contracts/oracle/implementation/test/VotingTest.sol",
  "compiler": {
    "name": "solc",
    "version": "0.6.12+commit.27d51765.Emscripten.clang"
  },
  "schemaVersion": "3.2.3",
  "updatedAt": "2020-12-21T06:57:53.505Z",
  "devdoc": {
    "kind": "dev",
    "methods": {
      "batchCommit((bytes32,uint256,bytes32,bytes)[])": {
        "details": "Using `encryptedVote` is optional. If included then commitment is emitted in an event. Look at `project-root/common/Constants.js` for the tested maximum number of commitments that can fit in one transaction.",
        "params": {
          "commits": "struct to encapsulate an `identifier`, `time`, `hash` and optional `encryptedVote`."
        }
      },
      "batchReveal((bytes32,uint256,int256,int256)[])": {
        "details": "For more information on reveals, review the comment for `revealVote`.",
        "params": {
          "reveals": "array of the Reveal struct which contains an identifier, time, price and salt."
        }
      },
      "commitAndEmitEncryptedVote(bytes32,uint256,bytes32,bytes)": {
        "details": "An encrypted version of the vote is emitted in an event `EncryptedVote` to allow off-chain infrastructure to retrieve the commit. The contents of `encryptedVote` are never used on chain: it is purely for convenience.",
        "params": {
          "encryptedVote": "offchain encrypted blob containing the voters amount, time and salt.",
          "hash": "keccak256 hash of the price you want to vote for and a `int256 salt`.",
          "identifier": "unique price pair identifier. Eg: BTC/USD price pair.",
          "time": "unix timestamp of for the price request."
        }
      },
      "commitVote(bytes32,uint256,bytes32)": {
        "details": "`identifier`, `time` must correspond to a price request that's currently in the commit phase. Commits can be changed.Since transaction data is public, the salt will be revealed with the vote. While this is the systems expected behavior, voters should never reuse salts. If someone else is able to guess the voted price and knows that a salt will be reused, then they can determine the vote pre-reveal.",
        "params": {
          "hash": "keccak256 hash of the `price`, `salt`, voter `address`, `time`, current `roundId`, and `identifier`.",
          "identifier": "uniquely identifies the committed vote. EG BTC/USD price pair.",
          "time": "unix timestamp of the price being voted on."
        }
      },
      "getCurrentRoundId()": {
        "returns": {
          "_0": "uint256 representing the unique round ID."
        }
      },
      "getCurrentTime()": {
        "returns": {
          "_0": "uint for the current Testable timestamp."
        }
      },
      "getPendingRequests()": {
        "returns": {
          "_0": "pendingRequests array containing identifiers of type `PendingRequest`. and timestamps for all pending requests."
        }
      },
      "getPrice(bytes32,uint256)": {
        "details": "If the price is not available, the method reverts.",
        "params": {
          "identifier": "uniquely identifies the price requested. eg BTC/USD (encoded as bytes32) could be requested.",
          "time": "unix timestamp of for the price request."
        },
        "returns": {
          "_0": "int256 representing the resolved price for the given identifier and timestamp."
        }
      },
      "getPriceRequestStatuses((bytes32,uint256)[])": {
        "details": "If the status for a particular request is NotRequested, the lastVotingRound will always be 0.",
        "params": {
          "requests": "array of type PendingRequest which includes an identifier and timestamp for each request."
        },
        "returns": {
          "_0": "requestStates a list, in the same order as the input list, giving the status of each of the specified price requests."
        }
      },
      "getVotePhase()": {
        "returns": {
          "_0": "Phase to indicate the current phase. Either { Commit, Reveal, NUM_PHASES_PLACEHOLDER }."
        }
      },
      "hasPrice(bytes32,uint256)": {
        "details": "Time must be in the past and the identifier must be supported.",
        "params": {
          "identifier": "uniquely identifies the price requested. eg BTC/USD (encoded as bytes32) could be requested.",
          "time": "unix timestamp of for the price request."
        },
        "returns": {
          "_0": "_hasPrice bool if the DVM has resolved to a price for the given identifier and timestamp."
        }
      },
      "owner()": {
        "details": "Returns the address of the current owner."
      },
      "renounceOwnership()": {
        "details": "Leaves the contract without owner. It will not be possible to call `onlyOwner` functions anymore. Can only be called by the current owner. NOTE: Renouncing ownership will leave the contract without an owner, thereby removing any functionality that is only available to the owner."
      },
      "requestPrice(bytes32,uint256)": {
        "details": "Time must be in the past and the identifier must be supported.",
        "params": {
          "identifier": "uniquely identifies the price requested. eg BTC/USD (encoded as bytes32) could be requested.",
          "time": "unix timestamp for the price request."
        }
      },
      "retrieveRewards(address,uint256,(bytes32,uint256)[])": {
        "details": "Can only retrieve rewards if calling for a valid round and if the call is done within the timeout threshold (not expired).",
        "params": {
          "roundId": "the round from which voting rewards will be retrieved from.",
          "toRetrieve": "array of PendingRequests which rewards are retrieved from.",
          "voterAddress": "voter for which rewards will be retrieved. Does not have to be the caller."
        },
        "returns": {
          "totalRewardToIssue": "total amount of rewards returned to the voter."
        }
      },
      "revealVote(bytes32,uint256,int256,int256)": {
        "details": "The revealed `price`, `salt`, `address`, `time`, `roundId`, and `identifier`, must hash to the latest `hash` that `commitVote()` was called with. Only the committer can reveal their vote.",
        "params": {
          "identifier": "voted on in the commit phase. EG BTC/USD price pair.",
          "price": "voted on during the commit phase.",
          "salt": "value used to hide the commitment price during the commit phase.",
          "time": "specifies the unix timestamp of the price being voted on."
        }
      },
      "setCurrentTime(uint256)": {
        "details": "Will revert if not running in test mode.",
        "params": {
          "time": "timestamp to set current Testable time to."
        }
      },
      "setGatPercentage((uint256))": {
        "details": "This method is public because calldata structs are not currently supported by solidity.",
        "params": {
          "newGatPercentage": "sets the next round's Gat percentage."
        }
      },
      "setInflationRate((uint256))": {
        "details": "This method is public because calldata structs are not currently supported by solidity.",
        "params": {
          "newInflationRate": "sets the next round's inflation rate."
        }
      },
      "setMigrated(address)": {
        "details": "Can only be called by the contract owner.",
        "params": {
          "newVotingAddress": "the newly migrated contract address."
        }
      },
      "setRewardsExpirationTimeout(uint256)": {
        "details": "This change only applies to rounds that have not yet begun.",
        "params": {
          "NewRewardsExpirationTimeout": "how long a caller can wait before choosing to withdraw their rewards."
        }
      },
      "snapshotCurrentRound(bytes)": {
        "details": "This function can be called multiple times, but only the first call per round into this function or `revealVote` will create the round snapshot. Any later calls will be a no-op. Will revert unless called during reveal period.",
        "params": {
          "signature": "signature required to prove caller is an EOA to prevent flash loans from being included in the snapshot."
        }
      },
      "transferOwnership(address)": {
        "details": "Transfers ownership of the contract to a new account (`newOwner`). Can only be called by the current owner."
      }
    },
    "version": 1
  },
  "userdoc": {
    "kind": "user",
    "methods": {
      "batchCommit((bytes32,uint256,bytes32,bytes)[])": {
        "notice": "Submit a batch of commits in a single transaction."
      },
      "batchReveal((bytes32,uint256,int256,int256)[])": {
        "notice": "Reveal multiple votes in a single transaction. Look at `project-root/common/Constants.js` for the tested maximum number of reveals. that can fit in one transaction."
      },
      "commitAndEmitEncryptedVote(bytes32,uint256,bytes32,bytes)": {
        "notice": "commits a vote and logs an event with a data blob, typically an encrypted version of the vote"
      },
      "commitVote(bytes32,uint256,bytes32)": {
        "notice": "Commit a vote for a price request for `identifier` at `time`."
      },
      "getCurrentRoundId()": {
        "notice": "Returns the current round ID, as a function of the current time."
      },
      "getCurrentTime()": {
        "notice": "Gets the current time. Will return the last time set in `setCurrentTime` if running in test mode. Otherwise, it will return the block timestamp."
      },
      "getPendingRequests()": {
        "notice": "Gets the queries that are being voted on this round."
      },
      "getPrice(bytes32,uint256)": {
        "notice": "Gets the price for `identifier` and `time` if it has already been requested and resolved."
      },
      "getPriceRequestStatuses((bytes32,uint256)[])": {
        "notice": "Gets the status of a list of price requests, identified by their identifier and time."
      },
      "getVotePhase()": {
        "notice": "Returns the current voting phase, as a function of the current time."
      },
      "hasPrice(bytes32,uint256)": {
        "notice": "Whether the price for `identifier` and `time` is available."
      },
      "requestPrice(bytes32,uint256)": {
        "notice": "Enqueues a request (if a request isn't already present) for the given `identifier`, `time` pair."
      },
      "retrieveRewards(address,uint256,(bytes32,uint256)[])": {
        "notice": "Retrieves rewards owed for a set of resolved price requests."
      },
      "revealVote(bytes32,uint256,int256,int256)": {
        "notice": "Reveal a previously committed vote for `identifier` at `time`."
      },
      "setCurrentTime(uint256)": {
        "notice": "Sets the current time."
      },
      "setGatPercentage((uint256))": {
        "notice": "Resets the Gat percentage. Note: this change only applies to rounds that have not yet begun."
      },
      "setInflationRate((uint256))": {
        "notice": "Resets the inflation rate. Note: this change only applies to rounds that have not yet begun."
      },
      "setMigrated(address)": {
        "notice": "Disables this Voting contract in favor of the migrated one."
      },
      "setRewardsExpirationTimeout(uint256)": {
        "notice": "Resets the rewards expiration timeout."
      },
      "snapshotCurrentRound(bytes)": {
        "notice": "Snapshot the current round's token balances and lock in the inflation rate and GAT."
      }
    },
    "version": 1
  }
}