{
  "contractName": "FinancialProductLibraryTest",
  "abi": [
    {
      "inputs": [
        {
          "components": [
            {
              "internalType": "uint256",
              "name": "rawValue",
              "type": "uint256"
            }
          ],
          "internalType": "struct FixedPoint.Unsigned",
          "name": "_scalar",
          "type": "tuple"
        }
      ],
      "stateMutability": "nonpayable",
      "type": "constructor"
    },
    {
      "inputs": [],
      "name": "scalar",
      "outputs": [
        {
          "internalType": "uint256",
          "name": "rawValue",
          "type": "uint256"
        }
      ],
      "stateMutability": "view",
      "type": "function"
    },
    {
      "inputs": [
        {
          "components": [
            {
              "internalType": "uint256",
              "name": "rawValue",
              "type": "uint256"
            }
          ],
          "internalType": "struct FixedPoint.Unsigned",
          "name": "oraclePrice",
          "type": "tuple"
        },
        {
          "internalType": "uint256",
          "name": "requestTime",
          "type": "uint256"
        }
      ],
      "name": "transformPrice",
      "outputs": [
        {
          "components": [
            {
              "internalType": "uint256",
              "name": "rawValue",
              "type": "uint256"
            }
          ],
          "internalType": "struct FixedPoint.Unsigned",
          "name": "",
          "type": "tuple"
        }
      ],
      "stateMutability": "view",
      "type": "function"
    },
    {
      "inputs": [
        {
          "components": [
            {
              "internalType": "uint256",
              "name": "rawValue",
              "type": "uint256"
            }
          ],
          "internalType": "struct FixedPoint.Unsigned",
          "name": "collateralRequirement",
          "type": "tuple"
        }
      ],
      "name": "transformCollateralRequirement",
      "outputs": [
        {
          "components": [
            {
              "internalType": "uint256",
              "name": "rawValue",
              "type": "uint256"
            }
          ],
          "internalType": "struct FixedPoint.Unsigned",
          "name": "",
          "type": "tuple"
        }
      ],
      "stateMutability": "view",
      "type": "function"
    }
  ],
  "bytecode": "0x608060405234801561001057600080fd5b5060405161030e38038061030e83398101604081905261002f91610038565b51600055610074565b600060208284031215610049578081fd5b604051602081016001600160401b0381118282101715610067578283fd5b6040529151825250919050565b61028b806100836000396000f3fe608060405234801561001057600080fd5b50600436106100415760003560e01c80630ff49b9014610046578063197f78481461006f578063f45e65d814610082575b600080fd5b6100596100543660046101d7565b610097565b6040516100669190610242565b60405180910390f35b61005961007d3660046101bc565b6100c3565b61008a6100e6565b604051610066919061024c565b61009f61016c565b604080516020810190915260005481526100ba9084906100ec565b90505b92915050565b6100cb61016c565b604080516020810190915260005481526100bd9083906100ec565b60005481565b6100f461016c565b6040805160208101909152825184518291670de0b6b3a76400009161011891610129565b8161011f57fe5b0490529392505050565b600082610138575060006100bd565b8282028284828161014557fe5b04146100ba5760405162461bcd60e51b815260040161016390610201565b60405180910390fd5b6040518060200160405280600081525090565b600060208284031215610190578081fd5b6040516020810181811067ffffffffffffffff821117156101af578283fd5b6040529135825250919050565b6000602082840312156101cd578081fd5b6100ba838361017f565b600080604083850312156101e9578081fd5b6101f3848461017f565b946020939093013593505050565b60208082526021908201527f536166654d6174683a206d756c7469706c69636174696f6e206f766572666c6f6040820152607760f81b606082015260800190565b9051815260200190565b9081526020019056fea2646970667358221220204d01407a44cf50516fb4f90d961d921e1143686a6a0931908d41c60437ad6d64736f6c634300060c0033",
  "immutableReferences": {},
  "source": "pragma solidity ^0.6.0;\npragma experimental ABIEncoderV2;\nimport \"../common/financial-product-libraries/FinancialProductLibrary.sol\";\n\n// Implements a simple FinancialProductLibrary to test price and collateral requirement transoformations.\ncontract FinancialProductLibraryTest is FinancialProductLibrary {\n    FixedPoint.Unsigned public scalar;\n\n    constructor(FixedPoint.Unsigned memory _scalar) public {\n        scalar = _scalar;\n    }\n\n    // Create a simple price transformation function that scales the input price by the scalar for testing.\n    function transformPrice(FixedPoint.Unsigned memory oraclePrice, uint256 requestTime)\n        public\n        view\n        override\n        returns (FixedPoint.Unsigned memory)\n    {\n        return oraclePrice.mul(scalar);\n    }\n\n    // Create a simple price transformation that doubles the input number.\n    // TODO: add intergration to liquidatable for this method.\n    function transformCollateralRequirement(FixedPoint.Unsigned memory collateralRequirement)\n        public\n        view\n        override\n        returns (FixedPoint.Unsigned memory)\n    {\n        return collateralRequirement.mul(scalar);\n    }\n}\n",
  "sourcePath": "/home/circleci/protocol/packages/core/contracts/financial-templates/test/FinancialProductLibaryTest.sol",
  "compiler": {
    "name": "solc",
    "version": "0.6.12+commit.27d51765.Emscripten.clang"
  },
  "schemaVersion": "3.2.3",
  "updatedAt": "2020-11-23T23:49:10.164Z",
  "devdoc": {
    "kind": "dev",
    "methods": {
      "transformCollateralRequirement((uint256))": {
        "params": {
          "collateralRequirement": "input collateral requirement to be transformed."
        },
        "returns": {
          "_0": "transformedCollateralRequirement input collateral requirement with the transformation function applied."
        }
      },
      "transformPrice((uint256),uint256)": {
        "params": {
          "oraclePrice": "input price to be transformed.",
          "requestTime": "timestamp the oraclePrice was requested at."
        },
        "returns": {
          "_0": "transformedPrice input oraclePrice with the transformation function applied."
        }
      }
    },
    "version": 1
  },
  "userdoc": {
    "kind": "user",
    "methods": {
      "transformCollateralRequirement((uint256))": {
        "notice": "Transforms a given collateral requirement using the financial product libraries transformation logic."
      },
      "transformPrice((uint256),uint256)": {
        "notice": "Transforms a given oracle price using the financial product libraries transformation logic."
      }
    },
    "version": 1
  }
}