{
  "contractName": "FinancialContractsAdmin",
  "abi": [
    {
      "anonymous": false,
      "inputs": [
        {
          "indexed": true,
          "internalType": "address",
          "name": "previousOwner",
          "type": "address"
        },
        {
          "indexed": true,
          "internalType": "address",
          "name": "newOwner",
          "type": "address"
        }
      ],
      "name": "OwnershipTransferred",
      "type": "event"
    },
    {
      "inputs": [],
      "name": "owner",
      "outputs": [
        {
          "internalType": "address",
          "name": "",
          "type": "address"
        }
      ],
      "stateMutability": "view",
      "type": "function"
    },
    {
      "inputs": [],
      "name": "renounceOwnership",
      "outputs": [],
      "stateMutability": "nonpayable",
      "type": "function"
    },
    {
      "inputs": [
        {
          "internalType": "address",
          "name": "newOwner",
          "type": "address"
        }
      ],
      "name": "transferOwnership",
      "outputs": [],
      "stateMutability": "nonpayable",
      "type": "function"
    },
    {
      "inputs": [
        {
          "internalType": "address",
          "name": "financialContract",
          "type": "address"
        }
      ],
      "name": "callEmergencyShutdown",
      "outputs": [],
      "stateMutability": "nonpayable",
      "type": "function"
    },
    {
      "inputs": [
        {
          "internalType": "address",
          "name": "financialContract",
          "type": "address"
        }
      ],
      "name": "callRemargin",
      "outputs": [],
      "stateMutability": "nonpayable",
      "type": "function"
    }
  ],
  "bytecode": "0x608060405234801561001057600080fd5b50600061001b61006a565b600080546001600160a01b0319166001600160a01b0383169081178255604051929350917f8be0079c531659141344cd1fd0a4f28419497f9722a3daafe3b4186f6b6457e0908290a35061006e565b3390565b6104718061007d6000396000f3fe608060405234801561001057600080fd5b50600436106100575760003560e01c80630caf41211461005c578063547e1c4014610084578063715018a6146100aa5780638da5cb5b146100b2578063f2fde38b146100d6575b600080fd5b6100826004803603602081101561007257600080fd5b50356001600160a01b03166100fc565b005b6100826004803603602081101561009a57600080fd5b50356001600160a01b03166101b0565b610082610248565b6100ba6102ea565b604080516001600160a01b039092168252519081900360200190f35b610082600480360360208110156100ec57600080fd5b50356001600160a01b03166102f9565b6101046103f1565b6000546001600160a01b03908116911614610154576040805162461bcd60e51b8152602060048201819052602482015260008051602061041c833981519152604482015290519081900360640190fd5b6000819050806001600160a01b0316633403c2fc6040518163ffffffff1660e01b8152600401600060405180830381600087803b15801561019457600080fd5b505af11580156101a8573d6000803e3d6000fd5b505050505050565b6101b86103f1565b6000546001600160a01b03908116911614610208576040805162461bcd60e51b8152602060048201819052602482015260008051602061041c833981519152604482015290519081900360640190fd5b6000819050806001600160a01b031663bda02e776040518163ffffffff1660e01b8152600401600060405180830381600087803b15801561019457600080fd5b6102506103f1565b6000546001600160a01b039081169116146102a0576040805162461bcd60e51b8152602060048201819052602482015260008051602061041c833981519152604482015290519081900360640190fd5b600080546040516001600160a01b03909116907f8be0079c531659141344cd1fd0a4f28419497f9722a3daafe3b4186f6b6457e0908390a3600080546001600160a01b0319169055565b6000546001600160a01b031690565b6103016103f1565b6000546001600160a01b03908116911614610351576040805162461bcd60e51b8152602060048201819052602482015260008051602061041c833981519152604482015290519081900360640190fd5b6001600160a01b0381166103965760405162461bcd60e51b81526004018080602001828103825260268152602001806103f66026913960400191505060405180910390fd5b600080546040516001600160a01b03808516939216917f8be0079c531659141344cd1fd0a4f28419497f9722a3daafe3b4186f6b6457e091a3600080546001600160a01b0319166001600160a01b0392909216919091179055565b339056fe4f776e61626c653a206e6577206f776e657220697320746865207a65726f20616464726573734f776e61626c653a2063616c6c6572206973206e6f7420746865206f776e6572a26469706673582212204a3e27c7ee6d7e3f6cf0ec7b2b7b7a209fed532b3a1ebcf1d75fba4224149f4d64736f6c634300060c0033",
  "immutableReferences": {},
  "source": "// SPDX-License-Identifier: AGPL-3.0-only\npragma solidity ^0.6.0;\n\nimport \"../interfaces/AdministrateeInterface.sol\";\nimport \"@openzeppelin/contracts/access/Ownable.sol\";\n\n/**\n * @title Admin for financial contracts in the UMA system.\n * @dev Allows appropriately permissioned admin roles to interact with financial contracts.\n */\ncontract FinancialContractsAdmin is Ownable {\n    /**\n     * @notice Calls emergency shutdown on the provided financial contract.\n     * @param financialContract address of the FinancialContract to be shut down.\n     */\n    function callEmergencyShutdown(address financialContract) external onlyOwner {\n        AdministrateeInterface administratee = AdministrateeInterface(financialContract);\n        administratee.emergencyShutdown();\n    }\n\n    /**\n     * @notice Calls remargin on the provided financial contract.\n     * @param financialContract address of the FinancialContract to be remargined.\n     */\n    function callRemargin(address financialContract) external onlyOwner {\n        AdministrateeInterface administratee = AdministrateeInterface(financialContract);\n        administratee.remargin();\n    }\n}\n",
  "sourcePath": "/home/circleci/protocol/packages/core/contracts/oracle/implementation/FinancialContractsAdmin.sol",
  "compiler": {
    "name": "solc",
    "version": "0.6.12+commit.27d51765.Emscripten.clang"
  },
  "schemaVersion": "3.2.3",
  "updatedAt": "2020-11-23T23:49:10.173Z",
  "devdoc": {
    "details": "Allows appropriately permissioned admin roles to interact with financial contracts.",
    "kind": "dev",
    "methods": {
      "callEmergencyShutdown(address)": {
        "params": {
          "financialContract": "address of the FinancialContract to be shut down."
        }
      },
      "callRemargin(address)": {
        "params": {
          "financialContract": "address of the FinancialContract to be remargined."
        }
      },
      "owner()": {
        "details": "Returns the address of the current owner."
      },
      "renounceOwnership()": {
        "details": "Leaves the contract without owner. It will not be possible to call `onlyOwner` functions anymore. Can only be called by the current owner. NOTE: Renouncing ownership will leave the contract without an owner, thereby removing any functionality that is only available to the owner."
      },
      "transferOwnership(address)": {
        "details": "Transfers ownership of the contract to a new account (`newOwner`). Can only be called by the current owner."
      }
    },
    "title": "Admin for financial contracts in the UMA system.",
    "version": 1
  },
  "userdoc": {
    "kind": "user",
    "methods": {
      "callEmergencyShutdown(address)": {
        "notice": "Calls emergency shutdown on the provided financial contract."
      },
      "callRemargin(address)": {
        "notice": "Calls remargin on the provided financial contract."
      }
    },
    "version": 1
  }
}