{
  "contractName": "MockFundingRateStore",
  "abi": [
    {
      "inputs": [
        {
          "internalType": "address",
          "name": "_timerAddress",
          "type": "address"
        }
      ],
      "stateMutability": "nonpayable",
      "type": "constructor"
    },
    {
      "inputs": [],
      "name": "getCurrentTime",
      "outputs": [
        {
          "internalType": "uint256",
          "name": "",
          "type": "uint256"
        }
      ],
      "stateMutability": "view",
      "type": "function"
    },
    {
      "inputs": [
        {
          "internalType": "uint256",
          "name": "time",
          "type": "uint256"
        }
      ],
      "name": "setCurrentTime",
      "outputs": [],
      "stateMutability": "nonpayable",
      "type": "function"
    },
    {
      "inputs": [],
      "name": "timerAddress",
      "outputs": [
        {
          "internalType": "address",
          "name": "",
          "type": "address"
        }
      ],
      "stateMutability": "view",
      "type": "function"
    },
    {
      "inputs": [
        {
          "internalType": "address",
          "name": "perpetual",
          "type": "address"
        },
        {
          "internalType": "uint256",
          "name": "time",
          "type": "uint256"
        },
        {
          "components": [
            {
              "internalType": "int256",
              "name": "rawValue",
              "type": "int256"
            }
          ],
          "internalType": "struct FixedPoint.Signed",
          "name": "fundingRate",
          "type": "tuple"
        }
      ],
      "name": "setFundingRate",
      "outputs": [],
      "stateMutability": "nonpayable",
      "type": "function"
    },
    {
      "inputs": [
        {
          "internalType": "address",
          "name": "perpetual",
          "type": "address"
        }
      ],
      "name": "getFundingRateForContract",
      "outputs": [
        {
          "components": [
            {
              "internalType": "int256",
              "name": "rawValue",
              "type": "int256"
            }
          ],
          "internalType": "struct FixedPoint.Signed",
          "name": "",
          "type": "tuple"
        }
      ],
      "stateMutability": "view",
      "type": "function"
    },
    {
      "inputs": [
        {
          "internalType": "address",
          "name": "perpetual",
          "type": "address"
        },
        {
          "components": [
            {
              "internalType": "uint256",
              "name": "rawValue",
              "type": "uint256"
            }
          ],
          "internalType": "struct FixedPoint.Unsigned",
          "name": "amount",
          "type": "tuple"
        }
      ],
      "name": "chargeFundingRateFees",
      "outputs": [],
      "stateMutability": "nonpayable",
      "type": "function"
    },
    {
      "inputs": [
        {
          "internalType": "address",
          "name": "perpetual",
          "type": "address"
        },
        {
          "components": [
            {
              "internalType": "uint256",
              "name": "rawValue",
              "type": "uint256"
            }
          ],
          "internalType": "struct FixedPoint.Unsigned",
          "name": "rewardRate",
          "type": "tuple"
        }
      ],
      "name": "setRewardRate",
      "outputs": [],
      "stateMutability": "nonpayable",
      "type": "function"
    }
  ],
  "bytecode": "0x608060405234801561001057600080fd5b506040516106fb3803806106fb83398101604081905261002f91610054565b600080546001600160a01b0319166001600160a01b0392909216919091179055610082565b600060208284031215610065578081fd5b81516001600160a01b038116811461007b578182fd5b9392505050565b61066a806100916000396000f3fe608060405234801561001057600080fd5b506004361061007d5760003560e01c806324b41f681161005b57806324b41f68146100c857806329cb924d146100e8578063be6bfb5b146100fd578063eb9c7de1146101105761007d565b80630e2cbabc146100825780631c39c38d1461009757806322f8e566146100b5575b600080fd5b61009561009036600461044f565b610123565b005b61009f6101a6565b6040516100ac9190610583565b60405180910390f35b6100956100c3366004610553565b6101b5565b6100db6100d636600461042d565b61022f565b6040516100ac91906105d8565b6100f0610262565b6040516100ac91906105ec565b61009561010b3660046104d9565b610305565b61009561011e36600461048d565b610366565b6040516340704d6760e01b81526001600160a01b038316906340704d679061014f9084906004016105e2565b602060405180830381600087803b15801561016957600080fd5b505af115801561017d573d6000803e3d6000fd5b505050506040513d601f19601f820116820180604052508101906101a1919061052e565b505050565b6000546001600160a01b031681565b6000546001600160a01b03166101ca57600080fd5b60005460405163117c72b360e11b81526001600160a01b03909116906322f8e566906101fa9084906004016105ec565b600060405180830381600087803b15801561021457600080fd5b505af1158015610228573d6000803e3d6000fd5b5050505050565b610237610403565b506001600160a01b031660009081526001602090815260409182902082519182019092529054815290565b600080546001600160a01b0316156102ff5760008054906101000a90046001600160a01b03166001600160a01b03166329cb924d6040518163ffffffff1660e01b815260040160206040518083038186803b1580156102c057600080fd5b505afa1580156102d4573d6000803e3d6000fd5b505050506040513d601f19601f820116820180604052508101906102f8919061056b565b9050610302565b50425b90565b60405180606001604052808281526020018381526020016103266000610389565b90526001600160a01b0390931660009081526001602081815260409283902086515181559086015191810191909155930151516002909301929092555050565b6001600160a01b0390911660009081526001602052604090209051600290910155565b610391610403565b6040805160208101909152806103af84670de0b6b3a76400006103b7565b905292915050565b6000826103c6575060006103fd565b828202828482816103d357fe5b04146103fa5760405162461bcd60e51b81526004016103f190610597565b60405180910390fd5b90505b92915050565b6040518060200160405280600081525090565b80356001600160a01b03811681146103fd57600080fd5b60006020828403121561043e578081fd5b6104488383610416565b9392505050565b6000808284036040811215610462578182fd5b61046c8585610416565b92506020601f198201121561047f578182fd5b506020830190509250929050565b60008082840360408112156104a0578283fd5b83356104ab8161061c565b92506020601f19820112156104be578182fd5b506104c960206105f5565b6020939093013583525092909150565b600080600083850360608112156104ee578182fd5b84356104f98161061c565b93506020858101359350603f1982011215610512578182fd5b5061051d60206105f5565b604094909401358452509093909250565b60006020828403121561053f578081fd5b61054960206105f5565b9151825250919050565b600060208284031215610564578081fd5b5035919050565b60006020828403121561057c578081fd5b5051919050565b6001600160a01b0391909116815260200190565b60208082526021908201527f536166654d6174683a206d756c7469706c69636174696f6e206f766572666c6f6040820152607760f81b606082015260800190565b9051815260200190565b9035815260200190565b90815260200190565b60405181810167ffffffffffffffff8111828210171561061457600080fd5b604052919050565b6001600160a01b038116811461063157600080fd5b5056fea2646970667358221220ca426aa5207a5940d416bccbcf9190df5f3574db2014863869293df4ece132c464736f6c634300060c0033",
  "immutableReferences": {},
  "source": "// SPDX-License-Identifier: AGPL-3.0-only\npragma solidity ^0.6.0;\n\npragma experimental ABIEncoderV2;\n\nimport \"../interfaces/FundingRateStoreInterface.sol\";\nimport \"../../../common/implementation/Testable.sol\";\nimport \"../../../common/implementation/FixedPoint.sol\";\nimport \"../../../oracle/interfaces/FinderInterface.sol\";\nimport \"../../../oracle/implementation/Constants.sol\";\nimport \"../../../oracle/interfaces/IdentifierWhitelistInterface.sol\";\nimport \"../../perpetual-multiparty/PerpetualInterface.sol\";\n\n// A mock funding rate store used for testing.\ncontract MockFundingRateStore is FundingRateStoreInterface, Testable {\n    using FixedPoint for FixedPoint.Unsigned;\n\n    struct FundingRate {\n        // Represented in wei as a % of token amount charged per second.\n        // e.g. fundingRate = 0.01 means 1% of token amount charged per second.\n        FixedPoint.Signed fundingRate;\n        uint256 timestamp; // Time the verified funding rate became available.\n        FixedPoint.Unsigned rewardRate;\n    }\n\n    mapping(address => FundingRate) private fundingRates;\n\n    constructor(address _timerAddress) public Testable(_timerAddress) {}\n\n    // Sets the funding rate for a given identifier.\n    function setFundingRate(\n        address perpetual,\n        uint256 time,\n        FixedPoint.Signed memory fundingRate\n    ) external {\n        fundingRates[perpetual] = FundingRate(fundingRate, time, FixedPoint.fromUnscaledUint(0));\n    }\n\n    function getFundingRateForContract(address perpetual) external view override returns (FixedPoint.Signed memory) {\n        return fundingRates[perpetual].fundingRate;\n    }\n\n    function chargeFundingRateFees(address perpetual, FixedPoint.Unsigned calldata amount) external {\n        PerpetualInterface(perpetual).withdrawFundingRateFees(amount);\n    }\n\n    function setRewardRate(address perpetual, FixedPoint.Unsigned memory rewardRate) external override {\n        fundingRates[perpetual].rewardRate = rewardRate;\n    }\n}\n",
  "sourcePath": "/home/circleci/protocol/packages/core/contracts/financial-templates/funding-rate-store/test/MockFundingRateStore.sol",
  "compiler": {
    "name": "solc",
    "version": "0.6.12+commit.27d51765.Emscripten.clang"
  },
  "schemaVersion": "3.2.3",
  "updatedAt": "2020-11-23T23:49:10.121Z",
  "devdoc": {
    "kind": "dev",
    "methods": {
      "getCurrentTime()": {
        "returns": {
          "_0": "uint for the current Testable timestamp."
        }
      },
      "getFundingRateForContract(address)": {
        "details": "This method should never revert.",
        "params": {
          "perpetual": "perpetual contract whose funding rate identifier that the calling contracts wants to get a funding rate for."
        },
        "returns": {
          "_0": "FixedPoint.Signed representing the funding rate for the given contract. 0.01 would represent a funding rate of 1% per second. -0.01 would represent a negative funding rate of -1% per second."
        }
      },
      "setCurrentTime(uint256)": {
        "details": "Will revert if not running in test mode.",
        "params": {
          "time": "timestamp to set current Testable time to."
        }
      },
      "setRewardRate(address,(uint256))": {
        "details": "Callable only by the Perpetual contract."
      }
    },
    "version": 1
  },
  "userdoc": {
    "kind": "user",
    "methods": {
      "getCurrentTime()": {
        "notice": "Gets the current time. Will return the last time set in `setCurrentTime` if running in test mode. Otherwise, it will return the block timestamp."
      },
      "getFundingRateForContract(address)": {
        "notice": "Gets the latest funding rate for a perpetual contract."
      },
      "setCurrentTime(uint256)": {
        "notice": "Sets the current time."
      },
      "setRewardRate(address,(uint256))": {
        "notice": "Set the reward rate for a specific `perpetual` contract."
      }
    },
    "version": 1
  }
}