{
  "contractName": "OneSplitMock",
  "abi": [
    {
      "stateMutability": "payable",
      "type": "receive"
    },
    {
      "inputs": [
        {
          "internalType": "address",
          "name": "from",
          "type": "address"
        },
        {
          "internalType": "address",
          "name": "to",
          "type": "address"
        },
        {
          "internalType": "uint256",
          "name": "price",
          "type": "uint256"
        }
      ],
      "name": "setPrice",
      "outputs": [],
      "stateMutability": "nonpayable",
      "type": "function"
    },
    {
      "inputs": [
        {
          "internalType": "address",
          "name": "fromToken",
          "type": "address"
        },
        {
          "internalType": "address",
          "name": "destToken",
          "type": "address"
        },
        {
          "internalType": "uint256",
          "name": "amount",
          "type": "uint256"
        },
        {
          "internalType": "uint256",
          "name": "parts",
          "type": "uint256"
        },
        {
          "internalType": "uint256",
          "name": "flags",
          "type": "uint256"
        }
      ],
      "name": "getExpectedReturn",
      "outputs": [
        {
          "internalType": "uint256",
          "name": "returnAmount",
          "type": "uint256"
        },
        {
          "internalType": "uint256[]",
          "name": "distribution",
          "type": "uint256[]"
        }
      ],
      "stateMutability": "view",
      "type": "function"
    },
    {
      "inputs": [
        {
          "internalType": "address",
          "name": "fromToken",
          "type": "address"
        },
        {
          "internalType": "address",
          "name": "destToken",
          "type": "address"
        },
        {
          "internalType": "uint256",
          "name": "amount",
          "type": "uint256"
        },
        {
          "internalType": "uint256",
          "name": "minReturn",
          "type": "uint256"
        },
        {
          "internalType": "uint256[]",
          "name": "distribution",
          "type": "uint256[]"
        },
        {
          "internalType": "uint256",
          "name": "flags",
          "type": "uint256"
        }
      ],
      "name": "swap",
      "outputs": [
        {
          "internalType": "uint256",
          "name": "returnAmount",
          "type": "uint256"
        }
      ],
      "stateMutability": "payable",
      "type": "function"
    }
  ],
  "bytecode": "0x608060405234801561001057600080fd5b506104c2806100206000396000f3fe6080604052600436106100385760003560e01c8063085e2c5b14610044578063792eb791146100ee578063e2a7515e146101335761003f565b3661003f57005b600080fd5b34801561005057600080fd5b50610093600480360360a081101561006757600080fd5b506001600160a01b0381358116916020810135909116906040810135906060810135906080013561020f565b6040518083815260200180602001828103825283818151815260200191508051906020019060200280838360005b838110156100d95781810151838201526020016100c1565b50505050905001935050505060405180910390f35b3480156100fa57600080fd5b506101316004803603606081101561011157600080fd5b506001600160a01b03813581169160208101359091169060400135610264565b005b6101fd600480360360c081101561014957600080fd5b6001600160a01b03823581169260208101359091169160408201359160608101359181019060a08101608082013564010000000081111561018957600080fd5b82018360208201111561019b57600080fd5b803590602001918460208302840111640100000000831117156101bd57600080fd5b91908080602002602001604051908101604052809392919081815260200183836020028082843760009201919091525092955050913592506102bb915050565b60408051918252519081900360200190f35b5050604080516bffffffffffffffffffffffff19606095861b811660208084019190915294861b1660348201528151602881830301815260489091018252805190840120600090815292839052909120540291565b604080516bffffffffffffffffffffffff19606095861b81166020808401919091529490951b9094166034850152805160288186030181526048909401815283519383019390932060009081529182905291902055565b600080856000808a8a60405160200180836001600160a01b031660601b8152601401826001600160a01b031660601b8152601401925050506040516020818303038152906040528051906020012081526020019081526020016000205402905084811015610369576040805162461bcd60e51b8152602060048201526016602482015275135a5b88105b5bdd5b9d081b9bdd081c995858da195960521b604482015290519081900360640190fd5b6001600160a01b03871673eeeeeeeeeeeeeeeeeeeeeeeeeeeeeeeeeeeeeeee14156103c157604051339082156108fc029083906000818181858888f193505050501580156103bb573d6000803e3d6000fd5b50610481565b6040805163a9059cbb60e01b81523360048201526024810183905290516001600160a01b0389169163a9059cbb9160448083019260209291908290030181600087803b15801561041057600080fd5b505af1158015610424573d6000803e3d6000fd5b505050506040513d602081101561043a57600080fd5b5051610481576040805162461bcd60e51b8152602060048201526011602482015270195c98cc8c0b5cd95b990b59985a5b1959607a1b604482015290519081900360640190fd5b50969550505050505056fea26469706673582212209ef8e1d3fba9b441f12ebfdbc7d7ca26d81356a3e9363229323fbb962926b44b64736f6c634300060c0033",
  "immutableReferences": {},
  "source": "// SPDX-License-Identifier: AGPL-3.0-only\npragma solidity ^0.6.0;\n\nimport \"../interfaces/OneSplit.sol\";\n\nimport \"@openzeppelin/contracts/token/ERC20/IERC20.sol\";\n\n/**\n * @title OneSplit Mock that allows manual price injection.\n */\ncontract OneSplitMock is OneSplit {\n    address constant ETH_ADDRESS = 0xEeeeeEeeeEeEeeEeEeEeeEEEeeeeEeeeeeeeEEeE;\n\n    mapping(bytes32 => uint256) prices;\n\n    receive() external payable {}\n\n    // Sets price of 1 FROM = <PRICE> TO\n    function setPrice(\n        address from,\n        address to,\n        uint256 price\n    ) external {\n        prices[keccak256(abi.encodePacked(from, to))] = price;\n    }\n\n    function getExpectedReturn(\n        address fromToken,\n        address destToken,\n        uint256 amount,\n        uint256 parts,\n        uint256 flags // See constants in IOneSplit.sol\n    ) public view override returns (uint256 returnAmount, uint256[] memory distribution) {\n        returnAmount = prices[keccak256(abi.encodePacked(fromToken, destToken))] * amount;\n\n        return (returnAmount, distribution);\n    }\n\n    function swap(\n        address fromToken,\n        address destToken,\n        uint256 amount,\n        uint256 minReturn,\n        uint256[] memory distribution,\n        uint256 flags\n    ) public payable override returns (uint256 returnAmount) {\n        uint256 amountReturn = prices[keccak256(abi.encodePacked(fromToken, destToken))] * amount;\n\n        require(amountReturn >= minReturn, \"Min Amount not reached\");\n\n        if (destToken == ETH_ADDRESS) {\n            msg.sender.transfer(amountReturn);\n        } else {\n            require(IERC20(destToken).transfer(msg.sender, amountReturn), \"erc20-send-failed\");\n        }\n    }\n}\n",
  "sourcePath": "/home/circleci/protocol/packages/core/contracts/common/test/OneSplitMock.sol",
  "compiler": {
    "name": "solc",
    "version": "0.6.12+commit.27d51765.Emscripten.clang"
  },
  "schemaVersion": "3.2.3",
  "updatedAt": "2020-11-23T23:49:10.008Z",
  "devdoc": {
    "kind": "dev",
    "methods": {},
    "title": "OneSplit Mock that allows manual price injection.",
    "version": 1
  },
  "userdoc": {
    "kind": "user",
    "methods": {},
    "version": 1
  }
}