{
  "contractName": "PerpetualPositionManager",
  "abi": [
    {
      "inputs": [
        {
          "internalType": "uint256",
          "name": "_withdrawalLiveness",
          "type": "uint256"
        },
        {
          "internalType": "address",
          "name": "_collateralAddress",
          "type": "address"
        },
        {
          "internalType": "address",
          "name": "_tokenAddress",
          "type": "address"
        },
        {
          "internalType": "address",
          "name": "_finderAddress",
          "type": "address"
        },
        {
          "internalType": "bytes32",
          "name": "_priceIdentifier",
          "type": "bytes32"
        },
        {
          "internalType": "bytes32",
          "name": "_fundingRateIdentifier",
          "type": "bytes32"
        },
        {
          "components": [
            {
              "internalType": "uint256",
              "name": "rawValue",
              "type": "uint256"
            }
          ],
          "internalType": "struct FixedPoint.Unsigned",
          "name": "_fundingRateRewardRate",
          "type": "tuple"
        },
        {
          "components": [
            {
              "internalType": "uint256",
              "name": "rawValue",
              "type": "uint256"
            }
          ],
          "internalType": "struct FixedPoint.Unsigned",
          "name": "_minSponsorTokens",
          "type": "tuple"
        },
        {
          "internalType": "address",
          "name": "_timerAddress",
          "type": "address"
        },
        {
          "internalType": "address",
          "name": "_excessTokenBeneficiary",
          "type": "address"
        }
      ],
      "stateMutability": "nonpayable",
      "type": "constructor"
    },
    {
      "anonymous": false,
      "inputs": [
        {
          "indexed": true,
          "internalType": "address",
          "name": "sponsor",
          "type": "address"
        },
        {
          "indexed": true,
          "internalType": "uint256",
          "name": "collateralAmount",
          "type": "uint256"
        }
      ],
      "name": "Deposit",
      "type": "event"
    },
    {
      "anonymous": false,
      "inputs": [
        {
          "indexed": true,
          "internalType": "address",
          "name": "caller",
          "type": "address"
        },
        {
          "indexed": false,
          "internalType": "uint256",
          "name": "shutdownTimestamp",
          "type": "uint256"
        }
      ],
      "name": "EmergencyShutdown",
      "type": "event"
    },
    {
      "anonymous": false,
      "inputs": [
        {
          "indexed": true,
          "internalType": "address",
          "name": "sponsor",
          "type": "address"
        }
      ],
      "name": "EndedSponsorPosition",
      "type": "event"
    },
    {
      "anonymous": false,
      "inputs": [
        {
          "indexed": true,
          "internalType": "uint256",
          "name": "amount",
          "type": "uint256"
        }
      ],
      "name": "FinalFeesPaid",
      "type": "event"
    },
    {
      "anonymous": false,
      "inputs": [
        {
          "indexed": true,
          "internalType": "uint256",
          "name": "fundingRateFee",
          "type": "uint256"
        }
      ],
      "name": "FundingRateFeesWithdrawn",
      "type": "event"
    },
    {
      "anonymous": false,
      "inputs": [
        {
          "indexed": true,
          "internalType": "uint256",
          "name": "newMultiplier",
          "type": "uint256"
        },
        {
          "indexed": false,
          "internalType": "uint256",
          "name": "lastUpdateTime",
          "type": "uint256"
        },
        {
          "indexed": false,
          "internalType": "uint256",
          "name": "updateTime",
          "type": "uint256"
        },
        {
          "indexed": true,
          "internalType": "uint256",
          "name": "paymentPeriod",
          "type": "uint256"
        },
        {
          "indexed": true,
          "internalType": "int256",
          "name": "latestFundingRate",
          "type": "int256"
        },
        {
          "indexed": false,
          "internalType": "int256",
          "name": "periodRate",
          "type": "int256"
        }
      ],
      "name": "NewFundingRate",
      "type": "event"
    },
    {
      "anonymous": false,
      "inputs": [
        {
          "indexed": true,
          "internalType": "address",
          "name": "sponsor",
          "type": "address"
        }
      ],
      "name": "NewSponsor",
      "type": "event"
    },
    {
      "anonymous": false,
      "inputs": [
        {
          "indexed": true,
          "internalType": "address",
          "name": "sponsor",
          "type": "address"
        },
        {
          "indexed": true,
          "internalType": "uint256",
          "name": "collateralAmount",
          "type": "uint256"
        },
        {
          "indexed": true,
          "internalType": "uint256",
          "name": "tokenAmount",
          "type": "uint256"
        }
      ],
      "name": "PositionCreated",
      "type": "event"
    },
    {
      "anonymous": false,
      "inputs": [
        {
          "indexed": true,
          "internalType": "address",
          "name": "sponsor",
          "type": "address"
        },
        {
          "indexed": true,
          "internalType": "uint256",
          "name": "collateralAmount",
          "type": "uint256"
        },
        {
          "indexed": true,
          "internalType": "uint256",
          "name": "tokenAmount",
          "type": "uint256"
        }
      ],
      "name": "Redeem",
      "type": "event"
    },
    {
      "anonymous": false,
      "inputs": [
        {
          "indexed": true,
          "internalType": "uint256",
          "name": "regularFee",
          "type": "uint256"
        },
        {
          "indexed": true,
          "internalType": "uint256",
          "name": "lateFee",
          "type": "uint256"
        }
      ],
      "name": "RegularFeesPaid",
      "type": "event"
    },
    {
      "anonymous": false,
      "inputs": [
        {
          "indexed": true,
          "internalType": "address",
          "name": "sponsor",
          "type": "address"
        },
        {
          "indexed": true,
          "internalType": "uint256",
          "name": "numTokensRepaid",
          "type": "uint256"
        },
        {
          "indexed": true,
          "internalType": "uint256",
          "name": "newTokenCount",
          "type": "uint256"
        }
      ],
      "name": "Repay",
      "type": "event"
    },
    {
      "anonymous": false,
      "inputs": [
        {
          "indexed": true,
          "internalType": "address",
          "name": "sponsor",
          "type": "address"
        },
        {
          "indexed": true,
          "internalType": "uint256",
          "name": "collateralAmount",
          "type": "uint256"
        }
      ],
      "name": "RequestWithdrawal",
      "type": "event"
    },
    {
      "anonymous": false,
      "inputs": [
        {
          "indexed": true,
          "internalType": "address",
          "name": "sponsor",
          "type": "address"
        },
        {
          "indexed": true,
          "internalType": "uint256",
          "name": "collateralAmount",
          "type": "uint256"
        }
      ],
      "name": "RequestWithdrawalCanceled",
      "type": "event"
    },
    {
      "anonymous": false,
      "inputs": [
        {
          "indexed": true,
          "internalType": "address",
          "name": "sponsor",
          "type": "address"
        },
        {
          "indexed": true,
          "internalType": "uint256",
          "name": "collateralAmount",
          "type": "uint256"
        }
      ],
      "name": "RequestWithdrawalExecuted",
      "type": "event"
    },
    {
      "anonymous": false,
      "inputs": [
        {
          "indexed": true,
          "internalType": "address",
          "name": "caller",
          "type": "address"
        },
        {
          "indexed": true,
          "internalType": "uint256",
          "name": "collateralReturned",
          "type": "uint256"
        },
        {
          "indexed": true,
          "internalType": "uint256",
          "name": "tokensBurned",
          "type": "uint256"
        }
      ],
      "name": "SettleEmergencyShutdown",
      "type": "event"
    },
    {
      "anonymous": false,
      "inputs": [
        {
          "indexed": true,
          "internalType": "address",
          "name": "sponsor",
          "type": "address"
        },
        {
          "indexed": true,
          "internalType": "uint256",
          "name": "collateralAmount",
          "type": "uint256"
        }
      ],
      "name": "Withdrawal",
      "type": "event"
    },
    {
      "inputs": [],
      "name": "collateralCurrency",
      "outputs": [
        {
          "internalType": "contract IERC20",
          "name": "",
          "type": "address"
        }
      ],
      "stateMutability": "view",
      "type": "function"
    },
    {
      "inputs": [],
      "name": "cumulativeFeeMultiplier",
      "outputs": [
        {
          "internalType": "uint256",
          "name": "rawValue",
          "type": "uint256"
        }
      ],
      "stateMutability": "view",
      "type": "function"
    },
    {
      "inputs": [],
      "name": "cumulativeFundingRateMultiplier",
      "outputs": [
        {
          "internalType": "uint256",
          "name": "rawValue",
          "type": "uint256"
        }
      ],
      "stateMutability": "view",
      "type": "function"
    },
    {
      "inputs": [],
      "name": "emergencyShutdownPrice",
      "outputs": [
        {
          "internalType": "uint256",
          "name": "rawValue",
          "type": "uint256"
        }
      ],
      "stateMutability": "view",
      "type": "function"
    },
    {
      "inputs": [],
      "name": "emergencyShutdownTimestamp",
      "outputs": [
        {
          "internalType": "uint256",
          "name": "",
          "type": "uint256"
        }
      ],
      "stateMutability": "view",
      "type": "function"
    },
    {
      "inputs": [],
      "name": "excessTokenBeneficiary",
      "outputs": [
        {
          "internalType": "address",
          "name": "",
          "type": "address"
        }
      ],
      "stateMutability": "view",
      "type": "function"
    },
    {
      "inputs": [],
      "name": "finder",
      "outputs": [
        {
          "internalType": "contract FinderInterface",
          "name": "",
          "type": "address"
        }
      ],
      "stateMutability": "view",
      "type": "function"
    },
    {
      "inputs": [],
      "name": "fundingRateIdentifier",
      "outputs": [
        {
          "internalType": "bytes32",
          "name": "",
          "type": "bytes32"
        }
      ],
      "stateMutability": "view",
      "type": "function"
    },
    {
      "inputs": [],
      "name": "getCollateralCurrency",
      "outputs": [
        {
          "internalType": "contract IERC20",
          "name": "",
          "type": "address"
        }
      ],
      "stateMutability": "view",
      "type": "function"
    },
    {
      "inputs": [],
      "name": "getCurrentTime",
      "outputs": [
        {
          "internalType": "uint256",
          "name": "",
          "type": "uint256"
        }
      ],
      "stateMutability": "view",
      "type": "function"
    },
    {
      "inputs": [],
      "name": "getFundingRateIdentifier",
      "outputs": [
        {
          "internalType": "bytes32",
          "name": "",
          "type": "bytes32"
        }
      ],
      "stateMutability": "view",
      "type": "function"
    },
    {
      "inputs": [],
      "name": "lastUpdateTime",
      "outputs": [
        {
          "internalType": "uint256",
          "name": "",
          "type": "uint256"
        }
      ],
      "stateMutability": "view",
      "type": "function"
    },
    {
      "inputs": [],
      "name": "minSponsorTokens",
      "outputs": [
        {
          "internalType": "uint256",
          "name": "rawValue",
          "type": "uint256"
        }
      ],
      "stateMutability": "view",
      "type": "function"
    },
    {
      "inputs": [],
      "name": "payRegularFees",
      "outputs": [
        {
          "components": [
            {
              "internalType": "uint256",
              "name": "rawValue",
              "type": "uint256"
            }
          ],
          "internalType": "struct FixedPoint.Unsigned",
          "name": "totalPaid",
          "type": "tuple"
        }
      ],
      "stateMutability": "nonpayable",
      "type": "function"
    },
    {
      "inputs": [],
      "name": "pfc",
      "outputs": [
        {
          "components": [
            {
              "internalType": "uint256",
              "name": "rawValue",
              "type": "uint256"
            }
          ],
          "internalType": "struct FixedPoint.Unsigned",
          "name": "",
          "type": "tuple"
        }
      ],
      "stateMutability": "view",
      "type": "function"
    },
    {
      "inputs": [
        {
          "internalType": "address",
          "name": "",
          "type": "address"
        }
      ],
      "name": "positions",
      "outputs": [
        {
          "components": [
            {
              "internalType": "uint256",
              "name": "rawValue",
              "type": "uint256"
            }
          ],
          "internalType": "struct FixedPoint.Unsigned",
          "name": "tokensOutstanding",
          "type": "tuple"
        },
        {
          "internalType": "uint256",
          "name": "withdrawalRequestPassTimestamp",
          "type": "uint256"
        },
        {
          "components": [
            {
              "internalType": "uint256",
              "name": "rawValue",
              "type": "uint256"
            }
          ],
          "internalType": "struct FixedPoint.Unsigned",
          "name": "withdrawalRequestAmount",
          "type": "tuple"
        },
        {
          "components": [
            {
              "internalType": "uint256",
              "name": "rawValue",
              "type": "uint256"
            }
          ],
          "internalType": "struct FixedPoint.Unsigned",
          "name": "rawCollateral",
          "type": "tuple"
        }
      ],
      "stateMutability": "view",
      "type": "function"
    },
    {
      "inputs": [],
      "name": "priceIdentifier",
      "outputs": [
        {
          "internalType": "bytes32",
          "name": "",
          "type": "bytes32"
        }
      ],
      "stateMutability": "view",
      "type": "function"
    },
    {
      "inputs": [],
      "name": "rawTotalPositionCollateral",
      "outputs": [
        {
          "internalType": "uint256",
          "name": "rawValue",
          "type": "uint256"
        }
      ],
      "stateMutability": "view",
      "type": "function"
    },
    {
      "inputs": [
        {
          "internalType": "uint256",
          "name": "time",
          "type": "uint256"
        }
      ],
      "name": "setCurrentTime",
      "outputs": [],
      "stateMutability": "nonpayable",
      "type": "function"
    },
    {
      "inputs": [],
      "name": "timerAddress",
      "outputs": [
        {
          "internalType": "address",
          "name": "",
          "type": "address"
        }
      ],
      "stateMutability": "view",
      "type": "function"
    },
    {
      "inputs": [],
      "name": "tokenCurrency",
      "outputs": [
        {
          "internalType": "contract ExpandedIERC20",
          "name": "",
          "type": "address"
        }
      ],
      "stateMutability": "view",
      "type": "function"
    },
    {
      "inputs": [],
      "name": "totalTokensOutstanding",
      "outputs": [
        {
          "internalType": "uint256",
          "name": "rawValue",
          "type": "uint256"
        }
      ],
      "stateMutability": "view",
      "type": "function"
    },
    {
      "inputs": [
        {
          "components": [
            {
              "internalType": "uint256",
              "name": "rawValue",
              "type": "uint256"
            }
          ],
          "internalType": "struct FixedPoint.Unsigned",
          "name": "amount",
          "type": "tuple"
        }
      ],
      "name": "withdrawFundingRateFees",
      "outputs": [
        {
          "components": [
            {
              "internalType": "uint256",
              "name": "rawValue",
              "type": "uint256"
            }
          ],
          "internalType": "struct FixedPoint.Unsigned",
          "name": "",
          "type": "tuple"
        }
      ],
      "stateMutability": "nonpayable",
      "type": "function"
    },
    {
      "inputs": [],
      "name": "withdrawalLiveness",
      "outputs": [
        {
          "internalType": "uint256",
          "name": "",
          "type": "uint256"
        }
      ],
      "stateMutability": "view",
      "type": "function"
    },
    {
      "inputs": [
        {
          "internalType": "address",
          "name": "sponsor",
          "type": "address"
        },
        {
          "components": [
            {
              "internalType": "uint256",
              "name": "rawValue",
              "type": "uint256"
            }
          ],
          "internalType": "struct FixedPoint.Unsigned",
          "name": "collateralAmount",
          "type": "tuple"
        }
      ],
      "name": "depositTo",
      "outputs": [],
      "stateMutability": "nonpayable",
      "type": "function"
    },
    {
      "inputs": [
        {
          "components": [
            {
              "internalType": "uint256",
              "name": "rawValue",
              "type": "uint256"
            }
          ],
          "internalType": "struct FixedPoint.Unsigned",
          "name": "collateralAmount",
          "type": "tuple"
        }
      ],
      "name": "deposit",
      "outputs": [],
      "stateMutability": "nonpayable",
      "type": "function"
    },
    {
      "inputs": [
        {
          "components": [
            {
              "internalType": "uint256",
              "name": "rawValue",
              "type": "uint256"
            }
          ],
          "internalType": "struct FixedPoint.Unsigned",
          "name": "collateralAmount",
          "type": "tuple"
        }
      ],
      "name": "withdraw",
      "outputs": [
        {
          "components": [
            {
              "internalType": "uint256",
              "name": "rawValue",
              "type": "uint256"
            }
          ],
          "internalType": "struct FixedPoint.Unsigned",
          "name": "amountWithdrawn",
          "type": "tuple"
        }
      ],
      "stateMutability": "nonpayable",
      "type": "function"
    },
    {
      "inputs": [
        {
          "components": [
            {
              "internalType": "uint256",
              "name": "rawValue",
              "type": "uint256"
            }
          ],
          "internalType": "struct FixedPoint.Unsigned",
          "name": "collateralAmount",
          "type": "tuple"
        }
      ],
      "name": "requestWithdrawal",
      "outputs": [],
      "stateMutability": "nonpayable",
      "type": "function"
    },
    {
      "inputs": [],
      "name": "withdrawPassedRequest",
      "outputs": [
        {
          "components": [
            {
              "internalType": "uint256",
              "name": "rawValue",
              "type": "uint256"
            }
          ],
          "internalType": "struct FixedPoint.Unsigned",
          "name": "amountWithdrawn",
          "type": "tuple"
        }
      ],
      "stateMutability": "nonpayable",
      "type": "function"
    },
    {
      "inputs": [],
      "name": "cancelWithdrawal",
      "outputs": [],
      "stateMutability": "nonpayable",
      "type": "function"
    },
    {
      "inputs": [
        {
          "components": [
            {
              "internalType": "uint256",
              "name": "rawValue",
              "type": "uint256"
            }
          ],
          "internalType": "struct FixedPoint.Unsigned",
          "name": "collateralAmount",
          "type": "tuple"
        },
        {
          "components": [
            {
              "internalType": "uint256",
              "name": "rawValue",
              "type": "uint256"
            }
          ],
          "internalType": "struct FixedPoint.Unsigned",
          "name": "numTokens",
          "type": "tuple"
        }
      ],
      "name": "create",
      "outputs": [],
      "stateMutability": "nonpayable",
      "type": "function"
    },
    {
      "inputs": [
        {
          "components": [
            {
              "internalType": "uint256",
              "name": "rawValue",
              "type": "uint256"
            }
          ],
          "internalType": "struct FixedPoint.Unsigned",
          "name": "numTokens",
          "type": "tuple"
        }
      ],
      "name": "redeem",
      "outputs": [
        {
          "components": [
            {
              "internalType": "uint256",
              "name": "rawValue",
              "type": "uint256"
            }
          ],
          "internalType": "struct FixedPoint.Unsigned",
          "name": "amountWithdrawn",
          "type": "tuple"
        }
      ],
      "stateMutability": "nonpayable",
      "type": "function"
    },
    {
      "inputs": [
        {
          "components": [
            {
              "internalType": "uint256",
              "name": "rawValue",
              "type": "uint256"
            }
          ],
          "internalType": "struct FixedPoint.Unsigned",
          "name": "numTokens",
          "type": "tuple"
        }
      ],
      "name": "repay",
      "outputs": [],
      "stateMutability": "nonpayable",
      "type": "function"
    },
    {
      "inputs": [],
      "name": "settleEmergencyShutdown",
      "outputs": [
        {
          "components": [
            {
              "internalType": "uint256",
              "name": "rawValue",
              "type": "uint256"
            }
          ],
          "internalType": "struct FixedPoint.Unsigned",
          "name": "amountWithdrawn",
          "type": "tuple"
        }
      ],
      "stateMutability": "nonpayable",
      "type": "function"
    },
    {
      "inputs": [],
      "name": "applyFundingRate",
      "outputs": [],
      "stateMutability": "nonpayable",
      "type": "function"
    },
    {
      "inputs": [],
      "name": "emergencyShutdown",
      "outputs": [],
      "stateMutability": "nonpayable",
      "type": "function"
    },
    {
      "inputs": [],
      "name": "remargin",
      "outputs": [],
      "stateMutability": "nonpayable",
      "type": "function"
    },
    {
      "inputs": [
        {
          "internalType": "contract IERC20",
          "name": "token",
          "type": "address"
        }
      ],
      "name": "trimExcess",
      "outputs": [
        {
          "components": [
            {
              "internalType": "uint256",
              "name": "rawValue",
              "type": "uint256"
            }
          ],
          "internalType": "struct FixedPoint.Unsigned",
          "name": "amount",
          "type": "tuple"
        }
      ],
      "stateMutability": "nonpayable",
      "type": "function"
    },
    {
      "inputs": [
        {
          "internalType": "address",
          "name": "sponsor",
          "type": "address"
        }
      ],
      "name": "getCollateral",
      "outputs": [
        {
          "components": [
            {
              "internalType": "uint256",
              "name": "rawValue",
              "type": "uint256"
            }
          ],
          "internalType": "struct FixedPoint.Unsigned",
          "name": "collateralAmount",
          "type": "tuple"
        }
      ],
      "stateMutability": "view",
      "type": "function"
    },
    {
      "inputs": [],
      "name": "totalPositionCollateral",
      "outputs": [
        {
          "components": [
            {
              "internalType": "uint256",
              "name": "rawValue",
              "type": "uint256"
            }
          ],
          "internalType": "struct FixedPoint.Unsigned",
          "name": "totalCollateral",
          "type": "tuple"
        }
      ],
      "stateMutability": "view",
      "type": "function"
    },
    {
      "inputs": [
        {
          "components": [
            {
              "internalType": "uint256",
              "name": "rawValue",
              "type": "uint256"
            }
          ],
          "internalType": "struct FixedPoint.Unsigned",
          "name": "rawTokenDebt",
          "type": "tuple"
        }
      ],
      "name": "getFundingRateAppliedTokenDebt",
      "outputs": [
        {
          "components": [
            {
              "internalType": "uint256",
              "name": "rawValue",
              "type": "uint256"
            }
          ],
          "internalType": "struct FixedPoint.Unsigned",
          "name": "totalCollateral",
          "type": "tuple"
        }
      ],
      "stateMutability": "view",
      "type": "function"
    }
  ],
  "bytecode": "0x60806040523480156200001157600080fd5b5060405162003e0738038062003e07833981016040819052620000349162000552565b6000805460ff60a01b196001600160a01b038086166001600160a01b03199384161791909116600160a01b1790925560018054838d1690831617905560028054928a16929091169190911790558684868b8386828282620000946200027b565b600381905550620000b160016200032460201b62001bbb1760201c565b516004555050506005939093555050600680546001600160a01b0319166001600160a01b03851617905550620000e66200027b565b6007819055506200010360016200032460201b62001bbb1760201c565b516008556200011162000363565b6001600160a01b031663eb9c7de130836040518363ffffffff1660e01b8152600401620001409291906200060c565b600060405180830381600087803b1580156200015b57600080fd5b505af115801562000170573d6000803e3d6000fd5b50505050505062000186620003ed60201b60201c565b6001600160a01b03166390978d1b876040518263ffffffff1660e01b8152600401620001b3919062000626565b60206040518083038186803b158015620001cc57600080fd5b505afa158015620001e1573d6000803e3d6000fd5b505050506040513d601f19601f8201168201806040525081019062000207919062000517565b6200022f5760405162461bcd60e51b815260040162000226906200068c565b60405180910390fd5b600e9990995550600c80546001600160a01b039788166001600160a01b0319918216179091559051600f55600d9390935550506012805495909316941693909317905550620006c39050565b600080546001600160a01b0316156200031e5760008054906101000a90046001600160a01b03166001600160a01b03166329cb924d6040518163ffffffff1660e01b815260040160206040518083038186803b158015620002db57600080fd5b505afa158015620002f0573d6000803e3d6000fd5b505050506040513d601f19601f8201168201806040525081019062000316919062000539565b905062000321565b50425b90565b6200032e62000489565b60405180602001604052806200035b670de0b6b3a7640000856200044060201b62001be91790919060201c565b905292915050565b6006546040516302abf57960e61b81526000916001600160a01b03169063aafd5e409062000394906004016200062f565b60206040518083038186803b158015620003ad57600080fd5b505afa158015620003c2573d6000803e3d6000fd5b505050506040513d601f19601f82011682018060405250810190620003e89190620004f2565b905090565b6002546040516302abf57960e61b81526000916001600160a01b03169063aafd5e409062000394907f4964656e74696669657257686974656c697374000000000000000000000000009060040162000626565b600082620004515750600062000483565b828202828482816200045f57fe5b0414620004805760405162461bcd60e51b815260040162000226906200064b565b90505b92915050565b6040518060200160405280600081525090565b80516001600160a01b03811681146200048357600080fd5b600060208284031215620004c6578081fd5b604051602081016001600160401b0381118282101715620004e5578283fd5b6040529151825250919050565b60006020828403121562000504578081fd5b6200051083836200049c565b9392505050565b60006020828403121562000529578081fd5b8151801515811462000480578182fd5b6000602082840312156200054b578081fd5b5051919050565b6000806000806000806000806000806101408b8d03121562000572578586fd5b8a519950620005858c60208d016200049c565b9850620005968c60408d016200049c565b9750620005a78c60608d016200049c565b965060808b0151955060a08b01519450620005c68c60c08d01620004b4565b9350620005d78c60e08d01620004b4565b9250620005e98c6101008d016200049c565b9150620005fb8c6101208d016200049c565b90509295989b9194979a5092959850565b6001600160a01b0392909216825251602082015260400190565b90815260200190565b6f46756e64696e675261746553746f726560801b815260200190565b60208082526021908201527f536166654d6174683a206d756c7469706c69636174696f6e206f766572666c6f6040820152607760f81b606082015260800190565b6020808252601c908201527f556e737570706f72746564207072696365206964656e74696669657200000000604082015260600190565b61373480620006d36000396000f3fe608060405234801561001057600080fd5b50600436106102525760003560e01c80635aa266c9116101465780638c382eb2116100c3578063b9a3c84c11610087578063b9a3c84c1461042a578063bc12163014610432578063bda02e7714610445578063c8f33c911461044d578063d1e92c1114610455578063dd0eef3d1461046857610252565b80638c382eb2146103f757806392120aec146103ff57806397523661146104075780639b56d6c91461040f5780639ff4dea81461042257610252565b806371f3c1b71161010a57806371f3c1b7146103c45780637b34ee7f146103cc5780637b4ff673146103d457806381a10ae1146103dc5780638bbd9fb9146103e457610252565b80635aa266c91461037b5780635f1af1ca1461038e5780636ba2f992146103a15780636cf1be29146103b45780637048594b146103bc57610252565b806324e8cb8d116101d45780633ee7a5ce116101985780633ee7a5ce1461032257806340704d671461033557806341b3eb7c1461034857806343e4771b1461035057806355f575101461035857610252565b806324e8cb8d146102ef57806329cb924d1461030257806333a46ca21461030a5780633403c2fc146103125780633cb6ce831461031a57610252565b80631c39c38d1161021b5780631c39c38d146102bc5780631fd00067146102c457806321d40512146102cc57806322611280146102d457806322f8e566146102dc57610252565b8062b9add7146102575780630c9229ca146102755780630cd77bb91461028a5780630de15fd91461029f57806318928a0c146102a7575b600080fd5b61025f610470565b60405161026c9190613641565b60405180910390f35b61027d6107eb565b60405161026c9190613048565b6102926107f1565b60405161026c9190612fc3565b610292610800565b6102ba6102b5366004612ec0565b61080f565b005b6102926108ec565b6102926108fb565b61027d61090a565b6102ba610910565b6102ba6102ea366004612f8f565b6109a6565b61025f6102fd366004612e88565b610a20565b61027d610b27565b61025f610bcb565b6102ba610d20565b61025f610dd9565b61025f610330366004612f2d565b611075565b61025f610343366004612f2d565b61114a565b61027d6112b9565b61025f6112bf565b61036b610366366004612e88565b6112ed565b60405161026c949392919061364b565b6102ba610389366004612f2d565b611333565b61025f61039c366004612f2d565b6114e4565b6102ba6103af366004612f48565b611747565b61027d6119d5565b6102926119db565b6102ba6119ea565b61027d611a12565b61027d611a18565b61025f611a1e565b61025f6103f2366004612f2d565b611a36565b61027d611a55565b61027d611a5b565b61027d611a61565b61025f61041d366004612e88565b611a67565b61027d611aac565b610292611ab2565b6102ba610440366004612f2d565b611ac1565b6102ba6109a4565b61027d611ba2565b6102ba610463366004612f2d565b611ba8565b61027d611bb5565b610478612e2b565b610480611c2a565b610488610dd9565b50610491611c49565b610499611c72565b6104bc6104a66000611bbb565b6040805160208101909152601054815290611c81565b156104ce576104c9611c88565b516010555b6104d6612e2b565b604080516020810191829052600c546370a0823160e01b9092529081906001600160a01b03166370a0823161050e3360248501612fc3565b60206040518083038186803b15801561052657600080fd5b505afa15801561053a573d6000803e3d6000fd5b505050506040513d601f19601f8201168201806040525081019061055e9190612f15565b9052905061056a612e2b565b6040805160208101909152601054815261058d9061058784611cba565b90611cd9565b3360009081526009602090815260408083208151928301909152600381015482529293506105c591906105bf90611d16565b90611d39565b156106b8576105d2612e2b565b604080516020808201835260105482528251908101909252835482526105fb9161058790611cba565b9050610605612e2b565b60408051602081019091526003840154815261062090611d16565b905061062a612e2b565b6106348383611d50565b61064d5760405180602001604052806000815250610657565b6106578284611d57565b90506106638582611d83565b3360008181526009602052604080822082815560018101839055600281018390556003018290555192975090917fcad20625296d189a6fc6e5b39d0d544e5bd99dbda0c8f2f0ecffef3e0fbcc2829190a25050505b6106c0612e2b565b6040805160208101909152600b5481526106e3906106dd90611d16565b84611da6565b90506106f0600b82611dc4565b6040805160208101909152600a54815290955061070d9085611d57565b51600a558351855160405133907f129c54fc6fd4bd937e4a04ede027ac4ad3f9397cd943d6d354649d9d968dacbe90600090a4845160015461075c916001600160a01b03909116903390611e4a565b8351600c5461077a916001600160a01b039091169033903090611ea0565b600c548451604051630852cd8d60e31b81526001600160a01b03909216916342966c68916107aa91600401613048565b600060405180830381600087803b1580156107c457600080fd5b505af11580156107d8573d6000803e3d6000fd5b50505050505050506107e8611ec7565b90565b600a5481565b6001546001600160a01b031690565b6001546001600160a01b031681565b610817611edc565b8161082181611efc565b610829610dd9565b50610832611f26565b61083a611c49565b610842611c72565b61084d826000611d39565b6108725760405162461bcd60e51b815260040161086990613259565b60405180910390fd5b600061087d84611fde565b90506108898184612006565b5082516040516001600160a01b038616907fe1fffcc4923d04b559f4d29a8bfc6cda04eb5b0d3c460751c2402c5c5cc9109c90600090a382516001546108de916001600160a01b039091169033903090611ea0565b506108e7611ec7565b505050565b6000546001600160a01b031681565b6012546001600160a01b031681565b60055481565b610918611edc565b610920611f26565b610928611c49565b610930611c72565b600061093b33611fde565b90508060010154600014156109625760405162461bcd60e51b815260040161086990613612565b600281015460405133907f74d8a3658feb89d1a5c335229bbbfc3bbcfaf492769feb7aa4cd2d92efeaf69190600090a361099b81612027565b506109a4611ec7565b565b6000546001600160a01b03166109bb57600080fd5b60005460405163117c72b360e11b81526001600160a01b03909116906322f8e566906109eb908490600401613048565b600060405180830381600087803b158015610a0557600080fd5b505af1158015610a19573d6000803e3d6000fd5b5050505050565b610a28612e2b565b610a30611c49565b610a38611c72565b610a40612e2b565b6040805160208101918290526370a0823160e01b909152806001600160a01b0385166370a08231610a743060248501612fc3565b60206040518083038186803b158015610a8c57600080fd5b505afa158015610aa0573d6000803e3d6000fd5b505050506040513d601f19601f82011682018060405250810190610ac49190612f15565b90526001549091506001600160a01b0384811691161415610af857610af1610aea612041565b8290611d57565b9150610afc565b8091505b6012548251610b19916001600160a01b0386811692911690611e4a565b50610b22611ec7565b919050565b600080546001600160a01b031615610bc45760008054906101000a90046001600160a01b03166001600160a01b03166329cb924d6040518163ffffffff1660e01b815260040160206040518083038186803b158015610b8557600080fd5b505afa158015610b99573d6000803e3d6000fd5b505050506040513d601f19601f82011682018060405250810190610bbd9190612f15565b90506107e8565b50426107e8565b610bd3612e2b565b610bdb611edc565b610be3610dd9565b50610bec611f26565b610bf4611c49565b610bfc611c72565b6000610c0733611fde565b90508060010154600014158015610c295750610c21610b27565b816001015411155b610c455760405162461bcd60e51b815260040161086990613334565b610c4d612e2b565b5060408051602080820183526002840154825282519081019092526003830154825290610c9590610c7d90611d16565b60408051602081019091526002850154815290612049565b15610cb857604080516020810190915260038301548152610cb590611d16565b90505b610cc28282612050565b9250610ccd82612027565b8251600154610ce9916001600160a01b03909116903390611e4a565b825160405133907fc86c3298cb79f486674dca87d9247e88b76146160e7d412cc59b26b14c358a6890600090a350506107e8611ec7565b610d28611edc565b610d30611f26565b610d38611c49565b610d40611c72565b610d48612071565b6001600160a01b0316336001600160a01b031614610d785760405162461bcd60e51b8152600401610869906133b2565b610d80610b27565b6011819055610d8e9061210c565b336001600160a01b03167f077382e0341a6d8666d1f8ed15b8c933a01f5c1a3e6c5229e2db8c5dc1c06ae1601154604051610dc99190613048565b60405180910390a26109a4611ec7565b610de1612e2b565b610de9611c49565b610df1611c72565b6000610dfb612143565b90506000610e07610b27565b9050610e11612e2b565b610e19612041565b9050610e2681600061217c565b15610e335750505061106d565b816003541415610e455750505061106d565b610e4d612e2b565b610e55612e2b565b6003546040516374201feb60e01b81526001600160a01b038716916374201feb91610e8791908890889060040161367f565b604080518083038186803b158015610e9e57600080fd5b505afa158015610eb2573d6000803e3d6000fd5b505050506040513d601f19601f82011682018060405250810190610ed69190612f64565b60038690559092509050610eea8282611d83565b9550610ef786600061217c565b15610f0657505050505061106d565b610f108684612049565b15610f7157610f1d612e2b565b610f278785611d57565b9050610f31612e2b565b610f3b8383611da6565b9050610f478382611d57565b9250610f538282611d57565b9150610f69610f628584611da6565b8590611d57565b935084975050505b805182516040517f19b92e73d08d517d71ec46136266e4f5d526a8cd4f8501d73713cebfe4f335ef90600090a3610fa88684612193565b610fb3826000611d39565b1561103b578151600154610fd4916001600160a01b039091169087906121dd565b60015460405163432ce91960e11b81526001600160a01b0387811692638659d232926110089290911690869060040161302e565b600060405180830381600087803b15801561102257600080fd5b505af1158015611036573d6000803e3d6000fd5b505050505b611046816000611d39565b15611067578051600154611067916001600160a01b03909116903390611e4a565b50505050505b6107e8611ec7565b61107d612e2b565b611085611edc565b3361108f81611efc565b611097610dd9565b506110a0611f26565b6110a8611c49565b6110b0611c72565b60006110bb33611fde565b90506110c8846000611d39565b6110e45760405162461bcd60e51b815260040161086990613259565b6110ee8185612282565b80516040519194509033907f7fcf532c15f0a6db0bd6d0e038bea71d30d808c7d98cb3bf7268a95bf5081b6590600090a3825160015461113b916001600160a01b03909116903390611e4a565b50611144611ec7565b50919050565b611152612e2b565b61115b336122c8565b611163610dd9565b5061116c611c49565b611174611c72565b6002546040516302abf57960e61b81526000916001600160a01b03169063aafd5e40906111a390600401613092565b60206040518083038186803b1580156111bb57600080fd5b505afa1580156111cf573d6000803e3d6000fd5b505050506040513d601f19601f820116820180604052508101906111f39190612ea4565b90506111fd612e2b565b611205612041565b905061121284600061217c565b80611223575061122381600061217c565b1561123b576112326000611bbb565b925050506112b1565b611243612e2b565b61124d8583612049565b6112575784611259565b815b90506112658183612193565b8051600154611281916001600160a01b03909116908590611e4a565b80516040517f71f3c0d1f8772dbfaaaa8cd55e5744b3dc9c2db10e703f84e12c3c81a9c6325290600090a2925050505b610b22611ec7565b60055490565b6112c7612e2b565b6112cf611c49565b6040805160208101909152600b5481526112e890611d16565b905090565b6009602090815260009182526040918290208251808301845281548152600182015484518085018652600284015481528551948501909552600390920154835292909184565b61133b611edc565b3361134581611efc565b61134d610dd9565b50611356611f26565b61135e611c49565b611366611c72565b600061137133611fde565b60408051602081019091528154815290915061138e908490612376565b6113aa5760405162461bcd60e51b815260040161086990613192565b6113b2612e2b565b6040805160208101909152825481526113cb9085611d57565b6040805160208101909152600f5481529091506113e990829061237e565b6114055760405162461bcd60e51b815260040161086990613222565b805182556040805160208101909152600a5481526114239085611d57565b51600a558051845160405133907f77c6871227e5d2dec8dadd5354f78453203e22e669cd0ec4c19d9a8c5edb31d090600090a48351600c54611474916001600160a01b039091169033903090611ea0565b600c548451604051630852cd8d60e31b81526001600160a01b03909216916342966c68916114a491600401613048565b600060405180830381600087803b1580156114be57600080fd5b505af11580156114d2573d6000803e3d6000fd5b5050505050506114e0611ec7565b5050565b6114ec612e2b565b6114f4611edc565b336114fe81611efc565b611506610dd9565b5061150f611f26565b611517611c49565b61151f611c72565b600061152a33611fde565b604080516020810190915281548152909150611547908590612376565b6115635760405162461bcd60e51b815260040161086990613192565b61156b612e2b565b604080516020810190915282548152611585908690612386565b905061158f612e2b565b6040805160208101909152600384015481526115b5906115ae90611d16565b8390611cd9565b6040805160208101909152845481529091506115d19087611c81565b156115e6576115df336123bb565b9450611671565b6115f08382612050565b94506115fa612e2b565b6040805160208101909152845481526116139088611d57565b6040805160208101909152600f54815290915061163190829061237e565b61164d5760405162461bcd60e51b815260040161086990613222565b805184556040805160208101909152600a54815261166b9088611d57565b51600a55505b8551855160405133907fe5b754fb1abb7f01b499791d0b820ae3b6af3424ac1c59768edb53f4ec31a92990600090a484516001546116bc916001600160a01b03909116903390611e4a565b8551600c546116da916001600160a01b039091169033903090611ea0565b600c548651604051630852cd8d60e31b81526001600160a01b03909216916342966c689161170a91600401613048565b600060405180830381600087803b15801561172457600080fd5b505af1158015611738573d6000803e3d6000fd5b50505050505050611144611ec7565b61174f611edc565b611757610dd9565b50611760611f26565b611768611c49565b611770611c72565b336000908152600960209081526040918290208251918201909252600382015481526117c9906117ab9085906117a590611d16565b90611d83565b6040805160208101909152835481526117c49085611d83565b6124c4565b806117d957506117d983836124c4565b6117f55760405162461bcd60e51b815260040161086990613473565b6001810154156118175760405162461bcd60e51b815260040161086990613308565b60408051602081019091528154815261183190600061217c565b15611899576040805160208101909152600f54815261185190839061237e565b61186d5760405162461bcd60e51b815260040161086990613222565b60405133907ff60993fa76f94c9e0a803526ee6e1314814ed4d2b0d223febf1436b36897fb3790600090a25b6118a38184612006565b506040805160208101909152815481526118bd9083611d83565b5181556040805160208101909152600a5481526118da9083611d83565b51600a558151835160405133907f4b82aa16e071a61de1a6b9aeec9edab0356331f8122c78683b469ac8e685dabc90600090a4825160015461192b916001600160a01b039091169033903090611ea0565b600c5482516040516340c10f1960e01b81526001600160a01b03909216916340c10f199161195e91339190600401612fd7565b602060405180830381600087803b15801561197857600080fd5b505af115801561198c573d6000803e3d6000fd5b505050506040513d601f19601f820116820180604052508101906119b09190612ef5565b6119cc5760405162461bcd60e51b8152600401610869906133df565b506114e0611ec7565b60115481565b600c546001600160a01b031681565b6119f2611edc565b6119fa611f26565b611a02611c49565b611a0a611c72565b6109a4611ec7565b60105481565b60085481565b611a26612e2b565b611a2e611c49565b6112e8612041565b611a3e612e2b565b611a46611c49565b611a4f82611cba565b92915050565b600b5481565b600f5481565b600d5481565b611a6f612e2b565b611a77611c49565b6001600160a01b03821660009081526009602090815260409182902082519182019092526003909101548152611a4f90611d16565b600e5481565b6002546001600160a01b031681565b611ac9611edc565b33611ad381611efc565b611adb611f26565b611ae3611c49565b611aeb611c72565b6000611af633611fde565b9050611b03836000611d39565b8015611b305750604080516020810190915260038201548152611b3090611b2990611d16565b8490612376565b611b4c5760405162461bcd60e51b815260040161086990613259565b611b60600e54611b5a610b27565b9061252a565b600182015582516002820181905560405133907fd33b726e11d2c5d38e6702b16613df0160a07f7ba5185455ee3c45d0494fab1190600090a3506114e0611ec7565b60075481565b611bb2338261080f565b50565b60045481565b611bc3612e2b565b604080516020810190915280611be184670de0b6b3a7640000611be9565b905292915050565b600082611bf857506000611a4f565b82820282848281611c0557fe5b0414611c235760405162461bcd60e51b8152600401610869906132c7565b9392505050565b6011546109a45760405162461bcd60e51b8152600401610869906134ec565b600054600160a01b900460ff166109a45760405162461bcd60e51b81526004016108699061356d565b6000805460ff60a01b19169055565b5190511490565b611c90612e2b565b601154611caf5760405162461bcd60e51b8152600401610869906135a4565b6112e860115461254f565b611cc2612e2b565b60408051602081019091526008548152611a4f9083905b611ce1612e2b565b6040805160208101909152825184518291670de0b6b3a764000091611d0591611be9565b81611d0c57fe5b0490529392505050565b611d1e612e2b565b60408051602081019091526004548152611a4f908390611cd9565b6000611d4482611bbb565b51835111905092915050565b5190511090565b611d5f612e2b565b6040805160208101909152825184518291611d7a91906126a5565b90529392505050565b611d8b612e2b565b6040805160208101909152825184518291611d7a919061252a565b611dae612e2b565b8151835110611dbd5781611c23565b5090919050565b611dcc612e2b565b611dd4612e2b565b604080516020810190915284548152611dec90611d16565b9050611df6612e2b565b611dff846126e7565b604080516020810190915286548152909150611e1b9082611d57565b518086556040805160208101909152908152611e4190611e3a90611d16565b8390611d57565b95945050505050565b6108e78363a9059cbb60e01b8484604051602401611e69929190612fd7565b60408051601f198184030181529190526020810180516001600160e01b03166001600160e01b03199093169290921790915261270a565b611ec1846323b872dd60e01b858585604051602401611e699392919061300a565b50505050565b6000805460ff60a01b1916600160a01b179055565b601154156109a45760405162461bcd60e51b815260040161086990613416565b611f0581611fde565b6001015415611bb25760405162461bcd60e51b815260040161086990613308565b6000611f30610b27565b90506000611f49600754836126a590919063ffffffff16565b9050611f53612e2b565b611f5b6127ef565b9050611f65612e2b565b611f8683611f716127ef565b6040805160208101909152600854815261287a565b905160088190558351600754835160405194955091938793927f85626a4cfe9721bff91d77d9aebdab162813c94d50d297243967db6866ac9fb692611fce9290918b91613669565b60405180910390a4505050600755565b600081611fea81612903565b50506001600160a01b0316600090815260096020526040902090565b61200e612e2b565b61201b8360030183612956565b50611c23600b83612956565b6120316000611bbb565b5160028201556000600190910155565b6112cf612e2b565b5190511190565b612058612e2b565b6120658360030183611dc4565b50611c23600b83611dc4565b6002546040516302abf57960e61b81526000916001600160a01b03169063aafd5e40906120bc90762334b730b731b4b0b621b7b73a3930b1ba39a0b236b4b760491b90600401613048565b60206040518083038186803b1580156120d457600080fd5b505afa1580156120e8573d6000803e3d6000fd5b505050506040513d601f19601f820116820180604052508101906112e89190612ea4565b6121146129ce565b6001600160a01b03166368ad8ae3600d54836040518363ffffffff1660e01b81526004016109eb929190613051565b6002546040516302abf57960e61b81526000916001600160a01b03169063aafd5e40906120bc906453746f726560d81b90600401613048565b600061218782611bbb565b51835114905092915050565b61219b612e2b565b6121a58383612a08565b90506121d46121be826121b86001611bbb565b90611d57565b6040805160208101909152600454815290611cd9565b51600455505050565b600061226182856001600160a01b031663dd62ed3e30876040518363ffffffff1660e01b8152600401612211929190612ff0565b60206040518083038186803b15801561222957600080fd5b505afa15801561223d573d6000803e3d6000fd5b505050506040513d601f19601f82011682018060405250810190611b5a9190612f15565b9050611ec18463095ea7b360e01b8584604051602401611e69929190612fd7565b61228a612e2b565b6122978360030183611dc4565b506122a183612a92565b6122bd5760405162461bcd60e51b81526004016108699061344d565b611c23600b83611dc4565b6002546040516302abf57960e61b81526001600160a01b039091169063aafd5e40906122f690600401613092565b60206040518083038186803b15801561230e57600080fd5b505afa158015612322573d6000803e3d6000fd5b505050506040513d601f19601f820116820180604052508101906123469190612ea4565b6001600160a01b0316816001600160a01b031614611bb25760405162461bcd60e51b8152600401610869906130ae565b519051111590565b519051101590565b61238e612e2b565b6040805160208101909152825184518291611d7a916123b590670de0b6b3a7640000611be9565b90612ac8565b6123c3612e2b565b60006123ce83611fde565b90506123d8612e2b565b6040805160208101909152600b5481526123f190611d16565b6040805160208082018352600386015482528251908101909252600b54825291925061241c91611d57565b51600b556040805160208082018352845482528251908101909252600a5482526124469190611d57565b51600a556001600160a01b0384166000818152600960205260408082208281556001810183905560028101839055600301829055517fcad20625296d189a6fc6e5b39d0d544e5bd99dbda0c8f2f0ecffef3e0fbcc2829190a26040805160208101909152600b5481526124bc90610aea90611d16565b949350505050565b60006124ce612e2b565b6040805160208101909152600b548152612500906124eb90611d16565b6040805160208101909152600a548152612b0a565b905061250a612e2b565b6125148585612b0a565b90506125208282612049565b1595945050505050565b600082820183811015611c235760405162461bcd60e51b8152600401610869906130e5565b612557612e2b565b60006125616129ce565b600d5460405163501f440d60e11b81529192506001600160a01b0383169163a03e881a91612593918790600401613051565b60206040518083038186803b1580156125ab57600080fd5b505afa1580156125bf573d6000803e3d6000fd5b505050506040513d601f19601f820116820180604052508101906125e39190612ef5565b6125ff5760405162461bcd60e51b8152600401610869906131f1565b600d54604051636494078360e11b81526000916001600160a01b0384169163c9280f0691612631918890600401613051565b60206040518083038186803b15801561264957600080fd5b505afa15801561265d573d6000803e3d6000fd5b505050506040513d601f19601f820116820180604052508101906126819190612f15565b90506000811215612690575060005b60408051602081019091529081529392505050565b6000611c2383836040518060400160405280601e81526020017f536166654d6174683a207375627472616374696f6e206f766572666c6f770000815250612b3a565b6126ef612e2b565b60408051602081019091526004548152611a4f908390612386565b61271c826001600160a01b0316612b66565b6127385760405162461bcd60e51b8152600401610869906135db565b60006060836001600160a01b0316836040516127549190612fa7565b6000604051808303816000865af19150503d8060008114612791576040519150601f19603f3d011682016040523d82523d6000602084013e612796565b606091505b5091509150816127b85760405162461bcd60e51b81526004016108699061315d565b805115611ec157808060200190518101906127d39190612ef5565b611ec15760405162461bcd60e51b815260040161086990613523565b6127f7612e2b565b6127ff612b9f565b6001600160a01b03166324b41f68306040518263ffffffff1660e01b815260040161282a9190612fc3565b60206040518083038186803b15801561284257600080fd5b505afa158015612856573d6000803e3d6000fd5b505050506040513d601f19601f820116820180604052508101906112e89190612e63565b612882612e2b565b61288a612e2b565b612892612e2b565b61289c6001612bce565b90506128b16128aa87612bf4565b8690612c1d565b91506128bb612e2b565b6128c58284612c3e565b90506128cf612e2b565b6128ea6128e5836128e06000612bce565b612c61565b612c78565b90506128f68682611cd9565b9450505050935093915050565b6001600160a01b0381166000908152600960209081526040808320815192830190915260030154815261293a91906105bf90611d16565b611bb25760405162461bcd60e51b815260040161086990613290565b61295e612e2b565b612966612e2b565b60408051602081019091528454815261297e90611d16565b9050612988612e2b565b612991846126e7565b6040805160208101909152865481529091506129ad9082611d83565b518086556040805160208101909152908152611e419083906121b890611d16565b6002546040516302abf57960e61b81526000916001600160a01b03169063aafd5e40906120bc90654f7261636c6560d01b90600401613048565b612a10612e2b565b8251600090612a2790670de0b6b3a7640000611be9565b8351909150600090612a3a908390612ac8565b8451909150600090612a4d908490612cb5565b90508015612a7957604080516020810190915280612a6c84600161252a565b8152509350505050611a4f565b6040518060200160405280838152509350505050611a4f565b604080516020810190915260038201548152600090611a4f90612ab490611d16565b6040805160208101909152845481526124c4565b6000611c2383836040518060400160405280601a81526020017f536166654d6174683a206469766973696f6e206279207a65726f000000000000815250612cf7565b612b12612e2b565b612b1d826000612d2e565b612b3057612b2b8383612386565b611c23565b611c236000611bbb565b60008184841115612b5e5760405162461bcd60e51b8152600401610869919061305f565b505050900390565b6000813f7fc5d2460186f7233c927e7db2dcc703c0e500b653ca82273b7bfad8045d85a4708181148015906124bc575050151592915050565b6006546040516302abf57960e61b81526000916001600160a01b03169063aafd5e40906120bc90600401613092565b612bd6612e2b565b604080516020810190915280611be184670de0b6b3a7640000612d46565b6000600160ff1b8210612c195760405162461bcd60e51b8152600401610869906134a4565b5090565b612c25612e2b565b604080516020810190915283518190611d7a9085612d46565b612c46612e2b565b6040805160208101909152825184518291611d7a9190612db1565b612c69612e2b565b8151835113611dbd5781611c23565b612c80612e2b565b815160001315612ca25760405162461bcd60e51b8152600401610869906131c0565b5060408051602081019091529051815290565b6000611c2383836040518060400160405280601881526020017f536166654d6174683a206d6f64756c6f206279207a65726f0000000000000000815250612df7565b60008183612d185760405162461bcd60e51b8152600401610869919061305f565b506000838581612d2457fe5b0495945050505050565b6000612d3982611bbb565b5183511115905092915050565b600082612d5557506000611a4f565b82600019148015612d695750600160ff1b82145b15612d865760405162461bcd60e51b81526004016108699061336b565b82820282848281612d9357fe5b0514611c235760405162461bcd60e51b81526004016108699061336b565b6000828201818312801590612dc65750838112155b80612ddb5750600083128015612ddb57508381125b611c235760405162461bcd60e51b81526004016108699061311c565b60008183612e185760405162461bcd60e51b8152600401610869919061305f565b50828481612e2257fe5b06949350505050565b6040518060200160405280600081525090565b600060208284031215612e4f578081fd5b612e596020613696565b9135825250919050565b600060208284031215612e74578081fd5b612e7e6020613696565b9151825250919050565b600060208284031215612e99578081fd5b8135611c23816136e9565b600060208284031215612eb5578081fd5b8151611c23816136e9565b60008060408385031215612ed2578081fd5b8235612edd816136e9565b9150612eec8460208501612e3e565b90509250929050565b600060208284031215612f06578081fd5b81518015158114611c23578182fd5b600060208284031215612f26578081fd5b5051919050565b600060208284031215612f3e578081fd5b611c238383612e3e565b60008060408385031215612f5a578182fd5b612edd8484612e3e565b60008060408385031215612f76578182fd5b612f808484612e63565b9150612eec8460208501612e63565b600060208284031215612fa0578081fd5b5035919050565b60008251612fb98184602087016136bd565b9190910192915050565b6001600160a01b0391909116815260200190565b6001600160a01b03929092168252602082015260400190565b6001600160a01b0392831681529116602082015260400190565b6001600160a01b039384168152919092166020820152604081019190915260600190565b6001600160a01b0392909216825251602082015260400190565b90815260200190565b918252602082015260400190565b600060208252825180602084015261307e8160408501602087016136bd565b601f01601f19169190910160400192915050565b6f46756e64696e675261746553746f726560801b815260200190565b6020808252601d908201527f43616c6c6572206e6f742066756e64696e6720726174652073746f7265000000604082015260600190565b6020808252601b908201527f536166654d6174683a206164646974696f6e206f766572666c6f770000000000604082015260600190565b60208082526021908201527f5369676e6564536166654d6174683a206164646974696f6e206f766572666c6f6040820152607760f81b606082015260800190565b6020808252818101527f5361666545524332303a206c6f772d6c6576656c2063616c6c206661696c6564604082015260600190565b602080825260149082015273125b9d985b1a59081d1bdad95b88185b5bdd5b9d60621b604082015260600190565b602080825260179082015276139959d85d1a5d99481d985b1d59481c1c9bdd9a591959604a1b604082015260600190565b602080825260179082015276556e7265736f6c766564206f7261636c6520707269636560481b604082015260600190565b6020808252601e908201527f42656c6f77206d696e696d756d2073706f6e736f7220706f736974696f6e0000604082015260600190565b60208082526019908201527f496e76616c696420636f6c6c61746572616c20616d6f756e7400000000000000604082015260600190565b6020808252601a908201527f506f736974696f6e20686173206e6f20636f6c6c61746572616c000000000000604082015260600190565b60208082526021908201527f536166654d6174683a206d756c7469706c69636174696f6e206f766572666c6f6040820152607760f81b606082015260800190565b60208082526012908201527114195b991a5b99c81dda5d1a191c985dd85b60721b604082015260600190565b60208082526018908201527f496e76616c696420776974686472617720726571756573740000000000000000604082015260600190565b60208082526027908201527f5369676e6564536166654d6174683a206d756c7469706c69636174696f6e206f604082015266766572666c6f7760c81b606082015260800190565b60208082526013908201527221b0b63632b9103737ba1023b7bb32b93737b960691b604082015260600190565b6020808252601f908201527f4d696e74696e672073796e74686574696320746f6b656e73206661696c656400604082015260600190565b6020808252601b908201527f436f6e747261637420656d657267656e63792073687574646f776e0000000000604082015260600190565b6020808252600c908201526b21a9103132b637bb9023a1a960a11b604082015260600190565b602080825260179082015276125b9cdd59999a58da595b9d0818dbdb1b185d195c985b604a1b604082015260600190565b60208082526028908201527f53616665436173743a2076616c756520646f65736e27742066697420696e2061604082015267371034b73a191a9b60c11b606082015260800190565b6020808252601f908201527f436f6e7472616374206e6f7420656d657267656e63792073687574646f776e00604082015260600190565b6020808252602a908201527f5361666545524332303a204552433230206f7065726174696f6e20646964206e6040820152691bdd081cdd58d8d9595960b21b606082015260800190565b6020808252601f908201527f5265656e7472616e637947756172643a207265656e7472616e742063616c6c00604082015260600190565b60208082526019908201527f4e6f2073687574646f776e2074696d657374616d702073657400000000000000604082015260600190565b6020808252601f908201527f5361666545524332303a2063616c6c20746f206e6f6e2d636f6e747261637400604082015260600190565b602080825260159082015274139bc81c195b991a5b99c81dda5d1a191c985dd85b605a1b604082015260600190565b9051815260200190565b93518452602084019290925251604083015251606082015260800190565b9283526020830191909152604082015260600190565b928352602083019190915251604082015260600190565b60405181810167ffffffffffffffff811182821017156136b557600080fd5b604052919050565b60005b838110156136d85781810151838201526020016136c0565b83811115611ec15750506000910152565b6001600160a01b0381168114611bb257600080fdfea2646970667358221220f27fc39fb6a847b2060ff13656ec9d353df221de80ce7c20058ebd32793c0d1e64736f6c634300060c0033",
  "immutableReferences": {},
  "source": "// SPDX-License-Identifier: AGPL-3.0-only\npragma solidity ^0.6.0;\npragma experimental ABIEncoderV2;\n\nimport \"@openzeppelin/contracts/math/SafeMath.sol\";\nimport \"@openzeppelin/contracts/token/ERC20/IERC20.sol\";\nimport \"@openzeppelin/contracts/token/ERC20/SafeERC20.sol\";\n\nimport \"../../common/implementation/FixedPoint.sol\";\nimport \"../../common/interfaces/ExpandedIERC20.sol\";\n\nimport \"../../oracle/interfaces/OracleInterface.sol\";\nimport \"../../oracle/interfaces/IdentifierWhitelistInterface.sol\";\nimport \"../../oracle/implementation/Constants.sol\";\n\nimport \"../common/FeePayer.sol\";\nimport \"../common/FundingRatePayer.sol\";\nimport \"../common/FundingRateApplier.sol\";\n\n/**\n * @title Financial contract with priceless position management.\n * @notice Handles positions for multiple sponsors in an optimistic (i.e., priceless) way without relying\n * on a price feed. On construction, deploys a new ERC20, managed by this contract, that is the synthetic token.\n */\n\ncontract PerpetualPositionManager is FundingRatePayer, FundingRateApplier {\n    using SafeMath for uint256;\n    using FixedPoint for FixedPoint.Unsigned;\n    using SafeERC20 for IERC20;\n    using SafeERC20 for ExpandedIERC20;\n\n    /****************************************\n     *  PRICELESS POSITION DATA STRUCTURES  *\n     ****************************************/\n\n    // Represents a single sponsor's position. All collateral is held by this contract.\n    // This struct acts as bookkeeping for how much of that collateral is allocated to each sponsor.\n    struct PositionData {\n        FixedPoint.Unsigned tokensOutstanding;\n        // Tracks pending withdrawal requests. A withdrawal request is pending if `withdrawalRequestPassTimestamp != 0`.\n        uint256 withdrawalRequestPassTimestamp;\n        FixedPoint.Unsigned withdrawalRequestAmount;\n        // Raw collateral value. This value should never be accessed directly -- always use _getFeeAdjustedCollateral().\n        // To add or remove collateral, use _addCollateral() and _removeCollateral().\n        FixedPoint.Unsigned rawCollateral;\n    }\n\n    // Maps sponsor addresses to their positions. Each sponsor can have only one position.\n    mapping(address => PositionData) public positions;\n\n    // Keep track of the total collateral and tokens across all positions to enable calculating the\n    // global collateralization ratio without iterating over all positions.\n    FixedPoint.Unsigned public totalTokensOutstanding;\n\n    // Similar to the rawCollateral in PositionData, this value should not be used directly.\n    // _getFeeAdjustedCollateral(), _addCollateral() and _removeCollateral() must be used to access and adjust.\n    FixedPoint.Unsigned public rawTotalPositionCollateral;\n\n    // Synthetic token created by this contract.\n    ExpandedIERC20 public tokenCurrency;\n\n    // Unique identifier for DVM price feed ticker.\n    bytes32 public priceIdentifier;\n\n    // Time that has to elapse for a withdrawal request to be considered passed, if no liquidations occur.\n    // !!Note: The lower the withdrawal liveness value, the more risk incurred by the contract.\n    //       Extremely low liveness values increase the chance that opportunistic invalid withdrawal requests\n    //       expire without liquidation, thereby increasing the insolvency risk for the contract as a whole. An insolvent\n    //       contract is extremely risky for any sponsor or synthetic token holder for the contract.\n    uint256 public withdrawalLiveness;\n\n    // Minimum number of tokens in a sponsor's position.\n    FixedPoint.Unsigned public minSponsorTokens;\n\n    // Expiry price pulled from the DVM in the case of an emergency shutdown.\n    FixedPoint.Unsigned public emergencyShutdownPrice;\n\n    // Timestamp used in case of emergency shutdown.\n    uint256 public emergencyShutdownTimestamp;\n\n    // The excessTokenBeneficiary of any excess tokens added to the contract.\n    address public excessTokenBeneficiary;\n\n    /****************************************\n     *                EVENTS                *\n     ****************************************/\n\n    event Deposit(address indexed sponsor, uint256 indexed collateralAmount);\n    event Withdrawal(address indexed sponsor, uint256 indexed collateralAmount);\n    event RequestWithdrawal(address indexed sponsor, uint256 indexed collateralAmount);\n    event RequestWithdrawalExecuted(address indexed sponsor, uint256 indexed collateralAmount);\n    event RequestWithdrawalCanceled(address indexed sponsor, uint256 indexed collateralAmount);\n    event PositionCreated(address indexed sponsor, uint256 indexed collateralAmount, uint256 indexed tokenAmount);\n    event NewSponsor(address indexed sponsor);\n    event EndedSponsorPosition(address indexed sponsor);\n    event Redeem(address indexed sponsor, uint256 indexed collateralAmount, uint256 indexed tokenAmount);\n    event Repay(address indexed sponsor, uint256 indexed numTokensRepaid, uint256 indexed newTokenCount);\n    event EmergencyShutdown(address indexed caller, uint256 shutdownTimestamp);\n    event SettleEmergencyShutdown(\n        address indexed caller,\n        uint256 indexed collateralReturned,\n        uint256 indexed tokensBurned\n    );\n\n    /****************************************\n     *               MODIFIERS              *\n     ****************************************/\n\n    modifier onlyCollateralizedPosition(address sponsor) {\n        _onlyCollateralizedPosition(sponsor);\n        _;\n    }\n\n    modifier notEmergencyShutdown() {\n        _notEmergencyShutdown();\n        _;\n    }\n\n    modifier isEmergencyShutdown() {\n        _isEmergencyShutdown();\n        _;\n    }\n\n    modifier noPendingWithdrawal(address sponsor) {\n        _positionHasNoPendingWithdrawal(sponsor);\n        _;\n    }\n\n    /**\n     * @notice Construct the PerpetualPositionManager.\n     * @dev Deployer of this contract should consider carefully which parties have ability to mint and burn\n     * the synthetic tokens referenced by `_tokenAddress`. This contract's security assumes that no external accounts\n     * can mint new tokens, which could be used to steal all of this contract's locked collateral.\n     * We recommend to only use synthetic token contracts whose sole Owner role (the role capable of adding & removing roles)\n     * is assigned to this contract, whose sole Minter role is assigned to this contract, and whose\n     * total supply is 0 prior to construction of this contract.\n     * @param _withdrawalLiveness liveness delay, in seconds, for pending withdrawals.\n     * @param _collateralAddress ERC20 token used as collateral for all positions.\n     * @param _tokenAddress ERC20 token used as synthetic token.\n     * @param _finderAddress UMA protocol Finder used to discover other protocol contracts.\n     * @param _priceIdentifier registered in the DVM for the synthetic.\n     * @param _fundingRateIdentifier Unique identifier for DVM price feed ticker for child financial contract.\n     * @param _fundingRateRewardRate Reward rate to pay FundingRateStore to use funding rate data.\n     * @param _minSponsorTokens minimum amount of collateral that must exist at any time in a position.\n     * @param _timerAddress Contract that stores the current time in a testing environment. Set to 0x0 for production.\n     * @param _excessTokenBeneficiary Beneficiary to send all excess token balances that accrue in the contract.\n     */\n    constructor(\n        uint256 _withdrawalLiveness,\n        address _collateralAddress,\n        address _tokenAddress,\n        address _finderAddress,\n        bytes32 _priceIdentifier,\n        bytes32 _fundingRateIdentifier,\n        FixedPoint.Unsigned memory _fundingRateRewardRate,\n        FixedPoint.Unsigned memory _minSponsorTokens,\n        address _timerAddress,\n        address _excessTokenBeneficiary\n    )\n        public\n        FundingRatePayer(_fundingRateIdentifier, _collateralAddress, _finderAddress, _timerAddress)\n        FundingRateApplier(_finderAddress, _fundingRateRewardRate)\n    {\n        require(_getIdentifierWhitelist().isIdentifierSupported(_priceIdentifier), \"Unsupported price identifier\");\n\n        withdrawalLiveness = _withdrawalLiveness;\n        tokenCurrency = ExpandedIERC20(_tokenAddress);\n        minSponsorTokens = _minSponsorTokens;\n        priceIdentifier = _priceIdentifier;\n        excessTokenBeneficiary = _excessTokenBeneficiary;\n    }\n\n    /****************************************\n     *          POSITION FUNCTIONS          *\n     ****************************************/\n\n    /**\n     * @notice Transfers `collateralAmount` of `collateralCurrency` into the specified sponsor's position.\n     * @dev Increases the collateralization level of a position after creation. This contract must be approved to spend\n     * at least `collateralAmount` of `collateralCurrency`.\n     * @param sponsor the sponsor to credit the deposit to.\n     * @param collateralAmount total amount of collateral tokens to be sent to the sponsor's position.\n     */\n    function depositTo(address sponsor, FixedPoint.Unsigned memory collateralAmount)\n        public\n        notEmergencyShutdown()\n        noPendingWithdrawal(sponsor)\n        fees()\n        updateFundingRate()\n        nonReentrant()\n    {\n        require(collateralAmount.isGreaterThan(0), \"Invalid collateral amount\");\n        PositionData storage positionData = _getPositionData(sponsor);\n\n        // Increase the position and global collateral balance by collateral amount.\n        _incrementCollateralBalances(positionData, collateralAmount);\n\n        emit Deposit(sponsor, collateralAmount.rawValue);\n\n        // Move collateral currency from sender to contract.\n        collateralCurrency.safeTransferFrom(msg.sender, address(this), collateralAmount.rawValue);\n    }\n\n    /**\n     * @notice Transfers `collateralAmount` of `collateralCurrency` into the caller's position.\n     * @dev Increases the collateralization level of a position after creation. This contract must be approved to spend\n     * at least `collateralAmount` of `collateralCurrency`.\n     * @param collateralAmount total amount of collateral tokens to be sent to the sponsor's position.\n     */\n    function deposit(FixedPoint.Unsigned memory collateralAmount) public {\n        // This is just a thin wrapper over depositTo that specified the sender as the sponsor.\n        depositTo(msg.sender, collateralAmount);\n    }\n\n    /**\n     * @notice Transfers `collateralAmount` of `collateralCurrency` from the sponsor's position to the sponsor.\n     * @dev Reverts if the withdrawal puts this position's collateralization ratio below the global collateralization\n     * ratio. In that case, use `requestWithdrawal`. Might not withdraw the full requested amount to account for precision loss.\n     * @param collateralAmount is the amount of collateral to withdraw.\n     * @return amountWithdrawn The actual amount of collateral withdrawn.\n     */\n    function withdraw(FixedPoint.Unsigned memory collateralAmount)\n        public\n        notEmergencyShutdown()\n        noPendingWithdrawal(msg.sender)\n        fees()\n        updateFundingRate()\n        nonReentrant()\n        returns (FixedPoint.Unsigned memory amountWithdrawn)\n    {\n        PositionData storage positionData = _getPositionData(msg.sender);\n        require(collateralAmount.isGreaterThan(0), \"Invalid collateral amount\");\n\n        // Decrement the sponsor's collateral and global collateral amounts. Check the GCR between decrement to ensure\n        // position remains above the GCR within the witdrawl. If this is not the case the caller must submit a request.\n        amountWithdrawn = _decrementCollateralBalancesCheckGCR(positionData, collateralAmount);\n\n        emit Withdrawal(msg.sender, amountWithdrawn.rawValue);\n\n        // Move collateral currency from contract to sender.\n        // Note: that we move the amount of collateral that is decreased from rawCollateral (inclusive of fees)\n        // instead of the user requested amount. This eliminates precision loss that could occur\n        // where the user withdraws more collateral than rawCollateral is decremented by.\n        collateralCurrency.safeTransfer(msg.sender, amountWithdrawn.rawValue);\n    }\n\n    /**\n     * @notice Starts a withdrawal request that, if passed, allows the sponsor to withdraw` from their position.\n     * @dev The request will be pending for `withdrawalLiveness`, during which the position can be liquidated.\n     * @param collateralAmount the amount of collateral requested to withdraw\n     */\n    function requestWithdrawal(FixedPoint.Unsigned memory collateralAmount)\n        public\n        notEmergencyShutdown()\n        noPendingWithdrawal(msg.sender)\n        updateFundingRate()\n        nonReentrant()\n    {\n        PositionData storage positionData = _getPositionData(msg.sender);\n        require(\n            collateralAmount.isGreaterThan(0) &&\n                collateralAmount.isLessThanOrEqual(_getFeeAdjustedCollateral(positionData.rawCollateral)),\n            \"Invalid collateral amount\"\n        );\n\n        // Update the position object for the user.\n        positionData.withdrawalRequestPassTimestamp = getCurrentTime().add(withdrawalLiveness);\n        positionData.withdrawalRequestAmount = collateralAmount;\n\n        emit RequestWithdrawal(msg.sender, collateralAmount.rawValue);\n    }\n\n    /**\n     * @notice After a passed withdrawal request (i.e., by a call to `requestWithdrawal` and waiting\n     * `withdrawalLiveness`), withdraws `positionData.withdrawalRequestAmount` of collateral currency.\n     * @dev Might not withdraw the full requested amount in order to account for precision loss or if the full requested\n     * amount exceeds the collateral in the position (due to paying fees).\n     * @return amountWithdrawn The actual amount of collateral withdrawn.\n     */\n    function withdrawPassedRequest()\n        external\n        notEmergencyShutdown()\n        fees()\n        updateFundingRate()\n        nonReentrant()\n        returns (FixedPoint.Unsigned memory amountWithdrawn)\n    {\n        PositionData storage positionData = _getPositionData(msg.sender);\n        require(\n            positionData.withdrawalRequestPassTimestamp != 0 &&\n                positionData.withdrawalRequestPassTimestamp <= getCurrentTime(),\n            \"Invalid withdraw request\"\n        );\n\n        // If withdrawal request amount is > position collateral, then withdraw the full collateral amount.\n        // This situation is possible due to fees charged since the withdrawal was originally requested.\n        FixedPoint.Unsigned memory amountToWithdraw = positionData.withdrawalRequestAmount;\n        if (positionData.withdrawalRequestAmount.isGreaterThan(_getFeeAdjustedCollateral(positionData.rawCollateral))) {\n            amountToWithdraw = _getFeeAdjustedCollateral(positionData.rawCollateral);\n        }\n\n        // Decrement the sponsor's collateral and global collateral amounts.\n        amountWithdrawn = _decrementCollateralBalances(positionData, amountToWithdraw);\n\n        // Reset withdrawal request by setting withdrawal amount and withdrawal timestamp to 0.\n        _resetWithdrawalRequest(positionData);\n\n        // Transfer approved withdrawal amount from the contract to the caller.\n        collateralCurrency.safeTransfer(msg.sender, amountWithdrawn.rawValue);\n\n        emit RequestWithdrawalExecuted(msg.sender, amountWithdrawn.rawValue);\n    }\n\n    /**\n     * @notice Cancels a pending withdrawal request.\n     */\n    function cancelWithdrawal() external notEmergencyShutdown() updateFundingRate() nonReentrant() {\n        PositionData storage positionData = _getPositionData(msg.sender);\n        require(positionData.withdrawalRequestPassTimestamp != 0, \"No pending withdrawal\");\n\n        emit RequestWithdrawalCanceled(msg.sender, positionData.withdrawalRequestAmount.rawValue);\n\n        // Reset withdrawal request by setting withdrawal amount and withdrawal timestamp to 0.\n        _resetWithdrawalRequest(positionData);\n    }\n\n    /**\n     * @notice Creates tokens by creating a new position or by augmenting an existing position. Pulls `collateralAmount\n     * ` into the sponsor's position and mints `numTokens` of `tokenCurrency`.\n     * @dev This contract must have the Minter role for the `tokenCurrency`.\n     * @dev Reverts if minting these tokens would put the position's collateralization ratio below the\n     * global collateralization ratio. This contract must be approved to spend at least `collateralAmount` of\n     * `collateralCurrency`.\n     * @param collateralAmount is the number of collateral tokens to collateralize the position with\n     * @param numTokens is the number of tokens to mint from the position.\n     */\n    function create(FixedPoint.Unsigned memory collateralAmount, FixedPoint.Unsigned memory numTokens)\n        public\n        notEmergencyShutdown()\n        fees()\n        updateFundingRate()\n        nonReentrant()\n    {\n        PositionData storage positionData = positions[msg.sender];\n\n        // Either the new create ratio or the resultant position CR must be above the current GCR.\n        require(\n            (_checkCollateralization(\n                _getFeeAdjustedCollateral(positionData.rawCollateral).add(collateralAmount),\n                positionData.tokensOutstanding.add(numTokens)\n            ) || _checkCollateralization(collateralAmount, numTokens)),\n            \"Insufficient collateral\"\n        );\n\n        require(positionData.withdrawalRequestPassTimestamp == 0, \"Pending withdrawal\");\n        if (positionData.tokensOutstanding.isEqual(0)) {\n            require(numTokens.isGreaterThanOrEqual(minSponsorTokens), \"Below minimum sponsor position\");\n            emit NewSponsor(msg.sender);\n        }\n\n        // Increase the position and global collateral balance by collateral amount.\n        _incrementCollateralBalances(positionData, collateralAmount);\n\n        // Add the number of tokens created to the position's outstanding tokens.\n        positionData.tokensOutstanding = positionData.tokensOutstanding.add(numTokens);\n\n        totalTokensOutstanding = totalTokensOutstanding.add(numTokens);\n\n        emit PositionCreated(msg.sender, collateralAmount.rawValue, numTokens.rawValue);\n\n        // Transfer tokens into the contract from caller and mint corresponding synthetic tokens to the caller's address.\n        collateralCurrency.safeTransferFrom(msg.sender, address(this), collateralAmount.rawValue);\n        require(tokenCurrency.mint(msg.sender, numTokens.rawValue), \"Minting synthetic tokens failed\");\n    }\n\n    /**\n     * @notice Burns `numTokens` of `tokenCurrency` and sends back the proportional amount of `collateralCurrency`.\n     * @dev Can only be called by a token sponsor. Might not redeem the full proportional amount of collateral\n     * in order to account for precision loss. This contract must be approved to spend at least `numTokens` of\n     * `tokenCurrency`.\n     * @dev This contract must have the Burner role for the `tokenCurrency`.\n     * @param numTokens is the number of tokens to be burnt for a commensurate amount of collateral.\n     * @return amountWithdrawn The actual amount of collateral withdrawn.\n     */\n    function redeem(FixedPoint.Unsigned memory numTokens)\n        public\n        notEmergencyShutdown()\n        noPendingWithdrawal(msg.sender)\n        fees()\n        updateFundingRate()\n        nonReentrant()\n        returns (FixedPoint.Unsigned memory amountWithdrawn)\n    {\n        PositionData storage positionData = _getPositionData(msg.sender);\n        require(numTokens.isLessThanOrEqual(positionData.tokensOutstanding), \"Invalid token amount\");\n\n        FixedPoint.Unsigned memory fractionRedeemed = numTokens.div(positionData.tokensOutstanding);\n        FixedPoint.Unsigned memory collateralRedeemed =\n            fractionRedeemed.mul(_getFeeAdjustedCollateral(positionData.rawCollateral));\n\n        // If redemption returns all tokens the sponsor has then we can delete their position. Else, downsize.\n        if (positionData.tokensOutstanding.isEqual(numTokens)) {\n            amountWithdrawn = _deleteSponsorPosition(msg.sender);\n        } else {\n            // Decrement the sponsor's collateral and global collateral amounts.\n            amountWithdrawn = _decrementCollateralBalances(positionData, collateralRedeemed);\n\n            // Decrease the sponsors position tokens size. Ensure it is above the min sponsor size.\n            FixedPoint.Unsigned memory newTokenCount = positionData.tokensOutstanding.sub(numTokens);\n            require(newTokenCount.isGreaterThanOrEqual(minSponsorTokens), \"Below minimum sponsor position\");\n            positionData.tokensOutstanding = newTokenCount;\n\n            // Update the totalTokensOutstanding after redemption.\n            totalTokensOutstanding = totalTokensOutstanding.sub(numTokens);\n        }\n\n        emit Redeem(msg.sender, amountWithdrawn.rawValue, numTokens.rawValue);\n\n        // Transfer collateral from contract to caller and burn callers synthetic tokens.\n        collateralCurrency.safeTransfer(msg.sender, amountWithdrawn.rawValue);\n        tokenCurrency.safeTransferFrom(msg.sender, address(this), numTokens.rawValue);\n        tokenCurrency.burn(numTokens.rawValue);\n    }\n\n    /**\n     * @notice Burns `numTokens` of `tokenCurrency` to decrease sponsors position size, without sending back `collateralCurrency`.\n     * This is done by a sponsor to increase position CR. Resulting size is bounded by minSponsorTokens.\n     * @dev Can only be called by token sponsor. This contract must be approved to spend `numTokens` of `tokenCurrency`.\n     * @dev This contract must have the Burner role for the `tokenCurrency`.\n     * @param numTokens is the number of tokens to be burnt for a commensurate amount of collateral.\n     */\n    function repay(FixedPoint.Unsigned memory numTokens)\n        public\n        notEmergencyShutdown()\n        noPendingWithdrawal(msg.sender)\n        fees()\n        updateFundingRate()\n        nonReentrant()\n    {\n        PositionData storage positionData = _getPositionData(msg.sender);\n        require(numTokens.isLessThanOrEqual(positionData.tokensOutstanding), \"Invalid token amount\");\n\n        // Decrease the sponsors position tokens size. Ensure it is above the min sponsor size.\n        FixedPoint.Unsigned memory newTokenCount = positionData.tokensOutstanding.sub(numTokens);\n        require(newTokenCount.isGreaterThanOrEqual(minSponsorTokens), \"Below minimum sponsor position\");\n        positionData.tokensOutstanding = newTokenCount;\n\n        // Update the totalTokensOutstanding after redemption.\n        totalTokensOutstanding = totalTokensOutstanding.sub(numTokens);\n\n        emit Repay(msg.sender, numTokens.rawValue, newTokenCount.rawValue);\n\n        // Transfer the tokens back from the sponsor and burn them.\n        tokenCurrency.safeTransferFrom(msg.sender, address(this), numTokens.rawValue);\n        tokenCurrency.burn(numTokens.rawValue);\n    }\n\n    /**\n     * @notice If the contract is emergency shutdown then all token holders and sponsors can redeem their tokens or\n     * remaining collateral for underlying at the prevailing price defined by a DVM vote.\n     * @dev This burns all tokens from the caller of `tokenCurrency` and sends back the resolved settlement value of\n     * `collateralCurrency`. Might not redeem the full proportional amount of collateral in order to account for\n     * precision loss. This contract must be approved to spend `tokenCurrency` at least up to the caller's full balance.\n     * @dev This contract must have the Burner role for the `tokenCurrency`.\n     * @dev Note that this function does not call the updateFundingRate modifier to update the funding rate as this\n     * function is only called after an emergency shutdown & there should be no funding rate updates after the shutdown.\n     * @return amountWithdrawn The actual amount of collateral withdrawn.\n     */\n    function settleEmergencyShutdown()\n        external\n        isEmergencyShutdown()\n        fees()\n        nonReentrant()\n        returns (FixedPoint.Unsigned memory amountWithdrawn)\n    {\n        // Set the emergency shutdown price as resolved from the DVM. If DVM has not resolved will revert.\n        if (emergencyShutdownPrice.isEqual(FixedPoint.fromUnscaledUint(0))) {\n            emergencyShutdownPrice = _getOracleEmergencyShutdownPrice();\n        }\n\n        // Get caller's tokens balance and calculate amount of underlying entitled to them.\n        FixedPoint.Unsigned memory tokensToRedeem = FixedPoint.Unsigned(tokenCurrency.balanceOf(msg.sender));\n        FixedPoint.Unsigned memory totalRedeemableCollateral =\n            _getFundingRateAppliedTokenDebt(tokensToRedeem).mul(emergencyShutdownPrice);\n\n        // If the caller is a sponsor with outstanding collateral they are also entitled to their excess collateral after their debt.\n        PositionData storage positionData = positions[msg.sender];\n        if (_getFeeAdjustedCollateral(positionData.rawCollateral).isGreaterThan(0)) {\n            // Calculate the underlying entitled to a token sponsor. This is collateral - debt in underlying with\n            // the funding rate applied to the outstanding token debt.\n\n            FixedPoint.Unsigned memory tokenDebtValueInCollateral =\n                _getFundingRateAppliedTokenDebt(positionData.tokensOutstanding).mul(emergencyShutdownPrice);\n            FixedPoint.Unsigned memory positionCollateral = _getFeeAdjustedCollateral(positionData.rawCollateral);\n\n            // If the debt is greater than the remaining collateral, they cannot redeem anything.\n            FixedPoint.Unsigned memory positionRedeemableCollateral =\n                tokenDebtValueInCollateral.isLessThan(positionCollateral)\n                    ? positionCollateral.sub(tokenDebtValueInCollateral)\n                    : FixedPoint.Unsigned(0);\n\n            // Add the number of redeemable tokens for the sponsor to their total redeemable collateral.\n            totalRedeemableCollateral = totalRedeemableCollateral.add(positionRedeemableCollateral);\n\n            // Reset the position state as all the value has been removed after settlement.\n            delete positions[msg.sender];\n            emit EndedSponsorPosition(msg.sender);\n        }\n\n        // Take the min of the remaining collateral and the collateral \"owed\". If the contract is undercapitalized,\n        // the caller will get as much collateral as the contract can pay out.\n        FixedPoint.Unsigned memory payout =\n            FixedPoint.min(_getFeeAdjustedCollateral(rawTotalPositionCollateral), totalRedeemableCollateral);\n\n        // Decrement total contract collateral and outstanding debt.\n        amountWithdrawn = _removeCollateral(rawTotalPositionCollateral, payout);\n        totalTokensOutstanding = totalTokensOutstanding.sub(tokensToRedeem);\n\n        emit SettleEmergencyShutdown(msg.sender, amountWithdrawn.rawValue, tokensToRedeem.rawValue);\n\n        // Transfer tokens & collateral and burn the redeemed tokens.\n        collateralCurrency.safeTransfer(msg.sender, amountWithdrawn.rawValue);\n        tokenCurrency.safeTransferFrom(msg.sender, address(this), tokensToRedeem.rawValue);\n        tokenCurrency.burn(tokensToRedeem.rawValue);\n    }\n\n    /****************************************\n     *        GLOBAL STATE FUNCTIONS        *\n     ****************************************/\n\n    function applyFundingRate() external notEmergencyShutdown() updateFundingRate() nonReentrant() {\n        return;\n    }\n\n    /**\n     * @notice Premature contract settlement under emergency circumstances.\n     * @dev Only the governor can call this function as they are permissioned within the `FinancialContractAdmin`.\n     * Upon emergency shutdown, the contract settlement time is set to the shutdown time. This enables withdrawal\n     * to occur via the `settleEmergencyShutdown` function.\n     */\n    function emergencyShutdown() external override notEmergencyShutdown() updateFundingRate() nonReentrant() {\n        require(msg.sender == _getFinancialContractsAdminAddress(), \"Caller not Governor\");\n\n        emergencyShutdownTimestamp = getCurrentTime();\n        _requestOraclePrice(emergencyShutdownTimestamp);\n\n        emit EmergencyShutdown(msg.sender, emergencyShutdownTimestamp);\n    }\n\n    /**\n     * @notice Theoretically supposed to pay fees and move money between margin accounts to make sure they\n     * reflect the NAV of the contract. However, this functionality doesn't apply to this contract.\n     * @dev This is supposed to be implemented by any contract that inherits `AdministrateeInterface` and callable\n     * only by the Governor contract. This method is therefore minimally implemented in this contract and does nothing.\n     */\n    function remargin() external override {\n        return;\n    }\n\n    /**\n     * @notice Drains any excess balance of the provided ERC20 token to a pre-selected beneficiary.\n     * @dev This will drain down to the amount of tracked collateral and drain the full balance of any other token.\n     * @param token address of the ERC20 token whose excess balance should be drained.\n     */\n    function trimExcess(IERC20 token) external nonReentrant() returns (FixedPoint.Unsigned memory amount) {\n        FixedPoint.Unsigned memory balance = FixedPoint.Unsigned(token.balanceOf(address(this)));\n\n        if (address(token) == address(collateralCurrency)) {\n            // If it is the collateral currency, send only the amount that the contract is not tracking.\n            // Note: this could be due to rounding error or balance-changing tokens, like aTokens.\n            amount = balance.sub(_pfc());\n        } else {\n            // If it's not the collateral currency, send the entire balance.\n            amount = balance;\n        }\n        token.safeTransfer(excessTokenBeneficiary, amount.rawValue);\n    }\n\n    /**\n     * @notice Accessor method for a sponsor's collateral.\n     * @dev This is necessary because the struct returned by the positions() method shows\n     * rawCollateral, which isn't a user-readable value.\n     * @dev TODO: This method does not account for any pending regular fees that have not yet been withdrawn\n     * from this contract, for example if the `lastPaymentTime != currentTime`. Future work should be to add\n     * logic to this method to account for any such pending fees.\n     * @param sponsor address whose collateral amount is retrieved.\n     * @return collateralAmount amount of collateral within a sponsors position.\n     */\n    function getCollateral(address sponsor)\n        external\n        view\n        nonReentrantView()\n        returns (FixedPoint.Unsigned memory collateralAmount)\n    {\n        // Note: do a direct access to avoid the validity check.\n        return _getFeeAdjustedCollateral(positions[sponsor].rawCollateral);\n    }\n\n    /**\n     * @notice Accessor method for the total collateral stored within the PerpetualPositionManager.\n     * @return totalCollateral amount of all collateral within the position manager.\n     */\n    function totalPositionCollateral()\n        external\n        view\n        nonReentrantView()\n        returns (FixedPoint.Unsigned memory totalCollateral)\n    {\n        return _getFeeAdjustedCollateral(rawTotalPositionCollateral);\n    }\n\n    function getFundingRateAppliedTokenDebt(FixedPoint.Unsigned memory rawTokenDebt)\n        external\n        view\n        nonReentrantView()\n        returns (FixedPoint.Unsigned memory totalCollateral)\n    {\n        return _getFundingRateAppliedTokenDebt(rawTokenDebt);\n    }\n\n    /****************************************\n     *          INTERNAL FUNCTIONS          *\n     ****************************************/\n\n    // Reduces a sponsor's position and global counters by the specified parameters. Handles deleting the entire\n    // position if the entire position is being removed. Does not make any external transfers.\n    function _reduceSponsorPosition(\n        address sponsor,\n        FixedPoint.Unsigned memory tokensToRemove,\n        FixedPoint.Unsigned memory collateralToRemove,\n        FixedPoint.Unsigned memory withdrawalAmountToRemove\n    ) internal {\n        PositionData storage positionData = _getPositionData(sponsor);\n\n        // If the entire position is being removed, delete it instead.\n        if (\n            tokensToRemove.isEqual(positionData.tokensOutstanding) &&\n            _getFeeAdjustedCollateral(positionData.rawCollateral).isEqual(collateralToRemove)\n        ) {\n            _deleteSponsorPosition(sponsor);\n            return;\n        }\n\n        // Decrement the sponsor's collateral and global collateral amounts.\n        _decrementCollateralBalances(positionData, collateralToRemove);\n\n        // Ensure that the sponsor will meet the min position size after the reduction.\n        positionData.tokensOutstanding = positionData.tokensOutstanding.sub(tokensToRemove);\n        require(\n            positionData.tokensOutstanding.isGreaterThanOrEqual(minSponsorTokens),\n            \"Below minimum sponsor position\"\n        );\n\n        // Decrement the position's withdrawal amount.\n        positionData.withdrawalRequestAmount = positionData.withdrawalRequestAmount.sub(withdrawalAmountToRemove);\n\n        // Decrement the total outstanding tokens in the overall contract.\n        totalTokensOutstanding = totalTokensOutstanding.sub(tokensToRemove);\n    }\n\n    // Deletes a sponsor's position and updates global counters. Does not make any external transfers.\n    function _deleteSponsorPosition(address sponsor) internal returns (FixedPoint.Unsigned memory) {\n        PositionData storage positionToLiquidate = _getPositionData(sponsor);\n\n        FixedPoint.Unsigned memory startingGlobalCollateral = _getFeeAdjustedCollateral(rawTotalPositionCollateral);\n\n        // Remove the collateral and outstanding from the overall total position.\n        rawTotalPositionCollateral = rawTotalPositionCollateral.sub(positionToLiquidate.rawCollateral);\n        totalTokensOutstanding = totalTokensOutstanding.sub(positionToLiquidate.tokensOutstanding);\n\n        // Reset the sponsors position to have zero outstanding and collateral.\n        delete positions[sponsor];\n\n        emit EndedSponsorPosition(sponsor);\n\n        // Return fee-adjusted amount of collateral deleted from position.\n        return startingGlobalCollateral.sub(_getFeeAdjustedCollateral(rawTotalPositionCollateral));\n    }\n\n    function _pfc() internal view virtual override returns (FixedPoint.Unsigned memory) {\n        return _getFeeAdjustedCollateral(rawTotalPositionCollateral);\n    }\n\n    function _getPositionData(address sponsor)\n        internal\n        view\n        onlyCollateralizedPosition(sponsor)\n        returns (PositionData storage)\n    {\n        return positions[sponsor];\n    }\n\n    function _getIdentifierWhitelist() internal view returns (IdentifierWhitelistInterface) {\n        return IdentifierWhitelistInterface(finder.getImplementationAddress(OracleInterfaces.IdentifierWhitelist));\n    }\n\n    function _getOracle() internal view returns (OracleInterface) {\n        return OracleInterface(finder.getImplementationAddress(OracleInterfaces.Oracle));\n    }\n\n    function _getFinancialContractsAdminAddress() internal view returns (address) {\n        return finder.getImplementationAddress(OracleInterfaces.FinancialContractsAdmin);\n    }\n\n    // Requests a price for `priceIdentifier` at `requestedTime` from the Oracle.\n    function _requestOraclePrice(uint256 requestedTime) internal {\n        _getOracle().requestPrice(priceIdentifier, requestedTime);\n    }\n\n    // Fetches a resolved Oracle price from the Oracle. Reverts if the Oracle hasn't resolved for this request.\n    function _getOraclePrice(uint256 requestedTime) internal view returns (FixedPoint.Unsigned memory price) {\n        // Create an instance of the oracle and get the price. If the price is not resolved revert.\n        OracleInterface oracle = _getOracle();\n        require(oracle.hasPrice(priceIdentifier, requestedTime), \"Unresolved oracle price\");\n        int256 oraclePrice = oracle.getPrice(priceIdentifier, requestedTime);\n\n        // For now we don't want to deal with negative prices in positions.\n        if (oraclePrice < 0) {\n            oraclePrice = 0;\n        }\n        return FixedPoint.Unsigned(uint256(oraclePrice));\n    }\n\n    // Fetches a resolved Oracle price from the Oracle. Reverts if the Oracle hasn't resolved for this request.\n    function _getOracleEmergencyShutdownPrice() internal view returns (FixedPoint.Unsigned memory) {\n        require(emergencyShutdownTimestamp != 0, \"No shutdown timestamp set\");\n        return _getOraclePrice(emergencyShutdownTimestamp);\n    }\n\n    // Reset withdrawal request by setting the withdrawal request and withdrawal timestamp to 0.\n    function _resetWithdrawalRequest(PositionData storage positionData) internal {\n        positionData.withdrawalRequestAmount = FixedPoint.fromUnscaledUint(0);\n        positionData.withdrawalRequestPassTimestamp = 0;\n    }\n\n    // Ensure individual and global consistency when increasing collateral balances. Returns the change to the position.\n    function _incrementCollateralBalances(\n        PositionData storage positionData,\n        FixedPoint.Unsigned memory collateralAmount\n    ) internal returns (FixedPoint.Unsigned memory) {\n        _addCollateral(positionData.rawCollateral, collateralAmount);\n        return _addCollateral(rawTotalPositionCollateral, collateralAmount);\n    }\n\n    // Ensure individual and global consistency when decrementing collateral balances. Returns the change to the\n    // position. We elect to return the amount that the global collateral is decreased by, rather than the individual\n    // position's collateral, because we need to maintain the invariant that the global collateral is always\n    // <= the collateral owned by the contract to avoid reverts on withdrawals. The amount returned = amount withdrawn.\n    function _decrementCollateralBalances(\n        PositionData storage positionData,\n        FixedPoint.Unsigned memory collateralAmount\n    ) internal returns (FixedPoint.Unsigned memory) {\n        _removeCollateral(positionData.rawCollateral, collateralAmount);\n        return _removeCollateral(rawTotalPositionCollateral, collateralAmount);\n    }\n\n    // Ensure individual and global consistency when decrementing collateral balances. Returns the change to the position.\n    // This function is similar to the _decrementCollateralBalances function except this function checks position GCR\n    // between the decrements. This ensures that collateral removal will not leave the position undercollateralized.\n    function _decrementCollateralBalancesCheckGCR(\n        PositionData storage positionData,\n        FixedPoint.Unsigned memory collateralAmount\n    ) internal returns (FixedPoint.Unsigned memory) {\n        _removeCollateral(positionData.rawCollateral, collateralAmount);\n        require(_checkPositionCollateralization(positionData), \"CR below GCR\");\n        return _removeCollateral(rawTotalPositionCollateral, collateralAmount);\n    }\n\n    // These internal functions are supposed to act identically to modifiers, but re-used modifiers\n    // unnecessarily increase contract bytecode size.\n    // source: https://blog.polymath.network/solidity-tips-and-tricks-to-save-gas-and-reduce-bytecode-size-c44580b218e6\n    function _onlyCollateralizedPosition(address sponsor) internal view {\n        require(\n            _getFeeAdjustedCollateral(positions[sponsor].rawCollateral).isGreaterThan(0),\n            \"Position has no collateral\"\n        );\n    }\n\n    function _notEmergencyShutdown() internal view {\n        require(emergencyShutdownTimestamp == 0, \"Contract emergency shutdown\");\n    }\n\n    function _isEmergencyShutdown() internal view {\n        require(emergencyShutdownTimestamp != 0, \"Contract not emergency shutdown\");\n    }\n\n    // Note: This checks whether an already existing position has a pending withdrawal. This cannot be used on the\n    // `create` method because it is possible that `create` is called on a new position (i.e. one without any collateral\n    // or tokens outstanding) which would fail the `onlyCollateralizedPosition` modifier on `_getPositionData`.\n    function _positionHasNoPendingWithdrawal(address sponsor) internal view {\n        require(_getPositionData(sponsor).withdrawalRequestPassTimestamp == 0, \"Pending withdrawal\");\n    }\n\n    /****************************************\n     *          PRIVATE FUNCTIONS          *\n     ****************************************/\n\n    function _checkPositionCollateralization(PositionData storage positionData) private view returns (bool) {\n        return\n            _checkCollateralization(\n                _getFeeAdjustedCollateral(positionData.rawCollateral),\n                positionData.tokensOutstanding\n            );\n    }\n\n    // Checks whether the provided `collateral` and `numTokens` have a collateralization ratio above the global\n    // collateralization ratio.\n    function _checkCollateralization(FixedPoint.Unsigned memory collateral, FixedPoint.Unsigned memory numTokens)\n        private\n        view\n        returns (bool)\n    {\n        FixedPoint.Unsigned memory global =\n            _getCollateralizationRatio(_getFeeAdjustedCollateral(rawTotalPositionCollateral), totalTokensOutstanding);\n        FixedPoint.Unsigned memory thisChange = _getCollateralizationRatio(collateral, numTokens);\n        return !global.isGreaterThan(thisChange);\n    }\n\n    function _getCollateralizationRatio(FixedPoint.Unsigned memory collateral, FixedPoint.Unsigned memory numTokens)\n        private\n        pure\n        returns (FixedPoint.Unsigned memory ratio)\n    {\n        return numTokens.isLessThanOrEqual(0) ? FixedPoint.fromUnscaledUint(0) : collateral.div(numTokens);\n    }\n}\n",
  "sourcePath": "/home/circleci/protocol/packages/core/contracts/financial-templates/perpetual-multiparty/PerpetualPositionManager.sol",
  "compiler": {
    "name": "solc",
    "version": "0.6.12+commit.27d51765.Emscripten.clang"
  },
  "schemaVersion": "3.2.3",
  "updatedAt": "2020-11-23T23:49:10.146Z",
  "devdoc": {
    "kind": "dev",
    "methods": {
      "constructor": {
        "details": "Deployer of this contract should consider carefully which parties have ability to mint and burn the synthetic tokens referenced by `_tokenAddress`. This contract's security assumes that no external accounts can mint new tokens, which could be used to steal all of this contract's locked collateral. We recommend to only use synthetic token contracts whose sole Owner role (the role capable of adding & removing roles) is assigned to this contract, whose sole Minter role is assigned to this contract, and whose total supply is 0 prior to construction of this contract.",
        "params": {
          "_collateralAddress": "ERC20 token used as collateral for all positions.",
          "_excessTokenBeneficiary": "Beneficiary to send all excess token balances that accrue in the contract.",
          "_finderAddress": "UMA protocol Finder used to discover other protocol contracts.",
          "_fundingRateIdentifier": "Unique identifier for DVM price feed ticker for child financial contract.",
          "_fundingRateRewardRate": "Reward rate to pay FundingRateStore to use funding rate data.",
          "_minSponsorTokens": "minimum amount of collateral that must exist at any time in a position.",
          "_priceIdentifier": "registered in the DVM for the synthetic.",
          "_timerAddress": "Contract that stores the current time in a testing environment. Set to 0x0 for production.",
          "_tokenAddress": "ERC20 token used as synthetic token.",
          "_withdrawalLiveness": "liveness delay, in seconds, for pending withdrawals."
        }
      },
      "create((uint256),(uint256))": {
        "details": "This contract must have the Minter role for the `tokenCurrency`.Reverts if minting these tokens would put the position's collateralization ratio below the global collateralization ratio. This contract must be approved to spend at least `collateralAmount` of `collateralCurrency`.",
        "params": {
          "collateralAmount": "is the number of collateral tokens to collateralize the position with",
          "numTokens": "is the number of tokens to mint from the position."
        }
      },
      "deposit((uint256))": {
        "details": "Increases the collateralization level of a position after creation. This contract must be approved to spend at least `collateralAmount` of `collateralCurrency`.",
        "params": {
          "collateralAmount": "total amount of collateral tokens to be sent to the sponsor's position."
        }
      },
      "depositTo(address,(uint256))": {
        "details": "Increases the collateralization level of a position after creation. This contract must be approved to spend at least `collateralAmount` of `collateralCurrency`.",
        "params": {
          "collateralAmount": "total amount of collateral tokens to be sent to the sponsor's position.",
          "sponsor": "the sponsor to credit the deposit to."
        }
      },
      "emergencyShutdown()": {
        "details": "Only the governor can call this function as they are permissioned within the `FinancialContractAdmin`. Upon emergency shutdown, the contract settlement time is set to the shutdown time. This enables withdrawal to occur via the `settleEmergencyShutdown` function."
      },
      "getCollateral(address)": {
        "details": "This is necessary because the struct returned by the positions() method shows rawCollateral, which isn't a user-readable value.TODO: This method does not account for any pending regular fees that have not yet been withdrawn from this contract, for example if the `lastPaymentTime != currentTime`. Future work should be to add logic to this method to account for any such pending fees.",
        "params": {
          "sponsor": "address whose collateral amount is retrieved."
        },
        "returns": {
          "collateralAmount": "amount of collateral within a sponsors position."
        }
      },
      "getCurrentTime()": {
        "returns": {
          "_0": "uint for the current Testable timestamp."
        }
      },
      "payRegularFees()": {
        "details": "These must be paid periodically for the life of the contract. If the contract has not paid its regular fee in a week or more then a late penalty is applied which is sent to the caller. If the amount of fees owed are greater than the pfc, then this will pay as much as possible from the available collateral. An event is only fired if the fees charged are greater than 0.",
        "returns": {
          "totalPaid": "Amount of collateral that the contract paid (sum of the amount paid to the Store and caller). This returns 0 and exit early if there is no pfc, fees were already paid during the current block, or the fee rate is 0."
        }
      },
      "pfc()": {
        "details": "This is equivalent to the collateral pool available from which to pay fees. Therefore, derived contracts are expected to implement this so that pay-fee methods can correctly compute the owed fees as a % of PfC.",
        "returns": {
          "_0": "pfc value for equal to the current profit from corruption denominated in collateral currency."
        }
      },
      "redeem((uint256))": {
        "details": "Can only be called by a token sponsor. Might not redeem the full proportional amount of collateral in order to account for precision loss. This contract must be approved to spend at least `numTokens` of `tokenCurrency`.This contract must have the Burner role for the `tokenCurrency`.",
        "params": {
          "numTokens": "is the number of tokens to be burnt for a commensurate amount of collateral."
        },
        "returns": {
          "amountWithdrawn": "The actual amount of collateral withdrawn."
        }
      },
      "remargin()": {
        "details": "This is supposed to be implemented by any contract that inherits `AdministrateeInterface` and callable only by the Governor contract. This method is therefore minimally implemented in this contract and does nothing."
      },
      "repay((uint256))": {
        "details": "Can only be called by token sponsor. This contract must be approved to spend `numTokens` of `tokenCurrency`.This contract must have the Burner role for the `tokenCurrency`.",
        "params": {
          "numTokens": "is the number of tokens to be burnt for a commensurate amount of collateral."
        }
      },
      "requestWithdrawal((uint256))": {
        "details": "The request will be pending for `withdrawalLiveness`, during which the position can be liquidated.",
        "params": {
          "collateralAmount": "the amount of collateral requested to withdraw"
        }
      },
      "setCurrentTime(uint256)": {
        "details": "Will revert if not running in test mode.",
        "params": {
          "time": "timestamp to set current Testable time to."
        }
      },
      "settleEmergencyShutdown()": {
        "details": "This burns all tokens from the caller of `tokenCurrency` and sends back the resolved settlement value of `collateralCurrency`. Might not redeem the full proportional amount of collateral in order to account for precision loss. This contract must be approved to spend `tokenCurrency` at least up to the caller's full balance.This contract must have the Burner role for the `tokenCurrency`.Note that this function does not call the updateFundingRate modifier to update the funding rate as this function is only called after an emergency shutdown & there should be no funding rate updates after the shutdown.",
        "returns": {
          "amountWithdrawn": "The actual amount of collateral withdrawn."
        }
      },
      "totalPositionCollateral()": {
        "returns": {
          "totalCollateral": "amount of all collateral within the position manager."
        }
      },
      "trimExcess(address)": {
        "details": "This will drain down to the amount of tracked collateral and drain the full balance of any other token.",
        "params": {
          "token": "address of the ERC20 token whose excess balance should be drained."
        }
      },
      "withdraw((uint256))": {
        "details": "Reverts if the withdrawal puts this position's collateralization ratio below the global collateralization ratio. In that case, use `requestWithdrawal`. Might not withdraw the full requested amount to account for precision loss.",
        "params": {
          "collateralAmount": "is the amount of collateral to withdraw."
        },
        "returns": {
          "amountWithdrawn": "The actual amount of collateral withdrawn."
        }
      },
      "withdrawFundingRateFees((uint256))": {
        "details": "Callable only by the FundingRateStore. This should never revert. Note that regular fees are withdrawn before any funding rate fees. This means that if the caller intended to withdraw funding rate fees as a % of this contract's PfC, then the effective % could be slightly less if any regular fees had not been withdrawn yet. The caller should be aware that the value of `pfc()` before this call could be slightly higher than the one during this call, prior to withdrawing any funding rate fees, due solely to regular fees.",
        "params": {
          "amount": "Amount of fees to pay to FundingRateStore."
        },
        "returns": {
          "_0": "actual amount of fees withdrawn, which can be less than `amount` if regular fees were assessed."
        }
      },
      "withdrawPassedRequest()": {
        "details": "Might not withdraw the full requested amount in order to account for precision loss or if the full requested amount exceeds the collateral in the position (due to paying fees).",
        "returns": {
          "amountWithdrawn": "The actual amount of collateral withdrawn."
        }
      }
    },
    "title": "Financial contract with priceless position management.",
    "version": 1
  },
  "userdoc": {
    "kind": "user",
    "methods": {
      "cancelWithdrawal()": {
        "notice": "Cancels a pending withdrawal request."
      },
      "constructor": "Construct the PerpetualPositionManager.",
      "create((uint256),(uint256))": {
        "notice": "Creates tokens by creating a new position or by augmenting an existing position. Pulls `collateralAmount ` into the sponsor's position and mints `numTokens` of `tokenCurrency`."
      },
      "deposit((uint256))": {
        "notice": "Transfers `collateralAmount` of `collateralCurrency` into the caller's position."
      },
      "depositTo(address,(uint256))": {
        "notice": "Transfers `collateralAmount` of `collateralCurrency` into the specified sponsor's position."
      },
      "emergencyShutdown()": {
        "notice": "Premature contract settlement under emergency circumstances."
      },
      "getCollateral(address)": {
        "notice": "Accessor method for a sponsor's collateral."
      },
      "getCurrentTime()": {
        "notice": "Gets the current time. Will return the last time set in `setCurrentTime` if running in test mode. Otherwise, it will return the block timestamp."
      },
      "payRegularFees()": {
        "notice": "Pays UMA DVM regular fees (as a % of the collateral pool) to the Store contract."
      },
      "pfc()": {
        "notice": "Gets the current profit from corruption for this contract in terms of the collateral currency."
      },
      "redeem((uint256))": {
        "notice": "Burns `numTokens` of `tokenCurrency` and sends back the proportional amount of `collateralCurrency`."
      },
      "remargin()": {
        "notice": "Theoretically supposed to pay fees and move money between margin accounts to make sure they reflect the NAV of the contract. However, this functionality doesn't apply to this contract."
      },
      "repay((uint256))": {
        "notice": "Burns `numTokens` of `tokenCurrency` to decrease sponsors position size, without sending back `collateralCurrency`. This is done by a sponsor to increase position CR. Resulting size is bounded by minSponsorTokens."
      },
      "requestWithdrawal((uint256))": {
        "notice": "Starts a withdrawal request that, if passed, allows the sponsor to withdraw` from their position."
      },
      "setCurrentTime(uint256)": {
        "notice": "Sets the current time."
      },
      "settleEmergencyShutdown()": {
        "notice": "If the contract is emergency shutdown then all token holders and sponsors can redeem their tokens or remaining collateral for underlying at the prevailing price defined by a DVM vote."
      },
      "totalPositionCollateral()": {
        "notice": "Accessor method for the total collateral stored within the PerpetualPositionManager."
      },
      "trimExcess(address)": {
        "notice": "Drains any excess balance of the provided ERC20 token to a pre-selected beneficiary."
      },
      "withdraw((uint256))": {
        "notice": "Transfers `collateralAmount` of `collateralCurrency` from the sponsor's position to the sponsor."
      },
      "withdrawFundingRateFees((uint256))": {
        "notice": "Sends `amount` fees to the FundingRateStore contract and debits the raw collateral accordingly."
      },
      "withdrawPassedRequest()": {
        "notice": "After a passed withdrawal request (i.e., by a call to `requestWithdrawal` and waiting `withdrawalLiveness`), withdraws `positionData.withdrawalRequestAmount` of collateral currency."
      }
    },
    "notice": "Handles positions for multiple sponsors in an optimistic (i.e., priceless) way without relying on a price feed. On construction, deploys a new ERC20, managed by this contract, that is the synthetic token.",
    "version": 1
  }
}