{
  "contractName": "SignedFixedPointTest",
  "abi": [
    {
      "inputs": [
        {
          "internalType": "int256",
          "name": "a",
          "type": "int256"
        }
      ],
      "name": "wrapFromSigned",
      "outputs": [
        {
          "internalType": "uint256",
          "name": "",
          "type": "uint256"
        }
      ],
      "stateMutability": "pure",
      "type": "function"
    },
    {
      "inputs": [
        {
          "internalType": "uint256",
          "name": "a",
          "type": "uint256"
        }
      ],
      "name": "wrapFromUnsigned",
      "outputs": [
        {
          "internalType": "int256",
          "name": "",
          "type": "int256"
        }
      ],
      "stateMutability": "pure",
      "type": "function"
    },
    {
      "inputs": [
        {
          "internalType": "int256",
          "name": "a",
          "type": "int256"
        }
      ],
      "name": "wrapFromUnscaledInt",
      "outputs": [
        {
          "internalType": "int256",
          "name": "",
          "type": "int256"
        }
      ],
      "stateMutability": "pure",
      "type": "function"
    },
    {
      "inputs": [
        {
          "internalType": "int256",
          "name": "a",
          "type": "int256"
        },
        {
          "internalType": "int256",
          "name": "b",
          "type": "int256"
        }
      ],
      "name": "wrapIsEqual",
      "outputs": [
        {
          "internalType": "bool",
          "name": "",
          "type": "bool"
        }
      ],
      "stateMutability": "pure",
      "type": "function"
    },
    {
      "inputs": [
        {
          "internalType": "int256",
          "name": "a",
          "type": "int256"
        },
        {
          "internalType": "int256",
          "name": "b",
          "type": "int256"
        }
      ],
      "name": "wrapMixedIsEqual",
      "outputs": [
        {
          "internalType": "bool",
          "name": "",
          "type": "bool"
        }
      ],
      "stateMutability": "pure",
      "type": "function"
    },
    {
      "inputs": [
        {
          "internalType": "int256",
          "name": "a",
          "type": "int256"
        },
        {
          "internalType": "int256",
          "name": "b",
          "type": "int256"
        }
      ],
      "name": "wrapIsGreaterThan",
      "outputs": [
        {
          "internalType": "bool",
          "name": "",
          "type": "bool"
        }
      ],
      "stateMutability": "pure",
      "type": "function"
    },
    {
      "inputs": [
        {
          "internalType": "int256",
          "name": "a",
          "type": "int256"
        },
        {
          "internalType": "int256",
          "name": "b",
          "type": "int256"
        }
      ],
      "name": "wrapIsGreaterThanOrEqual",
      "outputs": [
        {
          "internalType": "bool",
          "name": "",
          "type": "bool"
        }
      ],
      "stateMutability": "pure",
      "type": "function"
    },
    {
      "inputs": [
        {
          "internalType": "int256",
          "name": "a",
          "type": "int256"
        },
        {
          "internalType": "int256",
          "name": "b",
          "type": "int256"
        }
      ],
      "name": "wrapMixedIsGreaterThan",
      "outputs": [
        {
          "internalType": "bool",
          "name": "",
          "type": "bool"
        }
      ],
      "stateMutability": "pure",
      "type": "function"
    },
    {
      "inputs": [
        {
          "internalType": "int256",
          "name": "a",
          "type": "int256"
        },
        {
          "internalType": "int256",
          "name": "b",
          "type": "int256"
        }
      ],
      "name": "wrapMixedIsGreaterThanOrEqual",
      "outputs": [
        {
          "internalType": "bool",
          "name": "",
          "type": "bool"
        }
      ],
      "stateMutability": "pure",
      "type": "function"
    },
    {
      "inputs": [
        {
          "internalType": "int256",
          "name": "a",
          "type": "int256"
        },
        {
          "internalType": "int256",
          "name": "b",
          "type": "int256"
        }
      ],
      "name": "wrapMixedIsGreaterThanOpposite",
      "outputs": [
        {
          "internalType": "bool",
          "name": "",
          "type": "bool"
        }
      ],
      "stateMutability": "pure",
      "type": "function"
    },
    {
      "inputs": [
        {
          "internalType": "int256",
          "name": "a",
          "type": "int256"
        },
        {
          "internalType": "int256",
          "name": "b",
          "type": "int256"
        }
      ],
      "name": "wrapMixedIsGreaterThanOrEqualOpposite",
      "outputs": [
        {
          "internalType": "bool",
          "name": "",
          "type": "bool"
        }
      ],
      "stateMutability": "pure",
      "type": "function"
    },
    {
      "inputs": [
        {
          "internalType": "int256",
          "name": "a",
          "type": "int256"
        },
        {
          "internalType": "int256",
          "name": "b",
          "type": "int256"
        }
      ],
      "name": "wrapIsLessThan",
      "outputs": [
        {
          "internalType": "bool",
          "name": "",
          "type": "bool"
        }
      ],
      "stateMutability": "pure",
      "type": "function"
    },
    {
      "inputs": [
        {
          "internalType": "int256",
          "name": "a",
          "type": "int256"
        },
        {
          "internalType": "int256",
          "name": "b",
          "type": "int256"
        }
      ],
      "name": "wrapIsLessThanOrEqual",
      "outputs": [
        {
          "internalType": "bool",
          "name": "",
          "type": "bool"
        }
      ],
      "stateMutability": "pure",
      "type": "function"
    },
    {
      "inputs": [
        {
          "internalType": "int256",
          "name": "a",
          "type": "int256"
        },
        {
          "internalType": "int256",
          "name": "b",
          "type": "int256"
        }
      ],
      "name": "wrapMixedIsLessThan",
      "outputs": [
        {
          "internalType": "bool",
          "name": "",
          "type": "bool"
        }
      ],
      "stateMutability": "pure",
      "type": "function"
    },
    {
      "inputs": [
        {
          "internalType": "int256",
          "name": "a",
          "type": "int256"
        },
        {
          "internalType": "int256",
          "name": "b",
          "type": "int256"
        }
      ],
      "name": "wrapMixedIsLessThanOrEqual",
      "outputs": [
        {
          "internalType": "bool",
          "name": "",
          "type": "bool"
        }
      ],
      "stateMutability": "pure",
      "type": "function"
    },
    {
      "inputs": [
        {
          "internalType": "int256",
          "name": "a",
          "type": "int256"
        },
        {
          "internalType": "int256",
          "name": "b",
          "type": "int256"
        }
      ],
      "name": "wrapMixedIsLessThanOpposite",
      "outputs": [
        {
          "internalType": "bool",
          "name": "",
          "type": "bool"
        }
      ],
      "stateMutability": "pure",
      "type": "function"
    },
    {
      "inputs": [
        {
          "internalType": "int256",
          "name": "a",
          "type": "int256"
        },
        {
          "internalType": "int256",
          "name": "b",
          "type": "int256"
        }
      ],
      "name": "wrapMixedIsLessThanOrEqualOpposite",
      "outputs": [
        {
          "internalType": "bool",
          "name": "",
          "type": "bool"
        }
      ],
      "stateMutability": "pure",
      "type": "function"
    },
    {
      "inputs": [
        {
          "internalType": "int256",
          "name": "a",
          "type": "int256"
        },
        {
          "internalType": "int256",
          "name": "b",
          "type": "int256"
        }
      ],
      "name": "wrapMin",
      "outputs": [
        {
          "internalType": "int256",
          "name": "",
          "type": "int256"
        }
      ],
      "stateMutability": "pure",
      "type": "function"
    },
    {
      "inputs": [
        {
          "internalType": "int256",
          "name": "a",
          "type": "int256"
        },
        {
          "internalType": "int256",
          "name": "b",
          "type": "int256"
        }
      ],
      "name": "wrapMax",
      "outputs": [
        {
          "internalType": "int256",
          "name": "",
          "type": "int256"
        }
      ],
      "stateMutability": "pure",
      "type": "function"
    },
    {
      "inputs": [
        {
          "internalType": "int256",
          "name": "a",
          "type": "int256"
        },
        {
          "internalType": "int256",
          "name": "b",
          "type": "int256"
        }
      ],
      "name": "wrapAdd",
      "outputs": [
        {
          "internalType": "int256",
          "name": "",
          "type": "int256"
        }
      ],
      "stateMutability": "pure",
      "type": "function"
    },
    {
      "inputs": [
        {
          "internalType": "int256",
          "name": "a",
          "type": "int256"
        },
        {
          "internalType": "int256",
          "name": "b",
          "type": "int256"
        }
      ],
      "name": "wrapMixedAdd",
      "outputs": [
        {
          "internalType": "int256",
          "name": "",
          "type": "int256"
        }
      ],
      "stateMutability": "pure",
      "type": "function"
    },
    {
      "inputs": [
        {
          "internalType": "int256",
          "name": "a",
          "type": "int256"
        },
        {
          "internalType": "int256",
          "name": "b",
          "type": "int256"
        }
      ],
      "name": "wrapSub",
      "outputs": [
        {
          "internalType": "int256",
          "name": "",
          "type": "int256"
        }
      ],
      "stateMutability": "pure",
      "type": "function"
    },
    {
      "inputs": [
        {
          "internalType": "int256",
          "name": "a",
          "type": "int256"
        },
        {
          "internalType": "int256",
          "name": "b",
          "type": "int256"
        }
      ],
      "name": "wrapMixedSub",
      "outputs": [
        {
          "internalType": "int256",
          "name": "",
          "type": "int256"
        }
      ],
      "stateMutability": "pure",
      "type": "function"
    },
    {
      "inputs": [
        {
          "internalType": "int256",
          "name": "a",
          "type": "int256"
        },
        {
          "internalType": "int256",
          "name": "b",
          "type": "int256"
        }
      ],
      "name": "wrapMixedSubOpposite",
      "outputs": [
        {
          "internalType": "int256",
          "name": "",
          "type": "int256"
        }
      ],
      "stateMutability": "pure",
      "type": "function"
    },
    {
      "inputs": [
        {
          "internalType": "int256",
          "name": "a",
          "type": "int256"
        },
        {
          "internalType": "int256",
          "name": "b",
          "type": "int256"
        }
      ],
      "name": "wrapMul",
      "outputs": [
        {
          "internalType": "int256",
          "name": "",
          "type": "int256"
        }
      ],
      "stateMutability": "pure",
      "type": "function"
    },
    {
      "inputs": [
        {
          "internalType": "int256",
          "name": "a",
          "type": "int256"
        },
        {
          "internalType": "int256",
          "name": "b",
          "type": "int256"
        }
      ],
      "name": "wrapMulAwayFromZero",
      "outputs": [
        {
          "internalType": "int256",
          "name": "",
          "type": "int256"
        }
      ],
      "stateMutability": "pure",
      "type": "function"
    },
    {
      "inputs": [
        {
          "internalType": "int256",
          "name": "a",
          "type": "int256"
        },
        {
          "internalType": "int256",
          "name": "b",
          "type": "int256"
        }
      ],
      "name": "wrapMixedMul",
      "outputs": [
        {
          "internalType": "int256",
          "name": "",
          "type": "int256"
        }
      ],
      "stateMutability": "pure",
      "type": "function"
    },
    {
      "inputs": [
        {
          "internalType": "int256",
          "name": "a",
          "type": "int256"
        },
        {
          "internalType": "int256",
          "name": "b",
          "type": "int256"
        }
      ],
      "name": "wrapMixedMulAwayFromZero",
      "outputs": [
        {
          "internalType": "int256",
          "name": "",
          "type": "int256"
        }
      ],
      "stateMutability": "pure",
      "type": "function"
    },
    {
      "inputs": [
        {
          "internalType": "int256",
          "name": "a",
          "type": "int256"
        },
        {
          "internalType": "int256",
          "name": "b",
          "type": "int256"
        }
      ],
      "name": "wrapDiv",
      "outputs": [
        {
          "internalType": "int256",
          "name": "",
          "type": "int256"
        }
      ],
      "stateMutability": "pure",
      "type": "function"
    },
    {
      "inputs": [
        {
          "internalType": "int256",
          "name": "a",
          "type": "int256"
        },
        {
          "internalType": "int256",
          "name": "b",
          "type": "int256"
        }
      ],
      "name": "wrapDivAwayFromZero",
      "outputs": [
        {
          "internalType": "int256",
          "name": "",
          "type": "int256"
        }
      ],
      "stateMutability": "pure",
      "type": "function"
    },
    {
      "inputs": [
        {
          "internalType": "int256",
          "name": "a",
          "type": "int256"
        },
        {
          "internalType": "int256",
          "name": "b",
          "type": "int256"
        }
      ],
      "name": "wrapMixedDiv",
      "outputs": [
        {
          "internalType": "int256",
          "name": "",
          "type": "int256"
        }
      ],
      "stateMutability": "pure",
      "type": "function"
    },
    {
      "inputs": [
        {
          "internalType": "int256",
          "name": "a",
          "type": "int256"
        },
        {
          "internalType": "int256",
          "name": "b",
          "type": "int256"
        }
      ],
      "name": "wrapMixedDivAwayFromZero",
      "outputs": [
        {
          "internalType": "int256",
          "name": "",
          "type": "int256"
        }
      ],
      "stateMutability": "pure",
      "type": "function"
    },
    {
      "inputs": [
        {
          "internalType": "int256",
          "name": "a",
          "type": "int256"
        },
        {
          "internalType": "int256",
          "name": "b",
          "type": "int256"
        }
      ],
      "name": "wrapMixedDivOpposite",
      "outputs": [
        {
          "internalType": "int256",
          "name": "",
          "type": "int256"
        }
      ],
      "stateMutability": "pure",
      "type": "function"
    },
    {
      "inputs": [
        {
          "internalType": "int256",
          "name": "a",
          "type": "int256"
        },
        {
          "internalType": "uint256",
          "name": "b",
          "type": "uint256"
        }
      ],
      "name": "wrapPow",
      "outputs": [
        {
          "internalType": "int256",
          "name": "",
          "type": "int256"
        }
      ],
      "stateMutability": "pure",
      "type": "function"
    }
  ],
  "bytecode": "0x608060405234801561001057600080fd5b5061130a806100206000396000f3fe608060405234801561001057600080fd5b50600436106102065760003560e01c80637f5c23b31161011a578063af36574a116100ad578063c6e248731161007c578063c6e24873146105f9578063d340bfd01461061c578063ddc272a71461063f578063ec5ce9cc1461065c578063fbd666221461067f57610206565b8063af36574a1461056d578063c097e8cc14610590578063c2ceb43a146105b3578063c47435b5146105d657610206565b80638bb43c01116100e95780638bb43c01146104e15780639af0bcfe146105045780639b77a53314610527578063a9db15611461054a57610206565b80637f5c23b31461045557806383af6c391461047857806386ac5d131461049b57806389d78f37146104be57610206565b80632595e1961161019d578063440d18db1161016c578063440d18db146103a657806362e2c0b5146103c9578063639361e5146103ec5780637264e41b1461040f578063765a7da31461043257610206565b80632595e196146103435780632c5c730e1461020b57806336351a2614610360578063434623eb1461038357610206565b8063191285d9116101d9578063191285d9146102b757806319558f7b146102da5780631db889ee146102fd5780631f97f3f11461032057610206565b80630350a4a01461020b57806304026a681461024057806304f8fe77146102775780630c2d8a9c14610294575b600080fd5b61022e6004803603604081101561022157600080fd5b50803590602001356106a2565b60408051918252519081900360200190f35b6102636004803603604081101561025657600080fd5b50803590602001356106c7565b604080519115158252519081900360200190f35b61022e6004803603602081101561028d57600080fd5b50356106e9565b610263600480360360408110156102aa57600080fd5b5080359060200135610709565b610263600480360360408110156102cd57600080fd5b5080359060200135610724565b61022e600480360360408110156102f057600080fd5b5080359060200135610749565b61022e6004803603604081101561031357600080fd5b5080359060200135610764565b6102636004803603604081101561033657600080fd5b5080359060200135610789565b61022e6004803603602081101561035957600080fd5b50356107a4565b61022e6004803603604081101561037657600080fd5b50803590602001356107bd565b6102636004803603604081101561039957600080fd5b50803590602001356107e2565b61022e600480360360408110156103bc57600080fd5b5080359060200135610807565b61022e600480360360408110156103df57600080fd5b508035906020013561082c565b61022e6004803603604081101561040257600080fd5b508035906020013561084f565b6102636004803603604081101561042557600080fd5b5080359060200135610874565b61022e6004803603604081101561044857600080fd5b5080359060200135610897565b6102636004803603604081101561046b57600080fd5b50803590602001356108b2565b6102636004803603604081101561048e57600080fd5b50803590602001356108cd565b61022e600480360360408110156104b157600080fd5b50803590602001356108f2565b61022e600480360360408110156104d457600080fd5b5080359060200135610917565b61022e600480360360408110156104f757600080fd5b508035906020013561093c565b6102636004803603604081101561051a57600080fd5b5080359060200135610961565b6102636004803603604081101561053d57600080fd5b5080359060200135610984565b6102636004803603604081101561056057600080fd5b50803590602001356109a7565b61022e6004803603604081101561058357600080fd5b50803590602001356109ca565b61022e600480360360408110156105a657600080fd5b50803590602001356109e5565b610263600480360360408110156105c957600080fd5b5080359060200135610a00565b61022e600480360360408110156105ec57600080fd5b5080359060200135610a25565b6102636004803603604081101561060f57600080fd5b5080359060200135610a40565b61022e6004803603604081101561063257600080fd5b5080359060200135610a65565b61022e6004803603602081101561065557600080fd5b5035610a88565b61022e6004803603604081101561067257600080fd5b5080359060200135610a93565b6102636004803603604081101561069557600080fd5b5080359060200135610ab8565b60408051602081019091528281526000906106bd9083610ad3565b5190505b92915050565b60408051602081019091528281526000906106e29083610afd565b9392505050565b6000610702604051806020016040528084815250610b15565b5192915050565b60408051602081019091528281526000906106e29083610b81565b604080516020808201835283825282519081019092528382526000916106e291610b98565b60408051602081019091528281526000906106bd9083610b9f565b604080516020808201835283825282519081019092528382526000916106bd91610bb9565b60408051602081019091528281526000906106e29083610c68565b6000610702604051806020016040528084815250610c7f565b604080516020808201835283825282519081019092528382526000916106bd91610cd9565b604080516020808201835283825282519081019092528382526000916106e291610cf7565b604080516020808201835283825282519081019092528382526000916106bd91610cff565b60006106bd60405180602001604052808481525084610d2290919063ffffffff16565b604080516020808201835283825282519081019092528382526000916106bd91610d3c565b60006106e260405180602001604052808481525084610d7f90919063ffffffff16565b60408051602081019091528281526000906106bd9083610d96565b60408051602081019091528281526000906106e29083610db0565b604080516020808201835283825282519081019092528382526000916106e291610dc7565b604080516020808201835283825282519081019092528382526000916106bd91610dcf565b604080516020808201835283825282519081019092528382526000916106bd91610df2565b604080516020808201835283825282519081019092528382526000916106bd91610e09565b60006106e260405180602001604052808481525084610e4690919063ffffffff16565b60006106e260405180602001604052808481525084610e5d90919063ffffffff16565b60006106e260405180602001604052808481525084610e7590919063ffffffff16565b60408051602081019091528281526000906106bd9083610e8d565b60408051602081019091528281526000906106bd9083610ed1565b604080516020808201835283825282519081019092528382526000916106e291610eeb565b60408051602081019091528281526000906106bd9083610ef2565b604080516020808201835283825282519081019092528382526000916106e291610f13565b60006106bd60405180602001604052808481525084610f1a90919063ffffffff16565b600061070282610f34565b604080516020808201835283825282519081019092528382526000916106bd91610f62565b60408051602081019091528281526000906106e29083610f97565b610adb611234565b604080516020810190915283518190610af49085610faf565b90529392505050565b6000610b0882610f34565b5183511315905092915050565b610b1d611234565b815160001315610b6e576040805162461bcd60e51b8152602060048201526017602482015276139959d85d1a5d99481d985b1d59481c1c9bdd9a591959604a1b604482015290519081900360640190fd5b5060408051602081019091529051815290565b6000610b8c82610f34565b51835112905092915050565b5190511290565b610ba7611234565b6106e283610bb484610f34565b610d3c565b610bc1611234565b81518351600091610bd29190610faf565b9050670de0b6b3a764000080820590600090835b0790508015610c4f576000610bfc866000610b81565b1515610c09886000610b81565b1515149050600081610c1d57600019610c20565b60015b90506040518060200160405280610c40838761105890919063ffffffff16565b815250955050505050506106c1565b60405180602001604052808381525093505050506106c1565b6000610c7382610f34565b51835114905092915050565b610c87611234565b81516001600160ff1b031015610b6e576040805162461bcd60e51b8152602060048201526012602482015271556e7369676e656420746f6f206c6172676560701b604482015290519081900360640190fd5b610ce1611234565b8151835112610cf057816106e2565b5090919050565b519051121590565b610d07611234565b6040805160208101909152825184518291610af49190611058565b610d2a611234565b6106e2610d3684610f34565b83610f62565b610d44611234565b8251600090610d5b90670de0b6b3a7640000610faf565b8351909150600090610d6e9083906110bd565b9050600084600001518381610be657fe5b8051600090610d8d84610f34565b51139392505050565b610d9e611234565b6106e283610dab84610f34565b610dcf565b6000610dbb82610f34565b51835113905092915050565b519051131590565b610dd7611234565b6040805160208101909152825184518291610af49190611175565b610dfa611234565b8151835113610cf057816106e2565b610e11611234565b6040805160208101909152825184518291670de0b6b3a764000091610e3591610faf565b81610e3c57fe5b0590529392505050565b8051600090610e5484610f34565b51129392505050565b8051600090610e6b84610f34565b5113159392505050565b8051600090610e8384610f34565b5112159392505050565b610e95611234565b610e9f6001610f34565b905060005b82811015610eca57610eb68285610e09565b9150610ec38160016111da565b9050610ea4565b5092915050565b610ed9611234565b6106e283610ee684610f34565b610cff565b5190511490565b610efa611234565b604080516020810190915283518190610af490856110bd565b5190511390565b610f22611234565b6106e2610f2e84610f34565b83610dcf565b610f3c611234565b604080516020810190915280610f5a84670de0b6b3a7640000610faf565b905292915050565b610f6a611234565b6040805160208101909152825184518291610af491610f9190670de0b6b3a7640000610faf565b906110bd565b6000610fa282610f34565b5183511215905092915050565b600082610fbe575060006106c1565b82600019148015610fd25750600160ff1b82145b1561100e5760405162461bcd60e51b815260040180806020018281038252602781526020018061128a6027913960400191505060405180910390fd5b8282028284828161101b57fe5b05146106e25760405162461bcd60e51b815260040180806020018281038252602781526020018061128a6027913960400191505060405180910390fd5b600082820181831280159061106d5750838112155b80611082575060008312801561108257508381125b6106e25760405162461bcd60e51b81526004018080602001828103825260218152602001806112486021913960400191505060405180910390fd5b600081611111576040805162461bcd60e51b815260206004820181905260248201527f5369676e6564536166654d6174683a206469766973696f6e206279207a65726f604482015290519081900360640190fd5b816000191480156111255750600160ff1b83145b156111615760405162461bcd60e51b81526004018080602001828103825260218152602001806112696021913960400191505060405180910390fd5b600082848161116c57fe5b05949350505050565b600081830381831280159061118a5750838113155b8061119f575060008312801561119f57508381135b6106e25760405162461bcd60e51b81526004018080602001828103825260248152602001806112b16024913960400191505060405180910390fd5b6000828201838110156106e2576040805162461bcd60e51b815260206004820152601b60248201527f536166654d6174683a206164646974696f6e206f766572666c6f770000000000604482015290519081900360640190fd5b604051806020016040528060008152509056fe5369676e6564536166654d6174683a206164646974696f6e206f766572666c6f775369676e6564536166654d6174683a206469766973696f6e206f766572666c6f775369676e6564536166654d6174683a206d756c7469706c69636174696f6e206f766572666c6f775369676e6564536166654d6174683a207375627472616374696f6e206f766572666c6f77a26469706673582212200322563baa88c24529146ef83fb0614a5779b8bac83c27bc5a96d04d54e1019764736f6c634300060c0033",
  "immutableReferences": {},
  "source": "// SPDX-License-Identifier: AGPL-3.0-only\npragma solidity ^0.6.0;\n\nimport \"../implementation/FixedPoint.sol\";\n\n// Wraps the FixedPoint library for testing purposes.\ncontract SignedFixedPointTest {\n    using FixedPoint for FixedPoint.Signed;\n    using FixedPoint for int256;\n    using SafeMath for int256;\n\n    function wrapFromSigned(int256 a) external pure returns (uint256) {\n        return FixedPoint.fromSigned(FixedPoint.Signed(a)).rawValue;\n    }\n\n    function wrapFromUnsigned(uint256 a) external pure returns (int256) {\n        return FixedPoint.fromUnsigned(FixedPoint.Unsigned(a)).rawValue;\n    }\n\n    function wrapFromUnscaledInt(int256 a) external pure returns (int256) {\n        return FixedPoint.fromUnscaledInt(a).rawValue;\n    }\n\n    function wrapIsEqual(int256 a, int256 b) external pure returns (bool) {\n        return FixedPoint.Signed(a).isEqual(FixedPoint.Signed(b));\n    }\n\n    function wrapMixedIsEqual(int256 a, int256 b) external pure returns (bool) {\n        return FixedPoint.Signed(a).isEqual(b);\n    }\n\n    function wrapIsGreaterThan(int256 a, int256 b) external pure returns (bool) {\n        return FixedPoint.Signed(a).isGreaterThan(FixedPoint.Signed(b));\n    }\n\n    function wrapIsGreaterThanOrEqual(int256 a, int256 b) external pure returns (bool) {\n        return FixedPoint.Signed(a).isGreaterThanOrEqual(FixedPoint.Signed(b));\n    }\n\n    function wrapMixedIsGreaterThan(int256 a, int256 b) external pure returns (bool) {\n        return FixedPoint.Signed(a).isGreaterThan(b);\n    }\n\n    function wrapMixedIsGreaterThanOrEqual(int256 a, int256 b) external pure returns (bool) {\n        return FixedPoint.Signed(a).isGreaterThanOrEqual(b);\n    }\n\n    function wrapMixedIsGreaterThanOpposite(int256 a, int256 b) external pure returns (bool) {\n        return a.isGreaterThan(FixedPoint.Signed(b));\n    }\n\n    function wrapMixedIsGreaterThanOrEqualOpposite(int256 a, int256 b) external pure returns (bool) {\n        return a.isGreaterThanOrEqual(FixedPoint.Signed(b));\n    }\n\n    function wrapIsLessThan(int256 a, int256 b) external pure returns (bool) {\n        return FixedPoint.Signed(a).isLessThan(FixedPoint.Signed(b));\n    }\n\n    function wrapIsLessThanOrEqual(int256 a, int256 b) external pure returns (bool) {\n        return FixedPoint.Signed(a).isLessThanOrEqual(FixedPoint.Signed(b));\n    }\n\n    function wrapMixedIsLessThan(int256 a, int256 b) external pure returns (bool) {\n        return FixedPoint.Signed(a).isLessThan(b);\n    }\n\n    function wrapMixedIsLessThanOrEqual(int256 a, int256 b) external pure returns (bool) {\n        return FixedPoint.Signed(a).isLessThanOrEqual(b);\n    }\n\n    function wrapMixedIsLessThanOpposite(int256 a, int256 b) external pure returns (bool) {\n        return a.isLessThan(FixedPoint.Signed(b));\n    }\n\n    function wrapMixedIsLessThanOrEqualOpposite(int256 a, int256 b) external pure returns (bool) {\n        return a.isLessThanOrEqual(FixedPoint.Signed(b));\n    }\n\n    function wrapMin(int256 a, int256 b) external pure returns (int256) {\n        return FixedPoint.Signed(a).min(FixedPoint.Signed(b)).rawValue;\n    }\n\n    function wrapMax(int256 a, int256 b) external pure returns (int256) {\n        return FixedPoint.Signed(a).max(FixedPoint.Signed(b)).rawValue;\n    }\n\n    function wrapAdd(int256 a, int256 b) external pure returns (int256) {\n        return FixedPoint.Signed(a).add(FixedPoint.Signed(b)).rawValue;\n    }\n\n    // The first int256 is interpreted with a scaling factor and is converted to an `Unsigned` directly.\n    function wrapMixedAdd(int256 a, int256 b) external pure returns (int256) {\n        return FixedPoint.Signed(a).add(b).rawValue;\n    }\n\n    function wrapSub(int256 a, int256 b) external pure returns (int256) {\n        return FixedPoint.Signed(a).sub(FixedPoint.Signed(b)).rawValue;\n    }\n\n    // The first int256 is interpreted with a scaling factor and is converted to an `Unsigned` directly.\n    function wrapMixedSub(int256 a, int256 b) external pure returns (int256) {\n        return FixedPoint.Signed(a).sub(b).rawValue;\n    }\n\n    // The second int256 is interpreted with a scaling factor and is converted to an `Unsigned` directly.\n    function wrapMixedSubOpposite(int256 a, int256 b) external pure returns (int256) {\n        return a.sub(FixedPoint.Signed(b)).rawValue;\n    }\n\n    function wrapMul(int256 a, int256 b) external pure returns (int256) {\n        return FixedPoint.Signed(a).mul(FixedPoint.Signed(b)).rawValue;\n    }\n\n    function wrapMulAwayFromZero(int256 a, int256 b) external pure returns (int256) {\n        return FixedPoint.Signed(a).mulAwayFromZero(FixedPoint.Signed(b)).rawValue;\n    }\n\n    // The first int256 is interpreted with a scaling factor and is converted to an `Unsigned` directly.\n    function wrapMixedMul(int256 a, int256 b) external pure returns (int256) {\n        return FixedPoint.Signed(a).mul(b).rawValue;\n    }\n\n    function wrapMixedMulAwayFromZero(int256 a, int256 b) external pure returns (int256) {\n        return FixedPoint.Signed(a).mulAwayFromZero(b).rawValue;\n    }\n\n    function wrapDiv(int256 a, int256 b) external pure returns (int256) {\n        return FixedPoint.Signed(a).div(FixedPoint.Signed(b)).rawValue;\n    }\n\n    function wrapDivAwayFromZero(int256 a, int256 b) external pure returns (int256) {\n        return FixedPoint.Signed(a).divAwayFromZero(FixedPoint.Signed(b)).rawValue;\n    }\n\n    // The first int256 is interpreted with a scaling factor and is converted to an `Unsigned` directly.\n    function wrapMixedDiv(int256 a, int256 b) external pure returns (int256) {\n        return FixedPoint.Signed(a).div(b).rawValue;\n    }\n\n    function wrapMixedDivAwayFromZero(int256 a, int256 b) external pure returns (int256) {\n        return FixedPoint.Signed(a).divAwayFromZero(b).rawValue;\n    }\n\n    // The second int256 is interpreted with a scaling factor and is converted to an `Unsigned` directly.\n    function wrapMixedDivOpposite(int256 a, int256 b) external pure returns (int256) {\n        return a.div(FixedPoint.Signed(b)).rawValue;\n    }\n\n    // The first int256 is interpreted with a scaling factor and is converted to an `Unsigned` directly.\n    function wrapPow(int256 a, uint256 b) external pure returns (int256) {\n        return FixedPoint.Signed(a).pow(b).rawValue;\n    }\n}\n",
  "sourcePath": "/home/circleci/protocol/packages/core/contracts/common/test/SignedFixedPointTest.sol",
  "compiler": {
    "name": "solc",
    "version": "0.6.12+commit.27d51765.Emscripten.clang"
  },
  "schemaVersion": "3.2.3",
  "updatedAt": "2020-11-23T23:49:10.019Z",
  "devdoc": {
    "kind": "dev",
    "methods": {},
    "version": 1
  },
  "userdoc": {
    "kind": "user",
    "methods": {},
    "version": 1
  }
}