{
  "contractName": "StructuredNoteFinancialProductLibrary",
  "abi": [
    {
      "inputs": [],
      "stateMutability": "nonpayable",
      "type": "constructor"
    },
    {
      "anonymous": false,
      "inputs": [
        {
          "indexed": true,
          "internalType": "address",
          "name": "previousOwner",
          "type": "address"
        },
        {
          "indexed": true,
          "internalType": "address",
          "name": "newOwner",
          "type": "address"
        }
      ],
      "name": "OwnershipTransferred",
      "type": "event"
    },
    {
      "inputs": [],
      "name": "owner",
      "outputs": [
        {
          "internalType": "address",
          "name": "",
          "type": "address"
        }
      ],
      "stateMutability": "view",
      "type": "function"
    },
    {
      "inputs": [],
      "name": "renounceOwnership",
      "outputs": [],
      "stateMutability": "nonpayable",
      "type": "function"
    },
    {
      "inputs": [
        {
          "internalType": "address",
          "name": "newOwner",
          "type": "address"
        }
      ],
      "name": "transferOwnership",
      "outputs": [],
      "stateMutability": "nonpayable",
      "type": "function"
    },
    {
      "inputs": [
        {
          "components": [
            {
              "internalType": "uint256",
              "name": "rawValue",
              "type": "uint256"
            }
          ],
          "internalType": "struct FixedPoint.Unsigned",
          "name": "collateralRequirement",
          "type": "tuple"
        }
      ],
      "name": "transformCollateralRequirement",
      "outputs": [
        {
          "components": [
            {
              "internalType": "uint256",
              "name": "rawValue",
              "type": "uint256"
            }
          ],
          "internalType": "struct FixedPoint.Unsigned",
          "name": "",
          "type": "tuple"
        }
      ],
      "stateMutability": "view",
      "type": "function"
    },
    {
      "inputs": [
        {
          "internalType": "address",
          "name": "financialProduct",
          "type": "address"
        },
        {
          "components": [
            {
              "internalType": "uint256",
              "name": "rawValue",
              "type": "uint256"
            }
          ],
          "internalType": "struct FixedPoint.Unsigned",
          "name": "strikePrice",
          "type": "tuple"
        }
      ],
      "name": "setFinancialProductStrike",
      "outputs": [],
      "stateMutability": "nonpayable",
      "type": "function"
    },
    {
      "inputs": [
        {
          "internalType": "address",
          "name": "financialProduct",
          "type": "address"
        }
      ],
      "name": "getStrikeForFinancialProduct",
      "outputs": [
        {
          "components": [
            {
              "internalType": "uint256",
              "name": "rawValue",
              "type": "uint256"
            }
          ],
          "internalType": "struct FixedPoint.Unsigned",
          "name": "",
          "type": "tuple"
        }
      ],
      "stateMutability": "view",
      "type": "function"
    },
    {
      "inputs": [
        {
          "components": [
            {
              "internalType": "uint256",
              "name": "rawValue",
              "type": "uint256"
            }
          ],
          "internalType": "struct FixedPoint.Unsigned",
          "name": "oraclePrice",
          "type": "tuple"
        },
        {
          "internalType": "uint256",
          "name": "requestTime",
          "type": "uint256"
        }
      ],
      "name": "transformPrice",
      "outputs": [
        {
          "components": [
            {
              "internalType": "uint256",
              "name": "rawValue",
              "type": "uint256"
            }
          ],
          "internalType": "struct FixedPoint.Unsigned",
          "name": "",
          "type": "tuple"
        }
      ],
      "stateMutability": "view",
      "type": "function"
    }
  ],
  "bytecode": "0x608060405234801561001057600080fd5b50600061001b61006a565b600080546001600160a01b0319166001600160a01b0383169081178255604051929350917f8be0079c531659141344cd1fd0a4f28419497f9722a3daafe3b4186f6b6457e0908290a35061006e565b3390565b6109828061007d6000396000f3fe608060405234801561001057600080fd5b506004361061007d5760003560e01c8063715018a61161005b578063715018a6146100d15780638da5cb5b146100db578063a94ec3b0146100f0578063f2fde38b146101035761007d565b80630ff49b9014610082578063197f7848146100ab5780633a0acab5146100be575b600080fd5b61009561009036600461072a565b610116565b6040516100a29190610942565b60405180910390f35b6100956100b936600461070f565b610228565b6100956100cc3660046106a8565b610234565b6100d9610267565b005b6100e36102e6565b6040516100a2919061076c565b6100d96100fe3660046106cf565b6102f5565b6100d96101113660046106a8565b610448565b61011e610658565b610126610658565b503360009081526001602090815260408083208151928301909152548152906101509082906104fe565b6101755760405162461bcd60e51b815260040161016c90610847565b60405180910390fd5b336001600160a01b0316639f43ddd26040518163ffffffff1660e01b815260040160206040518083038186803b1580156101ae57600080fd5b505afa1580156101c2573d6000803e3d6000fd5b505050506040513d601f19601f820116820180604052508101906101e69190610754565b8310156101ff576101f76001610515565b915050610222565b6102098482610543565b15610218576101f76001610515565b6101f7818561054a565b92915050565b610230610658565b5090565b61023c610658565b506001600160a01b031660009081526001602090815260409182902082519182019092529054815290565b61026f610588565b6000546001600160a01b0390811691161461029c5760405162461bcd60e51b815260040161016c906108e2565b600080546040516001600160a01b03909116907f8be0079c531659141344cd1fd0a4f28419497f9722a3daafe3b4186f6b6457e0908390a3600080546001600160a01b0319169055565b6000546001600160a01b031690565b6102fd610588565b6000546001600160a01b0390811691161461032a5760405162461bcd60e51b815260040161016c906108e2565b6103358160006104fe565b6103515760405162461bcd60e51b815260040161016c90610917565b6001600160a01b038216600090815260016020908152604080832081519283019091525481526103809161058c565b61039c5760405162461bcd60e51b815260040161016c90610875565b816001600160a01b0316639f43ddd26040518163ffffffff1660e01b815260040160206040518083038186803b1580156103d557600080fd5b505afa1580156103e9573d6000803e3d6000fd5b505050506040513d601f19601f8201168201806040525081019061040d9190610754565b6104295760405162461bcd60e51b815260040161016c90610819565b6001600160a01b03909116600090815260016020526040902090519055565b610450610588565b6000546001600160a01b0390811691161461047d5760405162461bcd60e51b815260040161016c906108e2565b6001600160a01b0381166104a35760405162461bcd60e51b815260040161016c906107d3565b600080546040516001600160a01b03808516939216917f8be0079c531659141344cd1fd0a4f28419497f9722a3daafe3b4186f6b6457e091a3600080546001600160a01b0319166001600160a01b0392909216919091179055565b600061050982610515565b51835111905092915050565b61051d610658565b60408051602081019091528061053b84670de0b6b3a76400006105a3565b905292915050565b5190511090565b610552610658565b604080516020810190915282518451829161057f9161057990670de0b6b3a76400006105a3565b906105e4565b90529392505050565b3390565b600061059782610515565b51835114905092915050565b6000826105b257506000610222565b828202828482816105bf57fe5b04146105dd5760405162461bcd60e51b815260040161016c906108a1565b9392505050565b60006105dd83836040518060400160405280601a81526020017f536166654d6174683a206469766973696f6e206279207a65726f000000000000815250600081836106425760405162461bcd60e51b815260040161016c9190610780565b50600083858161064e57fe5b0495945050505050565b6040518060200160405280600081525090565b60006020828403121561067c578081fd5b6040516020810181811067ffffffffffffffff8211171561069b578283fd5b6040529135825250919050565b6000602082840312156106b9578081fd5b81356001600160a01b03811681146105dd578182fd5b600080604083850312156106e1578081fd5b82356001600160a01b03811681146106f7578182fd5b9150610706846020850161066b565b90509250929050565b600060208284031215610720578081fd5b6105dd838361066b565b6000806040838503121561073c578182fd5b610746848461066b565b946020939093013593505050565b600060208284031215610765578081fd5b5051919050565b6001600160a01b0391909116815260200190565b6000602080835283518082850152825b818110156107ac57858101830151858201604001528201610790565b818111156107bd5783604083870101525b50601f01601f1916929092016040019392505050565b60208082526026908201527f4f776e61626c653a206e6577206f776e657220697320746865207a65726f206160408201526564647265737360d01b606082015260800190565b602080825260149082015273125b9d985b1a59081153540818dbdb9d1c9858dd60621b604082015260600190565b60208082526014908201527343616c6c657220686173206e6f20737472696b6560601b604082015260600190565b60208082526012908201527114dd1c9a5ad948185b1c9958591e481cd95d60721b604082015260600190565b60208082526021908201527f536166654d6174683a206d756c7469706c69636174696f6e206f766572666c6f6040820152607760f81b606082015260800190565b6020808252818101527f4f776e61626c653a2063616c6c6572206973206e6f7420746865206f776e6572604082015260600190565b60208082526011908201527043616e7420736574203020737472696b6560781b604082015260600190565b905181526020019056fea26469706673582212205a19a514f5ad29890f9be89970cd40ff82b19f6f50dc4c6742b43248066c1f1664736f6c634300060c0033",
  "immutableReferences": {},
  "source": "pragma solidity ^0.6.0;\npragma experimental ABIEncoderV2;\nimport \"./FinancialProductLibrary.sol\";\nimport \"@openzeppelin/contracts/access/Ownable.sol\";\n\ninterface ExpiringContractInterface {\n    function expirationTimestamp() external view returns (uint256);\n}\n\n/**\n * @title Structured Note Financial Product Library\n * @notice Adds custom price transformation logic to modify the behavour of the expiring multi party contract.  The\n * contract holds say 1 WETH in collateral and pays out that 1 WETH if, at expiry, ETHUSD is below a set strike. If\n * ETHUSD is above that strike, the contract pays out a given dollar amount of ETH.\n * Example: expiry is DEC 31. Strike is $400. Each token is backed by 1 WETH\n * If ETHUSD < $400 at expiry, token is redeemed for 1 ETH.\n * If ETHUSD >= $400 at expiry, token is redeemed for $400 worth of ETH, as determine by the DVM.\n */\ncontract StructuredNoteFinancialProductLibrary is FinancialProductLibrary, Ownable {\n    mapping(address => FixedPoint.Unsigned) financialProductStrikes;\n\n    constructor() public {}\n\n    /**\n     * @notice Enables the deployer of the library to set the strike price for an associated financial product.\n     * @param financialProduct address of the financial product.\n     * @param strikePrice the strike price for the structured note to be applied to the financial product.\n     * @dev Note: a) Only the owner (deployer) of this library can set new strike prices b) A strike price can not be 0.\n     * b) A strike price can only be set once to prevent the deployer from changing the strike after the fact.\n     * c)  financialProduct must exposes an expirationTimestamp method.\n     */\n    function setFinancialProductStrike(address financialProduct, FixedPoint.Unsigned memory strikePrice)\n        public\n        onlyOwner\n    {\n        require(strikePrice.isGreaterThan(0), \"Cant set 0 strike\");\n        require(financialProductStrikes[financialProduct].isEqual(0), \"Strike already set\");\n        require(ExpiringContractInterface(financialProduct).expirationTimestamp() != 0, \"Invalid EMP contract\");\n        financialProductStrikes[financialProduct] = strikePrice;\n    }\n\n    /**\n     * @notice Returns the strike price associated with a given financial product address.\n     * @param financialProduct address of the financial product.\n     * @return strikePrice for the associated financial product.\n     */\n    function getStrikeForFinancialProduct(address financialProduct) public view returns (FixedPoint.Unsigned memory) {\n        return financialProductStrikes[financialProduct];\n    }\n\n    /**\n     * @notice Returns a transformed price by applying the structured note payout structure.\n     * @param oraclePrice price from the oracle to be transformed.\n     * @param requestTime timestamp the oraclePrice was requested at.\n     * @return transformedPrice the input oracle price with the price transformation logic applied to it.\n     */\n    function transformPrice(FixedPoint.Unsigned memory oraclePrice, uint256 requestTime)\n        public\n        view\n        override\n        returns (FixedPoint.Unsigned memory)\n    {\n        FixedPoint.Unsigned memory strike = financialProductStrikes[msg.sender];\n        require(strike.isGreaterThan(0), \"Caller has no strike\");\n        // If price request is made before expiry, return 1. Thus we can keep the contract 100% collateralized with\n        // each token backed 1:1 by collateral currency.\n        if (requestTime < ExpiringContractInterface(msg.sender).expirationTimestamp()) {\n            return FixedPoint.fromUnscaledUint(1);\n        }\n        if (oraclePrice.isLessThan(strike)) {\n            return FixedPoint.fromUnscaledUint(1);\n        } else {\n            // Token expires to be worth strike $ worth of collateral.\n            // eg if ETHUSD is $500 and strike is $400, token is redeemable for 400/500 = 0.8 WETH.\n            return strike.div(oraclePrice);\n        }\n    }\n}\n",
  "sourcePath": "/home/circleci/protocol/packages/core/contracts/financial-templates/common/financial-product-libraries/StructureNoteFinancialProductLibrary.sol",
  "compiler": {
    "name": "solc",
    "version": "0.6.12+commit.27d51765.Emscripten.clang"
  },
  "schemaVersion": "3.2.3",
  "updatedAt": "2020-11-23T23:49:10.052Z",
  "devdoc": {
    "kind": "dev",
    "methods": {
      "getStrikeForFinancialProduct(address)": {
        "params": {
          "financialProduct": "address of the financial product."
        },
        "returns": {
          "_0": "strikePrice for the associated financial product."
        }
      },
      "owner()": {
        "details": "Returns the address of the current owner."
      },
      "renounceOwnership()": {
        "details": "Leaves the contract without owner. It will not be possible to call `onlyOwner` functions anymore. Can only be called by the current owner. NOTE: Renouncing ownership will leave the contract without an owner, thereby removing any functionality that is only available to the owner."
      },
      "setFinancialProductStrike(address,(uint256))": {
        "details": "Note: a) Only the owner (deployer) of this library can set new strike prices b) A strike price can not be 0. b) A strike price can only be set once to prevent the deployer from changing the strike after the fact. c)  financialProduct must exposes an expirationTimestamp method.",
        "params": {
          "financialProduct": "address of the financial product.",
          "strikePrice": "the strike price for the structured note to be applied to the financial product."
        }
      },
      "transferOwnership(address)": {
        "details": "Transfers ownership of the contract to a new account (`newOwner`). Can only be called by the current owner."
      },
      "transformCollateralRequirement((uint256))": {
        "params": {
          "collateralRequirement": "input collateral requirement to be transformed."
        },
        "returns": {
          "_0": "transformedCollateralRequirement input collateral requirement with the transformation function applied."
        }
      },
      "transformPrice((uint256),uint256)": {
        "params": {
          "oraclePrice": "price from the oracle to be transformed.",
          "requestTime": "timestamp the oraclePrice was requested at."
        },
        "returns": {
          "_0": "transformedPrice the input oracle price with the price transformation logic applied to it."
        }
      }
    },
    "title": "Structured Note Financial Product Library",
    "version": 1
  },
  "userdoc": {
    "kind": "user",
    "methods": {
      "getStrikeForFinancialProduct(address)": {
        "notice": "Returns the strike price associated with a given financial product address."
      },
      "setFinancialProductStrike(address,(uint256))": {
        "notice": "Enables the deployer of the library to set the strike price for an associated financial product."
      },
      "transformCollateralRequirement((uint256))": {
        "notice": "Transforms a given collateral requirement using the financial product libraries transformation logic."
      },
      "transformPrice((uint256),uint256)": {
        "notice": "Returns a transformed price by applying the structured note payout structure."
      }
    },
    "notice": "Adds custom price transformation logic to modify the behavour of the expiring multi party contract.  The contract holds say 1 WETH in collateral and pays out that 1 WETH if, at expiry, ETHUSD is below a set strike. If ETHUSD is above that strike, the contract pays out a given dollar amount of ETH. Example: expiry is DEC 31. Strike is $400. Each token is backed by 1 WETH If ETHUSD < $400 at expiry, token is redeemed for 1 ETH. If ETHUSD >= $400 at expiry, token is redeemed for $400 worth of ETH, as determine by the DVM.",
    "version": 1
  }
}