{
  "contractName": "CoveredCallLongShortPairFinancialProductLibrary",
  "abi": [
    {
      "inputs": [
        {
          "internalType": "address",
          "name": "",
          "type": "address"
        }
      ],
      "name": "longShortPairStrikePrices",
      "outputs": [
        {
          "internalType": "uint256",
          "name": "",
          "type": "uint256"
        }
      ],
      "stateMutability": "view",
      "type": "function"
    },
    {
      "inputs": [
        {
          "internalType": "address",
          "name": "longShortPair",
          "type": "address"
        },
        {
          "internalType": "uint256",
          "name": "strikePrice",
          "type": "uint256"
        }
      ],
      "name": "setLongShortPairParameters",
      "outputs": [],
      "stateMutability": "nonpayable",
      "type": "function"
    },
    {
      "inputs": [
        {
          "internalType": "int256",
          "name": "expiryPrice",
          "type": "int256"
        }
      ],
      "name": "percentageLongCollateralAtExpiry",
      "outputs": [
        {
          "internalType": "uint256",
          "name": "",
          "type": "uint256"
        }
      ],
      "stateMutability": "view",
      "type": "function"
    }
  ],
  "bytecode": "0x608060405234801561001057600080fd5b506000805460ff1916600117905561051d8061002d6000396000f3fe608060405234801561001057600080fd5b50600436106100415760003560e01c80632da52361146100465780636cf3f7691461006b57806371b0b3601461008b575b600080fd5b61005961005436600461044b565b6100a0565b60405190815260200160405180910390f35b610059610079366004610408565b60016020526000908152604090205481565b61009e610099366004610422565b610174565b005b60006100aa6102ce565b336000908152600160205260409020548061010c5760405162461bcd60e51b815260206004820152601e60248201527f506172616d73206e6f742073657420666f722063616c6c696e67204c5350000060448201526064015b60405180910390fd5b600083128061011a57508083105b15610133576101296000610322565b51915061016f9050565b604080516020808201835285825282518082018452848152835191820190935285815261016a926101649190610357565b9061038a565b519150505b919050565b61017c6102ce565b61018b6000805460ff19169055565b816001600160a01b0316639f43ddd26040518163ffffffff1660e01b815260040160206040518083038186803b1580156101c457600080fd5b505afa1580156101d8573d6000803e3d6000fd5b505050506040513d601f19601f820116820180604052508101906101fc9190610463565b61023e5760405162461bcd60e51b8152602060048201526013602482015272496e76616c6964204c5350206164647265737360681b6044820152606401610103565b6001600160a01b0382166000908152600160205260409020541561029d5760405162461bcd60e51b815260206004820152601660248201527514185c985b595d195c9cc8185b1c9958591e481cd95d60521b6044820152606401610103565b6001600160a01b03821660009081526001602052604090208190556102ca6000805460ff19166001179055565b5050565b60005460ff166103205760405162461bcd60e51b815260206004820152601f60248201527f5265656e7472616e637947756172643a207265656e7472616e742063616c6c006044820152606401610103565b565b60408051602081019091526000815260408051602081019091528061034f84670de0b6b3a76400006103c6565b905292915050565b604080516020810190915260008152604080516020810190915282518451829161038191906103d9565b90529392505050565b6040805160208101909152600081526040805160208101909152825184518291610381916103c090670de0b6b3a76400006103c6565b906103e5565b60006103d2828461049b565b9392505050565b60006103d282846104ba565b60006103d2828461047b565b80356001600160a01b038116811461016f57600080fd5b600060208284031215610419578081fd5b6103d2826103f1565b60008060408385031215610434578081fd5b61043d836103f1565b946020939093013593505050565b60006020828403121561045c578081fd5b5035919050565b600060208284031215610474578081fd5b5051919050565b60008261049657634e487b7160e01b81526012600452602481fd5b500490565b60008160001904831182151516156104b5576104b56104d1565b500290565b6000828210156104cc576104cc6104d1565b500390565b634e487b7160e01b600052601160045260246000fdfea264697066735822122058dad24ab7095a77892e02f71871a49dd44c7928eecfc89a0466a7343e9da95764736f6c63430008040033",
  "immutableReferences": {},
  "source": "// SPDX-License-Identifier: AGPL-3.0-only\npragma solidity ^0.8.0;\n\nimport \"@openzeppelin/contracts/utils/math/SafeMath.sol\";\n\nimport \"./LongShortPairFinancialProductLibrary.sol\";\nimport \"../../../../common/implementation/Lockable.sol\";\n\n/**\n * @title Covered call Long Short Pair Financial Product Library.\n * @notice Adds settlement logic to create covered call LSPs. The contract will payout a scaled amount of collateral\n * depending on where the settlement price lands relative to the call's strike price. If the settlement is below the\n * strike price then longs expire worthless. If the settlement is above the strike then the payout is the fraction above\n * the strike defined by (expiryPrice - strikePrice) / expiryPrice. For example, consider a covered call option\n * collateralized in ETH, with a strike a price of 3000.\n * - If the price is less than 3000 then the each long is worth 0 and each short is worth collateralPerPair.\n * - If the price is more than 3000 then each long is worth the fraction of collateralPerPair that was in the money and\n * each short is worth the remaining collateralPerPair.\n * - Say settlement price is 3500.  Then expiryPercentLong = (3500 - 3000) / 3500 = 0.143. The value of this 0.143 ETH\n * is worth 0.143*3500=500 which is the percentage of the collateralPerPair that was above the strike price.\n */\ncontract CoveredCallLongShortPairFinancialProductLibrary is LongShortPairFinancialProductLibrary, Lockable {\n    using FixedPoint for FixedPoint.Unsigned;\n    using SafeMath for uint256;\n\n    mapping(address => uint256) public longShortPairStrikePrices;\n\n    /**\n     * @notice Enables any address to set the strike price for an associated LSP.\n     * @param longShortPair address of the LSP.\n     * @param strikePrice the strike price for the covered call for the associated LSP.\n     * @dev Note: a) Any address can set the initial strike price b) A strike price cannot be 0.\n     * c) A strike price can only be set once to prevent the deployer from changing the strike after the fact.\n     * d) For safety, a strike price should be set before depositing any synthetic tokens in a liquidity pool.\n     * e) longShortPair must expose an expirationTimestamp method to validate it is correctly deployed.\n     */\n    function setLongShortPairParameters(address longShortPair, uint256 strikePrice) public nonReentrant() {\n        require(ExpiringContractInterface(longShortPair).expirationTimestamp() != 0, \"Invalid LSP address\");\n        require(longShortPairStrikePrices[longShortPair] == 0, \"Parameters already set\");\n\n        longShortPairStrikePrices[longShortPair] = strikePrice;\n    }\n\n    /**\n     * @notice Returns a number between 0 and 1e18 to indicate how much collateral each long and short token are entitled\n     * to per collateralPerPair.\n     * @param expiryPrice price from the optimistic oracle for the LSP price identifier.\n     * @return expiryPercentLong to indicate how much collateral should be sent between long and short tokens.\n     */\n    function percentageLongCollateralAtExpiry(int256 expiryPrice)\n        public\n        view\n        override\n        nonReentrantView()\n        returns (uint256)\n    {\n        uint256 contractStrikePrice = longShortPairStrikePrices[msg.sender];\n        require(contractStrikePrice != 0, \"Params not set for calling LSP\");\n\n        // If the expiry price is less than the strike price then the long options expire worthless (out of the money).\n        // Note we do not consider negative expiry prices in this call option implementation.\n        if (expiryPrice < 0 || uint256(expiryPrice) < contractStrikePrice)\n            return FixedPoint.fromUnscaledUint(0).rawValue;\n\n        // Else, token expires to be worth the fraction of a collateral token that's in the money. eg if ETH is $3500\n        // and strike is $3000, long token is redeemable for (3500-3000)/3500 = 0.143 WETH which is worth $500 and the\n        // short token is worth the remaining 0.8. This is strictly < 1, tending to 1 as the expiry tends to infinity.\n        return\n            (FixedPoint.Unsigned(uint256(expiryPrice)).sub(FixedPoint.Unsigned(contractStrikePrice)))\n                .div(FixedPoint.Unsigned(uint256(expiryPrice)))\n                .rawValue;\n    }\n}\n",
  "sourcePath": "/home/circleci/protocol/packages/core/contracts/financial-templates/common/financial-product-libraries/long-short-pair-libraries/CoveredCallLongShortPairFinancialProductLibrary.sol",
  "compiler": {
    "name": "solc",
    "version": "0.8.4+commit.c7e474f2.Emscripten.clang"
  },
  "schemaVersion": "3.3.4",
  "updatedAt": "2021-07-16T20:27:09.754Z",
  "devdoc": {
    "kind": "dev",
    "methods": {
      "percentageLongCollateralAtExpiry(int256)": {
        "params": {
          "expiryPrice": "price from the optimistic oracle for the LSP price identifier."
        },
        "returns": {
          "_0": "expiryPercentLong to indicate how much collateral should be sent between long and short tokens."
        }
      },
      "setLongShortPairParameters(address,uint256)": {
        "details": "Note: a) Any address can set the initial strike price b) A strike price cannot be 0. c) A strike price can only be set once to prevent the deployer from changing the strike after the fact. d) For safety, a strike price should be set before depositing any synthetic tokens in a liquidity pool. e) longShortPair must expose an expirationTimestamp method to validate it is correctly deployed.",
        "params": {
          "longShortPair": "address of the LSP.",
          "strikePrice": "the strike price for the covered call for the associated LSP."
        }
      }
    },
    "title": "Covered call Long Short Pair Financial Product Library.",
    "version": 1
  },
  "userdoc": {
    "kind": "user",
    "methods": {
      "percentageLongCollateralAtExpiry(int256)": {
        "notice": "Returns a number between 0 and 1e18 to indicate how much collateral each long and short token are entitled to per collateralPerPair."
      },
      "setLongShortPairParameters(address,uint256)": {
        "notice": "Enables any address to set the strike price for an associated LSP."
      }
    },
    "notice": "Adds settlement logic to create covered call LSPs. The contract will payout a scaled amount of collateral depending on where the settlement price lands relative to the call's strike price. If the settlement is below the strike price then longs expire worthless. If the settlement is above the strike then the payout is the fraction above the strike defined by (expiryPrice - strikePrice) / expiryPrice. For example, consider a covered call option collateralized in ETH, with a strike a price of 3000. - If the price is less than 3000 then the each long is worth 0 and each short is worth collateralPerPair. - If the price is more than 3000 then each long is worth the fraction of collateralPerPair that was in the money and each short is worth the remaining collateralPerPair. - Say settlement price is 3500.  Then expiryPercentLong = (3500 - 3000) / 3500 = 0.143. The value of this 0.143 ETH is worth 0.143*3500=500 which is the percentage of the collateralPerPair that was above the strike price.",
    "version": 1
  }
}