{
  "contractName": "KpiOptionsFinancialProductLibrary",
  "abi": [
    {
      "inputs": [
        {
          "internalType": "bytes32",
          "name": "priceIdentifier",
          "type": "bytes32"
        },
        {
          "internalType": "uint256",
          "name": "requestTime",
          "type": "uint256"
        }
      ],
      "name": "transformPriceIdentifier",
      "outputs": [
        {
          "internalType": "bytes32",
          "name": "",
          "type": "bytes32"
        }
      ],
      "stateMutability": "view",
      "type": "function"
    },
    {
      "inputs": [
        {
          "components": [
            {
              "internalType": "uint256",
              "name": "rawValue",
              "type": "uint256"
            }
          ],
          "internalType": "struct FixedPoint.Unsigned",
          "name": "oraclePrice",
          "type": "tuple"
        },
        {
          "internalType": "uint256",
          "name": "requestTime",
          "type": "uint256"
        }
      ],
      "name": "transformPrice",
      "outputs": [
        {
          "components": [
            {
              "internalType": "uint256",
              "name": "rawValue",
              "type": "uint256"
            }
          ],
          "internalType": "struct FixedPoint.Unsigned",
          "name": "",
          "type": "tuple"
        }
      ],
      "stateMutability": "view",
      "type": "function"
    },
    {
      "inputs": [
        {
          "components": [
            {
              "internalType": "uint256",
              "name": "rawValue",
              "type": "uint256"
            }
          ],
          "internalType": "struct FixedPoint.Unsigned",
          "name": "oraclePrice",
          "type": "tuple"
        },
        {
          "components": [
            {
              "internalType": "uint256",
              "name": "rawValue",
              "type": "uint256"
            }
          ],
          "internalType": "struct FixedPoint.Unsigned",
          "name": "collateralRequirement",
          "type": "tuple"
        }
      ],
      "name": "transformCollateralRequirement",
      "outputs": [
        {
          "components": [
            {
              "internalType": "uint256",
              "name": "rawValue",
              "type": "uint256"
            }
          ],
          "internalType": "struct FixedPoint.Unsigned",
          "name": "",
          "type": "tuple"
        }
      ],
      "stateMutability": "view",
      "type": "function"
    }
  ],
  "bytecode": "0x608060405234801561001057600080fd5b506000805460ff1916600117905561034f8061002d6000396000f3fe608060405234801561001057600080fd5b50600436106100415760003560e01c80630ff49b90146100465780632a3126371461006d578063f19371b714610080575b600080fd5b6100596100543660046102ac565b6100a0565b604051905181526020015b60405180910390f35b61005961007b366004610278565b610149565b61009261008e366004610257565b5090565b604051908152602001610064565b6040805160208101909152600081526100b7610171565b336001600160a01b0316639f43ddd26040518163ffffffff1660e01b815260040160206040518083038186803b1580156100f057600080fd5b505afa158015610104573d6000803e3d6000fd5b505050506040513d601f19601f8201168201806040525081019061012891906102d6565b8210156101405761013960026101c9565b9050610143565b50815b92915050565b604080516020810190915260008152610160610171565b61016a60016101c9565b9392505050565b60005460ff166101c75760405162461bcd60e51b815260206004820152601f60248201527f5265656e7472616e637947756172643a207265656e7472616e742063616c6c00604482015260640160405180910390fd5b565b6040805160208101909152600081526040805160208101909152806101f684670de0b6b3a76400006101fe565b905292915050565b600061016a82846102ee565b60006020828403121561021b578081fd5b6040516020810181811067ffffffffffffffff8211171561024a57634e487b7160e01b83526041600452602483fd5b6040529135825250919050565b60008060408385031215610269578182fd5b50508035926020909101359150565b6000806040838503121561028a578182fd5b610294848461020a565b91506102a3846020850161020a565b90509250929050565b600080604083850312156102be578182fd5b6102c8848461020a565b946020939093013593505050565b6000602082840312156102e7578081fd5b5051919050565b600081600019048311821515161561031457634e487b7160e01b81526011600452602481fd5b50029056fea2646970667358221220b6ae29a8b9e3348d77f139e1bd635556148dc2659e82bd09ec4ffa966107e60764736f6c63430008040033",
  "immutableReferences": {},
  "source": "// SPDX-License-Identifier: AGPL-3.0-only\npragma solidity ^0.8.0;\nimport \"./FinancialProductLibrary.sol\";\nimport \"../../../../common/implementation/Lockable.sol\";\n\n/**\n * @title KPI Options Financial Product Library\n * @notice Adds custom tranformation logic to modify the price and collateral requirement behavior of the expiring multi party contract.\n * If a price request is made pre-expiry, the price should always be set to 2 and the collateral requirement should be set to 1.\n * Post-expiry, the collateral requirement is left as 1 and the price is left unchanged.\n */\ncontract KpiOptionsFinancialProductLibrary is FinancialProductLibrary, Lockable {\n    /**\n     * @notice Returns a transformed price for pre-expiry price requests.\n     * @param oraclePrice price from the oracle to be transformed.\n     * @param requestTime timestamp the oraclePrice was requested at.\n     * @return transformedPrice the input oracle price with the price transformation logic applied to it.\n     */\n    function transformPrice(FixedPoint.Unsigned memory oraclePrice, uint256 requestTime)\n        public\n        view\n        override\n        nonReentrantView()\n        returns (FixedPoint.Unsigned memory)\n    {\n        // If price request is made before expiry, return 2. Thus we can keep the contract 100% collateralized with\n        // each token backed 1:2 by collateral currency. Post-expiry, leave unchanged.\n        if (requestTime < ExpiringContractInterface(msg.sender).expirationTimestamp()) {\n            return FixedPoint.fromUnscaledUint(2);\n        } else {\n            return oraclePrice;\n        }\n    }\n\n    /**\n     * @notice Returns a transformed collateral requirement that is set to be equivalent to 2 tokens pre-expiry.\n     * @param oraclePrice price from the oracle to transform the collateral requirement.\n     * @param collateralRequirement financial products collateral requirement to be scaled to a flat rate.\n     * @return transformedCollateralRequirement the input collateral requirement with the transformation logic applied to it.\n     */\n    function transformCollateralRequirement(\n        FixedPoint.Unsigned memory oraclePrice,\n        FixedPoint.Unsigned memory collateralRequirement\n    ) public view override nonReentrantView() returns (FixedPoint.Unsigned memory) {\n        // Always return 1.\n        return FixedPoint.fromUnscaledUint(1);\n    }\n}\n",
  "sourcePath": "/home/circleci/protocol/packages/core/contracts/financial-templates/common/financial-product-libraries/expiring-multiparty-libraries/KpiOptionsFinancialProductLibrary.sol",
  "compiler": {
    "name": "solc",
    "version": "0.8.4+commit.c7e474f2.Emscripten.clang"
  },
  "schemaVersion": "3.3.4",
  "updatedAt": "2021-07-16T20:27:09.743Z",
  "devdoc": {
    "kind": "dev",
    "methods": {
      "transformCollateralRequirement((uint256),(uint256))": {
        "params": {
          "collateralRequirement": "financial products collateral requirement to be scaled to a flat rate.",
          "oraclePrice": "price from the oracle to transform the collateral requirement."
        },
        "returns": {
          "_0": "transformedCollateralRequirement the input collateral requirement with the transformation logic applied to it."
        }
      },
      "transformPrice((uint256),uint256)": {
        "params": {
          "oraclePrice": "price from the oracle to be transformed.",
          "requestTime": "timestamp the oraclePrice was requested at."
        },
        "returns": {
          "_0": "transformedPrice the input oracle price with the price transformation logic applied to it."
        }
      },
      "transformPriceIdentifier(bytes32,uint256)": {
        "params": {
          "priceIdentifier": "input price identifier defined for the financial contract.",
          "requestTime": "timestamp the identifier is to be used at. EG the time that a price request would be sent using this identifier."
        },
        "returns": {
          "_0": "transformedPriceIdentifier input price identifier with the transformation function applied."
        }
      }
    },
    "title": "KPI Options Financial Product Library",
    "version": 1
  },
  "userdoc": {
    "kind": "user",
    "methods": {
      "transformCollateralRequirement((uint256),(uint256))": {
        "notice": "Returns a transformed collateral requirement that is set to be equivalent to 2 tokens pre-expiry."
      },
      "transformPrice((uint256),uint256)": {
        "notice": "Returns a transformed price for pre-expiry price requests."
      },
      "transformPriceIdentifier(bytes32,uint256)": {
        "notice": "Transforms a given price identifier using the financial product libraries transformation logic."
      }
    },
    "notice": "Adds custom tranformation logic to modify the price and collateral requirement behavior of the expiring multi party contract. If a price request is made pre-expiry, the price should always be set to 2 and the collateral requirement should be set to 1. Post-expiry, the collateral requirement is left as 1 and the price is left unchanged.",
    "version": 1
  }
}