{
  "contractName": "ReserveCurrencyDisputer",
  "abi": [
    {
      "inputs": [
        {
          "internalType": "address",
          "name": "uniswapRouter",
          "type": "address"
        },
        {
          "internalType": "address",
          "name": "financialContract",
          "type": "address"
        },
        {
          "internalType": "address",
          "name": "reserveCurrency",
          "type": "address"
        },
        {
          "internalType": "uint256",
          "name": "liquidationId",
          "type": "uint256"
        },
        {
          "internalType": "address",
          "name": "sponsor",
          "type": "address"
        },
        {
          "internalType": "uint256",
          "name": "maxReserveTokenSpent",
          "type": "uint256"
        },
        {
          "internalType": "uint256",
          "name": "deadline",
          "type": "uint256"
        }
      ],
      "name": "swapDispute",
      "outputs": [],
      "stateMutability": "nonpayable",
      "type": "function"
    }
  ],
  "bytecode": "0x608060405234801561001057600080fd5b50610da0806100206000396000f3fe608060405234801561001057600080fd5b506004361061002b5760003560e01c80632a19bdfe14610030575b600080fd5b61004361003e366004610968565b610045565b005b604051634f8c484760e01b81526001600160a01b038481166004830152602482018690528791600091831690634f8c4847906044016101606040518083038186803b15801561009357600080fd5b505afa1580156100a7573d6000803e3d6000fd5b505050506040513d601f19601f820116820180604052508101906100cb9190610aa9565b90506000826001600160a01b0316632e154f2e6040518163ffffffff1660e01b815260040160206040518083038186803b15801561010857600080fd5b505afa15801561011c573d6000803e3d6000fd5b505050506040513d601f19601f820116820180604052508101906101409190610b81565b905060006101db6101c6856001600160a01b031663dd0eef3d6040518163ffffffff1660e01b815260040160206040518083038186803b15801561018357600080fd5b505afa158015610197573d6000803e3d6000fd5b505050506040513d601f19601f820116820180604052508101906101bb9190610b81565b60e086015190610572565b60a08501516101d59085610572565b90610572565b905060006101f7846101400151836105b890919063ffffffff16565b9050600061020d82610208886105e2565b6106ee565b905061021a816000610727565b80156102a85750856001600160a01b0316630de15fd96040518163ffffffff1660e01b815260040160206040518083038186803b15801561025a57600080fd5b505afa15801561026e573d6000803e3d6000fd5b505050506040513d601f19601f82011682018060405250810190610292919061094c565b6001600160a01b03168b6001600160a01b031614155b15610463576040805160028082526060820183528f9260009291906020830190803683370190505090508c816000815181106102f457634e487b7160e01b600052603260045260246000fd5b60200260200101906001600160a01b031690816001600160a01b031681525050876001600160a01b0316630de15fd96040518163ffffffff1660e01b815260040160206040518083038186803b15801561034d57600080fd5b505afa158015610361573d6000803e3d6000fd5b505050506040513d601f19601f82011682018060405250810190610385919061094c565b816001815181106103a657634e487b7160e01b600052603260045260246000fd5b60200260200101906001600160a01b031690816001600160a01b0316815250506103d18d838c61073e565b816001600160a01b0316638803dbee84600001518c84308e6040518663ffffffff1660e01b8152600401610409959493929190610bed565b600060405180830381600087803b15801561042357600080fd5b505af1158015610437573d6000803e3d6000fd5b505050506040513d6000823e601f3d908101601f1916820160405261045f91908101906109e1565b5050505b6104e0866001600160a01b0316630de15fd96040518163ffffffff1660e01b815260040160206040518083038186803b15801561049f57600080fd5b505afa1580156104b3573d6000803e3d6000fd5b505050506040513d601f19601f820116820180604052508101906104d7919061094c565b8351889061073e565b6040516353b2fdf560e11b8152600481018b90526001600160a01b038a8116602483015287169063a765fbea90604401602060405180830381600087803b15801561052a57600080fd5b505af115801561053e573d6000803e3d6000fd5b505050506040513d601f19601f820116820180604052508101906105629190610b81565b5050505050505050505050505050565b6040805160208101909152600081526040805160208101909152825184518291670de0b6b3a7640000916105a591610871565b6105af9190610cd0565b90529392505050565b60408051602081019091526000815260408051602081019091528251845182916105af919061087d565b6040805160208101909152600081526040518060200160405280836001600160a01b0316630de15fd96040518163ffffffff1660e01b815260040160206040518083038186803b15801561063557600080fd5b505afa158015610649573d6000803e3d6000fd5b505050506040513d601f19601f8201168201806040525081019061066d919061094c565b6040516370a0823160e01b81523060048201526001600160a01b0391909116906370a082319060240160206040518083038186803b1580156106ae57600080fd5b505afa1580156106c2573d6000803e3d6000fd5b505050506040513d601f19601f820116820180604052508101906106e69190610b9c565b905292915050565b604080516020810190915260008152825182511015610716576107118383610889565b610720565b61072060006108b3565b9392505050565b6000610732826108b3565b51835111905092915050565b604080516001600160a01b038481166024830152604480830185905283518084039091018152606490920183526020820180516001600160e01b031663095ea7b360e01b179052915160009283929087169161079a9190610bb4565b6000604051808303816000865af19150503d80600081146107d7576040519150601f19603f3d011682016040523d82523d6000602084013e6107dc565b606091505b50915091508180156108065750805115806108065750808060200190518101906108069190610a89565b61086a5760405162461bcd60e51b815260206004820152602b60248201527f5472616e7366657248656c7065723a3a73616665417070726f76653a2061707060448201526a1c9bdd994819985a5b195960aa1b606482015260840160405180910390fd5b5050505050565b60006107208284610cf0565b60006107208284610cb8565b60408051602081019091526000815260408051602081019091528251845182916105af91906108e0565b6040805160208101909152600081526040805160208101909152806106e684670de0b6b3a7640000610871565b60006107208284610d0f565b80516108f781610d52565b919050565b8051600581106108f757600080fd5b60006020828403121561091c578081fd5b6040516020810181811067ffffffffffffffff8211171561093f5761093f610d3c565b6040529151825250919050565b60006020828403121561095d578081fd5b815161072081610d52565b600080600080600080600060e0888a031215610982578283fd5b873561098d81610d52565b9650602088013561099d81610d52565b955060408801356109ad81610d52565b94506060880135935060808801356109c481610d52565b9699959850939692959460a0840135945060c09093013592915050565b600060208083850312156109f3578182fd5b825167ffffffffffffffff80821115610a0a578384fd5b818501915085601f830112610a1d578384fd5b815181811115610a2f57610a2f610d3c565b8060051b9150610a40848301610c87565b8181528481019084860184860187018a1015610a5a578788fd5b8795505b83861015610a7c578051835260019590950194918601918601610a5e565b5098975050505050505050565b600060208284031215610a9a578081fd5b81518015158114610720578182fd5b60006101608284031215610abb578081fd5b610ac3610c5d565b610acc836108ec565b8152610ada602084016108ec565b6020820152610aeb604084016108fc565b604082015260608301516060820152610b07846080850161090b565b6080820152610b198460a0850161090b565b60a0820152610b2b8460c0850161090b565b60c0820152610b3d8460e0850161090b565b60e0820152610100610b508185016108ec565b90820152610120610b638585830161090b565b90820152610140610b768585830161090b565b908201529392505050565b600060208284031215610b92578081fd5b610720838361090b565b600060208284031215610bad578081fd5b5051919050565b60008251815b81811015610bd45760208186018101518583015201610bba565b81811115610be25782828501525b509190910192915050565b600060a082018783526020878185015260a0604085015281875180845260c0860191508289019350845b81811015610c3c5784516001600160a01b031683529383019391830191600101610c17565b50506001600160a01b03969096166060850152505050608001529392505050565b604051610160810167ffffffffffffffff81118282101715610c8157610c81610d3c565b60405290565b604051601f8201601f1916810167ffffffffffffffff81118282101715610cb057610cb0610d3c565b604052919050565b60008219821115610ccb57610ccb610d26565b500190565b600082610ceb57634e487b7160e01b81526012600452602481fd5b500490565b6000816000190483118215151615610d0a57610d0a610d26565b500290565b600082821015610d2157610d21610d26565b500390565b634e487b7160e01b600052601160045260246000fd5b634e487b7160e01b600052604160045260246000fd5b6001600160a01b0381168114610d6757600080fd5b5056fea26469706673582212203ff7262c2dbcbcff93b58d3a65f0c351519897b81566c21c34cc75ce170e772464736f6c63430008040033",
  "immutableReferences": {},
  "source": "// SPDX-License-Identifier: AGPL-3.0-only\npragma solidity ^0.8.0;\npragma abicoder v2;\n\nimport \"@openzeppelin/contracts/utils/math/SafeMath.sol\";\nimport \"@openzeppelin/contracts/token/ERC20/IERC20.sol\";\n\nimport \"@uniswap/lib/contracts/libraries/TransferHelper.sol\";\nimport \"@uniswap/v2-periphery/contracts/interfaces/IUniswapV2Router01.sol\";\n\nimport \"../../common/implementation/FixedPoint.sol\";\n\n/**\n * @title ReserveCurrencyDisputer\n * @notice Helper contract to enable a disputer to hold one reserver currency and dispute against any number of\n * financial contracts. Is assumed to be called by a DSProxy which holds reserve currency.\n */\n\ncontract ReserveCurrencyDisputer {\n    using SafeMath for uint256;\n    using FixedPoint for FixedPoint.Unsigned;\n\n    /**\n     * @notice Swaps required amount of reserve currency to collateral currency which is then used to dispute a liquidation.\n     * @dev Any collateral the contract has will be used before anything is purchased on Uniswap.\n     * @param uniswapRouter address of the uniswap router used to facilitate trades.\n     * @param financialContract address of the financial contract on which the liquidation is occurring.\n     * @param reserveCurrency address of the token to swap for collateral. This is the common currency held by the DSProxy.\n     * @param sponsor address of the sponsor who's liquidation is disputed.\n     * @param liquidationId index of the liquidation for the given sponsor.\n     * @param maxReserveTokenSpent maximum number of reserve tokens to spend in the trade. Bounds slippage.\n     * @param deadline abort the trade and dispute if the transaction is mined after this timestamp.\n     **/\n    function swapDispute(\n        address uniswapRouter,\n        address financialContract,\n        address reserveCurrency,\n        uint256 liquidationId,\n        address sponsor,\n        uint256 maxReserveTokenSpent,\n        uint256 deadline\n    ) public {\n        IFinancialContract fc = IFinancialContract(financialContract);\n\n        // 1. Fetch information about the liquidation from the financial contract.\n        IFinancialContract.LiquidationData memory liquidationData = fc.liquidations(sponsor, liquidationId);\n\n        // 2. Fetch the disputeBondPercentage from the financial contract.\n        FixedPoint.Unsigned memory disputeBondPercentage = fc.disputeBondPercentage();\n\n        // 3. Compute the disputeBondAmount. Multiply by the unit collateral so the dispute bond is a percentage of the\n        // locked collateral after fees. To add fees we simply multiply the rawUnitCollateral by the cumulativeFeeMultiplier.\n        FixedPoint.Unsigned memory disputeBondAmount =\n            liquidationData.lockedCollateral.mul(disputeBondPercentage).mul(\n                (liquidationData.rawUnitCollateral).mul(fc.cumulativeFeeMultiplier())\n            );\n\n        // 4. Calculate required collateral. Cost of a dispute is the dispute bond + the final fee.\n        FixedPoint.Unsigned memory totalCollateralRequired = disputeBondAmount.add(liquidationData.finalFee);\n\n        // 5. Compute the collateral shortfall. This considers and collateral that is current in the contract.\n        FixedPoint.Unsigned memory collateralToBePurchased =\n            subOrZero(totalCollateralRequired, getCollateralBalance(fc));\n\n        // 6. If there is collateral to be purchased, buy it on uniswap with the reserve currency.\n        if (collateralToBePurchased.isGreaterThan(0) && reserveCurrency != fc.collateralCurrency()) {\n            IUniswapV2Router01 router = IUniswapV2Router01(uniswapRouter);\n            address[] memory path = new address[](2);\n            path[0] = reserveCurrency;\n            path[1] = fc.collateralCurrency();\n\n            TransferHelper.safeApprove(reserveCurrency, address(router), maxReserveTokenSpent);\n            router.swapTokensForExactTokens(\n                collateralToBePurchased.rawValue,\n                maxReserveTokenSpent,\n                path,\n                address(this),\n                deadline\n            );\n        }\n\n        // 7. Finally, submit the dispute.\n        TransferHelper.safeApprove(fc.collateralCurrency(), address(fc), totalCollateralRequired.rawValue);\n        fc.dispute(liquidationId, sponsor);\n    }\n\n    // Helper method to work around subtraction overflow in the case of: a - b with b > a.\n    function subOrZero(FixedPoint.Unsigned memory a, FixedPoint.Unsigned memory b)\n        internal\n        pure\n        returns (FixedPoint.Unsigned memory)\n    {\n        return b.isGreaterThanOrEqual(a) ? FixedPoint.fromUnscaledUint(0) : a.sub(b);\n    }\n\n    // Helper method to return the collateral balance of this contract.\n    function getCollateralBalance(IFinancialContract fc) internal view returns (FixedPoint.Unsigned memory) {\n        return FixedPoint.Unsigned(IERC20(fc.collateralCurrency()).balanceOf(address(this)));\n    }\n}\n\n// Define some simple interfaces for dealing with UMA contracts.\ninterface IFinancialContract {\n    enum Status { Uninitialized, NotDisputed, Disputed, DisputeSucceeded, DisputeFailed }\n\n    struct LiquidationData {\n        address sponsor;\n        address liquidator;\n        Status state;\n        uint256 liquidationTime;\n        FixedPoint.Unsigned tokensOutstanding;\n        FixedPoint.Unsigned lockedCollateral;\n        FixedPoint.Unsigned liquidatedCollateral;\n        FixedPoint.Unsigned rawUnitCollateral;\n        address disputer;\n        FixedPoint.Unsigned settlementPrice;\n        FixedPoint.Unsigned finalFee;\n    }\n\n    function liquidations(address sponsor, uint256 liquidationId) external view returns (LiquidationData memory);\n\n    function disputeBondPercentage() external view returns (FixedPoint.Unsigned memory);\n\n    function disputerDisputeRewardPct() external view returns (FixedPoint.Unsigned memory);\n\n    function cumulativeFeeMultiplier() external view returns (FixedPoint.Unsigned memory);\n\n    function collateralCurrency() external view returns (address);\n\n    function dispute(uint256 liquidationId, address sponsor) external returns (FixedPoint.Unsigned memory totalPaid);\n}\n",
  "sourcePath": "/home/circleci/protocol/packages/core/contracts/proxy-scripts/atomic-disputer/ReserveCurrencyDisputer.sol",
  "compiler": {
    "name": "solc",
    "version": "0.8.4+commit.c7e474f2.Emscripten.clang"
  },
  "schemaVersion": "3.3.4",
  "updatedAt": "2021-07-16T20:27:10.159Z",
  "devdoc": {
    "kind": "dev",
    "methods": {
      "swapDispute(address,address,address,uint256,address,uint256,uint256)": {
        "details": "Any collateral the contract has will be used before anything is purchased on Uniswap.",
        "params": {
          "deadline": "abort the trade and dispute if the transaction is mined after this timestamp.*",
          "financialContract": "address of the financial contract on which the liquidation is occurring.",
          "liquidationId": "index of the liquidation for the given sponsor.",
          "maxReserveTokenSpent": "maximum number of reserve tokens to spend in the trade. Bounds slippage.",
          "reserveCurrency": "address of the token to swap for collateral. This is the common currency held by the DSProxy.",
          "sponsor": "address of the sponsor who's liquidation is disputed.",
          "uniswapRouter": "address of the uniswap router used to facilitate trades."
        }
      }
    },
    "title": "ReserveCurrencyDisputer",
    "version": 1
  },
  "userdoc": {
    "kind": "user",
    "methods": {
      "swapDispute(address,address,address,uint256,address,uint256,uint256)": {
        "notice": "Swaps required amount of reserve currency to collateral currency which is then used to dispute a liquidation."
      }
    },
    "notice": "Helper contract to enable a disputer to hold one reserver currency and dispute against any number of financial contracts. Is assumed to be called by a DSProxy which holds reserve currency.",
    "version": 1
  }
}