{
  "contractName": "SourceGovernor",
  "abi": [
    {
      "inputs": [
        {
          "internalType": "contract FinderInterface",
          "name": "_finder",
          "type": "address"
        },
        {
          "internalType": "uint8",
          "name": "_currentChainId",
          "type": "uint8"
        }
      ],
      "stateMutability": "nonpayable",
      "type": "constructor"
    },
    {
      "anonymous": false,
      "inputs": [
        {
          "indexed": true,
          "internalType": "address",
          "name": "previousOwner",
          "type": "address"
        },
        {
          "indexed": true,
          "internalType": "address",
          "name": "newOwner",
          "type": "address"
        }
      ],
      "name": "OwnershipTransferred",
      "type": "event"
    },
    {
      "anonymous": false,
      "inputs": [
        {
          "indexed": true,
          "internalType": "uint8",
          "name": "destinationChainId",
          "type": "uint8"
        },
        {
          "indexed": true,
          "internalType": "address",
          "name": "to",
          "type": "address"
        },
        {
          "indexed": true,
          "internalType": "bytes",
          "name": "data",
          "type": "bytes"
        }
      ],
      "name": "RelayedGovernanceRequest",
      "type": "event"
    },
    {
      "inputs": [],
      "name": "currentChainId",
      "outputs": [
        {
          "internalType": "uint8",
          "name": "",
          "type": "uint8"
        }
      ],
      "stateMutability": "view",
      "type": "function"
    },
    {
      "inputs": [],
      "name": "finder",
      "outputs": [
        {
          "internalType": "contract FinderInterface",
          "name": "",
          "type": "address"
        }
      ],
      "stateMutability": "view",
      "type": "function"
    },
    {
      "inputs": [],
      "name": "owner",
      "outputs": [
        {
          "internalType": "address",
          "name": "",
          "type": "address"
        }
      ],
      "stateMutability": "view",
      "type": "function"
    },
    {
      "inputs": [],
      "name": "renounceOwnership",
      "outputs": [],
      "stateMutability": "nonpayable",
      "type": "function"
    },
    {
      "inputs": [
        {
          "internalType": "address",
          "name": "newOwner",
          "type": "address"
        }
      ],
      "name": "transferOwnership",
      "outputs": [],
      "stateMutability": "nonpayable",
      "type": "function"
    },
    {
      "inputs": [
        {
          "internalType": "uint8",
          "name": "destinationChainId",
          "type": "uint8"
        },
        {
          "internalType": "address",
          "name": "to",
          "type": "address"
        },
        {
          "internalType": "bytes",
          "name": "data",
          "type": "bytes"
        }
      ],
      "name": "relayGovernance",
      "outputs": [],
      "stateMutability": "nonpayable",
      "type": "function"
    },
    {
      "inputs": [
        {
          "internalType": "address",
          "name": "to",
          "type": "address"
        },
        {
          "internalType": "bytes",
          "name": "data",
          "type": "bytes"
        }
      ],
      "name": "verifyRequest",
      "outputs": [],
      "stateMutability": "view",
      "type": "function"
    },
    {
      "inputs": [],
      "name": "getResourceId",
      "outputs": [
        {
          "internalType": "bytes32",
          "name": "",
          "type": "bytes32"
        }
      ],
      "stateMutability": "view",
      "type": "function"
    }
  ],
  "bytecode": "0x608060405234801561001057600080fd5b506040516109c53803806109c583398101604081905261002f916100a7565b600080546001600160a01b031916339081178255604051909182917f8be0079c531659141344cd1fd0a4f28419497f9722a3daafe3b4186f6b6457e0908290a3506001805460ff909216600160a01b026001600160a81b03199092166001600160a01b039093169290921717905560006002556100f0565b600080604083850312156100b9578182fd5b82516001600160a01b03811681146100cf578283fd5b602084015190925060ff811681146100e5578182fd5b809150509250929050565b6108c6806100ff6000396000f3fe608060405234801561001057600080fd5b50600436106100885760003560e01c8063715018a61161005b578063715018a6146100f65780638da5cb5b146100fe578063b9a3c84c14610123578063f2fde38b1461013657600080fd5b80632a4419a81461008d5780633bf5e3b4146100a257806347c7f42c146100bd5780636cbadbfa146100d0575b600080fd5b6100a061009b3660046106d3565b610149565b005b6100aa6102aa565b6040519081526020015b60405180910390f35b6100a06100cb366004610685565b610300565b6001546100e490600160a01b900460ff1681565b60405160ff90911681526020016100b4565b6100a0610350565b6000546001600160a01b03165b6040516001600160a01b0390911681526020016100b4565b60015461010b906001600160a01b031681565b6100a0610144366004610646565b6103c4565b6000546001600160a01b0316331461017c5760405162461bcd60e51b8152600401610173906107d2565b60405180910390fd5b600254156101cc5760405162461bcd60e51b815260206004820152601860248201527f52657175657374206861736820616c72656164792073657400000000000000006044820152606401610173565b6101d682826104ae565b6002556101e16104e1565b6001600160a01b03166305e2ca17846101f86102aa565b610202868661056b565b6040518463ffffffff1660e01b815260040161022093929190610807565b600060405180830381600087803b15801561023a57600080fd5b505af115801561024e573d6000803e3d6000fd5b505060006002555050604051610265908290610764565b604051908190038120906001600160a01b0384169060ff8616907f074d00ce41483c3c8e9cd5d62ccd64fe899d84bd0d4baf8b77e297792d3b1d6c90600090a4505050565b6001546040805160208101829052600860608201526723b7bb32b93737b960c11b6080820152600160a01b90920460ff169082015260009060a00160405160208183030381529060405280519060200120905090565b61030a82826104ae565b6002541461034c5760405162461bcd60e51b815260206004820152600f60248201526e125b9d985b1a590814995c5d595cdd608a1b6044820152606401610173565b5050565b6000546001600160a01b0316331461037a5760405162461bcd60e51b8152600401610173906107d2565b600080546040516001600160a01b03909116907f8be0079c531659141344cd1fd0a4f28419497f9722a3daafe3b4186f6b6457e0908390a3600080546001600160a01b0319169055565b6000546001600160a01b031633146103ee5760405162461bcd60e51b8152600401610173906107d2565b6001600160a01b0381166104535760405162461bcd60e51b815260206004820152602660248201527f4f776e61626c653a206e6577206f776e657220697320746865207a65726f206160448201526564647265737360d01b6064820152608401610173565b600080546040516001600160a01b03808516939216917f8be0079c531659141344cd1fd0a4f28419497f9722a3daafe3b4186f6b6457e091a3600080546001600160a01b0319166001600160a01b0392909216919091179055565b600082826040516020016104c39291906107a6565b60405160208183030381529060405280519060200120905092915050565b6001546040516302abf57960e61b81526542726964676560d01b60048201526000916001600160a01b03169063aafd5e409060240160206040518083038186803b15801561052e57600080fd5b505afa158015610542573d6000803e3d6000fd5b505050506040513d601f19601f820116820180604052508101906105669190610669565b905090565b6060600083836040516020016105829291906107a6565b60405160208183030381529060405290508051816040516020016105a7929190610780565b60405160208183030381529060405291505092915050565b600082601f8301126105cf578081fd5b813567ffffffffffffffff808211156105ea576105ea610862565b604051601f8301601f19908116603f0116810190828211818310171561061257610612610862565b8160405283815286602085880101111561062a578485fd5b8360208701602083013792830160200193909352509392505050565b600060208284031215610657578081fd5b813561066281610878565b9392505050565b60006020828403121561067a578081fd5b815161066281610878565b60008060408385031215610697578081fd5b82356106a281610878565b9150602083013567ffffffffffffffff8111156106bd578182fd5b6106c9858286016105bf565b9150509250929050565b6000806000606084860312156106e7578081fd5b833560ff811681146106f7578182fd5b9250602084013561070781610878565b9150604084013567ffffffffffffffff811115610722578182fd5b61072e868287016105bf565b9150509250925092565b60008151808452610750816020860160208601610832565b601f01601f19169290920160200192915050565b60008251610776818460208701610832565b9190910192915050565b82815260008251610798816020850160208701610832565b919091016020019392505050565b6001600160a01b03831681526040602082018190526000906107ca90830184610738565b949350505050565b6020808252818101527f4f776e61626c653a2063616c6c6572206973206e6f7420746865206f776e6572604082015260600190565b60ff841681528260208201526060604082015260006108296060830184610738565b95945050505050565b60005b8381101561084d578181015183820152602001610835565b8381111561085c576000848401525b50505050565b634e487b7160e01b600052604160045260246000fd5b6001600160a01b038116811461088d57600080fd5b5056fea2646970667358221220c543018e10a476476f78ee13fa5f6cbb17cf1514cff5daccdf46e25b0d78e3ee64736f6c63430008040033",
  "immutableReferences": {},
  "source": "// SPDX-License-Identifier: AGPL-3.0-only\npragma solidity ^0.8.0;\n\nimport \"../oracle/interfaces/FinderInterface.sol\";\nimport \"../oracle/implementation/Constants.sol\";\nimport \"@openzeppelin/contracts/access/Ownable.sol\";\nimport \"../external/chainbridge/interfaces/IBridge.sol\";\n\n/**\n * @title Governance relayer contract on L1 that receives messages from the owner (Governor) and sends them to L2.\n */\ncontract SourceGovernor is Ownable {\n    FinderInterface public finder;\n    uint8 public currentChainId;\n    bytes32 internal currentRequestHash;\n\n    event RelayedGovernanceRequest(uint8 indexed destinationChainId, address indexed to, bytes indexed data);\n\n    /**\n     * @notice Constructor.\n     * @param _finder Address of Finder that this contract uses to locate Bridge.\n     * @param _currentChainId Chain ID for this network. This is configurable by the deployer, rather than\n     * automatically detected via `block.chainid` because the type of `currentChainId` should match any\n     * `destinationChainId`'s submitted as input to `relayGovernance()`. `relayGovernance()` calls `Bridge.deposit()`\n     * which expects a uint8 chainID passed as the first param, but `block.chainid` returns a uint256 value. Due to\n     * the possibility that a uint256 --> uint28 conversion leads to data loss and the complexity of mapping safely\n     * from uint256 --> uint8 on-chain, we opt to allow the user to specify a unique uint8 ID for this chain. It\n     * follows that the `_currentChainId` may not match with `block.chainid`.\n     */\n    constructor(FinderInterface _finder, uint8 _currentChainId) {\n        finder = _finder;\n        currentChainId = _currentChainId;\n        currentRequestHash = bytes32(0);\n    }\n\n    /**\n     * @notice This is the first method that should be called in order to relay a governance request to another network\n     * marked by `destinationChainId`. Note: this can only be called by the owner (presumably the L1 governor).\n     * @dev The transaction submitted to `to` on the sidechain with the calldata `data` is assumed to have 0 `value`\n     * in order to avoid the added complexity of sending cross-chain transactions with positive value.\n     * @param destinationChainId Chain ID of SinkGovernor that this governance request should ultimately be sent to.\n     * @param to Contract on network with chain ID `destinationChainId` to send governance transaction to.\n     * @param data Calldata to include in governance transaction.\n     */\n    function relayGovernance(\n        uint8 destinationChainId,\n        address to,\n        bytes memory data\n    ) external onlyOwner {\n        require(currentRequestHash == bytes32(0), \"Request hash already set\");\n        currentRequestHash = _computeRequestHash(to, data);\n        _getBridge().deposit(destinationChainId, getResourceId(), _formatMetadata(to, data));\n        currentRequestHash = bytes32(0);\n        emit RelayedGovernanceRequest(destinationChainId, to, data);\n    }\n\n    /**\n     * @notice This method will ultimately be called after `relayGovernance` calls `Bridge.deposit()`, which will call\n     * `GenericHandler.deposit()` and ultimately this method.\n     * @dev This method should basically check that the `Bridge.deposit()` was triggered by a valid relay event.\n     * @param to Contract on network with chain ID `destinationChainId` to send governance transaction to.\n     * @param data Calldata to include in governance transaction.\n     */\n    function verifyRequest(address to, bytes memory data) external view {\n        require(currentRequestHash == _computeRequestHash(to, data), \"Invalid Request\");\n    }\n\n    /**\n     * @notice Gets the resource id to send to the bridge.\n     * @dev More details about Resource ID's here: https://chainbridge.chainsafe.io/spec/#resource-id\n     * @return bytes32 Hash containing this stored chain ID.\n     */\n    function getResourceId() public view returns (bytes32) {\n        return keccak256(abi.encode(\"Governor\", currentChainId));\n    }\n\n    function _getBridge() internal view returns (IBridge) {\n        return IBridge(finder.getImplementationAddress(OracleInterfaces.Bridge));\n    }\n\n    function _formatMetadata(address to, bytes memory data) internal pure returns (bytes memory) {\n        bytes memory metadata = abi.encode(to, data);\n        return abi.encodePacked(metadata.length, metadata);\n    }\n\n    function _computeRequestHash(address to, bytes memory data) internal pure returns (bytes32) {\n        return keccak256(abi.encode(to, data));\n    }\n}\n",
  "sourcePath": "/home/circleci/protocol/packages/core/contracts/chainbridge/SourceGovernor.sol",
  "compiler": {
    "name": "solc",
    "version": "0.8.4+commit.c7e474f2.Emscripten.clang"
  },
  "schemaVersion": "3.3.4",
  "updatedAt": "2021-07-16T20:27:09.466Z",
  "devdoc": {
    "kind": "dev",
    "methods": {
      "constructor": {
        "params": {
          "_currentChainId": "Chain ID for this network. This is configurable by the deployer, rather than automatically detected via `block.chainid` because the type of `currentChainId` should match any `destinationChainId`'s submitted as input to `relayGovernance()`. `relayGovernance()` calls `Bridge.deposit()` which expects a uint8 chainID passed as the first param, but `block.chainid` returns a uint256 value. Due to the possibility that a uint256 --> uint28 conversion leads to data loss and the complexity of mapping safely from uint256 --> uint8 on-chain, we opt to allow the user to specify a unique uint8 ID for this chain. It follows that the `_currentChainId` may not match with `block.chainid`.",
          "_finder": "Address of Finder that this contract uses to locate Bridge."
        }
      },
      "getResourceId()": {
        "details": "More details about Resource ID's here: https://chainbridge.chainsafe.io/spec/#resource-id",
        "returns": {
          "_0": "bytes32 Hash containing this stored chain ID."
        }
      },
      "owner()": {
        "details": "Returns the address of the current owner."
      },
      "relayGovernance(uint8,address,bytes)": {
        "details": "The transaction submitted to `to` on the sidechain with the calldata `data` is assumed to have 0 `value` in order to avoid the added complexity of sending cross-chain transactions with positive value.",
        "params": {
          "data": "Calldata to include in governance transaction.",
          "destinationChainId": "Chain ID of SinkGovernor that this governance request should ultimately be sent to.",
          "to": "Contract on network with chain ID `destinationChainId` to send governance transaction to."
        }
      },
      "renounceOwnership()": {
        "details": "Leaves the contract without owner. It will not be possible to call `onlyOwner` functions anymore. Can only be called by the current owner. NOTE: Renouncing ownership will leave the contract without an owner, thereby removing any functionality that is only available to the owner."
      },
      "transferOwnership(address)": {
        "details": "Transfers ownership of the contract to a new account (`newOwner`). Can only be called by the current owner."
      },
      "verifyRequest(address,bytes)": {
        "details": "This method should basically check that the `Bridge.deposit()` was triggered by a valid relay event.",
        "params": {
          "data": "Calldata to include in governance transaction.",
          "to": "Contract on network with chain ID `destinationChainId` to send governance transaction to."
        }
      }
    },
    "title": "Governance relayer contract on L1 that receives messages from the owner (Governor) and sends them to L2.",
    "version": 1
  },
  "userdoc": {
    "kind": "user",
    "methods": {
      "constructor": {
        "notice": "Constructor."
      },
      "getResourceId()": {
        "notice": "Gets the resource id to send to the bridge."
      },
      "relayGovernance(uint8,address,bytes)": {
        "notice": "This is the first method that should be called in order to relay a governance request to another network marked by `destinationChainId`. Note: this can only be called by the owner (presumably the L1 governor)."
      },
      "verifyRequest(address,bytes)": {
        "notice": "This method will ultimately be called after `relayGovernance` calls `Bridge.deposit()`, which will call `GenericHandler.deposit()` and ultimately this method."
      }
    },
    "version": 1
  }
}