{
  "contractName": "VotingUpgrader",
  "abi": [
    {
      "inputs": [
        {
          "internalType": "address",
          "name": "_governor",
          "type": "address"
        },
        {
          "internalType": "address",
          "name": "_existingVoting",
          "type": "address"
        },
        {
          "internalType": "address",
          "name": "_newVoting",
          "type": "address"
        },
        {
          "internalType": "address",
          "name": "_finder",
          "type": "address"
        },
        {
          "internalType": "address",
          "name": "_setMigratedAddress",
          "type": "address"
        }
      ],
      "stateMutability": "nonpayable",
      "type": "constructor"
    },
    {
      "inputs": [],
      "name": "existingVoting",
      "outputs": [
        {
          "internalType": "contract Voting",
          "name": "",
          "type": "address"
        }
      ],
      "stateMutability": "view",
      "type": "function"
    },
    {
      "inputs": [],
      "name": "finder",
      "outputs": [
        {
          "internalType": "contract Finder",
          "name": "",
          "type": "address"
        }
      ],
      "stateMutability": "view",
      "type": "function"
    },
    {
      "inputs": [],
      "name": "governor",
      "outputs": [
        {
          "internalType": "address",
          "name": "",
          "type": "address"
        }
      ],
      "stateMutability": "view",
      "type": "function"
    },
    {
      "inputs": [],
      "name": "newVoting",
      "outputs": [
        {
          "internalType": "address",
          "name": "",
          "type": "address"
        }
      ],
      "stateMutability": "view",
      "type": "function"
    },
    {
      "inputs": [],
      "name": "setMigratedAddress",
      "outputs": [
        {
          "internalType": "address",
          "name": "",
          "type": "address"
        }
      ],
      "stateMutability": "view",
      "type": "function"
    },
    {
      "inputs": [],
      "name": "upgrade",
      "outputs": [],
      "stateMutability": "nonpayable",
      "type": "function"
    }
  ],
  "bytecode": "0x608060405234801561001057600080fd5b5060405161045938038061045983398101604081905261002f916100ad565b600080546001600160a01b03199081166001600160a01b03978816179091556001805482169587169590951790945560038054851693861693909317909255600280548416918516919091179055600480549092169216919091179055610111565b80516001600160a01b03811681146100a857600080fd5b919050565b600080600080600060a086880312156100c4578081fd5b6100cd86610091565b94506100db60208701610091565b93506100e960408701610091565b92506100f760608701610091565b915061010560808701610091565b90509295509295909350565b610339806101206000396000f3fe608060405234801561001057600080fd5b50600436106100625760003560e01c80630c340a2414610067578063679b721c14610096578063b9a3c84c146100a9578063c6f290dc146100bc578063d0fc1572146100cf578063d55ec697146100e2575b600080fd5b60005461007a906001600160a01b031681565b6040516001600160a01b03909116815260200160405180910390f35b60015461007a906001600160a01b031681565b60025461007a906001600160a01b031681565b60045461007a906001600160a01b031681565b60035461007a906001600160a01b031681565b6100ea6100ec565b005b6000546001600160a01b0316331461016a5760405162461bcd60e51b815260206004820152603760248201527f557067726164652063616e206f6e6c7920626520696e69746961746564206279604482015276103a34329032bc34b9ba34b7339033b7bb32b93737b91760491b606482015260840160405180910390fd5b6002546003546040516318fcb32f60e11b8152654f7261636c6560d01b60048201526001600160a01b0391821660248201529116906331f9665e90604401600060405180830381600087803b1580156101c257600080fd5b505af11580156101d6573d6000803e3d6000fd5b505060015460048054604051632960b5af60e01b81526001600160a01b03918216928101929092529091169250632960b5af9150602401600060405180830381600087803b15801561022757600080fd5b505af115801561023b573d6000803e3d6000fd5b505060015460005460405163f2fde38b60e01b81526001600160a01b0391821660048201529116925063f2fde38b9150602401600060405180830381600087803b15801561028857600080fd5b505af115801561029c573d6000803e3d6000fd5b505060025460005460405163f2fde38b60e01b81526001600160a01b0391821660048201529116925063f2fde38b9150602401600060405180830381600087803b1580156102e957600080fd5b505af11580156102fd573d6000803e3d6000fd5b5050505056fea2646970667358221220952af2b68ff9a37f55f5ef1e8a23b31d77bdbc9ab01db9d5ee47bb016d62a35964736f6c63430008040033",
  "immutableReferences": {},
  "source": "// SPDX-License-Identifier: AGPL-3.0-only\npragma solidity ^0.8.0;\n\nimport \"../oracle/implementation/Finder.sol\";\nimport \"../oracle/implementation/Constants.sol\";\nimport \"../oracle/implementation/Voting.sol\";\n\n/**\n * @title A contract that executes a short series of upgrade calls that must be performed atomically as a part of the\n * upgrade process for Voting.sol.\n * @dev Note: the complete upgrade process requires more than just the transactions in this contract. These are only\n * the ones that need to be performed atomically.\n */\ncontract VotingUpgrader {\n    // Existing governor is the only one who can initiate the upgrade.\n    address public governor;\n\n    // Existing Voting contract needs to be informed of the address of the new Voting contract.\n    Voting public existingVoting;\n\n    // New governor will be the new owner of the finder.\n\n    // Finder contract to push upgrades to.\n    Finder public finder;\n\n    // Addresses to upgrade.\n    address public newVoting;\n\n    // Address to call setMigrated on the old voting contract.\n    address public setMigratedAddress;\n\n    /**\n     * @notice Removes an address from the whitelist.\n     * @param _governor the Governor contract address.\n     * @param _existingVoting the current/existing Voting contract address.\n     * @param _newVoting the new Voting deployment address.\n     * @param _finder the Finder contract address.\n     * @param _setMigratedAddress the address to set migrated. This address will be able to continue making calls to\n     *                            old voting contract (used to claim rewards on others' behalf). Note: this address\n     *                            can always be changed by the voters.\n     */\n    constructor(\n        address _governor,\n        address _existingVoting,\n        address _newVoting,\n        address _finder,\n        address _setMigratedAddress\n    ) {\n        governor = _governor;\n        existingVoting = Voting(_existingVoting);\n        newVoting = _newVoting;\n        finder = Finder(_finder);\n        setMigratedAddress = _setMigratedAddress;\n    }\n\n    /**\n     * @notice Performs the atomic portion of the upgrade process.\n     * @dev This method updates the Voting address in the finder, sets the old voting contract to migrated state, and\n     * returns ownership of the existing Voting contract and Finder back to the Governor.\n     */\n    function upgrade() external {\n        require(msg.sender == governor, \"Upgrade can only be initiated by the existing governor.\");\n\n        // Change the addresses in the Finder.\n        finder.changeImplementationAddress(OracleInterfaces.Oracle, newVoting);\n\n        // Set the preset \"migrated\" address to allow this address to claim rewards on voters' behalf.\n        // This also effectively shuts down the existing voting contract so new votes cannot be triggered.\n        existingVoting.setMigrated(setMigratedAddress);\n\n        // Transfer back ownership of old voting contract and the finder to the governor.\n        existingVoting.transferOwnership(governor);\n        finder.transferOwnership(governor);\n    }\n}\n",
  "sourcePath": "/home/circleci/protocol/packages/core/contracts/umips/VotingUpgrader.sol",
  "compiler": {
    "name": "solc",
    "version": "0.8.4+commit.c7e474f2.Emscripten.clang"
  },
  "schemaVersion": "3.3.4",
  "updatedAt": "2021-07-16T20:27:10.322Z",
  "devdoc": {
    "details": "Note: the complete upgrade process requires more than just the transactions in this contract. These are only the ones that need to be performed atomically.",
    "kind": "dev",
    "methods": {
      "constructor": {
        "params": {
          "_existingVoting": "the current/existing Voting contract address.",
          "_finder": "the Finder contract address.",
          "_governor": "the Governor contract address.",
          "_newVoting": "the new Voting deployment address.",
          "_setMigratedAddress": "the address to set migrated. This address will be able to continue making calls to                            old voting contract (used to claim rewards on others' behalf). Note: this address                            can always be changed by the voters."
        }
      },
      "upgrade()": {
        "details": "This method updates the Voting address in the finder, sets the old voting contract to migrated state, and returns ownership of the existing Voting contract and Finder back to the Governor."
      }
    },
    "title": "A contract that executes a short series of upgrade calls that must be performed atomically as a part of the upgrade process for Voting.sol.",
    "version": 1
  },
  "userdoc": {
    "kind": "user",
    "methods": {
      "constructor": {
        "notice": "Removes an address from the whitelist."
      },
      "upgrade()": {
        "notice": "Performs the atomic portion of the upgrade process."
      }
    },
    "version": 1
  }
}