{
  "contractName": "BalancerMock",
  "abi": [
    {
      "inputs": [
        {
          "internalType": "address",
          "name": "tokenIn",
          "type": "address"
        },
        {
          "internalType": "address",
          "name": "tokenOut",
          "type": "address"
        }
      ],
      "name": "getSpotPriceSansFee",
      "outputs": [
        {
          "internalType": "uint256",
          "name": "spotPrice",
          "type": "uint256"
        }
      ],
      "stateMutability": "view",
      "type": "function"
    },
    {
      "inputs": [
        {
          "internalType": "uint256",
          "name": "newPrice",
          "type": "uint256"
        }
      ],
      "name": "setPrice",
      "outputs": [],
      "stateMutability": "nonpayable",
      "type": "function"
    }
  ],
  "bytecode": "0x60806040526000805534801561001457600080fd5b5060d3806100236000396000f3fe6080604052348015600f57600080fd5b506004361060325760003560e01c80631446a7ff14603757806391b7f5ed146074575b600080fd5b606260048036036040811015604b57600080fd5b506001600160a01b03813581169160200135166090565b60408051918252519081900360200190f35b608e60048036036020811015608857600080fd5b50356098565b005b505060005490565b60005556fea26469706673582212203cd138829d3ab60e304439f330d5d82990d457d23b9eed936a16f61744a9ba4d64736f6c634300060c0033",
  "immutableReferences": {},
  "source": "pragma solidity ^0.6.0;\n\nimport \"../interfaces/Balancer.sol\";\n\n\n/**\n * @title Balancer Mock\n */\ncontract BalancerMock is Balancer {\n    uint256 price = 0;\n\n    // these params arent used in the mock, but this is to maintain compatibility with balancer API\n    function getSpotPriceSansFee(address tokenIn, address tokenOut)\n        external\n        virtual\n        override\n        view\n        returns (uint256 spotPrice)\n    {\n        return price;\n    }\n\n    // this is not a balancer call, but for testing for changing price.\n    function setPrice(uint256 newPrice) external {\n        price = newPrice;\n    }\n}\n",
  "sourcePath": "/home/circleci/protocol/packages/core/contracts/common/test/BalancerMock.sol",
  "compiler": {
    "name": "solc",
    "version": "0.6.12+commit.27d51765.Emscripten.clang"
  },
  "schemaVersion": "3.2.3",
  "updatedAt": "2020-10-06T21:03:39.002Z",
  "devdoc": {
    "kind": "dev",
    "methods": {},
    "title": "Balancer Mock",
    "version": 1
  },
  "userdoc": {
    "kind": "user",
    "methods": {},
    "version": 1
  }
}