{
  "contractName": "DesignatedVotingFactory",
  "abi": [
    {
      "inputs": [
        {
          "internalType": "address",
          "name": "finderAddress",
          "type": "address"
        }
      ],
      "stateMutability": "nonpayable",
      "type": "constructor"
    },
    {
      "anonymous": false,
      "inputs": [
        {
          "indexed": true,
          "internalType": "uint256",
          "name": "roleId",
          "type": "uint256"
        },
        {
          "indexed": true,
          "internalType": "address",
          "name": "newMember",
          "type": "address"
        },
        {
          "indexed": true,
          "internalType": "address",
          "name": "manager",
          "type": "address"
        }
      ],
      "name": "AddedSharedMember",
      "type": "event"
    },
    {
      "anonymous": false,
      "inputs": [
        {
          "indexed": true,
          "internalType": "uint256",
          "name": "roleId",
          "type": "uint256"
        },
        {
          "indexed": true,
          "internalType": "address",
          "name": "oldMember",
          "type": "address"
        },
        {
          "indexed": true,
          "internalType": "address",
          "name": "manager",
          "type": "address"
        }
      ],
      "name": "RemovedSharedMember",
      "type": "event"
    },
    {
      "anonymous": false,
      "inputs": [
        {
          "indexed": true,
          "internalType": "uint256",
          "name": "roleId",
          "type": "uint256"
        },
        {
          "indexed": true,
          "internalType": "address",
          "name": "newMember",
          "type": "address"
        },
        {
          "indexed": true,
          "internalType": "address",
          "name": "manager",
          "type": "address"
        }
      ],
      "name": "ResetExclusiveMember",
      "type": "event"
    },
    {
      "inputs": [
        {
          "internalType": "uint256",
          "name": "roleId",
          "type": "uint256"
        },
        {
          "internalType": "address",
          "name": "newMember",
          "type": "address"
        }
      ],
      "name": "addMember",
      "outputs": [],
      "stateMutability": "nonpayable",
      "type": "function"
    },
    {
      "inputs": [
        {
          "internalType": "address",
          "name": "",
          "type": "address"
        }
      ],
      "name": "designatedVotingContracts",
      "outputs": [
        {
          "internalType": "contract DesignatedVoting",
          "name": "",
          "type": "address"
        }
      ],
      "stateMutability": "view",
      "type": "function"
    },
    {
      "inputs": [
        {
          "internalType": "uint256",
          "name": "roleId",
          "type": "uint256"
        }
      ],
      "name": "getMember",
      "outputs": [
        {
          "internalType": "address",
          "name": "",
          "type": "address"
        }
      ],
      "stateMutability": "view",
      "type": "function"
    },
    {
      "inputs": [
        {
          "internalType": "uint256",
          "name": "roleId",
          "type": "uint256"
        },
        {
          "internalType": "address",
          "name": "memberToCheck",
          "type": "address"
        }
      ],
      "name": "holdsRole",
      "outputs": [
        {
          "internalType": "bool",
          "name": "",
          "type": "bool"
        }
      ],
      "stateMutability": "view",
      "type": "function"
    },
    {
      "inputs": [
        {
          "internalType": "uint256",
          "name": "roleId",
          "type": "uint256"
        },
        {
          "internalType": "address",
          "name": "memberToRemove",
          "type": "address"
        }
      ],
      "name": "removeMember",
      "outputs": [],
      "stateMutability": "nonpayable",
      "type": "function"
    },
    {
      "inputs": [
        {
          "internalType": "uint256",
          "name": "roleId",
          "type": "uint256"
        }
      ],
      "name": "renounceMembership",
      "outputs": [],
      "stateMutability": "nonpayable",
      "type": "function"
    },
    {
      "inputs": [
        {
          "internalType": "uint256",
          "name": "roleId",
          "type": "uint256"
        },
        {
          "internalType": "address",
          "name": "newMember",
          "type": "address"
        }
      ],
      "name": "resetMember",
      "outputs": [],
      "stateMutability": "nonpayable",
      "type": "function"
    },
    {
      "inputs": [
        {
          "internalType": "uint256",
          "name": "amount",
          "type": "uint256"
        }
      ],
      "name": "withdraw",
      "outputs": [],
      "stateMutability": "nonpayable",
      "type": "function"
    },
    {
      "inputs": [
        {
          "internalType": "address",
          "name": "erc20Address",
          "type": "address"
        },
        {
          "internalType": "uint256",
          "name": "amount",
          "type": "uint256"
        }
      ],
      "name": "withdrawErc20",
      "outputs": [],
      "stateMutability": "nonpayable",
      "type": "function"
    },
    {
      "inputs": [
        {
          "internalType": "address",
          "name": "ownerAddress",
          "type": "address"
        }
      ],
      "name": "newDesignatedVoting",
      "outputs": [
        {
          "internalType": "contract DesignatedVoting",
          "name": "",
          "type": "address"
        }
      ],
      "stateMutability": "nonpayable",
      "type": "function"
    },
    {
      "inputs": [
        {
          "internalType": "address",
          "name": "designatedVotingAddress",
          "type": "address"
        }
      ],
      "name": "setDesignatedVoting",
      "outputs": [],
      "stateMutability": "nonpayable",
      "type": "function"
    }
  ],
  "bytecode": "0x60806040523480156200001157600080fd5b5060405162002c5f38038062002c5f8339810160408190526200003491620001a4565b600280546001600160a01b0319166001600160a01b0383161790556200005d6000803362000064565b50620002ab565b6001839055620000768383836200007b565b505050565b826000808281526020819052604090206001015460ff1660028111156200009e57fe5b14620000c75760405162461bcd60e51b8152600401620000be9062000231565b60405180910390fd5b60008481526020819052604090206001808201805460ff1916828002179055508381556200010560028201846200014e602090811b620007f717901c565b60008481526020819052604081206001015460ff1660028111156200012657fe5b1415620001475760405162461bcd60e51b8152600401620000be90620001d4565b5050505050565b6200015a82826200015e565b5050565b6001600160a01b038116620001875760405162461bcd60e51b8152600401620000be9062000268565b81546001600160a01b0319166001600160a01b0391909116179055565b600060208284031215620001b6578081fd5b81516001600160a01b0381168114620001cd578182fd5b9392505050565b6020808252603c908201527f417474656d7074656420746f2075736520616e20696e76616c696420726f6c6560408201527f20746f206d616e61676520616e206578636c757369766520726f6c6500000000606082015260800190565b6020808252601e908201527f43616e6e6f74207573652061207072652d6578697374696e6720726f6c650000604082015260600190565b60208082526023908201527f43616e6e6f742073657420616e206578636c757369766520726f6c6520746f2060408201526203078360ec1b606082015260800190565b6129a480620002bb6000396000f3fe60806040523480156200001157600080fd5b5060043610620000b85760003560e01c80637cbf876b116200007b5780637cbf876b146200014a5780637cdc1cb91462000161578063aaa14ca31462000187578063ab3545e5146200019e578063bd1f4b5214620001b5578063d97c05be14620001cc57620000b8565b80632e1a7d4d14620000bd57806349ed510f14620000d65780635e07dd5b14620001055780636be7658b146200011c57806374d0a6761462000133575b600080fd5b620000d4620000ce36600462000bc4565b620001e3565b005b620000ed620000e736600462000b57565b6200022a565b604051620000fc919062000c4b565b60405180910390f35b620000ed6200011636600462000b57565b62000245565b620000d46200012d36600462000bdd565b620002fb565b620000d46200014436600462000bdd565b620003d6565b620000d46200015b36600462000b57565b620004b1565b620001786200017236600462000bdd565b62000519565b604051620000fc919062000c9b565b620000d46200019836600462000bc4565b620005a7565b620000ed620001af36600462000bc4565b62000668565b620000d4620001c636600462000b75565b620006d1565b620000d4620001dd36600462000bdd565b6200071c565b600154620001f2813362000519565b6200021a5760405162461bcd60e51b8152600401620002119062000e41565b60405180910390fd5b62000226338362000803565b5050565b6003602052600090815260409020546001600160a01b031681565b336000908152600360205260408120546001600160a01b0316156200027e5760405162461bcd60e51b8152600401620002119062000f7c565b6002546040516000916001600160a01b03169084903390620002a09062000b31565b620002ae9392919062000c5f565b604051809103906000f080158015620002cb573d6000803e3d6000fd5b5033600090815260036020526040902080546001600160a01b0319166001600160a01b0383161790559392505050565b81600260008281526020819052604090206001015460ff1660028111156200031f57fe5b146200033f5760405162461bcd60e51b8152600401620002119062000df5565b60008381526020819052604090205483906200035c903362000519565b6200037b5760405162461bcd60e51b8152600401620002119062000ec6565b6000848152602081905260409020620003989060030184620008ae565b60405133906001600160a01b0385169086907feb3e33034c392e69263b04ec0fa376dc12784a41b6676c7f31b936cbc0fbb5af90600090a450505050565b81600260008281526020819052604090206001015460ff166002811115620003fa57fe5b146200041a5760405162461bcd60e51b8152600401620002119062000df5565b600083815260208190526040902054839062000437903362000519565b620004565760405162461bcd60e51b8152600401620002119062000ec6565b6000848152602081905260409020620004739060030184620008d0565b60405133906001600160a01b0385169086907f63502af7324ff6db91ab38f8236a648727d9385ea6c782073dd4882d8a61a48f90600090a450505050565b336000908152600360205260409020546001600160a01b031615620004ea5760405162461bcd60e51b8152600401620002119062000f7c565b33600090815260036020526040902080546001600160a01b0319166001600160a01b0392909216919091179055565b600082815260208190526040812060018082015460ff1660028111156200053c57fe5b14156200055b576200055260028201846200091e565b915050620005a1565b6002600182015460ff1660028111156200057157fe5b1415620005875762000552600382018462000931565b60405162461bcd60e51b8152600401620002119062000f0a565b92915050565b80600260008281526020819052604090206001015460ff166002811115620005cb57fe5b14620005eb5760405162461bcd60e51b8152600401620002119062000df5565b81620005f8813362000519565b620006175760405162461bcd60e51b8152600401620002119062000e41565b6000838152602081905260409020620006349060030133620008ae565b6040513390819085907feb3e33034c392e69263b04ec0fa376dc12784a41b6676c7f31b936cbc0fbb5af90600090a4505050565b600081600160008281526020819052604090206001015460ff1660028111156200068e57fe5b14620006ae5760405162461bcd60e51b8152600401620002119062000cdd565b6000838152602081905260409020620006ca9060020162000950565b9392505050565b600154620006e0813362000519565b620006ff5760405162461bcd60e51b8152600401620002119062000e41565b82620007166001600160a01b03821633856200095d565b50505050565b81600160008281526020819052604090206001015460ff1660028111156200074057fe5b14620007605760405162461bcd60e51b8152600401620002119062000cdd565b60008381526020819052604090205483906200077d903362000519565b6200079c5760405162461bcd60e51b8152600401620002119062000ec6565b6000848152602081905260409020620007b99060020184620009b7565b60405133906001600160a01b0385169086907f3b855c56b409b671c7112789d022675eb639d0bcb8896f1b6197c132f799e74690600090a450505050565b620002268282620009b7565b80471015620008265760405162461bcd60e51b8152600401620002119062000dbe565b6000826001600160a01b031682604051620008419062000c48565b60006040518083038185875af1925050503d806000811462000880576040519150601f19603f3d011682016040523d82523d6000602084013e62000885565b606091505b5050905080620008a95760405162461bcd60e51b8152600401620002119062000d61565b505050565b6001600160a01b0316600090815260209190915260409020805460ff19169055565b6001600160a01b038116620008f95760405162461bcd60e51b8152600401620002119062000ca6565b6001600160a01b0316600090815260209190915260409020805460ff19166001179055565b90546001600160a01b0391821691161490565b6001600160a01b03166000908152602091909152604090205460ff1690565b546001600160a01b031690565b620008a98363a9059cbb60e01b84846040516024016200097f92919062000c82565b60408051601f198184030181529190526020810180516001600160e01b03166001600160e01b031990931692909217909152620009fd565b6001600160a01b038116620009e05760405162461bcd60e51b8152600401620002119062000e83565b81546001600160a01b0319166001600160a01b0391909116179055565b62000a11826001600160a01b031662000af4565b62000a305760405162461bcd60e51b8152600401620002119062000fb3565b60006060836001600160a01b03168360405162000a4e919062000c0c565b6000604051808303816000865af19150503d806000811462000a8d576040519150601f19603f3d011682016040523d82523d6000602084013e62000a92565b606091505b50915091508162000ab75760405162461bcd60e51b8152600401620002119062000d2c565b80511562000716578080602001905181019062000ad5919062000ba2565b620007165760405162461bcd60e51b8152600401620002119062000f32565b6000813f7fc5d2460186f7233c927e7db2dcc703c0e500b653ca82273b7bfad8045d85a47081811480159062000b2957508115155b949350505050565b6119848062000feb83390190565b80356001600160a01b0381168114620005a157600080fd5b60006020828403121562000b69578081fd5b620006ca838362000b3f565b6000806040838503121562000b88578081fd5b62000b94848462000b3f565b946020939093013593505050565b60006020828403121562000bb4578081fd5b81518015158114620006ca578182fd5b60006020828403121562000bd6578081fd5b5035919050565b6000806040838503121562000bf0578182fd5b8235915062000c03846020850162000b3f565b90509250929050565b60008251815b8181101562000c2e576020818601810151858301520162000c12565b8181111562000c3d5782828501525b509190910192915050565b90565b6001600160a01b0391909116815260200190565b6001600160a01b0393841681529183166020830152909116604082015260600190565b6001600160a01b03929092168252602082015260400190565b901515815260200190565b6020808252601f908201527f43616e6e6f74206164642030783020746f20612073686172656420726f6c6500604082015260600190565b6020808252602f908201527f4d7573742062652063616c6c6564206f6e20616e20696e697469616c697a656460408201526e204578636c757369766520726f6c6560881b606082015260800190565b6020808252818101527f5361666545524332303a206c6f772d6c6576656c2063616c6c206661696c6564604082015260600190565b6020808252603a908201527f416464726573733a20756e61626c6520746f2073656e642076616c75652c207260408201527f6563697069656e74206d61792068617665207265766572746564000000000000606082015260800190565b6020808252601d908201527f416464726573733a20696e73756666696369656e742062616c616e6365000000604082015260600190565b6020808252602c908201527f4d7573742062652063616c6c6564206f6e20616e20696e697469616c697a656460408201526b2053686172656420726f6c6560a01b606082015260800190565b60208082526022908201527f53656e64657220646f6573206e6f7420686f6c6420726571756972656420726f6040820152616c6560f01b606082015260800190565b60208082526023908201527f43616e6e6f742073657420616e206578636c757369766520726f6c6520746f2060408201526203078360ec1b606082015260800190565b60208082526024908201527f43616e206f6e6c792062652063616c6c6564206279206120726f6c65206d616e60408201526330b3b2b960e11b606082015260800190565b6020808252600e908201526d125b9d985b1a59081c9bdb19525960921b604082015260600190565b6020808252602a908201527f5361666545524332303a204552433230206f7065726174696f6e20646964206e6040820152691bdd081cdd58d8d9595960b21b606082015260800190565b6020808252601f908201527f4475706c696361746520686f74206b6579206e6f74207065726d697474656400604082015260600190565b6020808252601f908201527f5361666545524332303a2063616c6c20746f206e6f6e2d636f6e74726163740060408201526060019056fe60806040523480156200001157600080fd5b5060405162001984380380620019848339810160408190526200003491620001f8565b620000426000808462000085565b62000051600160008362000085565b6200005d600062000158565b5050600280546001600160a01b0319166001600160a01b03929092169190911790556200035b565b826000808281526020819052604090206001015460ff166002811115620000a857fe5b14620000d15760405162461bcd60e51b8152600401620000c890620002c8565b60405180910390fd5b60008481526020819052604090206001808201805460ff1916828002179055508381556200010f6002820184620001a2602090811b6200097017901c565b60008481526020819052604081206001015460ff1660028111156200013057fe5b1415620001515760405162461bcd60e51b8152600401620000c8906200027c565b5050505050565b806000808281526020819052604090206001015460ff1660028111156200017b57fe5b14156200019c5760405162461bcd60e51b8152600401620000c8906200024b565b50600155565b620001ae8282620001b2565b5050565b6001600160a01b038116620001db5760405162461bcd60e51b8152600401620000c890620002ff565b81546001600160a01b0319166001600160a01b0391909116179055565b6000806000606084860312156200020d578283fd5b83516200021a8162000342565b60208501519093506200022d8162000342565b6040850151909250620002408162000342565b809150509250925092565b602080825260229082015260008051602062001964833981519152604082015261125960f21b606082015260800190565b6020808252603c908201526000805160206200196483398151915260408201527f20746f206d616e61676520616e206578636c757369766520726f6c6500000000606082015260800190565b6020808252601e908201527f43616e6e6f74207573652061207072652d6578697374696e6720726f6c650000604082015260600190565b60208082526023908201527f43616e6e6f742073657420616e206578636c757369766520726f6c6520746f2060408201526203078360ec1b606082015260800190565b6001600160a01b03811681146200035857600080fd5b50565b6115f9806200036b6000396000f3fe608060405234801561001057600080fd5b50600436106100cf5760003560e01c806374d0a6761161008c578063ab3545e511610066578063ab3545e5146101a4578063bd1f4b52146101c4578063d8651ad0146101d7578063d97c05be146101ea576100cf565b806374d0a6761461015e5780637cdc1cb914610171578063aaa14ca314610191576100cf565b80632e1a7d4d146100d45780633756a796146100e95780634c7a2603146101125780636852eea0146101255780636be7658b1461013857806370a0cf2c1461014b575b600080fd5b6100e76100e2366004610f06565b6101fd565b005b6100fc6100f7366004610f4d565b61023d565b604051610109919061155a565b60405180910390f35b6100e7610120366004610eb0565b6102fe565b6100e7610133366004610e07565b610398565b6100e7610146366004610f1e565b61042c565b6100e7610159366004610d98565b6104fc565b6100e761016c366004610f1e565b610559565b61018461017f366004610f1e565b610629565b6040516101099190611208565b6100e761019f366004610f06565b6106ac565b6101b76101b2366004610f06565b610762565b6040516101099190611034565b6100e76101d2366004610d6d565b6107c5565b6100e76101e5366004610e85565b610809565b6100e76101f8366004610f1e565b6108a0565b60015461020a8133610629565b61022f5760405162461bcd60e51b8152600401610226906113e8565b60405180910390fd5b610239338361097a565b5050565b610245610d0d565b60016102518133610629565b61026d5760405162461bcd60e51b8152600401610226906113e8565b610275610a1b565b6001600160a01b0316630d434e7e3086866040518463ffffffff1660e01b81526004016102a493929190611061565b602060405180830381600087803b1580156102be57600080fd5b505af11580156102d2573d6000803e3d6000fd5b505050506040513d601f19601f820116820180604052508101906102f69190610ee1565b949350505050565b600161030a8133610629565b6103265760405162461bcd60e51b8152600401610226906113e8565b61032e610a1b565b6001600160a01b0316634c7a2603868686866040518563ffffffff1660e01b815260040161035f9493929190611232565b600060405180830381600087803b15801561037957600080fd5b505af115801561038d573d6000803e3d6000fd5b505050505050505050565b60016103a48133610629565b6103c05760405162461bcd60e51b8152600401610226906113e8565b6103c8610a1b565b6001600160a01b0316636852eea084846040518363ffffffff1660e01b81526004016103f59291906111ad565b600060405180830381600087803b15801561040f57600080fd5b505af1158015610423573d6000803e3d6000fd5b50505050505050565b81600260008281526020819052604090206001015460ff16600281111561044f57fe5b1461046c5760405162461bcd60e51b81526004016102269061139c565b60008381526020819052604090205483906104879033610629565b6104a35760405162461bcd60e51b81526004016102269061146d565b60008481526020819052604090206104be9060030184610aaa565b60405133906001600160a01b0385169086907feb3e33034c392e69263b04ec0fa376dc12784a41b6676c7f31b936cbc0fbb5af90600090a450505050565b60016105088133610629565b6105245760405162461bcd60e51b8152600401610226906113e8565b61052c610a1b565b6001600160a01b03166370a0cf2c84846040518363ffffffff1660e01b81526004016103f59291906110c8565b81600260008281526020819052604090206001015460ff16600281111561057c57fe5b146105995760405162461bcd60e51b81526004016102269061139c565b60008381526020819052604090205483906105b49033610629565b6105d05760405162461bcd60e51b81526004016102269061146d565b60008481526020819052604090206105eb9060030184610acc565b60405133906001600160a01b0385169086907f63502af7324ff6db91ab38f8236a648727d9385ea6c782073dd4882d8a61a48f90600090a450505050565b600082815260208190526040812060018082015460ff16600281111561064b57fe5b14156106665761065e6002820184610b17565b9150506106a6565b6002600182015460ff16600281111561067b57fe5b141561068e5761065e6003820184610b2a565b60405162461bcd60e51b8152600401610226906114b1565b92915050565b80600260008281526020819052604090206001015460ff1660028111156106cf57fe5b146106ec5760405162461bcd60e51b81526004016102269061139c565b816106f78133610629565b6107135760405162461bcd60e51b8152600401610226906113e8565b600083815260208190526040902061072e9060030133610aaa565b6040513390819085907feb3e33034c392e69263b04ec0fa376dc12784a41b6676c7f31b936cbc0fbb5af90600090a4505050565b600081600160008281526020819052604090206001015460ff16600281111561078757fe5b146107a45760405162461bcd60e51b815260040161022690611284565b60008381526020819052604090206107be90600201610b49565b9392505050565b6001546107d28133610629565b6107ee5760405162461bcd60e51b8152600401610226906113e8565b826108036001600160a01b0382163385610b56565b50505050565b60016108158133610629565b6108315760405162461bcd60e51b8152600401610226906113e8565b610839610a1b565b6001600160a01b031663d8651ad08585856040518463ffffffff1660e01b81526004016108689392919061121c565b600060405180830381600087803b15801561088257600080fd5b505af1158015610896573d6000803e3d6000fd5b5050505050505050565b81600160008281526020819052604090206001015460ff1660028111156108c357fe5b146108e05760405162461bcd60e51b815260040161022690611284565b60008381526020819052604090205483906108fb9033610629565b6109175760405162461bcd60e51b81526004016102269061146d565b60008481526020819052604090206109329060020184610bac565b60405133906001600160a01b0385169086907f3b855c56b409b671c7112789d022675eb639d0bcb8896f1b6197c132f799e74690600090a450505050565b6102398282610bac565b8047101561099a5760405162461bcd60e51b815260040161022690611365565b6000826001600160a01b0316826040516109b390611031565b60006040518083038185875af1925050503d80600081146109f0576040519150601f19603f3d011682016040523d82523d6000602084013e6109f5565b606091505b5050905080610a165760405162461bcd60e51b815260040161022690611308565b505050565b6002546040516302abf57960e61b81526000916001600160a01b03169063aafd5e4090610a5590654f7261636c6560d01b90600401611213565b60206040518083038186803b158015610a6d57600080fd5b505afa158015610a81573d6000803e3d6000fd5b505050506040513d601f19601f82011682018060405250810190610aa59190610d51565b905090565b6001600160a01b0316600090815260209190915260409020805460ff19169055565b6001600160a01b038116610af25760405162461bcd60e51b81526004016102269061124d565b6001600160a01b0316600090815260209190915260409020805460ff19166001179055565b90546001600160a01b0391821691161490565b6001600160a01b03166000908152602091909152604090205460ff1690565b546001600160a01b031690565b610a168363a9059cbb60e01b8484604051602401610b75929190611048565b60408051601f198184030181529190526020810180516001600160e01b03166001600160e01b031990931692909217909152610bef565b6001600160a01b038116610bd25760405162461bcd60e51b81526004016102269061142a565b81546001600160a01b0319166001600160a01b0391909116179055565b610c01826001600160a01b0316610cd4565b610c1d5760405162461bcd60e51b815260040161022690611523565b60006060836001600160a01b031683604051610c399190610ff8565b6000604051808303816000865af19150503d8060008114610c76576040519150601f19603f3d011682016040523d82523d6000602084013e610c7b565b606091505b509150915081610c9d5760405162461bcd60e51b8152600401610226906112d3565b8051156108035780806020019051810190610cb89190610e65565b6108035760405162461bcd60e51b8152600401610226906114d9565b6000813f7fc5d2460186f7233c927e7db2dcc703c0e500b653ca82273b7bfad8045d85a4708181148015906102f6575050151592915050565b6040518060200160405280600081525090565b600060408284031215610d31578081fd5b610d3b6040611564565b9050813581526020820135602082015292915050565b600060208284031215610d62578081fd5b81516107be816115ab565b60008060408385031215610d7f578081fd5b8235610d8a816115ab565b946020939093013593505050565b60008060208385031215610daa578182fd5b823567ffffffffffffffff80821115610dc1578384fd5b818501915085601f830112610dd4578384fd5b813581811115610de2578485fd5b8660208083028501011115610df5578485fd5b60209290920196919550909350505050565b60008060208385031215610e19578182fd5b823567ffffffffffffffff80821115610e30578384fd5b818501915085601f830112610e43578384fd5b813581811115610e51578485fd5b866020608083028501011115610df5578485fd5b600060208284031215610e76578081fd5b815180151581146107be578182fd5b600080600060608486031215610e99578081fd5b505081359360208301359350604090920135919050565b60008060008060808587031215610ec5578081fd5b5050823594602084013594506040840135936060013592509050565b600060208284031215610ef2578081fd5b610efc6020611564565b9151825250919050565b600060208284031215610f17578081fd5b5035919050565b60008060408385031215610f30578182fd5b823591506020830135610f42816115ab565b809150509250929050565b6000806040808486031215610f60578283fd5b8335925060208085013567ffffffffffffffff811115610f7e578384fd5b8501601f81018713610f8e578384fd5b8035610fa1610f9c8261158b565b611564565b81815283810190838501868402850186018b1015610fbd578788fd5b8794505b83851015610fe757610fd38b82610d20565b835260019490940193918501918601610fc1565b508096505050505050509250929050565b60008251815b818110156110185760208186018101518583015201610ffe565b818111156110265782828501525b509190910192915050565b90565b6001600160a01b0391909116815260200190565b6001600160a01b03929092168252602082015260400190565b60006060820160018060a01b03861683526020858185015260406060818601528286518085526080870191508388019450855b818110156110b957855180518452850151858401529484019491830191600101611094565b50909998505050505050505050565b602080825281810183905260009060408084018583028501820187855b8881101561119f57878303603f190184528135368b9003607e1901811261110a578788fd5b8a018035845286810135878501528581013586850152608060608083013536849003601e1901811261113a578a8bfd5b8301803567ffffffffffffffff811115611152578b8cfd5b803603851315611160578b8cfd5b8383890152808489015260a09450808b8301868a013787810185018c9052978a0197601f01601f191690960190920194505050908501906001016110e5565b509098975050505050505050565b6020808252818101839052600090604080840186845b878110156111fb57813583528482013585840152838201358484015260608083013590840152608092830192909101906001016111c3565b5090979650505050505050565b901515815260200190565b90815260200190565b9283526020830191909152604082015260600190565b93845260208401929092526040830152606082015260800190565b6020808252601f908201527f43616e6e6f74206164642030783020746f20612073686172656420726f6c6500604082015260600190565b6020808252602f908201527f4d7573742062652063616c6c6564206f6e20616e20696e697469616c697a656460408201526e204578636c757369766520726f6c6560881b606082015260800190565b6020808252818101527f5361666545524332303a206c6f772d6c6576656c2063616c6c206661696c6564604082015260600190565b6020808252603a908201527f416464726573733a20756e61626c6520746f2073656e642076616c75652c207260408201527f6563697069656e74206d61792068617665207265766572746564000000000000606082015260800190565b6020808252601d908201527f416464726573733a20696e73756666696369656e742062616c616e6365000000604082015260600190565b6020808252602c908201527f4d7573742062652063616c6c6564206f6e20616e20696e697469616c697a656460408201526b2053686172656420726f6c6560a01b606082015260800190565b60208082526022908201527f53656e64657220646f6573206e6f7420686f6c6420726571756972656420726f6040820152616c6560f01b606082015260800190565b60208082526023908201527f43616e6e6f742073657420616e206578636c757369766520726f6c6520746f2060408201526203078360ec1b606082015260800190565b60208082526024908201527f43616e206f6e6c792062652063616c6c6564206279206120726f6c65206d616e60408201526330b3b2b960e11b606082015260800190565b6020808252600e908201526d125b9d985b1a59081c9bdb19525960921b604082015260600190565b6020808252602a908201527f5361666545524332303a204552433230206f7065726174696f6e20646964206e6040820152691bdd081cdd58d8d9595960b21b606082015260800190565b6020808252601f908201527f5361666545524332303a2063616c6c20746f206e6f6e2d636f6e747261637400604082015260600190565b9051815260200190565b60405181810167ffffffffffffffff8111828210171561158357600080fd5b604052919050565b600067ffffffffffffffff8211156115a1578081fd5b5060209081020190565b6001600160a01b03811681146115c057600080fd5b5056fea26469706673582212203d45ad6c710aebde30bbc61f482e5f7f3f6daa8a1bb90f6f988b2ea2e2db3ced64736f6c634300060c0033417474656d7074656420746f2075736520616e20696e76616c696420726f6c65a2646970667358221220cb2fc8d9b35da4faf04f29b38933d68ce94b79162f9220ed50f0da9db0dd01d464736f6c634300060c0033",
  "immutableReferences": {},
  "source": "pragma solidity ^0.6.0;\npragma experimental ABIEncoderV2;\n\nimport \"../../common/implementation/Withdrawable.sol\";\nimport \"./DesignatedVoting.sol\";\n\n\n/**\n * @title Factory to deploy new instances of DesignatedVoting and look up previously deployed instances.\n * @dev Allows off-chain infrastructure to look up a hot wallet's deployed DesignatedVoting contract.\n */\ncontract DesignatedVotingFactory is Withdrawable {\n    /****************************************\n     *    INTERNAL VARIABLES AND STORAGE    *\n     ****************************************/\n\n    enum Roles {\n        Withdrawer // Can withdraw any ETH or ERC20 sent accidentally to this contract.\n    }\n\n    address private finder;\n    mapping(address => DesignatedVoting) public designatedVotingContracts;\n\n    /**\n     * @notice Construct the DesignatedVotingFactory contract.\n     * @param finderAddress keeps track of all contracts within the system based on their interfaceName.\n     */\n    constructor(address finderAddress) public {\n        finder = finderAddress;\n\n        _createWithdrawRole(uint256(Roles.Withdrawer), uint256(Roles.Withdrawer), msg.sender);\n    }\n\n    /**\n     * @notice Deploys a new `DesignatedVoting` contract.\n     * @param ownerAddress defines who will own the deployed instance of the designatedVoting contract.\n     * @return designatedVoting a new DesignatedVoting contract.\n     */\n    function newDesignatedVoting(address ownerAddress) external returns (DesignatedVoting) {\n        require(address(designatedVotingContracts[msg.sender]) == address(0), \"Duplicate hot key not permitted\");\n\n        DesignatedVoting designatedVoting = new DesignatedVoting(finder, ownerAddress, msg.sender);\n        designatedVotingContracts[msg.sender] = designatedVoting;\n        return designatedVoting;\n    }\n\n    /**\n     * @notice Associates a `DesignatedVoting` instance with `msg.sender`.\n     * @param designatedVotingAddress address to designate voting to.\n     * @dev This is generally only used if the owner of a `DesignatedVoting` contract changes their `voter`\n     * address and wants that reflected here.\n     */\n    function setDesignatedVoting(address designatedVotingAddress) external {\n        require(address(designatedVotingContracts[msg.sender]) == address(0), \"Duplicate hot key not permitted\");\n        designatedVotingContracts[msg.sender] = DesignatedVoting(designatedVotingAddress);\n    }\n}\n",
  "sourcePath": "/home/circleci/protocol/packages/core/contracts/oracle/implementation/DesignatedVotingFactory.sol",
  "compiler": {
    "name": "solc",
    "version": "0.6.12+commit.27d51765.Emscripten.clang"
  },
  "schemaVersion": "3.2.3",
  "updatedAt": "2020-10-06T21:03:39.104Z",
  "devdoc": {
    "details": "Allows off-chain infrastructure to look up a hot wallet's deployed DesignatedVoting contract.",
    "kind": "dev",
    "methods": {
      "addMember(uint256,address)": {
        "details": "Reverts if `roleId` does not represent an initialized, SharedRole or if the caller is not a member of the managing role for `roleId`.",
        "params": {
          "newMember": "the new SharedRole member.",
          "roleId": "the SharedRole membership to modify."
        }
      },
      "constructor": {
        "params": {
          "finderAddress": "keeps track of all contracts within the system based on their interfaceName."
        }
      },
      "getMember(uint256)": {
        "details": "Reverts if `roleId` does not represent an initialized, exclusive role.",
        "params": {
          "roleId": "the ExclusiveRole membership to check."
        },
        "returns": {
          "_0": "the address of the current ExclusiveRole member."
        }
      },
      "holdsRole(uint256,address)": {
        "details": "Reverts if roleId does not correspond to an initialized role.",
        "params": {
          "memberToCheck": "the address to check.",
          "roleId": "the Role to check."
        },
        "returns": {
          "_0": "True if `memberToCheck` is a member of `roleId`."
        }
      },
      "newDesignatedVoting(address)": {
        "params": {
          "ownerAddress": "defines who will own the deployed instance of the designatedVoting contract."
        },
        "returns": {
          "_0": "designatedVoting a new DesignatedVoting contract."
        }
      },
      "removeMember(uint256,address)": {
        "details": "Reverts if `roleId` does not represent an initialized, SharedRole or if the caller is not a member of the managing role for `roleId`.",
        "params": {
          "memberToRemove": "the current SharedRole member to remove.",
          "roleId": "the SharedRole membership to modify."
        }
      },
      "renounceMembership(uint256)": {
        "details": "Reverts if the caller is not a member of the role for `roleId` or if `roleId` is not an initialized, SharedRole.",
        "params": {
          "roleId": "the SharedRole membership to modify."
        }
      },
      "resetMember(uint256,address)": {
        "details": "Reverts if the caller is not a member of the managing role for `roleId` or if `roleId` is not an initialized, ExclusiveRole.",
        "params": {
          "newMember": "the new ExclusiveRole member.",
          "roleId": "the ExclusiveRole membership to modify."
        }
      },
      "setDesignatedVoting(address)": {
        "details": "This is generally only used if the owner of a `DesignatedVoting` contract changes their `voter` address and wants that reflected here.",
        "params": {
          "designatedVotingAddress": "address to designate voting to."
        }
      },
      "withdrawErc20(address,uint256)": {
        "params": {
          "amount": "amount of tokens to withdraw.",
          "erc20Address": "ERC20 token to withdraw."
        }
      }
    },
    "title": "Factory to deploy new instances of DesignatedVoting and look up previously deployed instances.",
    "version": 1
  },
  "userdoc": {
    "kind": "user",
    "methods": {
      "addMember(uint256,address)": {
        "notice": "Adds `newMember` to the shared role, `roleId`."
      },
      "constructor": "Construct the DesignatedVotingFactory contract.",
      "getMember(uint256)": {
        "notice": "Gets the current holder of the exclusive role, `roleId`."
      },
      "holdsRole(uint256,address)": {
        "notice": "Whether `memberToCheck` is a member of roleId."
      },
      "newDesignatedVoting(address)": {
        "notice": "Deploys a new `DesignatedVoting` contract."
      },
      "removeMember(uint256,address)": {
        "notice": "Removes `memberToRemove` from the shared role, `roleId`."
      },
      "renounceMembership(uint256)": {
        "notice": "Removes caller from the role, `roleId`."
      },
      "resetMember(uint256,address)": {
        "notice": "Changes the exclusive role holder of `roleId` to `newMember`."
      },
      "setDesignatedVoting(address)": {
        "notice": "Associates a `DesignatedVoting` instance with `msg.sender`."
      },
      "withdraw(uint256)": {
        "notice": "Withdraws ETH from the contract."
      },
      "withdrawErc20(address,uint256)": {
        "notice": "Withdraws ERC20 tokens from the contract."
      }
    },
    "version": 1
  }
}