{
  "contractName": "ExpiringMultiParty",
  "abi": [
    {
      "inputs": [
        {
          "components": [
            {
              "internalType": "uint256",
              "name": "expirationTimestamp",
              "type": "uint256"
            },
            {
              "internalType": "uint256",
              "name": "withdrawalLiveness",
              "type": "uint256"
            },
            {
              "internalType": "address",
              "name": "collateralAddress",
              "type": "address"
            },
            {
              "internalType": "address",
              "name": "finderAddress",
              "type": "address"
            },
            {
              "internalType": "address",
              "name": "tokenFactoryAddress",
              "type": "address"
            },
            {
              "internalType": "address",
              "name": "timerAddress",
              "type": "address"
            },
            {
              "internalType": "address",
              "name": "excessTokenBeneficiary",
              "type": "address"
            },
            {
              "internalType": "bytes32",
              "name": "priceFeedIdentifier",
              "type": "bytes32"
            },
            {
              "internalType": "string",
              "name": "syntheticName",
              "type": "string"
            },
            {
              "internalType": "string",
              "name": "syntheticSymbol",
              "type": "string"
            },
            {
              "components": [
                {
                  "internalType": "uint256",
                  "name": "rawValue",
                  "type": "uint256"
                }
              ],
              "internalType": "struct FixedPoint.Unsigned",
              "name": "minSponsorTokens",
              "type": "tuple"
            },
            {
              "internalType": "uint256",
              "name": "liquidationLiveness",
              "type": "uint256"
            },
            {
              "components": [
                {
                  "internalType": "uint256",
                  "name": "rawValue",
                  "type": "uint256"
                }
              ],
              "internalType": "struct FixedPoint.Unsigned",
              "name": "collateralRequirement",
              "type": "tuple"
            },
            {
              "components": [
                {
                  "internalType": "uint256",
                  "name": "rawValue",
                  "type": "uint256"
                }
              ],
              "internalType": "struct FixedPoint.Unsigned",
              "name": "disputeBondPct",
              "type": "tuple"
            },
            {
              "components": [
                {
                  "internalType": "uint256",
                  "name": "rawValue",
                  "type": "uint256"
                }
              ],
              "internalType": "struct FixedPoint.Unsigned",
              "name": "sponsorDisputeRewardPct",
              "type": "tuple"
            },
            {
              "components": [
                {
                  "internalType": "uint256",
                  "name": "rawValue",
                  "type": "uint256"
                }
              ],
              "internalType": "struct FixedPoint.Unsigned",
              "name": "disputerDisputeRewardPct",
              "type": "tuple"
            }
          ],
          "internalType": "struct Liquidatable.ConstructorParams",
          "name": "params",
          "type": "tuple"
        }
      ],
      "stateMutability": "nonpayable",
      "type": "constructor"
    },
    {
      "anonymous": false,
      "inputs": [
        {
          "indexed": true,
          "internalType": "address",
          "name": "caller",
          "type": "address"
        }
      ],
      "name": "ContractExpired",
      "type": "event"
    },
    {
      "anonymous": false,
      "inputs": [
        {
          "indexed": true,
          "internalType": "address",
          "name": "sponsor",
          "type": "address"
        },
        {
          "indexed": true,
          "internalType": "uint256",
          "name": "collateralAmount",
          "type": "uint256"
        }
      ],
      "name": "Deposit",
      "type": "event"
    },
    {
      "anonymous": false,
      "inputs": [
        {
          "indexed": true,
          "internalType": "address",
          "name": "caller",
          "type": "address"
        },
        {
          "indexed": true,
          "internalType": "address",
          "name": "sponsor",
          "type": "address"
        },
        {
          "indexed": true,
          "internalType": "address",
          "name": "liquidator",
          "type": "address"
        },
        {
          "indexed": false,
          "internalType": "address",
          "name": "disputer",
          "type": "address"
        },
        {
          "indexed": false,
          "internalType": "uint256",
          "name": "liquidationId",
          "type": "uint256"
        },
        {
          "indexed": false,
          "internalType": "bool",
          "name": "disputeSucceeded",
          "type": "bool"
        }
      ],
      "name": "DisputeSettled",
      "type": "event"
    },
    {
      "anonymous": false,
      "inputs": [
        {
          "indexed": true,
          "internalType": "address",
          "name": "caller",
          "type": "address"
        },
        {
          "indexed": false,
          "internalType": "uint256",
          "name": "originalExpirationTimestamp",
          "type": "uint256"
        },
        {
          "indexed": false,
          "internalType": "uint256",
          "name": "shutdownTimestamp",
          "type": "uint256"
        }
      ],
      "name": "EmergencyShutdown",
      "type": "event"
    },
    {
      "anonymous": false,
      "inputs": [
        {
          "indexed": true,
          "internalType": "address",
          "name": "sponsor",
          "type": "address"
        }
      ],
      "name": "EndedSponsorPosition",
      "type": "event"
    },
    {
      "anonymous": false,
      "inputs": [
        {
          "indexed": true,
          "internalType": "uint256",
          "name": "amount",
          "type": "uint256"
        }
      ],
      "name": "FinalFeesPaid",
      "type": "event"
    },
    {
      "anonymous": false,
      "inputs": [
        {
          "indexed": true,
          "internalType": "address",
          "name": "sponsor",
          "type": "address"
        },
        {
          "indexed": true,
          "internalType": "address",
          "name": "liquidator",
          "type": "address"
        },
        {
          "indexed": true,
          "internalType": "uint256",
          "name": "liquidationId",
          "type": "uint256"
        },
        {
          "indexed": false,
          "internalType": "uint256",
          "name": "tokensOutstanding",
          "type": "uint256"
        },
        {
          "indexed": false,
          "internalType": "uint256",
          "name": "lockedCollateral",
          "type": "uint256"
        },
        {
          "indexed": false,
          "internalType": "uint256",
          "name": "liquidatedCollateral",
          "type": "uint256"
        },
        {
          "indexed": false,
          "internalType": "uint256",
          "name": "liquidationTime",
          "type": "uint256"
        }
      ],
      "name": "LiquidationCreated",
      "type": "event"
    },
    {
      "anonymous": false,
      "inputs": [
        {
          "indexed": true,
          "internalType": "address",
          "name": "sponsor",
          "type": "address"
        },
        {
          "indexed": true,
          "internalType": "address",
          "name": "liquidator",
          "type": "address"
        },
        {
          "indexed": true,
          "internalType": "address",
          "name": "disputer",
          "type": "address"
        },
        {
          "indexed": false,
          "internalType": "uint256",
          "name": "liquidationId",
          "type": "uint256"
        },
        {
          "indexed": false,
          "internalType": "uint256",
          "name": "disputeBondAmount",
          "type": "uint256"
        }
      ],
      "name": "LiquidationDisputed",
      "type": "event"
    },
    {
      "anonymous": false,
      "inputs": [
        {
          "indexed": true,
          "internalType": "address",
          "name": "caller",
          "type": "address"
        },
        {
          "indexed": false,
          "internalType": "uint256",
          "name": "withdrawalAmount",
          "type": "uint256"
        },
        {
          "indexed": true,
          "internalType": "enum Liquidatable.Status",
          "name": "liquidationStatus",
          "type": "uint8"
        },
        {
          "indexed": false,
          "internalType": "uint256",
          "name": "settlementPrice",
          "type": "uint256"
        }
      ],
      "name": "LiquidationWithdrawn",
      "type": "event"
    },
    {
      "anonymous": false,
      "inputs": [
        {
          "indexed": true,
          "internalType": "address",
          "name": "sponsor",
          "type": "address"
        }
      ],
      "name": "NewSponsor",
      "type": "event"
    },
    {
      "anonymous": false,
      "inputs": [
        {
          "indexed": true,
          "internalType": "address",
          "name": "sponsor",
          "type": "address"
        },
        {
          "indexed": true,
          "internalType": "uint256",
          "name": "collateralAmount",
          "type": "uint256"
        },
        {
          "indexed": true,
          "internalType": "uint256",
          "name": "tokenAmount",
          "type": "uint256"
        }
      ],
      "name": "PositionCreated",
      "type": "event"
    },
    {
      "anonymous": false,
      "inputs": [
        {
          "indexed": true,
          "internalType": "address",
          "name": "sponsor",
          "type": "address"
        },
        {
          "indexed": true,
          "internalType": "uint256",
          "name": "collateralAmount",
          "type": "uint256"
        },
        {
          "indexed": true,
          "internalType": "uint256",
          "name": "tokenAmount",
          "type": "uint256"
        }
      ],
      "name": "Redeem",
      "type": "event"
    },
    {
      "anonymous": false,
      "inputs": [
        {
          "indexed": true,
          "internalType": "uint256",
          "name": "regularFee",
          "type": "uint256"
        },
        {
          "indexed": true,
          "internalType": "uint256",
          "name": "lateFee",
          "type": "uint256"
        }
      ],
      "name": "RegularFeesPaid",
      "type": "event"
    },
    {
      "anonymous": false,
      "inputs": [
        {
          "indexed": true,
          "internalType": "address",
          "name": "oldSponsor",
          "type": "address"
        }
      ],
      "name": "RequestTransferPosition",
      "type": "event"
    },
    {
      "anonymous": false,
      "inputs": [
        {
          "indexed": true,
          "internalType": "address",
          "name": "oldSponsor",
          "type": "address"
        }
      ],
      "name": "RequestTransferPositionCanceled",
      "type": "event"
    },
    {
      "anonymous": false,
      "inputs": [
        {
          "indexed": true,
          "internalType": "address",
          "name": "oldSponsor",
          "type": "address"
        },
        {
          "indexed": true,
          "internalType": "address",
          "name": "newSponsor",
          "type": "address"
        }
      ],
      "name": "RequestTransferPositionExecuted",
      "type": "event"
    },
    {
      "anonymous": false,
      "inputs": [
        {
          "indexed": true,
          "internalType": "address",
          "name": "sponsor",
          "type": "address"
        },
        {
          "indexed": true,
          "internalType": "uint256",
          "name": "collateralAmount",
          "type": "uint256"
        }
      ],
      "name": "RequestWithdrawal",
      "type": "event"
    },
    {
      "anonymous": false,
      "inputs": [
        {
          "indexed": true,
          "internalType": "address",
          "name": "sponsor",
          "type": "address"
        },
        {
          "indexed": true,
          "internalType": "uint256",
          "name": "collateralAmount",
          "type": "uint256"
        }
      ],
      "name": "RequestWithdrawalCanceled",
      "type": "event"
    },
    {
      "anonymous": false,
      "inputs": [
        {
          "indexed": true,
          "internalType": "address",
          "name": "sponsor",
          "type": "address"
        },
        {
          "indexed": true,
          "internalType": "uint256",
          "name": "collateralAmount",
          "type": "uint256"
        }
      ],
      "name": "RequestWithdrawalExecuted",
      "type": "event"
    },
    {
      "anonymous": false,
      "inputs": [
        {
          "indexed": true,
          "internalType": "address",
          "name": "caller",
          "type": "address"
        },
        {
          "indexed": true,
          "internalType": "uint256",
          "name": "collateralReturned",
          "type": "uint256"
        },
        {
          "indexed": true,
          "internalType": "uint256",
          "name": "tokensBurned",
          "type": "uint256"
        }
      ],
      "name": "SettleExpiredPosition",
      "type": "event"
    },
    {
      "anonymous": false,
      "inputs": [
        {
          "indexed": true,
          "internalType": "address",
          "name": "sponsor",
          "type": "address"
        },
        {
          "indexed": true,
          "internalType": "uint256",
          "name": "collateralAmount",
          "type": "uint256"
        }
      ],
      "name": "Withdrawal",
      "type": "event"
    },
    {
      "inputs": [],
      "name": "cancelTransferPosition",
      "outputs": [],
      "stateMutability": "nonpayable",
      "type": "function"
    },
    {
      "inputs": [],
      "name": "cancelWithdrawal",
      "outputs": [],
      "stateMutability": "nonpayable",
      "type": "function"
    },
    {
      "inputs": [],
      "name": "collateralCurrency",
      "outputs": [
        {
          "internalType": "contract IERC20",
          "name": "",
          "type": "address"
        }
      ],
      "stateMutability": "view",
      "type": "function"
    },
    {
      "inputs": [],
      "name": "collateralRequirement",
      "outputs": [
        {
          "internalType": "uint256",
          "name": "rawValue",
          "type": "uint256"
        }
      ],
      "stateMutability": "view",
      "type": "function"
    },
    {
      "inputs": [],
      "name": "contractState",
      "outputs": [
        {
          "internalType": "enum PricelessPositionManager.ContractState",
          "name": "",
          "type": "uint8"
        }
      ],
      "stateMutability": "view",
      "type": "function"
    },
    {
      "inputs": [
        {
          "components": [
            {
              "internalType": "uint256",
              "name": "rawValue",
              "type": "uint256"
            }
          ],
          "internalType": "struct FixedPoint.Unsigned",
          "name": "collateralAmount",
          "type": "tuple"
        },
        {
          "components": [
            {
              "internalType": "uint256",
              "name": "rawValue",
              "type": "uint256"
            }
          ],
          "internalType": "struct FixedPoint.Unsigned",
          "name": "numTokens",
          "type": "tuple"
        }
      ],
      "name": "create",
      "outputs": [],
      "stateMutability": "nonpayable",
      "type": "function"
    },
    {
      "inputs": [
        {
          "internalType": "address",
          "name": "sponsor",
          "type": "address"
        },
        {
          "components": [
            {
              "internalType": "uint256",
              "name": "rawValue",
              "type": "uint256"
            }
          ],
          "internalType": "struct FixedPoint.Unsigned",
          "name": "minCollateralPerToken",
          "type": "tuple"
        },
        {
          "components": [
            {
              "internalType": "uint256",
              "name": "rawValue",
              "type": "uint256"
            }
          ],
          "internalType": "struct FixedPoint.Unsigned",
          "name": "maxCollateralPerToken",
          "type": "tuple"
        },
        {
          "components": [
            {
              "internalType": "uint256",
              "name": "rawValue",
              "type": "uint256"
            }
          ],
          "internalType": "struct FixedPoint.Unsigned",
          "name": "maxTokensToLiquidate",
          "type": "tuple"
        },
        {
          "internalType": "uint256",
          "name": "deadline",
          "type": "uint256"
        }
      ],
      "name": "createLiquidation",
      "outputs": [
        {
          "internalType": "uint256",
          "name": "liquidationId",
          "type": "uint256"
        },
        {
          "components": [
            {
              "internalType": "uint256",
              "name": "rawValue",
              "type": "uint256"
            }
          ],
          "internalType": "struct FixedPoint.Unsigned",
          "name": "tokensLiquidated",
          "type": "tuple"
        },
        {
          "components": [
            {
              "internalType": "uint256",
              "name": "rawValue",
              "type": "uint256"
            }
          ],
          "internalType": "struct FixedPoint.Unsigned",
          "name": "finalFeeBond",
          "type": "tuple"
        }
      ],
      "stateMutability": "nonpayable",
      "type": "function"
    },
    {
      "inputs": [],
      "name": "cumulativeFeeMultiplier",
      "outputs": [
        {
          "internalType": "uint256",
          "name": "rawValue",
          "type": "uint256"
        }
      ],
      "stateMutability": "view",
      "type": "function"
    },
    {
      "inputs": [
        {
          "components": [
            {
              "internalType": "uint256",
              "name": "rawValue",
              "type": "uint256"
            }
          ],
          "internalType": "struct FixedPoint.Unsigned",
          "name": "collateralAmount",
          "type": "tuple"
        }
      ],
      "name": "deposit",
      "outputs": [],
      "stateMutability": "nonpayable",
      "type": "function"
    },
    {
      "inputs": [
        {
          "internalType": "address",
          "name": "sponsor",
          "type": "address"
        },
        {
          "components": [
            {
              "internalType": "uint256",
              "name": "rawValue",
              "type": "uint256"
            }
          ],
          "internalType": "struct FixedPoint.Unsigned",
          "name": "collateralAmount",
          "type": "tuple"
        }
      ],
      "name": "depositTo",
      "outputs": [],
      "stateMutability": "nonpayable",
      "type": "function"
    },
    {
      "inputs": [
        {
          "internalType": "uint256",
          "name": "liquidationId",
          "type": "uint256"
        },
        {
          "internalType": "address",
          "name": "sponsor",
          "type": "address"
        }
      ],
      "name": "dispute",
      "outputs": [
        {
          "components": [
            {
              "internalType": "uint256",
              "name": "rawValue",
              "type": "uint256"
            }
          ],
          "internalType": "struct FixedPoint.Unsigned",
          "name": "totalPaid",
          "type": "tuple"
        }
      ],
      "stateMutability": "nonpayable",
      "type": "function"
    },
    {
      "inputs": [],
      "name": "disputeBondPct",
      "outputs": [
        {
          "internalType": "uint256",
          "name": "rawValue",
          "type": "uint256"
        }
      ],
      "stateMutability": "view",
      "type": "function"
    },
    {
      "inputs": [],
      "name": "disputerDisputeRewardPct",
      "outputs": [
        {
          "internalType": "uint256",
          "name": "rawValue",
          "type": "uint256"
        }
      ],
      "stateMutability": "view",
      "type": "function"
    },
    {
      "inputs": [],
      "name": "emergencyShutdown",
      "outputs": [],
      "stateMutability": "nonpayable",
      "type": "function"
    },
    {
      "inputs": [],
      "name": "excessTokenBeneficiary",
      "outputs": [
        {
          "internalType": "address",
          "name": "",
          "type": "address"
        }
      ],
      "stateMutability": "view",
      "type": "function"
    },
    {
      "inputs": [],
      "name": "expirationTimestamp",
      "outputs": [
        {
          "internalType": "uint256",
          "name": "",
          "type": "uint256"
        }
      ],
      "stateMutability": "view",
      "type": "function"
    },
    {
      "inputs": [],
      "name": "expire",
      "outputs": [],
      "stateMutability": "nonpayable",
      "type": "function"
    },
    {
      "inputs": [],
      "name": "expiryPrice",
      "outputs": [
        {
          "internalType": "uint256",
          "name": "rawValue",
          "type": "uint256"
        }
      ],
      "stateMutability": "view",
      "type": "function"
    },
    {
      "inputs": [],
      "name": "finder",
      "outputs": [
        {
          "internalType": "contract FinderInterface",
          "name": "",
          "type": "address"
        }
      ],
      "stateMutability": "view",
      "type": "function"
    },
    {
      "inputs": [
        {
          "internalType": "address",
          "name": "sponsor",
          "type": "address"
        }
      ],
      "name": "getCollateral",
      "outputs": [
        {
          "components": [
            {
              "internalType": "uint256",
              "name": "rawValue",
              "type": "uint256"
            }
          ],
          "internalType": "struct FixedPoint.Unsigned",
          "name": "collateralAmount",
          "type": "tuple"
        }
      ],
      "stateMutability": "view",
      "type": "function"
    },
    {
      "inputs": [],
      "name": "getCurrentTime",
      "outputs": [
        {
          "internalType": "uint256",
          "name": "",
          "type": "uint256"
        }
      ],
      "stateMutability": "view",
      "type": "function"
    },
    {
      "inputs": [
        {
          "internalType": "address",
          "name": "sponsor",
          "type": "address"
        }
      ],
      "name": "getLiquidations",
      "outputs": [
        {
          "components": [
            {
              "internalType": "address",
              "name": "sponsor",
              "type": "address"
            },
            {
              "internalType": "address",
              "name": "liquidator",
              "type": "address"
            },
            {
              "internalType": "enum Liquidatable.Status",
              "name": "state",
              "type": "uint8"
            },
            {
              "internalType": "uint256",
              "name": "liquidationTime",
              "type": "uint256"
            },
            {
              "components": [
                {
                  "internalType": "uint256",
                  "name": "rawValue",
                  "type": "uint256"
                }
              ],
              "internalType": "struct FixedPoint.Unsigned",
              "name": "tokensOutstanding",
              "type": "tuple"
            },
            {
              "components": [
                {
                  "internalType": "uint256",
                  "name": "rawValue",
                  "type": "uint256"
                }
              ],
              "internalType": "struct FixedPoint.Unsigned",
              "name": "lockedCollateral",
              "type": "tuple"
            },
            {
              "components": [
                {
                  "internalType": "uint256",
                  "name": "rawValue",
                  "type": "uint256"
                }
              ],
              "internalType": "struct FixedPoint.Unsigned",
              "name": "liquidatedCollateral",
              "type": "tuple"
            },
            {
              "components": [
                {
                  "internalType": "uint256",
                  "name": "rawValue",
                  "type": "uint256"
                }
              ],
              "internalType": "struct FixedPoint.Unsigned",
              "name": "rawUnitCollateral",
              "type": "tuple"
            },
            {
              "internalType": "address",
              "name": "disputer",
              "type": "address"
            },
            {
              "components": [
                {
                  "internalType": "uint256",
                  "name": "rawValue",
                  "type": "uint256"
                }
              ],
              "internalType": "struct FixedPoint.Unsigned",
              "name": "settlementPrice",
              "type": "tuple"
            },
            {
              "components": [
                {
                  "internalType": "uint256",
                  "name": "rawValue",
                  "type": "uint256"
                }
              ],
              "internalType": "struct FixedPoint.Unsigned",
              "name": "finalFee",
              "type": "tuple"
            }
          ],
          "internalType": "struct Liquidatable.LiquidationData[]",
          "name": "liquidationData",
          "type": "tuple[]"
        }
      ],
      "stateMutability": "view",
      "type": "function"
    },
    {
      "inputs": [],
      "name": "liquidationLiveness",
      "outputs": [
        {
          "internalType": "uint256",
          "name": "",
          "type": "uint256"
        }
      ],
      "stateMutability": "view",
      "type": "function"
    },
    {
      "inputs": [
        {
          "internalType": "address",
          "name": "",
          "type": "address"
        },
        {
          "internalType": "uint256",
          "name": "",
          "type": "uint256"
        }
      ],
      "name": "liquidations",
      "outputs": [
        {
          "internalType": "address",
          "name": "sponsor",
          "type": "address"
        },
        {
          "internalType": "address",
          "name": "liquidator",
          "type": "address"
        },
        {
          "internalType": "enum Liquidatable.Status",
          "name": "state",
          "type": "uint8"
        },
        {
          "internalType": "uint256",
          "name": "liquidationTime",
          "type": "uint256"
        },
        {
          "components": [
            {
              "internalType": "uint256",
              "name": "rawValue",
              "type": "uint256"
            }
          ],
          "internalType": "struct FixedPoint.Unsigned",
          "name": "tokensOutstanding",
          "type": "tuple"
        },
        {
          "components": [
            {
              "internalType": "uint256",
              "name": "rawValue",
              "type": "uint256"
            }
          ],
          "internalType": "struct FixedPoint.Unsigned",
          "name": "lockedCollateral",
          "type": "tuple"
        },
        {
          "components": [
            {
              "internalType": "uint256",
              "name": "rawValue",
              "type": "uint256"
            }
          ],
          "internalType": "struct FixedPoint.Unsigned",
          "name": "liquidatedCollateral",
          "type": "tuple"
        },
        {
          "components": [
            {
              "internalType": "uint256",
              "name": "rawValue",
              "type": "uint256"
            }
          ],
          "internalType": "struct FixedPoint.Unsigned",
          "name": "rawUnitCollateral",
          "type": "tuple"
        },
        {
          "internalType": "address",
          "name": "disputer",
          "type": "address"
        },
        {
          "components": [
            {
              "internalType": "uint256",
              "name": "rawValue",
              "type": "uint256"
            }
          ],
          "internalType": "struct FixedPoint.Unsigned",
          "name": "settlementPrice",
          "type": "tuple"
        },
        {
          "components": [
            {
              "internalType": "uint256",
              "name": "rawValue",
              "type": "uint256"
            }
          ],
          "internalType": "struct FixedPoint.Unsigned",
          "name": "finalFee",
          "type": "tuple"
        }
      ],
      "stateMutability": "view",
      "type": "function"
    },
    {
      "inputs": [],
      "name": "minSponsorTokens",
      "outputs": [
        {
          "internalType": "uint256",
          "name": "rawValue",
          "type": "uint256"
        }
      ],
      "stateMutability": "view",
      "type": "function"
    },
    {
      "inputs": [],
      "name": "payRegularFees",
      "outputs": [
        {
          "components": [
            {
              "internalType": "uint256",
              "name": "rawValue",
              "type": "uint256"
            }
          ],
          "internalType": "struct FixedPoint.Unsigned",
          "name": "totalPaid",
          "type": "tuple"
        }
      ],
      "stateMutability": "nonpayable",
      "type": "function"
    },
    {
      "inputs": [],
      "name": "pfc",
      "outputs": [
        {
          "components": [
            {
              "internalType": "uint256",
              "name": "rawValue",
              "type": "uint256"
            }
          ],
          "internalType": "struct FixedPoint.Unsigned",
          "name": "",
          "type": "tuple"
        }
      ],
      "stateMutability": "view",
      "type": "function"
    },
    {
      "inputs": [
        {
          "internalType": "address",
          "name": "",
          "type": "address"
        }
      ],
      "name": "positions",
      "outputs": [
        {
          "components": [
            {
              "internalType": "uint256",
              "name": "rawValue",
              "type": "uint256"
            }
          ],
          "internalType": "struct FixedPoint.Unsigned",
          "name": "tokensOutstanding",
          "type": "tuple"
        },
        {
          "internalType": "uint256",
          "name": "withdrawalRequestPassTimestamp",
          "type": "uint256"
        },
        {
          "components": [
            {
              "internalType": "uint256",
              "name": "rawValue",
              "type": "uint256"
            }
          ],
          "internalType": "struct FixedPoint.Unsigned",
          "name": "withdrawalRequestAmount",
          "type": "tuple"
        },
        {
          "components": [
            {
              "internalType": "uint256",
              "name": "rawValue",
              "type": "uint256"
            }
          ],
          "internalType": "struct FixedPoint.Unsigned",
          "name": "rawCollateral",
          "type": "tuple"
        },
        {
          "internalType": "uint256",
          "name": "transferPositionRequestPassTimestamp",
          "type": "uint256"
        }
      ],
      "stateMutability": "view",
      "type": "function"
    },
    {
      "inputs": [],
      "name": "priceIdentifier",
      "outputs": [
        {
          "internalType": "bytes32",
          "name": "",
          "type": "bytes32"
        }
      ],
      "stateMutability": "view",
      "type": "function"
    },
    {
      "inputs": [],
      "name": "rawLiquidationCollateral",
      "outputs": [
        {
          "internalType": "uint256",
          "name": "rawValue",
          "type": "uint256"
        }
      ],
      "stateMutability": "view",
      "type": "function"
    },
    {
      "inputs": [],
      "name": "rawTotalPositionCollateral",
      "outputs": [
        {
          "internalType": "uint256",
          "name": "rawValue",
          "type": "uint256"
        }
      ],
      "stateMutability": "view",
      "type": "function"
    },
    {
      "inputs": [
        {
          "components": [
            {
              "internalType": "uint256",
              "name": "rawValue",
              "type": "uint256"
            }
          ],
          "internalType": "struct FixedPoint.Unsigned",
          "name": "numTokens",
          "type": "tuple"
        }
      ],
      "name": "redeem",
      "outputs": [
        {
          "components": [
            {
              "internalType": "uint256",
              "name": "rawValue",
              "type": "uint256"
            }
          ],
          "internalType": "struct FixedPoint.Unsigned",
          "name": "amountWithdrawn",
          "type": "tuple"
        }
      ],
      "stateMutability": "nonpayable",
      "type": "function"
    },
    {
      "inputs": [],
      "name": "remargin",
      "outputs": [],
      "stateMutability": "nonpayable",
      "type": "function"
    },
    {
      "inputs": [],
      "name": "requestTransferPosition",
      "outputs": [],
      "stateMutability": "nonpayable",
      "type": "function"
    },
    {
      "inputs": [
        {
          "components": [
            {
              "internalType": "uint256",
              "name": "rawValue",
              "type": "uint256"
            }
          ],
          "internalType": "struct FixedPoint.Unsigned",
          "name": "collateralAmount",
          "type": "tuple"
        }
      ],
      "name": "requestWithdrawal",
      "outputs": [],
      "stateMutability": "nonpayable",
      "type": "function"
    },
    {
      "inputs": [
        {
          "internalType": "uint256",
          "name": "time",
          "type": "uint256"
        }
      ],
      "name": "setCurrentTime",
      "outputs": [],
      "stateMutability": "nonpayable",
      "type": "function"
    },
    {
      "inputs": [],
      "name": "settleExpired",
      "outputs": [
        {
          "components": [
            {
              "internalType": "uint256",
              "name": "rawValue",
              "type": "uint256"
            }
          ],
          "internalType": "struct FixedPoint.Unsigned",
          "name": "amountWithdrawn",
          "type": "tuple"
        }
      ],
      "stateMutability": "nonpayable",
      "type": "function"
    },
    {
      "inputs": [],
      "name": "sponsorDisputeRewardPct",
      "outputs": [
        {
          "internalType": "uint256",
          "name": "rawValue",
          "type": "uint256"
        }
      ],
      "stateMutability": "view",
      "type": "function"
    },
    {
      "inputs": [],
      "name": "timerAddress",
      "outputs": [
        {
          "internalType": "address",
          "name": "",
          "type": "address"
        }
      ],
      "stateMutability": "view",
      "type": "function"
    },
    {
      "inputs": [],
      "name": "tokenCurrency",
      "outputs": [
        {
          "internalType": "contract ExpandedIERC20",
          "name": "",
          "type": "address"
        }
      ],
      "stateMutability": "view",
      "type": "function"
    },
    {
      "inputs": [],
      "name": "totalPositionCollateral",
      "outputs": [
        {
          "components": [
            {
              "internalType": "uint256",
              "name": "rawValue",
              "type": "uint256"
            }
          ],
          "internalType": "struct FixedPoint.Unsigned",
          "name": "totalCollateral",
          "type": "tuple"
        }
      ],
      "stateMutability": "view",
      "type": "function"
    },
    {
      "inputs": [],
      "name": "totalTokensOutstanding",
      "outputs": [
        {
          "internalType": "uint256",
          "name": "rawValue",
          "type": "uint256"
        }
      ],
      "stateMutability": "view",
      "type": "function"
    },
    {
      "inputs": [
        {
          "internalType": "address",
          "name": "newSponsorAddress",
          "type": "address"
        }
      ],
      "name": "transferPositionPassedRequest",
      "outputs": [],
      "stateMutability": "nonpayable",
      "type": "function"
    },
    {
      "inputs": [
        {
          "internalType": "contract IERC20",
          "name": "token",
          "type": "address"
        }
      ],
      "name": "trimExcess",
      "outputs": [
        {
          "components": [
            {
              "internalType": "uint256",
              "name": "rawValue",
              "type": "uint256"
            }
          ],
          "internalType": "struct FixedPoint.Unsigned",
          "name": "amount",
          "type": "tuple"
        }
      ],
      "stateMutability": "nonpayable",
      "type": "function"
    },
    {
      "inputs": [
        {
          "components": [
            {
              "internalType": "uint256",
              "name": "rawValue",
              "type": "uint256"
            }
          ],
          "internalType": "struct FixedPoint.Unsigned",
          "name": "collateralAmount",
          "type": "tuple"
        }
      ],
      "name": "withdraw",
      "outputs": [
        {
          "components": [
            {
              "internalType": "uint256",
              "name": "rawValue",
              "type": "uint256"
            }
          ],
          "internalType": "struct FixedPoint.Unsigned",
          "name": "amountWithdrawn",
          "type": "tuple"
        }
      ],
      "stateMutability": "nonpayable",
      "type": "function"
    },
    {
      "inputs": [
        {
          "internalType": "uint256",
          "name": "liquidationId",
          "type": "uint256"
        },
        {
          "internalType": "address",
          "name": "sponsor",
          "type": "address"
        }
      ],
      "name": "withdrawLiquidation",
      "outputs": [
        {
          "components": [
            {
              "internalType": "uint256",
              "name": "rawValue",
              "type": "uint256"
            }
          ],
          "internalType": "struct FixedPoint.Unsigned",
          "name": "amountWithdrawn",
          "type": "tuple"
        }
      ],
      "stateMutability": "nonpayable",
      "type": "function"
    },
    {
      "inputs": [],
      "name": "withdrawPassedRequest",
      "outputs": [
        {
          "components": [
            {
              "internalType": "uint256",
              "name": "rawValue",
              "type": "uint256"
            }
          ],
          "internalType": "struct FixedPoint.Unsigned",
          "name": "amountWithdrawn",
          "type": "tuple"
        }
      ],
      "stateMutability": "nonpayable",
      "type": "function"
    },
    {
      "inputs": [],
      "name": "withdrawalLiveness",
      "outputs": [
        {
          "internalType": "uint256",
          "name": "",
          "type": "uint256"
        }
      ],
      "stateMutability": "view",
      "type": "function"
    }
  ],
  "bytecode": "0x60806040523480156200001157600080fd5b50604051620059fb380380620059fb8339810160408190526200003491620007af565b805160208201516040830151606084015160e0850151610100860151610120870151608088015161014089015160a08a015160c08b015160008054600160a01b6001600160a01b03199091166001600160a01b0385161760ff60a01b19161790558b9a99989796959493929190888883620000ae620003f0565b620000b86200041e565b600180546001600160a01b038086166001600160a01b0319928316179092556002805492851692909116919091179055620000f26200042d565b6003819055506200010f6001620004d660201b62002bf21760201c565b516004556200011d62000515565b506200012b915050620003f0565b620001356200041e565b6200013f6200042d565b8b11620001695760405162461bcd60e51b8152600401620001609062000a4e565b60405180910390fd5b620001736200052a565b6001600160a01b03166390978d1b886040518263ffffffff1660e01b8152600401620001a091906200099a565b60206040518083038186803b158015620001b957600080fd5b505afa158015620001ce573d6000803e3d6000fd5b505050506040513d601f19601f82011682018060405250810190620001f491906200078d565b620002135760405162461bcd60e51b8152600401620001609062000afd565b600b8b9055600c8a905560405163e8a0aed360e01b815284906001600160a01b0382169063e8a0aed39062000252908a908a90601290600401620009a3565b602060405180830381600087803b1580156200026d57600080fd5b505af115801562000282573d6000803e3d6000fd5b505050506040513d601f19601f82011682018060405250810190620002a891906200076e565b600980546001600160a01b03199081166001600160a01b03938416179091558551600d55600a8a9055600f805490911691841691909117905550620002ec62000515565b505050505050505050505062000307620003f060201b60201c565b620003116200041e565b620003316001826101800151620005d660201b62002c201790919060201c565b620003505760405162461bcd60e51b8152600401620001609062000a85565b6200038e60016200037a836101e00151846101c00151620005f060201b62002c371790919060201c565b6200063060201b62002c631790919060201c565b620003ad5760405162461bcd60e51b8152600401620001609062000a17565b610160810151601255610180810151516013556101a0810151516014556101c0810151516015556101e081015151601655620003e862000515565b505062000bde565b600054600160a01b900460ff166200041c5760405162461bcd60e51b8152600401620001609062000b34565b565b6000805460ff60a01b19169055565b600080546001600160a01b031615620004d05760008054906101000a90046001600160a01b03166001600160a01b03166329cb924d6040518163ffffffff1660e01b815260040160206040518083038186803b1580156200048d57600080fd5b505afa158015620004a2573d6000803e3d6000fd5b505050506040513d601f19601f82011682018060405250810190620004c8919062000953565b9050620004d3565b50425b90565b620004e0620006b8565b60405180602001604052806200050d670de0b6b3a7640000856200064960201b62002c7a1790919060201c565b905292915050565b6000805460ff60a01b1916600160a01b179055565b6002546040516302abf57960e61b81526000916001600160a01b03169063aafd5e40906200057d907f4964656e74696669657257686974656c69737400000000000000000000000000906004016200099a565b60206040518083038186803b1580156200059657600080fd5b505afa158015620005ab573d6000803e3d6000fd5b505050506040513d601f19601f82011682018060405250810190620005d191906200076e565b905090565b6000620005e382620004d6565b5183511190505b92915050565b620005fa620006b8565b604051806020016040528062000627846000015186600001516200069060201b62002cbb1790919060201c565b90529392505050565b60006200063d82620004d6565b51835110905092915050565b6000826200065a57506000620005ea565b828202828482816200066857fe5b0414620006895760405162461bcd60e51b8152600401620001609062000abc565b9392505050565b600082820183811015620006895760405162461bcd60e51b81526004016200016090620009e0565b6040518060200160405280600081525090565b8051620005ea8162000bc5565b600082601f830112620006e9578081fd5b81516001600160401b03811115620006ff578182fd5b62000714601f8201601f191660200162000b6b565b91508082528360208285010111156200072c57600080fd5b6200073f81602084016020860162000b92565b5092915050565b60006020828403121562000758578081fd5b62000764602062000b6b565b9151825250919050565b60006020828403121562000780578081fd5b8151620006898162000bc5565b6000602082840312156200079f578081fd5b8151801515811462000689578182fd5b600060208284031215620007c1578081fd5b81516001600160401b0380821115620007d8578283fd5b8184019150610200808387031215620007ef578384fd5b620007fa8162000b6b565b90508251815260208301516020820152620008198660408501620006cb565b60408201526200082d8660608501620006cb565b6060820152620008418660808501620006cb565b6080820152620008558660a08501620006cb565b60a0820152620008698660c08501620006cb565b60c082015260e083015160e082015261010080840151838111156200088c578586fd5b6200089a88828701620006d8565b8284015250506101208084015183811115620008b4578586fd5b620008c288828701620006d8565b8284015250506101409150620008db8683850162000746565b82820152610160915081830151828201526101809150620008ff8683850162000746565b828201526101a09150620009168683850162000746565b828201526101c091506200092d8683850162000746565b828201526101e09150620009448683850162000746565b91810191909152949350505050565b60006020828403121562000965578081fd5b5051919050565b600081518084526200098681602086016020860162000b92565b601f01601f19169290920160200192915050565b90815260200190565b600060608252620009b860608301866200096c565b8281036020840152620009cc81866200096c565b91505060ff83166040830152949350505050565b6020808252601b908201527f536166654d6174683a206164646974696f6e206f766572666c6f770000000000604082015260600190565b6020808252601a908201527f5265776172647320617265206d6f7265207468616e2031303025000000000000604082015260600190565b6020808252601c908201527f496e76616c69642065787069726174696f6e20696e2066757475726500000000604082015260600190565b60208082526014908201527f4352206973206d6f7265207468616e2031303025000000000000000000000000604082015260600190565b60208082526021908201527f536166654d6174683a206d756c7469706c69636174696f6e206f766572666c6f6040820152607760f81b606082015260800190565b6020808252601c908201527f556e737570706f72746564207072696365206964656e74696669657200000000604082015260600190565b6020808252601f908201527f5265656e7472616e637947756172643a207265656e7472616e742063616c6c00604082015260600190565b6040518181016001600160401b038111828210171562000b8a57600080fd5b604052919050565b60005b8381101562000baf57818101518382015260200162000b95565b8381111562000bbf576000848401525b50505050565b6001600160a01b038116811462000bdb57600080fd5b50565b614e0d8062000bee6000396000f3fe608060405234801561001057600080fd5b50600436106102a05760003560e01c80635ee0fe32116101675780639ff4dea8116100ce578063bda02e7711610087578063bda02e771461051d578063c13f62e114610525578063d1e92c111461052d578063dd0eef3d14610540578063edfa9a9b14610548578063fcccedc714610550576102a0565b80639ff4dea8146104bf578063a1c4d1e7146104c7578063a765fbea146104e7578063b795f0d4146104fa578063b9a3c84c14610502578063bc1216301461050a576102a0565b806385209ee01161012057806385209ee0146104775780638c382eb21461048c57806392120aec14610494578063975236611461049c5780639b56d6c9146104a45780639f43ddd2146104b7576102a0565b80635ee0fe32146104315780635f1af1ca146104395780636ba2f9921461044c5780637048594b1461045f57806379599f961461046757806381a10ae11461046f576102a0565b80633403c2fc1161020b57806343e4771b116101c457806343e4771b146103b857806348e30c3f146103c05780634f8c4847146103c857806350f49846146103f257806355f57510146103fa5780635617151c1461041e576102a0565b80633403c2fc14610372578063360598e11461037a57806336980f581461038d578063391fe4e2146103955780633cb6ce831461039d5780633ee7a5ce146103a5576102a0565b806322f8e5661161025d57806322f8e5661461030557806324e8cb8d1461031857806325ed4dd81461033857806329cb924d1461035a5780632d5436cf1461036257806333a46ca21461036a576102a0565b80630c9229ca146102a55780630de15fd9146102c357806318928a0c146102d85780631c39c38d146102ed5780631fd00067146102f557806322611280146102fd575b600080fd5b6102ad610558565b6040516102ba9190614539565b60405180910390f35b6102cb61055e565b6040516102ba91906142fd565b6102eb6102e6366004614165565b61056d565b005b6102cb610642565b6102cb610651565b6102eb610660565b6102eb61031336600461427a565b6106e6565b61032b6103263660046140cd565b610760565b6040516102ba9190614cf9565b61034b610346366004614105565b610870565b6040516102ba93929190614d27565b6102ad610db3565b6102ad610e56565b61032b610e5c565b6102eb610fa9565b61032b610388366004614292565b61106d565b6102eb61165c565b6102ad611714565b61032b61171a565b61032b6103b33660046141fd565b6119b6565b61032b611a83565b6102ad611ab1565b6103db6103d636600461419a565b611ab7565b6040516102ba9b9a99989796959493929190614344565b6102ad611b7b565b61040d6104083660046140cd565b611b81565b6040516102ba959493929190614d03565b6102eb61042c3660046140cd565b611bce565b6102ad611da2565b61032b6104473660046141fd565b611da8565b6102eb61045a366004614233565b611ffc565b6102cb61227c565b6102eb61228b565b61032b612310565b61047f612328565b6040516102ba9190614550565b6102ad612331565b6102ad612337565b6102ad61233d565b61032b6104b23660046140cd565b612343565b6102ad61238e565b6102ad612394565b6104da6104d53660046140cd565b61239a565b6040516102ba919061442a565b61032b6104f5366004614292565b6124f8565b6102eb61267f565b6102cb612704565b6102eb6105183660046141fd565b612713565b6102eb61280e565b6102ad61282e565b6102eb61053b3660046141fd565b612834565b6102ad612841565b6102ad612847565b61032b61284d565b60075481565b6001546001600160a01b031681565b610575612ce0565b8161057f81612d08565b61058761171a565b50610590612d32565b610598612d5b565b6105a3826000612c20565b6105c85760405162461bcd60e51b81526004016105bf90614800565b60405180910390fd5b60006105d384612d6a565b90506105df8184612d92565b5082516040516001600160a01b038616907fe1fffcc4923d04b559f4d29a8bfc6cda04eb5b0d3c460751c2402c5c5cc9109c90600090a38251600154610634916001600160a01b039091169033903090612db3565b5061063d612e11565b505050565b6000546001600160a01b031681565b600f546001600160a01b031681565b610668612d32565b610670612d5b565b600061067b33612d6a565b90508060010154600014156106a25760405162461bcd60e51b81526004016105bf90614cca565b600281015460405133907f74d8a3658feb89d1a5c335229bbbfc3bbcfaf492769feb7aa4cd2d92efeaf69190600090a36106db81612e26565b506106e4612e11565b565b6000546001600160a01b03166106fb57600080fd5b60005460405163117c72b360e11b81526001600160a01b03909116906322f8e5669061072b908490600401614539565b600060405180830381600087803b15801561074557600080fd5b505af1158015610759573d6000803e3d6000fd5b5050505050565b61076861405f565b61077061171a565b50610779612d32565b610781612d5b565b61078961405f565b6040805160208101918290526370a0823160e01b909152806001600160a01b0385166370a082316107bd30602485016142fd565b60206040518083038186803b1580156107d557600080fd5b505afa1580156107e9573d6000803e3d6000fd5b505050506040513d601f19601f8201168201806040525081019061080d91906141e5565b90526001549091506001600160a01b03848116911614156108415761083a610833612e40565b8290612e6d565b9150610845565b8091505b600f548251610862916001600160a01b0386811692911690612e90565b5061086b612e11565b919050565b600061087a61405f565b61088261405f565b61088a61171a565b50610893612ce0565b61089b612d32565b6108a3612d5b565b836108ac610db3565b11156108ca5760405162461bcd60e51b81526004016105bf906146a0565b60006108d589612d6a565b90506108fd6108e9368890038801886141fd565b604080516020810190915283548152612eaf565b925061090761405f565b60408051602081019091526003830154815261092290612ecd565b905061092c61405f565b6109366000612bf2565b6040805160208101909152600285015481529091506109559083612ef0565b1561097a57604080516020810190915260028401548152610977908390612e6d565b90505b61098261405f565b506040805160208101909152835481526109b5826109af836109a9368f90038f018f6141fd565b90612ef8565b90612f35565b6109d15760405162461bcd60e51b81526004016105bf906149e4565b6109f0826109ea838e8036038101906109a991906141fd565b90612ef0565b610a0c5760405162461bcd60e51b81526004016105bf90614b4e565b50610a15612f3d565b9350610a1f61405f565b610a2761405f565b610a2f61405f565b604080516020810190915286548152610a49908990612fd8565b9050610a558582612ef8565b9250610a618482612ef8565b9150610a6b61405f565b604080516020810190915260028801548152610a879083612ef8565b9050610a958f8a868461300d565b50610aac90506011610aa78489612c37565b613124565b506001600160a01b038d1660008181526010602090815260409182902080548351610160810185529485523392850192909252909a509190810160018152602001610af5610db3565b8152602001898152602001848152602001838152602001610b1e610b196001612bf2565b6131a5565b815260200160006001600160a01b03168152602001610b3d6000612bf2565b815260209081018990528254600180820185556000948552938290208351600a9092020180546001600160a01b03199081166001600160a01b0393841617825592840151948101805490931694909116939093178082556040830151929392919060ff60a01b1916600160a01b836004811115610bb657fe5b021790555060608201516002820155608082015151600382015560a082015151600482015560c082015151600582015560e08201515160068201556101008201516007820180546001600160a01b0319166001600160a01b039092169190911790556101208201515160088201556101409091015151600990910155610c3a61405f565b506040805160208101909152600d548152600186015415801590610c695750610c61610db3565b866001015411155b8015610c7a5750610c7a8882612f35565b15610c9957610c93601254610c8d610db3565b90612cbb565b60018701555b88336001600160a01b03168f6001600160a01b03167f39b4371645b4132767fd76a1aad3108ff95c20d7b687b24d171555f5459a75978b6000015187600001518760000151610ce6610db3565b604051610cf69493929190614d54565b60405180910390a48751600954610d1c916001600160a01b039091169033903090612db3565b6009548851604051630852cd8d60e31b81526001600160a01b03909216916342966c6891610d4c91600401614539565b600060405180830381600087803b158015610d6657600080fd5b505af1158015610d7a573d6000803e3d6000fd5b50508851600154610d9a93506001600160a01b0316915033903090612db3565b505050505050610da8612e11565b955095509592505050565b600080546001600160a01b031615610e505760008054906101000a90046001600160a01b03166001600160a01b03166329cb924d6040518163ffffffff1660e01b815260040160206040518083038186803b158015610e1157600080fd5b505afa158015610e25573d6000803e3d6000fd5b505050506040513d601f19601f82011682018060405250810190610e4991906141e5565b9050610e53565b50425b90565b60125481565b610e6461405f565b610e6c612ce0565b610e7461171a565b50610e7d612d32565b610e85612d5b565b6000610e9033612d6a565b90508060010154600014158015610eb25750610eaa610db3565b816001015411155b610ece5760405162461bcd60e51b81526004016105bf90614912565b610ed661405f565b5060408051602080820183526002840154825282519081019092526003830154825290610f1e90610f0690612ecd565b604080516020810190915260028501548152906131c8565b15610f4157604080516020810190915260038301548152610f3e90612ecd565b90505b610f4b82826131cf565b9250610f5682612e26565b8251600154610f72916001600160a01b03909116903390612e90565b825160405133907fc86c3298cb79f486674dca87d9247e88b76146160e7d412cc59b26b14c358a6890600090a35050610e53612e11565b610fb1612ce0565b610fb96131f0565b610fc1612d32565b610fc9612d5b565b610fd1613220565b6001600160a01b0316336001600160a01b0316146110015760405162461bcd60e51b81526004016105bf90614980565b6005805460ff19166001179055600b54611019610db3565b600b819055611027906132bb565b600b5460405133917fd39eeb7157d9c446579a0893ecf9ecd87d1f466cdb270c6a189cf38ca1e30f489161105c918591614542565b60405180910390a2506106e4612e11565b61107561405f565b8282611081828261332d565b61108961171a565b50611092612d32565b61109a612d5b565b60006110a685876133a7565b60078101549091506001600160a01b03163314806110d0575060018101546001600160a01b031633145b806110e4575080546001600160a01b031633145b6111005760405162461bcd60e51b81526004016105bf90614605565b61110a8686613444565b61111261405f565b60408051602081019091526006830154815261112d90612ecd565b905061113761405f565b5060408051602081019091526008830154815261115261405f565b6040805160208101909152600385015481526111749084906109a99085612ef8565b905061117e61405f565b60408051602081019091526004860154815261119a9085612ef8565b90506111a461405f565b604080516020810190915260165481526111be9084612ef8565b90506111c861405f565b604080516020810190915260155481526111e29085612ef8565b90506111ec61405f565b60408051602081019091526014548152611207908590612ef8565b905061121161405f565b604080516020810190915260098a0154815261122d9089612ef8565b905061123761405f565b6112416000612bf2565b9050600360018b0154600160a01b900460ff16600481111561125f57fe5b14156114415760078a01546001600160a01b03163314156112b85761128261405f565b611296836112908887612c37565b90612c37565b90506112a28282612c37565b60078c0180546001600160a01b03191690559150505b89546001600160a01b031633141561130f576112d261405f565b6112dc8789612e6d565b90506112e661405f565b6112f08683612c37565b90506112fc8382612c37565b8c546001600160a01b0319168d55925050505b60018a01546001600160a01b03163314156113625761132c61405f565b6113408661133a8a88612e6d565b90612e6d565b905061134c8282612c37565b60018c0180546001600160a01b03191690559150505b60078a01546001600160a01b0316158015611385575089546001600160a01b0316155b801561139c575060018a01546001600160a01b0316155b1561143c57601060008f6001600160a01b03166001600160a01b031681526020019081526020016000208f815481106113d157fe5b600091825260208220600a9091020180546001600160a01b031990811682556001820180546001600160a81b03191690556002820183905560038201839055600482018390556005820183905560068201839055600782018054909116905560088101829055600901555b61159b565b600460018b0154600160a01b900460ff16600481111561145d57fe5b148015611476575060018a01546001600160a01b031633145b156114bb57611489826112908886612c37565b9050601060008f6001600160a01b03166001600160a01b031681526020019081526020016000208f815481106113d157fe5b6001808b0154600160a01b900460ff1660048111156114d657fe5b1480156114ef575060018a01546001600160a01b031633145b1561159b576114fe8683612c37565b9050601060008f6001600160a01b03166001600160a01b031681526020019081526020016000208f8154811061153057fe5b600091825260208220600a9091020180546001600160a01b031990811682556001820180546001600160a81b03191690556002820183905560038201839055600482018390556005820183905560068201839055600782018054909116905560088101829055600901555b6115a6816000612c20565b6115c25760405162461bcd60e51b81526004016105bf90614597565b6115cd60118261359a565b60018b0154909d50600160a01b900460ff1660048111156115ea57fe5b8d51895160405133927f342d1375efc923bbfe4f5b6575b7d47f40247499113546f8689206d3fd1cf82f9261161e92614542565b60405180910390a38c51600154611642916001600160a01b03909116903390612e90565b50505050505050505050611654612e11565b505092915050565b611664612ce0565b61166c612d32565b611674612d5b565b600061167f33612d6a565b905080600401546000146116a55760405162461bcd60e51b81526004016105bf90614c32565b60006116b5600c54610c8d610db3565b9050600b5481106116d85760405162461bcd60e51b81526004016105bf90614b17565b6004820181905560405133907fbf457c80c8bf299d5c48272c4c1168bf87b33d83b13f0ab9aac332ce1161ed1e90600090a250506106e4612e11565b60145481565b61172261405f565b61172a612d32565b611732612d5b565b600061173c613617565b90506000611748610db3565b905061175261405f565b61175a612e40565b9050611767816000613650565b15611774575050506119ae565b816003541415611786575050506119ae565b61178e61405f565b61179661405f565b6003546040516374201feb60e01b81526001600160a01b038716916374201feb916117c8919088908890600401614d3d565b604080518083038186803b1580156117df57600080fd5b505afa1580156117f3573d6000803e3d6000fd5b505050506040513d601f19601f82011682018060405250810190611817919061424f565b6003869055909250905061182b8282612c37565b9550611838866000613650565b156118475750505050506119ae565b61185186846131c8565b156118b25761185e61405f565b6118688785612e6d565b905061187261405f565b61187c8383612eaf565b90506118888382612e6d565b92506118948282612e6d565b91506118aa6118a38584612eaf565b8590612e6d565b935084975050505b805182516040517f19b92e73d08d517d71ec46136266e4f5d526a8cd4f8501d73713cebfe4f335ef90600090a36118e98684613667565b6118f4826000612c20565b1561197c578151600154611915916001600160a01b039091169087906136ab565b60015460405163432ce91960e11b81526001600160a01b0387811692638659d23292611949929091169086906004016143ed565b600060405180830381600087803b15801561196357600080fd5b505af1158015611977573d6000803e3d6000fd5b505050505b611987816000612c20565b156119a85780516001546119a8916001600160a01b03909116903390612e90565b50505050505b610e53612e11565b6119be61405f565b6119c6612ce0565b336119d081612d08565b6119d861171a565b506119e1612d32565b6119e9612d5b565b60006119f433612d6a565b9050611a01846000612c20565b611a1d5760405162461bcd60e51b81526004016105bf90614800565b611a278185613750565b80516040519194509033907f7fcf532c15f0a6db0bd6d0e038bea71d30d808c7d98cb3bf7268a95bf5081b6590600090a38251600154611a74916001600160a01b03909116903390612e90565b50611a7d612e11565b50919050565b611a8b61405f565b611a93612d32565b60408051602081019091526008548152611aac90612ecd565b905090565b60135481565b60106020528160005260406000208181548110611ad057fe5b6000918252602091829020600a919091020180546001820154600283015460408051808701825260038601548152815180880183526004870154815282518089018452600588015481528351808a0185526006890154815260078901548551808c01875260088b0154815286519b8c019096526009909901548a526001600160a01b039788169b508787169a50600160a01b90960460ff16989497929691959094909391909216918b565b60115481565b600660209081526000918252604091829020825180830184528154815260018201548451808501865260028401548152855194850190955260038301548452600490920154909391929085565b611bd6612ce0565b33611be081612d08565b611be8612d32565b611bf0612d5b565b611c38611bfd6000612bf2565b6001600160a01b03841660009081526006602090815260409182902082519182019092526003909101548152611c3290612ecd565b90613796565b611c545760405162461bcd60e51b81526004016105bf90614a72565b6000611c5f33612d6a565b90508060040154600014158015611c815750611c79610db3565b816004015411155b611c9d5760405162461bcd60e51b81526004016105bf90614949565b600060048083018281556001600160a01b038616808452600660205260408085208654815560018088015481830155600280890154818401556003808a01548185015595549287019290925533808852838820888155918201889055918101879055938401869055929093018490559151919290917ff1a2dcf23621f1a96185c79d39a5776b5ba3dadbea70c5aa86d84c17c7e9418e9190a36040516001600160a01b038416907ff60993fa76f94c9e0a803526ee6e1314814ed4d2b0d223febf1436b36897fb3790600090a260405133907fcad20625296d189a6fc6e5b39d0d544e5bd99dbda0c8f2f0ecffef3e0fbcc28290600090a250611d9e612e11565b5050565b60165481565b611db061405f565b33611dba81612d08565b611dc261171a565b50611dcb612d32565b611dd3612d5b565b6000611dde33612d6a565b604080516020810190915281548152909150611dfb9085906131c8565b15611e185760405162461bcd60e51b81526004016105bf90614703565b611e2061405f565b604080516020810190915282548152611e3a908690612fd8565b9050611e4461405f565b604080516020810190915260038401548152611e6a90611e6390612ecd565b8390612ef8565b604080516020810190915284548152909150611e869087613796565b15611e9b57611e943361379d565b9450611f26565b611ea583826131cf565b9450611eaf61405f565b604080516020810190915284548152611ec89088612e6d565b6040805160208101909152600d548152909150611ee6908290612f35565b611f025760405162461bcd60e51b81526004016105bf90614799565b8051845560408051602081019091526007548152611f209088612e6d565b51600755505b8551855160405133907fe5b754fb1abb7f01b499791d0b820ae3b6af3424ac1c59768edb53f4ec31a92990600090a48451600154611f71916001600160a01b03909116903390612e90565b8551600954611f8f916001600160a01b039091169033903090612db3565b6009548651604051630852cd8d60e31b81526001600160a01b03909216916342966c6891611fbf91600401614539565b600060405180830381600087803b158015611fd957600080fd5b505af1158015611fed573d6000803e3d6000fd5b50505050505050611a7d612e11565b612004612ce0565b61200c61171a565b50612015612d32565b61201d612d5b565b336000908152600660209081526040918290208251918201909252600382015481526120709061205290859061129090612ecd565b60408051602081019091528354815261206b9085612c37565b6138af565b80612080575061208083836138af565b61209c5760405162461bcd60e51b81526004016105bf90614a41565b6001810154156120be5760405162461bcd60e51b81526004016105bf906148e6565b6040805160208101909152815481526120d8906000613650565b15612140576040805160208101909152600d5481526120f8908390612f35565b6121145760405162461bcd60e51b81526004016105bf90614799565b60405133907ff60993fa76f94c9e0a803526ee6e1314814ed4d2b0d223febf1436b36897fb3790600090a25b61214a8184612d92565b506040805160208101909152815481526121649083612c37565b518155604080516020810190915260075481526121819083612c37565b516007558151835160405133907f4b82aa16e071a61de1a6b9aeec9edab0356331f8122c78683b469ac8e685dabc90600090a482516001546121d2916001600160a01b039091169033903090612db3565b60095482516040516340c10f1960e01b81526001600160a01b03909216916340c10f199161220591339190600401614311565b602060405180830381600087803b15801561221f57600080fd5b505af1158015612233573d6000803e3d6000fd5b505050506040513d601f19601f8201168201806040525081019061225791906141c5565b6122735760405162461bcd60e51b81526004016105bf906149ad565b50611d9e612e11565b6009546001600160a01b031681565b612293613915565b61229b6131f0565b6122a361171a565b506122ac612d32565b6122b4612d5b565b6005805460ff191660011790556122d2306122cd612f3d565b61393e565b6122dd600b546132bb565b60405133907f18600820405d6cf356e3556301762ca32395e72d8c81494fa344835c9da3633d90600090a26106e4612e11565b61231861405f565b612320612d32565b611aac612e40565b60055460ff1681565b60085481565b600d5481565b600a5481565b61234b61405f565b612353612d32565b6001600160a01b0382166000908152600660209081526040918290208251918201909252600390910154815261238890612ecd565b92915050565b600b5481565b600c5481565b60606123a4612d32565b6001600160a01b038216600090815260106020908152604080832080548251818502810185019093528083529193909284015b828210156124ed5760008481526020908190206040805161016081018252600a860290920180546001600160a01b039081168452600182015490811694840194909452919290830190600160a01b900460ff16600481111561243557fe5b600481111561244057fe5b8152600282015460208083019190915260408051808301825260038501548152818401528051808301825260048501548152606084015280518083018252600585015481526080840152805180830182526006850154815260a084015260078401546001600160a01b031660c0840152805180830182526008850154815260e0840152805180830190915260099093015483526101009091019190915290825260019290920191016123d7565b505050509050919050565b61250061405f565b828261250c8282613a87565b61251461171a565b5061251d612d32565b612525612d5b565b600061253185876133a7565b905061253b61405f565b6040805160208101909152600683015481526125839061255a90612ecd565b604080516020808201835260145482528251908101909252600486015482526109a99190612ef8565b9050612590601182613124565b5060018201805460ff60a01b1916600160a11b1790556007820180546001600160a01b0319163317905560028201546125c8906132bb565b6001820154815160405133926001600160a01b0390811692908a16917fcaca181ccad7979cf36ed4fc921e496001ab5264608f0fac7007ae1b43d3610291612612918d9190614542565b60405180910390a4604080516020810190915260098301548152612637908290612c37565b60408051602081019091526009840154815290955061265790339061393e565b8051600154612675916001600160a01b039091169033903090612db3565b5050611654612e11565b612687612ce0565b61268f612d32565b612697612d5b565b60006126a233612d6a565b90508060040154600014156126c95760405162461bcd60e51b81526004016105bf90614673565b60405133907f2e5702420c76e041698ad7ba57a9ff5cadccf647ea8d96e6007a40b5b2662f5690600090a260006004909101556106e4612e11565b6002546001600160a01b031681565b61271b612ce0565b3361272581612d08565b61272d612d32565b612735612d5b565b600061274033612d6a565b905061274d836000612c20565b801561277a575060408051602081019091526003820154815261277a9061277390612ecd565b8490612ef0565b6127965760405162461bcd60e51b81526004016105bf90614800565b60006127a6600c54610c8d610db3565b9050600b5481106127c95760405162461bcd60e51b81526004016105bf90614b17565b6001820181905583516002830181905560405133907fd33b726e11d2c5d38e6702b16613df0160a07f7ba5185455ee3c45d0494fab1190600090a35050611d9e612e11565b612816612ce0565b61281e612d32565b612826612d5b565b6106e4612e11565b60155481565b61283e338261056d565b50565b60045481565b600e5481565b61285561405f565b61285d613915565b61286561171a565b5061286e612d32565b612876612d5b565b600060055460ff16600281111561288957fe5b14156128a75760405162461bcd60e51b81526004016105bf90614c06565b600260055460ff1660028111156128ba57fe5b146128dc576128ca600b54613ae7565b51600e556005805460ff191660021790555b6128e461405f565b6040805160208101918290526009546370a0823160e01b9092529081906001600160a01b03166370a0823161291c33602485016142fd565b60206040518083038186803b15801561293457600080fd5b505afa158015612948573d6000803e3d6000fd5b505050506040513d601f19601f8201168201806040525081019061296c91906141e5565b9052905061297861405f565b6040805160208101909152600e548152612993908390612ef8565b3360009081526006602090815260408083208151928301909152600381015482529293506129cb91906129c590612ecd565b90612c20565b15612ac2576129d861405f565b6040805160208082018352600e5482528251908101909252835482526129fe9190612ef8565b9050612a0861405f565b604080516020810190915260038401548152612a2390612ecd565b9050612a2d61405f565b612a378383613c3d565b612a505760405180602001604052806000815250612a5a565b612a5a8284612e6d565b9050612a668582612c37565b336000818152600660205260408082208281556001810183905560028101839055600381018390556004018290555192975090917fcad20625296d189a6fc6e5b39d0d544e5bd99dbda0c8f2f0ecffef3e0fbcc2829190a25050505b612aca61405f565b60408051602081019091526008548152612aed90612ae790612ecd565b84612eaf565b9050612afa60088261359a565b60408051602081019091526007548152909550612b179085612e6d565b516007558351855160405133907f9d349c102bec959fb7f20f9a3621e015819d3ae4ed6e9afd1f56a69d5845600690600090a48451600154612b66916001600160a01b03909116903390612e90565b8351600954612b84916001600160a01b039091169033903090612db3565b6009548451604051630852cd8d60e31b81526001600160a01b03909216916342966c6891612bb491600401614539565b600060405180830381600087803b158015612bce57600080fd5b505af1158015612be2573d6000803e3d6000fd5b5050505050505050610e53612e11565b612bfa61405f565b604080516020810190915280612c1884670de0b6b3a7640000612c7a565b905292915050565b6000612c2b82612bf2565b51835111905092915050565b612c3f61405f565b6040805160208101909152825184518291612c5a9190612cbb565b90529392505050565b6000612c6e82612bf2565b51835110905092915050565b600082612c8957506000612388565b82820282848281612c9657fe5b0414612cb45760405162461bcd60e51b81526004016105bf906148a5565b9392505050565b600082820183811015612cb45760405162461bcd60e51b81526004016105bf9061463c565b600b54612ceb610db3565b106106e45760405162461bcd60e51b81526004016105bf90614aa9565b612d1181612d6a565b600101541561283e5760405162461bcd60e51b81526004016105bf906148e6565b600054600160a01b900460ff166106e45760405162461bcd60e51b81526004016105bf90614bcf565b6000805460ff60a01b19169055565b600081612d7681613c44565b50506001600160a01b0316600090815260066020526040902090565b612d9a61405f565b612da78360030183613124565b50612cb4600883613124565b612e0b846323b872dd60e01b858585604051602401612dd4939291906143c9565b60408051601f198184030181529190526020810180516001600160e01b03166001600160e01b031990931692909217909152613c97565b50505050565b6000805460ff60a01b1916600160a01b179055565b612e306000612bf2565b5160028201556000600190910155565b612e4861405f565b60408051602081019091526011548152611aac90612e6590612ecd565b611290613d7c565b612e7561405f565b6040805160208101909152825184518291612c5a9190613d84565b61063d8363a9059cbb60e01b8484604051602401612dd4929190614311565b612eb761405f565b8151835110612ec65781612cb4565b5090919050565b612ed561405f565b60408051602081019091526004548152612388908390612ef8565b519051111590565b612f0061405f565b6040805160208101909152825184518291670de0b6b3a764000091612f2491612c7a565b81612f2b57fe5b0490529392505050565b519051101590565b612f4561405f565b6000612f4f613617565b600154604051635b97aadd60e01b81529192506001600160a01b0380841692635b97aadd92612f829216906004016142fd565b60206040518083038186803b158015612f9a57600080fd5b505afa158015612fae573d6000803e3d6000fd5b505050506040513d601f19601f82011682018060405250810190612fd29190614218565b91505090565b612fe061405f565b6040805160208101909152825184518291612c5a9161300790670de0b6b3a7640000612c7a565b90613dc6565b600061301885612d6a565b604080516020810190915281548152909150613035908590613796565b801561305d575060408051602081019091526003820154815261305d908490611c3290612ecd565b156130725761306b8561379d565b5050612e0b565b61307c81846131cf565b5061308561405f565b60408051602081019091528254815261309e9086612e6d565b6040805160208101909152600d5481529091506130bc908290612f35565b6130d85760405162461bcd60e51b81526004016105bf90614799565b805182556040805160208101909152600283015481526130f89084612e6d565b516002830155604080516020810190915260075481526131189086612e6d565b51600755505050505050565b61312c61405f565b61313461405f565b60408051602081019091528454815261314c90612ecd565b905061315661405f565b61315f846131a5565b60408051602081019091528654815290915061317b9082612c37565b51808655604080516020810190915290815261319c90839061133a90612ecd565b95945050505050565b6131ad61405f565b60408051602081019091526004548152612388908390612fd8565b5190511190565b6131d761405f565b6131e4836003018361359a565b50612cb460088361359a565b600060055460ff16600281111561320357fe5b146106e45760405162461bcd60e51b81526004016105bf90614731565b6002546040516302abf57960e61b81526000916001600160a01b03169063aafd5e409061326b90762334b730b731b4b0b621b7b73a3930b1ba39a0b236b4b760491b90600401614539565b60206040518083038186803b15801561328357600080fd5b505afa158015613297573d6000803e3d6000fd5b505050506040513d601f19601f82011682018060405250810190611aac91906140e9565b60006132c5613e08565b600a546040516368ad8ae360e01b81529192506001600160a01b038316916368ad8ae3916132f7918690600401614542565b600060405180830381600087803b15801561331157600080fd5b505af1158015613325573d6000803e3d6000fd5b505050505050565b600061333982846133a7565b600181810154919250600160a01b90910460ff169081600481111561335a57fe5b118061338b5750613369610db3565b61337283613e42565b1115801561338b5750600181600481111561338957fe5b145b612e0b5760405162461bcd60e51b81526004016105bf906145ce565b6001600160a01b0382166000908152601060205260408120805483108015613405575060008184815481106133d857fe5b90600052602060002090600a020160010160149054906101000a900460ff16600481111561340257fe5b14155b6134215760405162461bcd60e51b81526004016105bf906147d0565b80838154811061342d57fe5b90600052602060002090600a020191505092915050565b600061345082846133a7565b905060026001820154600160a01b900460ff16600481111561346e57fe5b146134795750611d9e565b6134868160020154613ae7565b51600882015561349461405f565b6040805160208082018352600885015482528251908101909252600384015482526134bf9190612ef8565b90506134c961405f565b604080516020810190915260135481526134e4908390612ef8565b6040805160208101909152600585015481529091506000906135069083612f35565b905080613514576004613517565b60035b60018501805460ff60a01b1916600160a01b83600481111561353557fe5b0217905550600184015460078501546040516001600160a01b03928316928881169233927f6c5582199868fabbe697f9ea10abe481bacf53ac78c02a965b34dff82fd20e3b9261358a9216908c908890614407565b60405180910390a4505050505050565b6135a261405f565b6135aa61405f565b6040805160208101909152845481526135c290612ecd565b90506135cc61405f565b6135d5846131a5565b6040805160208101909152865481529091506135f19082612e6d565b51808655604080516020810190915290815261319c9061361090612ecd565b8390612e6d565b6002546040516302abf57960e61b81526000916001600160a01b03169063aafd5e409061326b906453746f726560d81b90600401614539565b600061365b82612bf2565b51835114905092915050565b61366f61405f565b6136798383613e5d565b90506136a261368c8261133a6001612bf2565b6040805160208101909152600454815290612ef8565b51600455505050565b600061372f82856001600160a01b031663dd62ed3e30876040518363ffffffff1660e01b81526004016136df92919061432a565b60206040518083038186803b1580156136f757600080fd5b505afa15801561370b573d6000803e3d6000fd5b505050506040513d601f19601f82011682018060405250810190610c8d91906141e5565b9050612e0b8463095ea7b360e01b8584604051602401612dd4929190614311565b61375861405f565b613765836003018361359a565b5061376f83613ee7565b61378b5760405162461bcd60e51b81526004016105bf90614a1b565b612cb460088361359a565b5190511490565b6137a561405f565b60006137b083612d6a565b90506137ba61405f565b604080516020810190915260085481526137d390612ecd565b90506137dd61405f565b5060408051602080820183526003850154825282519081019092526008548252906138089082612e6d565b51600855604080516020808201835285548252825190810190925260075482526138329190612e6d565b516007556001600160a01b038516600081815260066020526040808220828155600181018390556002810183905560038101839055600401829055517fcad20625296d189a6fc6e5b39d0d544e5bd99dbda0c8f2f0ecffef3e0fbcc2829190a26040805160208101909152600854815261319c9061361090612ecd565b60006138b961405f565b604080516020810190915260085481526138eb906138d690612ecd565b60408051602081019091526007548152613f1d565b90506138f561405f565b6138ff8585613f1d565b905061390b82826131c8565b1595945050505050565b600b54613920610db3565b10156106e45760405162461bcd60e51b81526004016105bf90614ae0565b613949816000613650565b1561395357611d9e565b6001600160a01b0382163014613986578051600154613981916001600160a01b039091169084903090612db3565b6139ca565b61398e61405f565b613996612e40565b90506139a281836131c8565b6139be5760405162461bcd60e51b81526004016105bf90614c93565b6139c88282613667565b505b80516040517f4f9bf7e8cd0f2456f9c43d2597bedcf1446c9c64544053f1ece6423ae9a07e5290600090a260006139ff613617565b8251600154919250613a1c916001600160a01b03169083906136ab565b60015460405163432ce91960e11b81526001600160a01b0383811692638659d23292613a50929091169086906004016143ed565b600060405180830381600087803b158015613a6a57600080fd5b505af1158015613a7e573d6000803e3d6000fd5b50505050505050565b6000613a9382846133a7565b9050613a9e81613e42565b613aa6610db3565b108015613acb5750600180820154600160a01b900460ff166004811115613ac957fe5b145b61063d5760405162461bcd60e51b81526004016105bf9061486e565b613aef61405f565b6000613af9613e08565b600a5460405163501f440d60e11b81529192506001600160a01b0383169163a03e881a91613b2b918790600401614542565b60206040518083038186803b158015613b4357600080fd5b505afa158015613b57573d6000803e3d6000fd5b505050506040513d601f19601f82011682018060405250810190613b7b91906141c5565b613b975760405162461bcd60e51b81526004016105bf90614768565b600a54604051636494078360e11b81526000916001600160a01b0384169163c9280f0691613bc9918890600401614542565b60206040518083038186803b158015613be157600080fd5b505afa158015613bf5573d6000803e3d6000fd5b505050506040513d601f19601f82011682018060405250810190613c1991906141e5565b90506000811215613c28575060005b60408051602081019091529081529392505050565b5190511090565b6001600160a01b03811660009081526006602090815260408083208151928301909152600301548152613c7b91906129c590612ecd565b61283e5760405162461bcd60e51b81526004016105bf90614837565b613ca9826001600160a01b0316613f4f565b613cc55760405162461bcd60e51b81526004016105bf90614c5c565b60006060836001600160a01b031683604051613ce191906142e1565b6000604051808303816000865af19150503d8060008114613d1e576040519150601f19603f3d011682016040523d82523d6000602084013e613d23565b606091505b509150915081613d455760405162461bcd60e51b81526004016105bf906146ce565b805115612e0b5780806020019051810190613d6091906141c5565b612e0b5760405162461bcd60e51b81526004016105bf90614b85565b611a9361405f565b6000612cb483836040518060400160405280601e81526020017f536166654d6174683a207375627472616374696f6e206f766572666c6f770000815250613f8b565b6000612cb483836040518060400160405280601a81526020017f536166654d6174683a206469766973696f6e206279207a65726f000000000000815250613fb7565b6002546040516302abf57960e61b81526000916001600160a01b03169063aafd5e409061326b90654f7261636c6560d01b90600401614539565b60006123886012548360020154612cbb90919063ffffffff16565b613e6561405f565b8251600090613e7c90670de0b6b3a7640000612c7a565b8351909150600090613e8f908390613dc6565b8451909150600090613ea2908490613fee565b90508015613ece57604080516020810190915280613ec1846001612cbb565b8152509350505050612388565b6040518060200160405280838152509350505050612388565b60408051602081019091526003820154815260009061238890613f0990612ecd565b6040805160208101909152845481526138af565b613f2561405f565b613f30826000612c20565b613f4557613f3e6000612bf2565b9050612388565b613f3e8383612fd8565b6000813f7fc5d2460186f7233c927e7db2dcc703c0e500b653ca82273b7bfad8045d85a470818114801590613f8357508115155b949350505050565b60008184841115613faf5760405162461bcd60e51b81526004016105bf9190614564565b505050900390565b60008183613fd85760405162461bcd60e51b81526004016105bf9190614564565b506000838581613fe457fe5b0495945050505050565b6000612cb483836040518060400160405280601881526020017f536166654d6174683a206d6f64756c6f206279207a65726f00000000000000008152506000818361404c5760405162461bcd60e51b81526004016105bf9190614564565b5082848161405657fe5b06949350505050565b6040518060200160405280600081525090565b600060208284031215611a7d578081fd5b600060208284031215614094578081fd5b61409e6020614d6f565b9135825250919050565b6000602082840312156140b9578081fd5b6140c36020614d6f565b9151825250919050565b6000602082840312156140de578081fd5b8135612cb481614dc2565b6000602082840312156140fa578081fd5b8151612cb481614dc2565b600080600080600060a0868803121561411c578081fd5b853561412781614dc2565b94506141368760208801614072565b93506141458760408801614072565b92506141548760608801614072565b949793965091946080013592915050565b60008060408385031215614177578182fd5b823561418281614dc2565b91506141918460208501614083565b90509250929050565b600080604083850312156141ac578182fd5b82356141b781614dc2565b946020939093013593505050565b6000602082840312156141d6578081fd5b81518015158114612cb4578182fd5b6000602082840312156141f6578081fd5b5051919050565b60006020828403121561420e578081fd5b612cb48383614083565b600060208284031215614229578081fd5b612cb483836140a8565b60008060408385031215614245578182fd5b6141828484614083565b60008060408385031215614261578182fd5b61426b84846140a8565b915061419184602085016140a8565b60006020828403121561428b578081fd5b5035919050565b600080604083850312156142a4578182fd5b8235915060208301356142b681614dc2565b809150509250929050565b6001600160a01b03169052565b600581106142d857fe5b9052565b519052565b600082516142f3818460208701614d96565b9190910192915050565b6001600160a01b0391909116815260200190565b6001600160a01b03929092168252602082015260400190565b6001600160a01b0392831681529116602082015260400190565b6001600160a01b038c811682528b166020820152610160810160058b1061436757fe5b8a604083015289606083015288516080830152875160a0830152865160c0830152855160e083015261439d6101008301866142c1565b6143ab6101208301856142dc565b6143b96101408301846142dc565b9c9b505050505050505050505050565b6001600160a01b039384168152919092166020820152604081019190915260600190565b6001600160a01b0392909216825251602082015260400190565b6001600160a01b0393909316835260208301919091521515604082015260600190565b602080825282518282018190526000919060409081850190868401855b8281101561452c57815161445c8582516142c1565b8681015161446c888701826142c1565b508581015161447d878701826142ce565b506060818101519086015260808082015161449a828801826142dc565b505060a0808201516144ae828801826142dc565b505060c0808201516144c2828801826142dc565b505060e0808201516144d6828801826142dc565b5050610100808201516144eb828801826142c1565b505061012080820151614500828801826142dc565b50506101409081015190614516868201836142dc565b5050610160939093019290850190600101614447565b5091979650505050505050565b90815260200190565b918252602082015260400190565b602081016003831061455e57fe5b91905290565b6000602082528251806020840152614583816040850160208701614d96565b601f01601f19169190910160400192915050565b60208082526019908201527f496e76616c6964207769746864726177616c20616d6f756e7400000000000000604082015260600190565b6020808252601c908201527f4c69717569646174696f6e206e6f7420776974686472617761626c6500000000604082015260600190565b6020808252601e908201527f43616c6c65722063616e6e6f7420776974686472617720726577617264730000604082015260600190565b6020808252601b908201527f536166654d6174683a206164646974696f6e206f766572666c6f770000000000604082015260600190565b6020808252601390820152722737903832b73234b733903a3930b739b332b960691b604082015260600190565b6020808252601490820152734d696e656420616674657220646561646c696e6560601b604082015260600190565b6020808252818101527f5361666545524332303a206c6f772d6c6576656c2063616c6c206661696c6564604082015260600190565b602080825260149082015273125b9d985b1a59081d1bdad95b88185b5bdd5b9d60621b604082015260600190565b6020808252601a908201527f436f6e7472616374207374617465206973206e6f74204f50454e000000000000604082015260600190565b602080825260179082015276556e7265736f6c766564206f7261636c6520707269636560481b604082015260600190565b6020808252601e908201527f42656c6f77206d696e696d756d2073706f6e736f7220706f736974696f6e0000604082015260600190565b602080825260169082015275125b9d985b1a59081b1a5c5d5a59185d1a5bdb88125160521b604082015260600190565b60208082526019908201527f496e76616c696420636f6c6c61746572616c20616d6f756e7400000000000000604082015260600190565b6020808252601a908201527f506f736974696f6e20686173206e6f20636f6c6c61746572616c000000000000604082015260600190565b6020808252601a908201527f4c69717569646174696f6e206e6f742064697370757461626c65000000000000604082015260600190565b60208082526021908201527f536166654d6174683a206d756c7469706c69636174696f6e206f766572666c6f6040820152607760f81b606082015260800190565b60208082526012908201527114195b991a5b99c81dda5d1a191c985dd85b60721b604082015260600190565b60208082526018908201527f496e76616c696420776974686472617720726571756573740000000000000000604082015260600190565b60208082526018908201527f496e76616c6964207472616e7366657220726571756573740000000000000000604082015260600190565b60208082526013908201527221b0b63632b9103737ba1023b7bb32b93737b960691b604082015260600190565b6020808252601f908201527f4d696e74696e672073796e74686574696320746f6b656e73206661696c656400604082015260600190565b6020808252601e908201527f4352206973206d6f7265207468616e206d6178206c69712e2070726963650000604082015260600190565b6020808252600c908201526b21a9103132b637bb9023a1a960a11b604082015260600190565b602080825260179082015276125b9cdd59999a58da595b9d0818dbdb1b185d195c985b604a1b604082015260600190565b6020808252601c908201527f53706f6e736f7220616c72656164792068617320706f736974696f6e00000000604082015260600190565b60208082526018908201527f4f6e6c792063616c6c61626c65207072652d6578706972790000000000000000604082015260600190565b60208082526019908201527f4f6e6c792063616c6c61626c6520706f73742d65787069727900000000000000604082015260600190565b6020808252601b908201527f52657175657374206578706972657320706f73742d6578706972790000000000604082015260600190565b6020808252601e908201527f4352206973206c657373207468616e206d696e206c69712e2070726963650000604082015260600190565b6020808252602a908201527f5361666545524332303a204552433230206f7065726174696f6e20646964206e6040820152691bdd081cdd58d8d9595960b21b606082015260800190565b6020808252601f908201527f5265656e7472616e637947756172643a207265656e7472616e742063616c6c00604082015260600190565b6020808252601290820152712ab732bc3834b932b2103837b9b4ba34b7b760711b604082015260600190565b60208082526010908201526f2832b73234b733903a3930b739b332b960811b604082015260600190565b6020808252601f908201527f5361666545524332303a2063616c6c20746f206e6f6e2d636f6e747261637400604082015260600190565b6020808252601a908201527f46696e616c20666565206973206d6f7265207468616e20506643000000000000604082015260600190565b602080825260159082015274139bc81c195b991a5b99c81dda5d1a191c985dd85b605a1b604082015260600190565b9051815260200190565b94518552602085019390935290516040840152516060830152608082015260a00190565b9283529051602083015251604082015260600190565b928352602083019190915251604082015260600190565b93845260208401929092526040830152606082015260800190565b60405181810167ffffffffffffffff81118282101715614d8e57600080fd5b604052919050565b60005b83811015614db1578181015183820152602001614d99565b83811115612e0b5750506000910152565b6001600160a01b038116811461283e57600080fdfea2646970667358221220352077544b60837a2d6a55e4e1202c9891c6f865fcd1687d615b2b2f11afb95e64736f6c634300060c0033",
  "immutableReferences": {},
  "source": "pragma solidity ^0.6.0;\npragma experimental ABIEncoderV2;\n\nimport \"./Liquidatable.sol\";\n\n\n/**\n * @title Expiring Multi Party.\n * @notice Convenient wrapper for Liquidatable.\n */\ncontract ExpiringMultiParty is Liquidatable {\n    /**\n     * @notice Constructs the ExpiringMultiParty contract.\n     * @param params struct to define input parameters for construction of Liquidatable. Some params\n     * are fed directly into the PricelessPositionManager's constructor within the inheritance tree.\n     */\n    constructor(ConstructorParams memory params)\n        public\n        Liquidatable(params)\n    // Note: since there is no logic here, there is no need to add a re-entrancy guard.\n    {\n\n    }\n}\n",
  "sourcePath": "/home/circleci/protocol/packages/core/contracts/financial-templates/expiring-multiparty/ExpiringMultiParty.sol",
  "compiler": {
    "name": "solc",
    "version": "0.6.12+commit.27d51765.Emscripten.clang"
  },
  "schemaVersion": "3.2.3",
  "updatedAt": "2020-10-06T21:03:39.037Z",
  "devdoc": {
    "kind": "dev",
    "methods": {
      "constructor": {
        "params": {
          "params": "struct to define input parameters for construction of Liquidatable. Some params are fed directly into the PricelessPositionManager's constructor within the inheritance tree."
        }
      },
      "create((uint256),(uint256))": {
        "details": "Reverts if minting these tokens would put the position's collateralization ratio below the global collateralization ratio. This contract must be approved to spend at least `collateralAmount` of `collateralCurrency`.",
        "params": {
          "collateralAmount": "is the number of collateral tokens to collateralize the position with",
          "numTokens": "is the number of tokens to mint from the position."
        }
      },
      "createLiquidation(address,(uint256),(uint256),(uint256),uint256)": {
        "details": "This method generates an ID that will uniquely identify liquidation for the sponsor. This contract must be approved to spend at least `tokensLiquidated` of `tokenCurrency` and at least `finalFeeBond` of `collateralCurrency`.",
        "params": {
          "deadline": "abort the liquidation if the transaction is mined after this timestamp.",
          "maxCollateralPerToken": "abort the liquidation if the position's collateral per token exceeds this value.",
          "maxTokensToLiquidate": "max number of tokens to liquidate.",
          "minCollateralPerToken": "abort the liquidation if the position's collateral per token is below this value.",
          "sponsor": "address of the sponsor to liquidate."
        },
        "returns": {
          "finalFeeBond": "amount of collateral to be posted by liquidator and returned if not disputed successfully.",
          "liquidationId": "ID of the newly created liquidation.",
          "tokensLiquidated": "amount of synthetic tokens removed and liquidated from the `sponsor`'s position."
        }
      },
      "deposit((uint256))": {
        "details": "Increases the collateralization level of a position after creation. This contract must be approved to spend at least `collateralAmount` of `collateralCurrency`.",
        "params": {
          "collateralAmount": "total amount of collateral tokens to be sent to the sponsor's position."
        }
      },
      "depositTo(address,(uint256))": {
        "details": "Increases the collateralization level of a position after creation. This contract must be approved to spend at least `collateralAmount` of `collateralCurrency`.",
        "params": {
          "collateralAmount": "total amount of collateral tokens to be sent to the sponsor's position.",
          "sponsor": "the sponsor to credit the deposit to."
        }
      },
      "dispute(uint256,address)": {
        "details": "Can only dispute a liquidation before the liquidation expires and if there are no other pending disputes. This contract must be approved to spend at least the dispute bond amount of `collateralCurrency`. This dispute bond amount is calculated from `disputeBondPct` times the collateral in the liquidation.",
        "params": {
          "liquidationId": "of the disputed liquidation.",
          "sponsor": "the address of the sponsor whose liquidation is being disputed."
        },
        "returns": {
          "totalPaid": "amount of collateral charged to disputer (i.e. final fee bond + dispute bond)."
        }
      },
      "emergencyShutdown()": {
        "details": "Only the governor can call this function as they are permissioned within the `FinancialContractAdmin`. Upon emergency shutdown, the contract settlement time is set to the shutdown time. This enables withdrawal to occur via the standard `settleExpired` function. Contract state is set to `ExpiredPriceRequested` which prevents re-entry into this function or the `expire` function. No fees are paid when calling `emergencyShutdown` as the governor who would call the function would also receive the fees."
      },
      "expire()": {
        "details": "this function can only be called once the contract is expired and can't be re-called."
      },
      "getCollateral(address)": {
        "details": "This is necessary because the struct returned by the positions() method shows rawCollateral, which isn't a user-readable value.",
        "params": {
          "sponsor": "address whose collateral amount is retrieved."
        },
        "returns": {
          "collateralAmount": "amount of collateral within a sponsors position."
        }
      },
      "getCurrentTime()": {
        "returns": {
          "_0": "uint for the current Testable timestamp."
        }
      },
      "getLiquidations(address)": {
        "params": {
          "sponsor": "address of the position sponsor."
        },
        "returns": {
          "liquidationData": "array of all liquidation information for the given sponsor address."
        }
      },
      "payRegularFees()": {
        "details": "These must be paid periodically for the life of the contract. If the contract has not paid its regular fee in a week or more then a late penalty is applied which is sent to the caller. If the amount of fees owed are greater than the pfc, then this will pay as much as possible from the available collateral. An event is only fired if the fees charged are greater than 0.",
        "returns": {
          "totalPaid": "Amount of collateral that the contract paid (sum of the amount paid to the Store and caller). This returns 0 and exit early if there is no pfc, fees were already paid during the current block, or the fee rate is 0."
        }
      },
      "pfc()": {
        "details": "This is equivalent to the collateral pool available from which to pay fees. Therefore, derived contracts are expected to implement this so that pay-fee methods can correctly compute the owed fees as a % of PfC.",
        "returns": {
          "_0": "pfc value for equal to the current profit from corruption denominated in collateral currency."
        }
      },
      "redeem((uint256))": {
        "details": "Can only be called by a token sponsor. Might not redeem the full proportional amount of collateral in order to account for precision loss. This contract must be approved to spend at least `numTokens` of `tokenCurrency`.",
        "params": {
          "numTokens": "is the number of tokens to be burnt for a commensurate amount of collateral."
        },
        "returns": {
          "amountWithdrawn": "The actual amount of collateral withdrawn."
        }
      },
      "remargin()": {
        "details": "This is supposed to be implemented by any contract that inherits `AdministrateeInterface` and callable only by the Governor contract. This method is therefore minimally implemented in this contract and does nothing."
      },
      "requestTransferPosition()": {
        "details": "The liveness length is the same as the withdrawal liveness."
      },
      "requestWithdrawal((uint256))": {
        "details": "The request will be pending for `withdrawalLiveness`, during which the position can be liquidated.",
        "params": {
          "collateralAmount": "the amount of collateral requested to withdraw"
        }
      },
      "setCurrentTime(uint256)": {
        "details": "Will revert if not running in test mode.",
        "params": {
          "time": "timestamp to set current Testable time to."
        }
      },
      "settleExpired()": {
        "details": "This burns all tokens from the caller of `tokenCurrency` and sends back the proportional amount of `collateralCurrency`. Might not redeem the full proportional amount of collateral in order to account for precision loss. This contract must be approved to spend `tokenCurrency` at least up to the caller's full balance.",
        "returns": {
          "amountWithdrawn": "The actual amount of collateral withdrawn."
        }
      },
      "totalPositionCollateral()": {
        "returns": {
          "totalCollateral": "amount of all collateral within the Expiring Multi Party Contract."
        }
      },
      "transferPositionPassedRequest(address)": {
        "details": "Transferring positions can only occur if the recipient does not already have a position.",
        "params": {
          "newSponsorAddress": "is the address to which the position will be transferred."
        }
      },
      "trimExcess(address)": {
        "details": "This will drain down to the amount of tracked collateral and drain the full balance of any other token.",
        "params": {
          "token": "address of the ERC20 token whose excess balance should be drained."
        }
      },
      "withdraw((uint256))": {
        "details": "Reverts if the withdrawal puts this position's collateralization ratio below the global collateralization ratio. In that case, use `requestWithdrawal`. Might not withdraw the full requested amount to account for precision loss.",
        "params": {
          "collateralAmount": "is the amount of collateral to withdraw."
        },
        "returns": {
          "amountWithdrawn": "The actual amount of collateral withdrawn."
        }
      },
      "withdrawLiquidation(uint256,address)": {
        "details": "If the dispute SUCCEEDED: the sponsor, liquidator, and disputer are eligible for payment. If the dispute FAILED: only the liquidator can receive payment. Once all collateral is withdrawn, delete the liquidation data.",
        "params": {
          "liquidationId": "uniquely identifies the sponsor's liquidation.",
          "sponsor": "address of the sponsor associated with the liquidation."
        },
        "returns": {
          "amountWithdrawn": "the total amount of underlying returned from the liquidation."
        }
      },
      "withdrawPassedRequest()": {
        "details": "Might not withdraw the full requested amount in order to account for precision loss or if the full requested amount exceeds the collateral in the position (due to paying fees).",
        "returns": {
          "amountWithdrawn": "The actual amount of collateral withdrawn."
        }
      }
    },
    "title": "Expiring Multi Party.",
    "version": 1
  },
  "userdoc": {
    "kind": "user",
    "methods": {
      "cancelTransferPosition()": {
        "notice": "Cancels a pending transfer position request."
      },
      "cancelWithdrawal()": {
        "notice": "Cancels a pending withdrawal request."
      },
      "constructor": "Constructs the ExpiringMultiParty contract.",
      "create((uint256),(uint256))": {
        "notice": "Creates tokens by creating a new position or by augmenting an existing position. Pulls `collateralAmount` into the sponsor's position and mints `numTokens` of `tokenCurrency`."
      },
      "createLiquidation(address,(uint256),(uint256),(uint256),uint256)": {
        "notice": "Liquidates the sponsor's position if the caller has enough synthetic tokens to retire the position's outstanding tokens. Liquidations above a minimum size also reset an ongoing \"slow withdrawal\"'s liveness."
      },
      "deposit((uint256))": {
        "notice": "Transfers `collateralAmount` of `collateralCurrency` into the caller's position."
      },
      "depositTo(address,(uint256))": {
        "notice": "Transfers `collateralAmount` of `collateralCurrency` into the specified sponsor's position."
      },
      "dispute(uint256,address)": {
        "notice": "Disputes a liquidation, if the caller has enough collateral to post a dispute bond and pay a fixed final fee charged on each price request."
      },
      "emergencyShutdown()": {
        "notice": "Premature contract settlement under emergency circumstances."
      },
      "expire()": {
        "notice": "Locks contract state in expired and requests oracle price."
      },
      "getCollateral(address)": {
        "notice": "Accessor method for a sponsor's collateral."
      },
      "getCurrentTime()": {
        "notice": "Gets the current time. Will return the last time set in `setCurrentTime` if running in test mode. Otherwise, it will return the block timestamp."
      },
      "getLiquidations(address)": {
        "notice": "Gets all liquidation information for a given sponsor address."
      },
      "payRegularFees()": {
        "notice": "Pays UMA DVM regular fees (as a % of the collateral pool) to the Store contract."
      },
      "pfc()": {
        "notice": "Gets the current profit from corruption for this contract in terms of the collateral currency."
      },
      "redeem((uint256))": {
        "notice": "Burns `numTokens` of `tokenCurrency` and sends back the proportional amount of `collateralCurrency`."
      },
      "remargin()": {
        "notice": "Theoretically supposed to pay fees and move money between margin accounts to make sure they reflect the NAV of the contract. However, this functionality doesn't apply to this contract."
      },
      "requestTransferPosition()": {
        "notice": "Requests to transfer ownership of the caller's current position to a new sponsor address. Once the request liveness is passed, the sponsor can execute the transfer and specify the new sponsor."
      },
      "requestWithdrawal((uint256))": {
        "notice": "Starts a withdrawal request that, if passed, allows the sponsor to withdraw` from their position."
      },
      "setCurrentTime(uint256)": {
        "notice": "Sets the current time."
      },
      "settleExpired()": {
        "notice": "After a contract has passed expiry all token holders can redeem their tokens for underlying at the prevailing price defined by the DVM from the `expire` function."
      },
      "totalPositionCollateral()": {
        "notice": "Accessor method for the total collateral stored within the PricelessPositionManager."
      },
      "transferPositionPassedRequest(address)": {
        "notice": "After a passed transfer position request (i.e., by a call to `requestTransferPosition` and waiting `withdrawalLiveness`), transfers ownership of the caller's current position to `newSponsorAddress`."
      },
      "trimExcess(address)": {
        "notice": "Drains any excess balance of the provided ERC20 token to a pre-selected beneficiary."
      },
      "withdraw((uint256))": {
        "notice": "Transfers `collateralAmount` of `collateralCurrency` from the sponsor's position to the sponsor."
      },
      "withdrawLiquidation(uint256,address)": {
        "notice": "After a dispute has settled or after a non-disputed liquidation has expired, the sponsor, liquidator, and/or disputer can call this method to receive payments."
      },
      "withdrawPassedRequest()": {
        "notice": "After a passed withdrawal request (i.e., by a call to `requestWithdrawal` and waiting `withdrawalLiveness`), withdraws `positionData.withdrawalRequestAmount` of collateral currency."
      }
    },
    "notice": "Convenient wrapper for Liquidatable.",
    "version": 1
  }
}