{
  "contractName": "Registry",
  "abi": [
    {
      "inputs": [],
      "stateMutability": "nonpayable",
      "type": "constructor"
    },
    {
      "anonymous": false,
      "inputs": [
        {
          "indexed": true,
          "internalType": "uint256",
          "name": "roleId",
          "type": "uint256"
        },
        {
          "indexed": true,
          "internalType": "address",
          "name": "newMember",
          "type": "address"
        },
        {
          "indexed": true,
          "internalType": "address",
          "name": "manager",
          "type": "address"
        }
      ],
      "name": "AddedSharedMember",
      "type": "event"
    },
    {
      "anonymous": false,
      "inputs": [
        {
          "indexed": true,
          "internalType": "address",
          "name": "contractAddress",
          "type": "address"
        },
        {
          "indexed": true,
          "internalType": "address",
          "name": "creator",
          "type": "address"
        },
        {
          "indexed": false,
          "internalType": "address[]",
          "name": "parties",
          "type": "address[]"
        }
      ],
      "name": "NewContractRegistered",
      "type": "event"
    },
    {
      "anonymous": false,
      "inputs": [
        {
          "indexed": true,
          "internalType": "address",
          "name": "contractAddress",
          "type": "address"
        },
        {
          "indexed": true,
          "internalType": "address",
          "name": "party",
          "type": "address"
        }
      ],
      "name": "PartyAdded",
      "type": "event"
    },
    {
      "anonymous": false,
      "inputs": [
        {
          "indexed": true,
          "internalType": "address",
          "name": "contractAddress",
          "type": "address"
        },
        {
          "indexed": true,
          "internalType": "address",
          "name": "party",
          "type": "address"
        }
      ],
      "name": "PartyRemoved",
      "type": "event"
    },
    {
      "anonymous": false,
      "inputs": [
        {
          "indexed": true,
          "internalType": "uint256",
          "name": "roleId",
          "type": "uint256"
        },
        {
          "indexed": true,
          "internalType": "address",
          "name": "oldMember",
          "type": "address"
        },
        {
          "indexed": true,
          "internalType": "address",
          "name": "manager",
          "type": "address"
        }
      ],
      "name": "RemovedSharedMember",
      "type": "event"
    },
    {
      "anonymous": false,
      "inputs": [
        {
          "indexed": true,
          "internalType": "uint256",
          "name": "roleId",
          "type": "uint256"
        },
        {
          "indexed": true,
          "internalType": "address",
          "name": "newMember",
          "type": "address"
        },
        {
          "indexed": true,
          "internalType": "address",
          "name": "manager",
          "type": "address"
        }
      ],
      "name": "ResetExclusiveMember",
      "type": "event"
    },
    {
      "inputs": [
        {
          "internalType": "uint256",
          "name": "roleId",
          "type": "uint256"
        },
        {
          "internalType": "address",
          "name": "newMember",
          "type": "address"
        }
      ],
      "name": "addMember",
      "outputs": [],
      "stateMutability": "nonpayable",
      "type": "function"
    },
    {
      "inputs": [
        {
          "internalType": "address",
          "name": "",
          "type": "address"
        }
      ],
      "name": "contractMap",
      "outputs": [
        {
          "internalType": "enum Registry.Validity",
          "name": "valid",
          "type": "uint8"
        },
        {
          "internalType": "uint128",
          "name": "index",
          "type": "uint128"
        }
      ],
      "stateMutability": "view",
      "type": "function"
    },
    {
      "inputs": [
        {
          "internalType": "uint256",
          "name": "roleId",
          "type": "uint256"
        }
      ],
      "name": "getMember",
      "outputs": [
        {
          "internalType": "address",
          "name": "",
          "type": "address"
        }
      ],
      "stateMutability": "view",
      "type": "function"
    },
    {
      "inputs": [
        {
          "internalType": "uint256",
          "name": "roleId",
          "type": "uint256"
        },
        {
          "internalType": "address",
          "name": "memberToCheck",
          "type": "address"
        }
      ],
      "name": "holdsRole",
      "outputs": [
        {
          "internalType": "bool",
          "name": "",
          "type": "bool"
        }
      ],
      "stateMutability": "view",
      "type": "function"
    },
    {
      "inputs": [
        {
          "internalType": "uint256",
          "name": "",
          "type": "uint256"
        }
      ],
      "name": "registeredContracts",
      "outputs": [
        {
          "internalType": "address",
          "name": "",
          "type": "address"
        }
      ],
      "stateMutability": "view",
      "type": "function"
    },
    {
      "inputs": [
        {
          "internalType": "uint256",
          "name": "roleId",
          "type": "uint256"
        },
        {
          "internalType": "address",
          "name": "memberToRemove",
          "type": "address"
        }
      ],
      "name": "removeMember",
      "outputs": [],
      "stateMutability": "nonpayable",
      "type": "function"
    },
    {
      "inputs": [
        {
          "internalType": "uint256",
          "name": "roleId",
          "type": "uint256"
        }
      ],
      "name": "renounceMembership",
      "outputs": [],
      "stateMutability": "nonpayable",
      "type": "function"
    },
    {
      "inputs": [
        {
          "internalType": "uint256",
          "name": "roleId",
          "type": "uint256"
        },
        {
          "internalType": "address",
          "name": "newMember",
          "type": "address"
        }
      ],
      "name": "resetMember",
      "outputs": [],
      "stateMutability": "nonpayable",
      "type": "function"
    },
    {
      "inputs": [
        {
          "internalType": "address[]",
          "name": "parties",
          "type": "address[]"
        },
        {
          "internalType": "address",
          "name": "contractAddress",
          "type": "address"
        }
      ],
      "name": "registerContract",
      "outputs": [],
      "stateMutability": "nonpayable",
      "type": "function"
    },
    {
      "inputs": [
        {
          "internalType": "address",
          "name": "party",
          "type": "address"
        }
      ],
      "name": "addPartyToContract",
      "outputs": [],
      "stateMutability": "nonpayable",
      "type": "function"
    },
    {
      "inputs": [
        {
          "internalType": "address",
          "name": "partyAddress",
          "type": "address"
        }
      ],
      "name": "removePartyFromContract",
      "outputs": [],
      "stateMutability": "nonpayable",
      "type": "function"
    },
    {
      "inputs": [
        {
          "internalType": "address",
          "name": "contractAddress",
          "type": "address"
        }
      ],
      "name": "isContractRegistered",
      "outputs": [
        {
          "internalType": "bool",
          "name": "",
          "type": "bool"
        }
      ],
      "stateMutability": "view",
      "type": "function"
    },
    {
      "inputs": [
        {
          "internalType": "address",
          "name": "party",
          "type": "address"
        }
      ],
      "name": "getRegisteredContracts",
      "outputs": [
        {
          "internalType": "address[]",
          "name": "",
          "type": "address[]"
        }
      ],
      "stateMutability": "view",
      "type": "function"
    },
    {
      "inputs": [],
      "name": "getAllRegisteredContracts",
      "outputs": [
        {
          "internalType": "address[]",
          "name": "",
          "type": "address[]"
        }
      ],
      "stateMutability": "view",
      "type": "function"
    },
    {
      "inputs": [
        {
          "internalType": "address",
          "name": "party",
          "type": "address"
        },
        {
          "internalType": "address",
          "name": "contractAddress",
          "type": "address"
        }
      ],
      "name": "isPartyMemberOfContract",
      "outputs": [
        {
          "internalType": "bool",
          "name": "",
          "type": "bool"
        }
      ],
      "stateMutability": "view",
      "type": "function"
    }
  ],
  "bytecode": "0x60806040523480156200001157600080fd5b50620000206000803362000044565b604080516000808252602082019092526200003e9160019162000117565b62000407565b826000808281526020819052604090206001015460ff1660028111156200006757fe5b14620000905760405162461bcd60e51b8152600401620000879062000341565b60405180910390fd5b60008481526020819052604090206001808201805460ff191682800217905550838155620000ce6002820184620001d9602090811b62000bc917901c565b60008481526020819052604081206001015460ff166002811115620000ef57fe5b1415620001105760405162461bcd60e51b81526004016200008790620002f5565b5050505050565b826000808281526020819052604090206001015460ff1660028111156200013a57fe5b146200015a5760405162461bcd60e51b8152600401620000879062000341565b60008481526020818152604090912060018101805460ff191660021790558481559062000197906003830190859062000bd3620001e9821b17901c565b60008481526020819052604081206001015460ff166002811115620001b857fe5b1415620001105760405162461bcd60e51b81526004016200008790620003bb565b620001e582826200022a565b5050565b60005b815181101562000225576200021c838383815181106200020857fe5b60200260200101516200027060201b60201c565b600101620001ec565b505050565b6001600160a01b038116620002535760405162461bcd60e51b8152600401620000879062000378565b81546001600160a01b0319166001600160a01b0391909116179055565b6001600160a01b038116620002995760405162461bcd60e51b81526004016200008790620002be565b6001600160a01b0316600090815260209190915260409020805460ff19166001179055565b6020808252601f908201527f43616e6e6f74206164642030783020746f20612073686172656420726f6c6500604082015260600190565b6020808252603c908201526000805160206200180483398151915260408201527f20746f206d616e61676520616e206578636c757369766520726f6c6500000000606082015260800190565b6020808252601e908201527f43616e6e6f74207573652061207072652d6578697374696e6720726f6c650000604082015260600190565b60208082526023908201527f43616e6e6f742073657420616e206578636c757369766520726f6c6520746f2060408201526203078360ec1b606082015260800190565b60208082526038908201526000805160206200180483398151915260408201527f20746f206d616e61676520612073686172656420726f6c650000000000000000606082015260800190565b6113ed80620004176000396000f3fe608060405234801561001057600080fd5b50600436106100f55760003560e01c806374d0a67611610097578063ab3545e511610066578063ab3545e5146101f3578063d97c05be14610213578063e33c4cd214610226578063f9f6b49b14610239576100f5565b806374d0a6761461019a5780637a3edab0146101ad5780637cdc1cb9146101cd578063aaa14ca3146101e0576100f5565b8063303118d0116100d3578063303118d0146101405780633c0af3441461015357806366c8c250146101745780636be7658b14610187576100f5565b80631676ddc3146100fa578063167cdde714610118578063188c6ff81461012d575b600080fd5b61010261024c565b60405161010f9190610fb0565b60405180910390f35b61012b610126366004610e45565b6102ae565b005b61010261013b366004610e45565b610302565b61012b61014e366004610e45565b610378565b610166610161366004610e45565b610530565b60405161010f929190611008565b61012b610182366004610e94565b610555565b61012b610195366004610f2b565b6106e7565b61012b6101a8366004610f2b565b6107b7565b6101c06101bb366004610e60565b610887565b60405161010f9190610ffd565b6101c06101db366004610f2b565b61090a565b61012b6101ee366004610f13565b610987565b610206610201366004610f13565b610a3d565b60405161010f9190610f4e565b61012b610221366004610f2b565b610aa0565b610206610234366004610f13565b610b70565b6101c0610247366004610e45565b610b97565b606060018054806020026020016040519081016040528092919081815260200182805480156102a457602002820191906000526020600020905b81546001600160a01b03168152600190910190602001808311610286575b5050505050905090565b3360008181526002602052604090205460019060ff16818111156102ce57fe5b146102f45760405162461bcd60e51b81526004016102eb906111a5565b60405180910390fd5b6102fe8282610c09565b5050565b6001600160a01b03811660009081526003602090815260409182902080548351818402810184019094528084526060939283018282801561036c57602002820191906000526020600020905b81546001600160a01b0316815260019091019060200180831161034e575b50505050509050919050565b6001600160a01b03811660009081526003602052604090208054339190806103b25760405162461bcd60e51b81526004016102eb90611175565b60016001600160a01b03841660009081526002602052604090205460ff1660018111156103db57fe5b146103f85760405162461bcd60e51b81526004016102eb906110b8565b6104028484610887565b61041e5760405162461bcd60e51b81526004016102eb90611380565b6001600160a01b038316600090815260018301602052604081205483549091908490600019850190811061044e57fe5b60009182526020909120015484546001600160a01b039091169150819085908490811061047757fe5b600091825260208083209190910180546001600160a01b0319166001600160a01b039485161790559183168152600186019091526040902082905583548490806104bd57fe5b60008281526020808220830160001990810180546001600160a01b03191690559092019092556001600160a01b0387811680845260018801909252604080842084905551908916927f8e0a870c3ff65bd1f2852048eb92d693833891a8c0ab0827347177544464c57091a3505050505050565b60026020526000908152604090205460ff81169061010090046001600160801b031682565b6001610561813361090a565b61057d5760405162461bcd60e51b81526004016102eb90611228565b6001600160a01b0382166000908152600260205260408120805490919060ff1660018111156105a857fe5b146105c55760405162461bcd60e51b81526004016102eb90611328565b60018054808201825560008290527fb10e2d527612073b26eecdfd717e6a320cf44b4afac2b0732d9fcbe2b7fa0cf60180546001600160a01b0319166001600160a01b038616179055805461061991610cac565b815460016001600160801b03929092166101000270ffffffffffffffffffffffffffffffff00199091161760ff191617815560005b848110156106925761068086868381811061066557fe5b905060200201602081019061067a9190610e45565b85610c09565b61068b816001610cee565b905061064e565b50336001600160a01b0316836001600160a01b03167f1b0bc775e5162f873356bcc1733155bd2eb9509f1774770f54b4f938287bcf0387876040516106d8929190610f62565b60405180910390a35050505050565b81600260008281526020819052604090206001015460ff16600281111561070a57fe5b146107275760405162461bcd60e51b81526004016102eb906111dc565b6000838152602081905260409020548390610742903361090a565b61075e5760405162461bcd60e51b81526004016102eb906112e4565b60008481526020819052604090206107799060030184610d13565b60405133906001600160a01b0385169086907feb3e33034c392e69263b04ec0fa376dc12784a41b6676c7f31b936cbc0fbb5af90600090a450505050565b81600260008281526020819052604090206001015460ff1660028111156107da57fe5b146107f75760405162461bcd60e51b81526004016102eb906111dc565b6000838152602081905260409020548390610812903361090a565b61082e5760405162461bcd60e51b81526004016102eb906112e4565b60008481526020819052604090206108499060030184610d35565b60405133906001600160a01b0385169086907f63502af7324ff6db91ab38f8236a648727d9385ea6c782073dd4882d8a61a48f90600090a450505050565b6001600160a01b03808316600081815260036020818152604080842095871684526001860182528320549383525291548110801561090057506001600160a01b038481166000908152600360205260409020805491851691839081106108e957fe5b6000918252602090912001546001600160a01b0316145b9150505b92915050565b600082815260208190526040812060018082015460ff16600281111561092c57fe5b14156109475761093f6002820184610d80565b915050610904565b6002600182015460ff16600281111561095c57fe5b141561096f5761093f6003820184610d93565b60405162461bcd60e51b81526004016102eb90611358565b80600260008281526020819052604090206001015460ff1660028111156109aa57fe5b146109c75760405162461bcd60e51b81526004016102eb906111dc565b816109d2813361090a565b6109ee5760405162461bcd60e51b81526004016102eb90611228565b6000838152602081905260409020610a099060030133610d13565b6040513390819085907feb3e33034c392e69263b04ec0fa376dc12784a41b6676c7f31b936cbc0fbb5af90600090a4505050565b600081600160008281526020819052604090206001015460ff166002811115610a6257fe5b14610a7f5760405162461bcd60e51b81526004016102eb90611126565b6000838152602081905260409020610a9990600201610db2565b9392505050565b81600160008281526020819052604090206001015460ff166002811115610ac357fe5b14610ae05760405162461bcd60e51b81526004016102eb90611126565b6000838152602081905260409020548390610afb903361090a565b610b175760405162461bcd60e51b81526004016102eb906112e4565b6000848152602081905260409020610b329060020184610dbf565b60405133906001600160a01b0385169086907f3b855c56b409b671c7112789d022675eb639d0bcb8896f1b6197c132f799e74690600090a450505050565b60018181548110610b7d57fe5b6000918252602090912001546001600160a01b0316905081565b600060016001600160a01b03831660009081526002602052604090205460ff166001811115610bc257fe5b1492915050565b6102fe8282610dbf565b60005b8151811015610c0457610bfc83838381518110610bef57fe5b6020026020010151610d35565b600101610bd6565b505050565b610c138282610887565b15610c305760405162461bcd60e51b81526004016102eb9061126a565b6001600160a01b038281166000818152600360209081526040808320805460018082018355828652848620820180546001600160a01b031916988a169889179055878652909101909252808320829055519093917f4b920dd33e12e37712086438f2afcecb921cefe83b717ca990222f53d7e2845491a3505050565b6000610a9983836040518060400160405280601e81526020017f536166654d6174683a207375627472616374696f6e206f766572666c6f770000815250610e02565b600082820183811015610a995760405162461bcd60e51b81526004016102eb906110ef565b6001600160a01b0316600090815260209190915260409020805460ff19169055565b6001600160a01b038116610d5b5760405162461bcd60e51b81526004016102eb90611081565b6001600160a01b0316600090815260209190915260409020805460ff19166001179055565b90546001600160a01b0391821691161490565b6001600160a01b03166000908152602091909152604090205460ff1690565b546001600160a01b031690565b6001600160a01b038116610de55760405162461bcd60e51b81526004016102eb906112a1565b81546001600160a01b0319166001600160a01b0391909116179055565b60008184841115610e265760405162461bcd60e51b81526004016102eb919061102e565b505050900390565b80356001600160a01b038116811461090457600080fd5b600060208284031215610e56578081fd5b610a998383610e2e565b60008060408385031215610e72578081fd5b610e7c8484610e2e565b9150610e8b8460208501610e2e565b90509250929050565b600080600060408486031215610ea8578081fd5b833567ffffffffffffffff80821115610ebf578283fd5b818601915086601f830112610ed2578283fd5b813581811115610ee0578384fd5b8760208083028501011115610ef3578384fd5b602092830195509350610f0a918791508601610e2e565b90509250925092565b600060208284031215610f24578081fd5b5035919050565b60008060408385031215610f3d578182fd5b82359150610e8b8460208501610e2e565b6001600160a01b0391909116815260200190565b60208082528181018390526000908460408401835b86811015610fa5578284016001600160a01b03610f948286610e2e565b168352925090830190600101610f77565b509695505050505050565b6020808252825182820181905260009190848201906040850190845b81811015610ff15783516001600160a01b031683529284019291840191600101610fcc565b50909695505050505050565b901515815260200190565b604081016002841061101657fe5b9281526001600160801b039190911660209091015290565b6000602080835283518082850152825b8181101561105a5785810183015185820160400152820161103e565b8181111561106b5783604083870101525b50601f01601f1916929092016040019392505050565b6020808252601f908201527f43616e6e6f74206164642030783020746f20612073686172656420726f6c6500604082015260600190565b6020808252601f908201527f52656d6f7665206f6e6c792066726f6d2076616c696420636f6e747261637400604082015260600190565b6020808252601b908201527f536166654d6174683a206164646974696f6e206f766572666c6f770000000000604082015260600190565b6020808252602f908201527f4d7573742062652063616c6c6564206f6e20616e20696e697469616c697a656460408201526e204578636c757369766520726f6c6560881b606082015260800190565b602080825260169082015275506172747920686173206e6f20636f6e74726163747360501b604082015260600190565b6020808252601e908201527f43616e206f6e6c792061646420746f2076616c696420636f6e74726163740000604082015260600190565b6020808252602c908201527f4d7573742062652063616c6c6564206f6e20616e20696e697469616c697a656460408201526b2053686172656420726f6c6560a01b606082015260800190565b60208082526022908201527f53656e64657220646f6573206e6f7420686f6c6420726571756972656420726f6040820152616c6560f01b606082015260800190565b6020808252601e908201527f43616e206f6e6c792072656769737465722061207061727479206f6e63650000604082015260600190565b60208082526023908201527f43616e6e6f742073657420616e206578636c757369766520726f6c6520746f2060408201526203078360ec1b606082015260800190565b60208082526024908201527f43616e206f6e6c792062652063616c6c6564206279206120726f6c65206d616e60408201526330b3b2b960e11b606082015260800190565b60208082526016908201527543616e206f6e6c79207265676973746572206f6e636560501b604082015260600190565b6020808252600e908201526d125b9d985b1a59081c9bdb19525960921b604082015260600190565b6020808252601e908201527f43616e206f6e6c792072656d6f7665206578697374696e67207061727479000060408201526060019056fea2646970667358221220258ca0807030f733134d434add8226c74cca3340744f981481596015337f8f2264736f6c634300060c0033417474656d7074656420746f2075736520616e20696e76616c696420726f6c65",
  "immutableReferences": {},
  "source": "pragma solidity ^0.6.0;\npragma experimental ABIEncoderV2;\n\nimport \"../../common/implementation/MultiRole.sol\";\nimport \"../interfaces/RegistryInterface.sol\";\n\nimport \"@openzeppelin/contracts/math/SafeMath.sol\";\n\n\n/**\n * @title Registry for financial contracts and approved financial contract creators.\n * @dev Maintains a whitelist of financial contract creators that are allowed\n * to register new financial contracts and stores party members of a financial contract.\n */\ncontract Registry is RegistryInterface, MultiRole {\n    using SafeMath for uint256;\n\n    /****************************************\n     *    INTERNAL VARIABLES AND STORAGE    *\n     ****************************************/\n\n    enum Roles {\n        Owner, // The owner manages the set of ContractCreators.\n        ContractCreator // Can register financial contracts.\n    }\n\n    // This enum is required because a `WasValid` state is required\n    // to ensure that financial contracts cannot be re-registered.\n    enum Validity { Invalid, Valid }\n\n    // Local information about a contract.\n    struct FinancialContract {\n        Validity valid;\n        uint128 index;\n    }\n\n    struct Party {\n        address[] contracts; // Each financial contract address is stored in this array.\n        // The address of each financial contract is mapped to its index for constant time look up and deletion.\n        mapping(address => uint256) contractIndex;\n    }\n\n    // Array of all contracts that are approved to use the UMA Oracle.\n    address[] public registeredContracts;\n\n    // Map of financial contract contracts to the associated FinancialContract struct.\n    mapping(address => FinancialContract) public contractMap;\n\n    // Map each party member to their their associated Party struct.\n    mapping(address => Party) private partyMap;\n\n    /****************************************\n     *                EVENTS                *\n     ****************************************/\n\n    event NewContractRegistered(address indexed contractAddress, address indexed creator, address[] parties);\n    event PartyAdded(address indexed contractAddress, address indexed party);\n    event PartyRemoved(address indexed contractAddress, address indexed party);\n\n    /**\n     * @notice Construct the Registry contract.\n     */\n    constructor() public {\n        _createExclusiveRole(uint256(Roles.Owner), uint256(Roles.Owner), msg.sender);\n        // Start with no contract creators registered.\n        _createSharedRole(uint256(Roles.ContractCreator), uint256(Roles.Owner), new address[](0));\n    }\n\n    /****************************************\n     *        REGISTRATION FUNCTIONS        *\n     ****************************************/\n\n    /**\n     * @notice Registers a new financial contract.\n     * @dev Only authorized contract creators can call this method.\n     * @param parties array of addresses who become parties in the contract.\n     * @param contractAddress address of the contract against which the parties are registered.\n     */\n    function registerContract(address[] calldata parties, address contractAddress)\n        external\n        override\n        onlyRoleHolder(uint256(Roles.ContractCreator))\n    {\n        FinancialContract storage financialContract = contractMap[contractAddress];\n        require(contractMap[contractAddress].valid == Validity.Invalid, \"Can only register once\");\n\n        // Store contract address as a registered contract.\n        registeredContracts.push(contractAddress);\n\n        // No length check necessary because we should never hit (2^127 - 1) contracts.\n        financialContract.index = uint128(registeredContracts.length.sub(1));\n\n        // For all parties in the array add them to the contract's parties.\n        financialContract.valid = Validity.Valid;\n        for (uint256 i = 0; i < parties.length; i = i.add(1)) {\n            _addPartyToContract(parties[i], contractAddress);\n        }\n\n        emit NewContractRegistered(contractAddress, msg.sender, parties);\n    }\n\n    /**\n     * @notice Adds a party member to the calling contract.\n     * @dev msg.sender will be used to determine the contract that this party is added to.\n     * @param party new party for the calling contract.\n     */\n    function addPartyToContract(address party) external override {\n        address contractAddress = msg.sender;\n        require(contractMap[contractAddress].valid == Validity.Valid, \"Can only add to valid contract\");\n\n        _addPartyToContract(party, contractAddress);\n    }\n\n    /**\n     * @notice Removes a party member from the calling contract.\n     * @dev msg.sender will be used to determine the contract that this party is removed from.\n     * @param partyAddress address to be removed from the calling contract.\n     */\n    function removePartyFromContract(address partyAddress) external override {\n        address contractAddress = msg.sender;\n        Party storage party = partyMap[partyAddress];\n        uint256 numberOfContracts = party.contracts.length;\n\n        require(numberOfContracts != 0, \"Party has no contracts\");\n        require(contractMap[contractAddress].valid == Validity.Valid, \"Remove only from valid contract\");\n        require(isPartyMemberOfContract(partyAddress, contractAddress), \"Can only remove existing party\");\n\n        // Index of the current location of the contract to remove.\n        uint256 deleteIndex = party.contractIndex[contractAddress];\n\n        // Store the last contract's address to update the lookup map.\n        address lastContractAddress = party.contracts[numberOfContracts - 1];\n\n        // Swap the contract to be removed with the last contract.\n        party.contracts[deleteIndex] = lastContractAddress;\n\n        // Update the lookup index with the new location.\n        party.contractIndex[lastContractAddress] = deleteIndex;\n\n        // Pop the last contract from the array and update the lookup map.\n        party.contracts.pop();\n        delete party.contractIndex[contractAddress];\n\n        emit PartyRemoved(contractAddress, partyAddress);\n    }\n\n    /****************************************\n     *         REGISTRY STATE GETTERS       *\n     ****************************************/\n\n    /**\n     * @notice Returns whether the contract has been registered with the registry.\n     * @dev If it is registered, it is an authorized participant in the UMA system.\n     * @param contractAddress address of the financial contract.\n     * @return bool indicates whether the contract is registered.\n     */\n    function isContractRegistered(address contractAddress) external override view returns (bool) {\n        return contractMap[contractAddress].valid == Validity.Valid;\n    }\n\n    /**\n     * @notice Returns a list of all contracts that are associated with a particular party.\n     * @param party address of the party.\n     * @return an array of the contracts the party is registered to.\n     */\n    function getRegisteredContracts(address party) external override view returns (address[] memory) {\n        return partyMap[party].contracts;\n    }\n\n    /**\n     * @notice Returns all registered contracts.\n     * @return all registered contract addresses within the system.\n     */\n    function getAllRegisteredContracts() external override view returns (address[] memory) {\n        return registeredContracts;\n    }\n\n    /**\n     * @notice checks if an address is a party of a contract.\n     * @param party party to check.\n     * @param contractAddress address to check against the party.\n     * @return bool indicating if the address is a party of the contract.\n     */\n    function isPartyMemberOfContract(address party, address contractAddress) public override view returns (bool) {\n        uint256 index = partyMap[party].contractIndex[contractAddress];\n        return partyMap[party].contracts.length > index && partyMap[party].contracts[index] == contractAddress;\n    }\n\n    /****************************************\n     *           INTERNAL FUNCTIONS         *\n     ****************************************/\n\n    function _addPartyToContract(address party, address contractAddress) internal {\n        require(!isPartyMemberOfContract(party, contractAddress), \"Can only register a party once\");\n        uint256 contractIndex = partyMap[party].contracts.length;\n        partyMap[party].contracts.push(contractAddress);\n        partyMap[party].contractIndex[contractAddress] = contractIndex;\n\n        emit PartyAdded(contractAddress, party);\n    }\n}\n",
  "sourcePath": "/home/circleci/protocol/packages/core/contracts/oracle/implementation/Registry.sol",
  "compiler": {
    "name": "solc",
    "version": "0.6.12+commit.27d51765.Emscripten.clang"
  },
  "schemaVersion": "3.2.3",
  "updatedAt": "2020-10-06T21:03:39.115Z",
  "devdoc": {
    "details": "Maintains a whitelist of financial contract creators that are allowed to register new financial contracts and stores party members of a financial contract.",
    "kind": "dev",
    "methods": {
      "addMember(uint256,address)": {
        "details": "Reverts if `roleId` does not represent an initialized, SharedRole or if the caller is not a member of the managing role for `roleId`.",
        "params": {
          "newMember": "the new SharedRole member.",
          "roleId": "the SharedRole membership to modify."
        }
      },
      "addPartyToContract(address)": {
        "details": "msg.sender will be used to determine the contract that this party is added to.",
        "params": {
          "party": "new party for the calling contract."
        }
      },
      "getAllRegisteredContracts()": {
        "returns": {
          "_0": "all registered contract addresses within the system."
        }
      },
      "getMember(uint256)": {
        "details": "Reverts if `roleId` does not represent an initialized, exclusive role.",
        "params": {
          "roleId": "the ExclusiveRole membership to check."
        },
        "returns": {
          "_0": "the address of the current ExclusiveRole member."
        }
      },
      "getRegisteredContracts(address)": {
        "params": {
          "party": "address of the party."
        },
        "returns": {
          "_0": "an array of the contracts the party is registered to."
        }
      },
      "holdsRole(uint256,address)": {
        "details": "Reverts if roleId does not correspond to an initialized role.",
        "params": {
          "memberToCheck": "the address to check.",
          "roleId": "the Role to check."
        },
        "returns": {
          "_0": "True if `memberToCheck` is a member of `roleId`."
        }
      },
      "isContractRegistered(address)": {
        "details": "If it is registered, it is an authorized participant in the UMA system.",
        "params": {
          "contractAddress": "address of the financial contract."
        },
        "returns": {
          "_0": "bool indicates whether the contract is registered."
        }
      },
      "isPartyMemberOfContract(address,address)": {
        "params": {
          "contractAddress": "address to check against the party.",
          "party": "party to check."
        },
        "returns": {
          "_0": "bool indicating if the address is a party of the contract."
        }
      },
      "registerContract(address[],address)": {
        "details": "Only authorized contract creators can call this method.",
        "params": {
          "contractAddress": "address of the contract against which the parties are registered.",
          "parties": "array of addresses who become parties in the contract."
        }
      },
      "removeMember(uint256,address)": {
        "details": "Reverts if `roleId` does not represent an initialized, SharedRole or if the caller is not a member of the managing role for `roleId`.",
        "params": {
          "memberToRemove": "the current SharedRole member to remove.",
          "roleId": "the SharedRole membership to modify."
        }
      },
      "removePartyFromContract(address)": {
        "details": "msg.sender will be used to determine the contract that this party is removed from.",
        "params": {
          "partyAddress": "address to be removed from the calling contract."
        }
      },
      "renounceMembership(uint256)": {
        "details": "Reverts if the caller is not a member of the role for `roleId` or if `roleId` is not an initialized, SharedRole.",
        "params": {
          "roleId": "the SharedRole membership to modify."
        }
      },
      "resetMember(uint256,address)": {
        "details": "Reverts if the caller is not a member of the managing role for `roleId` or if `roleId` is not an initialized, ExclusiveRole.",
        "params": {
          "newMember": "the new ExclusiveRole member.",
          "roleId": "the ExclusiveRole membership to modify."
        }
      }
    },
    "title": "Registry for financial contracts and approved financial contract creators.",
    "version": 1
  },
  "userdoc": {
    "kind": "user",
    "methods": {
      "addMember(uint256,address)": {
        "notice": "Adds `newMember` to the shared role, `roleId`."
      },
      "addPartyToContract(address)": {
        "notice": "Adds a party member to the calling contract."
      },
      "constructor": "Construct the Registry contract.",
      "getAllRegisteredContracts()": {
        "notice": "Returns all registered contracts."
      },
      "getMember(uint256)": {
        "notice": "Gets the current holder of the exclusive role, `roleId`."
      },
      "getRegisteredContracts(address)": {
        "notice": "Returns a list of all contracts that are associated with a particular party."
      },
      "holdsRole(uint256,address)": {
        "notice": "Whether `memberToCheck` is a member of roleId."
      },
      "isContractRegistered(address)": {
        "notice": "Returns whether the contract has been registered with the registry."
      },
      "isPartyMemberOfContract(address,address)": {
        "notice": "checks if an address is a party of a contract."
      },
      "registerContract(address[],address)": {
        "notice": "Registers a new financial contract."
      },
      "removeMember(uint256,address)": {
        "notice": "Removes `memberToRemove` from the shared role, `roleId`."
      },
      "removePartyFromContract(address)": {
        "notice": "Removes a party member from the calling contract."
      },
      "renounceMembership(uint256)": {
        "notice": "Removes caller from the role, `roleId`."
      },
      "resetMember(uint256,address)": {
        "notice": "Changes the exclusive role holder of `roleId` to `newMember`."
      }
    },
    "version": 1
  }
}