{
  "contractName": "TestableTest",
  "abi": [
    {
      "inputs": [
        {
          "internalType": "address",
          "name": "_timerAddress",
          "type": "address"
        }
      ],
      "stateMutability": "nonpayable",
      "type": "constructor"
    },
    {
      "inputs": [],
      "name": "getCurrentTime",
      "outputs": [
        {
          "internalType": "uint256",
          "name": "",
          "type": "uint256"
        }
      ],
      "stateMutability": "view",
      "type": "function"
    },
    {
      "inputs": [
        {
          "internalType": "uint256",
          "name": "time",
          "type": "uint256"
        }
      ],
      "name": "setCurrentTime",
      "outputs": [],
      "stateMutability": "nonpayable",
      "type": "function"
    },
    {
      "inputs": [],
      "name": "timerAddress",
      "outputs": [
        {
          "internalType": "address",
          "name": "",
          "type": "address"
        }
      ],
      "stateMutability": "view",
      "type": "function"
    },
    {
      "inputs": [],
      "name": "getTestableTimeAndBlockTime",
      "outputs": [
        {
          "internalType": "uint256",
          "name": "testableTime",
          "type": "uint256"
        },
        {
          "internalType": "uint256",
          "name": "blockTime",
          "type": "uint256"
        }
      ],
      "stateMutability": "view",
      "type": "function"
    }
  ],
  "bytecode": "0x608060405234801561001057600080fd5b5060405161029b38038061029b8339818101604052602081101561003357600080fd5b5051600080546001600160a01b039092166001600160a01b0319909216919091179055610236806100656000396000f3fe608060405234801561001057600080fd5b506004361061004c5760003560e01c80631c39c38d1461005157806322f8e5661461007557806329cb924d14610094578063dc6ff7bd146100ae575b600080fd5b6100596100cf565b604080516001600160a01b039092168252519081900360200190f35b6100926004803603602081101561008b57600080fd5b50356100de565b005b61009c610156565b60408051918252519081900360200190f35b6100b66101ed565b6040805192835260208301919091528051918290030190f35b6000546001600160a01b031681565b6000546001600160a01b03166100f357600080fd5b600080546040805163117c72b360e11b81526004810185905290516001600160a01b03909216926322f8e5669260248084019382900301818387803b15801561013b57600080fd5b505af115801561014f573d6000803e3d6000fd5b5050505050565b600080546001600160a01b0316156101e75760008054906101000a90046001600160a01b03166001600160a01b03166329cb924d6040518163ffffffff1660e01b815260040160206040518083038186803b1580156101b457600080fd5b505afa1580156101c8573d6000803e3d6000fd5b505050506040513d60208110156101de57600080fd5b505190506101ea565b50425b90565b6000806101f8610156565b92429250905056fea264697066735822122002e4f3fb93a729cad8b0796bcf86f6f26290ba93bf7527c9532127ff1a64819864736f6c634300060c0033",
  "immutableReferences": {},
  "source": "pragma solidity ^0.6.0;\n\nimport \"../implementation/Testable.sol\";\n\n\n// TestableTest is derived from the abstract contract Testable for testing purposes.\ncontract TestableTest is Testable {\n    // solhint-disable-next-line no-empty-blocks\n    constructor(address _timerAddress) public Testable(_timerAddress) {}\n\n    function getTestableTimeAndBlockTime() external view returns (uint256 testableTime, uint256 blockTime) {\n        // solhint-disable-next-line not-rely-on-time\n        return (getCurrentTime(), now);\n    }\n}\n",
  "sourcePath": "/home/circleci/protocol/packages/core/contracts/common/test/TestableTest.sol",
  "compiler": {
    "name": "solc",
    "version": "0.6.12+commit.27d51765.Emscripten.clang"
  },
  "schemaVersion": "3.2.3",
  "updatedAt": "2020-10-06T21:03:39.018Z",
  "devdoc": {
    "kind": "dev",
    "methods": {
      "getCurrentTime()": {
        "returns": {
          "_0": "uint for the current Testable timestamp."
        }
      },
      "setCurrentTime(uint256)": {
        "details": "Will revert if not running in test mode.",
        "params": {
          "time": "timestamp to set current Testable time to."
        }
      }
    },
    "version": 1
  },
  "userdoc": {
    "kind": "user",
    "methods": {
      "getCurrentTime()": {
        "notice": "Gets the current time. Will return the last time set in `setCurrentTime` if running in test mode. Otherwise, it will return the block timestamp."
      },
      "setCurrentTime(uint256)": {
        "notice": "Sets the current time."
      }
    },
    "version": 1
  }
}