{
  "contractName": "Timer",
  "abi": [
    {
      "inputs": [],
      "stateMutability": "nonpayable",
      "type": "constructor"
    },
    {
      "inputs": [
        {
          "internalType": "uint256",
          "name": "time",
          "type": "uint256"
        }
      ],
      "name": "setCurrentTime",
      "outputs": [],
      "stateMutability": "nonpayable",
      "type": "function"
    },
    {
      "inputs": [],
      "name": "getCurrentTime",
      "outputs": [
        {
          "internalType": "uint256",
          "name": "",
          "type": "uint256"
        }
      ],
      "stateMutability": "view",
      "type": "function"
    }
  ],
  "bytecode": "0x608060405234801561001057600080fd5b504260005560ac806100236000396000f3fe6080604052348015600f57600080fd5b506004361060325760003560e01c806322f8e56614603757806329cb924d146053575b600080fd5b605160048036036020811015604b57600080fd5b5035606b565b005b60596070565b60408051918252519081900360200190f35b600055565b6000549056fea26469706673582212205860ea31e93f0099481e127a7e87ebf8109679277c526b950d42199d2d593e9664736f6c634300060c0033",
  "immutableReferences": {},
  "source": "pragma solidity ^0.6.0;\n\n\n/**\n * @title Universal store of current contract time for testing environments.\n */\ncontract Timer {\n    uint256 private currentTime;\n\n    constructor() public {\n        currentTime = now; // solhint-disable-line not-rely-on-time\n    }\n\n    /**\n     * @notice Sets the current time.\n     * @dev Will revert if not running in test mode.\n     * @param time timestamp to set `currentTime` to.\n     */\n    function setCurrentTime(uint256 time) external {\n        currentTime = time;\n    }\n\n    /**\n     * @notice Gets the current time. Will return the last time set in `setCurrentTime` if running in test mode.\n     * Otherwise, it will return the block timestamp.\n     * @return uint256 for the current Testable timestamp.\n     */\n    function getCurrentTime() public view returns (uint256) {\n        return currentTime;\n    }\n}\n",
  "sourcePath": "/home/circleci/protocol/packages/core/contracts/common/implementation/Timer.sol",
  "compiler": {
    "name": "solc",
    "version": "0.6.12+commit.27d51765.Emscripten.clang"
  },
  "schemaVersion": "3.2.3",
  "updatedAt": "2020-10-06T21:03:38.998Z",
  "devdoc": {
    "kind": "dev",
    "methods": {
      "getCurrentTime()": {
        "returns": {
          "_0": "uint256 for the current Testable timestamp."
        }
      },
      "setCurrentTime(uint256)": {
        "details": "Will revert if not running in test mode.",
        "params": {
          "time": "timestamp to set `currentTime` to."
        }
      }
    },
    "title": "Universal store of current contract time for testing environments.",
    "version": 1
  },
  "userdoc": {
    "kind": "user",
    "methods": {
      "getCurrentTime()": {
        "notice": "Gets the current time. Will return the last time set in `setCurrentTime` if running in test mode. Otherwise, it will return the block timestamp."
      },
      "setCurrentTime(uint256)": {
        "notice": "Sets the current time."
      }
    },
    "version": 1
  }
}