{
  "contractName": "UniswapMock",
  "abi": [
    {
      "anonymous": false,
      "inputs": [
        {
          "indexed": false,
          "internalType": "uint112",
          "name": "reserve0",
          "type": "uint112"
        },
        {
          "indexed": false,
          "internalType": "uint112",
          "name": "reserve1",
          "type": "uint112"
        }
      ],
      "name": "Sync",
      "type": "event"
    },
    {
      "inputs": [
        {
          "internalType": "uint112",
          "name": "reserve0",
          "type": "uint112"
        },
        {
          "internalType": "uint112",
          "name": "reserve1",
          "type": "uint112"
        }
      ],
      "name": "setPrice",
      "outputs": [],
      "stateMutability": "nonpayable",
      "type": "function"
    }
  ],
  "bytecode": "0x6080604052348015600f57600080fd5b5060d98061001e6000396000f3fe6080604052348015600f57600080fd5b506004361060285760003560e01c80638fa07a1114602d575b600080fd5b605860048036036040811015604157600080fd5b506001600160701b0381358116916020013516605a565b005b604080516001600160701b0380851682528316602082015281517f1c411e9a96e071241c2f21f7726b17ae89e3cab4c78be50e062b03a9fffbbad1929181900390910190a1505056fea2646970667358221220bb3fade7f0819b4f031324c93d310c655c8a2664cd0472a0c1fcbc8de1ab7f6364736f6c634300060c0033",
  "immutableReferences": {},
  "source": "pragma solidity ^0.6.0;\n\nimport \"../interfaces/Uniswap.sol\";\n\n\n/**\n * @title Uniswap v2 Mock that allows manual price injection.\n */\ncontract UniswapMock is Uniswap {\n    function setPrice(uint112 reserve0, uint112 reserve1) external {\n        emit Sync(reserve0, reserve1);\n    }\n}\n",
  "sourcePath": "/home/circleci/protocol/packages/core/contracts/common/test/UniswapMock.sol",
  "compiler": {
    "name": "solc",
    "version": "0.6.12+commit.27d51765.Emscripten.clang"
  },
  "schemaVersion": "3.2.3",
  "updatedAt": "2020-10-06T21:03:39.018Z",
  "devdoc": {
    "kind": "dev",
    "methods": {},
    "title": "Uniswap v2 Mock that allows manual price injection.",
    "version": 1
  },
  "userdoc": {
    "kind": "user",
    "methods": {},
    "version": 1
  }
}