{
  "contractName": "VoteTimingTest",
  "abi": [
    {
      "inputs": [
        {
          "internalType": "uint256",
          "name": "phaseLength",
          "type": "uint256"
        }
      ],
      "stateMutability": "nonpayable",
      "type": "constructor"
    },
    {
      "inputs": [],
      "name": "voteTiming",
      "outputs": [
        {
          "internalType": "uint256",
          "name": "phaseLength",
          "type": "uint256"
        }
      ],
      "stateMutability": "view",
      "type": "function"
    },
    {
      "inputs": [
        {
          "internalType": "uint256",
          "name": "currentTime",
          "type": "uint256"
        }
      ],
      "name": "wrapComputeCurrentRoundId",
      "outputs": [
        {
          "internalType": "uint256",
          "name": "",
          "type": "uint256"
        }
      ],
      "stateMutability": "view",
      "type": "function"
    },
    {
      "inputs": [
        {
          "internalType": "uint256",
          "name": "currentTime",
          "type": "uint256"
        }
      ],
      "name": "wrapComputeCurrentPhase",
      "outputs": [
        {
          "internalType": "enum VotingInterface.Phase",
          "name": "",
          "type": "uint8"
        }
      ],
      "stateMutability": "view",
      "type": "function"
    },
    {
      "inputs": [
        {
          "internalType": "uint256",
          "name": "phaseLength",
          "type": "uint256"
        }
      ],
      "name": "wrapInit",
      "outputs": [],
      "stateMutability": "nonpayable",
      "type": "function"
    }
  ],
  "bytecode": "0x608060405234801561001057600080fd5b5060405161042f38038061042f8339818101604052602081101561003357600080fd5b505161003e81610044565b50610070565b61005c81600061005f60201b6101171790919060201c565b50565b6000811161006c57600080fd5b9055565b6103b08061007f6000396000f3fe608060405234801561001057600080fd5b506004361061004c5760003560e01c806329e4b0131461005157806344d8ce9a1461008057806371b7db531461009f578063d9336ea4146100a7575b600080fd5b61006e6004803603602081101561006757600080fd5b50356100e5565b60408051918252519081900360200190f35b61009d6004803603602081101561009657600080fd5b50356100f7565b005b61006e610105565b6100c4600480360360208110156100bd57600080fd5b503561010b565b604051808260028111156100d457fe5b815260200191505060405180910390f35b60006100f18183610128565b92915050565b610102600082610117565b50565b60005481565b60006100f1818361014c565b6000811161012457600080fd5b9055565b6000806101386002855490610178565b905061014483826101d1565b949350505050565b6000610166600284546101609085906101d1565b90610213565b600281111561017157fe5b9392505050565b600082610187575060006100f1565b8282028284828161019457fe5b04146101715760405162461bcd60e51b815260040180806020018281038252602181526020018061035a6021913960400191505060405180910390fd5b600061017183836040518060400160405280601a81526020017f536166654d6174683a206469766973696f6e206279207a65726f000000000000815250610255565b600061017183836040518060400160405280601881526020017f536166654d6174683a206d6f64756c6f206279207a65726f00000000000000008152506102f7565b600081836102e15760405162461bcd60e51b81526004018080602001828103825283818151815260200191508051906020019080838360005b838110156102a657818101518382015260200161028e565b50505050905090810190601f1680156102d35780820380516001836020036101000a031916815260200191505b509250505060405180910390fd5b5060008385816102ed57fe5b0495945050505050565b600081836103465760405162461bcd60e51b81526020600482018181528351602484015283519092839260449091019190850190808383600083156102a657818101518382015260200161028e565b5082848161035057fe5b0694935050505056fe536166654d6174683a206d756c7469706c69636174696f6e206f766572666c6f77a26469706673582212201cf04984772ff6e474c737f03e5b4cd74899b8df5747e3caafa8351d7db2c1be64736f6c634300060c0033",
  "immutableReferences": {},
  "source": "pragma solidity ^0.6.0;\n\nimport \"../../interfaces/VotingInterface.sol\";\nimport \"../VoteTiming.sol\";\n\n\n// Wraps the library VoteTiming for testing purposes.\ncontract VoteTimingTest {\n    using VoteTiming for VoteTiming.Data;\n\n    VoteTiming.Data public voteTiming;\n\n    constructor(uint256 phaseLength) public {\n        wrapInit(phaseLength);\n    }\n\n    function wrapComputeCurrentRoundId(uint256 currentTime) external view returns (uint256) {\n        return voteTiming.computeCurrentRoundId(currentTime);\n    }\n\n    function wrapComputeCurrentPhase(uint256 currentTime) external view returns (VotingInterface.Phase) {\n        return voteTiming.computeCurrentPhase(currentTime);\n    }\n\n    function wrapInit(uint256 phaseLength) public {\n        voteTiming.init(phaseLength);\n    }\n}\n",
  "sourcePath": "/home/circleci/protocol/packages/core/contracts/oracle/implementation/test/VoteTimingTest.sol",
  "compiler": {
    "name": "solc",
    "version": "0.6.12+commit.27d51765.Emscripten.clang"
  },
  "schemaVersion": "3.2.3",
  "updatedAt": "2020-10-06T21:03:39.152Z",
  "devdoc": {
    "kind": "dev",
    "methods": {},
    "version": 1
  },
  "userdoc": {
    "kind": "user",
    "methods": {},
    "version": 1
  }
}