{
  "contractName": "DesignatedVoting",
  "abi": [
    {
      "inputs": [
        {
          "internalType": "address",
          "name": "finderAddress",
          "type": "address"
        },
        {
          "internalType": "address",
          "name": "ownerAddress",
          "type": "address"
        },
        {
          "internalType": "address",
          "name": "voterAddress",
          "type": "address"
        }
      ],
      "stateMutability": "nonpayable",
      "type": "constructor"
    },
    {
      "anonymous": false,
      "inputs": [
        {
          "indexed": true,
          "internalType": "uint256",
          "name": "roleId",
          "type": "uint256"
        },
        {
          "indexed": true,
          "internalType": "address",
          "name": "newMember",
          "type": "address"
        },
        {
          "indexed": true,
          "internalType": "address",
          "name": "manager",
          "type": "address"
        }
      ],
      "name": "AddedSharedMember",
      "type": "event"
    },
    {
      "anonymous": false,
      "inputs": [
        {
          "indexed": true,
          "internalType": "uint256",
          "name": "roleId",
          "type": "uint256"
        },
        {
          "indexed": true,
          "internalType": "address",
          "name": "oldMember",
          "type": "address"
        },
        {
          "indexed": true,
          "internalType": "address",
          "name": "manager",
          "type": "address"
        }
      ],
      "name": "RemovedSharedMember",
      "type": "event"
    },
    {
      "anonymous": false,
      "inputs": [
        {
          "indexed": true,
          "internalType": "uint256",
          "name": "roleId",
          "type": "uint256"
        },
        {
          "indexed": true,
          "internalType": "address",
          "name": "newMember",
          "type": "address"
        },
        {
          "indexed": true,
          "internalType": "address",
          "name": "manager",
          "type": "address"
        }
      ],
      "name": "ResetExclusiveMember",
      "type": "event"
    },
    {
      "inputs": [
        {
          "internalType": "uint256",
          "name": "roleId",
          "type": "uint256"
        },
        {
          "internalType": "address",
          "name": "newMember",
          "type": "address"
        }
      ],
      "name": "addMember",
      "outputs": [],
      "stateMutability": "nonpayable",
      "type": "function"
    },
    {
      "inputs": [
        {
          "internalType": "uint256",
          "name": "roleId",
          "type": "uint256"
        }
      ],
      "name": "getMember",
      "outputs": [
        {
          "internalType": "address",
          "name": "",
          "type": "address"
        }
      ],
      "stateMutability": "view",
      "type": "function"
    },
    {
      "inputs": [
        {
          "internalType": "uint256",
          "name": "roleId",
          "type": "uint256"
        },
        {
          "internalType": "address",
          "name": "memberToCheck",
          "type": "address"
        }
      ],
      "name": "holdsRole",
      "outputs": [
        {
          "internalType": "bool",
          "name": "",
          "type": "bool"
        }
      ],
      "stateMutability": "view",
      "type": "function"
    },
    {
      "inputs": [
        {
          "internalType": "uint256",
          "name": "roleId",
          "type": "uint256"
        },
        {
          "internalType": "address",
          "name": "memberToRemove",
          "type": "address"
        }
      ],
      "name": "removeMember",
      "outputs": [],
      "stateMutability": "nonpayable",
      "type": "function"
    },
    {
      "inputs": [
        {
          "internalType": "uint256",
          "name": "roleId",
          "type": "uint256"
        }
      ],
      "name": "renounceMembership",
      "outputs": [],
      "stateMutability": "nonpayable",
      "type": "function"
    },
    {
      "inputs": [
        {
          "internalType": "uint256",
          "name": "roleId",
          "type": "uint256"
        },
        {
          "internalType": "address",
          "name": "newMember",
          "type": "address"
        }
      ],
      "name": "resetMember",
      "outputs": [],
      "stateMutability": "nonpayable",
      "type": "function"
    },
    {
      "inputs": [
        {
          "internalType": "uint256",
          "name": "amount",
          "type": "uint256"
        }
      ],
      "name": "withdraw",
      "outputs": [],
      "stateMutability": "nonpayable",
      "type": "function"
    },
    {
      "inputs": [
        {
          "internalType": "address",
          "name": "erc20Address",
          "type": "address"
        },
        {
          "internalType": "uint256",
          "name": "amount",
          "type": "uint256"
        }
      ],
      "name": "withdrawErc20",
      "outputs": [],
      "stateMutability": "nonpayable",
      "type": "function"
    },
    {
      "inputs": [
        {
          "internalType": "bytes32",
          "name": "identifier",
          "type": "bytes32"
        },
        {
          "internalType": "uint256",
          "name": "time",
          "type": "uint256"
        },
        {
          "internalType": "bytes",
          "name": "ancillaryData",
          "type": "bytes"
        },
        {
          "internalType": "bytes32",
          "name": "hash",
          "type": "bytes32"
        }
      ],
      "name": "commitVote",
      "outputs": [],
      "stateMutability": "nonpayable",
      "type": "function"
    },
    {
      "inputs": [
        {
          "components": [
            {
              "internalType": "bytes32",
              "name": "identifier",
              "type": "bytes32"
            },
            {
              "internalType": "uint256",
              "name": "time",
              "type": "uint256"
            },
            {
              "internalType": "bytes",
              "name": "ancillaryData",
              "type": "bytes"
            },
            {
              "internalType": "bytes32",
              "name": "hash",
              "type": "bytes32"
            },
            {
              "internalType": "bytes",
              "name": "encryptedVote",
              "type": "bytes"
            }
          ],
          "internalType": "struct VotingAncillaryInterface.CommitmentAncillary[]",
          "name": "commits",
          "type": "tuple[]"
        }
      ],
      "name": "batchCommit",
      "outputs": [],
      "stateMutability": "nonpayable",
      "type": "function"
    },
    {
      "inputs": [
        {
          "internalType": "bytes32",
          "name": "identifier",
          "type": "bytes32"
        },
        {
          "internalType": "uint256",
          "name": "time",
          "type": "uint256"
        },
        {
          "internalType": "int256",
          "name": "price",
          "type": "int256"
        },
        {
          "internalType": "bytes",
          "name": "ancillaryData",
          "type": "bytes"
        },
        {
          "internalType": "int256",
          "name": "salt",
          "type": "int256"
        }
      ],
      "name": "revealVote",
      "outputs": [],
      "stateMutability": "nonpayable",
      "type": "function"
    },
    {
      "inputs": [
        {
          "components": [
            {
              "internalType": "bytes32",
              "name": "identifier",
              "type": "bytes32"
            },
            {
              "internalType": "uint256",
              "name": "time",
              "type": "uint256"
            },
            {
              "internalType": "int256",
              "name": "price",
              "type": "int256"
            },
            {
              "internalType": "bytes",
              "name": "ancillaryData",
              "type": "bytes"
            },
            {
              "internalType": "int256",
              "name": "salt",
              "type": "int256"
            }
          ],
          "internalType": "struct VotingAncillaryInterface.RevealAncillary[]",
          "name": "reveals",
          "type": "tuple[]"
        }
      ],
      "name": "batchReveal",
      "outputs": [],
      "stateMutability": "nonpayable",
      "type": "function"
    },
    {
      "inputs": [
        {
          "internalType": "uint256",
          "name": "roundId",
          "type": "uint256"
        },
        {
          "components": [
            {
              "internalType": "bytes32",
              "name": "identifier",
              "type": "bytes32"
            },
            {
              "internalType": "uint256",
              "name": "time",
              "type": "uint256"
            },
            {
              "internalType": "bytes",
              "name": "ancillaryData",
              "type": "bytes"
            }
          ],
          "internalType": "struct VotingAncillaryInterface.PendingRequestAncillary[]",
          "name": "toRetrieve",
          "type": "tuple[]"
        }
      ],
      "name": "retrieveRewards",
      "outputs": [
        {
          "components": [
            {
              "internalType": "uint256",
              "name": "rawValue",
              "type": "uint256"
            }
          ],
          "internalType": "struct FixedPoint.Unsigned",
          "name": "",
          "type": "tuple"
        }
      ],
      "stateMutability": "nonpayable",
      "type": "function"
    }
  ],
  "bytecode": "0x60806040523480156200001157600080fd5b5060405162001b2d38038062001b2d8339810160408190526200003491620001f8565b620000426000808462000085565b62000051600160008362000085565b6200005d600062000158565b5050600280546001600160a01b0319166001600160a01b03929092169190911790556200035b565b826000808281526020819052604090206001015460ff166002811115620000a857fe5b14620000d15760405162461bcd60e51b8152600401620000c890620002c8565b60405180910390fd5b60008481526020819052604090206001808201805460ff1916828002179055508381556200010f6002820184620001a2602090811b6200097617901c565b60008481526020819052604081206001015460ff1660028111156200013057fe5b1415620001515760405162461bcd60e51b8152600401620000c8906200027c565b5050505050565b806000808281526020819052604090206001015460ff1660028111156200017b57fe5b14156200019c5760405162461bcd60e51b8152600401620000c8906200024b565b50600155565b620001ae8282620001b2565b5050565b6001600160a01b038116620001db5760405162461bcd60e51b8152600401620000c890620002ff565b81546001600160a01b0319166001600160a01b0391909116179055565b6000806000606084860312156200020d578283fd5b83516200021a8162000342565b60208501519093506200022d8162000342565b6040850151909250620002408162000342565b809150509250925092565b602080825260229082015260008051602062001b0d833981519152604082015261125960f21b606082015260800190565b6020808252603c9082015260008051602062001b0d83398151915260408201527f20746f206d616e61676520616e206578636c757369766520726f6c6500000000606082015260800190565b6020808252601e908201527f43616e6e6f74207573652061207072652d6578697374696e6720726f6c650000604082015260600190565b60208082526023908201527f43616e6e6f742073657420616e206578636c757369766520726f6c6520746f2060408201526203078360ec1b606082015260800190565b6001600160a01b03811681146200035857600080fd5b50565b6117a2806200036b6000396000f3fe608060405234801561001057600080fd5b50600436106100cf5760003560e01c8063a65d15911161008c578063add2ccb411610066578063add2ccb4146101a4578063bd1f4b52146101b7578063d97c05be146101ca578063ef8d6014146101dd576100cf565b8063a65d15911461015e578063aaa14ca314610171578063ab3545e514610184576100cf565b80632e1a7d4d146100d45780636be7658b146100e95780636ec1fd5d146100fc57806374d0a6761461010f5780637cdc1cb914610122578063894fcecc1461014b575b600080fd5b6100e76100e2366004610f5a565b6101fd565b005b6100e76100f7366004610f72565b61023d565b6100e761010a366004610e1f565b61030d565b6100e761011d366004610f72565b6103a1565b610135610130366004610f72565b610471565b604051610142919061130c565b60405180910390f35b6100e7610159366004610e7f565b6104f4565b6100e761016c366004610e1f565b61058e565b6100e761017f366004610f5a565b6105eb565b610197610192366004610f5a565b6106a1565b6040516101429190611102565b6100e76101b2366004610ed5565b610704565b6100e76101c5366004610df4565b6107a1565b6100e76101d8366004610f72565b6107e5565b6101f06101eb366004610fa1565b6108b5565b6040516101429190611694565b60015461020a8133610471565b61022f5760405162461bcd60e51b815260040161022690611522565b60405180910390fd5b6102393383610980565b5050565b81600260008281526020819052604090206001015460ff16600281111561026057fe5b1461027d5760405162461bcd60e51b8152600401610226906114d6565b60008381526020819052604090205483906102989033610471565b6102b45760405162461bcd60e51b8152600401610226906115a7565b60008481526020819052604090206102cf9060030184610a21565b60405133906001600160a01b0385169086907feb3e33034c392e69263b04ec0fa376dc12784a41b6676c7f31b936cbc0fbb5af90600090a450505050565b60016103198133610471565b6103355760405162461bcd60e51b815260040161022690611522565b61033d610a43565b6001600160a01b0316636ec1fd5d84846040518363ffffffff1660e01b815260040161036a9291906111c2565b600060405180830381600087803b15801561038457600080fd5b505af1158015610398573d6000803e3d6000fd5b50505050505050565b81600260008281526020819052604090206001015460ff1660028111156103c457fe5b146103e15760405162461bcd60e51b8152600401610226906114d6565b60008381526020819052604090205483906103fc9033610471565b6104185760405162461bcd60e51b8152600401610226906115a7565b60008481526020819052604090206104339060030184610ad2565b60405133906001600160a01b0385169086907f63502af7324ff6db91ab38f8236a648727d9385ea6c782073dd4882d8a61a48f90600090a450505050565b600082815260208190526040812060018082015460ff16600281111561049357fe5b14156104ae576104a66002820184610b1d565b9150506104ee565b6002600182015460ff1660028111156104c357fe5b14156104d6576104a66003820184610b30565b60405162461bcd60e51b8152600401610226906115eb565b92915050565b60016105008133610471565b61051c5760405162461bcd60e51b815260040161022690611522565b610524610a43565b6001600160a01b031663894fcecc868686866040518563ffffffff1660e01b81526004016105559493929190611320565b600060405180830381600087803b15801561056f57600080fd5b505af1158015610583573d6000803e3d6000fd5b505050505050505050565b600161059a8133610471565b6105b65760405162461bcd60e51b815260040161022690611522565b6105be610a43565b6001600160a01b031663a65d159184846040518363ffffffff1660e01b815260040161036a92919061127b565b80600260008281526020819052604090206001015460ff16600281111561060e57fe5b1461062b5760405162461bcd60e51b8152600401610226906114d6565b816106368133610471565b6106525760405162461bcd60e51b815260040161022690611522565b600083815260208190526040902061066d9060030133610a21565b6040513390819085907feb3e33034c392e69263b04ec0fa376dc12784a41b6676c7f31b936cbc0fbb5af90600090a4505050565b600081600160008281526020819052604090206001015460ff1660028111156106c657fe5b146106e35760405162461bcd60e51b8152600401610226906113be565b60008381526020819052604090206106fd90600201610b4f565b9392505050565b60016107108133610471565b61072c5760405162461bcd60e51b815260040161022690611522565b610734610a43565b6001600160a01b031663add2ccb487878787876040518663ffffffff1660e01b8152600401610767959493929190611350565b600060405180830381600087803b15801561078157600080fd5b505af1158015610795573d6000803e3d6000fd5b50505050505050505050565b6001546107ae8133610471565b6107ca5760405162461bcd60e51b815260040161022690611522565b826107df6001600160a01b0382163385610b5c565b50505050565b81600160008281526020819052604090206001015460ff16600281111561080857fe5b146108255760405162461bcd60e51b8152600401610226906113be565b60008381526020819052604090205483906108409033610471565b61085c5760405162461bcd60e51b8152600401610226906115a7565b60008481526020819052604090206108779060020184610bb2565b60405133906001600160a01b0385169086907f3b855c56b409b671c7112789d022675eb639d0bcb8896f1b6197c132f799e74690600090a450505050565b6108bd610d13565b60016108c98133610471565b6108e55760405162461bcd60e51b815260040161022690611522565b6108ed610a43565b6001600160a01b031663017e4c033086866040518463ffffffff1660e01b815260040161091c9392919061112f565b602060405180830381600087803b15801561093657600080fd5b505af115801561094a573d6000803e3d6000fd5b505050506040513d601f19601f8201168201806040525081019061096e9190610f35565b949350505050565b6102398282610bb2565b804710156109a05760405162461bcd60e51b81526004016102269061149f565b6000826001600160a01b0316826040516109b9906110ff565b60006040518083038185875af1925050503d80600081146109f6576040519150601f19603f3d011682016040523d82523d6000602084013e6109fb565b606091505b5050905080610a1c5760405162461bcd60e51b815260040161022690611442565b505050565b6001600160a01b0316600090815260209190915260409020805460ff19169055565b6002546040516302abf57960e61b81526000916001600160a01b03169063aafd5e4090610a7d90654f7261636c6560d01b90600401611317565b60206040518083038186803b158015610a9557600080fd5b505afa158015610aa9573d6000803e3d6000fd5b505050506040513d601f19601f82011682018060405250810190610acd9190610dd8565b905090565b6001600160a01b038116610af85760405162461bcd60e51b815260040161022690611387565b6001600160a01b0316600090815260209190915260409020805460ff19166001179055565b90546001600160a01b0391821691161490565b6001600160a01b03166000908152602091909152604090205460ff1690565b546001600160a01b031690565b610a1c8363a9059cbb60e01b8484604051602401610b7b929190611116565b60408051601f198184030181529190526020810180516001600160e01b03166001600160e01b031990931692909217909152610bf5565b6001600160a01b038116610bd85760405162461bcd60e51b815260040161022690611564565b81546001600160a01b0319166001600160a01b0391909116179055565b610c07826001600160a01b0316610cda565b610c235760405162461bcd60e51b81526004016102269061165d565b60006060836001600160a01b031683604051610c3f91906110e3565b6000604051808303816000865af19150503d8060008114610c7c576040519150601f19603f3d011682016040523d82523d6000602084013e610c81565b606091505b509150915081610ca35760405162461bcd60e51b81526004016102269061140d565b8051156107df5780806020019051810190610cbe9190610e5f565b6107df5760405162461bcd60e51b815260040161022690611613565b6000813f7fc5d2460186f7233c927e7db2dcc703c0e500b653ca82273b7bfad8045d85a47081811480159061096e575050151592915050565b6040518060200160405280600081525090565b60008083601f840112610d37578182fd5b50813567ffffffffffffffff811115610d4e578182fd5b6020830191508360208083028501011115610d6857600080fd5b9250929050565b600082601f830112610d7f578081fd5b813567ffffffffffffffff811115610d95578182fd5b610da8601f8201601f191660200161169e565b9150808252836020828501011115610dbf57600080fd5b8060208401602084013760009082016020015292915050565b600060208284031215610de9578081fd5b81516106fd81611754565b60008060408385031215610e06578081fd5b8235610e1181611754565b946020939093013593505050565b60008060208385031215610e31578182fd5b823567ffffffffffffffff811115610e47578283fd5b610e5385828601610d26565b90969095509350505050565b600060208284031215610e70578081fd5b815180151581146106fd578182fd5b60008060008060808587031215610e94578182fd5b8435935060208501359250604085013567ffffffffffffffff811115610eb8578283fd5b610ec487828801610d6f565b949793965093946060013593505050565b600080600080600060a08688031215610eec578081fd5b853594506020860135935060408601359250606086013567ffffffffffffffff811115610f17578182fd5b610f2388828901610d6f565b95989497509295608001359392505050565b600060208284031215610f46578081fd5b610f50602061169e565b9151825250919050565b600060208284031215610f6b578081fd5b5035919050565b60008060408385031215610f84578182fd5b823591506020830135610f9681611754565b809150509250929050565b60008060408385031215610fb3578081fd5b8235915060208084013567ffffffffffffffff80821115610fd2578384fd5b818601915086601f830112610fe5578384fd5b813581811115610ff3578485fd5b611000848583020161169e565b81815284810190848601875b8481101561107c57813587016060818e03601f1901121561102b57898afd5b611035606061169e565b89820135815260408201358a820152606082013588811115611055578b8cfd5b6110638f8c83860101610d6f565b604083015250855250928701929087019060010161100c565b50979a909950975050505050505050565b60008284528282602086013780602084860101526020601f19601f85011685010190509392505050565b600081518084526110cf816020860160208601611728565b601f01601f19169290920160200192915050565b600082516110f5818460208701611728565b9190910192915050565b90565b6001600160a01b0391909116815260200190565b6001600160a01b03929092168252602082015260400190565b6000606080830160018060a01b0387168452602086818601526040838187015282875180855260808801915060808482028901019450838901875b828110156111b157898703607f19018452815180518852868101518789015285015185880189905261119e898901826110b7565b975050928501929085019060010161116a565b50949b9a5050505050505050505050565b602080825281810183905260009060408084018583028501820187855b8881101561126d57878303603f190184526111fa828b61170a565b60a0813585528782013588860152611214878301836116c5565b8289880152611226838801828461108d565b9250505060608083013581870152506080611243818401846116c5565b93508683038288015261125783858361108d565b978a0197965050509287019250506001016111df565b509098975050505050505050565b602080825281810183905260009060408084018583028501820187855b8881101561126d57878303603f190184526112b3828b61170a565b60a0813585528782013588860152606087830135888701526112d7818401846116c5565b83838901526112e9848901828461108d565b608095860135989095019790975250505093860193925090850190600101611298565b901515815260200190565b90815260200190565b60008582528460208301526080604083015261133f60808301856110b7565b905082606083015295945050505050565b600086825285602083015284604083015260a0606083015261137560a08301856110b7565b90508260808301529695505050505050565b6020808252601f908201527f43616e6e6f74206164642030783020746f20612073686172656420726f6c6500604082015260600190565b6020808252602f908201527f4d7573742062652063616c6c6564206f6e20616e20696e697469616c697a656460408201526e204578636c757369766520726f6c6560881b606082015260800190565b6020808252818101527f5361666545524332303a206c6f772d6c6576656c2063616c6c206661696c6564604082015260600190565b6020808252603a908201527f416464726573733a20756e61626c6520746f2073656e642076616c75652c207260408201527f6563697069656e74206d61792068617665207265766572746564000000000000606082015260800190565b6020808252601d908201527f416464726573733a20696e73756666696369656e742062616c616e6365000000604082015260600190565b6020808252602c908201527f4d7573742062652063616c6c6564206f6e20616e20696e697469616c697a656460408201526b2053686172656420726f6c6560a01b606082015260800190565b60208082526022908201527f53656e64657220646f6573206e6f7420686f6c6420726571756972656420726f6040820152616c6560f01b606082015260800190565b60208082526023908201527f43616e6e6f742073657420616e206578636c757369766520726f6c6520746f2060408201526203078360ec1b606082015260800190565b60208082526024908201527f43616e206f6e6c792062652063616c6c6564206279206120726f6c65206d616e60408201526330b3b2b960e11b606082015260800190565b6020808252600e908201526d125b9d985b1a59081c9bdb19525960921b604082015260600190565b6020808252602a908201527f5361666545524332303a204552433230206f7065726174696f6e20646964206e6040820152691bdd081cdd58d8d9595960b21b606082015260800190565b6020808252601f908201527f5361666545524332303a2063616c6c20746f206e6f6e2d636f6e747261637400604082015260600190565b9051815260200190565b60405181810167ffffffffffffffff811182821017156116bd57600080fd5b604052919050565b6000808335601e198436030181126116db578283fd5b830160208101925035905067ffffffffffffffff8111156116fb57600080fd5b803603831315610d6857600080fd5b60008235609e1983360301811261171f578182fd5b90910192915050565b60005b8381101561174357818101518382015260200161172b565b838111156107df5750506000910152565b6001600160a01b038116811461176957600080fd5b5056fea2646970667358221220f70a4a13fee338bb8d21bbf8f0ec106191124835f79a010ca1a7673d4a66b8a864736f6c634300060c0033417474656d7074656420746f2075736520616e20696e76616c696420726f6c65",
  "immutableReferences": {},
  "source": "// SPDX-License-Identifier: AGPL-3.0-only\npragma solidity ^0.6.0;\npragma experimental ABIEncoderV2;\n\nimport \"../../common/implementation/MultiRole.sol\";\nimport \"../../common/implementation/Withdrawable.sol\";\nimport \"../interfaces/VotingAncillaryInterface.sol\";\nimport \"../interfaces/FinderInterface.sol\";\nimport \"./Constants.sol\";\n\n/**\n * @title Proxy to allow voting from another address.\n * @dev Allows a UMA token holder to designate another address to vote on their behalf.\n * Each voter must deploy their own instance of this contract.\n */\ncontract DesignatedVoting is Withdrawable {\n    /****************************************\n     *    INTERNAL VARIABLES AND STORAGE    *\n     ****************************************/\n\n    enum Roles {\n        Owner, // Can set the Voter role. Is also permanently permissioned as the minter role.\n        Voter // Can vote through this contract.\n    }\n\n    // Reference to the UMA Finder contract, allowing Voting upgrades to be performed\n    // without requiring any calls to this contract.\n    FinderInterface private finder;\n\n    /**\n     * @notice Construct the DesignatedVoting contract.\n     * @param finderAddress keeps track of all contracts within the system based on their interfaceName.\n     * @param ownerAddress address of the owner of the DesignatedVoting contract.\n     * @param voterAddress address to which the owner has delegated their voting power.\n     */\n    constructor(\n        address finderAddress,\n        address ownerAddress,\n        address voterAddress\n    ) public {\n        _createExclusiveRole(uint256(Roles.Owner), uint256(Roles.Owner), ownerAddress);\n        _createExclusiveRole(uint256(Roles.Voter), uint256(Roles.Owner), voterAddress);\n        _setWithdrawRole(uint256(Roles.Owner));\n\n        finder = FinderInterface(finderAddress);\n    }\n\n    /****************************************\n     *   VOTING AND REWARD FUNCTIONALITY    *\n     ****************************************/\n\n    /**\n     * @notice Forwards a commit to Voting.\n     * @param identifier uniquely identifies the feed for this vote. EG BTC/USD price pair.\n     * @param time specifies the unix timestamp of the price being voted on.\n     * @param hash the keccak256 hash of the price you want to vote for and a random integer salt value.\n     */\n    function commitVote(\n        bytes32 identifier,\n        uint256 time,\n        bytes memory ancillaryData,\n        bytes32 hash\n    ) external onlyRoleHolder(uint256(Roles.Voter)) {\n        _getVotingAddress().commitVote(identifier, time, ancillaryData, hash);\n    }\n\n    /**\n     * @notice Forwards a batch commit to Voting.\n     * @param commits struct to encapsulate an `identifier`, `time`, `hash` and optional `encryptedVote`.\n     */\n    function batchCommit(VotingAncillaryInterface.CommitmentAncillary[] calldata commits)\n        external\n        onlyRoleHolder(uint256(Roles.Voter))\n    {\n        _getVotingAddress().batchCommit(commits);\n    }\n\n    /**\n     * @notice Forwards a reveal to Voting.\n     * @param identifier voted on in the commit phase. EG BTC/USD price pair.\n     * @param time specifies the unix timestamp of the price being voted on.\n     * @param price used along with the `salt` to produce the `hash` during the commit phase.\n     * @param salt used along with the `price` to produce the `hash` during the commit phase.\n     */\n    function revealVote(\n        bytes32 identifier,\n        uint256 time,\n        int256 price,\n        bytes memory ancillaryData,\n        int256 salt\n    ) external onlyRoleHolder(uint256(Roles.Voter)) {\n        _getVotingAddress().revealVote(identifier, time, price, ancillaryData, salt);\n    }\n\n    /**\n     * @notice Forwards a batch reveal to Voting.\n     * @param reveals is an array of the Reveal struct which contains an identifier, time, price and salt.\n     */\n    function batchReveal(VotingAncillaryInterface.RevealAncillary[] calldata reveals)\n        external\n        onlyRoleHolder(uint256(Roles.Voter))\n    {\n        _getVotingAddress().batchReveal(reveals);\n    }\n\n    /**\n     * @notice Forwards a reward retrieval to Voting.\n     * @dev Rewards are added to the tokens already held by this contract.\n     * @param roundId defines the round from which voting rewards will be retrieved from.\n     * @param toRetrieve an array of PendingRequests which rewards are retrieved from.\n     * @return amount of rewards that the user should receive.\n     */\n    function retrieveRewards(uint256 roundId, VotingAncillaryInterface.PendingRequestAncillary[] memory toRetrieve)\n        public\n        onlyRoleHolder(uint256(Roles.Voter))\n        returns (FixedPoint.Unsigned memory)\n    {\n        return _getVotingAddress().retrieveRewards(address(this), roundId, toRetrieve);\n    }\n\n    function _getVotingAddress() private view returns (VotingAncillaryInterface) {\n        return VotingAncillaryInterface(finder.getImplementationAddress(OracleInterfaces.Oracle));\n    }\n}\n",
  "sourcePath": "/home/circleci/protocol/packages/core/contracts/oracle/implementation/DesignatedVoting.sol",
  "compiler": {
    "name": "solc",
    "version": "0.6.12+commit.27d51765.Emscripten.clang"
  },
  "schemaVersion": "3.2.3",
  "updatedAt": "2021-02-27T02:08:44.363Z",
  "devdoc": {
    "details": "Allows a UMA token holder to designate another address to vote on their behalf. Each voter must deploy their own instance of this contract.",
    "kind": "dev",
    "methods": {
      "addMember(uint256,address)": {
        "details": "Reverts if `roleId` does not represent an initialized, SharedRole or if the caller is not a member of the managing role for `roleId`.",
        "params": {
          "newMember": "the new SharedRole member.",
          "roleId": "the SharedRole membership to modify."
        }
      },
      "batchCommit((bytes32,uint256,bytes,bytes32,bytes)[])": {
        "params": {
          "commits": "struct to encapsulate an `identifier`, `time`, `hash` and optional `encryptedVote`."
        }
      },
      "batchReveal((bytes32,uint256,int256,bytes,int256)[])": {
        "params": {
          "reveals": "is an array of the Reveal struct which contains an identifier, time, price and salt."
        }
      },
      "commitVote(bytes32,uint256,bytes,bytes32)": {
        "params": {
          "hash": "the keccak256 hash of the price you want to vote for and a random integer salt value.",
          "identifier": "uniquely identifies the feed for this vote. EG BTC/USD price pair.",
          "time": "specifies the unix timestamp of the price being voted on."
        }
      },
      "constructor": {
        "params": {
          "finderAddress": "keeps track of all contracts within the system based on their interfaceName.",
          "ownerAddress": "address of the owner of the DesignatedVoting contract.",
          "voterAddress": "address to which the owner has delegated their voting power."
        }
      },
      "getMember(uint256)": {
        "details": "Reverts if `roleId` does not represent an initialized, exclusive role.",
        "params": {
          "roleId": "the ExclusiveRole membership to check."
        },
        "returns": {
          "_0": "the address of the current ExclusiveRole member."
        }
      },
      "holdsRole(uint256,address)": {
        "details": "Reverts if roleId does not correspond to an initialized role.",
        "params": {
          "memberToCheck": "the address to check.",
          "roleId": "the Role to check."
        },
        "returns": {
          "_0": "True if `memberToCheck` is a member of `roleId`."
        }
      },
      "removeMember(uint256,address)": {
        "details": "Reverts if `roleId` does not represent an initialized, SharedRole or if the caller is not a member of the managing role for `roleId`.",
        "params": {
          "memberToRemove": "the current SharedRole member to remove.",
          "roleId": "the SharedRole membership to modify."
        }
      },
      "renounceMembership(uint256)": {
        "details": "Reverts if the caller is not a member of the role for `roleId` or if `roleId` is not an initialized, SharedRole.",
        "params": {
          "roleId": "the SharedRole membership to modify."
        }
      },
      "resetMember(uint256,address)": {
        "details": "Reverts if the caller is not a member of the managing role for `roleId` or if `roleId` is not an initialized, ExclusiveRole.",
        "params": {
          "newMember": "the new ExclusiveRole member.",
          "roleId": "the ExclusiveRole membership to modify."
        }
      },
      "retrieveRewards(uint256,(bytes32,uint256,bytes)[])": {
        "details": "Rewards are added to the tokens already held by this contract.",
        "params": {
          "roundId": "defines the round from which voting rewards will be retrieved from.",
          "toRetrieve": "an array of PendingRequests which rewards are retrieved from."
        },
        "returns": {
          "_0": "amount of rewards that the user should receive."
        }
      },
      "revealVote(bytes32,uint256,int256,bytes,int256)": {
        "params": {
          "identifier": "voted on in the commit phase. EG BTC/USD price pair.",
          "price": "used along with the `salt` to produce the `hash` during the commit phase.",
          "salt": "used along with the `price` to produce the `hash` during the commit phase.",
          "time": "specifies the unix timestamp of the price being voted on."
        }
      },
      "withdrawErc20(address,uint256)": {
        "params": {
          "amount": "amount of tokens to withdraw.",
          "erc20Address": "ERC20 token to withdraw."
        }
      }
    },
    "title": "Proxy to allow voting from another address.",
    "version": 1
  },
  "userdoc": {
    "kind": "user",
    "methods": {
      "addMember(uint256,address)": {
        "notice": "Adds `newMember` to the shared role, `roleId`."
      },
      "batchCommit((bytes32,uint256,bytes,bytes32,bytes)[])": {
        "notice": "Forwards a batch commit to Voting."
      },
      "batchReveal((bytes32,uint256,int256,bytes,int256)[])": {
        "notice": "Forwards a batch reveal to Voting."
      },
      "commitVote(bytes32,uint256,bytes,bytes32)": {
        "notice": "Forwards a commit to Voting."
      },
      "constructor": "Construct the DesignatedVoting contract.",
      "getMember(uint256)": {
        "notice": "Gets the current holder of the exclusive role, `roleId`."
      },
      "holdsRole(uint256,address)": {
        "notice": "Whether `memberToCheck` is a member of roleId."
      },
      "removeMember(uint256,address)": {
        "notice": "Removes `memberToRemove` from the shared role, `roleId`."
      },
      "renounceMembership(uint256)": {
        "notice": "Removes caller from the role, `roleId`."
      },
      "resetMember(uint256,address)": {
        "notice": "Changes the exclusive role holder of `roleId` to `newMember`."
      },
      "retrieveRewards(uint256,(bytes32,uint256,bytes)[])": {
        "notice": "Forwards a reward retrieval to Voting."
      },
      "revealVote(bytes32,uint256,int256,bytes,int256)": {
        "notice": "Forwards a reveal to Voting."
      },
      "withdraw(uint256)": {
        "notice": "Withdraws ETH from the contract."
      },
      "withdrawErc20(address,uint256)": {
        "notice": "Withdraws ERC20 tokens from the contract."
      }
    },
    "version": 1
  }
}