{
  "contractName": "DSProxyFactory",
  "abi": [
    {
      "anonymous": false,
      "inputs": [
        {
          "indexed": true,
          "internalType": "address",
          "name": "sender",
          "type": "address"
        },
        {
          "indexed": true,
          "internalType": "address",
          "name": "owner",
          "type": "address"
        },
        {
          "indexed": false,
          "internalType": "address",
          "name": "proxy",
          "type": "address"
        },
        {
          "indexed": false,
          "internalType": "address",
          "name": "cache",
          "type": "address"
        }
      ],
      "name": "Created",
      "type": "event"
    },
    {
      "inputs": [],
      "name": "cache",
      "outputs": [
        {
          "internalType": "contract DSProxyCache",
          "name": "",
          "type": "address"
        }
      ],
      "stateMutability": "view",
      "type": "function"
    },
    {
      "inputs": [
        {
          "internalType": "address",
          "name": "",
          "type": "address"
        }
      ],
      "name": "isProxy",
      "outputs": [
        {
          "internalType": "bool",
          "name": "",
          "type": "bool"
        }
      ],
      "stateMutability": "view",
      "type": "function"
    },
    {
      "inputs": [],
      "name": "build",
      "outputs": [
        {
          "internalType": "contract DSProxy",
          "name": "proxy",
          "type": "address"
        }
      ],
      "stateMutability": "nonpayable",
      "type": "function"
    },
    {
      "inputs": [
        {
          "internalType": "address",
          "name": "owner",
          "type": "address"
        }
      ],
      "name": "build",
      "outputs": [
        {
          "internalType": "contract DSProxy",
          "name": "proxy",
          "type": "address"
        }
      ],
      "stateMutability": "nonpayable",
      "type": "function"
    }
  ],
  "bytecode": "0x60806040526040516100109061005f565b604051809103906000f08015801561002c573d6000803e3d6000fd5b50600180546001600160a01b0319166001600160a01b039290921691909117905534801561005957600080fd5b5061006c565b61026680610ebc83390190565b610e418061007b6000396000f3fe608060405234801561001057600080fd5b506004361061004c5760003560e01c8063297103881461005157806360c7d2951461008b5780638e1a55fc146100af578063f3701da2146100b7575b600080fd5b6100776004803603602081101561006757600080fd5b50356001600160a01b03166100dd565b604080519115158252519081900360200190f35b6100936100f2565b604080516001600160a01b039092168252519081900360200190f35b610093610101565b610093600480360360208110156100cd57600080fd5b50356001600160a01b0316610111565b60006020819052908152604090205460ff1681565b6001546001600160a01b031681565b600061010c33610111565b905090565b6001546040516000916001600160a01b03169061012d9061023a565b6001600160a01b03909116815260405190819003602001906000f08015801561015a573d6000803e3d6000fd5b50600154604080516001600160a01b038085168252928316602082015281519394509185169233927f259b30ca39885c6d801a0b5dbc988640f3c25e2f37531fe138c5c5af8955d41b92908290030190a3806001600160a01b03166313af4035836040518263ffffffff1660e01b815260040180826001600160a01b03168152602001915050600060405180830381600087803b1580156101fa57600080fd5b505af115801561020e573d6000803e3d6000fd5b5050506001600160a01b0382166000908152602081905260409020805460ff1916600117905550919050565b610bc4806102488339019056fe608060405234801561001057600080fd5b50604051610bc4380380610bc48339818101604052602081101561003357600080fd5b5051600180546001600160a01b031916339081179091556040517fce241d7ca1f669fee44b6fc00b8eba2df3bb514eed0f6f668f8f89096e81ed9490600090a261007c8161008b565b61008557600080fd5b5061023f565b60006100a2336001600160e01b0319833516610156565b6100ab57600080fd5b600080600435915060243590508082336001600160a01b03166000356001600160e01b0319166001600160e01b03191660003660405180806020018281038252848482818152602001925080828437600083820152604051601f909101601f19169092018290039550909350505050a46001600160a01b03841661012e57600080fd5b600280546001600160a01b0386166001600160a01b0319909116179055600192505050919050565b60006001600160a01b03831630141561017157506001610239565b6001546001600160a01b038481169116141561018f57506001610239565b6000546001600160a01b03166101a757506000610239565b6000546040805163b700961360e01b81526001600160a01b0386811660048301523060248301526001600160e01b0319861660448301529151919092169163b7009613916064808301926020929190829003018186803b15801561020a57600080fd5b505afa15801561021e573d6000803e3d6000fd5b505050506040513d602081101561023457600080fd5b505190505b92915050565b6109768061024e6000396000f3fe60806040526004361061007b5760003560e01c80637a9e5e4b1161004e5780637a9e5e4b146102f35780638da5cb5b14610326578063948f50761461033b578063bf7e214f146103755761007b565b806313af40351461007d5780631cff79cd146100b05780631f6a1eb91461017657806360c7d295146102c2575b005b34801561008957600080fd5b5061007b600480360360208110156100a057600080fd5b50356001600160a01b031661038a565b610164600480360360408110156100c657600080fd5b6001600160a01b038235169190810190604081016020820135600160201b8111156100f057600080fd5b82018360208201111561010257600080fd5b803590602001918460018302840111600160201b8311171561012357600080fd5b91908080601f0160208091040260200160405190810160405280939291908181526020018383808284376000920191909152509295506103f9945050505050565b60408051918252519081900360200190f35b61029f6004803603604081101561018c57600080fd5b810190602081018135600160201b8111156101a657600080fd5b8201836020820111156101b857600080fd5b803590602001918460018302840111600160201b831117156101d957600080fd5b91908080601f0160208091040260200160405190810160405280939291908181526020018383808284376000920191909152509295949360208101935035915050600160201b81111561022b57600080fd5b82018360208201111561023d57600080fd5b803590602001918460018302840111600160201b8311171561025e57600080fd5b91908080601f016020809104026020016040519081016040528093929190818152602001838380828437600092019190915250929550610519945050505050565b604080516001600160a01b03909316835260208301919091528051918290030190f35b3480156102ce57600080fd5b506102d76106f3565b604080516001600160a01b039092168252519081900360200190f35b3480156102ff57600080fd5b5061007b6004803603602081101561031657600080fd5b50356001600160a01b0316610702565b34801561033257600080fd5b506102d761076d565b6103616004803603602081101561035157600080fd5b50356001600160a01b031661077c565b604080519115158252519081900360200190f35b34801561038157600080fd5b506102d7610848565b6103a0336000356001600160e01b031916610857565b6103a957600080fd5b600180546001600160a01b0319166001600160a01b0383811691909117918290556040519116907fce241d7ca1f669fee44b6fc00b8eba2df3bb514eed0f6f668f8f89096e81ed9490600090a250565b6000610411336000356001600160e01b031916610857565b61041a57600080fd5b600080600435915060243590508082336001600160a01b03166000356001600160e01b0319166001600160e01b03191660003660405180806020018281038252848482818152602001925080828437600083820152604051601f909101601f19169092018290039550909350505050a46001600160a01b0385166104e5576040805162461bcd60e51b815260206004820152601960248201527f5461726765742063616e74206265203078206164647265737300000000000000604482015290519081900360640190fd5b60206000855160208701886113885a03f4600051935080156001811461050a5761050f565b600080fd5b5050505092915050565b6002546040516322fd145760e21b815260206004820181815285516024840152855160009485946001600160a01b0390911693638bf4515c93899390928392604490910191908501908083838b5b8381101561057f578181015183820152602001610567565b50505050905090810190601f1680156105ac5780820380516001836020036101000a031916815260200191505b509250505060206040518083038186803b1580156105c957600080fd5b505afa1580156105dd573d6000803e3d6000fd5b505050506040513d60208110156105f357600080fd5b505191506001600160a01b0382166106e057600254604051633f6861d960e11b81526020600482018181528751602484015287516001600160a01b0390941693637ed0c3b293899383926044909201919085019080838360005b8381101561066557818101518382015260200161064d565b50505050905090810190601f1680156106925780820380516001836020036101000a031916815260200191505b5092505050602060405180830381600087803b1580156106b157600080fd5b505af11580156106c5573d6000803e3d6000fd5b505050506040513d60208110156106db57600080fd5b505191505b6106ea82846103f9565b90509250929050565b6002546001600160a01b031681565b610718336000356001600160e01b031916610857565b61072157600080fd5b600080546001600160a01b0319166001600160a01b03838116919091178083556040519116917f1abebea81bfa2637f28358c371278fb15ede7ea8dd28d2e03b112ff6d936ada491a250565b6001546001600160a01b031681565b6000610794336000356001600160e01b031916610857565b61079d57600080fd5b600080600435915060243590508082336001600160a01b03166000356001600160e01b0319166001600160e01b03191660003660405180806020018281038252848482818152602001925080828437600083820152604051601f909101601f19169092018290039550909350505050a46001600160a01b03841661082057600080fd5b600280546001600160a01b0386166001600160a01b0319909116179055600192505050919050565b6000546001600160a01b031681565b60006001600160a01b0383163014156108725750600161093a565b6001546001600160a01b03848116911614156108905750600161093a565b6000546001600160a01b03166108a85750600061093a565b6000546040805163b700961360e01b81526001600160a01b0386811660048301523060248301526001600160e01b0319861660448301529151919092169163b7009613916064808301926020929190829003018186803b15801561090b57600080fd5b505afa15801561091f573d6000803e3d6000fd5b505050506040513d602081101561093557600080fd5b505190505b9291505056fea26469706673582212205a37b24d49a47db8cc7611d48ef36a4b797d127f048978e937b8b7c6757f8ea664736f6c634300060c0033a2646970667358221220322419c68e9f12b6cba75c58e8bc254e1c16f9c212cbccecf89671170beb282f64736f6c634300060c0033608060405234801561001057600080fd5b50610246806100206000396000f3fe608060405234801561001057600080fd5b50600436106100365760003560e01c80637ed0c3b21461003b5780638bf4515c146100fd575b600080fd5b6100e16004803603602081101561005157600080fd5b81019060208101813564010000000081111561006c57600080fd5b82018360208201111561007e57600080fd5b803590602001918460018302840111640100000000831117156100a057600080fd5b91908080601f0160208091040260200160405190810160405280939291908181526020018383808284376000920191909152509295506101a3945050505050565b604080516001600160a01b039092168252519081900360200190f35b6100e16004803603602081101561011357600080fd5b81019060208101813564010000000081111561012e57600080fd5b82018360208201111561014057600080fd5b8035906020019184600183028401116401000000008311171561016257600080fd5b91908080601f0160208091040260200160405190810160405280939291908181526020018383808284376000920191909152509295506101ee945050505050565b60008151602083016000f09050803b156001811461003657508151602092830120600090815291829052604090912080546001600160a01b0319166001600160a01b03831617905590565b805160209182012060009081529081905260409020546001600160a01b03169056fea2646970667358221220605eef22883f1f4dd02c96ec252f53ae582c0b98fe979fed0096f2afba1b64b064736f6c634300060c0033",
  "immutableReferences": {},
  "source": "// This file was originally take from from Maker: DS Proxy Factory and modified. The original source code can be found\n// here: https://etherscan.io/address/0xa26e15c895efc0616177b7c1e7270a4c7d51c997#code\n// Changes are limited to updating the Solidity version and some stylistic modifications.\n\n/**\n *Submitted for verification at Etherscan.io on 2018-06-22\n */\n\n// proxy.sol - execute actions atomically through the proxy's identity\n\n// Copyright (C) 2017  DappHub, LLC\n\n// This program is free software: you can redistribute it and/or modify\n// it under the terms of the GNU General Public License as published by\n// the Free Software Foundation, either version 3 of the License, or\n// (at your option) any later version.\n\n// This program is distributed in the hope that it will be useful,\n// but WITHOUT ANY WARRANTY; without even the implied warranty of\n// MERCHANTABILITY or FITNESS FOR A PARTICULAR PURPOSE.  See the\n// GNU General Public License for more details.\n\n// You should have received a copy of the GNU General Public License\n// along with this program.  If not, see <http://www.gnu.org/licenses/>.\n\npragma solidity ^0.6.0;\n\nabstract contract DSAuthority {\n    function canCall(\n        address src,\n        address dst,\n        bytes4 sig\n    ) public view virtual returns (bool);\n}\n\ncontract DSAuthEvents {\n    event LogSetAuthority(address indexed authority);\n    event LogSetOwner(address indexed owner);\n}\n\ncontract DSAuth is DSAuthEvents {\n    DSAuthority public authority;\n    address public owner;\n\n    constructor() public {\n        owner = msg.sender;\n        emit LogSetOwner(msg.sender);\n    }\n\n    function setOwner(address owner_) public auth {\n        owner = owner_;\n        emit LogSetOwner(owner);\n    }\n\n    function setAuthority(DSAuthority authority_) public auth {\n        authority = authority_;\n        emit LogSetAuthority(address(authority));\n    }\n\n    modifier auth {\n        require(isAuthorized(msg.sender, msg.sig));\n        _;\n    }\n\n    function isAuthorized(address src, bytes4 sig) internal view returns (bool) {\n        if (src == address(this)) {\n            return true;\n        } else if (src == owner) {\n            return true;\n        } else if (authority == DSAuthority(0)) {\n            return false;\n        } else {\n            return authority.canCall(src, address(this), sig);\n        }\n    }\n}\n\ncontract DSNote {\n    event LogNote(\n        bytes4 indexed sig,\n        address indexed guy,\n        bytes32 indexed foo,\n        bytes32 indexed bar,\n        bytes fax\n    ) anonymous;\n\n    modifier note {\n        bytes32 foo;\n        bytes32 bar;\n\n        assembly {\n            foo := calldataload(4)\n            bar := calldataload(36)\n        }\n\n        emit LogNote(msg.sig, msg.sender, foo, bar, msg.data);\n\n        _;\n    }\n}\n\n// DSProxy\n// Allows code execution using a persistant identity This can be very\n// useful to execute a sequence of atomic actions. Since the owner of\n// the proxy can be changed, this allows for dynamic ownership models\n// i.e. a multisig\ncontract DSProxy is DSAuth, DSNote {\n    DSProxyCache public cache; // global cache for contracts\n\n    constructor(address _cacheAddr) public {\n        require(setCache(_cacheAddr));\n    }\n\n    fallback() external payable {}\n\n    // use the proxy to execute calldata _data on contract _code\n    function execute(bytes memory _code, bytes memory _data) public payable returns (address target, bytes32 response) {\n        target = cache.read(_code);\n        if (target == address(0x0)) {\n            // deploy contract & store its address in cache\n            target = cache.write(_code);\n        }\n\n        response = execute(target, _data);\n    }\n\n    function execute(address _target, bytes memory _data) public payable auth note returns (bytes32 response) {\n        require(_target != address(0x0), \"Target cant be 0x address\");\n\n        // call contract in current context\n        assembly {\n            let succeeded := delegatecall(sub(gas(), 5000), _target, add(_data, 0x20), mload(_data), 0, 32)\n            response := mload(0) // load delegatecall output\n            switch iszero(succeeded)\n                case 1 {\n                    // throw if delegatecall failed\n                    revert(0, 0)\n                }\n        }\n    }\n\n    //set new cache\n    function setCache(address _cacheAddr) public payable auth note returns (bool) {\n        require(_cacheAddr != address(0x0)); // invalid cache address\n        cache = DSProxyCache(_cacheAddr); // overwrite cache\n        return true;\n    }\n}\n\n// DSProxyFactory\n// This factory deploys new proxy instances through build()\n// Deployed proxy addresses are logged\ncontract DSProxyFactory {\n    event Created(address indexed sender, address indexed owner, address proxy, address cache);\n    mapping(address => bool) public isProxy;\n    DSProxyCache public cache = new DSProxyCache();\n\n    // deploys a new proxy instance\n    // sets owner of proxy to caller\n    function build() public returns (DSProxy proxy) {\n        proxy = build(msg.sender);\n    }\n\n    // deploys a new proxy instance\n    // sets custom owner of proxy\n    function build(address owner) public returns (DSProxy proxy) {\n        proxy = new DSProxy(address(cache));\n        emit Created(msg.sender, owner, address(proxy), address(cache));\n        proxy.setOwner(owner);\n        isProxy[address(proxy)] = true;\n    }\n}\n\n// DSProxyCache\n// This global cache stores addresses of contracts previously deployed\n// by a proxy. This saves gas from repeat deployment of the same\n// contracts and eliminates blockchain bloat.\n\n// By default, all proxies deployed from the same factory store\n// contracts in the same cache. The cache a proxy instance uses can be\n// changed.  The cache uses the sha3 hash of a contract's bytecode to\n// lookup the address\ncontract DSProxyCache {\n    mapping(bytes32 => address) cache;\n\n    function read(bytes memory _code) public view returns (address) {\n        bytes32 hash = keccak256(_code);\n        return cache[hash];\n    }\n\n    function write(bytes memory _code) public returns (address target) {\n        assembly {\n            target := create(0, add(_code, 0x20), mload(_code))\n            switch iszero(extcodesize(target))\n                case 1 {\n                    // throw if contract failed to deploy\n                    revert(0, 0)\n                }\n        }\n        bytes32 hash = keccak256(_code);\n        cache[hash] = target;\n    }\n}\n",
  "sourcePath": "/home/circleci/protocol/packages/core/contracts/common/implementation/DSProxyFactory.sol",
  "compiler": {
    "name": "solc",
    "version": "0.6.12+commit.27d51765.Emscripten.clang"
  },
  "schemaVersion": "3.2.3",
  "updatedAt": "2021-02-27T02:08:44.143Z",
  "devdoc": {
    "kind": "dev",
    "methods": {},
    "version": 1
  },
  "userdoc": {
    "kind": "user",
    "methods": {},
    "version": 1
  }
}