{
  "contractName": "ExpiringMultiPartyMock",
  "abi": [
    {
      "inputs": [
        {
          "internalType": "address",
          "name": "_financialProductLibraryAddress",
          "type": "address"
        },
        {
          "internalType": "uint256",
          "name": "_expirationTimestamp",
          "type": "uint256"
        },
        {
          "components": [
            {
              "internalType": "uint256",
              "name": "rawValue",
              "type": "uint256"
            }
          ],
          "internalType": "struct FixedPoint.Unsigned",
          "name": "_collateralRequirement",
          "type": "tuple"
        },
        {
          "internalType": "bytes32",
          "name": "_priceIdentifier",
          "type": "bytes32"
        },
        {
          "internalType": "address",
          "name": "_timerAddress",
          "type": "address"
        }
      ],
      "stateMutability": "nonpayable",
      "type": "constructor"
    },
    {
      "inputs": [],
      "name": "collateralRequirement",
      "outputs": [
        {
          "internalType": "uint256",
          "name": "rawValue",
          "type": "uint256"
        }
      ],
      "stateMutability": "view",
      "type": "function"
    },
    {
      "inputs": [],
      "name": "expirationTimestamp",
      "outputs": [
        {
          "internalType": "uint256",
          "name": "",
          "type": "uint256"
        }
      ],
      "stateMutability": "view",
      "type": "function"
    },
    {
      "inputs": [],
      "name": "financialProductLibrary",
      "outputs": [
        {
          "internalType": "contract FinancialProductLibrary",
          "name": "",
          "type": "address"
        }
      ],
      "stateMutability": "view",
      "type": "function"
    },
    {
      "inputs": [],
      "name": "getCurrentTime",
      "outputs": [
        {
          "internalType": "uint256",
          "name": "",
          "type": "uint256"
        }
      ],
      "stateMutability": "view",
      "type": "function"
    },
    {
      "inputs": [],
      "name": "priceIdentifier",
      "outputs": [
        {
          "internalType": "bytes32",
          "name": "",
          "type": "bytes32"
        }
      ],
      "stateMutability": "view",
      "type": "function"
    },
    {
      "inputs": [
        {
          "internalType": "uint256",
          "name": "time",
          "type": "uint256"
        }
      ],
      "name": "setCurrentTime",
      "outputs": [],
      "stateMutability": "nonpayable",
      "type": "function"
    },
    {
      "inputs": [],
      "name": "timerAddress",
      "outputs": [
        {
          "internalType": "address",
          "name": "",
          "type": "address"
        }
      ],
      "stateMutability": "view",
      "type": "function"
    },
    {
      "inputs": [
        {
          "components": [
            {
              "internalType": "uint256",
              "name": "rawValue",
              "type": "uint256"
            }
          ],
          "internalType": "struct FixedPoint.Unsigned",
          "name": "price",
          "type": "tuple"
        },
        {
          "internalType": "uint256",
          "name": "requestTime",
          "type": "uint256"
        }
      ],
      "name": "transformPrice",
      "outputs": [
        {
          "components": [
            {
              "internalType": "uint256",
              "name": "rawValue",
              "type": "uint256"
            }
          ],
          "internalType": "struct FixedPoint.Unsigned",
          "name": "",
          "type": "tuple"
        }
      ],
      "stateMutability": "view",
      "type": "function"
    },
    {
      "inputs": [
        {
          "components": [
            {
              "internalType": "uint256",
              "name": "rawValue",
              "type": "uint256"
            }
          ],
          "internalType": "struct FixedPoint.Unsigned",
          "name": "price",
          "type": "tuple"
        }
      ],
      "name": "transformCollateralRequirement",
      "outputs": [
        {
          "components": [
            {
              "internalType": "uint256",
              "name": "rawValue",
              "type": "uint256"
            }
          ],
          "internalType": "struct FixedPoint.Unsigned",
          "name": "",
          "type": "tuple"
        }
      ],
      "stateMutability": "view",
      "type": "function"
    },
    {
      "inputs": [
        {
          "internalType": "uint256",
          "name": "requestTime",
          "type": "uint256"
        }
      ],
      "name": "transformPriceIdentifier",
      "outputs": [
        {
          "internalType": "bytes32",
          "name": "",
          "type": "bytes32"
        }
      ],
      "stateMutability": "view",
      "type": "function"
    }
  ],
  "bytecode": "0x608060405234801561001057600080fd5b5060405161076938038061076983398101604081905261002f91610072565b600080546001600160a01b03199081166001600160a01b039384161790915560029490945591516003556001805490931693909116929092179055600455610117565b600080600080600085870360a081121561008a578182fd5b8651610095816100ff565b602088810151919750909550603f19820112156100b0578182fd5b50604051602081016001600160401b03811182821017156100cf578283fd5b604090815287015181526060870151608088015191945092506100f1816100ff565b809150509295509295909350565b6001600160a01b038116811461011457600080fd5b50565b610643806101266000396000f3fe608060405234801561001057600080fd5b506004361061009e5760003560e01c806348e30c3f1161006657806348e30c3f1461011e57806362b5f7f5146101265780639375f0e91461013957806397523661146101415780639f43ddd2146101495761009e565b80630ff49b90146100a3578063197f7848146100cc5780631c39c38d146100df57806322f8e566146100f457806329cb924d14610109575b600080fd5b6100b66100b1366004610550565b610151565b6040516100c391906105bd565b60405180910390f35b6100b66100da366004610509565b6101fd565b6100e76102c8565b6040516100c39190610592565b61010761010236600461057a565b6102d7565b005b610111610351565b6040516100c391906105a6565b6101116103f4565b61011161013436600461057a565b6103fa565b6100e761049e565b6101116104ad565b6101116104b3565b6101596104b9565b6001546001600160a01b03166101705750816101f7565b60015460405162ff49b960e41b81526001600160a01b0390911690630ff49b90906101a190869086906004016105d7565b60206040518083038186803b1580156101b957600080fd5b505afa9250505080156101e9575060408051601f3d908101601f191682019092526101e69181019061052b565b60015b6101f45750816101f7565b90505b92915050565b6102056104b9565b6001546001600160a01b031661022b5750604080516020810190915260035481526102c3565b600154604051632a31263760e01b81526001600160a01b0390911690632a3126379061025e9085906003906004016105c7565b60206040518083038186803b15801561027657600080fd5b505afa9250505080156102a6575060408051601f3d908101601f191682019092526102a39181019061052b565b60015b6102c05750604080516020810190915260035481526102c3565b90505b919050565b6000546001600160a01b031681565b6000546001600160a01b03166102ec57600080fd5b60005460405163117c72b360e11b81526001600160a01b03909116906322f8e5669061031c9084906004016105a6565b600060405180830381600087803b15801561033657600080fd5b505af115801561034a573d6000803e3d6000fd5b5050505050565b600080546001600160a01b0316156103ee5760008054906101000a90046001600160a01b03166001600160a01b03166329cb924d6040518163ffffffff1660e01b815260040160206040518083038186803b1580156103af57600080fd5b505afa1580156103c3573d6000803e3d6000fd5b505050506040513d601f19601f820116820180604052508101906103e791906104f1565b90506103f1565b50425b90565b60035481565b6001546000906001600160a01b031661041657506004546102c3565b6001546004805460405163f19371b760e01b81526001600160a01b039093169263f19371b79261044992918791016105af565b60206040518083038186803b15801561046157600080fd5b505afa925050508015610491575060408051601f3d908101601f1916820190925261048e918101906104f1565b60015b6102c057506004546102c3565b6001546001600160a01b031681565b60045481565b60025481565b6040518060200160405280600081525090565b6000602082840312156104dd578081fd5b6104e760206105e6565b9135825250919050565b600060208284031215610502578081fd5b5051919050565b60006020828403121561051a578081fd5b61052483836104cc565b9392505050565b60006020828403121561053c578081fd5b61054660206105e6565b9151825250919050565b60008060408385031215610562578081fd5b61056c84846104cc565b946020939093013593505050565b60006020828403121561058b578081fd5b5035919050565b6001600160a01b0391909116815260200190565b90815260200190565b918252602082015260400190565b9051815260200190565b9151825254602082015260400190565b91518252602082015260400190565b60405181810167ffffffffffffffff8111828210171561060557600080fd5b60405291905056fea2646970667358221220ac218f68787ad88b20444666468d4921a2fa6e494216427425fec0a01bbf182d64736f6c634300060c0033",
  "immutableReferences": {},
  "source": "pragma solidity ^0.6.0;\npragma experimental ABIEncoderV2;\n\nimport \"../../common/implementation/Testable.sol\";\nimport \"../../common/implementation/FixedPoint.sol\";\nimport \"../common/financial-product-libraries/FinancialProductLibrary.sol\";\n\ncontract ExpiringMultiPartyMock is Testable {\n    using FixedPoint for FixedPoint.Unsigned;\n\n    FinancialProductLibrary public financialProductLibrary;\n    uint256 public expirationTimestamp;\n    FixedPoint.Unsigned public collateralRequirement;\n    bytes32 public priceIdentifier;\n\n    constructor(\n        address _financialProductLibraryAddress,\n        uint256 _expirationTimestamp,\n        FixedPoint.Unsigned memory _collateralRequirement,\n        bytes32 _priceIdentifier,\n        address _timerAddress\n    ) public Testable(_timerAddress) {\n        expirationTimestamp = _expirationTimestamp;\n        collateralRequirement = _collateralRequirement;\n        financialProductLibrary = FinancialProductLibrary(_financialProductLibraryAddress);\n        priceIdentifier = _priceIdentifier;\n    }\n\n    function transformPrice(FixedPoint.Unsigned memory price, uint256 requestTime)\n        public\n        view\n        returns (FixedPoint.Unsigned memory)\n    {\n        if (address(financialProductLibrary) == address(0)) return price;\n        try financialProductLibrary.transformPrice(price, requestTime) returns (\n            FixedPoint.Unsigned memory transformedPrice\n        ) {\n            return transformedPrice;\n        } catch {\n            return price;\n        }\n    }\n\n    function transformCollateralRequirement(FixedPoint.Unsigned memory price)\n        public\n        view\n        returns (FixedPoint.Unsigned memory)\n    {\n        if (address(financialProductLibrary) == address(0)) return collateralRequirement;\n        try financialProductLibrary.transformCollateralRequirement(price, collateralRequirement) returns (\n            FixedPoint.Unsigned memory transformedCollateralRequirement\n        ) {\n            return transformedCollateralRequirement;\n        } catch {\n            return collateralRequirement;\n        }\n    }\n\n    function transformPriceIdentifier(uint256 requestTime) public view returns (bytes32) {\n        if (address(financialProductLibrary) == address(0)) return priceIdentifier;\n        try financialProductLibrary.transformPriceIdentifier(priceIdentifier, requestTime) returns (\n            bytes32 transformedIdentifier\n        ) {\n            return transformedIdentifier;\n        } catch {\n            return priceIdentifier;\n        }\n    }\n}\n",
  "sourcePath": "/home/circleci/protocol/packages/core/contracts/financial-templates/test/ExpiringMultiPartyMock.sol",
  "compiler": {
    "name": "solc",
    "version": "0.6.12+commit.27d51765.Emscripten.clang"
  },
  "schemaVersion": "3.2.3",
  "updatedAt": "2021-02-27T02:08:44.357Z",
  "devdoc": {
    "kind": "dev",
    "methods": {
      "getCurrentTime()": {
        "returns": {
          "_0": "uint for the current Testable timestamp."
        }
      },
      "setCurrentTime(uint256)": {
        "details": "Will revert if not running in test mode.",
        "params": {
          "time": "timestamp to set current Testable time to."
        }
      }
    },
    "version": 1
  },
  "userdoc": {
    "kind": "user",
    "methods": {
      "getCurrentTime()": {
        "notice": "Gets the current time. Will return the last time set in `setCurrentTime` if running in test mode. Otherwise, it will return the block timestamp."
      },
      "setCurrentTime(uint256)": {
        "notice": "Sets the current time."
      }
    },
    "version": 1
  }
}