{
  "contractName": "IdentifierWhitelist",
  "abi": [
    {
      "anonymous": false,
      "inputs": [
        {
          "indexed": true,
          "internalType": "address",
          "name": "previousOwner",
          "type": "address"
        },
        {
          "indexed": true,
          "internalType": "address",
          "name": "newOwner",
          "type": "address"
        }
      ],
      "name": "OwnershipTransferred",
      "type": "event"
    },
    {
      "anonymous": false,
      "inputs": [
        {
          "indexed": true,
          "internalType": "bytes32",
          "name": "identifier",
          "type": "bytes32"
        }
      ],
      "name": "SupportedIdentifierAdded",
      "type": "event"
    },
    {
      "anonymous": false,
      "inputs": [
        {
          "indexed": true,
          "internalType": "bytes32",
          "name": "identifier",
          "type": "bytes32"
        }
      ],
      "name": "SupportedIdentifierRemoved",
      "type": "event"
    },
    {
      "inputs": [],
      "name": "owner",
      "outputs": [
        {
          "internalType": "address",
          "name": "",
          "type": "address"
        }
      ],
      "stateMutability": "view",
      "type": "function"
    },
    {
      "inputs": [],
      "name": "renounceOwnership",
      "outputs": [],
      "stateMutability": "nonpayable",
      "type": "function"
    },
    {
      "inputs": [
        {
          "internalType": "address",
          "name": "newOwner",
          "type": "address"
        }
      ],
      "name": "transferOwnership",
      "outputs": [],
      "stateMutability": "nonpayable",
      "type": "function"
    },
    {
      "inputs": [
        {
          "internalType": "bytes32",
          "name": "identifier",
          "type": "bytes32"
        }
      ],
      "name": "addSupportedIdentifier",
      "outputs": [],
      "stateMutability": "nonpayable",
      "type": "function"
    },
    {
      "inputs": [
        {
          "internalType": "bytes32",
          "name": "identifier",
          "type": "bytes32"
        }
      ],
      "name": "removeSupportedIdentifier",
      "outputs": [],
      "stateMutability": "nonpayable",
      "type": "function"
    },
    {
      "inputs": [
        {
          "internalType": "bytes32",
          "name": "identifier",
          "type": "bytes32"
        }
      ],
      "name": "isIdentifierSupported",
      "outputs": [
        {
          "internalType": "bool",
          "name": "",
          "type": "bool"
        }
      ],
      "stateMutability": "view",
      "type": "function"
    }
  ],
  "bytecode": "0x608060405234801561001057600080fd5b50600061001b61006a565b600080546001600160a01b0319166001600160a01b0383169081178255604051929350917f8be0079c531659141344cd1fd0a4f28419497f9722a3daafe3b4186f6b6457e0908290a35061006e565b3390565b6104c88061007d6000396000f3fe608060405234801561001057600080fd5b50600436106100625760003560e01c806310a7e20114610067578063715018a6146100865780638da5cb5b1461008e5780638e0d3ca7146100b257806390978d1b146100cf578063f2fde38b14610100575b600080fd5b6100846004803603602081101561007d57600080fd5b5035610126565b005b6100846101db565b61009661027d565b604080516001600160a01b039092168252519081900360200190f35b610084600480360360208110156100c857600080fd5b503561028c565b6100ec600480360360208110156100e557600080fd5b503561033b565b604080519115158252519081900360200190f35b6100846004803603602081101561011657600080fd5b50356001600160a01b0316610350565b61012e610448565b6000546001600160a01b0390811691161461017e576040805162461bcd60e51b81526020600482018190526024820152600080516020610473833981519152604482015290519081900360640190fd5b60008181526001602052604090205460ff166101d8576000818152600160208190526040808320805460ff19169092179091555182917fa0ca1076d765c13772089a90b5121cf6ddf63c9f7891c4e5031adbc85936b27691a25b50565b6101e3610448565b6000546001600160a01b03908116911614610233576040805162461bcd60e51b81526020600482018190526024820152600080516020610473833981519152604482015290519081900360640190fd5b600080546040516001600160a01b03909116907f8be0079c531659141344cd1fd0a4f28419497f9722a3daafe3b4186f6b6457e0908390a3600080546001600160a01b0319169055565b6000546001600160a01b031690565b610294610448565b6000546001600160a01b039081169116146102e4576040805162461bcd60e51b81526020600482018190526024820152600080516020610473833981519152604482015290519081900360640190fd5b60008181526001602052604090205460ff16156101d857600081815260016020526040808220805460ff191690555182917fefdf15ca0f9402bd4e933b0edb0db65b23cc50d27cb010d8abcadaae4fa944e591a250565b60009081526001602052604090205460ff1690565b610358610448565b6000546001600160a01b039081169116146103a8576040805162461bcd60e51b81526020600482018190526024820152600080516020610473833981519152604482015290519081900360640190fd5b6001600160a01b0381166103ed5760405162461bcd60e51b815260040180806020018281038252602681526020018061044d6026913960400191505060405180910390fd5b600080546040516001600160a01b03808516939216917f8be0079c531659141344cd1fd0a4f28419497f9722a3daafe3b4186f6b6457e091a3600080546001600160a01b0319166001600160a01b0392909216919091179055565b339056fe4f776e61626c653a206e6577206f776e657220697320746865207a65726f20616464726573734f776e61626c653a2063616c6c6572206973206e6f7420746865206f776e6572a2646970667358221220365e91b0751bafdec6ec21a875788ce828ece14ac6eccb91875e79ad784df93f64736f6c634300060c0033",
  "immutableReferences": {},
  "source": "// SPDX-License-Identifier: AGPL-3.0-only\npragma solidity ^0.6.0;\n\nimport \"../interfaces/IdentifierWhitelistInterface.sol\";\nimport \"@openzeppelin/contracts/access/Ownable.sol\";\n\n/**\n * @title Stores a whitelist of supported identifiers that the oracle can provide prices for.\n */\ncontract IdentifierWhitelist is IdentifierWhitelistInterface, Ownable {\n    /****************************************\n     *     INTERNAL VARIABLES AND STORAGE   *\n     ****************************************/\n\n    mapping(bytes32 => bool) private supportedIdentifiers;\n\n    /****************************************\n     *                EVENTS                *\n     ****************************************/\n\n    event SupportedIdentifierAdded(bytes32 indexed identifier);\n    event SupportedIdentifierRemoved(bytes32 indexed identifier);\n\n    /****************************************\n     *    ADMIN STATE MODIFYING FUNCTIONS   *\n     ****************************************/\n\n    /**\n     * @notice Adds the provided identifier as a supported identifier.\n     * @dev Price requests using this identifier will succeed after this call.\n     * @param identifier unique UTF-8 representation for the feed being added. Eg: BTC/USD.\n     */\n    function addSupportedIdentifier(bytes32 identifier) external override onlyOwner {\n        if (!supportedIdentifiers[identifier]) {\n            supportedIdentifiers[identifier] = true;\n            emit SupportedIdentifierAdded(identifier);\n        }\n    }\n\n    /**\n     * @notice Removes the identifier from the whitelist.\n     * @dev Price requests using this identifier will no longer succeed after this call.\n     * @param identifier unique UTF-8 representation for the feed being removed. Eg: BTC/USD.\n     */\n    function removeSupportedIdentifier(bytes32 identifier) external override onlyOwner {\n        if (supportedIdentifiers[identifier]) {\n            supportedIdentifiers[identifier] = false;\n            emit SupportedIdentifierRemoved(identifier);\n        }\n    }\n\n    /****************************************\n     *     WHITELIST GETTERS FUNCTIONS      *\n     ****************************************/\n\n    /**\n     * @notice Checks whether an identifier is on the whitelist.\n     * @param identifier unique UTF-8 representation for the feed being queried. Eg: BTC/USD.\n     * @return bool if the identifier is supported (or not).\n     */\n    function isIdentifierSupported(bytes32 identifier) external view override returns (bool) {\n        return supportedIdentifiers[identifier];\n    }\n}\n",
  "sourcePath": "/home/circleci/protocol/packages/core/contracts/oracle/implementation/IdentifierWhitelist.sol",
  "compiler": {
    "name": "solc",
    "version": "0.6.12+commit.27d51765.Emscripten.clang"
  },
  "schemaVersion": "3.2.3",
  "updatedAt": "2021-02-27T02:08:44.374Z",
  "devdoc": {
    "kind": "dev",
    "methods": {
      "addSupportedIdentifier(bytes32)": {
        "details": "Price requests using this identifier will succeed after this call.",
        "params": {
          "identifier": "unique UTF-8 representation for the feed being added. Eg: BTC/USD."
        }
      },
      "isIdentifierSupported(bytes32)": {
        "params": {
          "identifier": "unique UTF-8 representation for the feed being queried. Eg: BTC/USD."
        },
        "returns": {
          "_0": "bool if the identifier is supported (or not)."
        }
      },
      "owner()": {
        "details": "Returns the address of the current owner."
      },
      "removeSupportedIdentifier(bytes32)": {
        "details": "Price requests using this identifier will no longer succeed after this call.",
        "params": {
          "identifier": "unique UTF-8 representation for the feed being removed. Eg: BTC/USD."
        }
      },
      "renounceOwnership()": {
        "details": "Leaves the contract without owner. It will not be possible to call `onlyOwner` functions anymore. Can only be called by the current owner. NOTE: Renouncing ownership will leave the contract without an owner, thereby removing any functionality that is only available to the owner."
      },
      "transferOwnership(address)": {
        "details": "Transfers ownership of the contract to a new account (`newOwner`). Can only be called by the current owner."
      }
    },
    "title": "Stores a whitelist of supported identifiers that the oracle can provide prices for.",
    "version": 1
  },
  "userdoc": {
    "kind": "user",
    "methods": {
      "addSupportedIdentifier(bytes32)": {
        "notice": "Adds the provided identifier as a supported identifier."
      },
      "isIdentifierSupported(bytes32)": {
        "notice": "Checks whether an identifier is on the whitelist."
      },
      "removeSupportedIdentifier(bytes32)": {
        "notice": "Removes the identifier from the whitelist."
      }
    },
    "version": 1
  }
}