{
  "contractName": "OptimisticRequesterTest",
  "abi": [
    {
      "inputs": [
        {
          "internalType": "contract OptimisticOracle",
          "name": "_optimisticOracle",
          "type": "address"
        }
      ],
      "stateMutability": "nonpayable",
      "type": "constructor"
    },
    {
      "inputs": [],
      "name": "ancillaryData",
      "outputs": [
        {
          "internalType": "bytes",
          "name": "",
          "type": "bytes"
        }
      ],
      "stateMutability": "view",
      "type": "function"
    },
    {
      "inputs": [],
      "name": "identifier",
      "outputs": [
        {
          "internalType": "bytes32",
          "name": "",
          "type": "bytes32"
        }
      ],
      "stateMutability": "view",
      "type": "function"
    },
    {
      "inputs": [],
      "name": "price",
      "outputs": [
        {
          "internalType": "int256",
          "name": "",
          "type": "int256"
        }
      ],
      "stateMutability": "view",
      "type": "function"
    },
    {
      "inputs": [],
      "name": "refund",
      "outputs": [
        {
          "internalType": "uint256",
          "name": "",
          "type": "uint256"
        }
      ],
      "stateMutability": "view",
      "type": "function"
    },
    {
      "inputs": [],
      "name": "shouldRevert",
      "outputs": [
        {
          "internalType": "bool",
          "name": "",
          "type": "bool"
        }
      ],
      "stateMutability": "view",
      "type": "function"
    },
    {
      "inputs": [],
      "name": "timestamp",
      "outputs": [
        {
          "internalType": "uint256",
          "name": "",
          "type": "uint256"
        }
      ],
      "stateMutability": "view",
      "type": "function"
    },
    {
      "inputs": [
        {
          "internalType": "bytes32",
          "name": "_identifier",
          "type": "bytes32"
        },
        {
          "internalType": "uint256",
          "name": "_timestamp",
          "type": "uint256"
        },
        {
          "internalType": "bytes",
          "name": "_ancillaryData",
          "type": "bytes"
        },
        {
          "internalType": "contract IERC20",
          "name": "currency",
          "type": "address"
        },
        {
          "internalType": "uint256",
          "name": "reward",
          "type": "uint256"
        }
      ],
      "name": "requestPrice",
      "outputs": [],
      "stateMutability": "nonpayable",
      "type": "function"
    },
    {
      "inputs": [
        {
          "internalType": "bytes32",
          "name": "_identifier",
          "type": "bytes32"
        },
        {
          "internalType": "uint256",
          "name": "_timestamp",
          "type": "uint256"
        },
        {
          "internalType": "bytes",
          "name": "_ancillaryData",
          "type": "bytes"
        }
      ],
      "name": "settleAndGetPrice",
      "outputs": [
        {
          "internalType": "int256",
          "name": "",
          "type": "int256"
        }
      ],
      "stateMutability": "nonpayable",
      "type": "function"
    },
    {
      "inputs": [
        {
          "internalType": "bytes32",
          "name": "_identifier",
          "type": "bytes32"
        },
        {
          "internalType": "uint256",
          "name": "_timestamp",
          "type": "uint256"
        },
        {
          "internalType": "bytes",
          "name": "_ancillaryData",
          "type": "bytes"
        },
        {
          "internalType": "uint256",
          "name": "bond",
          "type": "uint256"
        }
      ],
      "name": "setBond",
      "outputs": [],
      "stateMutability": "nonpayable",
      "type": "function"
    },
    {
      "inputs": [
        {
          "internalType": "bytes32",
          "name": "_identifier",
          "type": "bytes32"
        },
        {
          "internalType": "uint256",
          "name": "_timestamp",
          "type": "uint256"
        },
        {
          "internalType": "bytes",
          "name": "_ancillaryData",
          "type": "bytes"
        }
      ],
      "name": "setRefundOnDispute",
      "outputs": [],
      "stateMutability": "nonpayable",
      "type": "function"
    },
    {
      "inputs": [
        {
          "internalType": "bytes32",
          "name": "_identifier",
          "type": "bytes32"
        },
        {
          "internalType": "uint256",
          "name": "_timestamp",
          "type": "uint256"
        },
        {
          "internalType": "bytes",
          "name": "_ancillaryData",
          "type": "bytes"
        },
        {
          "internalType": "uint256",
          "name": "customLiveness",
          "type": "uint256"
        }
      ],
      "name": "setCustomLiveness",
      "outputs": [],
      "stateMutability": "nonpayable",
      "type": "function"
    },
    {
      "inputs": [
        {
          "internalType": "bool",
          "name": "_shouldRevert",
          "type": "bool"
        }
      ],
      "name": "setRevert",
      "outputs": [],
      "stateMutability": "nonpayable",
      "type": "function"
    },
    {
      "inputs": [],
      "name": "clearState",
      "outputs": [],
      "stateMutability": "nonpayable",
      "type": "function"
    },
    {
      "inputs": [
        {
          "internalType": "bytes32",
          "name": "_identifier",
          "type": "bytes32"
        },
        {
          "internalType": "uint256",
          "name": "_timestamp",
          "type": "uint256"
        },
        {
          "internalType": "bytes",
          "name": "_ancillaryData",
          "type": "bytes"
        }
      ],
      "name": "priceProposed",
      "outputs": [],
      "stateMutability": "nonpayable",
      "type": "function"
    },
    {
      "inputs": [
        {
          "internalType": "bytes32",
          "name": "_identifier",
          "type": "bytes32"
        },
        {
          "internalType": "uint256",
          "name": "_timestamp",
          "type": "uint256"
        },
        {
          "internalType": "bytes",
          "name": "_ancillaryData",
          "type": "bytes"
        },
        {
          "internalType": "uint256",
          "name": "_refund",
          "type": "uint256"
        }
      ],
      "name": "priceDisputed",
      "outputs": [],
      "stateMutability": "nonpayable",
      "type": "function"
    },
    {
      "inputs": [
        {
          "internalType": "bytes32",
          "name": "_identifier",
          "type": "bytes32"
        },
        {
          "internalType": "uint256",
          "name": "_timestamp",
          "type": "uint256"
        },
        {
          "internalType": "bytes",
          "name": "_ancillaryData",
          "type": "bytes"
        },
        {
          "internalType": "int256",
          "name": "_price",
          "type": "int256"
        }
      ],
      "name": "priceSettled",
      "outputs": [],
      "stateMutability": "nonpayable",
      "type": "function"
    }
  ],
  "bytecode": "0x60806040526000805460ff60a01b1916905534801561001d57600080fd5b50604051610fc1380380610fc18339818101604052602081101561004057600080fd5b5051600080546001600160a01b039092166001600160a01b0319909216919091179055610f4f806100726000396000f3fe608060405234801561001057600080fd5b50600436106101005760003560e01c80638fb5f17111610097578063ad5a755a11610066578063ad5a755a146106b1578063b80777ea14610763578063d3072d821461076b578063f0136a631461078757610100565b80638fb5f1711461052a57806391f58dcb146105495780639c2fd1df146105f9578063a035b1fe146106a957610100565b806353b59239116100d357806353b59239146103db578063590e1ae31461049d57806365599057146104a55780637998a1c41461052257610100565b806304cc1fd5146101055780630d8f2372146101b957806311df92f11461026b578063473c45fe14610329575b600080fd5b6101b76004803603608081101561011b57600080fd5b813591602081013591810190606081016040820135600160201b81111561014157600080fd5b82018360208201111561015357600080fd5b803590602001918460018302840111600160201b8311171561017457600080fd5b91908080601f016020809104026020016040519081016040528093929190818152602001838380828437600092019190915250929550509135925061078f915050565b005b6101b7600480360360808110156101cf57600080fd5b813591602081013591810190606081016040820135600160201b8111156101f557600080fd5b82018360208201111561020757600080fd5b803590602001918460018302840111600160201b8311171561022857600080fd5b91908080601f01602080910402602001604051908101604052809392919081815260200183838082843760009201919091525092955050913592506107cc915050565b6101b7600480360360a081101561028157600080fd5b813591602081013591810190606081016040820135600160201b8111156102a757600080fd5b8201836020820111156102b957600080fd5b803590602001918460018302840111600160201b831117156102da57600080fd5b91908080601f016020809104026020016040519081016040528093929190818152602001838380828437600092019190915250929550506001600160a01b038335169350505060200135610809565b6101b76004803603608081101561033f57600080fd5b813591602081013591810190606081016040820135600160201b81111561036557600080fd5b82018360208201111561037757600080fd5b803590602001918460018302840111600160201b8311171561039857600080fd5b91908080601f0160208091040260200160405190810160405280939291908181526020018383808284376000920191909152509295505091359250610996915050565b61048b600480360360608110156103f157600080fd5b813591602081013591810190606081016040820135600160201b81111561041757600080fd5b82018360208201111561042957600080fd5b803590602001918460018302840111600160201b8311171561044a57600080fd5b91908080601f016020809104026020016040519081016040528093929190818152602001838380828437600092019190915250929550610a87945050505050565b60408051918252519081900360200190f35b61048b610b7e565b6104ad610b84565b6040805160208082528351818301528351919283929083019185019080838360005b838110156104e75781810151838201526020016104cf565b50505050905090810190601f1680156105145780820380516001836020036101000a031916815260200191505b509250505060405180910390f35b61048b610c12565b6101b76004803603602081101561054057600080fd5b50351515610c18565b6101b76004803603606081101561055f57600080fd5b813591602081013591810190606081016040820135600160201b81111561058557600080fd5b82018360208201111561059757600080fd5b803590602001918460018302840111600160201b831117156105b857600080fd5b91908080601f016020809104026020016040519081016040528093929190818152602001838380828437600092019190915250929550610c36945050505050565b6101b76004803603606081101561060f57600080fd5b813591602081013591810190606081016040820135600160201b81111561063557600080fd5b82018360208201111561064757600080fd5b803590602001918460018302840111600160201b8311171561066857600080fd5b91908080601f016020809104026020016040519081016040528093929190818152602001838380828437600092019190915250929550610d15945050505050565b61048b610d4f565b6101b7600480360360808110156106c757600080fd5b813591602081013591810190606081016040820135600160201b8111156106ed57600080fd5b8201836020820111156106ff57600080fd5b803590602001918460018302840111600160201b8311171561072057600080fd5b91908080601f0160208091040260200160405190810160405280939291908181526020018383808284376000920191909152509295505091359250610d55915050565b61048b610e5a565b610773610e60565b604080519115158252519081900360200190f35b6101b7610e70565b600054600160a01b900460ff16156107a657600080fd5b6001849055600283905581516107c3906003906020850190610e86565b50600555505050565b600054600160a01b900460ff16156107e357600080fd5b600184905560028390558151610800906003906020850190610e86565b50600455505050565b600080546040805163095ea7b360e01b81526001600160a01b0392831660048201526024810185905290519185169263095ea7b3926044808401936020939083900390910190829087803b15801561086057600080fd5b505af1158015610874573d6000803e3d6000fd5b505050506040513d602081101561088a57600080fd5b5050600080546040516311df92f160e01b815260048101888152602482018890526001600160a01b0386811660648401526084830186905260a060448401908152885160a4850152885191909416946311df92f1948b948b948b948b948b94929360c4019160208801918190849084905b838110156109135781810151838201526020016108fb565b50505050905090810190601f1680156109405780820380516001836020036101000a031916815260200191505b509650505050505050602060405180830381600087803b15801561096357600080fd5b505af1158015610977573d6000803e3d6000fd5b505050506040513d602081101561098d57600080fd5b50505050505050565b60008054906101000a90046001600160a01b03166001600160a01b031663473c45fe858585856040518563ffffffff1660e01b81526004018085815260200184815260200180602001838152602001828103825284818151815260200191508051906020019080838360005b83811015610a1a578181015183820152602001610a02565b50505050905090810190601f168015610a475780820380516001836020036101000a031916815260200191505b5095505050505050600060405180830381600087803b158015610a6957600080fd5b505af1158015610a7d573d6000803e3d6000fd5b5050505050505050565b600080546040516353b5923960e01b815260048101868152602482018690526060604483019081528551606484015285516001600160a01b03909416936353b59239938993899389939192909160849091019060208501908083838d5b83811015610afc578181015183820152602001610ae4565b50505050905090810190601f168015610b295780820380516001836020036101000a031916815260200191505b50945050505050602060405180830381600087803b158015610b4a57600080fd5b505af1158015610b5e573d6000803e3d6000fd5b505050506040513d6020811015610b7457600080fd5b5051949350505050565b60045481565b6003805460408051602060026001851615610100026000190190941693909304601f81018490048402820184019092528181529291830182828015610c0a5780601f10610bdf57610100808354040283529160200191610c0a565b820191906000526020600020905b815481529060010190602001808311610bed57829003601f168201915b505050505081565b60015481565b60008054911515600160a01b0260ff60a01b19909216919091179055565b60008054906101000a90046001600160a01b03166001600160a01b03166391f58dcb8484846040518463ffffffff1660e01b81526004018084815260200183815260200180602001828103825283818151815260200191508051906020019080838360005b83811015610cb3578181015183820152602001610c9b565b50505050905090810190601f168015610ce05780820380516001836020036101000a031916815260200191505b50945050505050600060405180830381600087803b158015610d0157600080fd5b505af115801561098d573d6000803e3d6000fd5b600054600160a01b900460ff1615610d2c57600080fd5b600183905560028290558051610d49906003906020840190610e86565b50505050565b60055481565b60008054906101000a90046001600160a01b03166001600160a01b031663ad5a755a858585856040518563ffffffff1660e01b81526004018085815260200184815260200180602001838152602001828103825284818151815260200191508051906020019080838360005b83811015610dd9578181015183820152602001610dc1565b50505050905090810190601f168015610e065780820380516001836020036101000a031916815260200191505b5095505050505050602060405180830381600087803b158015610e2857600080fd5b505af1158015610e3c573d6000803e3d6000fd5b505050506040513d6020811015610e5257600080fd5b505050505050565b60025481565b600054600160a01b900460ff1681565b6000600181905560028190556004819055600555565b828054600181600116156101000203166002900490600052602060002090601f016020900481019282601f10610ec757805160ff1916838001178555610ef4565b82800160010185558215610ef4579182015b82811115610ef4578251825591602001919060010190610ed9565b50610f00929150610f04565b5090565b5b80821115610f005760008155600101610f0556fea2646970667358221220e62694cf888cd8832d540d299a8ae1683b88bc9ca12a3fd9d7bfa752c83c6b1a64736f6c634300060c0033",
  "immutableReferences": {},
  "source": "// SPDX-License-Identifier: AGPL-3.0-only\npragma solidity ^0.6.0;\n\nimport \"@openzeppelin/contracts/token/ERC20/IERC20.sol\";\n\nimport \"../OptimisticOracle.sol\";\n\n// This is just a test contract to make requests to the optimistic oracle.\ncontract OptimisticRequesterTest is OptimisticRequester {\n    OptimisticOracle optimisticOracle;\n    bool public shouldRevert = false;\n\n    // State variables to track incoming calls.\n    bytes32 public identifier;\n    uint256 public timestamp;\n    bytes public ancillaryData;\n    uint256 public refund;\n    int256 public price;\n\n    constructor(OptimisticOracle _optimisticOracle) public {\n        optimisticOracle = _optimisticOracle;\n    }\n\n    function requestPrice(\n        bytes32 _identifier,\n        uint256 _timestamp,\n        bytes memory _ancillaryData,\n        IERC20 currency,\n        uint256 reward\n    ) external {\n        currency.approve(address(optimisticOracle), reward);\n        optimisticOracle.requestPrice(_identifier, _timestamp, _ancillaryData, currency, reward);\n    }\n\n    function settleAndGetPrice(\n        bytes32 _identifier,\n        uint256 _timestamp,\n        bytes memory _ancillaryData\n    ) external returns (int256) {\n        return optimisticOracle.settleAndGetPrice(_identifier, _timestamp, _ancillaryData);\n    }\n\n    function setBond(\n        bytes32 _identifier,\n        uint256 _timestamp,\n        bytes memory _ancillaryData,\n        uint256 bond\n    ) external {\n        optimisticOracle.setBond(_identifier, _timestamp, _ancillaryData, bond);\n    }\n\n    function setRefundOnDispute(\n        bytes32 _identifier,\n        uint256 _timestamp,\n        bytes memory _ancillaryData\n    ) external {\n        optimisticOracle.setRefundOnDispute(_identifier, _timestamp, _ancillaryData);\n    }\n\n    function setCustomLiveness(\n        bytes32 _identifier,\n        uint256 _timestamp,\n        bytes memory _ancillaryData,\n        uint256 customLiveness\n    ) external {\n        optimisticOracle.setCustomLiveness(_identifier, _timestamp, _ancillaryData, customLiveness);\n    }\n\n    function setRevert(bool _shouldRevert) external {\n        shouldRevert = _shouldRevert;\n    }\n\n    function clearState() external {\n        delete identifier;\n        delete timestamp;\n        delete refund;\n        delete price;\n    }\n\n    function priceProposed(\n        bytes32 _identifier,\n        uint256 _timestamp,\n        bytes memory _ancillaryData\n    ) external override {\n        require(!shouldRevert);\n        identifier = _identifier;\n        timestamp = _timestamp;\n        ancillaryData = _ancillaryData;\n    }\n\n    function priceDisputed(\n        bytes32 _identifier,\n        uint256 _timestamp,\n        bytes memory _ancillaryData,\n        uint256 _refund\n    ) external override {\n        require(!shouldRevert);\n        identifier = _identifier;\n        timestamp = _timestamp;\n        ancillaryData = _ancillaryData;\n        refund = _refund;\n    }\n\n    function priceSettled(\n        bytes32 _identifier,\n        uint256 _timestamp,\n        bytes memory _ancillaryData,\n        int256 _price\n    ) external override {\n        require(!shouldRevert);\n        identifier = _identifier;\n        timestamp = _timestamp;\n        ancillaryData = _ancillaryData;\n        price = _price;\n    }\n}\n",
  "sourcePath": "/home/circleci/protocol/packages/core/contracts/oracle/implementation/test/OptimisticRequesterTest.sol",
  "compiler": {
    "name": "solc",
    "version": "0.6.12+commit.27d51765.Emscripten.clang"
  },
  "schemaVersion": "3.2.3",
  "updatedAt": "2021-02-27T02:08:44.439Z",
  "devdoc": {
    "kind": "dev",
    "methods": {},
    "version": 1
  },
  "userdoc": {
    "kind": "user",
    "methods": {},
    "version": 1
  }
}