{
  "contractName": "OracleInterfaces",
  "abi": [
    {
      "inputs": [],
      "name": "CollateralWhitelist",
      "outputs": [
        {
          "internalType": "bytes32",
          "name": "",
          "type": "bytes32"
        }
      ],
      "stateMutability": "view",
      "type": "function"
    },
    {
      "inputs": [],
      "name": "FinancialContractsAdmin",
      "outputs": [
        {
          "internalType": "bytes32",
          "name": "",
          "type": "bytes32"
        }
      ],
      "stateMutability": "view",
      "type": "function"
    },
    {
      "inputs": [],
      "name": "IdentifierWhitelist",
      "outputs": [
        {
          "internalType": "bytes32",
          "name": "",
          "type": "bytes32"
        }
      ],
      "stateMutability": "view",
      "type": "function"
    },
    {
      "inputs": [],
      "name": "OptimisticOracle",
      "outputs": [
        {
          "internalType": "bytes32",
          "name": "",
          "type": "bytes32"
        }
      ],
      "stateMutability": "view",
      "type": "function"
    },
    {
      "inputs": [],
      "name": "Oracle",
      "outputs": [
        {
          "internalType": "bytes32",
          "name": "",
          "type": "bytes32"
        }
      ],
      "stateMutability": "view",
      "type": "function"
    },
    {
      "inputs": [],
      "name": "Registry",
      "outputs": [
        {
          "internalType": "bytes32",
          "name": "",
          "type": "bytes32"
        }
      ],
      "stateMutability": "view",
      "type": "function"
    },
    {
      "inputs": [],
      "name": "Store",
      "outputs": [
        {
          "internalType": "bytes32",
          "name": "",
          "type": "bytes32"
        }
      ],
      "stateMutability": "view",
      "type": "function"
    }
  ],
  "bytecode": "0x61019d610026600b82828239805160001a60731461001957fe5b30600052607381538281f3fe73000000000000000000000000000000000000000030146080604052600436106100875760003560e01c80634f4a180b116100655780634f4a180b146100b6578063598dd097146100be5780637db9743b146100c6578063f24a534e146100ce57610087565b80631a4dbd1c1461008c5780632a71e5b3146100a657806342e90c33146100ae575b600080fd5b6100946100d6565b60408051918252519081900360200190f35b6100946100ed565b61009461010b565b610094610117565b610094610131565b61009461014b565b61009461015a565b6f4f7074696d69737469634f7261636c6560801b81565b762334b730b731b4b0b621b7b73a3930b1ba39a0b236b4b760491b81565b6453746f726560d81b81565b721259195b9d1a599a595c95da1a5d195b1a5cdd606a1b81565b7210dbdb1b185d195c985b15da1a5d195b1a5cdd606a1b81565b67526567697374727960c01b81565b654f7261636c6560d01b8156fea2646970667358221220c27224143d12b295fa91f59104d1471af448f3df4b74893ae4b2406c51bacd0264736f6c634300060c0033",
  "immutableReferences": {},
  "source": "// SPDX-License-Identifier: AGPL-3.0-only\npragma solidity ^0.6.0;\n\n/**\n * @title Stores common interface names used throughout the DVM by registration in the Finder.\n */\nlibrary OracleInterfaces {\n    bytes32 public constant Oracle = \"Oracle\";\n    bytes32 public constant IdentifierWhitelist = \"IdentifierWhitelist\";\n    bytes32 public constant Store = \"Store\";\n    bytes32 public constant FinancialContractsAdmin = \"FinancialContractsAdmin\";\n    bytes32 public constant Registry = \"Registry\";\n    bytes32 public constant CollateralWhitelist = \"CollateralWhitelist\";\n    bytes32 public constant OptimisticOracle = \"OptimisticOracle\";\n}\n",
  "sourcePath": "/home/circleci/protocol/packages/core/contracts/oracle/implementation/Constants.sol",
  "compiler": {
    "name": "solc",
    "version": "0.6.12+commit.27d51765.Emscripten.clang"
  },
  "schemaVersion": "3.2.3",
  "updatedAt": "2021-02-27T02:08:44.362Z",
  "devdoc": {
    "kind": "dev",
    "methods": {},
    "title": "Stores common interface names used throughout the DVM by registration in the Finder.",
    "version": 1
  },
  "userdoc": {
    "kind": "user",
    "methods": {},
    "version": 1
  }
}