{
  "contractName": "TokenMigrator",
  "abi": [
    {
      "inputs": [
        {
          "components": [
            {
              "internalType": "uint256",
              "name": "rawValue",
              "type": "uint256"
            }
          ],
          "internalType": "struct FixedPoint.Unsigned",
          "name": "_rate",
          "type": "tuple"
        },
        {
          "internalType": "address",
          "name": "_oldToken",
          "type": "address"
        },
        {
          "internalType": "address",
          "name": "_newToken",
          "type": "address"
        }
      ],
      "stateMutability": "nonpayable",
      "type": "constructor"
    },
    {
      "inputs": [
        {
          "internalType": "address",
          "name": "",
          "type": "address"
        }
      ],
      "name": "hasMigrated",
      "outputs": [
        {
          "internalType": "bool",
          "name": "",
          "type": "bool"
        }
      ],
      "stateMutability": "view",
      "type": "function"
    },
    {
      "inputs": [],
      "name": "newToken",
      "outputs": [
        {
          "internalType": "contract ExpandedIERC20",
          "name": "",
          "type": "address"
        }
      ],
      "stateMutability": "view",
      "type": "function"
    },
    {
      "inputs": [],
      "name": "oldToken",
      "outputs": [
        {
          "internalType": "contract VotingToken",
          "name": "",
          "type": "address"
        }
      ],
      "stateMutability": "view",
      "type": "function"
    },
    {
      "inputs": [],
      "name": "rate",
      "outputs": [
        {
          "internalType": "uint256",
          "name": "rawValue",
          "type": "uint256"
        }
      ],
      "stateMutability": "view",
      "type": "function"
    },
    {
      "inputs": [],
      "name": "snapshotId",
      "outputs": [
        {
          "internalType": "uint256",
          "name": "",
          "type": "uint256"
        }
      ],
      "stateMutability": "view",
      "type": "function"
    },
    {
      "inputs": [
        {
          "internalType": "address",
          "name": "tokenHolder",
          "type": "address"
        }
      ],
      "name": "migrateTokens",
      "outputs": [],
      "stateMutability": "nonpayable",
      "type": "function"
    }
  ],
  "bytecode": "0x608060405234801561001057600080fd5b506040516108ed3803806108ed83398101604081905261002f916101e0565b61004760008461012360201b6103011790919060201c565b61006c5760405162461bcd60e51b815260040161006390610267565b60405180910390fd5b8251600355600180546001600160a01b038084166001600160a01b0319928316179092556000805485841692169190911780825560408051634b88b8ad60e11b815290519190931692639711715a9260048083019360209390929083900390910190829087803b1580156100df57600080fd5b505af11580156100f3573d6000803e3d6000fd5b505050506040513d601f19601f82011682018060405250810190610117919061024f565b600255506102d1915050565b600061012e8261013b565b5183511190505b92915050565b6101436101b6565b604051806020016040528061016d670de0b6b3a76400008561017560201b6103191790919060201c565b905292915050565b60008261018457506000610135565b8282028284828161019157fe5b04146101af5760405162461bcd60e51b815260040161006390610290565b9392505050565b6040518060200160405280600081525090565b80516001600160a01b038116811461013557600080fd5b600080600083850360608112156101f5578384fd5b6020811215610202578384fd5b50604051602081016001600160401b0381118282101715610221578485fd5b60405284518152925061023785602086016101c9565b915061024685604086016101c9565b90509250925092565b600060208284031215610260578081fd5b5051919050565b6020808252600f908201526e0526174652063616e2774206265203608c1b604082015260600190565b60208082526021908201527f536166654d6174683a206d756c7469706c69636174696f6e206f766572666c6f6040820152607760f81b606082015260800190565b61060d806102e06000396000f3fe608060405234801561001057600080fd5b50600436106100625760003560e01c80632c4e722e146100675780632ddc79b714610085578063b31c710a1461008d578063c1684711146100a2578063c42bd05a146100b7578063d7625c88146100bf575b600080fd5b61006f6100df565b60405161007c91906105ce565b60405180910390f35b61006f6100e5565b6100956100eb565b60405161007c91906104d0565b6100b56100b036600461044d565b6100fa565b005b6100956102dd565b6100d26100cd36600461044d565b6102ec565b60405161007c91906104c5565b60035481565b60025481565b6000546001600160a01b031681565b6001600160a01b03811660009081526004602052604090205460ff161561013c5760405162461bcd60e51b81526004016101339061059d565b60405180910390fd5b6001600160a01b0381166000908152600460205260409020805460ff1916600117905561016761043a565b60408051602081019182905260005460025463277166bf60e11b909352909182916001600160a01b031690634ee2cd7e906101a7908790602486016104ac565b60206040518083038186803b1580156101bf57600080fd5b505afa1580156101d3573d6000803e3d6000fd5b505050506040513d601f19601f820116820180604052508101906101f79190610494565b90529050610206816000610301565b61021057506102da565b61021861043a565b6040805160208101909152600354815261023390839061035a565b60015481516040516340c10f1960e01b81529293506001600160a01b03909116916340c10f1991610269918791906004016104ac565b602060405180830381600087803b15801561028357600080fd5b505af1158015610297573d6000803e3d6000fd5b505050506040513d601f19601f820116820180604052508101906102bb9190610474565b6102d75760405162461bcd60e51b815260040161013390610537565b50505b50565b6001546001600160a01b031681565b60046020526000908152604090205460ff1681565b600061030c82610398565b5183511190505b92915050565b60008261032857506000610313565b8282028284828161033557fe5b04146103535760405162461bcd60e51b81526004016101339061055c565b9392505050565b61036261043a565b604080516020810190915282518451829161038f9161038990670de0b6b3a7640000610319565b906103c6565b90529392505050565b6103a061043a565b6040805160208101909152806103be84670de0b6b3a7640000610319565b905292915050565b600061035383836040518060400160405280601a81526020017f536166654d6174683a206469766973696f6e206279207a65726f000000000000815250600081836104245760405162461bcd60e51b815260040161013391906104e4565b50600083858161043057fe5b0495945050505050565b6040518060200160405280600081525090565b60006020828403121561045e578081fd5b81356001600160a01b0381168114610353578182fd5b600060208284031215610485578081fd5b81518015158114610353578182fd5b6000602082840312156104a5578081fd5b5051919050565b6001600160a01b03929092168252602082015260400190565b901515815260200190565b6001600160a01b0391909116815260200190565b6000602080835283518082850152825b81811015610510578581018301518582016040015282016104f4565b818111156105215783604083870101525b50601f01601f1916929092016040019392505050565b6020808252600b908201526a135a5b9d0819985a5b195960aa1b604082015260600190565b60208082526021908201527f536166654d6174683a206d756c7469706c69636174696f6e206f766572666c6f6040820152607760f81b606082015260800190565b602080825260179082015276416c7265616479206d6967726174656420746f6b656e7360481b604082015260600190565b9081526020019056fea26469706673582212209e809e01a8e9d154dbf590ee0330ce25ccf2ce6314a848758c774f4a880940b564736f6c634300060c0033",
  "immutableReferences": {},
  "source": "// SPDX-License-Identifier: AGPL-3.0-only\npragma solidity ^0.6.0;\n\npragma experimental ABIEncoderV2;\n\nimport \"../../common/implementation/FixedPoint.sol\";\nimport \"../../common/interfaces/ExpandedIERC20.sol\";\nimport \"./VotingToken.sol\";\n\n/**\n * @title Migration contract for VotingTokens.\n * @dev Handles migrating token holders from one token to the next.\n */\ncontract TokenMigrator {\n    using FixedPoint for FixedPoint.Unsigned;\n\n    /****************************************\n     *    INTERNAL VARIABLES AND STORAGE    *\n     ****************************************/\n\n    VotingToken public oldToken;\n    ExpandedIERC20 public newToken;\n\n    uint256 public snapshotId;\n    FixedPoint.Unsigned public rate;\n\n    mapping(address => bool) public hasMigrated;\n\n    /**\n     * @notice Construct the TokenMigrator contract.\n     * @dev This function triggers the snapshot upon which all migrations will be based.\n     * @param _rate the number of old tokens it takes to generate one new token.\n     * @param _oldToken address of the token being migrated from.\n     * @param _newToken address of the token being migrated to.\n     */\n    constructor(\n        FixedPoint.Unsigned memory _rate,\n        address _oldToken,\n        address _newToken\n    ) public {\n        // Prevents division by 0 in migrateTokens().\n        // Also it doesn’t make sense to have “0 old tokens equate to 1 new token”.\n        require(_rate.isGreaterThan(0), \"Rate can't be 0\");\n        rate = _rate;\n        newToken = ExpandedIERC20(_newToken);\n        oldToken = VotingToken(_oldToken);\n        snapshotId = oldToken.snapshot();\n    }\n\n    /**\n     * @notice Migrates the tokenHolder's old tokens to new tokens.\n     * @dev This function can only be called once per `tokenHolder`. Anyone can call this method\n     * on behalf of any other token holder since there is no disadvantage to receiving the tokens earlier.\n     * @param tokenHolder address of the token holder to migrate.\n     */\n    function migrateTokens(address tokenHolder) external {\n        require(!hasMigrated[tokenHolder], \"Already migrated tokens\");\n        hasMigrated[tokenHolder] = true;\n\n        FixedPoint.Unsigned memory oldBalance = FixedPoint.Unsigned(oldToken.balanceOfAt(tokenHolder, snapshotId));\n\n        if (!oldBalance.isGreaterThan(0)) {\n            return;\n        }\n\n        FixedPoint.Unsigned memory newBalance = oldBalance.div(rate);\n        require(newToken.mint(tokenHolder, newBalance.rawValue), \"Mint failed\");\n    }\n}\n",
  "sourcePath": "/home/circleci/protocol/packages/core/contracts/oracle/implementation/TokenMigrator.sol",
  "compiler": {
    "name": "solc",
    "version": "0.6.12+commit.27d51765.Emscripten.clang"
  },
  "schemaVersion": "3.2.3",
  "updatedAt": "2021-02-27T02:08:44.412Z",
  "devdoc": {
    "details": "Handles migrating token holders from one token to the next.",
    "kind": "dev",
    "methods": {
      "constructor": {
        "details": "This function triggers the snapshot upon which all migrations will be based.",
        "params": {
          "_newToken": "address of the token being migrated to.",
          "_oldToken": "address of the token being migrated from.",
          "_rate": "the number of old tokens it takes to generate one new token."
        }
      },
      "migrateTokens(address)": {
        "details": "This function can only be called once per `tokenHolder`. Anyone can call this method on behalf of any other token holder since there is no disadvantage to receiving the tokens earlier.",
        "params": {
          "tokenHolder": "address of the token holder to migrate."
        }
      }
    },
    "title": "Migration contract for VotingTokens.",
    "version": 1
  },
  "userdoc": {
    "kind": "user",
    "methods": {
      "constructor": "Construct the TokenMigrator contract.",
      "migrateTokens(address)": {
        "notice": "Migrates the tokenHolder's old tokens to new tokens."
      }
    },
    "version": 1
  }
}