{
  "contractName": "UniswapBroker",
  "abi": [
    {
      "inputs": [
        {
          "internalType": "address",
          "name": "uniswapRouter",
          "type": "address"
        },
        {
          "internalType": "address",
          "name": "uniswapFactory",
          "type": "address"
        },
        {
          "internalType": "address",
          "name": "tokenA",
          "type": "address"
        },
        {
          "internalType": "address",
          "name": "tokenB",
          "type": "address"
        },
        {
          "internalType": "uint256",
          "name": "truePriceTokenA",
          "type": "uint256"
        },
        {
          "internalType": "uint256",
          "name": "truePriceTokenB",
          "type": "uint256"
        },
        {
          "internalType": "uint256",
          "name": "maxSpendTokenA",
          "type": "uint256"
        },
        {
          "internalType": "uint256",
          "name": "maxSpendTokenB",
          "type": "uint256"
        },
        {
          "internalType": "address",
          "name": "to",
          "type": "address"
        },
        {
          "internalType": "uint256",
          "name": "deadline",
          "type": "uint256"
        }
      ],
      "name": "swapToPrice",
      "outputs": [],
      "stateMutability": "nonpayable",
      "type": "function"
    },
    {
      "inputs": [
        {
          "internalType": "uint256",
          "name": "truePriceTokenA",
          "type": "uint256"
        },
        {
          "internalType": "uint256",
          "name": "truePriceTokenB",
          "type": "uint256"
        },
        {
          "internalType": "uint256",
          "name": "reserveA",
          "type": "uint256"
        },
        {
          "internalType": "uint256",
          "name": "reserveB",
          "type": "uint256"
        }
      ],
      "name": "computeTradeToMoveMarket",
      "outputs": [
        {
          "internalType": "bool",
          "name": "aToB",
          "type": "bool"
        },
        {
          "internalType": "uint256",
          "name": "amountIn",
          "type": "uint256"
        }
      ],
      "stateMutability": "pure",
      "type": "function"
    },
    {
      "inputs": [
        {
          "internalType": "address",
          "name": "factory",
          "type": "address"
        },
        {
          "internalType": "address",
          "name": "tokenA",
          "type": "address"
        },
        {
          "internalType": "address",
          "name": "tokenB",
          "type": "address"
        }
      ],
      "name": "getReserves",
      "outputs": [
        {
          "internalType": "uint256",
          "name": "reserveA",
          "type": "uint256"
        },
        {
          "internalType": "uint256",
          "name": "reserveB",
          "type": "uint256"
        }
      ],
      "stateMutability": "view",
      "type": "function"
    }
  ],
  "bytecode": "0x608060405234801561001057600080fd5b50610f33806100206000396000f3fe608060405234801561001057600080fd5b50600436106100415760003560e01c80630c41455e146100465780632e3ed3f9146100af57806332749461146100f9575b600080fd5b6100ad600480360361014081101561005d57600080fd5b506001600160a01b03813581169160208101358216916040820135811691606081013582169160808201359160a08101359160c08201359160e0810135916101008201351690610120013561014a565b005b6100de600480360360808110156100c557600080fd5b50803590602081013590604081013590606001356104d3565b60408051921515835260208301919091528051918290030190f35b6101316004803603606081101561010f57600080fd5b506001600160a01b038135811691602081013582169160409091013516610563565b6040805192835260208301919091528051918290030190f35b89861580159061015957508515155b6101a4576040805162461bcd60e51b815260206004820152601760248201527653776170546f50726963653a205a45524f5f505249434560481b604482015290519081900360640190fd5b841515806101b157508315155b6101fc576040805162461bcd60e51b815260206004820152601760248201527614ddd85c151bd41c9a58d94e8816915493d7d4d4115391604a1b604482015290519081900360640190fd5b60008060008061020d8e8e8e610563565b9150915061021d8b8b84846104d3565b9094509250505080610276576040805162461bcd60e51b815260206004820152601b60248201527f53776170546f50726963653a205a45524f5f414d4f554e545f494e0000000000604482015290519081900360640190fd5b6000826102835786610285565b875b905080821115610293578091505b6000836102a0578b6102a2565b8c5b90506000846102b1578d6102b3565b8c5b90506102c182333087610631565b6102cc82878661078e565b604080516002808252606080830184529260208301908036833701905050905082816000815181106102fa57fe5b60200260200101906001600160a01b031690816001600160a01b031681525050818160018151811061032857fe5b60200260200101906001600160a01b031690816001600160a01b031681525050866001600160a01b03166338ed1739866000848d8d6040518663ffffffff1660e01b81526004018086815260200185815260200180602001846001600160a01b03168152602001838152602001828103825285818151815260200191508051906020019060200280838360005b838110156103cd5781810151838201526020016103b5565b505050509050019650505050505050600060405180830381600087803b1580156103f657600080fd5b505af115801561040a573d6000803e3d6000fd5b505050506040513d6000823e601f3d908101601f19168201604052602081101561043357600080fd5b810190808051604051939291908464010000000082111561045357600080fd5b90830190602082018581111561046857600080fd5b825186602082028301116401000000008211171561048557600080fd5b82525081516020918201928201910280838360005b838110156104b257818101518382015260200161049a565b50505050905001604052505050505050505050505050505050505050505050565b600080856104e28587866108e2565b10915060006104f1858561099d565b9050600061052061051b83866105075789610509565b8a5b87610514578b610516565b8a5b6108e2565b6109ff565b905060008461052f5785610531565b865b90508082101561054a576000809450945050505061055a565b6105548282610b47565b93505050505b94509492505050565b60008060006105728585610b89565b509050600080610583888888610c67565b6001600160a01b0316630902f1ac6040518163ffffffff1660e01b815260040160606040518083038186803b1580156105bb57600080fd5b505afa1580156105cf573d6000803e3d6000fd5b505050506040513d60608110156105e557600080fd5b5080516020909101516dffffffffffffffffffffffffffff91821693501690506001600160a01b038781169084161461061f578082610622565b81815b90999098509650505050505050565b604080516001600160a01b0385811660248301528481166044830152606480830185905283518084039091018152608490920183526020820180516001600160e01b03166323b872dd60e01b17815292518251600094606094938a169392918291908083835b602083106106b65780518252601f199092019160209182019101610697565b6001836020036101000a0380198251168184511680821785525050505050509050019150506000604051808303816000865af19150503d8060008114610718576040519150601f19603f3d011682016040523d82523d6000602084013e61071d565b606091505b509150915081801561074b57508051158061074b575080806020019051602081101561074857600080fd5b50515b6107865760405162461bcd60e51b8152600401808060200182810382526031815260200180610e5c6031913960400191505060405180910390fd5b505050505050565b604080516001600160a01b038481166024830152604480830185905283518084039091018152606490920183526020820180516001600160e01b031663095ea7b360e01b178152925182516000946060949389169392918291908083835b6020831061080b5780518252601f1990920191602091820191016107ec565b6001836020036101000a0380198251168184511680821785525050505050509050019150506000604051808303816000865af19150503d806000811461086d576040519150601f19603f3d011682016040523d82523d6000602084013e610872565b606091505b50915091508180156108a05750805115806108a0575080806020019051602081101561089d57600080fd5b50515b6108db5760405162461bcd60e51b815260040180806020018281038252602b815260200180610ed3602b913960400191505060405180910390fd5b5050505050565b60008060006108f18686610d27565b91509150600084806108ff57fe5b868809905082811115610913576001820391505b9182900391816109315784838161092657fe5b049350505050610996565b848210610985576040805162461bcd60e51b815260206004820152601a60248201527f46756c6c4d6174683a2046554c4c4449565f4f564552464c4f57000000000000604482015290519081900360640190fd5b610990838387610d54565b93505050505b9392505050565b6000826109ac575060006109f9565b828202828482816109b957fe5b04146109f65760405162461bcd60e51b8152600401808060200182810382526021815260200180610eb26021913960400191505060405180910390fd5b90505b92915050565b600081610a0e57506000610b42565b816001600160801b8210610a275760809190911c9060401b5b680100000000000000008210610a425760409190911c9060201b5b6401000000008210610a595760209190911c9060101b5b620100008210610a6e5760109190911c9060081b5b6101008210610a825760089190911c9060041b5b60108210610a955760049190911c9060021b5b60088210610aa15760011b5b6001818581610aac57fe5b048201901c90506001818581610abe57fe5b048201901c90506001818581610ad057fe5b048201901c90506001818581610ae257fe5b048201901c90506001818581610af457fe5b048201901c90506001818581610b0657fe5b048201901c90506001818581610b1857fe5b048201901c90506000818581610b2a57fe5b049050808210610b3a5780610b3c565b815b93505050505b919050565b60006109f683836040518060400160405280601e81526020017f536166654d6174683a207375627472616374696f6e206f766572666c6f770000815250610dc4565b600080826001600160a01b0316846001600160a01b03161415610bdd5760405162461bcd60e51b8152600401808060200182810382526025815260200180610e8d6025913960400191505060405180910390fd5b826001600160a01b0316846001600160a01b031610610bfd578284610c00565b83835b90925090506001600160a01b038216610c60576040805162461bcd60e51b815260206004820152601e60248201527f556e697377617056324c6962726172793a205a45524f5f414444524553530000604482015290519081900360640190fd5b9250929050565b6000806000610c768585610b89565b604080516bffffffffffffffffffffffff19606094851b811660208084019190915293851b81166034830152825160288184030181526048830184528051908501206001600160f81b031960688401529a90941b9093166069840152607d8301989098527f96e8ac4277198ff8b6f785478aa9a39f403cb768dd02cbee326c3e7da348845f609d808401919091528851808403909101815260bd909201909752805196019590952095945050505050565b6000808060001984860990508385029250828103915082811015610d4c576001820391505b509250929050565b60008181038216808381610d6457fe5b049250808581610d7057fe5b049450808160000381610d7f57fe5b60028581038087028203028087028203028087028203028087028203028087028203028087028203029586029003909402930460010193909302939093010292915050565b60008184841115610e535760405162461bcd60e51b81526004018080602001828103825283818151815260200191508051906020019080838360005b83811015610e18578181015183820152602001610e00565b50505050905090810190601f168015610e455780820380516001836020036101000a031916815260200191505b509250505060405180910390fd5b50505090039056fe5472616e7366657248656c7065723a3a7472616e7366657246726f6d3a207472616e7366657246726f6d206661696c6564556e697377617056324c6962726172793a204944454e544943414c5f414444524553534553536166654d6174683a206d756c7469706c69636174696f6e206f766572666c6f775472616e7366657248656c7065723a3a73616665417070726f76653a20617070726f7665206661696c6564a264697066735822122027cd7ff592ec590a052d652b534614298fd5ee3b9faaf9d7c034d23839066f6364736f6c634300060c0033",
  "immutableReferences": {},
  "source": "pragma solidity ^0.6.0;\n\nimport \"@openzeppelin/contracts/math/SafeMath.sol\";\n\nimport \"@uniswap/v2-core/contracts/interfaces/IUniswapV2Pair.sol\";\nimport \"@uniswap/lib/contracts/libraries/Babylonian.sol\";\nimport \"@uniswap/lib/contracts/libraries/TransferHelper.sol\";\nimport \"@uniswap/lib/contracts/libraries/FullMath.sol\";\nimport \"@uniswap/v2-periphery/contracts/interfaces/IUniswapV2Router01.sol\";\n\n/**\n * @title UniswapBroker\n * @notice Trading contract used to arb uniswap pairs to a desired \"true\" price. Intended use is to arb UMA perpetual\n * synthetics that trade off peg. This implementation can ber used in conjunction with a DSProxy contract to atomically\n * swap and move a uniswap market.\n */\n\ncontract UniswapBroker {\n    using SafeMath for uint256;\n\n    /**\n     * @notice Swaps an amount of either token such that the trade results in the uniswap pair's price being as close as\n     * possible to the truePrice.\n     * @dev True price is expressed in the ratio of token A to token B.\n     * @dev The caller must approve this contract to spend whichever token is intended to be swapped.\n     * @param uniswapRouter address of the uniswap router used to facilate trades.\n     * @param uniswapFactory address of the uniswap factory used to fetch current pair reserves.\n     * @param tokenA address of the first token in the uniswap pair.\n     * @param tokenA address of the second token in the uniswap pair.\n     * @param truePriceTokenA the nominator of the true price.\n     * @param truePriceTokenB the denominatornominator of the true price.\n     * @param maxSpendTokenA maximum to spend in tokenA. Note can be set to zero, thereby limiting the direction of trade.\n     * @param maxSpendTokenA maximum to spend in tokenB. Note can be set to zero, thereby limiting the direction of trade.\n     * @param to recipient of the trade proceeds.\n     * @param to deadline to limit when the trade can execute. If the tx is mined after this timestamp then revert.\n     */\n\n    function swapToPrice(\n        address uniswapRouter,\n        address uniswapFactory,\n        address tokenA,\n        address tokenB,\n        uint256 truePriceTokenA,\n        uint256 truePriceTokenB,\n        uint256 maxSpendTokenA,\n        uint256 maxSpendTokenB,\n        address to,\n        uint256 deadline\n    ) public {\n        IUniswapV2Router01 router = IUniswapV2Router01(uniswapRouter);\n\n        // true price is expressed as a ratio, so both values must be non-zero\n        require(truePriceTokenA != 0 && truePriceTokenB != 0, \"SwapToPrice: ZERO_PRICE\");\n        // caller can specify 0 for either if they wish to swap in only one direction, but not both\n        require(maxSpendTokenA != 0 || maxSpendTokenB != 0, \"SwapToPrice: ZERO_SPEND\");\n\n        bool aToB;\n        uint256 amountIn;\n        {\n            (uint256 reserveA, uint256 reserveB) = getReserves(uniswapFactory, tokenA, tokenB);\n            (aToB, amountIn) = computeTradeToMoveMarket(truePriceTokenA, truePriceTokenB, reserveA, reserveB);\n        }\n\n        require(amountIn > 0, \"SwapToPrice: ZERO_AMOUNT_IN\");\n\n        // spend up to the allowance of the token in\n        uint256 maxSpend = aToB ? maxSpendTokenA : maxSpendTokenB;\n        if (amountIn > maxSpend) {\n            amountIn = maxSpend;\n        }\n\n        address tokenIn = aToB ? tokenA : tokenB;\n        address tokenOut = aToB ? tokenB : tokenA;\n        TransferHelper.safeTransferFrom(tokenIn, msg.sender, address(this), amountIn);\n        TransferHelper.safeApprove(tokenIn, address(router), amountIn);\n\n        address[] memory path = new address[](2);\n        path[0] = tokenIn;\n        path[1] = tokenOut;\n\n        router.swapExactTokensForTokens(\n            amountIn,\n            0, // amountOutMin: we can skip computing this number because the math is tested within the uniswap tests.\n            path,\n            to,\n            deadline\n        );\n    }\n\n    /**\n     * @notice Given the \"true\" price a token (represented by truePriceTokenA/truePriceTokenB) and the reservers in the\n     * uniswap pair, calculate: a) the direction of trade (aToB) and b) the amount needed to trade (amountIn) to move\n     * the pool price to be equalto the true price.\n     * @dev Note that this method uses the Babylonian square root method which has a small margin of error which will\n     * result in a small over or under estimation on the size of the trade needed.\n     * @param truePriceTokenA the nominator of the true price.\n     * @param truePriceTokenB the denominatornominator of the true price.\n     * @param reserveA number of token A in the pair reserves\n     * @param reserveB number of token B in the pair reserves\n     */\n    //\n    function computeTradeToMoveMarket(\n        uint256 truePriceTokenA,\n        uint256 truePriceTokenB,\n        uint256 reserveA,\n        uint256 reserveB\n    ) public pure returns (bool aToB, uint256 amountIn) {\n        aToB = FullMath.mulDiv(reserveA, truePriceTokenB, reserveB) < truePriceTokenA;\n\n        uint256 invariant = reserveA.mul(reserveB);\n\n        // The trade ∆a of token a required to move the market to some desired price P' from the current price P can be\n        // found with ∆a=(kP')^1/2-Ra.\n        uint256 leftSide =\n            Babylonian.sqrt(\n                FullMath.mulDiv(\n                    invariant,\n                    aToB ? truePriceTokenA : truePriceTokenB,\n                    aToB ? truePriceTokenB : truePriceTokenA\n                )\n            );\n        uint256 rightSide = (aToB ? reserveA : reserveB);\n\n        if (leftSide < rightSide) return (false, 0);\n\n        // compute the amount that must be sent to move the price back to the true price.\n        amountIn = leftSide.sub(rightSide);\n    }\n\n    // The methods below are taken from https://github.com/Uniswap/uniswap-v2-periphery/blob/master/contracts/libraries/UniswapV2Library.sol\n    // We could import this library into this contract but this library is dependent Uniswap's SafeMath, which is bound\n    // to solidity 6.6.6. Hardhat can easily deal with two diffrent sets of solidity versions within one project so\n    // unit tests would continue to work fine. However, this would break truffle support in the repo as truffle cant\n    // handel having two diffrent solidity versions. As a work around, the spesific methods needed in the UniswapBroker\n    // are simply moved here to maintain truffle support.\n    function getReserves(\n        address factory,\n        address tokenA,\n        address tokenB\n    ) public view returns (uint256 reserveA, uint256 reserveB) {\n        (address token0, ) = sortTokens(tokenA, tokenB);\n        (uint256 reserve0, uint256 reserve1, ) = IUniswapV2Pair(pairFor(factory, tokenA, tokenB)).getReserves();\n        (reserveA, reserveB) = tokenA == token0 ? (reserve0, reserve1) : (reserve1, reserve0);\n    }\n\n    function sortTokens(address tokenA, address tokenB) internal pure returns (address token0, address token1) {\n        require(tokenA != tokenB, \"UniswapV2Library: IDENTICAL_ADDRESSES\");\n        (token0, token1) = tokenA < tokenB ? (tokenA, tokenB) : (tokenB, tokenA);\n        require(token0 != address(0), \"UniswapV2Library: ZERO_ADDRESS\");\n    }\n\n    // calculates the CREATE2 address for a pair without making any external calls\n    function pairFor(\n        address factory,\n        address tokenA,\n        address tokenB\n    ) internal pure returns (address pair) {\n        (address token0, address token1) = sortTokens(tokenA, tokenB);\n        pair = address(\n            uint256(\n                keccak256(\n                    abi.encodePacked(\n                        hex\"ff\",\n                        factory,\n                        keccak256(abi.encodePacked(token0, token1)),\n                        hex\"96e8ac4277198ff8b6f785478aa9a39f403cb768dd02cbee326c3e7da348845f\" // init code hash\n                    )\n                )\n            )\n        );\n    }\n}\n",
  "sourcePath": "/home/circleci/protocol/packages/core/contracts/trader/uniswap-broker/UniswapBroker.sol",
  "compiler": {
    "name": "solc",
    "version": "0.6.12+commit.27d51765.Emscripten.clang"
  },
  "schemaVersion": "3.2.3",
  "updatedAt": "2021-02-27T02:08:44.466Z",
  "devdoc": {
    "kind": "dev",
    "methods": {
      "computeTradeToMoveMarket(uint256,uint256,uint256,uint256)": {
        "details": "Note that this method uses the Babylonian square root method which has a small margin of error which will result in a small over or under estimation on the size of the trade needed.",
        "params": {
          "reserveA": "number of token A in the pair reserves",
          "reserveB": "number of token B in the pair reserves",
          "truePriceTokenA": "the nominator of the true price.",
          "truePriceTokenB": "the denominatornominator of the true price."
        }
      },
      "swapToPrice(address,address,address,address,uint256,uint256,uint256,uint256,address,uint256)": {
        "details": "True price is expressed in the ratio of token A to token B.The caller must approve this contract to spend whichever token is intended to be swapped.",
        "params": {
          "maxSpendTokenA": "maximum to spend in tokenB. Note can be set to zero, thereby limiting the direction of trade.",
          "to": "deadline to limit when the trade can execute. If the tx is mined after this timestamp then revert.",
          "tokenA": "address of the second token in the uniswap pair.",
          "truePriceTokenA": "the nominator of the true price.",
          "truePriceTokenB": "the denominatornominator of the true price.",
          "uniswapFactory": "address of the uniswap factory used to fetch current pair reserves.",
          "uniswapRouter": "address of the uniswap router used to facilate trades."
        }
      }
    },
    "title": "UniswapBroker",
    "version": 1
  },
  "userdoc": {
    "kind": "user",
    "methods": {
      "computeTradeToMoveMarket(uint256,uint256,uint256,uint256)": {
        "notice": "Given the \"true\" price a token (represented by truePriceTokenA/truePriceTokenB) and the reservers in the uniswap pair, calculate: a) the direction of trade (aToB) and b) the amount needed to trade (amountIn) to move the pool price to be equalto the true price."
      },
      "swapToPrice(address,address,address,address,uint256,uint256,uint256,uint256,address,uint256)": {
        "notice": "Swaps an amount of either token such that the trade results in the uniswap pair's price being as close as possible to the truePrice."
      }
    },
    "notice": "Trading contract used to arb uniswap pairs to a desired \"true\" price. Intended use is to arb UMA perpetual synthetics that trade off peg. This implementation can ber used in conjunction with a DSProxy contract to atomically swap and move a uniswap market.",
    "version": 1
  }
}