{
  "contractName": "VaultMock",
  "abi": [
    {
      "inputs": [
        {
          "internalType": "contract IERC20",
          "name": "_token",
          "type": "address"
        }
      ],
      "stateMutability": "nonpayable",
      "type": "constructor"
    },
    {
      "inputs": [],
      "name": "token",
      "outputs": [
        {
          "internalType": "contract IERC20",
          "name": "",
          "type": "address"
        }
      ],
      "stateMutability": "view",
      "type": "function"
    },
    {
      "inputs": [],
      "name": "getPricePerFullShare",
      "outputs": [
        {
          "internalType": "uint256",
          "name": "",
          "type": "uint256"
        }
      ],
      "stateMutability": "view",
      "type": "function"
    },
    {
      "inputs": [
        {
          "internalType": "uint256",
          "name": "_pricePerFullShare",
          "type": "uint256"
        }
      ],
      "name": "setPricePerFullShare",
      "outputs": [],
      "stateMutability": "nonpayable",
      "type": "function"
    }
  ],
  "bytecode": "0x6080604052600060015534801561001557600080fd5b506040516101503803806101508339818101604052602081101561003857600080fd5b5051600080546001600160a01b039092166001600160a01b031990921691909117905560e7806100696000396000f3fe6080604052348015600f57600080fd5b5060043610603c5760003560e01c806377c7b8fc146041578063c3819fb6146059578063fc0c546a146075575b600080fd5b60476097565b60408051918252519081900360200190f35b607360048036036020811015606d57600080fd5b5035609d565b005b607b60a2565b604080516001600160a01b039092168252519081900360200190f35b60015490565b600155565b6000546001600160a01b03168156fea2646970667358221220a12189675666f736231346ac9bfb2b83f6d1fae262a2d581ae042a99db820f5764736f6c634300060c0033",
  "immutableReferences": {},
  "source": "// SPDX-License-Identifier: AGPL-3.0-only\npragma solidity ^0.6.0;\n\nimport \"../interfaces/VaultInterface.sol\";\nimport \"@openzeppelin/contracts/token/ERC20/IERC20.sol\";\n\n/**\n * @title Mock for yearn-style vaults for use in tests.\n */\ncontract VaultMock is VaultInterface {\n    IERC20 public override token;\n    uint256 private pricePerFullShare = 0;\n\n    constructor(IERC20 _token) public {\n        token = _token;\n    }\n\n    function getPricePerFullShare() external view override returns (uint256) {\n        return pricePerFullShare;\n    }\n\n    function setPricePerFullShare(uint256 _pricePerFullShare) external {\n        pricePerFullShare = _pricePerFullShare;\n    }\n}\n",
  "sourcePath": "/home/circleci/protocol/packages/core/contracts/common/test/VaultMock.sol",
  "compiler": {
    "name": "solc",
    "version": "0.6.12+commit.27d51765.Emscripten.clang"
  },
  "schemaVersion": "3.2.3",
  "updatedAt": "2021-02-27T02:08:44.237Z",
  "devdoc": {
    "kind": "dev",
    "methods": {},
    "title": "Mock for yearn-style vaults for use in tests.",
    "version": 1
  },
  "userdoc": {
    "kind": "user",
    "methods": {},
    "version": 1
  }
}